{
	"contracts/CriptoMoneda.sol": {
		"Criptomoneda": {
			"abi": [
				{
					"inputs": [
						{
							"internalType": "uint256",
							"name": "_suministroInicial",
							"type": "uint256"
						}
					],
					"stateMutability": "nonpayable",
					"type": "constructor"
				},
				{
					"anonymous": false,
					"inputs": [
						{
							"indexed": true,
							"internalType": "address",
							"name": "propietario",
							"type": "address"
						},
						{
							"indexed": true,
							"internalType": "address",
							"name": "autorizado",
							"type": "address"
						},
						{
							"indexed": false,
							"internalType": "uint256",
							"name": "valor",
							"type": "uint256"
						}
					],
					"name": "Aprobacion",
					"type": "event"
				},
				{
					"anonymous": false,
					"inputs": [
						{
							"indexed": true,
							"internalType": "address",
							"name": "anterior",
							"type": "address"
						},
						{
							"indexed": true,
							"internalType": "address",
							"name": "nuevo",
							"type": "address"
						}
					],
					"name": "MinterCambiado",
					"type": "event"
				},
				{
					"anonymous": false,
					"inputs": [
						{
							"indexed": true,
							"internalType": "address",
							"name": "anterior",
							"type": "address"
						},
						{
							"indexed": true,
							"internalType": "address",
							"name": "nuevo",
							"type": "address"
						}
					],
					"name": "PropietarioTransferido",
					"type": "event"
				},
				{
					"anonymous": false,
					"inputs": [
						{
							"indexed": true,
							"internalType": "address",
							"name": "cuenta",
							"type": "address"
						},
						{
							"indexed": false,
							"internalType": "uint256",
							"name": "cantidad",
							"type": "uint256"
						}
					],
					"name": "TokensMinteados",
					"type": "event"
				},
				{
					"anonymous": false,
					"inputs": [
						{
							"indexed": true,
							"internalType": "address",
							"name": "cuenta",
							"type": "address"
						},
						{
							"indexed": false,
							"internalType": "uint256",
							"name": "cantidad",
							"type": "uint256"
						}
					],
					"name": "TokensQuemados",
					"type": "event"
				},
				{
					"anonymous": false,
					"inputs": [
						{
							"indexed": true,
							"internalType": "address",
							"name": "desde",
							"type": "address"
						},
						{
							"indexed": true,
							"internalType": "address",
							"name": "hacia",
							"type": "address"
						},
						{
							"indexed": false,
							"internalType": "uint256",
							"name": "valor",
							"type": "uint256"
						}
					],
					"name": "Transferencia",
					"type": "event"
				},
				{
					"inputs": [
						{
							"internalType": "address",
							"name": "",
							"type": "address"
						},
						{
							"internalType": "address",
							"name": "",
							"type": "address"
						}
					],
					"name": "aprobaciones",
					"outputs": [
						{
							"internalType": "uint256",
							"name": "",
							"type": "uint256"
						}
					],
					"stateMutability": "view",
					"type": "function"
				},
				{
					"inputs": [
						{
							"internalType": "address",
							"name": "_autorizado",
							"type": "address"
						},
						{
							"internalType": "uint256",
							"name": "_cantidad",
							"type": "uint256"
						}
					],
					"name": "aprobar",
					"outputs": [
						{
							"internalType": "bool",
							"name": "",
							"type": "bool"
						}
					],
					"stateMutability": "nonpayable",
					"type": "function"
				},
				{
					"inputs": [
						{
							"internalType": "address",
							"name": "_nuevoMinter",
							"type": "address"
						}
					],
					"name": "cambiarMinter",
					"outputs": [],
					"stateMutability": "nonpayable",
					"type": "function"
				},
				{
					"inputs": [],
					"name": "decimales",
					"outputs": [
						{
							"internalType": "uint8",
							"name": "",
							"type": "uint8"
						}
					],
					"stateMutability": "view",
					"type": "function"
				},
				{
					"inputs": [
						{
							"internalType": "address",
							"name": "_cuenta",
							"type": "address"
						},
						{
							"internalType": "uint256",
							"name": "_cantidad",
							"type": "uint256"
						}
					],
					"name": "mintear",
					"outputs": [
						{
							"internalType": "bool",
							"name": "",
							"type": "bool"
						}
					],
					"stateMutability": "nonpayable",
					"type": "function"
				},
				{
					"inputs": [],
					"name": "minter",
					"outputs": [
						{
							"internalType": "address",
							"name": "",
							"type": "address"
						}
					],
					"stateMutability": "view",
					"type": "function"
				},
				{
					"inputs": [],
					"name": "nombre",
					"outputs": [
						{
							"internalType": "string",
							"name": "",
							"type": "string"
						}
					],
					"stateMutability": "view",
					"type": "function"
				},
				{
					"inputs": [],
					"name": "propietario",
					"outputs": [
						{
							"internalType": "address",
							"name": "",
							"type": "address"
						}
					],
					"stateMutability": "view",
					"type": "function"
				},
				{
					"inputs": [
						{
							"internalType": "uint256",
							"name": "_cantidad",
							"type": "uint256"
						}
					],
					"name": "quemar",
					"outputs": [
						{
							"internalType": "bool",
							"name": "",
							"type": "bool"
						}
					],
					"stateMutability": "nonpayable",
					"type": "function"
				},
				{
					"inputs": [
						{
							"internalType": "address",
							"name": "",
							"type": "address"
						}
					],
					"name": "saldo",
					"outputs": [
						{
							"internalType": "uint256",
							"name": "",
							"type": "uint256"
						}
					],
					"stateMutability": "view",
					"type": "function"
				},
				{
					"inputs": [],
					"name": "simbolo",
					"outputs": [
						{
							"internalType": "string",
							"name": "",
							"type": "string"
						}
					],
					"stateMutability": "view",
					"type": "function"
				},
				{
					"inputs": [],
					"name": "suministroTotal",
					"outputs": [
						{
							"internalType": "uint256",
							"name": "",
							"type": "uint256"
						}
					],
					"stateMutability": "view",
					"type": "function"
				},
				{
					"inputs": [
						{
							"internalType": "address",
							"name": "_destinatario",
							"type": "address"
						},
						{
							"internalType": "uint256",
							"name": "_cantidad",
							"type": "uint256"
						}
					],
					"name": "transferir",
					"outputs": [
						{
							"internalType": "bool",
							"name": "",
							"type": "bool"
						}
					],
					"stateMutability": "nonpayable",
					"type": "function"
				},
				{
					"inputs": [
						{
							"internalType": "address",
							"name": "_origen",
							"type": "address"
						},
						{
							"internalType": "address",
							"name": "_destino",
							"type": "address"
						},
						{
							"internalType": "uint256",
							"name": "_cantidad",
							"type": "uint256"
						}
					],
					"name": "transferirDesde",
					"outputs": [
						{
							"internalType": "bool",
							"name": "",
							"type": "bool"
						}
					],
					"stateMutability": "nonpayable",
					"type": "function"
				},
				{
					"inputs": [
						{
							"internalType": "address",
							"name": "_nuevoPropietario",
							"type": "address"
						}
					],
					"name": "transferirPropiedad",
					"outputs": [],
					"stateMutability": "nonpayable",
					"type": "function"
				}
			],
			"devdoc": {
				"details": "Contrato tipo ERC-20 con funcionalidades completas y variables en espa単ol.",
				"kind": "dev",
				"methods": {},
				"title": "Criptomoneda Sebas Espa単ol",
				"version": 1
			},
			"evm": {
				"assembly": "    /* \"contracts/CriptoMoneda.sol\":188:4529  contract Criptomoneda {... */\n  mstore(0x40, 0x80)\n    /* \"contracts/CriptoMoneda.sol\":261:299  string public nombre = \"MiCriptoSebas\" */\n  mload(0x40)\n  dup1\n  0x40\n  add\n  0x40\n  mstore\n  dup1\n  0x0d\n  dup2\n  mstore\n  0x20\n  add\n  0x4d6943726970746f536562617300000000000000000000000000000000000000\n  dup2\n  mstore\n  pop\n  0x00\n  swap1\n  dup2\n  tag_1\n  swap2\n  swap1\n  tag_2\n  jump\t// in\ntag_1:\n  pop\n    /* \"contracts/CriptoMoneda.sol\":305:334  string public simbolo = \"MCS\" */\n  mload(0x40)\n  dup1\n  0x40\n  add\n  0x40\n  mstore\n  dup1\n  0x03\n  dup2\n  mstore\n  0x20\n  add\n  0x4d43530000000000000000000000000000000000000000000000000000000000\n  dup2\n  mstore\n  pop\n  0x01\n  swap1\n  dup2\n  tag_3\n  swap2\n  swap1\n  tag_2\n  jump\t// in\ntag_3:\n  pop\n    /* \"contracts/CriptoMoneda.sol\":365:367  18 */\n  0x12\n    /* \"contracts/CriptoMoneda.sol\":340:367  uint8 public decimales = 18 */\n  0x02\n  exp(0x0100, 0x00)\n  dup2\n  sload\n  dup2\n  0xff\n  mul\n  not\n  and\n  swap1\n  dup4\n  0xff\n  and\n  mul\n  or\n  swap1\n  sstore\n  pop\n    /* \"contracts/CriptoMoneda.sol\":1492:1653  constructor(uint256 _suministroInicial) {... */\n  callvalue\n  dup1\n  iszero\n  tag_4\n  jumpi\n  revert(0x00, 0x00)\ntag_4:\n  pop\n  mload(0x40)\n  sub(codesize, bytecodeSize)\n  dup1\n  bytecodeSize\n  dup4\n  codecopy\n  dup2\n  dup2\n  add\n  0x40\n  mstore\n  dup2\n  add\n  swap1\n  tag_5\n  swap2\n  swap1\n  tag_6\n  jump\t// in\ntag_5:\n    /* \"contracts/CriptoMoneda.sol\":1556:1566  msg.sender */\n  caller\n    /* \"contracts/CriptoMoneda.sol\":1542:1553  propietario */\n  0x06\n  0x00\n    /* \"contracts/CriptoMoneda.sol\":1542:1566  propietario = msg.sender */\n  0x0100\n  exp\n  dup2\n  sload\n  dup2\n  0xffffffffffffffffffffffffffffffffffffffff\n  mul\n  not\n  and\n  swap1\n  dup4\n  0xffffffffffffffffffffffffffffffffffffffff\n  and\n  mul\n  or\n  swap1\n  sstore\n  pop\n    /* \"contracts/CriptoMoneda.sol\":1585:1595  msg.sender */\n  caller\n    /* \"contracts/CriptoMoneda.sol\":1576:1582  minter */\n  0x07\n  0x00\n    /* \"contracts/CriptoMoneda.sol\":1576:1595  minter = msg.sender */\n  0x0100\n  exp\n  dup2\n  sload\n  dup2\n  0xffffffffffffffffffffffffffffffffffffffff\n  mul\n  not\n  and\n  swap1\n  dup4\n  0xffffffffffffffffffffffffffffffffffffffff\n  and\n  mul\n  or\n  swap1\n  sstore\n  pop\n    /* \"contracts/CriptoMoneda.sol\":1605:1646  _mintear(propietario, _suministroInicial) */\n  tag_9\n    /* \"contracts/CriptoMoneda.sol\":1614:1625  propietario */\n  0x06\n  0x00\n  swap1\n  sload\n  swap1\n  0x0100\n  exp\n  swap1\n  div\n  0xffffffffffffffffffffffffffffffffffffffff\n  and\n    /* \"contracts/CriptoMoneda.sol\":1627:1645  _suministroInicial */\n  dup3\n    /* \"contracts/CriptoMoneda.sol\":1605:1613  _mintear */\n  shl(0x20, tag_10)\n    /* \"contracts/CriptoMoneda.sol\":1605:1646  _mintear(propietario, _suministroInicial) */\n  0x20\n  shr\n  jump\t// in\ntag_9:\n    /* \"contracts/CriptoMoneda.sol\":1492:1653  constructor(uint256 _suministroInicial) {... */\n  pop\n    /* \"contracts/CriptoMoneda.sol\":188:4529  contract Criptomoneda {... */\n  jump(tag_11)\n    /* \"contracts/CriptoMoneda.sol\":4209:4527  function _mintear(address _cuenta, uint256 _cantidad) internal {... */\ntag_10:\n    /* \"contracts/CriptoMoneda.sol\":4309:4310  0 */\n  0x00\n    /* \"contracts/CriptoMoneda.sol\":4290:4311  _cuenta != address(0) */\n  0xffffffffffffffffffffffffffffffffffffffff\n  and\n    /* \"contracts/CriptoMoneda.sol\":4290:4297  _cuenta */\n  dup3\n    /* \"contracts/CriptoMoneda.sol\":4290:4311  _cuenta != address(0) */\n  0xffffffffffffffffffffffffffffffffffffffff\n  and\n  sub\n    /* \"contracts/CriptoMoneda.sol\":4282:4335  require(_cuenta != address(0), \"Direccion no valida\") */\n  tag_13\n  jumpi\n  mload(0x40)\n  0x08c379a000000000000000000000000000000000000000000000000000000000\n  dup2\n  mstore\n  0x04\n  add\n  tag_14\n  swap1\n  tag_15\n  jump\t// in\ntag_14:\n  mload(0x40)\n  dup1\n  swap2\n  sub\n  swap1\n  revert\ntag_13:\n    /* \"contracts/CriptoMoneda.sol\":4363:4372  _cantidad */\n  dup1\n    /* \"contracts/CriptoMoneda.sol\":4345:4350  saldo */\n  0x04\n    /* \"contracts/CriptoMoneda.sol\":4345:4359  saldo[_cuenta] */\n  0x00\n    /* \"contracts/CriptoMoneda.sol\":4351:4358  _cuenta */\n  dup5\n    /* \"contracts/CriptoMoneda.sol\":4345:4359  saldo[_cuenta] */\n  0xffffffffffffffffffffffffffffffffffffffff\n  and\n  0xffffffffffffffffffffffffffffffffffffffff\n  and\n  dup2\n  mstore\n  0x20\n  add\n  swap1\n  dup2\n  mstore\n  0x20\n  add\n  0x00\n  keccak256\n  0x00\n    /* \"contracts/CriptoMoneda.sol\":4345:4372  saldo[_cuenta] += _cantidad */\n  dup3\n  dup3\n  sload\n  tag_16\n  swap2\n  swap1\n  tag_17\n  jump\t// in\ntag_16:\n  swap3\n  pop\n  pop\n  dup2\n  swap1\n  sstore\n  pop\n    /* \"contracts/CriptoMoneda.sol\":4401:4410  _cantidad */\n  dup1\n    /* \"contracts/CriptoMoneda.sol\":4382:4397  suministroTotal */\n  0x03\n  0x00\n    /* \"contracts/CriptoMoneda.sol\":4382:4410  suministroTotal += _cantidad */\n  dup3\n  dup3\n  sload\n  tag_18\n  swap2\n  swap1\n  tag_17\n  jump\t// in\ntag_18:\n  swap3\n  pop\n  pop\n  dup2\n  swap1\n  sstore\n  pop\n    /* \"contracts/CriptoMoneda.sol\":4441:4448  _cuenta */\n  dup2\n    /* \"contracts/CriptoMoneda.sol\":4425:4460  TokensMinteados(_cuenta, _cantidad) */\n  0xffffffffffffffffffffffffffffffffffffffff\n  and\n  0x02f56d420a47aa66acae06942581999fd0a95994d4085347760a11db9dbd780c\n    /* \"contracts/CriptoMoneda.sol\":4450:4459  _cantidad */\n  dup3\n    /* \"contracts/CriptoMoneda.sol\":4425:4460  TokensMinteados(_cuenta, _cantidad) */\n  mload(0x40)\n  tag_19\n  swap2\n  swap1\n  tag_20\n  jump\t// in\ntag_19:\n  mload(0x40)\n  dup1\n  swap2\n  sub\n  swap1\n  log2\n    /* \"contracts/CriptoMoneda.sol\":4501:4508  _cuenta */\n  dup2\n    /* \"contracts/CriptoMoneda.sol\":4475:4520  Transferencia(address(0), _cuenta, _cantidad) */\n  0xffffffffffffffffffffffffffffffffffffffff\n  and\n    /* \"contracts/CriptoMoneda.sol\":4497:4498  0 */\n  0x00\n    /* \"contracts/CriptoMoneda.sol\":4475:4520  Transferencia(address(0), _cuenta, _cantidad) */\n  0xffffffffffffffffffffffffffffffffffffffff\n  and\n  0x1b7e21e9fbba09c8b522cd0648f175bed32718c24534b40660a30d33fd380542\n    /* \"contracts/CriptoMoneda.sol\":4510:4519  _cantidad */\n  dup4\n    /* \"contracts/CriptoMoneda.sol\":4475:4520  Transferencia(address(0), _cuenta, _cantidad) */\n  mload(0x40)\n  tag_21\n  swap2\n  swap1\n  tag_20\n  jump\t// in\ntag_21:\n  mload(0x40)\n  dup1\n  swap2\n  sub\n  swap1\n  log3\n    /* \"contracts/CriptoMoneda.sol\":4209:4527  function _mintear(address _cuenta, uint256 _cantidad) internal {... */\n  pop\n  pop\n  jump\t// out\n    /* \"#utility.yul\":7:106   */\ntag_22:\n    /* \"#utility.yul\":59:65   */\n  0x00\n    /* \"#utility.yul\":93:98   */\n  dup2\n    /* \"#utility.yul\":87:99   */\n  mload\n    /* \"#utility.yul\":77:99   */\n  swap1\n  pop\n    /* \"#utility.yul\":7:106   */\n  swap2\n  swap1\n  pop\n  jump\t// out\n    /* \"#utility.yul\":112:292   */\ntag_23:\n    /* \"#utility.yul\":160:237   */\n  0x4e487b7100000000000000000000000000000000000000000000000000000000\n    /* \"#utility.yul\":157:158   */\n  0x00\n    /* \"#utility.yul\":150:238   */\n  mstore\n    /* \"#utility.yul\":257:261   */\n  0x41\n    /* \"#utility.yul\":254:255   */\n  0x04\n    /* \"#utility.yul\":247:262   */\n  mstore\n    /* \"#utility.yul\":281:285   */\n  0x24\n    /* \"#utility.yul\":278:279   */\n  0x00\n    /* \"#utility.yul\":271:286   */\n  revert\n    /* \"#utility.yul\":298:478   */\ntag_24:\n    /* \"#utility.yul\":346:423   */\n  0x4e487b7100000000000000000000000000000000000000000000000000000000\n    /* \"#utility.yul\":343:344   */\n  0x00\n    /* \"#utility.yul\":336:424   */\n  mstore\n    /* \"#utility.yul\":443:447   */\n  0x22\n    /* \"#utility.yul\":440:441   */\n  0x04\n    /* \"#utility.yul\":433:448   */\n  mstore\n    /* \"#utility.yul\":467:471   */\n  0x24\n    /* \"#utility.yul\":464:465   */\n  0x00\n    /* \"#utility.yul\":457:472   */\n  revert\n    /* \"#utility.yul\":484:804   */\ntag_25:\n    /* \"#utility.yul\":528:534   */\n  0x00\n    /* \"#utility.yul\":565:566   */\n  0x02\n    /* \"#utility.yul\":559:563   */\n  dup3\n    /* \"#utility.yul\":555:567   */\n  div\n    /* \"#utility.yul\":545:567   */\n  swap1\n  pop\n    /* \"#utility.yul\":612:613   */\n  0x01\n    /* \"#utility.yul\":606:610   */\n  dup3\n    /* \"#utility.yul\":602:614   */\n  and\n    /* \"#utility.yul\":633:651   */\n  dup1\n    /* \"#utility.yul\":623:704   */\n  tag_57\n  jumpi\n    /* \"#utility.yul\":689:693   */\n  0x7f\n    /* \"#utility.yul\":681:687   */\n  dup3\n    /* \"#utility.yul\":677:694   */\n  and\n    /* \"#utility.yul\":667:694   */\n  swap2\n  pop\n    /* \"#utility.yul\":623:704   */\ntag_57:\n    /* \"#utility.yul\":751:753   */\n  0x20\n    /* \"#utility.yul\":743:749   */\n  dup3\n    /* \"#utility.yul\":740:754   */\n  lt\n    /* \"#utility.yul\":720:738   */\n  dup2\n    /* \"#utility.yul\":717:755   */\n  sub\n    /* \"#utility.yul\":714:798   */\n  tag_58\n  jumpi\n    /* \"#utility.yul\":770:788   */\n  tag_59\n  tag_24\n  jump\t// in\ntag_59:\n    /* \"#utility.yul\":714:798   */\ntag_58:\n    /* \"#utility.yul\":535:804   */\n  pop\n    /* \"#utility.yul\":484:804   */\n  swap2\n  swap1\n  pop\n  jump\t// out\n    /* \"#utility.yul\":810:951   */\ntag_26:\n    /* \"#utility.yul\":859:863   */\n  0x00\n    /* \"#utility.yul\":882:885   */\n  dup2\n    /* \"#utility.yul\":874:885   */\n  swap1\n  pop\n    /* \"#utility.yul\":905:908   */\n  dup2\n    /* \"#utility.yul\":902:903   */\n  0x00\n    /* \"#utility.yul\":895:909   */\n  mstore\n    /* \"#utility.yul\":939:943   */\n  0x20\n    /* \"#utility.yul\":936:937   */\n  0x00\n    /* \"#utility.yul\":926:944   */\n  keccak256\n    /* \"#utility.yul\":918:944   */\n  swap1\n  pop\n    /* \"#utility.yul\":810:951   */\n  swap2\n  swap1\n  pop\n  jump\t// out\n    /* \"#utility.yul\":957:1050   */\ntag_27:\n    /* \"#utility.yul\":994:1000   */\n  0x00\n    /* \"#utility.yul\":1041:1043   */\n  0x20\n    /* \"#utility.yul\":1036:1038   */\n  0x1f\n    /* \"#utility.yul\":1029:1034   */\n  dup4\n    /* \"#utility.yul\":1025:1039   */\n  add\n    /* \"#utility.yul\":1021:1044   */\n  div\n    /* \"#utility.yul\":1011:1044   */\n  swap1\n  pop\n    /* \"#utility.yul\":957:1050   */\n  swap2\n  swap1\n  pop\n  jump\t// out\n    /* \"#utility.yul\":1056:1163   */\ntag_28:\n    /* \"#utility.yul\":1100:1108   */\n  0x00\n    /* \"#utility.yul\":1150:1155   */\n  dup3\n    /* \"#utility.yul\":1144:1148   */\n  dup3\n    /* \"#utility.yul\":1140:1156   */\n  shl\n    /* \"#utility.yul\":1119:1156   */\n  swap1\n  pop\n    /* \"#utility.yul\":1056:1163   */\n  swap3\n  swap2\n  pop\n  pop\n  jump\t// out\n    /* \"#utility.yul\":1169:1562   */\ntag_29:\n    /* \"#utility.yul\":1238:1244   */\n  0x00\n    /* \"#utility.yul\":1288:1289   */\n  0x08\n    /* \"#utility.yul\":1276:1286   */\n  dup4\n    /* \"#utility.yul\":1272:1290   */\n  mul\n    /* \"#utility.yul\":1311:1408   */\n  tag_64\n    /* \"#utility.yul\":1341:1407   */\n  0xffffffffffffffffffffffffffffffffffffffffffffffffffffffffffffffff\n    /* \"#utility.yul\":1330:1339   */\n  dup3\n    /* \"#utility.yul\":1311:1408   */\n  tag_28\n  jump\t// in\ntag_64:\n    /* \"#utility.yul\":1429:1468   */\n  tag_65\n    /* \"#utility.yul\":1459:1467   */\n  dup7\n    /* \"#utility.yul\":1448:1457   */\n  dup4\n    /* \"#utility.yul\":1429:1468   */\n  tag_28\n  jump\t// in\ntag_65:\n    /* \"#utility.yul\":1417:1468   */\n  swap6\n  pop\n    /* \"#utility.yul\":1501:1505   */\n  dup1\n    /* \"#utility.yul\":1497:1506   */\n  not\n    /* \"#utility.yul\":1490:1495   */\n  dup5\n    /* \"#utility.yul\":1486:1507   */\n  and\n    /* \"#utility.yul\":1477:1507   */\n  swap4\n  pop\n    /* \"#utility.yul\":1550:1554   */\n  dup1\n    /* \"#utility.yul\":1540:1548   */\n  dup7\n    /* \"#utility.yul\":1536:1555   */\n  and\n    /* \"#utility.yul\":1529:1534   */\n  dup5\n    /* \"#utility.yul\":1526:1556   */\n  or\n    /* \"#utility.yul\":1516:1556   */\n  swap3\n  pop\n    /* \"#utility.yul\":1245:1562   */\n  pop\n  pop\n    /* \"#utility.yul\":1169:1562   */\n  swap4\n  swap3\n  pop\n  pop\n  pop\n  jump\t// out\n    /* \"#utility.yul\":1568:1645   */\ntag_30:\n    /* \"#utility.yul\":1605:1612   */\n  0x00\n    /* \"#utility.yul\":1634:1639   */\n  dup2\n    /* \"#utility.yul\":1623:1639   */\n  swap1\n  pop\n    /* \"#utility.yul\":1568:1645   */\n  swap2\n  swap1\n  pop\n  jump\t// out\n    /* \"#utility.yul\":1651:1711   */\ntag_31:\n    /* \"#utility.yul\":1679:1682   */\n  0x00\n    /* \"#utility.yul\":1700:1705   */\n  dup2\n    /* \"#utility.yul\":1693:1705   */\n  swap1\n  pop\n    /* \"#utility.yul\":1651:1711   */\n  swap2\n  swap1\n  pop\n  jump\t// out\n    /* \"#utility.yul\":1717:1859   */\ntag_32:\n    /* \"#utility.yul\":1767:1776   */\n  0x00\n    /* \"#utility.yul\":1800:1853   */\n  tag_69\n    /* \"#utility.yul\":1818:1852   */\n  tag_70\n    /* \"#utility.yul\":1827:1851   */\n  tag_71\n    /* \"#utility.yul\":1845:1850   */\n  dup5\n    /* \"#utility.yul\":1827:1851   */\n  tag_30\n  jump\t// in\ntag_71:\n    /* \"#utility.yul\":1818:1852   */\n  tag_31\n  jump\t// in\ntag_70:\n    /* \"#utility.yul\":1800:1853   */\n  tag_30\n  jump\t// in\ntag_69:\n    /* \"#utility.yul\":1787:1853   */\n  swap1\n  pop\n    /* \"#utility.yul\":1717:1859   */\n  swap2\n  swap1\n  pop\n  jump\t// out\n    /* \"#utility.yul\":1865:1940   */\ntag_33:\n    /* \"#utility.yul\":1908:1911   */\n  0x00\n    /* \"#utility.yul\":1929:1934   */\n  dup2\n    /* \"#utility.yul\":1922:1934   */\n  swap1\n  pop\n    /* \"#utility.yul\":1865:1940   */\n  swap2\n  swap1\n  pop\n  jump\t// out\n    /* \"#utility.yul\":1946:2215   */\ntag_34:\n    /* \"#utility.yul\":2056:2095   */\n  tag_74\n    /* \"#utility.yul\":2087:2094   */\n  dup4\n    /* \"#utility.yul\":2056:2095   */\n  tag_32\n  jump\t// in\ntag_74:\n    /* \"#utility.yul\":2117:2208   */\n  tag_75\n    /* \"#utility.yul\":2166:2207   */\n  tag_76\n    /* \"#utility.yul\":2190:2206   */\n  dup3\n    /* \"#utility.yul\":2166:2207   */\n  tag_33\n  jump\t// in\ntag_76:\n    /* \"#utility.yul\":2158:2164   */\n  dup5\n    /* \"#utility.yul\":2151:2155   */\n  dup5\n    /* \"#utility.yul\":2145:2156   */\n  sload\n    /* \"#utility.yul\":2117:2208   */\n  tag_29\n  jump\t// in\ntag_75:\n    /* \"#utility.yul\":2111:2115   */\n  dup3\n    /* \"#utility.yul\":2104:2209   */\n  sstore\n    /* \"#utility.yul\":2022:2215   */\n  pop\n    /* \"#utility.yul\":1946:2215   */\n  pop\n  pop\n  pop\n  jump\t// out\n    /* \"#utility.yul\":2221:2294   */\ntag_35:\n    /* \"#utility.yul\":2266:2269   */\n  0x00\n    /* \"#utility.yul\":2287:2288   */\n  0x00\n    /* \"#utility.yul\":2280:2288   */\n  swap1\n  pop\n    /* \"#utility.yul\":2221:2294   */\n  swap1\n  jump\t// out\n    /* \"#utility.yul\":2300:2489   */\ntag_36:\n    /* \"#utility.yul\":2377:2409   */\n  tag_79\n  tag_35\n  jump\t// in\ntag_79:\n    /* \"#utility.yul\":2418:2483   */\n  tag_80\n    /* \"#utility.yul\":2476:2482   */\n  dup2\n    /* \"#utility.yul\":2468:2474   */\n  dup5\n    /* \"#utility.yul\":2462:2466   */\n  dup5\n    /* \"#utility.yul\":2418:2483   */\n  tag_34\n  jump\t// in\ntag_80:\n    /* \"#utility.yul\":2353:2489   */\n  pop\n    /* \"#utility.yul\":2300:2489   */\n  pop\n  pop\n  jump\t// out\n    /* \"#utility.yul\":2495:2681   */\ntag_37:\n    /* \"#utility.yul\":2555:2675   */\ntag_82:\n    /* \"#utility.yul\":2572:2575   */\n  dup2\n    /* \"#utility.yul\":2565:2570   */\n  dup2\n    /* \"#utility.yul\":2562:2576   */\n  lt\n    /* \"#utility.yul\":2555:2675   */\n  iszero\n  tag_84\n  jumpi\n    /* \"#utility.yul\":2626:2665   */\n  tag_85\n    /* \"#utility.yul\":2663:2664   */\n  0x00\n    /* \"#utility.yul\":2656:2661   */\n  dup3\n    /* \"#utility.yul\":2626:2665   */\n  tag_36\n  jump\t// in\ntag_85:\n    /* \"#utility.yul\":2599:2600   */\n  0x01\n    /* \"#utility.yul\":2592:2597   */\n  dup2\n    /* \"#utility.yul\":2588:2601   */\n  add\n    /* \"#utility.yul\":2579:2601   */\n  swap1\n  pop\n    /* \"#utility.yul\":2555:2675   */\n  jump(tag_82)\ntag_84:\n    /* \"#utility.yul\":2495:2681   */\n  pop\n  pop\n  jump\t// out\n    /* \"#utility.yul\":2687:3230   */\ntag_38:\n    /* \"#utility.yul\":2788:2790   */\n  0x1f\n    /* \"#utility.yul\":2783:2786   */\n  dup3\n    /* \"#utility.yul\":2780:2791   */\n  gt\n    /* \"#utility.yul\":2777:3223   */\n  iszero\n  tag_87\n  jumpi\n    /* \"#utility.yul\":2822:2860   */\n  tag_88\n    /* \"#utility.yul\":2854:2859   */\n  dup2\n    /* \"#utility.yul\":2822:2860   */\n  tag_26\n  jump\t// in\ntag_88:\n    /* \"#utility.yul\":2906:2935   */\n  tag_89\n    /* \"#utility.yul\":2924:2934   */\n  dup5\n    /* \"#utility.yul\":2906:2935   */\n  tag_27\n  jump\t// in\ntag_89:\n    /* \"#utility.yul\":2896:2904   */\n  dup2\n    /* \"#utility.yul\":2892:2936   */\n  add\n    /* \"#utility.yul\":3089:3091   */\n  0x20\n    /* \"#utility.yul\":3077:3087   */\n  dup6\n    /* \"#utility.yul\":3074:3092   */\n  lt\n    /* \"#utility.yul\":3071:3120   */\n  iszero\n  tag_90\n  jumpi\n    /* \"#utility.yul\":3110:3118   */\n  dup2\n    /* \"#utility.yul\":3095:3118   */\n  swap1\n  pop\n    /* \"#utility.yul\":3071:3120   */\ntag_90:\n    /* \"#utility.yul\":3133:3213   */\n  tag_91\n    /* \"#utility.yul\":3189:3211   */\n  tag_92\n    /* \"#utility.yul\":3207:3210   */\n  dup6\n    /* \"#utility.yul\":3189:3211   */\n  tag_27\n  jump\t// in\ntag_92:\n    /* \"#utility.yul\":3179:3187   */\n  dup4\n    /* \"#utility.yul\":3175:3212   */\n  add\n    /* \"#utility.yul\":3162:3173   */\n  dup3\n    /* \"#utility.yul\":3133:3213   */\n  tag_37\n  jump\t// in\ntag_91:\n    /* \"#utility.yul\":2792:3223   */\n  pop\n  pop\n    /* \"#utility.yul\":2777:3223   */\ntag_87:\n    /* \"#utility.yul\":2687:3230   */\n  pop\n  pop\n  pop\n  jump\t// out\n    /* \"#utility.yul\":3236:3353   */\ntag_39:\n    /* \"#utility.yul\":3290:3298   */\n  0x00\n    /* \"#utility.yul\":3340:3345   */\n  dup3\n    /* \"#utility.yul\":3334:3338   */\n  dup3\n    /* \"#utility.yul\":3330:3346   */\n  shr\n    /* \"#utility.yul\":3309:3346   */\n  swap1\n  pop\n    /* \"#utility.yul\":3236:3353   */\n  swap3\n  swap2\n  pop\n  pop\n  jump\t// out\n    /* \"#utility.yul\":3359:3528   */\ntag_40:\n    /* \"#utility.yul\":3403:3409   */\n  0x00\n    /* \"#utility.yul\":3436:3487   */\n  tag_95\n    /* \"#utility.yul\":3484:3485   */\n  0x00\n    /* \"#utility.yul\":3480:3486   */\n  not\n    /* \"#utility.yul\":3472:3477   */\n  dup5\n    /* \"#utility.yul\":3469:3470   */\n  0x08\n    /* \"#utility.yul\":3465:3478   */\n  mul\n    /* \"#utility.yul\":3436:3487   */\n  tag_39\n  jump\t// in\ntag_95:\n    /* \"#utility.yul\":3432:3488   */\n  not\n    /* \"#utility.yul\":3517:3521   */\n  dup1\n    /* \"#utility.yul\":3511:3515   */\n  dup4\n    /* \"#utility.yul\":3507:3522   */\n  and\n    /* \"#utility.yul\":3497:3522   */\n  swap2\n  pop\n    /* \"#utility.yul\":3410:3528   */\n  pop\n    /* \"#utility.yul\":3359:3528   */\n  swap3\n  swap2\n  pop\n  pop\n  jump\t// out\n    /* \"#utility.yul\":3533:3828   */\ntag_41:\n    /* \"#utility.yul\":3609:3613   */\n  0x00\n    /* \"#utility.yul\":3755:3784   */\n  tag_97\n    /* \"#utility.yul\":3780:3783   */\n  dup4\n    /* \"#utility.yul\":3774:3778   */\n  dup4\n    /* \"#utility.yul\":3755:3784   */\n  tag_40\n  jump\t// in\ntag_97:\n    /* \"#utility.yul\":3747:3784   */\n  swap2\n  pop\n    /* \"#utility.yul\":3817:3820   */\n  dup3\n    /* \"#utility.yul\":3814:3815   */\n  0x02\n    /* \"#utility.yul\":3810:3821   */\n  mul\n    /* \"#utility.yul\":3804:3808   */\n  dup3\n    /* \"#utility.yul\":3801:3822   */\n  or\n    /* \"#utility.yul\":3793:3822   */\n  swap1\n  pop\n    /* \"#utility.yul\":3533:3828   */\n  swap3\n  swap2\n  pop\n  pop\n  jump\t// out\n    /* \"#utility.yul\":3833:5228   */\ntag_2:\n    /* \"#utility.yul\":3950:3987   */\n  tag_99\n    /* \"#utility.yul\":3983:3986   */\n  dup3\n    /* \"#utility.yul\":3950:3987   */\n  tag_22\n  jump\t// in\ntag_99:\n    /* \"#utility.yul\":4052:4070   */\n  0xffffffffffffffff\n    /* \"#utility.yul\":4044:4050   */\n  dup2\n    /* \"#utility.yul\":4041:4071   */\n  gt\n    /* \"#utility.yul\":4038:4094   */\n  iszero\n  tag_100\n  jumpi\n    /* \"#utility.yul\":4074:4092   */\n  tag_101\n  tag_23\n  jump\t// in\ntag_101:\n    /* \"#utility.yul\":4038:4094   */\ntag_100:\n    /* \"#utility.yul\":4118:4156   */\n  tag_102\n    /* \"#utility.yul\":4150:4154   */\n  dup3\n    /* \"#utility.yul\":4144:4155   */\n  sload\n    /* \"#utility.yul\":4118:4156   */\n  tag_25\n  jump\t// in\ntag_102:\n    /* \"#utility.yul\":4203:4270   */\n  tag_103\n    /* \"#utility.yul\":4263:4269   */\n  dup3\n    /* \"#utility.yul\":4255:4261   */\n  dup3\n    /* \"#utility.yul\":4249:4253   */\n  dup6\n    /* \"#utility.yul\":4203:4270   */\n  tag_38\n  jump\t// in\ntag_103:\n    /* \"#utility.yul\":4297:4298   */\n  0x00\n    /* \"#utility.yul\":4321:4325   */\n  0x20\n    /* \"#utility.yul\":4308:4325   */\n  swap1\n  pop\n    /* \"#utility.yul\":4353:4355   */\n  0x1f\n    /* \"#utility.yul\":4345:4351   */\n  dup4\n    /* \"#utility.yul\":4342:4356   */\n  gt\n    /* \"#utility.yul\":4370:4371   */\n  0x01\n    /* \"#utility.yul\":4365:4983   */\n  dup2\n  eq\n  tag_105\n  jumpi\n    /* \"#utility.yul\":5027:5028   */\n  0x00\n    /* \"#utility.yul\":5044:5050   */\n  dup5\n    /* \"#utility.yul\":5041:5118   */\n  iszero\n  tag_106\n  jumpi\n    /* \"#utility.yul\":5093:5102   */\n  dup3\n    /* \"#utility.yul\":5088:5091   */\n  dup8\n    /* \"#utility.yul\":5084:5103   */\n  add\n    /* \"#utility.yul\":5078:5104   */\n  mload\n    /* \"#utility.yul\":5069:5104   */\n  swap1\n  pop\n    /* \"#utility.yul\":5041:5118   */\ntag_106:\n    /* \"#utility.yul\":5144:5211   */\n  tag_107\n    /* \"#utility.yul\":5204:5210   */\n  dup6\n    /* \"#utility.yul\":5197:5202   */\n  dup3\n    /* \"#utility.yul\":5144:5211   */\n  tag_41\n  jump\t// in\ntag_107:\n    /* \"#utility.yul\":5138:5142   */\n  dup7\n    /* \"#utility.yul\":5131:5212   */\n  sstore\n    /* \"#utility.yul\":5000:5222   */\n  pop\n    /* \"#utility.yul\":4335:5222   */\n  jump(tag_104)\n    /* \"#utility.yul\":4365:4983   */\ntag_105:\n    /* \"#utility.yul\":4417:4421   */\n  0x1f\n    /* \"#utility.yul\":4413:4422   */\n  not\n    /* \"#utility.yul\":4405:4411   */\n  dup5\n    /* \"#utility.yul\":4401:4423   */\n  and\n    /* \"#utility.yul\":4451:4488   */\n  tag_108\n    /* \"#utility.yul\":4483:4487   */\n  dup7\n    /* \"#utility.yul\":4451:4488   */\n  tag_26\n  jump\t// in\ntag_108:\n    /* \"#utility.yul\":4510:4511   */\n  0x00\n    /* \"#utility.yul\":4524:4732   */\ntag_109:\n    /* \"#utility.yul\":4538:4545   */\n  dup3\n    /* \"#utility.yul\":4535:4536   */\n  dup2\n    /* \"#utility.yul\":4532:4546   */\n  lt\n    /* \"#utility.yul\":4524:4732   */\n  iszero\n  tag_111\n  jumpi\n    /* \"#utility.yul\":4617:4626   */\n  dup5\n    /* \"#utility.yul\":4612:4615   */\n  dup10\n    /* \"#utility.yul\":4608:4627   */\n  add\n    /* \"#utility.yul\":4602:4628   */\n  mload\n    /* \"#utility.yul\":4594:4600   */\n  dup3\n    /* \"#utility.yul\":4587:4629   */\n  sstore\n    /* \"#utility.yul\":4668:4669   */\n  0x01\n    /* \"#utility.yul\":4660:4666   */\n  dup3\n    /* \"#utility.yul\":4656:4670   */\n  add\n    /* \"#utility.yul\":4646:4670   */\n  swap2\n  pop\n    /* \"#utility.yul\":4715:4717   */\n  0x20\n    /* \"#utility.yul\":4704:4713   */\n  dup6\n    /* \"#utility.yul\":4700:4718   */\n  add\n    /* \"#utility.yul\":4687:4718   */\n  swap5\n  pop\n    /* \"#utility.yul\":4561:4565   */\n  0x20\n    /* \"#utility.yul\":4558:4559   */\n  dup2\n    /* \"#utility.yul\":4554:4566   */\n  add\n    /* \"#utility.yul\":4549:4566   */\n  swap1\n  pop\n    /* \"#utility.yul\":4524:4732   */\n  jump(tag_109)\ntag_111:\n    /* \"#utility.yul\":4760:4766   */\n  dup7\n    /* \"#utility.yul\":4751:4758   */\n  dup4\n    /* \"#utility.yul\":4748:4767   */\n  lt\n    /* \"#utility.yul\":4745:4924   */\n  iszero\n  tag_112\n  jumpi\n    /* \"#utility.yul\":4818:4827   */\n  dup5\n    /* \"#utility.yul\":4813:4816   */\n  dup10\n    /* \"#utility.yul\":4809:4828   */\n  add\n    /* \"#utility.yul\":4803:4829   */\n  mload\n    /* \"#utility.yul\":4861:4909   */\n  tag_113\n    /* \"#utility.yul\":4903:4907   */\n  0x1f\n    /* \"#utility.yul\":4895:4901   */\n  dup10\n    /* \"#utility.yul\":4891:4908   */\n  and\n    /* \"#utility.yul\":4880:4889   */\n  dup3\n    /* \"#utility.yul\":4861:4909   */\n  tag_40\n  jump\t// in\ntag_113:\n    /* \"#utility.yul\":4853:4859   */\n  dup4\n    /* \"#utility.yul\":4846:4910   */\n  sstore\n    /* \"#utility.yul\":4768:4924   */\n  pop\n    /* \"#utility.yul\":4745:4924   */\ntag_112:\n    /* \"#utility.yul\":4970:4971   */\n  0x01\n    /* \"#utility.yul\":4966:4967   */\n  0x02\n    /* \"#utility.yul\":4958:4964   */\n  dup9\n    /* \"#utility.yul\":4954:4968   */\n  mul\n    /* \"#utility.yul\":4950:4972   */\n  add\n    /* \"#utility.yul\":4944:4948   */\n  dup9\n    /* \"#utility.yul\":4937:4973   */\n  sstore\n    /* \"#utility.yul\":4372:4983   */\n  pop\n  pop\n  pop\n    /* \"#utility.yul\":4335:5222   */\ntag_104:\n  pop\n    /* \"#utility.yul\":3925:5228   */\n  pop\n  pop\n  pop\n    /* \"#utility.yul\":3833:5228   */\n  pop\n  pop\n  jump\t// out\n    /* \"#utility.yul\":5315:5432   */\ntag_43:\n    /* \"#utility.yul\":5424:5425   */\n  0x00\n    /* \"#utility.yul\":5421:5422   */\n  0x00\n    /* \"#utility.yul\":5414:5426   */\n  revert\n    /* \"#utility.yul\":5561:5683   */\ntag_45:\n    /* \"#utility.yul\":5634:5658   */\n  tag_118\n    /* \"#utility.yul\":5652:5657   */\n  dup2\n    /* \"#utility.yul\":5634:5658   */\n  tag_30\n  jump\t// in\ntag_118:\n    /* \"#utility.yul\":5627:5632   */\n  dup2\n    /* \"#utility.yul\":5624:5659   */\n  eq\n    /* \"#utility.yul\":5614:5677   */\n  tag_119\n  jumpi\n    /* \"#utility.yul\":5673:5674   */\n  0x00\n    /* \"#utility.yul\":5670:5671   */\n  0x00\n    /* \"#utility.yul\":5663:5675   */\n  revert\n    /* \"#utility.yul\":5614:5677   */\ntag_119:\n    /* \"#utility.yul\":5561:5683   */\n  pop\n  jump\t// out\n    /* \"#utility.yul\":5689:5832   */\ntag_46:\n    /* \"#utility.yul\":5746:5751   */\n  0x00\n    /* \"#utility.yul\":5777:5783   */\n  dup2\n    /* \"#utility.yul\":5771:5784   */\n  mload\n    /* \"#utility.yul\":5762:5784   */\n  swap1\n  pop\n    /* \"#utility.yul\":5793:5826   */\n  tag_121\n    /* \"#utility.yul\":5820:5825   */\n  dup2\n    /* \"#utility.yul\":5793:5826   */\n  tag_45\n  jump\t// in\ntag_121:\n    /* \"#utility.yul\":5689:5832   */\n  swap3\n  swap2\n  pop\n  pop\n  jump\t// out\n    /* \"#utility.yul\":5838:6189   */\ntag_6:\n    /* \"#utility.yul\":5908:5914   */\n  0x00\n    /* \"#utility.yul\":5957:5959   */\n  0x20\n    /* \"#utility.yul\":5945:5954   */\n  dup3\n    /* \"#utility.yul\":5936:5943   */\n  dup5\n    /* \"#utility.yul\":5932:5955   */\n  sub\n    /* \"#utility.yul\":5928:5960   */\n  slt\n    /* \"#utility.yul\":5925:6044   */\n  iszero\n  tag_123\n  jumpi\n    /* \"#utility.yul\":5963:6042   */\n  tag_124\n  tag_43\n  jump\t// in\ntag_124:\n    /* \"#utility.yul\":5925:6044   */\ntag_123:\n    /* \"#utility.yul\":6083:6084   */\n  0x00\n    /* \"#utility.yul\":6108:6172   */\n  tag_125\n    /* \"#utility.yul\":6164:6171   */\n  dup5\n    /* \"#utility.yul\":6155:6161   */\n  dup3\n    /* \"#utility.yul\":6144:6153   */\n  dup6\n    /* \"#utility.yul\":6140:6162   */\n  add\n    /* \"#utility.yul\":6108:6172   */\n  tag_46\n  jump\t// in\ntag_125:\n    /* \"#utility.yul\":6098:6172   */\n  swap2\n  pop\n    /* \"#utility.yul\":6054:6182   */\n  pop\n    /* \"#utility.yul\":5838:6189   */\n  swap3\n  swap2\n  pop\n  pop\n  jump\t// out\n    /* \"#utility.yul\":6195:6364   */\ntag_47:\n    /* \"#utility.yul\":6279:6290   */\n  0x00\n    /* \"#utility.yul\":6313:6319   */\n  dup3\n    /* \"#utility.yul\":6308:6311   */\n  dup3\n    /* \"#utility.yul\":6301:6320   */\n  mstore\n    /* \"#utility.yul\":6353:6357   */\n  0x20\n    /* \"#utility.yul\":6348:6351   */\n  dup3\n    /* \"#utility.yul\":6344:6358   */\n  add\n    /* \"#utility.yul\":6329:6358   */\n  swap1\n  pop\n    /* \"#utility.yul\":6195:6364   */\n  swap3\n  swap2\n  pop\n  pop\n  jump\t// out\n    /* \"#utility.yul\":6370:6539   */\ntag_48:\n    /* \"#utility.yul\":6510:6531   */\n  0x446972656363696f6e206e6f2076616c69646100000000000000000000000000\n    /* \"#utility.yul\":6506:6507   */\n  0x00\n    /* \"#utility.yul\":6498:6504   */\n  dup3\n    /* \"#utility.yul\":6494:6508   */\n  add\n    /* \"#utility.yul\":6487:6532   */\n  mstore\n    /* \"#utility.yul\":6370:6539   */\n  pop\n  jump\t// out\n    /* \"#utility.yul\":6545:6911   */\ntag_49:\n    /* \"#utility.yul\":6687:6690   */\n  0x00\n    /* \"#utility.yul\":6708:6775   */\n  tag_129\n    /* \"#utility.yul\":6772:6774   */\n  0x13\n    /* \"#utility.yul\":6767:6770   */\n  dup4\n    /* \"#utility.yul\":6708:6775   */\n  tag_47\n  jump\t// in\ntag_129:\n    /* \"#utility.yul\":6701:6775   */\n  swap2\n  pop\n    /* \"#utility.yul\":6784:6877   */\n  tag_130\n    /* \"#utility.yul\":6873:6876   */\n  dup3\n    /* \"#utility.yul\":6784:6877   */\n  tag_48\n  jump\t// in\ntag_130:\n    /* \"#utility.yul\":6902:6904   */\n  0x20\n    /* \"#utility.yul\":6897:6900   */\n  dup3\n    /* \"#utility.yul\":6893:6905   */\n  add\n    /* \"#utility.yul\":6886:6905   */\n  swap1\n  pop\n    /* \"#utility.yul\":6545:6911   */\n  swap2\n  swap1\n  pop\n  jump\t// out\n    /* \"#utility.yul\":6917:7336   */\ntag_15:\n    /* \"#utility.yul\":7083:7087   */\n  0x00\n    /* \"#utility.yul\":7121:7123   */\n  0x20\n    /* \"#utility.yul\":7110:7119   */\n  dup3\n    /* \"#utility.yul\":7106:7124   */\n  add\n    /* \"#utility.yul\":7098:7124   */\n  swap1\n  pop\n    /* \"#utility.yul\":7170:7179   */\n  dup2\n    /* \"#utility.yul\":7164:7168   */\n  dup2\n    /* \"#utility.yul\":7160:7180   */\n  sub\n    /* \"#utility.yul\":7156:7157   */\n  0x00\n    /* \"#utility.yul\":7145:7154   */\n  dup4\n    /* \"#utility.yul\":7141:7158   */\n  add\n    /* \"#utility.yul\":7134:7181   */\n  mstore\n    /* \"#utility.yul\":7198:7329   */\n  tag_132\n    /* \"#utility.yul\":7324:7328   */\n  dup2\n    /* \"#utility.yul\":7198:7329   */\n  tag_49\n  jump\t// in\ntag_132:\n    /* \"#utility.yul\":7190:7329   */\n  swap1\n  pop\n    /* \"#utility.yul\":6917:7336   */\n  swap2\n  swap1\n  pop\n  jump\t// out\n    /* \"#utility.yul\":7342:7522   */\ntag_50:\n    /* \"#utility.yul\":7390:7467   */\n  0x4e487b7100000000000000000000000000000000000000000000000000000000\n    /* \"#utility.yul\":7387:7388   */\n  0x00\n    /* \"#utility.yul\":7380:7468   */\n  mstore\n    /* \"#utility.yul\":7487:7491   */\n  0x11\n    /* \"#utility.yul\":7484:7485   */\n  0x04\n    /* \"#utility.yul\":7477:7492   */\n  mstore\n    /* \"#utility.yul\":7511:7515   */\n  0x24\n    /* \"#utility.yul\":7508:7509   */\n  0x00\n    /* \"#utility.yul\":7501:7516   */\n  revert\n    /* \"#utility.yul\":7528:7719   */\ntag_17:\n    /* \"#utility.yul\":7568:7571   */\n  0x00\n    /* \"#utility.yul\":7587:7607   */\n  tag_135\n    /* \"#utility.yul\":7605:7606   */\n  dup3\n    /* \"#utility.yul\":7587:7607   */\n  tag_30\n  jump\t// in\ntag_135:\n    /* \"#utility.yul\":7582:7607   */\n  swap2\n  pop\n    /* \"#utility.yul\":7621:7641   */\n  tag_136\n    /* \"#utility.yul\":7639:7640   */\n  dup4\n    /* \"#utility.yul\":7621:7641   */\n  tag_30\n  jump\t// in\ntag_136:\n    /* \"#utility.yul\":7616:7641   */\n  swap3\n  pop\n    /* \"#utility.yul\":7664:7665   */\n  dup3\n    /* \"#utility.yul\":7661:7662   */\n  dup3\n    /* \"#utility.yul\":7657:7666   */\n  add\n    /* \"#utility.yul\":7650:7666   */\n  swap1\n  pop\n    /* \"#utility.yul\":7685:7688   */\n  dup1\n    /* \"#utility.yul\":7682:7683   */\n  dup3\n    /* \"#utility.yul\":7679:7689   */\n  gt\n    /* \"#utility.yul\":7676:7712   */\n  iszero\n  tag_137\n  jumpi\n    /* \"#utility.yul\":7692:7710   */\n  tag_138\n  tag_50\n  jump\t// in\ntag_138:\n    /* \"#utility.yul\":7676:7712   */\ntag_137:\n    /* \"#utility.yul\":7528:7719   */\n  swap3\n  swap2\n  pop\n  pop\n  jump\t// out\n    /* \"#utility.yul\":7725:7843   */\ntag_51:\n    /* \"#utility.yul\":7812:7836   */\n  tag_140\n    /* \"#utility.yul\":7830:7835   */\n  dup2\n    /* \"#utility.yul\":7812:7836   */\n  tag_30\n  jump\t// in\ntag_140:\n    /* \"#utility.yul\":7807:7810   */\n  dup3\n    /* \"#utility.yul\":7800:7837   */\n  mstore\n    /* \"#utility.yul\":7725:7843   */\n  pop\n  pop\n  jump\t// out\n    /* \"#utility.yul\":7849:8071   */\ntag_20:\n    /* \"#utility.yul\":7942:7946   */\n  0x00\n    /* \"#utility.yul\":7980:7982   */\n  0x20\n    /* \"#utility.yul\":7969:7978   */\n  dup3\n    /* \"#utility.yul\":7965:7983   */\n  add\n    /* \"#utility.yul\":7957:7983   */\n  swap1\n  pop\n    /* \"#utility.yul\":7993:8064   */\n  tag_142\n    /* \"#utility.yul\":8061:8062   */\n  0x00\n    /* \"#utility.yul\":8050:8059   */\n  dup4\n    /* \"#utility.yul\":8046:8063   */\n  add\n    /* \"#utility.yul\":8037:8043   */\n  dup5\n    /* \"#utility.yul\":7993:8064   */\n  tag_51\n  jump\t// in\ntag_142:\n    /* \"#utility.yul\":7849:8071   */\n  swap3\n  swap2\n  pop\n  pop\n  jump\t// out\n    /* \"contracts/CriptoMoneda.sol\":188:4529  contract Criptomoneda {... */\ntag_11:\n  dataSize(sub_0)\n  dup1\n  dataOffset(sub_0)\n  0x00\n  codecopy\n  0x00\n  return\nstop\n\nsub_0: assembly {\n        /* \"contracts/CriptoMoneda.sol\":188:4529  contract Criptomoneda {... */\n      mstore(0x40, 0x80)\n      callvalue\n      dup1\n      iszero\n      tag_1\n      jumpi\n      revert(0x00, 0x00)\n    tag_1:\n      pop\n      jumpi(tag_2, lt(calldatasize, 0x04))\n      shr(0xe0, calldataload(0x00))\n      dup1\n      0x40847d2d\n      gt\n      tag_18\n      jumpi\n      dup1\n      0xbc7b35b2\n      gt\n      tag_19\n      jumpi\n      dup1\n      0xbc7b35b2\n      eq\n      tag_14\n      jumpi\n      dup1\n      0xbdda4240\n      eq\n      tag_15\n      jumpi\n      dup1\n      0xc7a72961\n      eq\n      tag_16\n      jumpi\n      dup1\n      0xc7b50ea9\n      eq\n      tag_17\n      jumpi\n      jump(tag_2)\n    tag_19:\n      dup1\n      0x40847d2d\n      eq\n      tag_10\n      jumpi\n      dup1\n      0x422fb525\n      eq\n      tag_11\n      jumpi\n      dup1\n      0x9480b87c\n      eq\n      tag_12\n      jumpi\n      dup1\n      0xa9fe6c98\n      eq\n      tag_13\n      jumpi\n      jump(tag_2)\n    tag_18:\n      dup1\n      0x0de82bae\n      gt\n      tag_20\n      jumpi\n      dup1\n      0x0de82bae\n      eq\n      tag_6\n      jumpi\n      dup1\n      0x0f9ccfaf\n      eq\n      tag_7\n      jumpi\n      dup1\n      0x3c4f81cd\n      eq\n      tag_8\n      jumpi\n      dup1\n      0x3d3c3691\n      eq\n      tag_9\n      jumpi\n      jump(tag_2)\n    tag_20:\n      dup1\n      0x9a458a\n      eq\n      tag_3\n      jumpi\n      dup1\n      0x07546172\n      eq\n      tag_4\n      jumpi\n      dup1\n      0x0d86473a\n      eq\n      tag_5\n      jumpi\n    tag_2:\n      revert(0x00, 0x00)\n        /* \"contracts/CriptoMoneda.sol\":3616:3885  function transferirPropiedad(address _nuevoPropietario) public soloPropietario {... */\n    tag_3:\n      tag_21\n      0x04\n      dup1\n      calldatasize\n      sub\n      dup2\n      add\n      swap1\n      tag_22\n      swap2\n      swap1\n      tag_23\n      jump\t// in\n    tag_22:\n      tag_24\n      jump\t// in\n    tag_21:\n      stop\n        /* \"contracts/CriptoMoneda.sol\":560:581  address public minter */\n    tag_4:\n      tag_25\n      tag_26\n      jump\t// in\n    tag_25:\n      mload(0x40)\n      tag_27\n      swap2\n      swap1\n      tag_28\n      jump\t// in\n    tag_27:\n      mload(0x40)\n      dup1\n      swap2\n      sub\n      swap1\n      return\n        /* \"contracts/CriptoMoneda.sol\":340:367  uint8 public decimales = 18 */\n    tag_5:\n      tag_29\n      tag_30\n      jump\t// in\n    tag_29:\n      mload(0x40)\n      tag_31\n      swap2\n      swap1\n      tag_32\n      jump\t// in\n    tag_31:\n      mload(0x40)\n      dup1\n      swap2\n      sub\n      swap1\n      return\n        /* \"contracts/CriptoMoneda.sol\":305:334  string public simbolo = \"MCS\" */\n    tag_6:\n      tag_33\n      tag_34\n      jump\t// in\n    tag_33:\n      mload(0x40)\n      tag_35\n      swap2\n      swap1\n      tag_36\n      jump\t// in\n    tag_35:\n      mload(0x40)\n      dup1\n      swap2\n      sub\n      swap1\n      return\n        /* \"contracts/CriptoMoneda.sol\":373:403  uint256 public suministroTotal */\n    tag_7:\n      tag_37\n      tag_38\n      jump\t// in\n    tag_37:\n      mload(0x40)\n      tag_39\n      swap2\n      swap1\n      tag_40\n      jump\t// in\n    tag_39:\n      mload(0x40)\n      dup1\n      swap2\n      sub\n      swap1\n      return\n        /* \"contracts/CriptoMoneda.sol\":528:554  address public propietario */\n    tag_8:\n      tag_41\n      tag_42\n      jump\t// in\n    tag_41:\n      mload(0x40)\n      tag_43\n      swap2\n      swap1\n      tag_28\n      jump\t// in\n    tag_43:\n      mload(0x40)\n      dup1\n      swap2\n      sub\n      swap1\n      return\n        /* \"contracts/CriptoMoneda.sol\":3325:3550  function cambiarMinter(address _nuevoMinter) public soloPropietario {... */\n    tag_9:\n      tag_44\n      0x04\n      dup1\n      calldatasize\n      sub\n      dup2\n      add\n      swap1\n      tag_45\n      swap2\n      swap1\n      tag_23\n      jump\t// in\n    tag_45:\n      tag_46\n      jump\t// in\n    tag_44:\n      stop\n        /* \"contracts/CriptoMoneda.sol\":1704:1946  function transferir(address _destinatario, uint256 _cantidad) public returns (bool) {... */\n    tag_10:\n      tag_47\n      0x04\n      dup1\n      calldatasize\n      sub\n      dup2\n      add\n      swap1\n      tag_48\n      swap2\n      swap1\n      tag_49\n      jump\t// in\n    tag_48:\n      tag_50\n      jump\t// in\n    tag_47:\n      mload(0x40)\n      tag_51\n      swap2\n      swap1\n      tag_52\n      jump\t// in\n    tag_51:\n      mload(0x40)\n      dup1\n      swap2\n      sub\n      swap1\n      return\n        /* \"contracts/CriptoMoneda.sol\":409:449  mapping(address => uint256) public saldo */\n    tag_11:\n      tag_53\n      0x04\n      dup1\n      calldatasize\n      sub\n      dup2\n      add\n      swap1\n      tag_54\n      swap2\n      swap1\n      tag_23\n      jump\t// in\n    tag_54:\n      tag_55\n      jump\t// in\n    tag_53:\n      mload(0x40)\n      tag_56\n      swap2\n      swap1\n      tag_40\n      jump\t// in\n    tag_56:\n      mload(0x40)\n      dup1\n      swap2\n      sub\n      swap1\n      return\n        /* \"contracts/CriptoMoneda.sol\":2711:3072  function quemar(uint256 _cantidad) public returns (bool) {... */\n    tag_12:\n      tag_57\n      0x04\n      dup1\n      calldatasize\n      sub\n      dup2\n      add\n      swap1\n      tag_58\n      swap2\n      swap1\n      tag_59\n      jump\t// in\n    tag_58:\n      tag_60\n      jump\t// in\n    tag_57:\n      mload(0x40)\n      tag_61\n      swap2\n      swap1\n      tag_52\n      jump\t// in\n    tag_61:\n      mload(0x40)\n      dup1\n      swap2\n      sub\n      swap1\n      return\n        /* \"contracts/CriptoMoneda.sol\":2289:2675  function transferirDesde(address _origen, address _destino, uint256 _cantidad) public returns (bool) {... */\n    tag_13:\n      tag_62\n      0x04\n      dup1\n      calldatasize\n      sub\n      dup2\n      add\n      swap1\n      tag_63\n      swap2\n      swap1\n      tag_64\n      jump\t// in\n    tag_63:\n      tag_65\n      jump\t// in\n    tag_62:\n      mload(0x40)\n      tag_66\n      swap2\n      swap1\n      tag_52\n      jump\t// in\n    tag_66:\n      mload(0x40)\n      dup1\n      swap2\n      sub\n      swap1\n      return\n        /* \"contracts/CriptoMoneda.sol\":261:299  string public nombre = \"MiCriptoSebas\" */\n    tag_14:\n      tag_67\n      tag_68\n      jump\t// in\n    tag_67:\n      mload(0x40)\n      tag_69\n      swap2\n      swap1\n      tag_36\n      jump\t// in\n    tag_69:\n      mload(0x40)\n      dup1\n      swap2\n      sub\n      swap1\n      return\n        /* \"contracts/CriptoMoneda.sol\":3139:3291  function mintear(address _cuenta, uint256 _cantidad) public soloMinter returns (bool) {... */\n    tag_15:\n      tag_70\n      0x04\n      dup1\n      calldatasize\n      sub\n      dup2\n      add\n      swap1\n      tag_71\n      swap2\n      swap1\n      tag_49\n      jump\t// in\n    tag_71:\n      tag_72\n      jump\t// in\n    tag_70:\n      mload(0x40)\n      tag_73\n      swap2\n      swap1\n      tag_52\n      jump\t// in\n    tag_73:\n      mload(0x40)\n      dup1\n      swap2\n      sub\n      swap1\n      return\n        /* \"contracts/CriptoMoneda.sol\":2008:2235  function aprobar(address _autorizado, uint256 _cantidad) public returns (bool) {... */\n    tag_16:\n      tag_74\n      0x04\n      dup1\n      calldatasize\n      sub\n      dup2\n      add\n      swap1\n      tag_75\n      swap2\n      swap1\n      tag_49\n      jump\t// in\n    tag_75:\n      tag_76\n      jump\t// in\n    tag_74:\n      mload(0x40)\n      tag_77\n      swap2\n      swap1\n      tag_52\n      jump\t// in\n    tag_77:\n      mload(0x40)\n      dup1\n      swap2\n      sub\n      swap1\n      return\n        /* \"contracts/CriptoMoneda.sol\":455:522  mapping(address => mapping(address => uint256)) public aprobaciones */\n    tag_17:\n      tag_78\n      0x04\n      dup1\n      calldatasize\n      sub\n      dup2\n      add\n      swap1\n      tag_79\n      swap2\n      swap1\n      tag_80\n      jump\t// in\n    tag_79:\n      tag_81\n      jump\t// in\n    tag_78:\n      mload(0x40)\n      tag_82\n      swap2\n      swap1\n      tag_40\n      jump\t// in\n    tag_82:\n      mload(0x40)\n      dup1\n      swap2\n      sub\n      swap1\n      return\n        /* \"contracts/CriptoMoneda.sol\":3616:3885  function transferirPropiedad(address _nuevoPropietario) public soloPropietario {... */\n    tag_24:\n        /* \"contracts/CriptoMoneda.sol\":1252:1263  propietario */\n      0x06\n      0x00\n      swap1\n      sload\n      swap1\n      0x0100\n      exp\n      swap1\n      div\n      0xffffffffffffffffffffffffffffffffffffffff\n      and\n        /* \"contracts/CriptoMoneda.sol\":1238:1263  msg.sender == propietario */\n      0xffffffffffffffffffffffffffffffffffffffff\n      and\n        /* \"contracts/CriptoMoneda.sol\":1238:1248  msg.sender */\n      caller\n        /* \"contracts/CriptoMoneda.sol\":1238:1263  msg.sender == propietario */\n      0xffffffffffffffffffffffffffffffffffffffff\n      and\n      eq\n        /* \"contracts/CriptoMoneda.sol\":1230:1307  require(msg.sender == propietario, \"Solo el propietario puede ejecutar esto\") */\n      tag_84\n      jumpi\n      mload(0x40)\n      0x08c379a000000000000000000000000000000000000000000000000000000000\n      dup2\n      mstore\n      0x04\n      add\n      tag_85\n      swap1\n      tag_86\n      jump\t// in\n    tag_85:\n      mload(0x40)\n      dup1\n      swap2\n      sub\n      swap1\n      revert\n    tag_84:\n        /* \"contracts/CriptoMoneda.sol\":3742:3743  0 */\n      0x00\n        /* \"contracts/CriptoMoneda.sol\":3713:3744  _nuevoPropietario != address(0) */\n      0xffffffffffffffffffffffffffffffffffffffff\n      and\n        /* \"contracts/CriptoMoneda.sol\":3713:3730  _nuevoPropietario */\n      dup2\n        /* \"contracts/CriptoMoneda.sol\":3713:3744  _nuevoPropietario != address(0) */\n      0xffffffffffffffffffffffffffffffffffffffff\n      and\n      sub\n        /* \"contracts/CriptoMoneda.sol\":3705:3768  require(_nuevoPropietario != address(0), \"Direccion no valida\") */\n      tag_88\n      jumpi\n      mload(0x40)\n      0x08c379a000000000000000000000000000000000000000000000000000000000\n      dup2\n      mstore\n      0x04\n      add\n      tag_89\n      swap1\n      tag_90\n      jump\t// in\n    tag_89:\n      mload(0x40)\n      dup1\n      swap2\n      sub\n      swap1\n      revert\n    tag_88:\n        /* \"contracts/CriptoMoneda.sol\":3819:3836  _nuevoPropietario */\n      dup1\n        /* \"contracts/CriptoMoneda.sol\":3783:3837  PropietarioTransferido(propietario, _nuevoPropietario) */\n      0xffffffffffffffffffffffffffffffffffffffff\n      and\n        /* \"contracts/CriptoMoneda.sol\":3806:3817  propietario */\n      0x06\n      0x00\n      swap1\n      sload\n      swap1\n      0x0100\n      exp\n      swap1\n      div\n      0xffffffffffffffffffffffffffffffffffffffff\n      and\n        /* \"contracts/CriptoMoneda.sol\":3783:3837  PropietarioTransferido(propietario, _nuevoPropietario) */\n      0xffffffffffffffffffffffffffffffffffffffff\n      and\n      0xaa29a061372086fc994717f7509f526d7fd3ecc2309d0ae85d3b4c4f99cdc035\n      mload(0x40)\n      mload(0x40)\n      dup1\n      swap2\n      sub\n      swap1\n      log3\n        /* \"contracts/CriptoMoneda.sol\":3861:3878  _nuevoPropietario */\n      dup1\n        /* \"contracts/CriptoMoneda.sol\":3847:3858  propietario */\n      0x06\n      0x00\n        /* \"contracts/CriptoMoneda.sol\":3847:3878  propietario = _nuevoPropietario */\n      0x0100\n      exp\n      dup2\n      sload\n      dup2\n      0xffffffffffffffffffffffffffffffffffffffff\n      mul\n      not\n      and\n      swap1\n      dup4\n      0xffffffffffffffffffffffffffffffffffffffff\n      and\n      mul\n      or\n      swap1\n      sstore\n      pop\n        /* \"contracts/CriptoMoneda.sol\":3616:3885  function transferirPropiedad(address _nuevoPropietario) public soloPropietario {... */\n      pop\n      jump\t// out\n        /* \"contracts/CriptoMoneda.sol\":560:581  address public minter */\n    tag_26:\n      0x07\n      0x00\n      swap1\n      sload\n      swap1\n      0x0100\n      exp\n      swap1\n      div\n      0xffffffffffffffffffffffffffffffffffffffff\n      and\n      dup2\n      jump\t// out\n        /* \"contracts/CriptoMoneda.sol\":340:367  uint8 public decimales = 18 */\n    tag_30:\n      0x02\n      0x00\n      swap1\n      sload\n      swap1\n      0x0100\n      exp\n      swap1\n      div\n      0xff\n      and\n      dup2\n      jump\t// out\n        /* \"contracts/CriptoMoneda.sol\":305:334  string public simbolo = \"MCS\" */\n    tag_34:\n      0x01\n      dup1\n      sload\n      tag_91\n      swap1\n      tag_92\n      jump\t// in\n    tag_91:\n      dup1\n      0x1f\n      add\n      0x20\n      dup1\n      swap2\n      div\n      mul\n      0x20\n      add\n      mload(0x40)\n      swap1\n      dup2\n      add\n      0x40\n      mstore\n      dup1\n      swap3\n      swap2\n      swap1\n      dup2\n      dup2\n      mstore\n      0x20\n      add\n      dup3\n      dup1\n      sload\n      tag_93\n      swap1\n      tag_92\n      jump\t// in\n    tag_93:\n      dup1\n      iszero\n      tag_94\n      jumpi\n      dup1\n      0x1f\n      lt\n      tag_95\n      jumpi\n      0x0100\n      dup1\n      dup4\n      sload\n      div\n      mul\n      dup4\n      mstore\n      swap2\n      0x20\n      add\n      swap2\n      jump(tag_94)\n    tag_95:\n      dup3\n      add\n      swap2\n      swap1\n      0x00\n      mstore\n      keccak256(0x00, 0x20)\n      swap1\n    tag_96:\n      dup2\n      sload\n      dup2\n      mstore\n      swap1\n      0x01\n      add\n      swap1\n      0x20\n      add\n      dup1\n      dup4\n      gt\n      tag_96\n      jumpi\n      dup3\n      swap1\n      sub\n      0x1f\n      and\n      dup3\n      add\n      swap2\n    tag_94:\n      pop\n      pop\n      pop\n      pop\n      pop\n      dup2\n      jump\t// out\n        /* \"contracts/CriptoMoneda.sol\":373:403  uint256 public suministroTotal */\n    tag_38:\n      sload(0x03)\n      dup2\n      jump\t// out\n        /* \"contracts/CriptoMoneda.sol\":528:554  address public propietario */\n    tag_42:\n      0x06\n      0x00\n      swap1\n      sload\n      swap1\n      0x0100\n      exp\n      swap1\n      div\n      0xffffffffffffffffffffffffffffffffffffffff\n      and\n      dup2\n      jump\t// out\n        /* \"contracts/CriptoMoneda.sol\":3325:3550  function cambiarMinter(address _nuevoMinter) public soloPropietario {... */\n    tag_46:\n        /* \"contracts/CriptoMoneda.sol\":1252:1263  propietario */\n      0x06\n      0x00\n      swap1\n      sload\n      swap1\n      0x0100\n      exp\n      swap1\n      div\n      0xffffffffffffffffffffffffffffffffffffffff\n      and\n        /* \"contracts/CriptoMoneda.sol\":1238:1263  msg.sender == propietario */\n      0xffffffffffffffffffffffffffffffffffffffff\n      and\n        /* \"contracts/CriptoMoneda.sol\":1238:1248  msg.sender */\n      caller\n        /* \"contracts/CriptoMoneda.sol\":1238:1263  msg.sender == propietario */\n      0xffffffffffffffffffffffffffffffffffffffff\n      and\n      eq\n        /* \"contracts/CriptoMoneda.sol\":1230:1307  require(msg.sender == propietario, \"Solo el propietario puede ejecutar esto\") */\n      tag_98\n      jumpi\n      mload(0x40)\n      0x08c379a000000000000000000000000000000000000000000000000000000000\n      dup2\n      mstore\n      0x04\n      add\n      tag_99\n      swap1\n      tag_86\n      jump\t// in\n    tag_99:\n      mload(0x40)\n      dup1\n      swap2\n      sub\n      swap1\n      revert\n    tag_98:\n        /* \"contracts/CriptoMoneda.sol\":3435:3436  0 */\n      0x00\n        /* \"contracts/CriptoMoneda.sol\":3411:3437  _nuevoMinter != address(0) */\n      0xffffffffffffffffffffffffffffffffffffffff\n      and\n        /* \"contracts/CriptoMoneda.sol\":3411:3423  _nuevoMinter */\n      dup2\n        /* \"contracts/CriptoMoneda.sol\":3411:3437  _nuevoMinter != address(0) */\n      0xffffffffffffffffffffffffffffffffffffffff\n      and\n      sub\n        /* \"contracts/CriptoMoneda.sol\":3403:3461  require(_nuevoMinter != address(0), \"Direccion no valida\") */\n      tag_101\n      jumpi\n      mload(0x40)\n      0x08c379a000000000000000000000000000000000000000000000000000000000\n      dup2\n      mstore\n      0x04\n      add\n      tag_102\n      swap1\n      tag_90\n      jump\t// in\n    tag_102:\n      mload(0x40)\n      dup1\n      swap2\n      sub\n      swap1\n      revert\n    tag_101:\n        /* \"contracts/CriptoMoneda.sol\":3499:3511  _nuevoMinter */\n      dup1\n        /* \"contracts/CriptoMoneda.sol\":3476:3512  MinterCambiado(minter, _nuevoMinter) */\n      0xffffffffffffffffffffffffffffffffffffffff\n      and\n        /* \"contracts/CriptoMoneda.sol\":3491:3497  minter */\n      0x07\n      0x00\n      swap1\n      sload\n      swap1\n      0x0100\n      exp\n      swap1\n      div\n      0xffffffffffffffffffffffffffffffffffffffff\n      and\n        /* \"contracts/CriptoMoneda.sol\":3476:3512  MinterCambiado(minter, _nuevoMinter) */\n      0xffffffffffffffffffffffffffffffffffffffff\n      and\n      0xe26d85bfbf0151c3d5ea7e7fbba4014dfa78520e1daee3c421455db2dc4554b9\n      mload(0x40)\n      mload(0x40)\n      dup1\n      swap2\n      sub\n      swap1\n      log3\n        /* \"contracts/CriptoMoneda.sol\":3531:3543  _nuevoMinter */\n      dup1\n        /* \"contracts/CriptoMoneda.sol\":3522:3528  minter */\n      0x07\n      0x00\n        /* \"contracts/CriptoMoneda.sol\":3522:3543  minter = _nuevoMinter */\n      0x0100\n      exp\n      dup2\n      sload\n      dup2\n      0xffffffffffffffffffffffffffffffffffffffff\n      mul\n      not\n      and\n      swap1\n      dup4\n      0xffffffffffffffffffffffffffffffffffffffff\n      and\n      mul\n      or\n      swap1\n      sstore\n      pop\n        /* \"contracts/CriptoMoneda.sol\":3325:3550  function cambiarMinter(address _nuevoMinter) public soloPropietario {... */\n      pop\n      jump\t// out\n        /* \"contracts/CriptoMoneda.sol\":1704:1946  function transferir(address _destinatario, uint256 _cantidad) public returns (bool) {... */\n    tag_50:\n        /* \"contracts/CriptoMoneda.sol\":1782:1786  bool */\n      0x00\n        /* \"contracts/CriptoMoneda.sol\":1827:1836  _cantidad */\n      dup2\n        /* \"contracts/CriptoMoneda.sol\":1806:1811  saldo */\n      0x04\n        /* \"contracts/CriptoMoneda.sol\":1806:1823  saldo[msg.sender] */\n      0x00\n        /* \"contracts/CriptoMoneda.sol\":1812:1822  msg.sender */\n      caller\n        /* \"contracts/CriptoMoneda.sol\":1806:1823  saldo[msg.sender] */\n      0xffffffffffffffffffffffffffffffffffffffff\n      and\n      0xffffffffffffffffffffffffffffffffffffffff\n      and\n      dup2\n      mstore\n      0x20\n      add\n      swap1\n      dup2\n      mstore\n      0x20\n      add\n      0x00\n      keccak256\n      sload\n        /* \"contracts/CriptoMoneda.sol\":1806:1836  saldo[msg.sender] >= _cantidad */\n      lt\n      iszero\n        /* \"contracts/CriptoMoneda.sol\":1798:1859  require(saldo[msg.sender] >= _cantidad, \"Saldo insuficiente\") */\n      tag_104\n      jumpi\n      mload(0x40)\n      0x08c379a000000000000000000000000000000000000000000000000000000000\n      dup2\n      mstore\n      0x04\n      add\n      tag_105\n      swap1\n      tag_106\n      jump\t// in\n    tag_105:\n      mload(0x40)\n      dup1\n      swap2\n      sub\n      swap1\n      revert\n    tag_104:\n        /* \"contracts/CriptoMoneda.sol\":1869:1918  _transferir(msg.sender, _destinatario, _cantidad) */\n      tag_107\n        /* \"contracts/CriptoMoneda.sol\":1881:1891  msg.sender */\n      caller\n        /* \"contracts/CriptoMoneda.sol\":1893:1906  _destinatario */\n      dup5\n        /* \"contracts/CriptoMoneda.sol\":1908:1917  _cantidad */\n      dup5\n        /* \"contracts/CriptoMoneda.sol\":1869:1880  _transferir */\n      tag_108\n        /* \"contracts/CriptoMoneda.sol\":1869:1918  _transferir(msg.sender, _destinatario, _cantidad) */\n      jump\t// in\n    tag_107:\n        /* \"contracts/CriptoMoneda.sol\":1935:1939  true */\n      0x01\n        /* \"contracts/CriptoMoneda.sol\":1928:1939  return true */\n      swap1\n      pop\n        /* \"contracts/CriptoMoneda.sol\":1704:1946  function transferir(address _destinatario, uint256 _cantidad) public returns (bool) {... */\n      swap3\n      swap2\n      pop\n      pop\n      jump\t// out\n        /* \"contracts/CriptoMoneda.sol\":409:449  mapping(address => uint256) public saldo */\n    tag_55:\n      mstore(0x20, 0x04)\n      dup1\n      0x00\n      mstore\n      keccak256(0x00, 0x40)\n      0x00\n      swap2\n      pop\n      swap1\n      pop\n      sload\n      dup2\n      jump\t// out\n        /* \"contracts/CriptoMoneda.sol\":2711:3072  function quemar(uint256 _cantidad) public returns (bool) {... */\n    tag_60:\n        /* \"contracts/CriptoMoneda.sol\":2762:2766  bool */\n      0x00\n        /* \"contracts/CriptoMoneda.sol\":2807:2816  _cantidad */\n      dup2\n        /* \"contracts/CriptoMoneda.sol\":2786:2791  saldo */\n      0x04\n        /* \"contracts/CriptoMoneda.sol\":2786:2803  saldo[msg.sender] */\n      0x00\n        /* \"contracts/CriptoMoneda.sol\":2792:2802  msg.sender */\n      caller\n        /* \"contracts/CriptoMoneda.sol\":2786:2803  saldo[msg.sender] */\n      0xffffffffffffffffffffffffffffffffffffffff\n      and\n      0xffffffffffffffffffffffffffffffffffffffff\n      and\n      dup2\n      mstore\n      0x20\n      add\n      swap1\n      dup2\n      mstore\n      0x20\n      add\n      0x00\n      keccak256\n      sload\n        /* \"contracts/CriptoMoneda.sol\":2786:2816  saldo[msg.sender] >= _cantidad */\n      lt\n      iszero\n        /* \"contracts/CriptoMoneda.sol\":2778:2851  require(saldo[msg.sender] >= _cantidad, \"Saldo insuficiente para quemar\") */\n      tag_110\n      jumpi\n      mload(0x40)\n      0x08c379a000000000000000000000000000000000000000000000000000000000\n      dup2\n      mstore\n      0x04\n      add\n      tag_111\n      swap1\n      tag_112\n      jump\t// in\n    tag_111:\n      mload(0x40)\n      dup1\n      swap2\n      sub\n      swap1\n      revert\n    tag_110:\n        /* \"contracts/CriptoMoneda.sol\":2882:2891  _cantidad */\n      dup2\n        /* \"contracts/CriptoMoneda.sol\":2861:2866  saldo */\n      0x04\n        /* \"contracts/CriptoMoneda.sol\":2861:2878  saldo[msg.sender] */\n      0x00\n        /* \"contracts/CriptoMoneda.sol\":2867:2877  msg.sender */\n      caller\n        /* \"contracts/CriptoMoneda.sol\":2861:2878  saldo[msg.sender] */\n      0xffffffffffffffffffffffffffffffffffffffff\n      and\n      0xffffffffffffffffffffffffffffffffffffffff\n      and\n      dup2\n      mstore\n      0x20\n      add\n      swap1\n      dup2\n      mstore\n      0x20\n      add\n      0x00\n      keccak256\n      0x00\n        /* \"contracts/CriptoMoneda.sol\":2861:2891  saldo[msg.sender] -= _cantidad */\n      dup3\n      dup3\n      sload\n      tag_113\n      swap2\n      swap1\n      tag_114\n      jump\t// in\n    tag_113:\n      swap3\n      pop\n      pop\n      dup2\n      swap1\n      sstore\n      pop\n        /* \"contracts/CriptoMoneda.sol\":2920:2929  _cantidad */\n      dup2\n        /* \"contracts/CriptoMoneda.sol\":2901:2916  suministroTotal */\n      0x03\n      0x00\n        /* \"contracts/CriptoMoneda.sol\":2901:2929  suministroTotal -= _cantidad */\n      dup3\n      dup3\n      sload\n      tag_115\n      swap2\n      swap1\n      tag_114\n      jump\t// in\n    tag_115:\n      swap3\n      pop\n      pop\n      dup2\n      swap1\n      sstore\n      pop\n        /* \"contracts/CriptoMoneda.sol\":2959:2969  msg.sender */\n      caller\n        /* \"contracts/CriptoMoneda.sol\":2944:2981  TokensQuemados(msg.sender, _cantidad) */\n      0xffffffffffffffffffffffffffffffffffffffff\n      and\n      0xd910456dc76f3c5163ff3326e6bce79bb5f0b53176dcc1aa20c9083e98f4b2c1\n        /* \"contracts/CriptoMoneda.sol\":2971:2980  _cantidad */\n      dup4\n        /* \"contracts/CriptoMoneda.sol\":2944:2981  TokensQuemados(msg.sender, _cantidad) */\n      mload(0x40)\n      tag_116\n      swap2\n      swap1\n      tag_40\n      jump\t// in\n    tag_116:\n      mload(0x40)\n      dup1\n      swap2\n      sub\n      swap1\n      log2\n        /* \"contracts/CriptoMoneda.sol\":3030:3031  0 */\n      0x00\n        /* \"contracts/CriptoMoneda.sol\":2996:3044  Transferencia(msg.sender, address(0), _cantidad) */\n      0xffffffffffffffffffffffffffffffffffffffff\n      and\n        /* \"contracts/CriptoMoneda.sol\":3010:3020  msg.sender */\n      caller\n        /* \"contracts/CriptoMoneda.sol\":2996:3044  Transferencia(msg.sender, address(0), _cantidad) */\n      0xffffffffffffffffffffffffffffffffffffffff\n      and\n      0x1b7e21e9fbba09c8b522cd0648f175bed32718c24534b40660a30d33fd380542\n        /* \"contracts/CriptoMoneda.sol\":3034:3043  _cantidad */\n      dup5\n        /* \"contracts/CriptoMoneda.sol\":2996:3044  Transferencia(msg.sender, address(0), _cantidad) */\n      mload(0x40)\n      tag_117\n      swap2\n      swap1\n      tag_40\n      jump\t// in\n    tag_117:\n      mload(0x40)\n      dup1\n      swap2\n      sub\n      swap1\n      log3\n        /* \"contracts/CriptoMoneda.sol\":3061:3065  true */\n      0x01\n        /* \"contracts/CriptoMoneda.sol\":3054:3065  return true */\n      swap1\n      pop\n        /* \"contracts/CriptoMoneda.sol\":2711:3072  function quemar(uint256 _cantidad) public returns (bool) {... */\n      swap2\n      swap1\n      pop\n      jump\t// out\n        /* \"contracts/CriptoMoneda.sol\":2289:2675  function transferirDesde(address _origen, address _destino, uint256 _cantidad) public returns (bool) {... */\n    tag_65:\n        /* \"contracts/CriptoMoneda.sol\":2384:2388  bool */\n      0x00\n        /* \"contracts/CriptoMoneda.sol\":2426:2435  _cantidad */\n      dup2\n        /* \"contracts/CriptoMoneda.sol\":2408:2413  saldo */\n      0x04\n        /* \"contracts/CriptoMoneda.sol\":2408:2422  saldo[_origen] */\n      0x00\n        /* \"contracts/CriptoMoneda.sol\":2414:2421  _origen */\n      dup7\n        /* \"contracts/CriptoMoneda.sol\":2408:2422  saldo[_origen] */\n      0xffffffffffffffffffffffffffffffffffffffff\n      and\n      0xffffffffffffffffffffffffffffffffffffffff\n      and\n      dup2\n      mstore\n      0x20\n      add\n      swap1\n      dup2\n      mstore\n      0x20\n      add\n      0x00\n      keccak256\n      sload\n        /* \"contracts/CriptoMoneda.sol\":2408:2435  saldo[_origen] >= _cantidad */\n      lt\n      iszero\n        /* \"contracts/CriptoMoneda.sol\":2400:2458  require(saldo[_origen] >= _cantidad, \"Saldo insuficiente\") */\n      tag_119\n      jumpi\n      mload(0x40)\n      0x08c379a000000000000000000000000000000000000000000000000000000000\n      dup2\n      mstore\n      0x04\n      add\n      tag_120\n      swap1\n      tag_106\n      jump\t// in\n    tag_120:\n      mload(0x40)\n      dup1\n      swap2\n      sub\n      swap1\n      revert\n    tag_119:\n        /* \"contracts/CriptoMoneda.sol\":2513:2522  _cantidad */\n      dup2\n        /* \"contracts/CriptoMoneda.sol\":2476:2488  aprobaciones */\n      0x05\n        /* \"contracts/CriptoMoneda.sol\":2476:2497  aprobaciones[_origen] */\n      0x00\n        /* \"contracts/CriptoMoneda.sol\":2489:2496  _origen */\n      dup7\n        /* \"contracts/CriptoMoneda.sol\":2476:2497  aprobaciones[_origen] */\n      0xffffffffffffffffffffffffffffffffffffffff\n      and\n      0xffffffffffffffffffffffffffffffffffffffff\n      and\n      dup2\n      mstore\n      0x20\n      add\n      swap1\n      dup2\n      mstore\n      0x20\n      add\n      0x00\n      keccak256\n        /* \"contracts/CriptoMoneda.sol\":2476:2509  aprobaciones[_origen][msg.sender] */\n      0x00\n        /* \"contracts/CriptoMoneda.sol\":2498:2508  msg.sender */\n      caller\n        /* \"contracts/CriptoMoneda.sol\":2476:2509  aprobaciones[_origen][msg.sender] */\n      0xffffffffffffffffffffffffffffffffffffffff\n      and\n      0xffffffffffffffffffffffffffffffffffffffff\n      and\n      dup2\n      mstore\n      0x20\n      add\n      swap1\n      dup2\n      mstore\n      0x20\n      add\n      0x00\n      keccak256\n      sload\n        /* \"contracts/CriptoMoneda.sol\":2476:2522  aprobaciones[_origen][msg.sender] >= _cantidad */\n      lt\n      iszero\n        /* \"contracts/CriptoMoneda.sol\":2468:2540  require(aprobaciones[_origen][msg.sender] >= _cantidad, \"No autorizado\") */\n      tag_121\n      jumpi\n      mload(0x40)\n      0x08c379a000000000000000000000000000000000000000000000000000000000\n      dup2\n      mstore\n      0x04\n      add\n      tag_122\n      swap1\n      tag_123\n      jump\t// in\n    tag_122:\n      mload(0x40)\n      dup1\n      swap2\n      sub\n      swap1\n      revert\n    tag_121:\n        /* \"contracts/CriptoMoneda.sol\":2587:2596  _cantidad */\n      dup2\n        /* \"contracts/CriptoMoneda.sol\":2550:2562  aprobaciones */\n      0x05\n        /* \"contracts/CriptoMoneda.sol\":2550:2571  aprobaciones[_origen] */\n      0x00\n        /* \"contracts/CriptoMoneda.sol\":2563:2570  _origen */\n      dup7\n        /* \"contracts/CriptoMoneda.sol\":2550:2571  aprobaciones[_origen] */\n      0xffffffffffffffffffffffffffffffffffffffff\n      and\n      0xffffffffffffffffffffffffffffffffffffffff\n      and\n      dup2\n      mstore\n      0x20\n      add\n      swap1\n      dup2\n      mstore\n      0x20\n      add\n      0x00\n      keccak256\n        /* \"contracts/CriptoMoneda.sol\":2550:2583  aprobaciones[_origen][msg.sender] */\n      0x00\n        /* \"contracts/CriptoMoneda.sol\":2572:2582  msg.sender */\n      caller\n        /* \"contracts/CriptoMoneda.sol\":2550:2583  aprobaciones[_origen][msg.sender] */\n      0xffffffffffffffffffffffffffffffffffffffff\n      and\n      0xffffffffffffffffffffffffffffffffffffffff\n      and\n      dup2\n      mstore\n      0x20\n      add\n      swap1\n      dup2\n      mstore\n      0x20\n      add\n      0x00\n      keccak256\n      0x00\n        /* \"contracts/CriptoMoneda.sol\":2550:2596  aprobaciones[_origen][msg.sender] -= _cantidad */\n      dup3\n      dup3\n      sload\n      tag_124\n      swap2\n      swap1\n      tag_114\n      jump\t// in\n    tag_124:\n      swap3\n      pop\n      pop\n      dup2\n      swap1\n      sstore\n      pop\n        /* \"contracts/CriptoMoneda.sol\":2606:2647  _transferir(_origen, _destino, _cantidad) */\n      tag_125\n        /* \"contracts/CriptoMoneda.sol\":2618:2625  _origen */\n      dup5\n        /* \"contracts/CriptoMoneda.sol\":2627:2635  _destino */\n      dup5\n        /* \"contracts/CriptoMoneda.sol\":2637:2646  _cantidad */\n      dup5\n        /* \"contracts/CriptoMoneda.sol\":2606:2617  _transferir */\n      tag_108\n        /* \"contracts/CriptoMoneda.sol\":2606:2647  _transferir(_origen, _destino, _cantidad) */\n      jump\t// in\n    tag_125:\n        /* \"contracts/CriptoMoneda.sol\":2664:2668  true */\n      0x01\n        /* \"contracts/CriptoMoneda.sol\":2657:2668  return true */\n      swap1\n      pop\n        /* \"contracts/CriptoMoneda.sol\":2289:2675  function transferirDesde(address _origen, address _destino, uint256 _cantidad) public returns (bool) {... */\n      swap4\n      swap3\n      pop\n      pop\n      pop\n      jump\t// out\n        /* \"contracts/CriptoMoneda.sol\":261:299  string public nombre = \"MiCriptoSebas\" */\n    tag_68:\n      0x00\n      dup1\n      sload\n      tag_126\n      swap1\n      tag_92\n      jump\t// in\n    tag_126:\n      dup1\n      0x1f\n      add\n      0x20\n      dup1\n      swap2\n      div\n      mul\n      0x20\n      add\n      mload(0x40)\n      swap1\n      dup2\n      add\n      0x40\n      mstore\n      dup1\n      swap3\n      swap2\n      swap1\n      dup2\n      dup2\n      mstore\n      0x20\n      add\n      dup3\n      dup1\n      sload\n      tag_127\n      swap1\n      tag_92\n      jump\t// in\n    tag_127:\n      dup1\n      iszero\n      tag_128\n      jumpi\n      dup1\n      0x1f\n      lt\n      tag_129\n      jumpi\n      0x0100\n      dup1\n      dup4\n      sload\n      div\n      mul\n      dup4\n      mstore\n      swap2\n      0x20\n      add\n      swap2\n      jump(tag_128)\n    tag_129:\n      dup3\n      add\n      swap2\n      swap1\n      0x00\n      mstore\n      keccak256(0x00, 0x20)\n      swap1\n    tag_130:\n      dup2\n      sload\n      dup2\n      mstore\n      swap1\n      0x01\n      add\n      swap1\n      0x20\n      add\n      dup1\n      dup4\n      gt\n      tag_130\n      jumpi\n      dup3\n      swap1\n      sub\n      0x1f\n      and\n      dup3\n      add\n      swap2\n    tag_128:\n      pop\n      pop\n      pop\n      pop\n      pop\n      dup2\n      jump\t// out\n        /* \"contracts/CriptoMoneda.sol\":3139:3291  function mintear(address _cuenta, uint256 _cantidad) public soloMinter returns (bool) {... */\n    tag_72:\n        /* \"contracts/CriptoMoneda.sol\":3219:3223  bool */\n      0x00\n        /* \"contracts/CriptoMoneda.sol\":1385:1391  minter */\n      0x07\n      0x00\n      swap1\n      sload\n      swap1\n      0x0100\n      exp\n      swap1\n      div\n      0xffffffffffffffffffffffffffffffffffffffff\n      and\n        /* \"contracts/CriptoMoneda.sol\":1371:1391  msg.sender == minter */\n      0xffffffffffffffffffffffffffffffffffffffff\n      and\n        /* \"contracts/CriptoMoneda.sol\":1371:1381  msg.sender */\n      caller\n        /* \"contracts/CriptoMoneda.sol\":1371:1391  msg.sender == minter */\n      0xffffffffffffffffffffffffffffffffffffffff\n      and\n      eq\n        /* \"contracts/CriptoMoneda.sol\":1363:1430  require(msg.sender == minter, \"Solo el minter puede ejecutar esto\") */\n      tag_132\n      jumpi\n      mload(0x40)\n      0x08c379a000000000000000000000000000000000000000000000000000000000\n      dup2\n      mstore\n      0x04\n      add\n      tag_133\n      swap1\n      tag_134\n      jump\t// in\n    tag_133:\n      mload(0x40)\n      dup1\n      swap2\n      sub\n      swap1\n      revert\n    tag_132:\n        /* \"contracts/CriptoMoneda.sol\":3235:3263  _mintear(_cuenta, _cantidad) */\n      tag_136\n        /* \"contracts/CriptoMoneda.sol\":3244:3251  _cuenta */\n      dup4\n        /* \"contracts/CriptoMoneda.sol\":3253:3262  _cantidad */\n      dup4\n        /* \"contracts/CriptoMoneda.sol\":3235:3243  _mintear */\n      tag_137\n        /* \"contracts/CriptoMoneda.sol\":3235:3263  _mintear(_cuenta, _cantidad) */\n      jump\t// in\n    tag_136:\n        /* \"contracts/CriptoMoneda.sol\":3280:3284  true */\n      0x01\n        /* \"contracts/CriptoMoneda.sol\":3273:3284  return true */\n      swap1\n      pop\n        /* \"contracts/CriptoMoneda.sol\":3139:3291  function mintear(address _cuenta, uint256 _cantidad) public soloMinter returns (bool) {... */\n      swap3\n      swap2\n      pop\n      pop\n      jump\t// out\n        /* \"contracts/CriptoMoneda.sol\":2008:2235  function aprobar(address _autorizado, uint256 _cantidad) public returns (bool) {... */\n    tag_76:\n        /* \"contracts/CriptoMoneda.sol\":2081:2085  bool */\n      0x00\n        /* \"contracts/CriptoMoneda.sol\":2137:2146  _cantidad */\n      dup2\n        /* \"contracts/CriptoMoneda.sol\":2097:2109  aprobaciones */\n      0x05\n        /* \"contracts/CriptoMoneda.sol\":2097:2121  aprobaciones[msg.sender] */\n      0x00\n        /* \"contracts/CriptoMoneda.sol\":2110:2120  msg.sender */\n      caller\n        /* \"contracts/CriptoMoneda.sol\":2097:2121  aprobaciones[msg.sender] */\n      0xffffffffffffffffffffffffffffffffffffffff\n      and\n      0xffffffffffffffffffffffffffffffffffffffff\n      and\n      dup2\n      mstore\n      0x20\n      add\n      swap1\n      dup2\n      mstore\n      0x20\n      add\n      0x00\n      keccak256\n        /* \"contracts/CriptoMoneda.sol\":2097:2134  aprobaciones[msg.sender][_autorizado] */\n      0x00\n        /* \"contracts/CriptoMoneda.sol\":2122:2133  _autorizado */\n      dup6\n        /* \"contracts/CriptoMoneda.sol\":2097:2134  aprobaciones[msg.sender][_autorizado] */\n      0xffffffffffffffffffffffffffffffffffffffff\n      and\n      0xffffffffffffffffffffffffffffffffffffffff\n      and\n      dup2\n      mstore\n      0x20\n      add\n      swap1\n      dup2\n      mstore\n      0x20\n      add\n      0x00\n      keccak256\n        /* \"contracts/CriptoMoneda.sol\":2097:2146  aprobaciones[msg.sender][_autorizado] = _cantidad */\n      dup2\n      swap1\n      sstore\n      pop\n        /* \"contracts/CriptoMoneda.sol\":2184:2195  _autorizado */\n      dup3\n        /* \"contracts/CriptoMoneda.sol\":2161:2207  Aprobacion(msg.sender, _autorizado, _cantidad) */\n      0xffffffffffffffffffffffffffffffffffffffff\n      and\n        /* \"contracts/CriptoMoneda.sol\":2172:2182  msg.sender */\n      caller\n        /* \"contracts/CriptoMoneda.sol\":2161:2207  Aprobacion(msg.sender, _autorizado, _cantidad) */\n      0xffffffffffffffffffffffffffffffffffffffff\n      and\n      0x04cc75b0126b63154e5a7c3970f4f1f9a02be9821c750b768dce24f593fd3a0b\n        /* \"contracts/CriptoMoneda.sol\":2197:2206  _cantidad */\n      dup5\n        /* \"contracts/CriptoMoneda.sol\":2161:2207  Aprobacion(msg.sender, _autorizado, _cantidad) */\n      mload(0x40)\n      tag_139\n      swap2\n      swap1\n      tag_40\n      jump\t// in\n    tag_139:\n      mload(0x40)\n      dup1\n      swap2\n      sub\n      swap1\n      log3\n        /* \"contracts/CriptoMoneda.sol\":2224:2228  true */\n      0x01\n        /* \"contracts/CriptoMoneda.sol\":2217:2228  return true */\n      swap1\n      pop\n        /* \"contracts/CriptoMoneda.sol\":2008:2235  function aprobar(address _autorizado, uint256 _cantidad) public returns (bool) {... */\n      swap3\n      swap2\n      pop\n      pop\n      jump\t// out\n        /* \"contracts/CriptoMoneda.sol\":455:522  mapping(address => mapping(address => uint256)) public aprobaciones */\n    tag_81:\n      mstore(0x20, 0x05)\n      dup2\n      0x00\n      mstore\n      mstore(0x20, keccak256(0x00, 0x40))\n      dup1\n      0x00\n      mstore\n      keccak256(0x00, 0x40)\n      0x00\n      swap2\n      pop\n      swap2\n      pop\n      pop\n      sload\n      dup2\n      jump\t// out\n        /* \"contracts/CriptoMoneda.sol\":3918:4203  function _transferir(address _desde, address _hacia, uint256 _cantidad) internal {... */\n    tag_108:\n        /* \"contracts/CriptoMoneda.sol\":4035:4036  0 */\n      0x00\n        /* \"contracts/CriptoMoneda.sol\":4017:4037  _hacia != address(0) */\n      0xffffffffffffffffffffffffffffffffffffffff\n      and\n        /* \"contracts/CriptoMoneda.sol\":4017:4023  _hacia */\n      dup3\n        /* \"contracts/CriptoMoneda.sol\":4017:4037  _hacia != address(0) */\n      0xffffffffffffffffffffffffffffffffffffffff\n      and\n      sub\n        /* \"contracts/CriptoMoneda.sol\":4009:4069  require(_hacia != address(0), \"Direccion destino no valida\") */\n      tag_141\n      jumpi\n      mload(0x40)\n      0x08c379a000000000000000000000000000000000000000000000000000000000\n      dup2\n      mstore\n      0x04\n      add\n      tag_142\n      swap1\n      tag_143\n      jump\t// in\n    tag_142:\n      mload(0x40)\n      dup1\n      swap2\n      sub\n      swap1\n      revert\n    tag_141:\n        /* \"contracts/CriptoMoneda.sol\":4096:4105  _cantidad */\n      dup1\n        /* \"contracts/CriptoMoneda.sol\":4079:4084  saldo */\n      0x04\n        /* \"contracts/CriptoMoneda.sol\":4079:4092  saldo[_desde] */\n      0x00\n        /* \"contracts/CriptoMoneda.sol\":4085:4091  _desde */\n      dup6\n        /* \"contracts/CriptoMoneda.sol\":4079:4092  saldo[_desde] */\n      0xffffffffffffffffffffffffffffffffffffffff\n      and\n      0xffffffffffffffffffffffffffffffffffffffff\n      and\n      dup2\n      mstore\n      0x20\n      add\n      swap1\n      dup2\n      mstore\n      0x20\n      add\n      0x00\n      keccak256\n      0x00\n        /* \"contracts/CriptoMoneda.sol\":4079:4105  saldo[_desde] -= _cantidad */\n      dup3\n      dup3\n      sload\n      tag_144\n      swap2\n      swap1\n      tag_114\n      jump\t// in\n    tag_144:\n      swap3\n      pop\n      pop\n      dup2\n      swap1\n      sstore\n      pop\n        /* \"contracts/CriptoMoneda.sol\":4132:4141  _cantidad */\n      dup1\n        /* \"contracts/CriptoMoneda.sol\":4115:4120  saldo */\n      0x04\n        /* \"contracts/CriptoMoneda.sol\":4115:4128  saldo[_hacia] */\n      0x00\n        /* \"contracts/CriptoMoneda.sol\":4121:4127  _hacia */\n      dup5\n        /* \"contracts/CriptoMoneda.sol\":4115:4128  saldo[_hacia] */\n      0xffffffffffffffffffffffffffffffffffffffff\n      and\n      0xffffffffffffffffffffffffffffffffffffffff\n      and\n      dup2\n      mstore\n      0x20\n      add\n      swap1\n      dup2\n      mstore\n      0x20\n      add\n      0x00\n      keccak256\n      0x00\n        /* \"contracts/CriptoMoneda.sol\":4115:4141  saldo[_hacia] += _cantidad */\n      dup3\n      dup3\n      sload\n      tag_145\n      swap2\n      swap1\n      tag_146\n      jump\t// in\n    tag_145:\n      swap3\n      pop\n      pop\n      dup2\n      swap1\n      sstore\n      pop\n        /* \"contracts/CriptoMoneda.sol\":4178:4184  _hacia */\n      dup2\n        /* \"contracts/CriptoMoneda.sol\":4156:4196  Transferencia(_desde, _hacia, _cantidad) */\n      0xffffffffffffffffffffffffffffffffffffffff\n      and\n        /* \"contracts/CriptoMoneda.sol\":4170:4176  _desde */\n      dup4\n        /* \"contracts/CriptoMoneda.sol\":4156:4196  Transferencia(_desde, _hacia, _cantidad) */\n      0xffffffffffffffffffffffffffffffffffffffff\n      and\n      0x1b7e21e9fbba09c8b522cd0648f175bed32718c24534b40660a30d33fd380542\n        /* \"contracts/CriptoMoneda.sol\":4186:4195  _cantidad */\n      dup4\n        /* \"contracts/CriptoMoneda.sol\":4156:4196  Transferencia(_desde, _hacia, _cantidad) */\n      mload(0x40)\n      tag_147\n      swap2\n      swap1\n      tag_40\n      jump\t// in\n    tag_147:\n      mload(0x40)\n      dup1\n      swap2\n      sub\n      swap1\n      log3\n        /* \"contracts/CriptoMoneda.sol\":3918:4203  function _transferir(address _desde, address _hacia, uint256 _cantidad) internal {... */\n      pop\n      pop\n      pop\n      jump\t// out\n        /* \"contracts/CriptoMoneda.sol\":4209:4527  function _mintear(address _cuenta, uint256 _cantidad) internal {... */\n    tag_137:\n        /* \"contracts/CriptoMoneda.sol\":4309:4310  0 */\n      0x00\n        /* \"contracts/CriptoMoneda.sol\":4290:4311  _cuenta != address(0) */\n      0xffffffffffffffffffffffffffffffffffffffff\n      and\n        /* \"contracts/CriptoMoneda.sol\":4290:4297  _cuenta */\n      dup3\n        /* \"contracts/CriptoMoneda.sol\":4290:4311  _cuenta != address(0) */\n      0xffffffffffffffffffffffffffffffffffffffff\n      and\n      sub\n        /* \"contracts/CriptoMoneda.sol\":4282:4335  require(_cuenta != address(0), \"Direccion no valida\") */\n      tag_149\n      jumpi\n      mload(0x40)\n      0x08c379a000000000000000000000000000000000000000000000000000000000\n      dup2\n      mstore\n      0x04\n      add\n      tag_150\n      swap1\n      tag_90\n      jump\t// in\n    tag_150:\n      mload(0x40)\n      dup1\n      swap2\n      sub\n      swap1\n      revert\n    tag_149:\n        /* \"contracts/CriptoMoneda.sol\":4363:4372  _cantidad */\n      dup1\n        /* \"contracts/CriptoMoneda.sol\":4345:4350  saldo */\n      0x04\n        /* \"contracts/CriptoMoneda.sol\":4345:4359  saldo[_cuenta] */\n      0x00\n        /* \"contracts/CriptoMoneda.sol\":4351:4358  _cuenta */\n      dup5\n        /* \"contracts/CriptoMoneda.sol\":4345:4359  saldo[_cuenta] */\n      0xffffffffffffffffffffffffffffffffffffffff\n      and\n      0xffffffffffffffffffffffffffffffffffffffff\n      and\n      dup2\n      mstore\n      0x20\n      add\n      swap1\n      dup2\n      mstore\n      0x20\n      add\n      0x00\n      keccak256\n      0x00\n        /* \"contracts/CriptoMoneda.sol\":4345:4372  saldo[_cuenta] += _cantidad */\n      dup3\n      dup3\n      sload\n      tag_151\n      swap2\n      swap1\n      tag_146\n      jump\t// in\n    tag_151:\n      swap3\n      pop\n      pop\n      dup2\n      swap1\n      sstore\n      pop\n        /* \"contracts/CriptoMoneda.sol\":4401:4410  _cantidad */\n      dup1\n        /* \"contracts/CriptoMoneda.sol\":4382:4397  suministroTotal */\n      0x03\n      0x00\n        /* \"contracts/CriptoMoneda.sol\":4382:4410  suministroTotal += _cantidad */\n      dup3\n      dup3\n      sload\n      tag_152\n      swap2\n      swap1\n      tag_146\n      jump\t// in\n    tag_152:\n      swap3\n      pop\n      pop\n      dup2\n      swap1\n      sstore\n      pop\n        /* \"contracts/CriptoMoneda.sol\":4441:4448  _cuenta */\n      dup2\n        /* \"contracts/CriptoMoneda.sol\":4425:4460  TokensMinteados(_cuenta, _cantidad) */\n      0xffffffffffffffffffffffffffffffffffffffff\n      and\n      0x02f56d420a47aa66acae06942581999fd0a95994d4085347760a11db9dbd780c\n        /* \"contracts/CriptoMoneda.sol\":4450:4459  _cantidad */\n      dup3\n        /* \"contracts/CriptoMoneda.sol\":4425:4460  TokensMinteados(_cuenta, _cantidad) */\n      mload(0x40)\n      tag_153\n      swap2\n      swap1\n      tag_40\n      jump\t// in\n    tag_153:\n      mload(0x40)\n      dup1\n      swap2\n      sub\n      swap1\n      log2\n        /* \"contracts/CriptoMoneda.sol\":4501:4508  _cuenta */\n      dup2\n        /* \"contracts/CriptoMoneda.sol\":4475:4520  Transferencia(address(0), _cuenta, _cantidad) */\n      0xffffffffffffffffffffffffffffffffffffffff\n      and\n        /* \"contracts/CriptoMoneda.sol\":4497:4498  0 */\n      0x00\n        /* \"contracts/CriptoMoneda.sol\":4475:4520  Transferencia(address(0), _cuenta, _cantidad) */\n      0xffffffffffffffffffffffffffffffffffffffff\n      and\n      0x1b7e21e9fbba09c8b522cd0648f175bed32718c24534b40660a30d33fd380542\n        /* \"contracts/CriptoMoneda.sol\":4510:4519  _cantidad */\n      dup4\n        /* \"contracts/CriptoMoneda.sol\":4475:4520  Transferencia(address(0), _cuenta, _cantidad) */\n      mload(0x40)\n      tag_154\n      swap2\n      swap1\n      tag_40\n      jump\t// in\n    tag_154:\n      mload(0x40)\n      dup1\n      swap2\n      sub\n      swap1\n      log3\n        /* \"contracts/CriptoMoneda.sol\":4209:4527  function _mintear(address _cuenta, uint256 _cantidad) internal {... */\n      pop\n      pop\n      jump\t// out\n        /* \"#utility.yul\":88:205   */\n    tag_156:\n        /* \"#utility.yul\":197:198   */\n      0x00\n        /* \"#utility.yul\":194:195   */\n      0x00\n        /* \"#utility.yul\":187:199   */\n      revert\n        /* \"#utility.yul\":334:460   */\n    tag_158:\n        /* \"#utility.yul\":371:378   */\n      0x00\n        /* \"#utility.yul\":411:453   */\n      0xffffffffffffffffffffffffffffffffffffffff\n        /* \"#utility.yul\":404:409   */\n      dup3\n        /* \"#utility.yul\":400:454   */\n      and\n        /* \"#utility.yul\":389:454   */\n      swap1\n      pop\n        /* \"#utility.yul\":334:460   */\n      swap2\n      swap1\n      pop\n      jump\t// out\n        /* \"#utility.yul\":466:562   */\n    tag_159:\n        /* \"#utility.yul\":503:510   */\n      0x00\n        /* \"#utility.yul\":532:556   */\n      tag_198\n        /* \"#utility.yul\":550:555   */\n      dup3\n        /* \"#utility.yul\":532:556   */\n      tag_158\n      jump\t// in\n    tag_198:\n        /* \"#utility.yul\":521:556   */\n      swap1\n      pop\n        /* \"#utility.yul\":466:562   */\n      swap2\n      swap1\n      pop\n      jump\t// out\n        /* \"#utility.yul\":568:690   */\n    tag_160:\n        /* \"#utility.yul\":641:665   */\n      tag_200\n        /* \"#utility.yul\":659:664   */\n      dup2\n        /* \"#utility.yul\":641:665   */\n      tag_159\n      jump\t// in\n    tag_200:\n        /* \"#utility.yul\":634:639   */\n      dup2\n        /* \"#utility.yul\":631:666   */\n      eq\n        /* \"#utility.yul\":621:684   */\n      tag_201\n      jumpi\n        /* \"#utility.yul\":680:681   */\n      0x00\n        /* \"#utility.yul\":677:678   */\n      0x00\n        /* \"#utility.yul\":670:682   */\n      revert\n        /* \"#utility.yul\":621:684   */\n    tag_201:\n        /* \"#utility.yul\":568:690   */\n      pop\n      jump\t// out\n        /* \"#utility.yul\":696:835   */\n    tag_161:\n        /* \"#utility.yul\":742:747   */\n      0x00\n        /* \"#utility.yul\":780:786   */\n      dup2\n        /* \"#utility.yul\":767:787   */\n      calldataload\n        /* \"#utility.yul\":758:787   */\n      swap1\n      pop\n        /* \"#utility.yul\":796:829   */\n      tag_203\n        /* \"#utility.yul\":823:828   */\n      dup2\n        /* \"#utility.yul\":796:829   */\n      tag_160\n      jump\t// in\n    tag_203:\n        /* \"#utility.yul\":696:835   */\n      swap3\n      swap2\n      pop\n      pop\n      jump\t// out\n        /* \"#utility.yul\":841:1170   */\n    tag_23:\n        /* \"#utility.yul\":900:906   */\n      0x00\n        /* \"#utility.yul\":949:951   */\n      0x20\n        /* \"#utility.yul\":937:946   */\n      dup3\n        /* \"#utility.yul\":928:935   */\n      dup5\n        /* \"#utility.yul\":924:947   */\n      sub\n        /* \"#utility.yul\":920:952   */\n      slt\n        /* \"#utility.yul\":917:1036   */\n      iszero\n      tag_205\n      jumpi\n        /* \"#utility.yul\":955:1034   */\n      tag_206\n      tag_156\n      jump\t// in\n    tag_206:\n        /* \"#utility.yul\":917:1036   */\n    tag_205:\n        /* \"#utility.yul\":1075:1076   */\n      0x00\n        /* \"#utility.yul\":1100:1153   */\n      tag_207\n        /* \"#utility.yul\":1145:1152   */\n      dup5\n        /* \"#utility.yul\":1136:1142   */\n      dup3\n        /* \"#utility.yul\":1125:1134   */\n      dup6\n        /* \"#utility.yul\":1121:1143   */\n      add\n        /* \"#utility.yul\":1100:1153   */\n      tag_161\n      jump\t// in\n    tag_207:\n        /* \"#utility.yul\":1090:1153   */\n      swap2\n      pop\n        /* \"#utility.yul\":1046:1163   */\n      pop\n        /* \"#utility.yul\":841:1170   */\n      swap3\n      swap2\n      pop\n      pop\n      jump\t// out\n        /* \"#utility.yul\":1176:1294   */\n    tag_162:\n        /* \"#utility.yul\":1263:1287   */\n      tag_209\n        /* \"#utility.yul\":1281:1286   */\n      dup2\n        /* \"#utility.yul\":1263:1287   */\n      tag_159\n      jump\t// in\n    tag_209:\n        /* \"#utility.yul\":1258:1261   */\n      dup3\n        /* \"#utility.yul\":1251:1288   */\n      mstore\n        /* \"#utility.yul\":1176:1294   */\n      pop\n      pop\n      jump\t// out\n        /* \"#utility.yul\":1300:1522   */\n    tag_28:\n        /* \"#utility.yul\":1393:1397   */\n      0x00\n        /* \"#utility.yul\":1431:1433   */\n      0x20\n        /* \"#utility.yul\":1420:1429   */\n      dup3\n        /* \"#utility.yul\":1416:1434   */\n      add\n        /* \"#utility.yul\":1408:1434   */\n      swap1\n      pop\n        /* \"#utility.yul\":1444:1515   */\n      tag_211\n        /* \"#utility.yul\":1512:1513   */\n      0x00\n        /* \"#utility.yul\":1501:1510   */\n      dup4\n        /* \"#utility.yul\":1497:1514   */\n      add\n        /* \"#utility.yul\":1488:1494   */\n      dup5\n        /* \"#utility.yul\":1444:1515   */\n      tag_162\n      jump\t// in\n    tag_211:\n        /* \"#utility.yul\":1300:1522   */\n      swap3\n      swap2\n      pop\n      pop\n      jump\t// out\n        /* \"#utility.yul\":1528:1614   */\n    tag_163:\n        /* \"#utility.yul\":1563:1570   */\n      0x00\n        /* \"#utility.yul\":1603:1607   */\n      0xff\n        /* \"#utility.yul\":1596:1601   */\n      dup3\n        /* \"#utility.yul\":1592:1608   */\n      and\n        /* \"#utility.yul\":1581:1608   */\n      swap1\n      pop\n        /* \"#utility.yul\":1528:1614   */\n      swap2\n      swap1\n      pop\n      jump\t// out\n        /* \"#utility.yul\":1620:1732   */\n    tag_164:\n        /* \"#utility.yul\":1703:1725   */\n      tag_214\n        /* \"#utility.yul\":1719:1724   */\n      dup2\n        /* \"#utility.yul\":1703:1725   */\n      tag_163\n      jump\t// in\n    tag_214:\n        /* \"#utility.yul\":1698:1701   */\n      dup3\n        /* \"#utility.yul\":1691:1726   */\n      mstore\n        /* \"#utility.yul\":1620:1732   */\n      pop\n      pop\n      jump\t// out\n        /* \"#utility.yul\":1738:1952   */\n    tag_32:\n        /* \"#utility.yul\":1827:1831   */\n      0x00\n        /* \"#utility.yul\":1865:1867   */\n      0x20\n        /* \"#utility.yul\":1854:1863   */\n      dup3\n        /* \"#utility.yul\":1850:1868   */\n      add\n        /* \"#utility.yul\":1842:1868   */\n      swap1\n      pop\n        /* \"#utility.yul\":1878:1945   */\n      tag_216\n        /* \"#utility.yul\":1942:1943   */\n      0x00\n        /* \"#utility.yul\":1931:1940   */\n      dup4\n        /* \"#utility.yul\":1927:1944   */\n      add\n        /* \"#utility.yul\":1918:1924   */\n      dup5\n        /* \"#utility.yul\":1878:1945   */\n      tag_164\n      jump\t// in\n    tag_216:\n        /* \"#utility.yul\":1738:1952   */\n      swap3\n      swap2\n      pop\n      pop\n      jump\t// out\n        /* \"#utility.yul\":1958:2057   */\n    tag_165:\n        /* \"#utility.yul\":2010:2016   */\n      0x00\n        /* \"#utility.yul\":2044:2049   */\n      dup2\n        /* \"#utility.yul\":2038:2050   */\n      mload\n        /* \"#utility.yul\":2028:2050   */\n      swap1\n      pop\n        /* \"#utility.yul\":1958:2057   */\n      swap2\n      swap1\n      pop\n      jump\t// out\n        /* \"#utility.yul\":2063:2232   */\n    tag_166:\n        /* \"#utility.yul\":2147:2158   */\n      0x00\n        /* \"#utility.yul\":2181:2187   */\n      dup3\n        /* \"#utility.yul\":2176:2179   */\n      dup3\n        /* \"#utility.yul\":2169:2188   */\n      mstore\n        /* \"#utility.yul\":2221:2225   */\n      0x20\n        /* \"#utility.yul\":2216:2219   */\n      dup3\n        /* \"#utility.yul\":2212:2226   */\n      add\n        /* \"#utility.yul\":2197:2226   */\n      swap1\n      pop\n        /* \"#utility.yul\":2063:2232   */\n      swap3\n      swap2\n      pop\n      pop\n      jump\t// out\n        /* \"#utility.yul\":2238:2377   */\n    tag_167:\n        /* \"#utility.yul\":2327:2333   */\n      dup3\n        /* \"#utility.yul\":2322:2325   */\n      dup2\n        /* \"#utility.yul\":2317:2320   */\n      dup4\n        /* \"#utility.yul\":2311:2334   */\n      mcopy\n        /* \"#utility.yul\":2368:2369   */\n      0x00\n        /* \"#utility.yul\":2359:2365   */\n      dup4\n        /* \"#utility.yul\":2354:2357   */\n      dup4\n        /* \"#utility.yul\":2350:2366   */\n      add\n        /* \"#utility.yul\":2343:2370   */\n      mstore\n        /* \"#utility.yul\":2238:2377   */\n      pop\n      pop\n      pop\n      jump\t// out\n        /* \"#utility.yul\":2383:2485   */\n    tag_168:\n        /* \"#utility.yul\":2424:2430   */\n      0x00\n        /* \"#utility.yul\":2475:2477   */\n      0x1f\n        /* \"#utility.yul\":2471:2478   */\n      not\n        /* \"#utility.yul\":2466:2468   */\n      0x1f\n        /* \"#utility.yul\":2459:2464   */\n      dup4\n        /* \"#utility.yul\":2455:2469   */\n      add\n        /* \"#utility.yul\":2451:2479   */\n      and\n        /* \"#utility.yul\":2441:2479   */\n      swap1\n      pop\n        /* \"#utility.yul\":2383:2485   */\n      swap2\n      swap1\n      pop\n      jump\t// out\n        /* \"#utility.yul\":2491:2868   */\n    tag_169:\n        /* \"#utility.yul\":2579:2582   */\n      0x00\n        /* \"#utility.yul\":2607:2646   */\n      tag_222\n        /* \"#utility.yul\":2640:2645   */\n      dup3\n        /* \"#utility.yul\":2607:2646   */\n      tag_165\n      jump\t// in\n    tag_222:\n        /* \"#utility.yul\":2662:2733   */\n      tag_223\n        /* \"#utility.yul\":2726:2732   */\n      dup2\n        /* \"#utility.yul\":2721:2724   */\n      dup6\n        /* \"#utility.yul\":2662:2733   */\n      tag_166\n      jump\t// in\n    tag_223:\n        /* \"#utility.yul\":2655:2733   */\n      swap4\n      pop\n        /* \"#utility.yul\":2742:2807   */\n      tag_224\n        /* \"#utility.yul\":2800:2806   */\n      dup2\n        /* \"#utility.yul\":2795:2798   */\n      dup6\n        /* \"#utility.yul\":2788:2792   */\n      0x20\n        /* \"#utility.yul\":2781:2786   */\n      dup7\n        /* \"#utility.yul\":2777:2793   */\n      add\n        /* \"#utility.yul\":2742:2807   */\n      tag_167\n      jump\t// in\n    tag_224:\n        /* \"#utility.yul\":2832:2861   */\n      tag_225\n        /* \"#utility.yul\":2854:2860   */\n      dup2\n        /* \"#utility.yul\":2832:2861   */\n      tag_168\n      jump\t// in\n    tag_225:\n        /* \"#utility.yul\":2827:2830   */\n      dup5\n        /* \"#utility.yul\":2823:2862   */\n      add\n        /* \"#utility.yul\":2816:2862   */\n      swap2\n      pop\n        /* \"#utility.yul\":2583:2868   */\n      pop\n        /* \"#utility.yul\":2491:2868   */\n      swap3\n      swap2\n      pop\n      pop\n      jump\t// out\n        /* \"#utility.yul\":2874:3187   */\n    tag_36:\n        /* \"#utility.yul\":2987:2991   */\n      0x00\n        /* \"#utility.yul\":3025:3027   */\n      0x20\n        /* \"#utility.yul\":3014:3023   */\n      dup3\n        /* \"#utility.yul\":3010:3028   */\n      add\n        /* \"#utility.yul\":3002:3028   */\n      swap1\n      pop\n        /* \"#utility.yul\":3074:3083   */\n      dup2\n        /* \"#utility.yul\":3068:3072   */\n      dup2\n        /* \"#utility.yul\":3064:3084   */\n      sub\n        /* \"#utility.yul\":3060:3061   */\n      0x00\n        /* \"#utility.yul\":3049:3058   */\n      dup4\n        /* \"#utility.yul\":3045:3062   */\n      add\n        /* \"#utility.yul\":3038:3085   */\n      mstore\n        /* \"#utility.yul\":3102:3180   */\n      tag_227\n        /* \"#utility.yul\":3175:3179   */\n      dup2\n        /* \"#utility.yul\":3166:3172   */\n      dup5\n        /* \"#utility.yul\":3102:3180   */\n      tag_169\n      jump\t// in\n    tag_227:\n        /* \"#utility.yul\":3094:3180   */\n      swap1\n      pop\n        /* \"#utility.yul\":2874:3187   */\n      swap3\n      swap2\n      pop\n      pop\n      jump\t// out\n        /* \"#utility.yul\":3193:3270   */\n    tag_170:\n        /* \"#utility.yul\":3230:3237   */\n      0x00\n        /* \"#utility.yul\":3259:3264   */\n      dup2\n        /* \"#utility.yul\":3248:3264   */\n      swap1\n      pop\n        /* \"#utility.yul\":3193:3270   */\n      swap2\n      swap1\n      pop\n      jump\t// out\n        /* \"#utility.yul\":3276:3394   */\n    tag_171:\n        /* \"#utility.yul\":3363:3387   */\n      tag_230\n        /* \"#utility.yul\":3381:3386   */\n      dup2\n        /* \"#utility.yul\":3363:3387   */\n      tag_170\n      jump\t// in\n    tag_230:\n        /* \"#utility.yul\":3358:3361   */\n      dup3\n        /* \"#utility.yul\":3351:3388   */\n      mstore\n        /* \"#utility.yul\":3276:3394   */\n      pop\n      pop\n      jump\t// out\n        /* \"#utility.yul\":3400:3622   */\n    tag_40:\n        /* \"#utility.yul\":3493:3497   */\n      0x00\n        /* \"#utility.yul\":3531:3533   */\n      0x20\n        /* \"#utility.yul\":3520:3529   */\n      dup3\n        /* \"#utility.yul\":3516:3534   */\n      add\n        /* \"#utility.yul\":3508:3534   */\n      swap1\n      pop\n        /* \"#utility.yul\":3544:3615   */\n      tag_232\n        /* \"#utility.yul\":3612:3613   */\n      0x00\n        /* \"#utility.yul\":3601:3610   */\n      dup4\n        /* \"#utility.yul\":3597:3614   */\n      add\n        /* \"#utility.yul\":3588:3594   */\n      dup5\n        /* \"#utility.yul\":3544:3615   */\n      tag_171\n      jump\t// in\n    tag_232:\n        /* \"#utility.yul\":3400:3622   */\n      swap3\n      swap2\n      pop\n      pop\n      jump\t// out\n        /* \"#utility.yul\":3628:3750   */\n    tag_172:\n        /* \"#utility.yul\":3701:3725   */\n      tag_234\n        /* \"#utility.yul\":3719:3724   */\n      dup2\n        /* \"#utility.yul\":3701:3725   */\n      tag_170\n      jump\t// in\n    tag_234:\n        /* \"#utility.yul\":3694:3699   */\n      dup2\n        /* \"#utility.yul\":3691:3726   */\n      eq\n        /* \"#utility.yul\":3681:3744   */\n      tag_235\n      jumpi\n        /* \"#utility.yul\":3740:3741   */\n      0x00\n        /* \"#utility.yul\":3737:3738   */\n      0x00\n        /* \"#utility.yul\":3730:3742   */\n      revert\n        /* \"#utility.yul\":3681:3744   */\n    tag_235:\n        /* \"#utility.yul\":3628:3750   */\n      pop\n      jump\t// out\n        /* \"#utility.yul\":3756:3895   */\n    tag_173:\n        /* \"#utility.yul\":3802:3807   */\n      0x00\n        /* \"#utility.yul\":3840:3846   */\n      dup2\n        /* \"#utility.yul\":3827:3847   */\n      calldataload\n        /* \"#utility.yul\":3818:3847   */\n      swap1\n      pop\n        /* \"#utility.yul\":3856:3889   */\n      tag_237\n        /* \"#utility.yul\":3883:3888   */\n      dup2\n        /* \"#utility.yul\":3856:3889   */\n      tag_172\n      jump\t// in\n    tag_237:\n        /* \"#utility.yul\":3756:3895   */\n      swap3\n      swap2\n      pop\n      pop\n      jump\t// out\n        /* \"#utility.yul\":3901:4375   */\n    tag_49:\n        /* \"#utility.yul\":3969:3975   */\n      0x00\n        /* \"#utility.yul\":3977:3983   */\n      0x00\n        /* \"#utility.yul\":4026:4028   */\n      0x40\n        /* \"#utility.yul\":4014:4023   */\n      dup4\n        /* \"#utility.yul\":4005:4012   */\n      dup6\n        /* \"#utility.yul\":4001:4024   */\n      sub\n        /* \"#utility.yul\":3997:4029   */\n      slt\n        /* \"#utility.yul\":3994:4113   */\n      iszero\n      tag_239\n      jumpi\n        /* \"#utility.yul\":4032:4111   */\n      tag_240\n      tag_156\n      jump\t// in\n    tag_240:\n        /* \"#utility.yul\":3994:4113   */\n    tag_239:\n        /* \"#utility.yul\":4152:4153   */\n      0x00\n        /* \"#utility.yul\":4177:4230   */\n      tag_241\n        /* \"#utility.yul\":4222:4229   */\n      dup6\n        /* \"#utility.yul\":4213:4219   */\n      dup3\n        /* \"#utility.yul\":4202:4211   */\n      dup7\n        /* \"#utility.yul\":4198:4220   */\n      add\n        /* \"#utility.yul\":4177:4230   */\n      tag_161\n      jump\t// in\n    tag_241:\n        /* \"#utility.yul\":4167:4230   */\n      swap3\n      pop\n        /* \"#utility.yul\":4123:4240   */\n      pop\n        /* \"#utility.yul\":4279:4281   */\n      0x20\n        /* \"#utility.yul\":4305:4358   */\n      tag_242\n        /* \"#utility.yul\":4350:4357   */\n      dup6\n        /* \"#utility.yul\":4341:4347   */\n      dup3\n        /* \"#utility.yul\":4330:4339   */\n      dup7\n        /* \"#utility.yul\":4326:4348   */\n      add\n        /* \"#utility.yul\":4305:4358   */\n      tag_173\n      jump\t// in\n    tag_242:\n        /* \"#utility.yul\":4295:4358   */\n      swap2\n      pop\n        /* \"#utility.yul\":4250:4368   */\n      pop\n        /* \"#utility.yul\":3901:4375   */\n      swap3\n      pop\n      swap3\n      swap1\n      pop\n      jump\t// out\n        /* \"#utility.yul\":4381:4471   */\n    tag_174:\n        /* \"#utility.yul\":4415:4422   */\n      0x00\n        /* \"#utility.yul\":4458:4463   */\n      dup2\n        /* \"#utility.yul\":4451:4464   */\n      iszero\n        /* \"#utility.yul\":4444:4465   */\n      iszero\n        /* \"#utility.yul\":4433:4465   */\n      swap1\n      pop\n        /* \"#utility.yul\":4381:4471   */\n      swap2\n      swap1\n      pop\n      jump\t// out\n        /* \"#utility.yul\":4477:4586   */\n    tag_175:\n        /* \"#utility.yul\":4558:4579   */\n      tag_245\n        /* \"#utility.yul\":4573:4578   */\n      dup2\n        /* \"#utility.yul\":4558:4579   */\n      tag_174\n      jump\t// in\n    tag_245:\n        /* \"#utility.yul\":4553:4556   */\n      dup3\n        /* \"#utility.yul\":4546:4580   */\n      mstore\n        /* \"#utility.yul\":4477:4586   */\n      pop\n      pop\n      jump\t// out\n        /* \"#utility.yul\":4592:4802   */\n    tag_52:\n        /* \"#utility.yul\":4679:4683   */\n      0x00\n        /* \"#utility.yul\":4717:4719   */\n      0x20\n        /* \"#utility.yul\":4706:4715   */\n      dup3\n        /* \"#utility.yul\":4702:4720   */\n      add\n        /* \"#utility.yul\":4694:4720   */\n      swap1\n      pop\n        /* \"#utility.yul\":4730:4795   */\n      tag_247\n        /* \"#utility.yul\":4792:4793   */\n      0x00\n        /* \"#utility.yul\":4781:4790   */\n      dup4\n        /* \"#utility.yul\":4777:4794   */\n      add\n        /* \"#utility.yul\":4768:4774   */\n      dup5\n        /* \"#utility.yul\":4730:4795   */\n      tag_175\n      jump\t// in\n    tag_247:\n        /* \"#utility.yul\":4592:4802   */\n      swap3\n      swap2\n      pop\n      pop\n      jump\t// out\n        /* \"#utility.yul\":4808:5137   */\n    tag_59:\n        /* \"#utility.yul\":4867:4873   */\n      0x00\n        /* \"#utility.yul\":4916:4918   */\n      0x20\n        /* \"#utility.yul\":4904:4913   */\n      dup3\n        /* \"#utility.yul\":4895:4902   */\n      dup5\n        /* \"#utility.yul\":4891:4914   */\n      sub\n        /* \"#utility.yul\":4887:4919   */\n      slt\n        /* \"#utility.yul\":4884:5003   */\n      iszero\n      tag_249\n      jumpi\n        /* \"#utility.yul\":4922:5001   */\n      tag_250\n      tag_156\n      jump\t// in\n    tag_250:\n        /* \"#utility.yul\":4884:5003   */\n    tag_249:\n        /* \"#utility.yul\":5042:5043   */\n      0x00\n        /* \"#utility.yul\":5067:5120   */\n      tag_251\n        /* \"#utility.yul\":5112:5119   */\n      dup5\n        /* \"#utility.yul\":5103:5109   */\n      dup3\n        /* \"#utility.yul\":5092:5101   */\n      dup6\n        /* \"#utility.yul\":5088:5110   */\n      add\n        /* \"#utility.yul\":5067:5120   */\n      tag_173\n      jump\t// in\n    tag_251:\n        /* \"#utility.yul\":5057:5120   */\n      swap2\n      pop\n        /* \"#utility.yul\":5013:5130   */\n      pop\n        /* \"#utility.yul\":4808:5137   */\n      swap3\n      swap2\n      pop\n      pop\n      jump\t// out\n        /* \"#utility.yul\":5143:5762   */\n    tag_64:\n        /* \"#utility.yul\":5220:5226   */\n      0x00\n        /* \"#utility.yul\":5228:5234   */\n      0x00\n        /* \"#utility.yul\":5236:5242   */\n      0x00\n        /* \"#utility.yul\":5285:5287   */\n      0x60\n        /* \"#utility.yul\":5273:5282   */\n      dup5\n        /* \"#utility.yul\":5264:5271   */\n      dup7\n        /* \"#utility.yul\":5260:5283   */\n      sub\n        /* \"#utility.yul\":5256:5288   */\n      slt\n        /* \"#utility.yul\":5253:5372   */\n      iszero\n      tag_253\n      jumpi\n        /* \"#utility.yul\":5291:5370   */\n      tag_254\n      tag_156\n      jump\t// in\n    tag_254:\n        /* \"#utility.yul\":5253:5372   */\n    tag_253:\n        /* \"#utility.yul\":5411:5412   */\n      0x00\n        /* \"#utility.yul\":5436:5489   */\n      tag_255\n        /* \"#utility.yul\":5481:5488   */\n      dup7\n        /* \"#utility.yul\":5472:5478   */\n      dup3\n        /* \"#utility.yul\":5461:5470   */\n      dup8\n        /* \"#utility.yul\":5457:5479   */\n      add\n        /* \"#utility.yul\":5436:5489   */\n      tag_161\n      jump\t// in\n    tag_255:\n        /* \"#utility.yul\":5426:5489   */\n      swap4\n      pop\n        /* \"#utility.yul\":5382:5499   */\n      pop\n        /* \"#utility.yul\":5538:5540   */\n      0x20\n        /* \"#utility.yul\":5564:5617   */\n      tag_256\n        /* \"#utility.yul\":5609:5616   */\n      dup7\n        /* \"#utility.yul\":5600:5606   */\n      dup3\n        /* \"#utility.yul\":5589:5598   */\n      dup8\n        /* \"#utility.yul\":5585:5607   */\n      add\n        /* \"#utility.yul\":5564:5617   */\n      tag_161\n      jump\t// in\n    tag_256:\n        /* \"#utility.yul\":5554:5617   */\n      swap3\n      pop\n        /* \"#utility.yul\":5509:5627   */\n      pop\n        /* \"#utility.yul\":5666:5668   */\n      0x40\n        /* \"#utility.yul\":5692:5745   */\n      tag_257\n        /* \"#utility.yul\":5737:5744   */\n      dup7\n        /* \"#utility.yul\":5728:5734   */\n      dup3\n        /* \"#utility.yul\":5717:5726   */\n      dup8\n        /* \"#utility.yul\":5713:5735   */\n      add\n        /* \"#utility.yul\":5692:5745   */\n      tag_173\n      jump\t// in\n    tag_257:\n        /* \"#utility.yul\":5682:5745   */\n      swap2\n      pop\n        /* \"#utility.yul\":5637:5755   */\n      pop\n        /* \"#utility.yul\":5143:5762   */\n      swap3\n      pop\n      swap3\n      pop\n      swap3\n      jump\t// out\n        /* \"#utility.yul\":5768:6242   */\n    tag_80:\n        /* \"#utility.yul\":5836:5842   */\n      0x00\n        /* \"#utility.yul\":5844:5850   */\n      0x00\n        /* \"#utility.yul\":5893:5895   */\n      0x40\n        /* \"#utility.yul\":5881:5890   */\n      dup4\n        /* \"#utility.yul\":5872:5879   */\n      dup6\n        /* \"#utility.yul\":5868:5891   */\n      sub\n        /* \"#utility.yul\":5864:5896   */\n      slt\n        /* \"#utility.yul\":5861:5980   */\n      iszero\n      tag_259\n      jumpi\n        /* \"#utility.yul\":5899:5978   */\n      tag_260\n      tag_156\n      jump\t// in\n    tag_260:\n        /* \"#utility.yul\":5861:5980   */\n    tag_259:\n        /* \"#utility.yul\":6019:6020   */\n      0x00\n        /* \"#utility.yul\":6044:6097   */\n      tag_261\n        /* \"#utility.yul\":6089:6096   */\n      dup6\n        /* \"#utility.yul\":6080:6086   */\n      dup3\n        /* \"#utility.yul\":6069:6078   */\n      dup7\n        /* \"#utility.yul\":6065:6087   */\n      add\n        /* \"#utility.yul\":6044:6097   */\n      tag_161\n      jump\t// in\n    tag_261:\n        /* \"#utility.yul\":6034:6097   */\n      swap3\n      pop\n        /* \"#utility.yul\":5990:6107   */\n      pop\n        /* \"#utility.yul\":6146:6148   */\n      0x20\n        /* \"#utility.yul\":6172:6225   */\n      tag_262\n        /* \"#utility.yul\":6217:6224   */\n      dup6\n        /* \"#utility.yul\":6208:6214   */\n      dup3\n        /* \"#utility.yul\":6197:6206   */\n      dup7\n        /* \"#utility.yul\":6193:6215   */\n      add\n        /* \"#utility.yul\":6172:6225   */\n      tag_161\n      jump\t// in\n    tag_262:\n        /* \"#utility.yul\":6162:6225   */\n      swap2\n      pop\n        /* \"#utility.yul\":6117:6235   */\n      pop\n        /* \"#utility.yul\":5768:6242   */\n      swap3\n      pop\n      swap3\n      swap1\n      pop\n      jump\t// out\n        /* \"#utility.yul\":6248:6474   */\n    tag_176:\n        /* \"#utility.yul\":6388:6422   */\n      0x536f6c6f20656c2070726f706965746172696f20707565646520656a65637574\n        /* \"#utility.yul\":6384:6385   */\n      0x00\n        /* \"#utility.yul\":6376:6382   */\n      dup3\n        /* \"#utility.yul\":6372:6386   */\n      add\n        /* \"#utility.yul\":6365:6423   */\n      mstore\n        /* \"#utility.yul\":6457:6466   */\n      0x6172206573746f00000000000000000000000000000000000000000000000000\n        /* \"#utility.yul\":6452:6454   */\n      0x20\n        /* \"#utility.yul\":6444:6450   */\n      dup3\n        /* \"#utility.yul\":6440:6455   */\n      add\n        /* \"#utility.yul\":6433:6467   */\n      mstore\n        /* \"#utility.yul\":6248:6474   */\n      pop\n      jump\t// out\n        /* \"#utility.yul\":6480:6846   */\n    tag_177:\n        /* \"#utility.yul\":6622:6625   */\n      0x00\n        /* \"#utility.yul\":6643:6710   */\n      tag_265\n        /* \"#utility.yul\":6707:6709   */\n      0x27\n        /* \"#utility.yul\":6702:6705   */\n      dup4\n        /* \"#utility.yul\":6643:6710   */\n      tag_166\n      jump\t// in\n    tag_265:\n        /* \"#utility.yul\":6636:6710   */\n      swap2\n      pop\n        /* \"#utility.yul\":6719:6812   */\n      tag_266\n        /* \"#utility.yul\":6808:6811   */\n      dup3\n        /* \"#utility.yul\":6719:6812   */\n      tag_176\n      jump\t// in\n    tag_266:\n        /* \"#utility.yul\":6837:6839   */\n      0x40\n        /* \"#utility.yul\":6832:6835   */\n      dup3\n        /* \"#utility.yul\":6828:6840   */\n      add\n        /* \"#utility.yul\":6821:6840   */\n      swap1\n      pop\n        /* \"#utility.yul\":6480:6846   */\n      swap2\n      swap1\n      pop\n      jump\t// out\n        /* \"#utility.yul\":6852:7271   */\n    tag_86:\n        /* \"#utility.yul\":7018:7022   */\n      0x00\n        /* \"#utility.yul\":7056:7058   */\n      0x20\n        /* \"#utility.yul\":7045:7054   */\n      dup3\n        /* \"#utility.yul\":7041:7059   */\n      add\n        /* \"#utility.yul\":7033:7059   */\n      swap1\n      pop\n        /* \"#utility.yul\":7105:7114   */\n      dup2\n        /* \"#utility.yul\":7099:7103   */\n      dup2\n        /* \"#utility.yul\":7095:7115   */\n      sub\n        /* \"#utility.yul\":7091:7092   */\n      0x00\n        /* \"#utility.yul\":7080:7089   */\n      dup4\n        /* \"#utility.yul\":7076:7093   */\n      add\n        /* \"#utility.yul\":7069:7116   */\n      mstore\n        /* \"#utility.yul\":7133:7264   */\n      tag_268\n        /* \"#utility.yul\":7259:7263   */\n      dup2\n        /* \"#utility.yul\":7133:7264   */\n      tag_177\n      jump\t// in\n    tag_268:\n        /* \"#utility.yul\":7125:7264   */\n      swap1\n      pop\n        /* \"#utility.yul\":6852:7271   */\n      swap2\n      swap1\n      pop\n      jump\t// out\n        /* \"#utility.yul\":7277:7446   */\n    tag_178:\n        /* \"#utility.yul\":7417:7438   */\n      0x446972656363696f6e206e6f2076616c69646100000000000000000000000000\n        /* \"#utility.yul\":7413:7414   */\n      0x00\n        /* \"#utility.yul\":7405:7411   */\n      dup3\n        /* \"#utility.yul\":7401:7415   */\n      add\n        /* \"#utility.yul\":7394:7439   */\n      mstore\n        /* \"#utility.yul\":7277:7446   */\n      pop\n      jump\t// out\n        /* \"#utility.yul\":7452:7818   */\n    tag_179:\n        /* \"#utility.yul\":7594:7597   */\n      0x00\n        /* \"#utility.yul\":7615:7682   */\n      tag_271\n        /* \"#utility.yul\":7679:7681   */\n      0x13\n        /* \"#utility.yul\":7674:7677   */\n      dup4\n        /* \"#utility.yul\":7615:7682   */\n      tag_166\n      jump\t// in\n    tag_271:\n        /* \"#utility.yul\":7608:7682   */\n      swap2\n      pop\n        /* \"#utility.yul\":7691:7784   */\n      tag_272\n        /* \"#utility.yul\":7780:7783   */\n      dup3\n        /* \"#utility.yul\":7691:7784   */\n      tag_178\n      jump\t// in\n    tag_272:\n        /* \"#utility.yul\":7809:7811   */\n      0x20\n        /* \"#utility.yul\":7804:7807   */\n      dup3\n        /* \"#utility.yul\":7800:7812   */\n      add\n        /* \"#utility.yul\":7793:7812   */\n      swap1\n      pop\n        /* \"#utility.yul\":7452:7818   */\n      swap2\n      swap1\n      pop\n      jump\t// out\n        /* \"#utility.yul\":7824:8243   */\n    tag_90:\n        /* \"#utility.yul\":7990:7994   */\n      0x00\n        /* \"#utility.yul\":8028:8030   */\n      0x20\n        /* \"#utility.yul\":8017:8026   */\n      dup3\n        /* \"#utility.yul\":8013:8031   */\n      add\n        /* \"#utility.yul\":8005:8031   */\n      swap1\n      pop\n        /* \"#utility.yul\":8077:8086   */\n      dup2\n        /* \"#utility.yul\":8071:8075   */\n      dup2\n        /* \"#utility.yul\":8067:8087   */\n      sub\n        /* \"#utility.yul\":8063:8064   */\n      0x00\n        /* \"#utility.yul\":8052:8061   */\n      dup4\n        /* \"#utility.yul\":8048:8065   */\n      add\n        /* \"#utility.yul\":8041:8088   */\n      mstore\n        /* \"#utility.yul\":8105:8236   */\n      tag_274\n        /* \"#utility.yul\":8231:8235   */\n      dup2\n        /* \"#utility.yul\":8105:8236   */\n      tag_179\n      jump\t// in\n    tag_274:\n        /* \"#utility.yul\":8097:8236   */\n      swap1\n      pop\n        /* \"#utility.yul\":7824:8243   */\n      swap2\n      swap1\n      pop\n      jump\t// out\n        /* \"#utility.yul\":8249:8429   */\n    tag_180:\n        /* \"#utility.yul\":8297:8374   */\n      0x4e487b7100000000000000000000000000000000000000000000000000000000\n        /* \"#utility.yul\":8294:8295   */\n      0x00\n        /* \"#utility.yul\":8287:8375   */\n      mstore\n        /* \"#utility.yul\":8394:8398   */\n      0x22\n        /* \"#utility.yul\":8391:8392   */\n      0x04\n        /* \"#utility.yul\":8384:8399   */\n      mstore\n        /* \"#utility.yul\":8418:8422   */\n      0x24\n        /* \"#utility.yul\":8415:8416   */\n      0x00\n        /* \"#utility.yul\":8408:8423   */\n      revert\n        /* \"#utility.yul\":8435:8755   */\n    tag_92:\n        /* \"#utility.yul\":8479:8485   */\n      0x00\n        /* \"#utility.yul\":8516:8517   */\n      0x02\n        /* \"#utility.yul\":8510:8514   */\n      dup3\n        /* \"#utility.yul\":8506:8518   */\n      div\n        /* \"#utility.yul\":8496:8518   */\n      swap1\n      pop\n        /* \"#utility.yul\":8563:8564   */\n      0x01\n        /* \"#utility.yul\":8557:8561   */\n      dup3\n        /* \"#utility.yul\":8553:8565   */\n      and\n        /* \"#utility.yul\":8584:8602   */\n      dup1\n        /* \"#utility.yul\":8574:8655   */\n      tag_277\n      jumpi\n        /* \"#utility.yul\":8640:8644   */\n      0x7f\n        /* \"#utility.yul\":8632:8638   */\n      dup3\n        /* \"#utility.yul\":8628:8645   */\n      and\n        /* \"#utility.yul\":8618:8645   */\n      swap2\n      pop\n        /* \"#utility.yul\":8574:8655   */\n    tag_277:\n        /* \"#utility.yul\":8702:8704   */\n      0x20\n        /* \"#utility.yul\":8694:8700   */\n      dup3\n        /* \"#utility.yul\":8691:8705   */\n      lt\n        /* \"#utility.yul\":8671:8689   */\n      dup2\n        /* \"#utility.yul\":8668:8706   */\n      sub\n        /* \"#utility.yul\":8665:8749   */\n      tag_278\n      jumpi\n        /* \"#utility.yul\":8721:8739   */\n      tag_279\n      tag_180\n      jump\t// in\n    tag_279:\n        /* \"#utility.yul\":8665:8749   */\n    tag_278:\n        /* \"#utility.yul\":8486:8755   */\n      pop\n        /* \"#utility.yul\":8435:8755   */\n      swap2\n      swap1\n      pop\n      jump\t// out\n        /* \"#utility.yul\":8761:8929   */\n    tag_181:\n        /* \"#utility.yul\":8901:8921   */\n      0x53616c646f20696e737566696369656e74650000000000000000000000000000\n        /* \"#utility.yul\":8897:8898   */\n      0x00\n        /* \"#utility.yul\":8889:8895   */\n      dup3\n        /* \"#utility.yul\":8885:8899   */\n      add\n        /* \"#utility.yul\":8878:8922   */\n      mstore\n        /* \"#utility.yul\":8761:8929   */\n      pop\n      jump\t// out\n        /* \"#utility.yul\":8935:9301   */\n    tag_182:\n        /* \"#utility.yul\":9077:9080   */\n      0x00\n        /* \"#utility.yul\":9098:9165   */\n      tag_282\n        /* \"#utility.yul\":9162:9164   */\n      0x12\n        /* \"#utility.yul\":9157:9160   */\n      dup4\n        /* \"#utility.yul\":9098:9165   */\n      tag_166\n      jump\t// in\n    tag_282:\n        /* \"#utility.yul\":9091:9165   */\n      swap2\n      pop\n        /* \"#utility.yul\":9174:9267   */\n      tag_283\n        /* \"#utility.yul\":9263:9266   */\n      dup3\n        /* \"#utility.yul\":9174:9267   */\n      tag_181\n      jump\t// in\n    tag_283:\n        /* \"#utility.yul\":9292:9294   */\n      0x20\n        /* \"#utility.yul\":9287:9290   */\n      dup3\n        /* \"#utility.yul\":9283:9295   */\n      add\n        /* \"#utility.yul\":9276:9295   */\n      swap1\n      pop\n        /* \"#utility.yul\":8935:9301   */\n      swap2\n      swap1\n      pop\n      jump\t// out\n        /* \"#utility.yul\":9307:9726   */\n    tag_106:\n        /* \"#utility.yul\":9473:9477   */\n      0x00\n        /* \"#utility.yul\":9511:9513   */\n      0x20\n        /* \"#utility.yul\":9500:9509   */\n      dup3\n        /* \"#utility.yul\":9496:9514   */\n      add\n        /* \"#utility.yul\":9488:9514   */\n      swap1\n      pop\n        /* \"#utility.yul\":9560:9569   */\n      dup2\n        /* \"#utility.yul\":9554:9558   */\n      dup2\n        /* \"#utility.yul\":9550:9570   */\n      sub\n        /* \"#utility.yul\":9546:9547   */\n      0x00\n        /* \"#utility.yul\":9535:9544   */\n      dup4\n        /* \"#utility.yul\":9531:9548   */\n      add\n        /* \"#utility.yul\":9524:9571   */\n      mstore\n        /* \"#utility.yul\":9588:9719   */\n      tag_285\n        /* \"#utility.yul\":9714:9718   */\n      dup2\n        /* \"#utility.yul\":9588:9719   */\n      tag_182\n      jump\t// in\n    tag_285:\n        /* \"#utility.yul\":9580:9719   */\n      swap1\n      pop\n        /* \"#utility.yul\":9307:9726   */\n      swap2\n      swap1\n      pop\n      jump\t// out\n        /* \"#utility.yul\":9732:9912   */\n    tag_183:\n        /* \"#utility.yul\":9872:9904   */\n      0x53616c646f20696e737566696369656e74652070617261207175656d61720000\n        /* \"#utility.yul\":9868:9869   */\n      0x00\n        /* \"#utility.yul\":9860:9866   */\n      dup3\n        /* \"#utility.yul\":9856:9870   */\n      add\n        /* \"#utility.yul\":9849:9905   */\n      mstore\n        /* \"#utility.yul\":9732:9912   */\n      pop\n      jump\t// out\n        /* \"#utility.yul\":9918:10284   */\n    tag_184:\n        /* \"#utility.yul\":10060:10063   */\n      0x00\n        /* \"#utility.yul\":10081:10148   */\n      tag_288\n        /* \"#utility.yul\":10145:10147   */\n      0x1e\n        /* \"#utility.yul\":10140:10143   */\n      dup4\n        /* \"#utility.yul\":10081:10148   */\n      tag_166\n      jump\t// in\n    tag_288:\n        /* \"#utility.yul\":10074:10148   */\n      swap2\n      pop\n        /* \"#utility.yul\":10157:10250   */\n      tag_289\n        /* \"#utility.yul\":10246:10249   */\n      dup3\n        /* \"#utility.yul\":10157:10250   */\n      tag_183\n      jump\t// in\n    tag_289:\n        /* \"#utility.yul\":10275:10277   */\n      0x20\n        /* \"#utility.yul\":10270:10273   */\n      dup3\n        /* \"#utility.yul\":10266:10278   */\n      add\n        /* \"#utility.yul\":10259:10278   */\n      swap1\n      pop\n        /* \"#utility.yul\":9918:10284   */\n      swap2\n      swap1\n      pop\n      jump\t// out\n        /* \"#utility.yul\":10290:10709   */\n    tag_112:\n        /* \"#utility.yul\":10456:10460   */\n      0x00\n        /* \"#utility.yul\":10494:10496   */\n      0x20\n        /* \"#utility.yul\":10483:10492   */\n      dup3\n        /* \"#utility.yul\":10479:10497   */\n      add\n        /* \"#utility.yul\":10471:10497   */\n      swap1\n      pop\n        /* \"#utility.yul\":10543:10552   */\n      dup2\n        /* \"#utility.yul\":10537:10541   */\n      dup2\n        /* \"#utility.yul\":10533:10553   */\n      sub\n        /* \"#utility.yul\":10529:10530   */\n      0x00\n        /* \"#utility.yul\":10518:10527   */\n      dup4\n        /* \"#utility.yul\":10514:10531   */\n      add\n        /* \"#utility.yul\":10507:10554   */\n      mstore\n        /* \"#utility.yul\":10571:10702   */\n      tag_291\n        /* \"#utility.yul\":10697:10701   */\n      dup2\n        /* \"#utility.yul\":10571:10702   */\n      tag_184\n      jump\t// in\n    tag_291:\n        /* \"#utility.yul\":10563:10702   */\n      swap1\n      pop\n        /* \"#utility.yul\":10290:10709   */\n      swap2\n      swap1\n      pop\n      jump\t// out\n        /* \"#utility.yul\":10715:10895   */\n    tag_185:\n        /* \"#utility.yul\":10763:10840   */\n      0x4e487b7100000000000000000000000000000000000000000000000000000000\n        /* \"#utility.yul\":10760:10761   */\n      0x00\n        /* \"#utility.yul\":10753:10841   */\n      mstore\n        /* \"#utility.yul\":10860:10864   */\n      0x11\n        /* \"#utility.yul\":10857:10858   */\n      0x04\n        /* \"#utility.yul\":10850:10865   */\n      mstore\n        /* \"#utility.yul\":10884:10888   */\n      0x24\n        /* \"#utility.yul\":10881:10882   */\n      0x00\n        /* \"#utility.yul\":10874:10889   */\n      revert\n        /* \"#utility.yul\":10901:11095   */\n    tag_114:\n        /* \"#utility.yul\":10941:10945   */\n      0x00\n        /* \"#utility.yul\":10961:10981   */\n      tag_294\n        /* \"#utility.yul\":10979:10980   */\n      dup3\n        /* \"#utility.yul\":10961:10981   */\n      tag_170\n      jump\t// in\n    tag_294:\n        /* \"#utility.yul\":10956:10981   */\n      swap2\n      pop\n        /* \"#utility.yul\":10995:11015   */\n      tag_295\n        /* \"#utility.yul\":11013:11014   */\n      dup4\n        /* \"#utility.yul\":10995:11015   */\n      tag_170\n      jump\t// in\n    tag_295:\n        /* \"#utility.yul\":10990:11015   */\n      swap3\n      pop\n        /* \"#utility.yul\":11039:11040   */\n      dup3\n        /* \"#utility.yul\":11036:11037   */\n      dup3\n        /* \"#utility.yul\":11032:11041   */\n      sub\n        /* \"#utility.yul\":11024:11041   */\n      swap1\n      pop\n        /* \"#utility.yul\":11063:11064   */\n      dup2\n        /* \"#utility.yul\":11057:11061   */\n      dup2\n        /* \"#utility.yul\":11054:11065   */\n      gt\n        /* \"#utility.yul\":11051:11088   */\n      iszero\n      tag_296\n      jumpi\n        /* \"#utility.yul\":11068:11086   */\n      tag_297\n      tag_185\n      jump\t// in\n    tag_297:\n        /* \"#utility.yul\":11051:11088   */\n    tag_296:\n        /* \"#utility.yul\":10901:11095   */\n      swap3\n      swap2\n      pop\n      pop\n      jump\t// out\n        /* \"#utility.yul\":11101:11264   */\n    tag_186:\n        /* \"#utility.yul\":11241:11256   */\n      0x4e6f206175746f72697a61646f00000000000000000000000000000000000000\n        /* \"#utility.yul\":11237:11238   */\n      0x00\n        /* \"#utility.yul\":11229:11235   */\n      dup3\n        /* \"#utility.yul\":11225:11239   */\n      add\n        /* \"#utility.yul\":11218:11257   */\n      mstore\n        /* \"#utility.yul\":11101:11264   */\n      pop\n      jump\t// out\n        /* \"#utility.yul\":11270:11636   */\n    tag_187:\n        /* \"#utility.yul\":11412:11415   */\n      0x00\n        /* \"#utility.yul\":11433:11500   */\n      tag_300\n        /* \"#utility.yul\":11497:11499   */\n      0x0d\n        /* \"#utility.yul\":11492:11495   */\n      dup4\n        /* \"#utility.yul\":11433:11500   */\n      tag_166\n      jump\t// in\n    tag_300:\n        /* \"#utility.yul\":11426:11500   */\n      swap2\n      pop\n        /* \"#utility.yul\":11509:11602   */\n      tag_301\n        /* \"#utility.yul\":11598:11601   */\n      dup3\n        /* \"#utility.yul\":11509:11602   */\n      tag_186\n      jump\t// in\n    tag_301:\n        /* \"#utility.yul\":11627:11629   */\n      0x20\n        /* \"#utility.yul\":11622:11625   */\n      dup3\n        /* \"#utility.yul\":11618:11630   */\n      add\n        /* \"#utility.yul\":11611:11630   */\n      swap1\n      pop\n        /* \"#utility.yul\":11270:11636   */\n      swap2\n      swap1\n      pop\n      jump\t// out\n        /* \"#utility.yul\":11642:12061   */\n    tag_123:\n        /* \"#utility.yul\":11808:11812   */\n      0x00\n        /* \"#utility.yul\":11846:11848   */\n      0x20\n        /* \"#utility.yul\":11835:11844   */\n      dup3\n        /* \"#utility.yul\":11831:11849   */\n      add\n        /* \"#utility.yul\":11823:11849   */\n      swap1\n      pop\n        /* \"#utility.yul\":11895:11904   */\n      dup2\n        /* \"#utility.yul\":11889:11893   */\n      dup2\n        /* \"#utility.yul\":11885:11905   */\n      sub\n        /* \"#utility.yul\":11881:11882   */\n      0x00\n        /* \"#utility.yul\":11870:11879   */\n      dup4\n        /* \"#utility.yul\":11866:11883   */\n      add\n        /* \"#utility.yul\":11859:11906   */\n      mstore\n        /* \"#utility.yul\":11923:12054   */\n      tag_303\n        /* \"#utility.yul\":12049:12053   */\n      dup2\n        /* \"#utility.yul\":11923:12054   */\n      tag_187\n      jump\t// in\n    tag_303:\n        /* \"#utility.yul\":11915:12054   */\n      swap1\n      pop\n        /* \"#utility.yul\":11642:12061   */\n      swap2\n      swap1\n      pop\n      jump\t// out\n        /* \"#utility.yul\":12067:12288   */\n    tag_188:\n        /* \"#utility.yul\":12207:12241   */\n      0x536f6c6f20656c206d696e74657220707565646520656a656375746172206573\n        /* \"#utility.yul\":12203:12204   */\n      0x00\n        /* \"#utility.yul\":12195:12201   */\n      dup3\n        /* \"#utility.yul\":12191:12205   */\n      add\n        /* \"#utility.yul\":12184:12242   */\n      mstore\n        /* \"#utility.yul\":12276:12280   */\n      0x746f000000000000000000000000000000000000000000000000000000000000\n        /* \"#utility.yul\":12271:12273   */\n      0x20\n        /* \"#utility.yul\":12263:12269   */\n      dup3\n        /* \"#utility.yul\":12259:12274   */\n      add\n        /* \"#utility.yul\":12252:12281   */\n      mstore\n        /* \"#utility.yul\":12067:12288   */\n      pop\n      jump\t// out\n        /* \"#utility.yul\":12294:12660   */\n    tag_189:\n        /* \"#utility.yul\":12436:12439   */\n      0x00\n        /* \"#utility.yul\":12457:12524   */\n      tag_306\n        /* \"#utility.yul\":12521:12523   */\n      0x22\n        /* \"#utility.yul\":12516:12519   */\n      dup4\n        /* \"#utility.yul\":12457:12524   */\n      tag_166\n      jump\t// in\n    tag_306:\n        /* \"#utility.yul\":12450:12524   */\n      swap2\n      pop\n        /* \"#utility.yul\":12533:12626   */\n      tag_307\n        /* \"#utility.yul\":12622:12625   */\n      dup3\n        /* \"#utility.yul\":12533:12626   */\n      tag_188\n      jump\t// in\n    tag_307:\n        /* \"#utility.yul\":12651:12653   */\n      0x40\n        /* \"#utility.yul\":12646:12649   */\n      dup3\n        /* \"#utility.yul\":12642:12654   */\n      add\n        /* \"#utility.yul\":12635:12654   */\n      swap1\n      pop\n        /* \"#utility.yul\":12294:12660   */\n      swap2\n      swap1\n      pop\n      jump\t// out\n        /* \"#utility.yul\":12666:13085   */\n    tag_134:\n        /* \"#utility.yul\":12832:12836   */\n      0x00\n        /* \"#utility.yul\":12870:12872   */\n      0x20\n        /* \"#utility.yul\":12859:12868   */\n      dup3\n        /* \"#utility.yul\":12855:12873   */\n      add\n        /* \"#utility.yul\":12847:12873   */\n      swap1\n      pop\n        /* \"#utility.yul\":12919:12928   */\n      dup2\n        /* \"#utility.yul\":12913:12917   */\n      dup2\n        /* \"#utility.yul\":12909:12929   */\n      sub\n        /* \"#utility.yul\":12905:12906   */\n      0x00\n        /* \"#utility.yul\":12894:12903   */\n      dup4\n        /* \"#utility.yul\":12890:12907   */\n      add\n        /* \"#utility.yul\":12883:12930   */\n      mstore\n        /* \"#utility.yul\":12947:13078   */\n      tag_309\n        /* \"#utility.yul\":13073:13077   */\n      dup2\n        /* \"#utility.yul\":12947:13078   */\n      tag_189\n      jump\t// in\n    tag_309:\n        /* \"#utility.yul\":12939:13078   */\n      swap1\n      pop\n        /* \"#utility.yul\":12666:13085   */\n      swap2\n      swap1\n      pop\n      jump\t// out\n        /* \"#utility.yul\":13091:13268   */\n    tag_190:\n        /* \"#utility.yul\":13231:13260   */\n      0x446972656363696f6e2064657374696e6f206e6f2076616c6964610000000000\n        /* \"#utility.yul\":13227:13228   */\n      0x00\n        /* \"#utility.yul\":13219:13225   */\n      dup3\n        /* \"#utility.yul\":13215:13229   */\n      add\n        /* \"#utility.yul\":13208:13261   */\n      mstore\n        /* \"#utility.yul\":13091:13268   */\n      pop\n      jump\t// out\n        /* \"#utility.yul\":13274:13640   */\n    tag_191:\n        /* \"#utility.yul\":13416:13419   */\n      0x00\n        /* \"#utility.yul\":13437:13504   */\n      tag_312\n        /* \"#utility.yul\":13501:13503   */\n      0x1b\n        /* \"#utility.yul\":13496:13499   */\n      dup4\n        /* \"#utility.yul\":13437:13504   */\n      tag_166\n      jump\t// in\n    tag_312:\n        /* \"#utility.yul\":13430:13504   */\n      swap2\n      pop\n        /* \"#utility.yul\":13513:13606   */\n      tag_313\n        /* \"#utility.yul\":13602:13605   */\n      dup3\n        /* \"#utility.yul\":13513:13606   */\n      tag_190\n      jump\t// in\n    tag_313:\n        /* \"#utility.yul\":13631:13633   */\n      0x20\n        /* \"#utility.yul\":13626:13629   */\n      dup3\n        /* \"#utility.yul\":13622:13634   */\n      add\n        /* \"#utility.yul\":13615:13634   */\n      swap1\n      pop\n        /* \"#utility.yul\":13274:13640   */\n      swap2\n      swap1\n      pop\n      jump\t// out\n        /* \"#utility.yul\":13646:14065   */\n    tag_143:\n        /* \"#utility.yul\":13812:13816   */\n      0x00\n        /* \"#utility.yul\":13850:13852   */\n      0x20\n        /* \"#utility.yul\":13839:13848   */\n      dup3\n        /* \"#utility.yul\":13835:13853   */\n      add\n        /* \"#utility.yul\":13827:13853   */\n      swap1\n      pop\n        /* \"#utility.yul\":13899:13908   */\n      dup2\n        /* \"#utility.yul\":13893:13897   */\n      dup2\n        /* \"#utility.yul\":13889:13909   */\n      sub\n        /* \"#utility.yul\":13885:13886   */\n      0x00\n        /* \"#utility.yul\":13874:13883   */\n      dup4\n        /* \"#utility.yul\":13870:13887   */\n      add\n        /* \"#utility.yul\":13863:13910   */\n      mstore\n        /* \"#utility.yul\":13927:14058   */\n      tag_315\n        /* \"#utility.yul\":14053:14057   */\n      dup2\n        /* \"#utility.yul\":13927:14058   */\n      tag_191\n      jump\t// in\n    tag_315:\n        /* \"#utility.yul\":13919:14058   */\n      swap1\n      pop\n        /* \"#utility.yul\":13646:14065   */\n      swap2\n      swap1\n      pop\n      jump\t// out\n        /* \"#utility.yul\":14071:14262   */\n    tag_146:\n        /* \"#utility.yul\":14111:14114   */\n      0x00\n        /* \"#utility.yul\":14130:14150   */\n      tag_317\n        /* \"#utility.yul\":14148:14149   */\n      dup3\n        /* \"#utility.yul\":14130:14150   */\n      tag_170\n      jump\t// in\n    tag_317:\n        /* \"#utility.yul\":14125:14150   */\n      swap2\n      pop\n        /* \"#utility.yul\":14164:14184   */\n      tag_318\n        /* \"#utility.yul\":14182:14183   */\n      dup4\n        /* \"#utility.yul\":14164:14184   */\n      tag_170\n      jump\t// in\n    tag_318:\n        /* \"#utility.yul\":14159:14184   */\n      swap3\n      pop\n        /* \"#utility.yul\":14207:14208   */\n      dup3\n        /* \"#utility.yul\":14204:14205   */\n      dup3\n        /* \"#utility.yul\":14200:14209   */\n      add\n        /* \"#utility.yul\":14193:14209   */\n      swap1\n      pop\n        /* \"#utility.yul\":14228:14231   */\n      dup1\n        /* \"#utility.yul\":14225:14226   */\n      dup3\n        /* \"#utility.yul\":14222:14232   */\n      gt\n        /* \"#utility.yul\":14219:14255   */\n      iszero\n      tag_319\n      jumpi\n        /* \"#utility.yul\":14235:14253   */\n      tag_320\n      tag_185\n      jump\t// in\n    tag_320:\n        /* \"#utility.yul\":14219:14255   */\n    tag_319:\n        /* \"#utility.yul\":14071:14262   */\n      swap3\n      swap2\n      pop\n      pop\n      jump\t// out\n\n    auxdata: 0xa26469706673582212205a05c4b222155ce8ab7c52d6bdc9bd9a632e73262ec22d91f32c7e85bf8e00d264736f6c634300081e0033\n}\n",
				"bytecode": {
					"linkReferences": {},
					"object": "60806040526040518060400160405280600d81526020017f4d6943726970746f5365626173000000000000000000000000000000000000008152505f90816100479190610559565b506040518060400160405280600381526020017f4d435300000000000000000000000000000000000000000000000000000000008152506001908161008c9190610559565b50601260025f6101000a81548160ff021916908360ff1602179055503480156100b3575f5ffd5b50604051611fe5380380611fe583398181016040528101906100d59190610656565b3360065f6101000a81548173ffffffffffffffffffffffffffffffffffffffff021916908373ffffffffffffffffffffffffffffffffffffffff1602179055503360075f6101000a81548173ffffffffffffffffffffffffffffffffffffffff021916908373ffffffffffffffffffffffffffffffffffffffff16021790555061018660065f9054906101000a900473ffffffffffffffffffffffffffffffffffffffff168261018c60201b60201c565b50610781565b5f73ffffffffffffffffffffffffffffffffffffffff168273ffffffffffffffffffffffffffffffffffffffff16036101fa576040517f08c379a00000000000000000000000000000000000000000000000000000000081526004016101f1906106db565b60405180910390fd5b8060045f8473ffffffffffffffffffffffffffffffffffffffff1673ffffffffffffffffffffffffffffffffffffffff1681526020019081526020015f205f8282546102469190610726565b925050819055508060035f82825461025e9190610726565b925050819055508173ffffffffffffffffffffffffffffffffffffffff167f02f56d420a47aa66acae06942581999fd0a95994d4085347760a11db9dbd780c826040516102ab9190610768565b60405180910390a28173ffffffffffffffffffffffffffffffffffffffff165f73ffffffffffffffffffffffffffffffffffffffff167f1b7e21e9fbba09c8b522cd0648f175bed32718c24534b40660a30d33fd380542836040516103109190610768565b60405180910390a35050565b5f81519050919050565b7f4e487b71000000000000000000000000000000000000000000000000000000005f52604160045260245ffd5b7f4e487b71000000000000000000000000000000000000000000000000000000005f52602260045260245ffd5b5f600282049050600182168061039757607f821691505b6020821081036103aa576103a9610353565b5b50919050565b5f819050815f5260205f209050919050565b5f6020601f8301049050919050565b5f82821b905092915050565b5f6008830261040c7fffffffffffffffffffffffffffffffffffffffffffffffffffffffffffffffff826103d1565b61041686836103d1565b95508019841693508086168417925050509392505050565b5f819050919050565b5f819050919050565b5f61045a6104556104508461042e565b610437565b61042e565b9050919050565b5f819050919050565b61047383610440565b61048761047f82610461565b8484546103dd565b825550505050565b5f5f905090565b61049e61048f565b6104a981848461046a565b505050565b5b818110156104cc576104c15f82610496565b6001810190506104af565b5050565b601f821115610511576104e2816103b0565b6104eb846103c2565b810160208510156104fa578190505b61050e610506856103c2565b8301826104ae565b50505b505050565b5f82821c905092915050565b5f6105315f1984600802610516565b1980831691505092915050565b5f6105498383610522565b9150826002028217905092915050565b6105628261031c565b67ffffffffffffffff81111561057b5761057a610326565b5b6105858254610380565b6105908282856104d0565b5f60209050601f8311600181146105c1575f84156105af578287015190505b6105b9858261053e565b865550610620565b601f1984166105cf866103b0565b5f5b828110156105f6578489015182556001820191506020850194506020810190506105d1565b86831015610613578489015161060f601f891682610522565b8355505b6001600288020188555050505b505050505050565b5f5ffd5b6106358161042e565b811461063f575f5ffd5b50565b5f815190506106508161062c565b92915050565b5f6020828403121561066b5761066a610628565b5b5f61067884828501610642565b91505092915050565b5f82825260208201905092915050565b7f446972656363696f6e206e6f2076616c696461000000000000000000000000005f82015250565b5f6106c5601383610681565b91506106d082610691565b602082019050919050565b5f6020820190508181035f8301526106f2816106b9565b9050919050565b7f4e487b71000000000000000000000000000000000000000000000000000000005f52601160045260245ffd5b5f6107308261042e565b915061073b8361042e565b9250828201905080821115610753576107526106f9565b5b92915050565b6107628161042e565b82525050565b5f60208201905061077b5f830184610759565b92915050565b6118578061078e5f395ff3fe608060405234801561000f575f5ffd5b50600436106100f2575f3560e01c806340847d2d11610095578063bc7b35b211610064578063bc7b35b214610284578063bdda4240146102a2578063c7a72961146102d2578063c7b50ea914610302576100f2565b806340847d2d146101c4578063422fb525146101f45780639480b87c14610224578063a9fe6c9814610254576100f2565b80630de82bae116100d15780630de82bae1461014e5780630f9ccfaf1461016c5780633c4f81cd1461018a5780633d3c3691146101a8576100f2565b80629a458a146100f657806307546172146101125780630d86473a14610130575b5f5ffd5b610110600480360381019061010b9190611171565b610332565b005b61011a6104ed565b60405161012791906111ab565b60405180910390f35b610138610512565b60405161014591906111df565b60405180910390f35b610156610524565b6040516101639190611268565b60405180910390f35b6101746105b0565b60405161018191906112a0565b60405180910390f35b6101926105b6565b60405161019f91906111ab565b60405180910390f35b6101c260048036038101906101bd9190611171565b6105db565b005b6101de60048036038101906101d991906112e3565b610796565b6040516101eb919061133b565b60405180910390f35b61020e60048036038101906102099190611171565b61082c565b60405161021b91906112a0565b60405180910390f35b61023e60048036038101906102399190611354565b610841565b60405161024b919061133b565b60405180910390f35b61026e6004803603810190610269919061137f565b6109e9565b60405161027b919061133b565b60405180910390f35b61028c610bc9565b6040516102999190611268565b60405180910390f35b6102bc60048036038101906102b791906112e3565b610c54565b6040516102c9919061133b565b60405180910390f35b6102ec60048036038101906102e791906112e3565b610cf8565b6040516102f9919061133b565b60405180910390f35b61031c600480360381019061031791906113cf565b610de5565b60405161032991906112a0565b60405180910390f35b60065f9054906101000a900473ffffffffffffffffffffffffffffffffffffffff1673ffffffffffffffffffffffffffffffffffffffff163373ffffffffffffffffffffffffffffffffffffffff16146103c1576040517f08c379a00000000000000000000000000000000000000000000000000000000081526004016103b89061147d565b60405180910390fd5b5f73ffffffffffffffffffffffffffffffffffffffff168173ffffffffffffffffffffffffffffffffffffffff160361042f576040517f08c379a0000000000000000000000000000000000000000000000000000000008152600401610426906114e5565b60405180910390fd5b8073ffffffffffffffffffffffffffffffffffffffff1660065f9054906101000a900473ffffffffffffffffffffffffffffffffffffffff1673ffffffffffffffffffffffffffffffffffffffff167faa29a061372086fc994717f7509f526d7fd3ecc2309d0ae85d3b4c4f99cdc03560405160405180910390a38060065f6101000a81548173ffffffffffffffffffffffffffffffffffffffff021916908373ffffffffffffffffffffffffffffffffffffffff16021790555050565b60075f9054906101000a900473ffffffffffffffffffffffffffffffffffffffff1681565b60025f9054906101000a900460ff1681565b6001805461053190611530565b80601f016020809104026020016040519081016040528092919081815260200182805461055d90611530565b80156105a85780601f1061057f576101008083540402835291602001916105a8565b820191905f5260205f20905b81548152906001019060200180831161058b57829003601f168201915b505050505081565b60035481565b60065f9054906101000a900473ffffffffffffffffffffffffffffffffffffffff1681565b60065f9054906101000a900473ffffffffffffffffffffffffffffffffffffffff1673ffffffffffffffffffffffffffffffffffffffff163373ffffffffffffffffffffffffffffffffffffffff161461066a576040517f08c379a00000000000000000000000000000000000000000000000000000000081526004016106619061147d565b60405180910390fd5b5f73ffffffffffffffffffffffffffffffffffffffff168173ffffffffffffffffffffffffffffffffffffffff16036106d8576040517f08c379a00000000000000000000000000000000000000000000000000000000081526004016106cf906114e5565b60405180910390fd5b8073ffffffffffffffffffffffffffffffffffffffff1660075f9054906101000a900473ffffffffffffffffffffffffffffffffffffffff1673ffffffffffffffffffffffffffffffffffffffff167fe26d85bfbf0151c3d5ea7e7fbba4014dfa78520e1daee3c421455db2dc4554b960405160405180910390a38060075f6101000a81548173ffffffffffffffffffffffffffffffffffffffff021916908373ffffffffffffffffffffffffffffffffffffffff16021790555050565b5f8160045f3373ffffffffffffffffffffffffffffffffffffffff1673ffffffffffffffffffffffffffffffffffffffff1681526020019081526020015f20541015610817576040517f08c379a000000000000000000000000000000000000000000000000000000000815260040161080e906115aa565b60405180910390fd5b610822338484610e05565b6001905092915050565b6004602052805f5260405f205f915090505481565b5f8160045f3373ffffffffffffffffffffffffffffffffffffffff1673ffffffffffffffffffffffffffffffffffffffff1681526020019081526020015f205410156108c2576040517f08c379a00000000000000000000000000000000000000000000000000000000081526004016108b990611612565b60405180910390fd5b8160045f3373ffffffffffffffffffffffffffffffffffffffff1673ffffffffffffffffffffffffffffffffffffffff1681526020019081526020015f205f82825461090e919061165d565b925050819055508160035f828254610926919061165d565b925050819055503373ffffffffffffffffffffffffffffffffffffffff167fd910456dc76f3c5163ff3326e6bce79bb5f0b53176dcc1aa20c9083e98f4b2c18360405161097391906112a0565b60405180910390a25f73ffffffffffffffffffffffffffffffffffffffff163373ffffffffffffffffffffffffffffffffffffffff167f1b7e21e9fbba09c8b522cd0648f175bed32718c24534b40660a30d33fd380542846040516109d891906112a0565b60405180910390a360019050919050565b5f8160045f8673ffffffffffffffffffffffffffffffffffffffff1673ffffffffffffffffffffffffffffffffffffffff1681526020019081526020015f20541015610a6a576040517f08c379a0000000000000000000000000000000000000000000000000000000008152600401610a61906115aa565b60405180910390fd5b8160055f8673ffffffffffffffffffffffffffffffffffffffff1673ffffffffffffffffffffffffffffffffffffffff1681526020019081526020015f205f3373ffffffffffffffffffffffffffffffffffffffff1673ffffffffffffffffffffffffffffffffffffffff1681526020019081526020015f20541015610b25576040517f08c379a0000000000000000000000000000000000000000000000000000000008152600401610b1c906116da565b60405180910390fd5b8160055f8673ffffffffffffffffffffffffffffffffffffffff1673ffffffffffffffffffffffffffffffffffffffff1681526020019081526020015f205f3373ffffffffffffffffffffffffffffffffffffffff1673ffffffffffffffffffffffffffffffffffffffff1681526020019081526020015f205f828254610bac919061165d565b92505081905550610bbe848484610e05565b600190509392505050565b5f8054610bd590611530565b80601f0160208091040260200160405190810160405280929190818152602001828054610c0190611530565b8015610c4c5780601f10610c2357610100808354040283529160200191610c4c565b820191905f5260205f20905b815481529060010190602001808311610c2f57829003601f168201915b505050505081565b5f60075f9054906101000a900473ffffffffffffffffffffffffffffffffffffffff1673ffffffffffffffffffffffffffffffffffffffff163373ffffffffffffffffffffffffffffffffffffffff1614610ce4576040517f08c379a0000000000000000000000000000000000000000000000000000000008152600401610cdb90611768565b60405180910390fd5b610cee8383610f83565b6001905092915050565b5f8160055f3373ffffffffffffffffffffffffffffffffffffffff1673ffffffffffffffffffffffffffffffffffffffff1681526020019081526020015f205f8573ffffffffffffffffffffffffffffffffffffffff1673ffffffffffffffffffffffffffffffffffffffff1681526020019081526020015f20819055508273ffffffffffffffffffffffffffffffffffffffff163373ffffffffffffffffffffffffffffffffffffffff167f04cc75b0126b63154e5a7c3970f4f1f9a02be9821c750b768dce24f593fd3a0b84604051610dd391906112a0565b60405180910390a36001905092915050565b6005602052815f5260405f20602052805f5260405f205f91509150505481565b5f73ffffffffffffffffffffffffffffffffffffffff168273ffffffffffffffffffffffffffffffffffffffff1603610e73576040517f08c379a0000000000000000000000000000000000000000000000000000000008152600401610e6a906117d0565b60405180910390fd5b8060045f8573ffffffffffffffffffffffffffffffffffffffff1673ffffffffffffffffffffffffffffffffffffffff1681526020019081526020015f205f828254610ebf919061165d565b925050819055508060045f8473ffffffffffffffffffffffffffffffffffffffff1673ffffffffffffffffffffffffffffffffffffffff1681526020019081526020015f205f828254610f1291906117ee565b925050819055508173ffffffffffffffffffffffffffffffffffffffff168373ffffffffffffffffffffffffffffffffffffffff167f1b7e21e9fbba09c8b522cd0648f175bed32718c24534b40660a30d33fd38054283604051610f7691906112a0565b60405180910390a3505050565b5f73ffffffffffffffffffffffffffffffffffffffff168273ffffffffffffffffffffffffffffffffffffffff1603610ff1576040517f08c379a0000000000000000000000000000000000000000000000000000000008152600401610fe8906114e5565b60405180910390fd5b8060045f8473ffffffffffffffffffffffffffffffffffffffff1673ffffffffffffffffffffffffffffffffffffffff1681526020019081526020015f205f82825461103d91906117ee565b925050819055508060035f82825461105591906117ee565b925050819055508173ffffffffffffffffffffffffffffffffffffffff167f02f56d420a47aa66acae06942581999fd0a95994d4085347760a11db9dbd780c826040516110a291906112a0565b60405180910390a28173ffffffffffffffffffffffffffffffffffffffff165f73ffffffffffffffffffffffffffffffffffffffff167f1b7e21e9fbba09c8b522cd0648f175bed32718c24534b40660a30d33fd3805428360405161110791906112a0565b60405180910390a35050565b5f5ffd5b5f73ffffffffffffffffffffffffffffffffffffffff82169050919050565b5f61114082611117565b9050919050565b61115081611136565b811461115a575f5ffd5b50565b5f8135905061116b81611147565b92915050565b5f6020828403121561118657611185611113565b5b5f6111938482850161115d565b91505092915050565b6111a581611136565b82525050565b5f6020820190506111be5f83018461119c565b92915050565b5f60ff82169050919050565b6111d9816111c4565b82525050565b5f6020820190506111f25f8301846111d0565b92915050565b5f81519050919050565b5f82825260208201905092915050565b8281835e5f83830152505050565b5f601f19601f8301169050919050565b5f61123a826111f8565b6112448185611202565b9350611254818560208601611212565b61125d81611220565b840191505092915050565b5f6020820190508181035f8301526112808184611230565b905092915050565b5f819050919050565b61129a81611288565b82525050565b5f6020820190506112b35f830184611291565b92915050565b6112c281611288565b81146112cc575f5ffd5b50565b5f813590506112dd816112b9565b92915050565b5f5f604083850312156112f9576112f8611113565b5b5f6113068582860161115d565b9250506020611317858286016112cf565b9150509250929050565b5f8115159050919050565b61133581611321565b82525050565b5f60208201905061134e5f83018461132c565b92915050565b5f6020828403121561136957611368611113565b5b5f611376848285016112cf565b91505092915050565b5f5f5f6060848603121561139657611395611113565b5b5f6113a38682870161115d565b93505060206113b48682870161115d565b92505060406113c5868287016112cf565b9150509250925092565b5f5f604083850312156113e5576113e4611113565b5b5f6113f28582860161115d565b92505060206114038582860161115d565b9150509250929050565b7f536f6c6f20656c2070726f706965746172696f20707565646520656a656375745f8201527f6172206573746f00000000000000000000000000000000000000000000000000602082015250565b5f611467602783611202565b91506114728261140d565b604082019050919050565b5f6020820190508181035f8301526114948161145b565b9050919050565b7f446972656363696f6e206e6f2076616c696461000000000000000000000000005f82015250565b5f6114cf601383611202565b91506114da8261149b565b602082019050919050565b5f6020820190508181035f8301526114fc816114c3565b9050919050565b7f4e487b71000000000000000000000000000000000000000000000000000000005f52602260045260245ffd5b5f600282049050600182168061154757607f821691505b60208210810361155a57611559611503565b5b50919050565b7f53616c646f20696e737566696369656e746500000000000000000000000000005f82015250565b5f611594601283611202565b915061159f82611560565b602082019050919050565b5f6020820190508181035f8301526115c181611588565b9050919050565b7f53616c646f20696e737566696369656e74652070617261207175656d617200005f82015250565b5f6115fc601e83611202565b9150611607826115c8565b602082019050919050565b5f6020820190508181035f830152611629816115f0565b9050919050565b7f4e487b71000000000000000000000000000000000000000000000000000000005f52601160045260245ffd5b5f61166782611288565b915061167283611288565b925082820390508181111561168a57611689611630565b5b92915050565b7f4e6f206175746f72697a61646f000000000000000000000000000000000000005f82015250565b5f6116c4600d83611202565b91506116cf82611690565b602082019050919050565b5f6020820190508181035f8301526116f1816116b8565b9050919050565b7f536f6c6f20656c206d696e74657220707565646520656a6563757461722065735f8201527f746f000000000000000000000000000000000000000000000000000000000000602082015250565b5f611752602283611202565b915061175d826116f8565b604082019050919050565b5f6020820190508181035f83015261177f81611746565b9050919050565b7f446972656363696f6e2064657374696e6f206e6f2076616c69646100000000005f82015250565b5f6117ba601b83611202565b91506117c582611786565b602082019050919050565b5f6020820190508181035f8301526117e7816117ae565b9050919050565b5f6117f882611288565b915061180383611288565b925082820190508082111561181b5761181a611630565b5b9291505056fea26469706673582212205a05c4b222155ce8ab7c52d6bdc9bd9a632e73262ec22d91f32c7e85bf8e00d264736f6c634300081e0033",
					"opcodes": "PUSH1 0x80 PUSH1 0x40 MSTORE PUSH1 0x40 MLOAD DUP1 PUSH1 0x40 ADD PUSH1 0x40 MSTORE DUP1 PUSH1 0xD DUP2 MSTORE PUSH1 0x20 ADD PUSH32 0x4D6943726970746F536562617300000000000000000000000000000000000000 DUP2 MSTORE POP PUSH0 SWAP1 DUP2 PUSH2 0x47 SWAP2 SWAP1 PUSH2 0x559 JUMP JUMPDEST POP PUSH1 0x40 MLOAD DUP1 PUSH1 0x40 ADD PUSH1 0x40 MSTORE DUP1 PUSH1 0x3 DUP2 MSTORE PUSH1 0x20 ADD PUSH32 0x4D43530000000000000000000000000000000000000000000000000000000000 DUP2 MSTORE POP PUSH1 0x1 SWAP1 DUP2 PUSH2 0x8C SWAP2 SWAP1 PUSH2 0x559 JUMP JUMPDEST POP PUSH1 0x12 PUSH1 0x2 PUSH0 PUSH2 0x100 EXP DUP2 SLOAD DUP2 PUSH1 0xFF MUL NOT AND SWAP1 DUP4 PUSH1 0xFF AND MUL OR SWAP1 SSTORE POP CALLVALUE DUP1 ISZERO PUSH2 0xB3 JUMPI PUSH0 PUSH0 REVERT JUMPDEST POP PUSH1 0x40 MLOAD PUSH2 0x1FE5 CODESIZE SUB DUP1 PUSH2 0x1FE5 DUP4 CODECOPY DUP2 DUP2 ADD PUSH1 0x40 MSTORE DUP2 ADD SWAP1 PUSH2 0xD5 SWAP2 SWAP1 PUSH2 0x656 JUMP JUMPDEST CALLER PUSH1 0x6 PUSH0 PUSH2 0x100 EXP DUP2 SLOAD DUP2 PUSH20 0xFFFFFFFFFFFFFFFFFFFFFFFFFFFFFFFFFFFFFFFF MUL NOT AND SWAP1 DUP4 PUSH20 0xFFFFFFFFFFFFFFFFFFFFFFFFFFFFFFFFFFFFFFFF AND MUL OR SWAP1 SSTORE POP CALLER PUSH1 0x7 PUSH0 PUSH2 0x100 EXP DUP2 SLOAD DUP2 PUSH20 0xFFFFFFFFFFFFFFFFFFFFFFFFFFFFFFFFFFFFFFFF MUL NOT AND SWAP1 DUP4 PUSH20 0xFFFFFFFFFFFFFFFFFFFFFFFFFFFFFFFFFFFFFFFF AND MUL OR SWAP1 SSTORE POP PUSH2 0x186 PUSH1 0x6 PUSH0 SWAP1 SLOAD SWAP1 PUSH2 0x100 EXP SWAP1 DIV PUSH20 0xFFFFFFFFFFFFFFFFFFFFFFFFFFFFFFFFFFFFFFFF AND DUP3 PUSH2 0x18C PUSH1 0x20 SHL PUSH1 0x20 SHR JUMP JUMPDEST POP PUSH2 0x781 JUMP JUMPDEST PUSH0 PUSH20 0xFFFFFFFFFFFFFFFFFFFFFFFFFFFFFFFFFFFFFFFF AND DUP3 PUSH20 0xFFFFFFFFFFFFFFFFFFFFFFFFFFFFFFFFFFFFFFFF AND SUB PUSH2 0x1FA JUMPI PUSH1 0x40 MLOAD PUSH32 0x8C379A000000000000000000000000000000000000000000000000000000000 DUP2 MSTORE PUSH1 0x4 ADD PUSH2 0x1F1 SWAP1 PUSH2 0x6DB JUMP JUMPDEST PUSH1 0x40 MLOAD DUP1 SWAP2 SUB SWAP1 REVERT JUMPDEST DUP1 PUSH1 0x4 PUSH0 DUP5 PUSH20 0xFFFFFFFFFFFFFFFFFFFFFFFFFFFFFFFFFFFFFFFF AND PUSH20 0xFFFFFFFFFFFFFFFFFFFFFFFFFFFFFFFFFFFFFFFF AND DUP2 MSTORE PUSH1 0x20 ADD SWAP1 DUP2 MSTORE PUSH1 0x20 ADD PUSH0 KECCAK256 PUSH0 DUP3 DUP3 SLOAD PUSH2 0x246 SWAP2 SWAP1 PUSH2 0x726 JUMP JUMPDEST SWAP3 POP POP DUP2 SWAP1 SSTORE POP DUP1 PUSH1 0x3 PUSH0 DUP3 DUP3 SLOAD PUSH2 0x25E SWAP2 SWAP1 PUSH2 0x726 JUMP JUMPDEST SWAP3 POP POP DUP2 SWAP1 SSTORE POP DUP2 PUSH20 0xFFFFFFFFFFFFFFFFFFFFFFFFFFFFFFFFFFFFFFFF AND PUSH32 0x2F56D420A47AA66ACAE06942581999FD0A95994D4085347760A11DB9DBD780C DUP3 PUSH1 0x40 MLOAD PUSH2 0x2AB SWAP2 SWAP1 PUSH2 0x768 JUMP JUMPDEST PUSH1 0x40 MLOAD DUP1 SWAP2 SUB SWAP1 LOG2 DUP2 PUSH20 0xFFFFFFFFFFFFFFFFFFFFFFFFFFFFFFFFFFFFFFFF AND PUSH0 PUSH20 0xFFFFFFFFFFFFFFFFFFFFFFFFFFFFFFFFFFFFFFFF AND PUSH32 0x1B7E21E9FBBA09C8B522CD0648F175BED32718C24534B40660A30D33FD380542 DUP4 PUSH1 0x40 MLOAD PUSH2 0x310 SWAP2 SWAP1 PUSH2 0x768 JUMP JUMPDEST PUSH1 0x40 MLOAD DUP1 SWAP2 SUB SWAP1 LOG3 POP POP JUMP JUMPDEST PUSH0 DUP2 MLOAD SWAP1 POP SWAP2 SWAP1 POP JUMP JUMPDEST PUSH32 0x4E487B7100000000000000000000000000000000000000000000000000000000 PUSH0 MSTORE PUSH1 0x41 PUSH1 0x4 MSTORE PUSH1 0x24 PUSH0 REVERT JUMPDEST PUSH32 0x4E487B7100000000000000000000000000000000000000000000000000000000 PUSH0 MSTORE PUSH1 0x22 PUSH1 0x4 MSTORE PUSH1 0x24 PUSH0 REVERT JUMPDEST PUSH0 PUSH1 0x2 DUP3 DIV SWAP1 POP PUSH1 0x1 DUP3 AND DUP1 PUSH2 0x397 JUMPI PUSH1 0x7F DUP3 AND SWAP2 POP JUMPDEST PUSH1 0x20 DUP3 LT DUP2 SUB PUSH2 0x3AA JUMPI PUSH2 0x3A9 PUSH2 0x353 JUMP JUMPDEST JUMPDEST POP SWAP2 SWAP1 POP JUMP JUMPDEST PUSH0 DUP2 SWAP1 POP DUP2 PUSH0 MSTORE PUSH1 0x20 PUSH0 KECCAK256 SWAP1 POP SWAP2 SWAP1 POP JUMP JUMPDEST PUSH0 PUSH1 0x20 PUSH1 0x1F DUP4 ADD DIV SWAP1 POP SWAP2 SWAP1 POP JUMP JUMPDEST PUSH0 DUP3 DUP3 SHL SWAP1 POP SWAP3 SWAP2 POP POP JUMP JUMPDEST PUSH0 PUSH1 0x8 DUP4 MUL PUSH2 0x40C PUSH32 0xFFFFFFFFFFFFFFFFFFFFFFFFFFFFFFFFFFFFFFFFFFFFFFFFFFFFFFFFFFFFFFFF DUP3 PUSH2 0x3D1 JUMP JUMPDEST PUSH2 0x416 DUP7 DUP4 PUSH2 0x3D1 JUMP JUMPDEST SWAP6 POP DUP1 NOT DUP5 AND SWAP4 POP DUP1 DUP7 AND DUP5 OR SWAP3 POP POP POP SWAP4 SWAP3 POP POP POP JUMP JUMPDEST PUSH0 DUP2 SWAP1 POP SWAP2 SWAP1 POP JUMP JUMPDEST PUSH0 DUP2 SWAP1 POP SWAP2 SWAP1 POP JUMP JUMPDEST PUSH0 PUSH2 0x45A PUSH2 0x455 PUSH2 0x450 DUP5 PUSH2 0x42E JUMP JUMPDEST PUSH2 0x437 JUMP JUMPDEST PUSH2 0x42E JUMP JUMPDEST SWAP1 POP SWAP2 SWAP1 POP JUMP JUMPDEST PUSH0 DUP2 SWAP1 POP SWAP2 SWAP1 POP JUMP JUMPDEST PUSH2 0x473 DUP4 PUSH2 0x440 JUMP JUMPDEST PUSH2 0x487 PUSH2 0x47F DUP3 PUSH2 0x461 JUMP JUMPDEST DUP5 DUP5 SLOAD PUSH2 0x3DD JUMP JUMPDEST DUP3 SSTORE POP POP POP POP JUMP JUMPDEST PUSH0 PUSH0 SWAP1 POP SWAP1 JUMP JUMPDEST PUSH2 0x49E PUSH2 0x48F JUMP JUMPDEST PUSH2 0x4A9 DUP2 DUP5 DUP5 PUSH2 0x46A JUMP JUMPDEST POP POP POP JUMP JUMPDEST JUMPDEST DUP2 DUP2 LT ISZERO PUSH2 0x4CC JUMPI PUSH2 0x4C1 PUSH0 DUP3 PUSH2 0x496 JUMP JUMPDEST PUSH1 0x1 DUP2 ADD SWAP1 POP PUSH2 0x4AF JUMP JUMPDEST POP POP JUMP JUMPDEST PUSH1 0x1F DUP3 GT ISZERO PUSH2 0x511 JUMPI PUSH2 0x4E2 DUP2 PUSH2 0x3B0 JUMP JUMPDEST PUSH2 0x4EB DUP5 PUSH2 0x3C2 JUMP JUMPDEST DUP2 ADD PUSH1 0x20 DUP6 LT ISZERO PUSH2 0x4FA JUMPI DUP2 SWAP1 POP JUMPDEST PUSH2 0x50E PUSH2 0x506 DUP6 PUSH2 0x3C2 JUMP JUMPDEST DUP4 ADD DUP3 PUSH2 0x4AE JUMP JUMPDEST POP POP JUMPDEST POP POP POP JUMP JUMPDEST PUSH0 DUP3 DUP3 SHR SWAP1 POP SWAP3 SWAP2 POP POP JUMP JUMPDEST PUSH0 PUSH2 0x531 PUSH0 NOT DUP5 PUSH1 0x8 MUL PUSH2 0x516 JUMP JUMPDEST NOT DUP1 DUP4 AND SWAP2 POP POP SWAP3 SWAP2 POP POP JUMP JUMPDEST PUSH0 PUSH2 0x549 DUP4 DUP4 PUSH2 0x522 JUMP JUMPDEST SWAP2 POP DUP3 PUSH1 0x2 MUL DUP3 OR SWAP1 POP SWAP3 SWAP2 POP POP JUMP JUMPDEST PUSH2 0x562 DUP3 PUSH2 0x31C JUMP JUMPDEST PUSH8 0xFFFFFFFFFFFFFFFF DUP2 GT ISZERO PUSH2 0x57B JUMPI PUSH2 0x57A PUSH2 0x326 JUMP JUMPDEST JUMPDEST PUSH2 0x585 DUP3 SLOAD PUSH2 0x380 JUMP JUMPDEST PUSH2 0x590 DUP3 DUP3 DUP6 PUSH2 0x4D0 JUMP JUMPDEST PUSH0 PUSH1 0x20 SWAP1 POP PUSH1 0x1F DUP4 GT PUSH1 0x1 DUP2 EQ PUSH2 0x5C1 JUMPI PUSH0 DUP5 ISZERO PUSH2 0x5AF JUMPI DUP3 DUP8 ADD MLOAD SWAP1 POP JUMPDEST PUSH2 0x5B9 DUP6 DUP3 PUSH2 0x53E JUMP JUMPDEST DUP7 SSTORE POP PUSH2 0x620 JUMP JUMPDEST PUSH1 0x1F NOT DUP5 AND PUSH2 0x5CF DUP7 PUSH2 0x3B0 JUMP JUMPDEST PUSH0 JUMPDEST DUP3 DUP2 LT ISZERO PUSH2 0x5F6 JUMPI DUP5 DUP10 ADD MLOAD DUP3 SSTORE PUSH1 0x1 DUP3 ADD SWAP2 POP PUSH1 0x20 DUP6 ADD SWAP5 POP PUSH1 0x20 DUP2 ADD SWAP1 POP PUSH2 0x5D1 JUMP JUMPDEST DUP7 DUP4 LT ISZERO PUSH2 0x613 JUMPI DUP5 DUP10 ADD MLOAD PUSH2 0x60F PUSH1 0x1F DUP10 AND DUP3 PUSH2 0x522 JUMP JUMPDEST DUP4 SSTORE POP JUMPDEST PUSH1 0x1 PUSH1 0x2 DUP9 MUL ADD DUP9 SSTORE POP POP POP JUMPDEST POP POP POP POP POP POP JUMP JUMPDEST PUSH0 PUSH0 REVERT JUMPDEST PUSH2 0x635 DUP2 PUSH2 0x42E JUMP JUMPDEST DUP2 EQ PUSH2 0x63F JUMPI PUSH0 PUSH0 REVERT JUMPDEST POP JUMP JUMPDEST PUSH0 DUP2 MLOAD SWAP1 POP PUSH2 0x650 DUP2 PUSH2 0x62C JUMP JUMPDEST SWAP3 SWAP2 POP POP JUMP JUMPDEST PUSH0 PUSH1 0x20 DUP3 DUP5 SUB SLT ISZERO PUSH2 0x66B JUMPI PUSH2 0x66A PUSH2 0x628 JUMP JUMPDEST JUMPDEST PUSH0 PUSH2 0x678 DUP5 DUP3 DUP6 ADD PUSH2 0x642 JUMP JUMPDEST SWAP2 POP POP SWAP3 SWAP2 POP POP JUMP JUMPDEST PUSH0 DUP3 DUP3 MSTORE PUSH1 0x20 DUP3 ADD SWAP1 POP SWAP3 SWAP2 POP POP JUMP JUMPDEST PUSH32 0x446972656363696F6E206E6F2076616C69646100000000000000000000000000 PUSH0 DUP3 ADD MSTORE POP JUMP JUMPDEST PUSH0 PUSH2 0x6C5 PUSH1 0x13 DUP4 PUSH2 0x681 JUMP JUMPDEST SWAP2 POP PUSH2 0x6D0 DUP3 PUSH2 0x691 JUMP JUMPDEST PUSH1 0x20 DUP3 ADD SWAP1 POP SWAP2 SWAP1 POP JUMP JUMPDEST PUSH0 PUSH1 0x20 DUP3 ADD SWAP1 POP DUP2 DUP2 SUB PUSH0 DUP4 ADD MSTORE PUSH2 0x6F2 DUP2 PUSH2 0x6B9 JUMP JUMPDEST SWAP1 POP SWAP2 SWAP1 POP JUMP JUMPDEST PUSH32 0x4E487B7100000000000000000000000000000000000000000000000000000000 PUSH0 MSTORE PUSH1 0x11 PUSH1 0x4 MSTORE PUSH1 0x24 PUSH0 REVERT JUMPDEST PUSH0 PUSH2 0x730 DUP3 PUSH2 0x42E JUMP JUMPDEST SWAP2 POP PUSH2 0x73B DUP4 PUSH2 0x42E JUMP JUMPDEST SWAP3 POP DUP3 DUP3 ADD SWAP1 POP DUP1 DUP3 GT ISZERO PUSH2 0x753 JUMPI PUSH2 0x752 PUSH2 0x6F9 JUMP JUMPDEST JUMPDEST SWAP3 SWAP2 POP POP JUMP JUMPDEST PUSH2 0x762 DUP2 PUSH2 0x42E JUMP JUMPDEST DUP3 MSTORE POP POP JUMP JUMPDEST PUSH0 PUSH1 0x20 DUP3 ADD SWAP1 POP PUSH2 0x77B PUSH0 DUP4 ADD DUP5 PUSH2 0x759 JUMP JUMPDEST SWAP3 SWAP2 POP POP JUMP JUMPDEST PUSH2 0x1857 DUP1 PUSH2 0x78E PUSH0 CODECOPY PUSH0 RETURN INVALID PUSH1 0x80 PUSH1 0x40 MSTORE CALLVALUE DUP1 ISZERO PUSH2 0xF JUMPI PUSH0 PUSH0 REVERT JUMPDEST POP PUSH1 0x4 CALLDATASIZE LT PUSH2 0xF2 JUMPI PUSH0 CALLDATALOAD PUSH1 0xE0 SHR DUP1 PUSH4 0x40847D2D GT PUSH2 0x95 JUMPI DUP1 PUSH4 0xBC7B35B2 GT PUSH2 0x64 JUMPI DUP1 PUSH4 0xBC7B35B2 EQ PUSH2 0x284 JUMPI DUP1 PUSH4 0xBDDA4240 EQ PUSH2 0x2A2 JUMPI DUP1 PUSH4 0xC7A72961 EQ PUSH2 0x2D2 JUMPI DUP1 PUSH4 0xC7B50EA9 EQ PUSH2 0x302 JUMPI PUSH2 0xF2 JUMP JUMPDEST DUP1 PUSH4 0x40847D2D EQ PUSH2 0x1C4 JUMPI DUP1 PUSH4 0x422FB525 EQ PUSH2 0x1F4 JUMPI DUP1 PUSH4 0x9480B87C EQ PUSH2 0x224 JUMPI DUP1 PUSH4 0xA9FE6C98 EQ PUSH2 0x254 JUMPI PUSH2 0xF2 JUMP JUMPDEST DUP1 PUSH4 0xDE82BAE GT PUSH2 0xD1 JUMPI DUP1 PUSH4 0xDE82BAE EQ PUSH2 0x14E JUMPI DUP1 PUSH4 0xF9CCFAF EQ PUSH2 0x16C JUMPI DUP1 PUSH4 0x3C4F81CD EQ PUSH2 0x18A JUMPI DUP1 PUSH4 0x3D3C3691 EQ PUSH2 0x1A8 JUMPI PUSH2 0xF2 JUMP JUMPDEST DUP1 PUSH3 0x9A458A EQ PUSH2 0xF6 JUMPI DUP1 PUSH4 0x7546172 EQ PUSH2 0x112 JUMPI DUP1 PUSH4 0xD86473A EQ PUSH2 0x130 JUMPI JUMPDEST PUSH0 PUSH0 REVERT JUMPDEST PUSH2 0x110 PUSH1 0x4 DUP1 CALLDATASIZE SUB DUP2 ADD SWAP1 PUSH2 0x10B SWAP2 SWAP1 PUSH2 0x1171 JUMP JUMPDEST PUSH2 0x332 JUMP JUMPDEST STOP JUMPDEST PUSH2 0x11A PUSH2 0x4ED JUMP JUMPDEST PUSH1 0x40 MLOAD PUSH2 0x127 SWAP2 SWAP1 PUSH2 0x11AB JUMP JUMPDEST PUSH1 0x40 MLOAD DUP1 SWAP2 SUB SWAP1 RETURN JUMPDEST PUSH2 0x138 PUSH2 0x512 JUMP JUMPDEST PUSH1 0x40 MLOAD PUSH2 0x145 SWAP2 SWAP1 PUSH2 0x11DF JUMP JUMPDEST PUSH1 0x40 MLOAD DUP1 SWAP2 SUB SWAP1 RETURN JUMPDEST PUSH2 0x156 PUSH2 0x524 JUMP JUMPDEST PUSH1 0x40 MLOAD PUSH2 0x163 SWAP2 SWAP1 PUSH2 0x1268 JUMP JUMPDEST PUSH1 0x40 MLOAD DUP1 SWAP2 SUB SWAP1 RETURN JUMPDEST PUSH2 0x174 PUSH2 0x5B0 JUMP JUMPDEST PUSH1 0x40 MLOAD PUSH2 0x181 SWAP2 SWAP1 PUSH2 0x12A0 JUMP JUMPDEST PUSH1 0x40 MLOAD DUP1 SWAP2 SUB SWAP1 RETURN JUMPDEST PUSH2 0x192 PUSH2 0x5B6 JUMP JUMPDEST PUSH1 0x40 MLOAD PUSH2 0x19F SWAP2 SWAP1 PUSH2 0x11AB JUMP JUMPDEST PUSH1 0x40 MLOAD DUP1 SWAP2 SUB SWAP1 RETURN JUMPDEST PUSH2 0x1C2 PUSH1 0x4 DUP1 CALLDATASIZE SUB DUP2 ADD SWAP1 PUSH2 0x1BD SWAP2 SWAP1 PUSH2 0x1171 JUMP JUMPDEST PUSH2 0x5DB JUMP JUMPDEST STOP JUMPDEST PUSH2 0x1DE PUSH1 0x4 DUP1 CALLDATASIZE SUB DUP2 ADD SWAP1 PUSH2 0x1D9 SWAP2 SWAP1 PUSH2 0x12E3 JUMP JUMPDEST PUSH2 0x796 JUMP JUMPDEST PUSH1 0x40 MLOAD PUSH2 0x1EB SWAP2 SWAP1 PUSH2 0x133B JUMP JUMPDEST PUSH1 0x40 MLOAD DUP1 SWAP2 SUB SWAP1 RETURN JUMPDEST PUSH2 0x20E PUSH1 0x4 DUP1 CALLDATASIZE SUB DUP2 ADD SWAP1 PUSH2 0x209 SWAP2 SWAP1 PUSH2 0x1171 JUMP JUMPDEST PUSH2 0x82C JUMP JUMPDEST PUSH1 0x40 MLOAD PUSH2 0x21B SWAP2 SWAP1 PUSH2 0x12A0 JUMP JUMPDEST PUSH1 0x40 MLOAD DUP1 SWAP2 SUB SWAP1 RETURN JUMPDEST PUSH2 0x23E PUSH1 0x4 DUP1 CALLDATASIZE SUB DUP2 ADD SWAP1 PUSH2 0x239 SWAP2 SWAP1 PUSH2 0x1354 JUMP JUMPDEST PUSH2 0x841 JUMP JUMPDEST PUSH1 0x40 MLOAD PUSH2 0x24B SWAP2 SWAP1 PUSH2 0x133B JUMP JUMPDEST PUSH1 0x40 MLOAD DUP1 SWAP2 SUB SWAP1 RETURN JUMPDEST PUSH2 0x26E PUSH1 0x4 DUP1 CALLDATASIZE SUB DUP2 ADD SWAP1 PUSH2 0x269 SWAP2 SWAP1 PUSH2 0x137F JUMP JUMPDEST PUSH2 0x9E9 JUMP JUMPDEST PUSH1 0x40 MLOAD PUSH2 0x27B SWAP2 SWAP1 PUSH2 0x133B JUMP JUMPDEST PUSH1 0x40 MLOAD DUP1 SWAP2 SUB SWAP1 RETURN JUMPDEST PUSH2 0x28C PUSH2 0xBC9 JUMP JUMPDEST PUSH1 0x40 MLOAD PUSH2 0x299 SWAP2 SWAP1 PUSH2 0x1268 JUMP JUMPDEST PUSH1 0x40 MLOAD DUP1 SWAP2 SUB SWAP1 RETURN JUMPDEST PUSH2 0x2BC PUSH1 0x4 DUP1 CALLDATASIZE SUB DUP2 ADD SWAP1 PUSH2 0x2B7 SWAP2 SWAP1 PUSH2 0x12E3 JUMP JUMPDEST PUSH2 0xC54 JUMP JUMPDEST PUSH1 0x40 MLOAD PUSH2 0x2C9 SWAP2 SWAP1 PUSH2 0x133B JUMP JUMPDEST PUSH1 0x40 MLOAD DUP1 SWAP2 SUB SWAP1 RETURN JUMPDEST PUSH2 0x2EC PUSH1 0x4 DUP1 CALLDATASIZE SUB DUP2 ADD SWAP1 PUSH2 0x2E7 SWAP2 SWAP1 PUSH2 0x12E3 JUMP JUMPDEST PUSH2 0xCF8 JUMP JUMPDEST PUSH1 0x40 MLOAD PUSH2 0x2F9 SWAP2 SWAP1 PUSH2 0x133B JUMP JUMPDEST PUSH1 0x40 MLOAD DUP1 SWAP2 SUB SWAP1 RETURN JUMPDEST PUSH2 0x31C PUSH1 0x4 DUP1 CALLDATASIZE SUB DUP2 ADD SWAP1 PUSH2 0x317 SWAP2 SWAP1 PUSH2 0x13CF JUMP JUMPDEST PUSH2 0xDE5 JUMP JUMPDEST PUSH1 0x40 MLOAD PUSH2 0x329 SWAP2 SWAP1 PUSH2 0x12A0 JUMP JUMPDEST PUSH1 0x40 MLOAD DUP1 SWAP2 SUB SWAP1 RETURN JUMPDEST PUSH1 0x6 PUSH0 SWAP1 SLOAD SWAP1 PUSH2 0x100 EXP SWAP1 DIV PUSH20 0xFFFFFFFFFFFFFFFFFFFFFFFFFFFFFFFFFFFFFFFF AND PUSH20 0xFFFFFFFFFFFFFFFFFFFFFFFFFFFFFFFFFFFFFFFF AND CALLER PUSH20 0xFFFFFFFFFFFFFFFFFFFFFFFFFFFFFFFFFFFFFFFF AND EQ PUSH2 0x3C1 JUMPI PUSH1 0x40 MLOAD PUSH32 0x8C379A000000000000000000000000000000000000000000000000000000000 DUP2 MSTORE PUSH1 0x4 ADD PUSH2 0x3B8 SWAP1 PUSH2 0x147D JUMP JUMPDEST PUSH1 0x40 MLOAD DUP1 SWAP2 SUB SWAP1 REVERT JUMPDEST PUSH0 PUSH20 0xFFFFFFFFFFFFFFFFFFFFFFFFFFFFFFFFFFFFFFFF AND DUP2 PUSH20 0xFFFFFFFFFFFFFFFFFFFFFFFFFFFFFFFFFFFFFFFF AND SUB PUSH2 0x42F JUMPI PUSH1 0x40 MLOAD PUSH32 0x8C379A000000000000000000000000000000000000000000000000000000000 DUP2 MSTORE PUSH1 0x4 ADD PUSH2 0x426 SWAP1 PUSH2 0x14E5 JUMP JUMPDEST PUSH1 0x40 MLOAD DUP1 SWAP2 SUB SWAP1 REVERT JUMPDEST DUP1 PUSH20 0xFFFFFFFFFFFFFFFFFFFFFFFFFFFFFFFFFFFFFFFF AND PUSH1 0x6 PUSH0 SWAP1 SLOAD SWAP1 PUSH2 0x100 EXP SWAP1 DIV PUSH20 0xFFFFFFFFFFFFFFFFFFFFFFFFFFFFFFFFFFFFFFFF AND PUSH20 0xFFFFFFFFFFFFFFFFFFFFFFFFFFFFFFFFFFFFFFFF AND PUSH32 0xAA29A061372086FC994717F7509F526D7FD3ECC2309D0AE85D3B4C4F99CDC035 PUSH1 0x40 MLOAD PUSH1 0x40 MLOAD DUP1 SWAP2 SUB SWAP1 LOG3 DUP1 PUSH1 0x6 PUSH0 PUSH2 0x100 EXP DUP2 SLOAD DUP2 PUSH20 0xFFFFFFFFFFFFFFFFFFFFFFFFFFFFFFFFFFFFFFFF MUL NOT AND SWAP1 DUP4 PUSH20 0xFFFFFFFFFFFFFFFFFFFFFFFFFFFFFFFFFFFFFFFF AND MUL OR SWAP1 SSTORE POP POP JUMP JUMPDEST PUSH1 0x7 PUSH0 SWAP1 SLOAD SWAP1 PUSH2 0x100 EXP SWAP1 DIV PUSH20 0xFFFFFFFFFFFFFFFFFFFFFFFFFFFFFFFFFFFFFFFF AND DUP2 JUMP JUMPDEST PUSH1 0x2 PUSH0 SWAP1 SLOAD SWAP1 PUSH2 0x100 EXP SWAP1 DIV PUSH1 0xFF AND DUP2 JUMP JUMPDEST PUSH1 0x1 DUP1 SLOAD PUSH2 0x531 SWAP1 PUSH2 0x1530 JUMP JUMPDEST DUP1 PUSH1 0x1F ADD PUSH1 0x20 DUP1 SWAP2 DIV MUL PUSH1 0x20 ADD PUSH1 0x40 MLOAD SWAP1 DUP2 ADD PUSH1 0x40 MSTORE DUP1 SWAP3 SWAP2 SWAP1 DUP2 DUP2 MSTORE PUSH1 0x20 ADD DUP3 DUP1 SLOAD PUSH2 0x55D SWAP1 PUSH2 0x1530 JUMP JUMPDEST DUP1 ISZERO PUSH2 0x5A8 JUMPI DUP1 PUSH1 0x1F LT PUSH2 0x57F JUMPI PUSH2 0x100 DUP1 DUP4 SLOAD DIV MUL DUP4 MSTORE SWAP2 PUSH1 0x20 ADD SWAP2 PUSH2 0x5A8 JUMP JUMPDEST DUP3 ADD SWAP2 SWAP1 PUSH0 MSTORE PUSH1 0x20 PUSH0 KECCAK256 SWAP1 JUMPDEST DUP2 SLOAD DUP2 MSTORE SWAP1 PUSH1 0x1 ADD SWAP1 PUSH1 0x20 ADD DUP1 DUP4 GT PUSH2 0x58B JUMPI DUP3 SWAP1 SUB PUSH1 0x1F AND DUP3 ADD SWAP2 JUMPDEST POP POP POP POP POP DUP2 JUMP JUMPDEST PUSH1 0x3 SLOAD DUP2 JUMP JUMPDEST PUSH1 0x6 PUSH0 SWAP1 SLOAD SWAP1 PUSH2 0x100 EXP SWAP1 DIV PUSH20 0xFFFFFFFFFFFFFFFFFFFFFFFFFFFFFFFFFFFFFFFF AND DUP2 JUMP JUMPDEST PUSH1 0x6 PUSH0 SWAP1 SLOAD SWAP1 PUSH2 0x100 EXP SWAP1 DIV PUSH20 0xFFFFFFFFFFFFFFFFFFFFFFFFFFFFFFFFFFFFFFFF AND PUSH20 0xFFFFFFFFFFFFFFFFFFFFFFFFFFFFFFFFFFFFFFFF AND CALLER PUSH20 0xFFFFFFFFFFFFFFFFFFFFFFFFFFFFFFFFFFFFFFFF AND EQ PUSH2 0x66A JUMPI PUSH1 0x40 MLOAD PUSH32 0x8C379A000000000000000000000000000000000000000000000000000000000 DUP2 MSTORE PUSH1 0x4 ADD PUSH2 0x661 SWAP1 PUSH2 0x147D JUMP JUMPDEST PUSH1 0x40 MLOAD DUP1 SWAP2 SUB SWAP1 REVERT JUMPDEST PUSH0 PUSH20 0xFFFFFFFFFFFFFFFFFFFFFFFFFFFFFFFFFFFFFFFF AND DUP2 PUSH20 0xFFFFFFFFFFFFFFFFFFFFFFFFFFFFFFFFFFFFFFFF AND SUB PUSH2 0x6D8 JUMPI PUSH1 0x40 MLOAD PUSH32 0x8C379A000000000000000000000000000000000000000000000000000000000 DUP2 MSTORE PUSH1 0x4 ADD PUSH2 0x6CF SWAP1 PUSH2 0x14E5 JUMP JUMPDEST PUSH1 0x40 MLOAD DUP1 SWAP2 SUB SWAP1 REVERT JUMPDEST DUP1 PUSH20 0xFFFFFFFFFFFFFFFFFFFFFFFFFFFFFFFFFFFFFFFF AND PUSH1 0x7 PUSH0 SWAP1 SLOAD SWAP1 PUSH2 0x100 EXP SWAP1 DIV PUSH20 0xFFFFFFFFFFFFFFFFFFFFFFFFFFFFFFFFFFFFFFFF AND PUSH20 0xFFFFFFFFFFFFFFFFFFFFFFFFFFFFFFFFFFFFFFFF AND PUSH32 0xE26D85BFBF0151C3D5EA7E7FBBA4014DFA78520E1DAEE3C421455DB2DC4554B9 PUSH1 0x40 MLOAD PUSH1 0x40 MLOAD DUP1 SWAP2 SUB SWAP1 LOG3 DUP1 PUSH1 0x7 PUSH0 PUSH2 0x100 EXP DUP2 SLOAD DUP2 PUSH20 0xFFFFFFFFFFFFFFFFFFFFFFFFFFFFFFFFFFFFFFFF MUL NOT AND SWAP1 DUP4 PUSH20 0xFFFFFFFFFFFFFFFFFFFFFFFFFFFFFFFFFFFFFFFF AND MUL OR SWAP1 SSTORE POP POP JUMP JUMPDEST PUSH0 DUP2 PUSH1 0x4 PUSH0 CALLER PUSH20 0xFFFFFFFFFFFFFFFFFFFFFFFFFFFFFFFFFFFFFFFF AND PUSH20 0xFFFFFFFFFFFFFFFFFFFFFFFFFFFFFFFFFFFFFFFF AND DUP2 MSTORE PUSH1 0x20 ADD SWAP1 DUP2 MSTORE PUSH1 0x20 ADD PUSH0 KECCAK256 SLOAD LT ISZERO PUSH2 0x817 JUMPI PUSH1 0x40 MLOAD PUSH32 0x8C379A000000000000000000000000000000000000000000000000000000000 DUP2 MSTORE PUSH1 0x4 ADD PUSH2 0x80E SWAP1 PUSH2 0x15AA JUMP JUMPDEST PUSH1 0x40 MLOAD DUP1 SWAP2 SUB SWAP1 REVERT JUMPDEST PUSH2 0x822 CALLER DUP5 DUP5 PUSH2 0xE05 JUMP JUMPDEST PUSH1 0x1 SWAP1 POP SWAP3 SWAP2 POP POP JUMP JUMPDEST PUSH1 0x4 PUSH1 0x20 MSTORE DUP1 PUSH0 MSTORE PUSH1 0x40 PUSH0 KECCAK256 PUSH0 SWAP2 POP SWAP1 POP SLOAD DUP2 JUMP JUMPDEST PUSH0 DUP2 PUSH1 0x4 PUSH0 CALLER PUSH20 0xFFFFFFFFFFFFFFFFFFFFFFFFFFFFFFFFFFFFFFFF AND PUSH20 0xFFFFFFFFFFFFFFFFFFFFFFFFFFFFFFFFFFFFFFFF AND DUP2 MSTORE PUSH1 0x20 ADD SWAP1 DUP2 MSTORE PUSH1 0x20 ADD PUSH0 KECCAK256 SLOAD LT ISZERO PUSH2 0x8C2 JUMPI PUSH1 0x40 MLOAD PUSH32 0x8C379A000000000000000000000000000000000000000000000000000000000 DUP2 MSTORE PUSH1 0x4 ADD PUSH2 0x8B9 SWAP1 PUSH2 0x1612 JUMP JUMPDEST PUSH1 0x40 MLOAD DUP1 SWAP2 SUB SWAP1 REVERT JUMPDEST DUP2 PUSH1 0x4 PUSH0 CALLER PUSH20 0xFFFFFFFFFFFFFFFFFFFFFFFFFFFFFFFFFFFFFFFF AND PUSH20 0xFFFFFFFFFFFFFFFFFFFFFFFFFFFFFFFFFFFFFFFF AND DUP2 MSTORE PUSH1 0x20 ADD SWAP1 DUP2 MSTORE PUSH1 0x20 ADD PUSH0 KECCAK256 PUSH0 DUP3 DUP3 SLOAD PUSH2 0x90E SWAP2 SWAP1 PUSH2 0x165D JUMP JUMPDEST SWAP3 POP POP DUP2 SWAP1 SSTORE POP DUP2 PUSH1 0x3 PUSH0 DUP3 DUP3 SLOAD PUSH2 0x926 SWAP2 SWAP1 PUSH2 0x165D JUMP JUMPDEST SWAP3 POP POP DUP2 SWAP1 SSTORE POP CALLER PUSH20 0xFFFFFFFFFFFFFFFFFFFFFFFFFFFFFFFFFFFFFFFF AND PUSH32 0xD910456DC76F3C5163FF3326E6BCE79BB5F0B53176DCC1AA20C9083E98F4B2C1 DUP4 PUSH1 0x40 MLOAD PUSH2 0x973 SWAP2 SWAP1 PUSH2 0x12A0 JUMP JUMPDEST PUSH1 0x40 MLOAD DUP1 SWAP2 SUB SWAP1 LOG2 PUSH0 PUSH20 0xFFFFFFFFFFFFFFFFFFFFFFFFFFFFFFFFFFFFFFFF AND CALLER PUSH20 0xFFFFFFFFFFFFFFFFFFFFFFFFFFFFFFFFFFFFFFFF AND PUSH32 0x1B7E21E9FBBA09C8B522CD0648F175BED32718C24534B40660A30D33FD380542 DUP5 PUSH1 0x40 MLOAD PUSH2 0x9D8 SWAP2 SWAP1 PUSH2 0x12A0 JUMP JUMPDEST PUSH1 0x40 MLOAD DUP1 SWAP2 SUB SWAP1 LOG3 PUSH1 0x1 SWAP1 POP SWAP2 SWAP1 POP JUMP JUMPDEST PUSH0 DUP2 PUSH1 0x4 PUSH0 DUP7 PUSH20 0xFFFFFFFFFFFFFFFFFFFFFFFFFFFFFFFFFFFFFFFF AND PUSH20 0xFFFFFFFFFFFFFFFFFFFFFFFFFFFFFFFFFFFFFFFF AND DUP2 MSTORE PUSH1 0x20 ADD SWAP1 DUP2 MSTORE PUSH1 0x20 ADD PUSH0 KECCAK256 SLOAD LT ISZERO PUSH2 0xA6A JUMPI PUSH1 0x40 MLOAD PUSH32 0x8C379A000000000000000000000000000000000000000000000000000000000 DUP2 MSTORE PUSH1 0x4 ADD PUSH2 0xA61 SWAP1 PUSH2 0x15AA JUMP JUMPDEST PUSH1 0x40 MLOAD DUP1 SWAP2 SUB SWAP1 REVERT JUMPDEST DUP2 PUSH1 0x5 PUSH0 DUP7 PUSH20 0xFFFFFFFFFFFFFFFFFFFFFFFFFFFFFFFFFFFFFFFF AND PUSH20 0xFFFFFFFFFFFFFFFFFFFFFFFFFFFFFFFFFFFFFFFF AND DUP2 MSTORE PUSH1 0x20 ADD SWAP1 DUP2 MSTORE PUSH1 0x20 ADD PUSH0 KECCAK256 PUSH0 CALLER PUSH20 0xFFFFFFFFFFFFFFFFFFFFFFFFFFFFFFFFFFFFFFFF AND PUSH20 0xFFFFFFFFFFFFFFFFFFFFFFFFFFFFFFFFFFFFFFFF AND DUP2 MSTORE PUSH1 0x20 ADD SWAP1 DUP2 MSTORE PUSH1 0x20 ADD PUSH0 KECCAK256 SLOAD LT ISZERO PUSH2 0xB25 JUMPI PUSH1 0x40 MLOAD PUSH32 0x8C379A000000000000000000000000000000000000000000000000000000000 DUP2 MSTORE PUSH1 0x4 ADD PUSH2 0xB1C SWAP1 PUSH2 0x16DA JUMP JUMPDEST PUSH1 0x40 MLOAD DUP1 SWAP2 SUB SWAP1 REVERT JUMPDEST DUP2 PUSH1 0x5 PUSH0 DUP7 PUSH20 0xFFFFFFFFFFFFFFFFFFFFFFFFFFFFFFFFFFFFFFFF AND PUSH20 0xFFFFFFFFFFFFFFFFFFFFFFFFFFFFFFFFFFFFFFFF AND DUP2 MSTORE PUSH1 0x20 ADD SWAP1 DUP2 MSTORE PUSH1 0x20 ADD PUSH0 KECCAK256 PUSH0 CALLER PUSH20 0xFFFFFFFFFFFFFFFFFFFFFFFFFFFFFFFFFFFFFFFF AND PUSH20 0xFFFFFFFFFFFFFFFFFFFFFFFFFFFFFFFFFFFFFFFF AND DUP2 MSTORE PUSH1 0x20 ADD SWAP1 DUP2 MSTORE PUSH1 0x20 ADD PUSH0 KECCAK256 PUSH0 DUP3 DUP3 SLOAD PUSH2 0xBAC SWAP2 SWAP1 PUSH2 0x165D JUMP JUMPDEST SWAP3 POP POP DUP2 SWAP1 SSTORE POP PUSH2 0xBBE DUP5 DUP5 DUP5 PUSH2 0xE05 JUMP JUMPDEST PUSH1 0x1 SWAP1 POP SWAP4 SWAP3 POP POP POP JUMP JUMPDEST PUSH0 DUP1 SLOAD PUSH2 0xBD5 SWAP1 PUSH2 0x1530 JUMP JUMPDEST DUP1 PUSH1 0x1F ADD PUSH1 0x20 DUP1 SWAP2 DIV MUL PUSH1 0x20 ADD PUSH1 0x40 MLOAD SWAP1 DUP2 ADD PUSH1 0x40 MSTORE DUP1 SWAP3 SWAP2 SWAP1 DUP2 DUP2 MSTORE PUSH1 0x20 ADD DUP3 DUP1 SLOAD PUSH2 0xC01 SWAP1 PUSH2 0x1530 JUMP JUMPDEST DUP1 ISZERO PUSH2 0xC4C JUMPI DUP1 PUSH1 0x1F LT PUSH2 0xC23 JUMPI PUSH2 0x100 DUP1 DUP4 SLOAD DIV MUL DUP4 MSTORE SWAP2 PUSH1 0x20 ADD SWAP2 PUSH2 0xC4C JUMP JUMPDEST DUP3 ADD SWAP2 SWAP1 PUSH0 MSTORE PUSH1 0x20 PUSH0 KECCAK256 SWAP1 JUMPDEST DUP2 SLOAD DUP2 MSTORE SWAP1 PUSH1 0x1 ADD SWAP1 PUSH1 0x20 ADD DUP1 DUP4 GT PUSH2 0xC2F JUMPI DUP3 SWAP1 SUB PUSH1 0x1F AND DUP3 ADD SWAP2 JUMPDEST POP POP POP POP POP DUP2 JUMP JUMPDEST PUSH0 PUSH1 0x7 PUSH0 SWAP1 SLOAD SWAP1 PUSH2 0x100 EXP SWAP1 DIV PUSH20 0xFFFFFFFFFFFFFFFFFFFFFFFFFFFFFFFFFFFFFFFF AND PUSH20 0xFFFFFFFFFFFFFFFFFFFFFFFFFFFFFFFFFFFFFFFF AND CALLER PUSH20 0xFFFFFFFFFFFFFFFFFFFFFFFFFFFFFFFFFFFFFFFF AND EQ PUSH2 0xCE4 JUMPI PUSH1 0x40 MLOAD PUSH32 0x8C379A000000000000000000000000000000000000000000000000000000000 DUP2 MSTORE PUSH1 0x4 ADD PUSH2 0xCDB SWAP1 PUSH2 0x1768 JUMP JUMPDEST PUSH1 0x40 MLOAD DUP1 SWAP2 SUB SWAP1 REVERT JUMPDEST PUSH2 0xCEE DUP4 DUP4 PUSH2 0xF83 JUMP JUMPDEST PUSH1 0x1 SWAP1 POP SWAP3 SWAP2 POP POP JUMP JUMPDEST PUSH0 DUP2 PUSH1 0x5 PUSH0 CALLER PUSH20 0xFFFFFFFFFFFFFFFFFFFFFFFFFFFFFFFFFFFFFFFF AND PUSH20 0xFFFFFFFFFFFFFFFFFFFFFFFFFFFFFFFFFFFFFFFF AND DUP2 MSTORE PUSH1 0x20 ADD SWAP1 DUP2 MSTORE PUSH1 0x20 ADD PUSH0 KECCAK256 PUSH0 DUP6 PUSH20 0xFFFFFFFFFFFFFFFFFFFFFFFFFFFFFFFFFFFFFFFF AND PUSH20 0xFFFFFFFFFFFFFFFFFFFFFFFFFFFFFFFFFFFFFFFF AND DUP2 MSTORE PUSH1 0x20 ADD SWAP1 DUP2 MSTORE PUSH1 0x20 ADD PUSH0 KECCAK256 DUP2 SWAP1 SSTORE POP DUP3 PUSH20 0xFFFFFFFFFFFFFFFFFFFFFFFFFFFFFFFFFFFFFFFF AND CALLER PUSH20 0xFFFFFFFFFFFFFFFFFFFFFFFFFFFFFFFFFFFFFFFF AND PUSH32 0x4CC75B0126B63154E5A7C3970F4F1F9A02BE9821C750B768DCE24F593FD3A0B DUP5 PUSH1 0x40 MLOAD PUSH2 0xDD3 SWAP2 SWAP1 PUSH2 0x12A0 JUMP JUMPDEST PUSH1 0x40 MLOAD DUP1 SWAP2 SUB SWAP1 LOG3 PUSH1 0x1 SWAP1 POP SWAP3 SWAP2 POP POP JUMP JUMPDEST PUSH1 0x5 PUSH1 0x20 MSTORE DUP2 PUSH0 MSTORE PUSH1 0x40 PUSH0 KECCAK256 PUSH1 0x20 MSTORE DUP1 PUSH0 MSTORE PUSH1 0x40 PUSH0 KECCAK256 PUSH0 SWAP2 POP SWAP2 POP POP SLOAD DUP2 JUMP JUMPDEST PUSH0 PUSH20 0xFFFFFFFFFFFFFFFFFFFFFFFFFFFFFFFFFFFFFFFF AND DUP3 PUSH20 0xFFFFFFFFFFFFFFFFFFFFFFFFFFFFFFFFFFFFFFFF AND SUB PUSH2 0xE73 JUMPI PUSH1 0x40 MLOAD PUSH32 0x8C379A000000000000000000000000000000000000000000000000000000000 DUP2 MSTORE PUSH1 0x4 ADD PUSH2 0xE6A SWAP1 PUSH2 0x17D0 JUMP JUMPDEST PUSH1 0x40 MLOAD DUP1 SWAP2 SUB SWAP1 REVERT JUMPDEST DUP1 PUSH1 0x4 PUSH0 DUP6 PUSH20 0xFFFFFFFFFFFFFFFFFFFFFFFFFFFFFFFFFFFFFFFF AND PUSH20 0xFFFFFFFFFFFFFFFFFFFFFFFFFFFFFFFFFFFFFFFF AND DUP2 MSTORE PUSH1 0x20 ADD SWAP1 DUP2 MSTORE PUSH1 0x20 ADD PUSH0 KECCAK256 PUSH0 DUP3 DUP3 SLOAD PUSH2 0xEBF SWAP2 SWAP1 PUSH2 0x165D JUMP JUMPDEST SWAP3 POP POP DUP2 SWAP1 SSTORE POP DUP1 PUSH1 0x4 PUSH0 DUP5 PUSH20 0xFFFFFFFFFFFFFFFFFFFFFFFFFFFFFFFFFFFFFFFF AND PUSH20 0xFFFFFFFFFFFFFFFFFFFFFFFFFFFFFFFFFFFFFFFF AND DUP2 MSTORE PUSH1 0x20 ADD SWAP1 DUP2 MSTORE PUSH1 0x20 ADD PUSH0 KECCAK256 PUSH0 DUP3 DUP3 SLOAD PUSH2 0xF12 SWAP2 SWAP1 PUSH2 0x17EE JUMP JUMPDEST SWAP3 POP POP DUP2 SWAP1 SSTORE POP DUP2 PUSH20 0xFFFFFFFFFFFFFFFFFFFFFFFFFFFFFFFFFFFFFFFF AND DUP4 PUSH20 0xFFFFFFFFFFFFFFFFFFFFFFFFFFFFFFFFFFFFFFFF AND PUSH32 0x1B7E21E9FBBA09C8B522CD0648F175BED32718C24534B40660A30D33FD380542 DUP4 PUSH1 0x40 MLOAD PUSH2 0xF76 SWAP2 SWAP1 PUSH2 0x12A0 JUMP JUMPDEST PUSH1 0x40 MLOAD DUP1 SWAP2 SUB SWAP1 LOG3 POP POP POP JUMP JUMPDEST PUSH0 PUSH20 0xFFFFFFFFFFFFFFFFFFFFFFFFFFFFFFFFFFFFFFFF AND DUP3 PUSH20 0xFFFFFFFFFFFFFFFFFFFFFFFFFFFFFFFFFFFFFFFF AND SUB PUSH2 0xFF1 JUMPI PUSH1 0x40 MLOAD PUSH32 0x8C379A000000000000000000000000000000000000000000000000000000000 DUP2 MSTORE PUSH1 0x4 ADD PUSH2 0xFE8 SWAP1 PUSH2 0x14E5 JUMP JUMPDEST PUSH1 0x40 MLOAD DUP1 SWAP2 SUB SWAP1 REVERT JUMPDEST DUP1 PUSH1 0x4 PUSH0 DUP5 PUSH20 0xFFFFFFFFFFFFFFFFFFFFFFFFFFFFFFFFFFFFFFFF AND PUSH20 0xFFFFFFFFFFFFFFFFFFFFFFFFFFFFFFFFFFFFFFFF AND DUP2 MSTORE PUSH1 0x20 ADD SWAP1 DUP2 MSTORE PUSH1 0x20 ADD PUSH0 KECCAK256 PUSH0 DUP3 DUP3 SLOAD PUSH2 0x103D SWAP2 SWAP1 PUSH2 0x17EE JUMP JUMPDEST SWAP3 POP POP DUP2 SWAP1 SSTORE POP DUP1 PUSH1 0x3 PUSH0 DUP3 DUP3 SLOAD PUSH2 0x1055 SWAP2 SWAP1 PUSH2 0x17EE JUMP JUMPDEST SWAP3 POP POP DUP2 SWAP1 SSTORE POP DUP2 PUSH20 0xFFFFFFFFFFFFFFFFFFFFFFFFFFFFFFFFFFFFFFFF AND PUSH32 0x2F56D420A47AA66ACAE06942581999FD0A95994D4085347760A11DB9DBD780C DUP3 PUSH1 0x40 MLOAD PUSH2 0x10A2 SWAP2 SWAP1 PUSH2 0x12A0 JUMP JUMPDEST PUSH1 0x40 MLOAD DUP1 SWAP2 SUB SWAP1 LOG2 DUP2 PUSH20 0xFFFFFFFFFFFFFFFFFFFFFFFFFFFFFFFFFFFFFFFF AND PUSH0 PUSH20 0xFFFFFFFFFFFFFFFFFFFFFFFFFFFFFFFFFFFFFFFF AND PUSH32 0x1B7E21E9FBBA09C8B522CD0648F175BED32718C24534B40660A30D33FD380542 DUP4 PUSH1 0x40 MLOAD PUSH2 0x1107 SWAP2 SWAP1 PUSH2 0x12A0 JUMP JUMPDEST PUSH1 0x40 MLOAD DUP1 SWAP2 SUB SWAP1 LOG3 POP POP JUMP JUMPDEST PUSH0 PUSH0 REVERT JUMPDEST PUSH0 PUSH20 0xFFFFFFFFFFFFFFFFFFFFFFFFFFFFFFFFFFFFFFFF DUP3 AND SWAP1 POP SWAP2 SWAP1 POP JUMP JUMPDEST PUSH0 PUSH2 0x1140 DUP3 PUSH2 0x1117 JUMP JUMPDEST SWAP1 POP SWAP2 SWAP1 POP JUMP JUMPDEST PUSH2 0x1150 DUP2 PUSH2 0x1136 JUMP JUMPDEST DUP2 EQ PUSH2 0x115A JUMPI PUSH0 PUSH0 REVERT JUMPDEST POP JUMP JUMPDEST PUSH0 DUP2 CALLDATALOAD SWAP1 POP PUSH2 0x116B DUP2 PUSH2 0x1147 JUMP JUMPDEST SWAP3 SWAP2 POP POP JUMP JUMPDEST PUSH0 PUSH1 0x20 DUP3 DUP5 SUB SLT ISZERO PUSH2 0x1186 JUMPI PUSH2 0x1185 PUSH2 0x1113 JUMP JUMPDEST JUMPDEST PUSH0 PUSH2 0x1193 DUP5 DUP3 DUP6 ADD PUSH2 0x115D JUMP JUMPDEST SWAP2 POP POP SWAP3 SWAP2 POP POP JUMP JUMPDEST PUSH2 0x11A5 DUP2 PUSH2 0x1136 JUMP JUMPDEST DUP3 MSTORE POP POP JUMP JUMPDEST PUSH0 PUSH1 0x20 DUP3 ADD SWAP1 POP PUSH2 0x11BE PUSH0 DUP4 ADD DUP5 PUSH2 0x119C JUMP JUMPDEST SWAP3 SWAP2 POP POP JUMP JUMPDEST PUSH0 PUSH1 0xFF DUP3 AND SWAP1 POP SWAP2 SWAP1 POP JUMP JUMPDEST PUSH2 0x11D9 DUP2 PUSH2 0x11C4 JUMP JUMPDEST DUP3 MSTORE POP POP JUMP JUMPDEST PUSH0 PUSH1 0x20 DUP3 ADD SWAP1 POP PUSH2 0x11F2 PUSH0 DUP4 ADD DUP5 PUSH2 0x11D0 JUMP JUMPDEST SWAP3 SWAP2 POP POP JUMP JUMPDEST PUSH0 DUP2 MLOAD SWAP1 POP SWAP2 SWAP1 POP JUMP JUMPDEST PUSH0 DUP3 DUP3 MSTORE PUSH1 0x20 DUP3 ADD SWAP1 POP SWAP3 SWAP2 POP POP JUMP JUMPDEST DUP3 DUP2 DUP4 MCOPY PUSH0 DUP4 DUP4 ADD MSTORE POP POP POP JUMP JUMPDEST PUSH0 PUSH1 0x1F NOT PUSH1 0x1F DUP4 ADD AND SWAP1 POP SWAP2 SWAP1 POP JUMP JUMPDEST PUSH0 PUSH2 0x123A DUP3 PUSH2 0x11F8 JUMP JUMPDEST PUSH2 0x1244 DUP2 DUP6 PUSH2 0x1202 JUMP JUMPDEST SWAP4 POP PUSH2 0x1254 DUP2 DUP6 PUSH1 0x20 DUP7 ADD PUSH2 0x1212 JUMP JUMPDEST PUSH2 0x125D DUP2 PUSH2 0x1220 JUMP JUMPDEST DUP5 ADD SWAP2 POP POP SWAP3 SWAP2 POP POP JUMP JUMPDEST PUSH0 PUSH1 0x20 DUP3 ADD SWAP1 POP DUP2 DUP2 SUB PUSH0 DUP4 ADD MSTORE PUSH2 0x1280 DUP2 DUP5 PUSH2 0x1230 JUMP JUMPDEST SWAP1 POP SWAP3 SWAP2 POP POP JUMP JUMPDEST PUSH0 DUP2 SWAP1 POP SWAP2 SWAP1 POP JUMP JUMPDEST PUSH2 0x129A DUP2 PUSH2 0x1288 JUMP JUMPDEST DUP3 MSTORE POP POP JUMP JUMPDEST PUSH0 PUSH1 0x20 DUP3 ADD SWAP1 POP PUSH2 0x12B3 PUSH0 DUP4 ADD DUP5 PUSH2 0x1291 JUMP JUMPDEST SWAP3 SWAP2 POP POP JUMP JUMPDEST PUSH2 0x12C2 DUP2 PUSH2 0x1288 JUMP JUMPDEST DUP2 EQ PUSH2 0x12CC JUMPI PUSH0 PUSH0 REVERT JUMPDEST POP JUMP JUMPDEST PUSH0 DUP2 CALLDATALOAD SWAP1 POP PUSH2 0x12DD DUP2 PUSH2 0x12B9 JUMP JUMPDEST SWAP3 SWAP2 POP POP JUMP JUMPDEST PUSH0 PUSH0 PUSH1 0x40 DUP4 DUP6 SUB SLT ISZERO PUSH2 0x12F9 JUMPI PUSH2 0x12F8 PUSH2 0x1113 JUMP JUMPDEST JUMPDEST PUSH0 PUSH2 0x1306 DUP6 DUP3 DUP7 ADD PUSH2 0x115D JUMP JUMPDEST SWAP3 POP POP PUSH1 0x20 PUSH2 0x1317 DUP6 DUP3 DUP7 ADD PUSH2 0x12CF JUMP JUMPDEST SWAP2 POP POP SWAP3 POP SWAP3 SWAP1 POP JUMP JUMPDEST PUSH0 DUP2 ISZERO ISZERO SWAP1 POP SWAP2 SWAP1 POP JUMP JUMPDEST PUSH2 0x1335 DUP2 PUSH2 0x1321 JUMP JUMPDEST DUP3 MSTORE POP POP JUMP JUMPDEST PUSH0 PUSH1 0x20 DUP3 ADD SWAP1 POP PUSH2 0x134E PUSH0 DUP4 ADD DUP5 PUSH2 0x132C JUMP JUMPDEST SWAP3 SWAP2 POP POP JUMP JUMPDEST PUSH0 PUSH1 0x20 DUP3 DUP5 SUB SLT ISZERO PUSH2 0x1369 JUMPI PUSH2 0x1368 PUSH2 0x1113 JUMP JUMPDEST JUMPDEST PUSH0 PUSH2 0x1376 DUP5 DUP3 DUP6 ADD PUSH2 0x12CF JUMP JUMPDEST SWAP2 POP POP SWAP3 SWAP2 POP POP JUMP JUMPDEST PUSH0 PUSH0 PUSH0 PUSH1 0x60 DUP5 DUP7 SUB SLT ISZERO PUSH2 0x1396 JUMPI PUSH2 0x1395 PUSH2 0x1113 JUMP JUMPDEST JUMPDEST PUSH0 PUSH2 0x13A3 DUP7 DUP3 DUP8 ADD PUSH2 0x115D JUMP JUMPDEST SWAP4 POP POP PUSH1 0x20 PUSH2 0x13B4 DUP7 DUP3 DUP8 ADD PUSH2 0x115D JUMP JUMPDEST SWAP3 POP POP PUSH1 0x40 PUSH2 0x13C5 DUP7 DUP3 DUP8 ADD PUSH2 0x12CF JUMP JUMPDEST SWAP2 POP POP SWAP3 POP SWAP3 POP SWAP3 JUMP JUMPDEST PUSH0 PUSH0 PUSH1 0x40 DUP4 DUP6 SUB SLT ISZERO PUSH2 0x13E5 JUMPI PUSH2 0x13E4 PUSH2 0x1113 JUMP JUMPDEST JUMPDEST PUSH0 PUSH2 0x13F2 DUP6 DUP3 DUP7 ADD PUSH2 0x115D JUMP JUMPDEST SWAP3 POP POP PUSH1 0x20 PUSH2 0x1403 DUP6 DUP3 DUP7 ADD PUSH2 0x115D JUMP JUMPDEST SWAP2 POP POP SWAP3 POP SWAP3 SWAP1 POP JUMP JUMPDEST PUSH32 0x536F6C6F20656C2070726F706965746172696F20707565646520656A65637574 PUSH0 DUP3 ADD MSTORE PUSH32 0x6172206573746F00000000000000000000000000000000000000000000000000 PUSH1 0x20 DUP3 ADD MSTORE POP JUMP JUMPDEST PUSH0 PUSH2 0x1467 PUSH1 0x27 DUP4 PUSH2 0x1202 JUMP JUMPDEST SWAP2 POP PUSH2 0x1472 DUP3 PUSH2 0x140D JUMP JUMPDEST PUSH1 0x40 DUP3 ADD SWAP1 POP SWAP2 SWAP1 POP JUMP JUMPDEST PUSH0 PUSH1 0x20 DUP3 ADD SWAP1 POP DUP2 DUP2 SUB PUSH0 DUP4 ADD MSTORE PUSH2 0x1494 DUP2 PUSH2 0x145B JUMP JUMPDEST SWAP1 POP SWAP2 SWAP1 POP JUMP JUMPDEST PUSH32 0x446972656363696F6E206E6F2076616C69646100000000000000000000000000 PUSH0 DUP3 ADD MSTORE POP JUMP JUMPDEST PUSH0 PUSH2 0x14CF PUSH1 0x13 DUP4 PUSH2 0x1202 JUMP JUMPDEST SWAP2 POP PUSH2 0x14DA DUP3 PUSH2 0x149B JUMP JUMPDEST PUSH1 0x20 DUP3 ADD SWAP1 POP SWAP2 SWAP1 POP JUMP JUMPDEST PUSH0 PUSH1 0x20 DUP3 ADD SWAP1 POP DUP2 DUP2 SUB PUSH0 DUP4 ADD MSTORE PUSH2 0x14FC DUP2 PUSH2 0x14C3 JUMP JUMPDEST SWAP1 POP SWAP2 SWAP1 POP JUMP JUMPDEST PUSH32 0x4E487B7100000000000000000000000000000000000000000000000000000000 PUSH0 MSTORE PUSH1 0x22 PUSH1 0x4 MSTORE PUSH1 0x24 PUSH0 REVERT JUMPDEST PUSH0 PUSH1 0x2 DUP3 DIV SWAP1 POP PUSH1 0x1 DUP3 AND DUP1 PUSH2 0x1547 JUMPI PUSH1 0x7F DUP3 AND SWAP2 POP JUMPDEST PUSH1 0x20 DUP3 LT DUP2 SUB PUSH2 0x155A JUMPI PUSH2 0x1559 PUSH2 0x1503 JUMP JUMPDEST JUMPDEST POP SWAP2 SWAP1 POP JUMP JUMPDEST PUSH32 0x53616C646F20696E737566696369656E74650000000000000000000000000000 PUSH0 DUP3 ADD MSTORE POP JUMP JUMPDEST PUSH0 PUSH2 0x1594 PUSH1 0x12 DUP4 PUSH2 0x1202 JUMP JUMPDEST SWAP2 POP PUSH2 0x159F DUP3 PUSH2 0x1560 JUMP JUMPDEST PUSH1 0x20 DUP3 ADD SWAP1 POP SWAP2 SWAP1 POP JUMP JUMPDEST PUSH0 PUSH1 0x20 DUP3 ADD SWAP1 POP DUP2 DUP2 SUB PUSH0 DUP4 ADD MSTORE PUSH2 0x15C1 DUP2 PUSH2 0x1588 JUMP JUMPDEST SWAP1 POP SWAP2 SWAP1 POP JUMP JUMPDEST PUSH32 0x53616C646F20696E737566696369656E74652070617261207175656D61720000 PUSH0 DUP3 ADD MSTORE POP JUMP JUMPDEST PUSH0 PUSH2 0x15FC PUSH1 0x1E DUP4 PUSH2 0x1202 JUMP JUMPDEST SWAP2 POP PUSH2 0x1607 DUP3 PUSH2 0x15C8 JUMP JUMPDEST PUSH1 0x20 DUP3 ADD SWAP1 POP SWAP2 SWAP1 POP JUMP JUMPDEST PUSH0 PUSH1 0x20 DUP3 ADD SWAP1 POP DUP2 DUP2 SUB PUSH0 DUP4 ADD MSTORE PUSH2 0x1629 DUP2 PUSH2 0x15F0 JUMP JUMPDEST SWAP1 POP SWAP2 SWAP1 POP JUMP JUMPDEST PUSH32 0x4E487B7100000000000000000000000000000000000000000000000000000000 PUSH0 MSTORE PUSH1 0x11 PUSH1 0x4 MSTORE PUSH1 0x24 PUSH0 REVERT JUMPDEST PUSH0 PUSH2 0x1667 DUP3 PUSH2 0x1288 JUMP JUMPDEST SWAP2 POP PUSH2 0x1672 DUP4 PUSH2 0x1288 JUMP JUMPDEST SWAP3 POP DUP3 DUP3 SUB SWAP1 POP DUP2 DUP2 GT ISZERO PUSH2 0x168A JUMPI PUSH2 0x1689 PUSH2 0x1630 JUMP JUMPDEST JUMPDEST SWAP3 SWAP2 POP POP JUMP JUMPDEST PUSH32 0x4E6F206175746F72697A61646F00000000000000000000000000000000000000 PUSH0 DUP3 ADD MSTORE POP JUMP JUMPDEST PUSH0 PUSH2 0x16C4 PUSH1 0xD DUP4 PUSH2 0x1202 JUMP JUMPDEST SWAP2 POP PUSH2 0x16CF DUP3 PUSH2 0x1690 JUMP JUMPDEST PUSH1 0x20 DUP3 ADD SWAP1 POP SWAP2 SWAP1 POP JUMP JUMPDEST PUSH0 PUSH1 0x20 DUP3 ADD SWAP1 POP DUP2 DUP2 SUB PUSH0 DUP4 ADD MSTORE PUSH2 0x16F1 DUP2 PUSH2 0x16B8 JUMP JUMPDEST SWAP1 POP SWAP2 SWAP1 POP JUMP JUMPDEST PUSH32 0x536F6C6F20656C206D696E74657220707565646520656A656375746172206573 PUSH0 DUP3 ADD MSTORE PUSH32 0x746F000000000000000000000000000000000000000000000000000000000000 PUSH1 0x20 DUP3 ADD MSTORE POP JUMP JUMPDEST PUSH0 PUSH2 0x1752 PUSH1 0x22 DUP4 PUSH2 0x1202 JUMP JUMPDEST SWAP2 POP PUSH2 0x175D DUP3 PUSH2 0x16F8 JUMP JUMPDEST PUSH1 0x40 DUP3 ADD SWAP1 POP SWAP2 SWAP1 POP JUMP JUMPDEST PUSH0 PUSH1 0x20 DUP3 ADD SWAP1 POP DUP2 DUP2 SUB PUSH0 DUP4 ADD MSTORE PUSH2 0x177F DUP2 PUSH2 0x1746 JUMP JUMPDEST SWAP1 POP SWAP2 SWAP1 POP JUMP JUMPDEST PUSH32 0x446972656363696F6E2064657374696E6F206E6F2076616C6964610000000000 PUSH0 DUP3 ADD MSTORE POP JUMP JUMPDEST PUSH0 PUSH2 0x17BA PUSH1 0x1B DUP4 PUSH2 0x1202 JUMP JUMPDEST SWAP2 POP PUSH2 0x17C5 DUP3 PUSH2 0x1786 JUMP JUMPDEST PUSH1 0x20 DUP3 ADD SWAP1 POP SWAP2 SWAP1 POP JUMP JUMPDEST PUSH0 PUSH1 0x20 DUP3 ADD SWAP1 POP DUP2 DUP2 SUB PUSH0 DUP4 ADD MSTORE PUSH2 0x17E7 DUP2 PUSH2 0x17AE JUMP JUMPDEST SWAP1 POP SWAP2 SWAP1 POP JUMP JUMPDEST PUSH0 PUSH2 0x17F8 DUP3 PUSH2 0x1288 JUMP JUMPDEST SWAP2 POP PUSH2 0x1803 DUP4 PUSH2 0x1288 JUMP JUMPDEST SWAP3 POP DUP3 DUP3 ADD SWAP1 POP DUP1 DUP3 GT ISZERO PUSH2 0x181B JUMPI PUSH2 0x181A PUSH2 0x1630 JUMP JUMPDEST JUMPDEST SWAP3 SWAP2 POP POP JUMP INVALID LOG2 PUSH5 0x6970667358 0x22 SLT KECCAK256 GAS SDIV 0xC4 0xB2 0x22 ISZERO TLOAD 0xE8 0xAB PUSH29 0x52D6BDC9BD9A632E73262EC22D91F32C7E85BF8E00D264736F6C634300 ADDMOD 0x1E STOP CALLER "
				},
				"gasEstimates": {
					"creation": {
						"codeDepositCost": "1246200",
						"executionCost": "infinite",
						"totalCost": "infinite"
					},
					"external": {
						"aprobaciones(address,address)": "infinite",
						"aprobar(address,uint256)": "infinite",
						"cambiarMinter(address)": "30687",
						"decimales()": "2534",
						"mintear(address,uint256)": "infinite",
						"minter()": "2554",
						"nombre()": "infinite",
						"propietario()": "2575",
						"quemar(uint256)": "infinite",
						"saldo(address)": "2847",
						"simbolo()": "infinite",
						"suministroTotal()": "2470",
						"transferir(address,uint256)": "infinite",
						"transferirDesde(address,address,uint256)": "infinite",
						"transferirPropiedad(address)": "30622"
					},
					"internal": {
						"_mintear(address,uint256)": "infinite",
						"_transferir(address,address,uint256)": "infinite"
					}
				},
				"methodIdentifiers": {
					"aprobaciones(address,address)": "c7b50ea9",
					"aprobar(address,uint256)": "c7a72961",
					"cambiarMinter(address)": "3d3c3691",
					"decimales()": "0d86473a",
					"mintear(address,uint256)": "bdda4240",
					"minter()": "07546172",
					"nombre()": "bc7b35b2",
					"propietario()": "3c4f81cd",
					"quemar(uint256)": "9480b87c",
					"saldo(address)": "422fb525",
					"simbolo()": "0de82bae",
					"suministroTotal()": "0f9ccfaf",
					"transferir(address,uint256)": "40847d2d",
					"transferirDesde(address,address,uint256)": "a9fe6c98",
					"transferirPropiedad(address)": "009a458a"
				}
			},
			"storageLayout": {
				"storage": [
					{
						"astId": 5,
						"contract": "contracts/CriptoMoneda.sol:Criptomoneda",
						"label": "nombre",
						"offset": 0,
						"slot": "0",
						"type": "t_string_storage"
					},
					{
						"astId": 8,
						"contract": "contracts/CriptoMoneda.sol:Criptomoneda",
						"label": "simbolo",
						"offset": 0,
						"slot": "1",
						"type": "t_string_storage"
					},
					{
						"astId": 11,
						"contract": "contracts/CriptoMoneda.sol:Criptomoneda",
						"label": "decimales",
						"offset": 0,
						"slot": "2",
						"type": "t_uint8"
					},
					{
						"astId": 13,
						"contract": "contracts/CriptoMoneda.sol:Criptomoneda",
						"label": "suministroTotal",
						"offset": 0,
						"slot": "3",
						"type": "t_uint256"
					},
					{
						"astId": 17,
						"contract": "contracts/CriptoMoneda.sol:Criptomoneda",
						"label": "saldo",
						"offset": 0,
						"slot": "4",
						"type": "t_mapping(t_address,t_uint256)"
					},
					{
						"astId": 23,
						"contract": "contracts/CriptoMoneda.sol:Criptomoneda",
						"label": "aprobaciones",
						"offset": 0,
						"slot": "5",
						"type": "t_mapping(t_address,t_mapping(t_address,t_uint256))"
					},
					{
						"astId": 25,
						"contract": "contracts/CriptoMoneda.sol:Criptomoneda",
						"label": "propietario",
						"offset": 0,
						"slot": "6",
						"type": "t_address"
					},
					{
						"astId": 27,
						"contract": "contracts/CriptoMoneda.sol:Criptomoneda",
						"label": "minter",
						"offset": 0,
						"slot": "7",
						"type": "t_address"
					}
				],
				"types": {
					"t_address": {
						"encoding": "inplace",
						"label": "address",
						"numberOfBytes": "20"
					},
					"t_mapping(t_address,t_mapping(t_address,t_uint256))": {
						"encoding": "mapping",
						"key": "t_address",
						"label": "mapping(address => mapping(address => uint256))",
						"numberOfBytes": "32",
						"value": "t_mapping(t_address,t_uint256)"
					},
					"t_mapping(t_address,t_uint256)": {
						"encoding": "mapping",
						"key": "t_address",
						"label": "mapping(address => uint256)",
						"numberOfBytes": "32",
						"value": "t_uint256"
					},
					"t_string_storage": {
						"encoding": "bytes",
						"label": "string",
						"numberOfBytes": "32"
					},
					"t_uint256": {
						"encoding": "inplace",
						"label": "uint256",
						"numberOfBytes": "32"
					},
					"t_uint8": {
						"encoding": "inplace",
						"label": "uint8",
						"numberOfBytes": "1"
					}
				}
			},
			"userdoc": {
				"kind": "user",
				"methods": {},
				"version": 1
			}
		}
	}
}