{
	"contracts/Contrato.sol": {
		"StorageContract": {
			"abi": [
				{
					"anonymous": false,
					"inputs": [
						{
							"indexed": false,
							"internalType": "uint256",
							"name": "numeroEntero",
							"type": "uint256"
						},
						{
							"indexed": false,
							"internalType": "bool",
							"name": "booleano",
							"type": "bool"
						},
						{
							"indexed": false,
							"internalType": "uint256",
							"name": "numeroDecimalSimulado",
							"type": "uint256"
						},
						{
							"indexed": false,
							"internalType": "bytes1",
							"name": "caracter",
							"type": "bytes1"
						},
						{
							"indexed": false,
							"internalType": "string",
							"name": "texto",
							"type": "string"
						}
					],
					"name": "DatosGuardados",
					"type": "event"
				},
				{
					"inputs": [],
					"name": "booleano",
					"outputs": [
						{
							"internalType": "bool",
							"name": "",
							"type": "bool"
						}
					],
					"stateMutability": "view",
					"type": "function"
				},
				{
					"inputs": [],
					"name": "caracter",
					"outputs": [
						{
							"internalType": "bytes1",
							"name": "",
							"type": "bytes1"
						}
					],
					"stateMutability": "view",
					"type": "function"
				},
				{
					"inputs": [
						{
							"internalType": "uint256",
							"name": "_numeroEntero",
							"type": "uint256"
						},
						{
							"internalType": "bool",
							"name": "_booleano",
							"type": "bool"
						},
						{
							"internalType": "uint256",
							"name": "_numeroDecimalSimulado",
							"type": "uint256"
						},
						{
							"internalType": "bytes1",
							"name": "_caracter",
							"type": "bytes1"
						},
						{
							"internalType": "string",
							"name": "_texto",
							"type": "string"
						}
					],
					"name": "guardarDatos",
					"outputs": [],
					"stateMutability": "nonpayable",
					"type": "function"
				},
				{
					"inputs": [],
					"name": "numeroDecimalSimulado",
					"outputs": [
						{
							"internalType": "uint256",
							"name": "",
							"type": "uint256"
						}
					],
					"stateMutability": "view",
					"type": "function"
				},
				{
					"inputs": [],
					"name": "numeroEntero",
					"outputs": [
						{
							"internalType": "uint256",
							"name": "",
							"type": "uint256"
						}
					],
					"stateMutability": "view",
					"type": "function"
				},
				{
					"inputs": [],
					"name": "obtenerDatos",
					"outputs": [
						{
							"internalType": "uint256",
							"name": "",
							"type": "uint256"
						},
						{
							"internalType": "bool",
							"name": "",
							"type": "bool"
						},
						{
							"internalType": "uint256",
							"name": "",
							"type": "uint256"
						},
						{
							"internalType": "bytes1",
							"name": "",
							"type": "bytes1"
						},
						{
							"internalType": "string",
							"name": "",
							"type": "string"
						}
					],
					"stateMutability": "view",
					"type": "function"
				},
				{
					"inputs": [],
					"name": "texto",
					"outputs": [
						{
							"internalType": "string",
							"name": "",
							"type": "string"
						}
					],
					"stateMutability": "view",
					"type": "function"
				}
			],
			"devdoc": {
				"kind": "dev",
				"methods": {},
				"version": 1
			},
			"evm": {
				"assembly": "    /* \"contracts/Contrato.sol\":58:1448  contract StorageContract {... */\n  mstore(0x40, 0x80)\n  callvalue\n  dup1\n  iszero\n  tag_1\n  jumpi\n  revert(0x00, 0x00)\ntag_1:\n  pop\n  dataSize(sub_0)\n  dup1\n  dataOffset(sub_0)\n  0x00\n  codecopy\n  0x00\n  return\nstop\n\nsub_0: assembly {\n        /* \"contracts/Contrato.sol\":58:1448  contract StorageContract {... */\n      mstore(0x40, 0x80)\n      callvalue\n      dup1\n      iszero\n      tag_1\n      jumpi\n      revert(0x00, 0x00)\n    tag_1:\n      pop\n      jumpi(tag_2, lt(calldatasize, 0x04))\n      shr(0xe0, calldataload(0x00))\n      dup1\n      0x7bf4fdd0\n      gt\n      tag_10\n      jumpi\n      dup1\n      0x7bf4fdd0\n      eq\n      tag_6\n      jumpi\n      dup1\n      0x8fa952cc\n      eq\n      tag_7\n      jumpi\n      dup1\n      0xa69e1bd2\n      eq\n      tag_8\n      jumpi\n      dup1\n      0xc8d95007\n      eq\n      tag_9\n      jumpi\n      jump(tag_2)\n    tag_10:\n      dup1\n      0x0a6cda6a\n      eq\n      tag_3\n      jumpi\n      dup1\n      0x0fa5b22e\n      eq\n      tag_4\n      jumpi\n      dup1\n      0x3fa337f4\n      eq\n      tag_5\n      jumpi\n    tag_2:\n      revert(0x00, 0x00)\n        /* \"contracts/Contrato.sol\":119:139  bool public booleano */\n    tag_3:\n      tag_11\n      tag_12\n      jump\t// in\n    tag_11:\n      mload(0x40)\n      tag_13\n      swap2\n      swap1\n      tag_14\n      jump\t// in\n    tag_13:\n      mload(0x40)\n      dup1\n      swap2\n      sub\n      swap1\n      return\n        /* \"contracts/Contrato.sol\":268:287  string public texto */\n    tag_4:\n      tag_15\n      tag_16\n      jump\t// in\n    tag_15:\n      mload(0x40)\n      tag_17\n      swap2\n      swap1\n      tag_18\n      jump\t// in\n    tag_17:\n      mload(0x40)\n      dup1\n      swap2\n      sub\n      swap1\n      return\n        /* \"contracts/Contrato.sol\":550:1086  function guardarDatos(... */\n    tag_5:\n      tag_19\n      0x04\n      dup1\n      calldatasize\n      sub\n      dup2\n      add\n      swap1\n      tag_20\n      swap2\n      swap1\n      tag_21\n      jump\t// in\n    tag_20:\n      tag_22\n      jump\t// in\n    tag_19:\n      stop\n        /* \"contracts/Contrato.sol\":1174:1446  function obtenerDatos()... */\n    tag_6:\n      tag_23\n      tag_24\n      jump\t// in\n    tag_23:\n      mload(0x40)\n      tag_25\n      swap6\n      swap5\n      swap4\n      swap3\n      swap2\n      swap1\n      tag_26\n      jump\t// in\n    tag_25:\n      mload(0x40)\n      dup1\n      swap2\n      sub\n      swap1\n      return\n        /* \"contracts/Contrato.sol\":89:113  uint public numeroEntero */\n    tag_7:\n      tag_27\n      tag_28\n      jump\t// in\n    tag_27:\n      mload(0x40)\n      tag_29\n      swap2\n      swap1\n      tag_30\n      jump\t// in\n    tag_29:\n      mload(0x40)\n      dup1\n      swap2\n      sub\n      swap1\n      return\n        /* \"contracts/Contrato.sol\":145:178  uint public numeroDecimalSimulado */\n    tag_8:\n      tag_31\n      tag_32\n      jump\t// in\n    tag_31:\n      mload(0x40)\n      tag_33\n      swap2\n      swap1\n      tag_30\n      jump\t// in\n    tag_33:\n      mload(0x40)\n      dup1\n      swap2\n      sub\n      swap1\n      return\n        /* \"contracts/Contrato.sol\":240:262  bytes1 public caracter */\n    tag_9:\n      tag_34\n      tag_35\n      jump\t// in\n    tag_34:\n      mload(0x40)\n      tag_36\n      swap2\n      swap1\n      tag_37\n      jump\t// in\n    tag_36:\n      mload(0x40)\n      dup1\n      swap2\n      sub\n      swap1\n      return\n        /* \"contracts/Contrato.sol\":119:139  bool public booleano */\n    tag_12:\n      0x01\n      0x00\n      swap1\n      sload\n      swap1\n      0x0100\n      exp\n      swap1\n      div\n      0xff\n      and\n      dup2\n      jump\t// out\n        /* \"contracts/Contrato.sol\":268:287  string public texto */\n    tag_16:\n      0x04\n      dup1\n      sload\n      tag_38\n      swap1\n      tag_39\n      jump\t// in\n    tag_38:\n      dup1\n      0x1f\n      add\n      0x20\n      dup1\n      swap2\n      div\n      mul\n      0x20\n      add\n      mload(0x40)\n      swap1\n      dup2\n      add\n      0x40\n      mstore\n      dup1\n      swap3\n      swap2\n      swap1\n      dup2\n      dup2\n      mstore\n      0x20\n      add\n      dup3\n      dup1\n      sload\n      tag_40\n      swap1\n      tag_39\n      jump\t// in\n    tag_40:\n      dup1\n      iszero\n      tag_41\n      jumpi\n      dup1\n      0x1f\n      lt\n      tag_42\n      jumpi\n      0x0100\n      dup1\n      dup4\n      sload\n      div\n      mul\n      dup4\n      mstore\n      swap2\n      0x20\n      add\n      swap2\n      jump(tag_41)\n    tag_42:\n      dup3\n      add\n      swap2\n      swap1\n      0x00\n      mstore\n      keccak256(0x00, 0x20)\n      swap1\n    tag_43:\n      dup2\n      sload\n      dup2\n      mstore\n      swap1\n      0x01\n      add\n      swap1\n      0x20\n      add\n      dup1\n      dup4\n      gt\n      tag_43\n      jumpi\n      dup3\n      swap1\n      sub\n      0x1f\n      and\n      dup3\n      add\n      swap2\n    tag_41:\n      pop\n      pop\n      pop\n      pop\n      pop\n      dup2\n      jump\t// out\n        /* \"contracts/Contrato.sol\":550:1086  function guardarDatos(... */\n    tag_22:\n        /* \"contracts/Contrato.sol\":757:770  _numeroEntero */\n      dup6\n        /* \"contracts/Contrato.sol\":742:754  numeroEntero */\n      0x00\n        /* \"contracts/Contrato.sol\":742:770  numeroEntero = _numeroEntero */\n      dup2\n      swap1\n      sstore\n      pop\n        /* \"contracts/Contrato.sol\":791:800  _booleano */\n      dup5\n        /* \"contracts/Contrato.sol\":780:788  booleano */\n      0x01\n      0x00\n        /* \"contracts/Contrato.sol\":780:800  booleano = _booleano */\n      0x0100\n      exp\n      dup2\n      sload\n      dup2\n      0xff\n      mul\n      not\n      and\n      swap1\n      dup4\n      iszero\n      iszero\n      mul\n      or\n      swap1\n      sstore\n      pop\n        /* \"contracts/Contrato.sol\":834:856  _numeroDecimalSimulado */\n      dup4\n        /* \"contracts/Contrato.sol\":810:831  numeroDecimalSimulado */\n      0x02\n        /* \"contracts/Contrato.sol\":810:856  numeroDecimalSimulado = _numeroDecimalSimulado */\n      dup2\n      swap1\n      sstore\n      pop\n        /* \"contracts/Contrato.sol\":877:886  _caracter */\n      dup3\n        /* \"contracts/Contrato.sol\":866:874  caracter */\n      0x03\n      0x00\n        /* \"contracts/Contrato.sol\":866:886  caracter = _caracter */\n      0x0100\n      exp\n      dup2\n      sload\n      dup2\n      0xff\n      mul\n      not\n      and\n      swap1\n      dup4\n      0xf8\n      shr\n      mul\n      or\n      swap1\n      sstore\n      pop\n        /* \"contracts/Contrato.sol\":904:910  _texto */\n      dup2\n      dup2\n        /* \"contracts/Contrato.sol\":896:901  texto */\n      0x04\n        /* \"contracts/Contrato.sol\":896:910  texto = _texto */\n      swap2\n      dup3\n      tag_45\n      swap3\n      swap2\n      swap1\n      tag_46\n      jump\t// in\n    tag_45:\n      pop\n        /* \"contracts/Contrato.sol\":926:1079  DatosGuardados(... */\n      0x2e83361a0961e56f4bd6852895ffe1056619b4cf3d1d0a7ba4f987e24763ee5b\n        /* \"contracts/Contrato.sol\":954:967  _numeroEntero */\n      dup7\n        /* \"contracts/Contrato.sol\":981:990  _booleano */\n      dup7\n        /* \"contracts/Contrato.sol\":1004:1026  _numeroDecimalSimulado */\n      dup7\n        /* \"contracts/Contrato.sol\":1040:1049  _caracter */\n      dup7\n        /* \"contracts/Contrato.sol\":1063:1069  _texto */\n      dup7\n      dup7\n        /* \"contracts/Contrato.sol\":926:1079  DatosGuardados(... */\n      mload(0x40)\n      tag_47\n      swap7\n      swap6\n      swap5\n      swap4\n      swap3\n      swap2\n      swap1\n      tag_48\n      jump\t// in\n    tag_47:\n      mload(0x40)\n      dup1\n      swap2\n      sub\n      swap1\n      log1\n        /* \"contracts/Contrato.sol\":550:1086  function guardarDatos(... */\n      pop\n      pop\n      pop\n      pop\n      pop\n      pop\n      jump\t// out\n        /* \"contracts/Contrato.sol\":1174:1446  function obtenerDatos()... */\n    tag_24:\n        /* \"contracts/Contrato.sol\":1256:1260  uint */\n      0x00\n        /* \"contracts/Contrato.sol\":1274:1278  bool */\n      0x00\n        /* \"contracts/Contrato.sol\":1292:1296  uint */\n      0x00\n        /* \"contracts/Contrato.sol\":1310:1316  bytes1 */\n      0x00\n        /* \"contracts/Contrato.sol\":1330:1343  string memory */\n      0x60\n        /* \"contracts/Contrato.sol\":1376:1388  numeroEntero */\n      sload(0x00)\n        /* \"contracts/Contrato.sol\":1390:1398  booleano */\n      0x01\n      0x00\n      swap1\n      sload\n      swap1\n      0x0100\n      exp\n      swap1\n      div\n      0xff\n      and\n        /* \"contracts/Contrato.sol\":1400:1421  numeroDecimalSimulado */\n      sload(0x02)\n        /* \"contracts/Contrato.sol\":1423:1431  caracter */\n      0x03\n      0x00\n      swap1\n      sload\n      swap1\n      0x0100\n      exp\n      swap1\n      div\n      0xf8\n      shl\n        /* \"contracts/Contrato.sol\":1433:1438  texto */\n      0x04\n        /* \"contracts/Contrato.sol\":1368:1439  return (numeroEntero, booleano, numeroDecimalSimulado, caracter, texto) */\n      dup1\n      dup1\n      sload\n      tag_50\n      swap1\n      tag_39\n      jump\t// in\n    tag_50:\n      dup1\n      0x1f\n      add\n      0x20\n      dup1\n      swap2\n      div\n      mul\n      0x20\n      add\n      mload(0x40)\n      swap1\n      dup2\n      add\n      0x40\n      mstore\n      dup1\n      swap3\n      swap2\n      swap1\n      dup2\n      dup2\n      mstore\n      0x20\n      add\n      dup3\n      dup1\n      sload\n      tag_51\n      swap1\n      tag_39\n      jump\t// in\n    tag_51:\n      dup1\n      iszero\n      tag_52\n      jumpi\n      dup1\n      0x1f\n      lt\n      tag_53\n      jumpi\n      0x0100\n      dup1\n      dup4\n      sload\n      div\n      mul\n      dup4\n      mstore\n      swap2\n      0x20\n      add\n      swap2\n      jump(tag_52)\n    tag_53:\n      dup3\n      add\n      swap2\n      swap1\n      0x00\n      mstore\n      keccak256(0x00, 0x20)\n      swap1\n    tag_54:\n      dup2\n      sload\n      dup2\n      mstore\n      swap1\n      0x01\n      add\n      swap1\n      0x20\n      add\n      dup1\n      dup4\n      gt\n      tag_54\n      jumpi\n      dup3\n      swap1\n      sub\n      0x1f\n      and\n      dup3\n      add\n      swap2\n    tag_52:\n      pop\n      pop\n      pop\n      pop\n      pop\n      swap1\n      pop\n      swap5\n      pop\n      swap5\n      pop\n      swap5\n      pop\n      swap5\n      pop\n      swap5\n      pop\n        /* \"contracts/Contrato.sol\":1174:1446  function obtenerDatos()... */\n      swap1\n      swap2\n      swap3\n      swap4\n      swap5\n      jump\t// out\n        /* \"contracts/Contrato.sol\":89:113  uint public numeroEntero */\n    tag_28:\n      sload(0x00)\n      dup2\n      jump\t// out\n        /* \"contracts/Contrato.sol\":145:178  uint public numeroDecimalSimulado */\n    tag_32:\n      sload(0x02)\n      dup2\n      jump\t// out\n        /* \"contracts/Contrato.sol\":240:262  bytes1 public caracter */\n    tag_35:\n      0x03\n      0x00\n      swap1\n      sload\n      swap1\n      0x0100\n      exp\n      swap1\n      div\n      0xf8\n      shl\n      dup2\n      jump\t// out\n        /* \"#utility.yul\":7:97   */\n    tag_55:\n        /* \"#utility.yul\":41:48   */\n      0x00\n        /* \"#utility.yul\":84:89   */\n      dup2\n        /* \"#utility.yul\":77:90   */\n      iszero\n        /* \"#utility.yul\":70:91   */\n      iszero\n        /* \"#utility.yul\":59:91   */\n      swap1\n      pop\n        /* \"#utility.yul\":7:97   */\n      swap2\n      swap1\n      pop\n      jump\t// out\n        /* \"#utility.yul\":103:212   */\n    tag_56:\n        /* \"#utility.yul\":184:205   */\n      tag_102\n        /* \"#utility.yul\":199:204   */\n      dup2\n        /* \"#utility.yul\":184:205   */\n      tag_55\n      jump\t// in\n    tag_102:\n        /* \"#utility.yul\":179:182   */\n      dup3\n        /* \"#utility.yul\":172:206   */\n      mstore\n        /* \"#utility.yul\":103:212   */\n      pop\n      pop\n      jump\t// out\n        /* \"#utility.yul\":218:428   */\n    tag_14:\n        /* \"#utility.yul\":305:309   */\n      0x00\n        /* \"#utility.yul\":343:345   */\n      0x20\n        /* \"#utility.yul\":332:341   */\n      dup3\n        /* \"#utility.yul\":328:346   */\n      add\n        /* \"#utility.yul\":320:346   */\n      swap1\n      pop\n        /* \"#utility.yul\":356:421   */\n      tag_104\n        /* \"#utility.yul\":418:419   */\n      0x00\n        /* \"#utility.yul\":407:416   */\n      dup4\n        /* \"#utility.yul\":403:420   */\n      add\n        /* \"#utility.yul\":394:400   */\n      dup5\n        /* \"#utility.yul\":356:421   */\n      tag_56\n      jump\t// in\n    tag_104:\n        /* \"#utility.yul\":218:428   */\n      swap3\n      swap2\n      pop\n      pop\n      jump\t// out\n        /* \"#utility.yul\":434:533   */\n    tag_57:\n        /* \"#utility.yul\":486:492   */\n      0x00\n        /* \"#utility.yul\":520:525   */\n      dup2\n        /* \"#utility.yul\":514:526   */\n      mload\n        /* \"#utility.yul\":504:526   */\n      swap1\n      pop\n        /* \"#utility.yul\":434:533   */\n      swap2\n      swap1\n      pop\n      jump\t// out\n        /* \"#utility.yul\":539:708   */\n    tag_58:\n        /* \"#utility.yul\":623:634   */\n      0x00\n        /* \"#utility.yul\":657:663   */\n      dup3\n        /* \"#utility.yul\":652:655   */\n      dup3\n        /* \"#utility.yul\":645:664   */\n      mstore\n        /* \"#utility.yul\":697:701   */\n      0x20\n        /* \"#utility.yul\":692:695   */\n      dup3\n        /* \"#utility.yul\":688:702   */\n      add\n        /* \"#utility.yul\":673:702   */\n      swap1\n      pop\n        /* \"#utility.yul\":539:708   */\n      swap3\n      swap2\n      pop\n      pop\n      jump\t// out\n        /* \"#utility.yul\":714:853   */\n    tag_59:\n        /* \"#utility.yul\":803:809   */\n      dup3\n        /* \"#utility.yul\":798:801   */\n      dup2\n        /* \"#utility.yul\":793:796   */\n      dup4\n        /* \"#utility.yul\":787:810   */\n      mcopy\n        /* \"#utility.yul\":844:845   */\n      0x00\n        /* \"#utility.yul\":835:841   */\n      dup4\n        /* \"#utility.yul\":830:833   */\n      dup4\n        /* \"#utility.yul\":826:842   */\n      add\n        /* \"#utility.yul\":819:846   */\n      mstore\n        /* \"#utility.yul\":714:853   */\n      pop\n      pop\n      pop\n      jump\t// out\n        /* \"#utility.yul\":859:961   */\n    tag_60:\n        /* \"#utility.yul\":900:906   */\n      0x00\n        /* \"#utility.yul\":951:953   */\n      0x1f\n        /* \"#utility.yul\":947:954   */\n      not\n        /* \"#utility.yul\":942:944   */\n      0x1f\n        /* \"#utility.yul\":935:940   */\n      dup4\n        /* \"#utility.yul\":931:945   */\n      add\n        /* \"#utility.yul\":927:955   */\n      and\n        /* \"#utility.yul\":917:955   */\n      swap1\n      pop\n        /* \"#utility.yul\":859:961   */\n      swap2\n      swap1\n      pop\n      jump\t// out\n        /* \"#utility.yul\":967:1344   */\n    tag_61:\n        /* \"#utility.yul\":1055:1058   */\n      0x00\n        /* \"#utility.yul\":1083:1122   */\n      tag_110\n        /* \"#utility.yul\":1116:1121   */\n      dup3\n        /* \"#utility.yul\":1083:1122   */\n      tag_57\n      jump\t// in\n    tag_110:\n        /* \"#utility.yul\":1138:1209   */\n      tag_111\n        /* \"#utility.yul\":1202:1208   */\n      dup2\n        /* \"#utility.yul\":1197:1200   */\n      dup6\n        /* \"#utility.yul\":1138:1209   */\n      tag_58\n      jump\t// in\n    tag_111:\n        /* \"#utility.yul\":1131:1209   */\n      swap4\n      pop\n        /* \"#utility.yul\":1218:1283   */\n      tag_112\n        /* \"#utility.yul\":1276:1282   */\n      dup2\n        /* \"#utility.yul\":1271:1274   */\n      dup6\n        /* \"#utility.yul\":1264:1268   */\n      0x20\n        /* \"#utility.yul\":1257:1262   */\n      dup7\n        /* \"#utility.yul\":1253:1269   */\n      add\n        /* \"#utility.yul\":1218:1283   */\n      tag_59\n      jump\t// in\n    tag_112:\n        /* \"#utility.yul\":1308:1337   */\n      tag_113\n        /* \"#utility.yul\":1330:1336   */\n      dup2\n        /* \"#utility.yul\":1308:1337   */\n      tag_60\n      jump\t// in\n    tag_113:\n        /* \"#utility.yul\":1303:1306   */\n      dup5\n        /* \"#utility.yul\":1299:1338   */\n      add\n        /* \"#utility.yul\":1292:1338   */\n      swap2\n      pop\n        /* \"#utility.yul\":1059:1344   */\n      pop\n        /* \"#utility.yul\":967:1344   */\n      swap3\n      swap2\n      pop\n      pop\n      jump\t// out\n        /* \"#utility.yul\":1350:1663   */\n    tag_18:\n        /* \"#utility.yul\":1463:1467   */\n      0x00\n        /* \"#utility.yul\":1501:1503   */\n      0x20\n        /* \"#utility.yul\":1490:1499   */\n      dup3\n        /* \"#utility.yul\":1486:1504   */\n      add\n        /* \"#utility.yul\":1478:1504   */\n      swap1\n      pop\n        /* \"#utility.yul\":1550:1559   */\n      dup2\n        /* \"#utility.yul\":1544:1548   */\n      dup2\n        /* \"#utility.yul\":1540:1560   */\n      sub\n        /* \"#utility.yul\":1536:1537   */\n      0x00\n        /* \"#utility.yul\":1525:1534   */\n      dup4\n        /* \"#utility.yul\":1521:1538   */\n      add\n        /* \"#utility.yul\":1514:1561   */\n      mstore\n        /* \"#utility.yul\":1578:1656   */\n      tag_115\n        /* \"#utility.yul\":1651:1655   */\n      dup2\n        /* \"#utility.yul\":1642:1648   */\n      dup5\n        /* \"#utility.yul\":1578:1656   */\n      tag_61\n      jump\t// in\n    tag_115:\n        /* \"#utility.yul\":1570:1656   */\n      swap1\n      pop\n        /* \"#utility.yul\":1350:1663   */\n      swap3\n      swap2\n      pop\n      pop\n      jump\t// out\n        /* \"#utility.yul\":1750:1867   */\n    tag_63:\n        /* \"#utility.yul\":1859:1860   */\n      0x00\n        /* \"#utility.yul\":1856:1857   */\n      0x00\n        /* \"#utility.yul\":1849:1861   */\n      revert\n        /* \"#utility.yul\":1873:1990   */\n    tag_64:\n        /* \"#utility.yul\":1982:1983   */\n      0x00\n        /* \"#utility.yul\":1979:1980   */\n      0x00\n        /* \"#utility.yul\":1972:1984   */\n      revert\n        /* \"#utility.yul\":1996:2073   */\n    tag_65:\n        /* \"#utility.yul\":2033:2040   */\n      0x00\n        /* \"#utility.yul\":2062:2067   */\n      dup2\n        /* \"#utility.yul\":2051:2067   */\n      swap1\n      pop\n        /* \"#utility.yul\":1996:2073   */\n      swap2\n      swap1\n      pop\n      jump\t// out\n        /* \"#utility.yul\":2079:2201   */\n    tag_66:\n        /* \"#utility.yul\":2152:2176   */\n      tag_121\n        /* \"#utility.yul\":2170:2175   */\n      dup2\n        /* \"#utility.yul\":2152:2176   */\n      tag_65\n      jump\t// in\n    tag_121:\n        /* \"#utility.yul\":2145:2150   */\n      dup2\n        /* \"#utility.yul\":2142:2177   */\n      eq\n        /* \"#utility.yul\":2132:2195   */\n      tag_122\n      jumpi\n        /* \"#utility.yul\":2191:2192   */\n      0x00\n        /* \"#utility.yul\":2188:2189   */\n      0x00\n        /* \"#utility.yul\":2181:2193   */\n      revert\n        /* \"#utility.yul\":2132:2195   */\n    tag_122:\n        /* \"#utility.yul\":2079:2201   */\n      pop\n      jump\t// out\n        /* \"#utility.yul\":2207:2346   */\n    tag_67:\n        /* \"#utility.yul\":2253:2258   */\n      0x00\n        /* \"#utility.yul\":2291:2297   */\n      dup2\n        /* \"#utility.yul\":2278:2298   */\n      calldataload\n        /* \"#utility.yul\":2269:2298   */\n      swap1\n      pop\n        /* \"#utility.yul\":2307:2340   */\n      tag_124\n        /* \"#utility.yul\":2334:2339   */\n      dup2\n        /* \"#utility.yul\":2307:2340   */\n      tag_66\n      jump\t// in\n    tag_124:\n        /* \"#utility.yul\":2207:2346   */\n      swap3\n      swap2\n      pop\n      pop\n      jump\t// out\n        /* \"#utility.yul\":2352:2468   */\n    tag_68:\n        /* \"#utility.yul\":2422:2443   */\n      tag_126\n        /* \"#utility.yul\":2437:2442   */\n      dup2\n        /* \"#utility.yul\":2422:2443   */\n      tag_55\n      jump\t// in\n    tag_126:\n        /* \"#utility.yul\":2415:2420   */\n      dup2\n        /* \"#utility.yul\":2412:2444   */\n      eq\n        /* \"#utility.yul\":2402:2462   */\n      tag_127\n      jumpi\n        /* \"#utility.yul\":2458:2459   */\n      0x00\n        /* \"#utility.yul\":2455:2456   */\n      0x00\n        /* \"#utility.yul\":2448:2460   */\n      revert\n        /* \"#utility.yul\":2402:2462   */\n    tag_127:\n        /* \"#utility.yul\":2352:2468   */\n      pop\n      jump\t// out\n        /* \"#utility.yul\":2474:2607   */\n    tag_69:\n        /* \"#utility.yul\":2517:2522   */\n      0x00\n        /* \"#utility.yul\":2555:2561   */\n      dup2\n        /* \"#utility.yul\":2542:2562   */\n      calldataload\n        /* \"#utility.yul\":2533:2562   */\n      swap1\n      pop\n        /* \"#utility.yul\":2571:2601   */\n      tag_129\n        /* \"#utility.yul\":2595:2600   */\n      dup2\n        /* \"#utility.yul\":2571:2601   */\n      tag_68\n      jump\t// in\n    tag_129:\n        /* \"#utility.yul\":2474:2607   */\n      swap3\n      swap2\n      pop\n      pop\n      jump\t// out\n        /* \"#utility.yul\":2613:2762   */\n    tag_70:\n        /* \"#utility.yul\":2649:2656   */\n      0x00\n        /* \"#utility.yul\":2689:2755   */\n      0xff00000000000000000000000000000000000000000000000000000000000000\n        /* \"#utility.yul\":2682:2687   */\n      dup3\n        /* \"#utility.yul\":2678:2756   */\n      and\n        /* \"#utility.yul\":2667:2756   */\n      swap1\n      pop\n        /* \"#utility.yul\":2613:2762   */\n      swap2\n      swap1\n      pop\n      jump\t// out\n        /* \"#utility.yul\":2768:2888   */\n    tag_71:\n        /* \"#utility.yul\":2840:2863   */\n      tag_132\n        /* \"#utility.yul\":2857:2862   */\n      dup2\n        /* \"#utility.yul\":2840:2863   */\n      tag_70\n      jump\t// in\n    tag_132:\n        /* \"#utility.yul\":2833:2838   */\n      dup2\n        /* \"#utility.yul\":2830:2864   */\n      eq\n        /* \"#utility.yul\":2820:2882   */\n      tag_133\n      jumpi\n        /* \"#utility.yul\":2878:2879   */\n      0x00\n        /* \"#utility.yul\":2875:2876   */\n      0x00\n        /* \"#utility.yul\":2868:2880   */\n      revert\n        /* \"#utility.yul\":2820:2882   */\n    tag_133:\n        /* \"#utility.yul\":2768:2888   */\n      pop\n      jump\t// out\n        /* \"#utility.yul\":2894:3031   */\n    tag_72:\n        /* \"#utility.yul\":2939:2944   */\n      0x00\n        /* \"#utility.yul\":2977:2983   */\n      dup2\n        /* \"#utility.yul\":2964:2984   */\n      calldataload\n        /* \"#utility.yul\":2955:2984   */\n      swap1\n      pop\n        /* \"#utility.yul\":2993:3025   */\n      tag_135\n        /* \"#utility.yul\":3019:3024   */\n      dup2\n        /* \"#utility.yul\":2993:3025   */\n      tag_71\n      jump\t// in\n    tag_135:\n        /* \"#utility.yul\":2894:3031   */\n      swap3\n      swap2\n      pop\n      pop\n      jump\t// out\n        /* \"#utility.yul\":3037:3154   */\n    tag_73:\n        /* \"#utility.yul\":3146:3147   */\n      0x00\n        /* \"#utility.yul\":3143:3144   */\n      0x00\n        /* \"#utility.yul\":3136:3148   */\n      revert\n        /* \"#utility.yul\":3160:3277   */\n    tag_74:\n        /* \"#utility.yul\":3269:3270   */\n      0x00\n        /* \"#utility.yul\":3266:3267   */\n      0x00\n        /* \"#utility.yul\":3259:3271   */\n      revert\n        /* \"#utility.yul\":3283:3400   */\n    tag_75:\n        /* \"#utility.yul\":3392:3393   */\n      0x00\n        /* \"#utility.yul\":3389:3390   */\n      0x00\n        /* \"#utility.yul\":3382:3394   */\n      revert\n        /* \"#utility.yul\":3420:3973   */\n    tag_76:\n        /* \"#utility.yul\":3478:3486   */\n      0x00\n        /* \"#utility.yul\":3488:3494   */\n      0x00\n        /* \"#utility.yul\":3538:3541   */\n      dup4\n        /* \"#utility.yul\":3531:3535   */\n      0x1f\n        /* \"#utility.yul\":3523:3529   */\n      dup5\n        /* \"#utility.yul\":3519:3536   */\n      add\n        /* \"#utility.yul\":3515:3542   */\n      slt\n        /* \"#utility.yul\":3505:3627   */\n      tag_140\n      jumpi\n        /* \"#utility.yul\":3546:3625   */\n      tag_141\n      tag_73\n      jump\t// in\n    tag_141:\n        /* \"#utility.yul\":3505:3627   */\n    tag_140:\n        /* \"#utility.yul\":3659:3665   */\n      dup3\n        /* \"#utility.yul\":3646:3666   */\n      calldataload\n        /* \"#utility.yul\":3636:3666   */\n      swap1\n      pop\n        /* \"#utility.yul\":3689:3707   */\n      0xffffffffffffffff\n        /* \"#utility.yul\":3681:3687   */\n      dup2\n        /* \"#utility.yul\":3678:3708   */\n      gt\n        /* \"#utility.yul\":3675:3792   */\n      iszero\n      tag_142\n      jumpi\n        /* \"#utility.yul\":3711:3790   */\n      tag_143\n      tag_74\n      jump\t// in\n    tag_143:\n        /* \"#utility.yul\":3675:3792   */\n    tag_142:\n        /* \"#utility.yul\":3825:3829   */\n      0x20\n        /* \"#utility.yul\":3817:3823   */\n      dup4\n        /* \"#utility.yul\":3813:3830   */\n      add\n        /* \"#utility.yul\":3801:3830   */\n      swap2\n      pop\n        /* \"#utility.yul\":3879:3882   */\n      dup4\n        /* \"#utility.yul\":3871:3875   */\n      0x01\n        /* \"#utility.yul\":3863:3869   */\n      dup3\n        /* \"#utility.yul\":3859:3876   */\n      mul\n        /* \"#utility.yul\":3849:3857   */\n      dup4\n        /* \"#utility.yul\":3845:3877   */\n      add\n        /* \"#utility.yul\":3842:3883   */\n      gt\n        /* \"#utility.yul\":3839:3967   */\n      iszero\n      tag_144\n      jumpi\n        /* \"#utility.yul\":3886:3965   */\n      tag_145\n      tag_75\n      jump\t// in\n    tag_145:\n        /* \"#utility.yul\":3839:3967   */\n    tag_144:\n        /* \"#utility.yul\":3420:3973   */\n      swap3\n      pop\n      swap3\n      swap1\n      pop\n      jump\t// out\n        /* \"#utility.yul\":3979:5082   */\n    tag_21:\n        /* \"#utility.yul\":4082:4088   */\n      0x00\n        /* \"#utility.yul\":4090:4096   */\n      0x00\n        /* \"#utility.yul\":4098:4104   */\n      0x00\n        /* \"#utility.yul\":4106:4112   */\n      0x00\n        /* \"#utility.yul\":4114:4120   */\n      0x00\n        /* \"#utility.yul\":4122:4128   */\n      0x00\n        /* \"#utility.yul\":4171:4174   */\n      0xa0\n        /* \"#utility.yul\":4159:4168   */\n      dup8\n        /* \"#utility.yul\":4150:4157   */\n      dup10\n        /* \"#utility.yul\":4146:4169   */\n      sub\n        /* \"#utility.yul\":4142:4175   */\n      slt\n        /* \"#utility.yul\":4139:4259   */\n      iszero\n      tag_147\n      jumpi\n        /* \"#utility.yul\":4178:4257   */\n      tag_148\n      tag_63\n      jump\t// in\n    tag_148:\n        /* \"#utility.yul\":4139:4259   */\n    tag_147:\n        /* \"#utility.yul\":4298:4299   */\n      0x00\n        /* \"#utility.yul\":4323:4376   */\n      tag_149\n        /* \"#utility.yul\":4368:4375   */\n      dup10\n        /* \"#utility.yul\":4359:4365   */\n      dup3\n        /* \"#utility.yul\":4348:4357   */\n      dup11\n        /* \"#utility.yul\":4344:4366   */\n      add\n        /* \"#utility.yul\":4323:4376   */\n      tag_67\n      jump\t// in\n    tag_149:\n        /* \"#utility.yul\":4313:4376   */\n      swap7\n      pop\n        /* \"#utility.yul\":4269:4386   */\n      pop\n        /* \"#utility.yul\":4425:4427   */\n      0x20\n        /* \"#utility.yul\":4451:4501   */\n      tag_150\n        /* \"#utility.yul\":4493:4500   */\n      dup10\n        /* \"#utility.yul\":4484:4490   */\n      dup3\n        /* \"#utility.yul\":4473:4482   */\n      dup11\n        /* \"#utility.yul\":4469:4491   */\n      add\n        /* \"#utility.yul\":4451:4501   */\n      tag_69\n      jump\t// in\n    tag_150:\n        /* \"#utility.yul\":4441:4501   */\n      swap6\n      pop\n        /* \"#utility.yul\":4396:4511   */\n      pop\n        /* \"#utility.yul\":4550:4552   */\n      0x40\n        /* \"#utility.yul\":4576:4629   */\n      tag_151\n        /* \"#utility.yul\":4621:4628   */\n      dup10\n        /* \"#utility.yul\":4612:4618   */\n      dup3\n        /* \"#utility.yul\":4601:4610   */\n      dup11\n        /* \"#utility.yul\":4597:4619   */\n      add\n        /* \"#utility.yul\":4576:4629   */\n      tag_67\n      jump\t// in\n    tag_151:\n        /* \"#utility.yul\":4566:4629   */\n      swap5\n      pop\n        /* \"#utility.yul\":4521:4639   */\n      pop\n        /* \"#utility.yul\":4678:4680   */\n      0x60\n        /* \"#utility.yul\":4704:4756   */\n      tag_152\n        /* \"#utility.yul\":4748:4755   */\n      dup10\n        /* \"#utility.yul\":4739:4745   */\n      dup3\n        /* \"#utility.yul\":4728:4737   */\n      dup11\n        /* \"#utility.yul\":4724:4746   */\n      add\n        /* \"#utility.yul\":4704:4756   */\n      tag_72\n      jump\t// in\n    tag_152:\n        /* \"#utility.yul\":4694:4756   */\n      swap4\n      pop\n        /* \"#utility.yul\":4649:4766   */\n      pop\n        /* \"#utility.yul\":4833:4836   */\n      0x80\n        /* \"#utility.yul\":4822:4831   */\n      dup8\n        /* \"#utility.yul\":4818:4837   */\n      add\n        /* \"#utility.yul\":4805:4838   */\n      calldataload\n        /* \"#utility.yul\":4865:4883   */\n      0xffffffffffffffff\n        /* \"#utility.yul\":4857:4863   */\n      dup2\n        /* \"#utility.yul\":4854:4884   */\n      gt\n        /* \"#utility.yul\":4851:4968   */\n      iszero\n      tag_153\n      jumpi\n        /* \"#utility.yul\":4887:4966   */\n      tag_154\n      tag_64\n      jump\t// in\n    tag_154:\n        /* \"#utility.yul\":4851:4968   */\n    tag_153:\n        /* \"#utility.yul\":5000:5065   */\n      tag_155\n        /* \"#utility.yul\":5057:5064   */\n      dup10\n        /* \"#utility.yul\":5048:5054   */\n      dup3\n        /* \"#utility.yul\":5037:5046   */\n      dup11\n        /* \"#utility.yul\":5033:5055   */\n      add\n        /* \"#utility.yul\":5000:5065   */\n      tag_76\n      jump\t// in\n    tag_155:\n        /* \"#utility.yul\":4982:5065   */\n      swap3\n      pop\n      swap3\n      pop\n        /* \"#utility.yul\":4776:5075   */\n      pop\n        /* \"#utility.yul\":3979:5082   */\n      swap3\n      swap6\n      pop\n      swap3\n      swap6\n      pop\n      swap3\n      swap6\n      jump\t// out\n        /* \"#utility.yul\":5088:5206   */\n    tag_77:\n        /* \"#utility.yul\":5175:5199   */\n      tag_157\n        /* \"#utility.yul\":5193:5198   */\n      dup2\n        /* \"#utility.yul\":5175:5199   */\n      tag_65\n      jump\t// in\n    tag_157:\n        /* \"#utility.yul\":5170:5173   */\n      dup3\n        /* \"#utility.yul\":5163:5200   */\n      mstore\n        /* \"#utility.yul\":5088:5206   */\n      pop\n      pop\n      jump\t// out\n        /* \"#utility.yul\":5212:5327   */\n    tag_78:\n        /* \"#utility.yul\":5297:5320   */\n      tag_159\n        /* \"#utility.yul\":5314:5319   */\n      dup2\n        /* \"#utility.yul\":5297:5320   */\n      tag_70\n      jump\t// in\n    tag_159:\n        /* \"#utility.yul\":5292:5295   */\n      dup3\n        /* \"#utility.yul\":5285:5321   */\n      mstore\n        /* \"#utility.yul\":5212:5327   */\n      pop\n      pop\n      jump\t// out\n        /* \"#utility.yul\":5333:6072   */\n    tag_26:\n        /* \"#utility.yul\":5550:5554   */\n      0x00\n        /* \"#utility.yul\":5588:5591   */\n      0xa0\n        /* \"#utility.yul\":5577:5586   */\n      dup3\n        /* \"#utility.yul\":5573:5592   */\n      add\n        /* \"#utility.yul\":5565:5592   */\n      swap1\n      pop\n        /* \"#utility.yul\":5602:5673   */\n      tag_161\n        /* \"#utility.yul\":5670:5671   */\n      0x00\n        /* \"#utility.yul\":5659:5668   */\n      dup4\n        /* \"#utility.yul\":5655:5672   */\n      add\n        /* \"#utility.yul\":5646:5652   */\n      dup9\n        /* \"#utility.yul\":5602:5673   */\n      tag_77\n      jump\t// in\n    tag_161:\n        /* \"#utility.yul\":5683:5749   */\n      tag_162\n        /* \"#utility.yul\":5745:5747   */\n      0x20\n        /* \"#utility.yul\":5734:5743   */\n      dup4\n        /* \"#utility.yul\":5730:5748   */\n      add\n        /* \"#utility.yul\":5721:5727   */\n      dup8\n        /* \"#utility.yul\":5683:5749   */\n      tag_56\n      jump\t// in\n    tag_162:\n        /* \"#utility.yul\":5759:5831   */\n      tag_163\n        /* \"#utility.yul\":5827:5829   */\n      0x40\n        /* \"#utility.yul\":5816:5825   */\n      dup4\n        /* \"#utility.yul\":5812:5830   */\n      add\n        /* \"#utility.yul\":5803:5809   */\n      dup7\n        /* \"#utility.yul\":5759:5831   */\n      tag_77\n      jump\t// in\n    tag_163:\n        /* \"#utility.yul\":5841:5911   */\n      tag_164\n        /* \"#utility.yul\":5907:5909   */\n      0x60\n        /* \"#utility.yul\":5896:5905   */\n      dup4\n        /* \"#utility.yul\":5892:5910   */\n      add\n        /* \"#utility.yul\":5883:5889   */\n      dup6\n        /* \"#utility.yul\":5841:5911   */\n      tag_78\n      jump\t// in\n    tag_164:\n        /* \"#utility.yul\":5959:5968   */\n      dup2\n        /* \"#utility.yul\":5953:5957   */\n      dup2\n        /* \"#utility.yul\":5949:5969   */\n      sub\n        /* \"#utility.yul\":5943:5946   */\n      0x80\n        /* \"#utility.yul\":5932:5941   */\n      dup4\n        /* \"#utility.yul\":5928:5947   */\n      add\n        /* \"#utility.yul\":5921:5970   */\n      mstore\n        /* \"#utility.yul\":5987:6065   */\n      tag_165\n        /* \"#utility.yul\":6060:6064   */\n      dup2\n        /* \"#utility.yul\":6051:6057   */\n      dup5\n        /* \"#utility.yul\":5987:6065   */\n      tag_61\n      jump\t// in\n    tag_165:\n        /* \"#utility.yul\":5979:6065   */\n      swap1\n      pop\n        /* \"#utility.yul\":5333:6072   */\n      swap7\n      swap6\n      pop\n      pop\n      pop\n      pop\n      pop\n      pop\n      jump\t// out\n        /* \"#utility.yul\":6078:6300   */\n    tag_30:\n        /* \"#utility.yul\":6171:6175   */\n      0x00\n        /* \"#utility.yul\":6209:6211   */\n      0x20\n        /* \"#utility.yul\":6198:6207   */\n      dup3\n        /* \"#utility.yul\":6194:6212   */\n      add\n        /* \"#utility.yul\":6186:6212   */\n      swap1\n      pop\n        /* \"#utility.yul\":6222:6293   */\n      tag_167\n        /* \"#utility.yul\":6290:6291   */\n      0x00\n        /* \"#utility.yul\":6279:6288   */\n      dup4\n        /* \"#utility.yul\":6275:6292   */\n      add\n        /* \"#utility.yul\":6266:6272   */\n      dup5\n        /* \"#utility.yul\":6222:6293   */\n      tag_77\n      jump\t// in\n    tag_167:\n        /* \"#utility.yul\":6078:6300   */\n      swap3\n      swap2\n      pop\n      pop\n      jump\t// out\n        /* \"#utility.yul\":6306:6524   */\n    tag_37:\n        /* \"#utility.yul\":6397:6401   */\n      0x00\n        /* \"#utility.yul\":6435:6437   */\n      0x20\n        /* \"#utility.yul\":6424:6433   */\n      dup3\n        /* \"#utility.yul\":6420:6438   */\n      add\n        /* \"#utility.yul\":6412:6438   */\n      swap1\n      pop\n        /* \"#utility.yul\":6448:6517   */\n      tag_169\n        /* \"#utility.yul\":6514:6515   */\n      0x00\n        /* \"#utility.yul\":6503:6512   */\n      dup4\n        /* \"#utility.yul\":6499:6516   */\n      add\n        /* \"#utility.yul\":6490:6496   */\n      dup5\n        /* \"#utility.yul\":6448:6517   */\n      tag_78\n      jump\t// in\n    tag_169:\n        /* \"#utility.yul\":6306:6524   */\n      swap3\n      swap2\n      pop\n      pop\n      jump\t// out\n        /* \"#utility.yul\":6530:6710   */\n    tag_79:\n        /* \"#utility.yul\":6578:6655   */\n      0x4e487b7100000000000000000000000000000000000000000000000000000000\n        /* \"#utility.yul\":6575:6576   */\n      0x00\n        /* \"#utility.yul\":6568:6656   */\n      mstore\n        /* \"#utility.yul\":6675:6679   */\n      0x22\n        /* \"#utility.yul\":6672:6673   */\n      0x04\n        /* \"#utility.yul\":6665:6680   */\n      mstore\n        /* \"#utility.yul\":6699:6703   */\n      0x24\n        /* \"#utility.yul\":6696:6697   */\n      0x00\n        /* \"#utility.yul\":6689:6704   */\n      revert\n        /* \"#utility.yul\":6716:7036   */\n    tag_39:\n        /* \"#utility.yul\":6760:6766   */\n      0x00\n        /* \"#utility.yul\":6797:6798   */\n      0x02\n        /* \"#utility.yul\":6791:6795   */\n      dup3\n        /* \"#utility.yul\":6787:6799   */\n      div\n        /* \"#utility.yul\":6777:6799   */\n      swap1\n      pop\n        /* \"#utility.yul\":6844:6845   */\n      0x01\n        /* \"#utility.yul\":6838:6842   */\n      dup3\n        /* \"#utility.yul\":6834:6846   */\n      and\n        /* \"#utility.yul\":6865:6883   */\n      dup1\n        /* \"#utility.yul\":6855:6936   */\n      tag_172\n      jumpi\n        /* \"#utility.yul\":6921:6925   */\n      0x7f\n        /* \"#utility.yul\":6913:6919   */\n      dup3\n        /* \"#utility.yul\":6909:6926   */\n      and\n        /* \"#utility.yul\":6899:6926   */\n      swap2\n      pop\n        /* \"#utility.yul\":6855:6936   */\n    tag_172:\n        /* \"#utility.yul\":6983:6985   */\n      0x20\n        /* \"#utility.yul\":6975:6981   */\n      dup3\n        /* \"#utility.yul\":6972:6986   */\n      lt\n        /* \"#utility.yul\":6952:6970   */\n      dup2\n        /* \"#utility.yul\":6949:6987   */\n      sub\n        /* \"#utility.yul\":6946:7030   */\n      tag_173\n      jumpi\n        /* \"#utility.yul\":7002:7020   */\n      tag_174\n      tag_79\n      jump\t// in\n    tag_174:\n        /* \"#utility.yul\":6946:7030   */\n    tag_173:\n        /* \"#utility.yul\":6767:7036   */\n      pop\n        /* \"#utility.yul\":6716:7036   */\n      swap2\n      swap1\n      pop\n      jump\t// out\n        /* \"#utility.yul\":7042:7139   */\n    tag_80:\n        /* \"#utility.yul\":7101:7107   */\n      0x00\n        /* \"#utility.yul\":7129:7132   */\n      dup3\n        /* \"#utility.yul\":7119:7132   */\n      swap1\n      pop\n        /* \"#utility.yul\":7042:7139   */\n      swap3\n      swap2\n      pop\n      pop\n      jump\t// out\n        /* \"#utility.yul\":7145:7325   */\n    tag_81:\n        /* \"#utility.yul\":7193:7270   */\n      0x4e487b7100000000000000000000000000000000000000000000000000000000\n        /* \"#utility.yul\":7190:7191   */\n      0x00\n        /* \"#utility.yul\":7183:7271   */\n      mstore\n        /* \"#utility.yul\":7290:7294   */\n      0x41\n        /* \"#utility.yul\":7287:7288   */\n      0x04\n        /* \"#utility.yul\":7280:7295   */\n      mstore\n        /* \"#utility.yul\":7314:7318   */\n      0x24\n        /* \"#utility.yul\":7311:7312   */\n      0x00\n        /* \"#utility.yul\":7304:7319   */\n      revert\n        /* \"#utility.yul\":7331:7472   */\n    tag_82:\n        /* \"#utility.yul\":7380:7384   */\n      0x00\n        /* \"#utility.yul\":7403:7406   */\n      dup2\n        /* \"#utility.yul\":7395:7406   */\n      swap1\n      pop\n        /* \"#utility.yul\":7426:7429   */\n      dup2\n        /* \"#utility.yul\":7423:7424   */\n      0x00\n        /* \"#utility.yul\":7416:7430   */\n      mstore\n        /* \"#utility.yul\":7460:7464   */\n      0x20\n        /* \"#utility.yul\":7457:7458   */\n      0x00\n        /* \"#utility.yul\":7447:7465   */\n      keccak256\n        /* \"#utility.yul\":7439:7465   */\n      swap1\n      pop\n        /* \"#utility.yul\":7331:7472   */\n      swap2\n      swap1\n      pop\n      jump\t// out\n        /* \"#utility.yul\":7478:7571   */\n    tag_83:\n        /* \"#utility.yul\":7515:7521   */\n      0x00\n        /* \"#utility.yul\":7562:7564   */\n      0x20\n        /* \"#utility.yul\":7557:7559   */\n      0x1f\n        /* \"#utility.yul\":7550:7555   */\n      dup4\n        /* \"#utility.yul\":7546:7560   */\n      add\n        /* \"#utility.yul\":7542:7565   */\n      div\n        /* \"#utility.yul\":7532:7565   */\n      swap1\n      pop\n        /* \"#utility.yul\":7478:7571   */\n      swap2\n      swap1\n      pop\n      jump\t// out\n        /* \"#utility.yul\":7577:7684   */\n    tag_84:\n        /* \"#utility.yul\":7621:7629   */\n      0x00\n        /* \"#utility.yul\":7671:7676   */\n      dup3\n        /* \"#utility.yul\":7665:7669   */\n      dup3\n        /* \"#utility.yul\":7661:7677   */\n      shl\n        /* \"#utility.yul\":7640:7677   */\n      swap1\n      pop\n        /* \"#utility.yul\":7577:7684   */\n      swap3\n      swap2\n      pop\n      pop\n      jump\t// out\n        /* \"#utility.yul\":7690:8083   */\n    tag_85:\n        /* \"#utility.yul\":7759:7765   */\n      0x00\n        /* \"#utility.yul\":7809:7810   */\n      0x08\n        /* \"#utility.yul\":7797:7807   */\n      dup4\n        /* \"#utility.yul\":7793:7811   */\n      mul\n        /* \"#utility.yul\":7832:7929   */\n      tag_181\n        /* \"#utility.yul\":7862:7928   */\n      0xffffffffffffffffffffffffffffffffffffffffffffffffffffffffffffffff\n        /* \"#utility.yul\":7851:7860   */\n      dup3\n        /* \"#utility.yul\":7832:7929   */\n      tag_84\n      jump\t// in\n    tag_181:\n        /* \"#utility.yul\":7950:7989   */\n      tag_182\n        /* \"#utility.yul\":7980:7988   */\n      dup7\n        /* \"#utility.yul\":7969:7978   */\n      dup4\n        /* \"#utility.yul\":7950:7989   */\n      tag_84\n      jump\t// in\n    tag_182:\n        /* \"#utility.yul\":7938:7989   */\n      swap6\n      pop\n        /* \"#utility.yul\":8022:8026   */\n      dup1\n        /* \"#utility.yul\":8018:8027   */\n      not\n        /* \"#utility.yul\":8011:8016   */\n      dup5\n        /* \"#utility.yul\":8007:8028   */\n      and\n        /* \"#utility.yul\":7998:8028   */\n      swap4\n      pop\n        /* \"#utility.yul\":8071:8075   */\n      dup1\n        /* \"#utility.yul\":8061:8069   */\n      dup7\n        /* \"#utility.yul\":8057:8076   */\n      and\n        /* \"#utility.yul\":8050:8055   */\n      dup5\n        /* \"#utility.yul\":8047:8077   */\n      or\n        /* \"#utility.yul\":8037:8077   */\n      swap3\n      pop\n        /* \"#utility.yul\":7766:8083   */\n      pop\n      pop\n        /* \"#utility.yul\":7690:8083   */\n      swap4\n      swap3\n      pop\n      pop\n      pop\n      jump\t// out\n        /* \"#utility.yul\":8089:8149   */\n    tag_86:\n        /* \"#utility.yul\":8117:8120   */\n      0x00\n        /* \"#utility.yul\":8138:8143   */\n      dup2\n        /* \"#utility.yul\":8131:8143   */\n      swap1\n      pop\n        /* \"#utility.yul\":8089:8149   */\n      swap2\n      swap1\n      pop\n      jump\t// out\n        /* \"#utility.yul\":8155:8297   */\n    tag_87:\n        /* \"#utility.yul\":8205:8214   */\n      0x00\n        /* \"#utility.yul\":8238:8291   */\n      tag_185\n        /* \"#utility.yul\":8256:8290   */\n      tag_186\n        /* \"#utility.yul\":8265:8289   */\n      tag_187\n        /* \"#utility.yul\":8283:8288   */\n      dup5\n        /* \"#utility.yul\":8265:8289   */\n      tag_65\n      jump\t// in\n    tag_187:\n        /* \"#utility.yul\":8256:8290   */\n      tag_86\n      jump\t// in\n    tag_186:\n        /* \"#utility.yul\":8238:8291   */\n      tag_65\n      jump\t// in\n    tag_185:\n        /* \"#utility.yul\":8225:8291   */\n      swap1\n      pop\n        /* \"#utility.yul\":8155:8297   */\n      swap2\n      swap1\n      pop\n      jump\t// out\n        /* \"#utility.yul\":8303:8378   */\n    tag_88:\n        /* \"#utility.yul\":8346:8349   */\n      0x00\n        /* \"#utility.yul\":8367:8372   */\n      dup2\n        /* \"#utility.yul\":8360:8372   */\n      swap1\n      pop\n        /* \"#utility.yul\":8303:8378   */\n      swap2\n      swap1\n      pop\n      jump\t// out\n        /* \"#utility.yul\":8384:8653   */\n    tag_89:\n        /* \"#utility.yul\":8494:8533   */\n      tag_190\n        /* \"#utility.yul\":8525:8532   */\n      dup4\n        /* \"#utility.yul\":8494:8533   */\n      tag_87\n      jump\t// in\n    tag_190:\n        /* \"#utility.yul\":8555:8646   */\n      tag_191\n        /* \"#utility.yul\":8604:8645   */\n      tag_192\n        /* \"#utility.yul\":8628:8644   */\n      dup3\n        /* \"#utility.yul\":8604:8645   */\n      tag_88\n      jump\t// in\n    tag_192:\n        /* \"#utility.yul\":8596:8602   */\n      dup5\n        /* \"#utility.yul\":8589:8593   */\n      dup5\n        /* \"#utility.yul\":8583:8594   */\n      sload\n        /* \"#utility.yul\":8555:8646   */\n      tag_85\n      jump\t// in\n    tag_191:\n        /* \"#utility.yul\":8549:8553   */\n      dup3\n        /* \"#utility.yul\":8542:8647   */\n      sstore\n        /* \"#utility.yul\":8460:8653   */\n      pop\n        /* \"#utility.yul\":8384:8653   */\n      pop\n      pop\n      pop\n      jump\t// out\n        /* \"#utility.yul\":8659:8732   */\n    tag_90:\n        /* \"#utility.yul\":8704:8707   */\n      0x00\n        /* \"#utility.yul\":8725:8726   */\n      0x00\n        /* \"#utility.yul\":8718:8726   */\n      swap1\n      pop\n        /* \"#utility.yul\":8659:8732   */\n      swap1\n      jump\t// out\n        /* \"#utility.yul\":8738:8927   */\n    tag_91:\n        /* \"#utility.yul\":8815:8847   */\n      tag_195\n      tag_90\n      jump\t// in\n    tag_195:\n        /* \"#utility.yul\":8856:8921   */\n      tag_196\n        /* \"#utility.yul\":8914:8920   */\n      dup2\n        /* \"#utility.yul\":8906:8912   */\n      dup5\n        /* \"#utility.yul\":8900:8904   */\n      dup5\n        /* \"#utility.yul\":8856:8921   */\n      tag_89\n      jump\t// in\n    tag_196:\n        /* \"#utility.yul\":8791:8927   */\n      pop\n        /* \"#utility.yul\":8738:8927   */\n      pop\n      pop\n      jump\t// out\n        /* \"#utility.yul\":8933:9119   */\n    tag_92:\n        /* \"#utility.yul\":8993:9113   */\n    tag_198:\n        /* \"#utility.yul\":9010:9013   */\n      dup2\n        /* \"#utility.yul\":9003:9008   */\n      dup2\n        /* \"#utility.yul\":9000:9014   */\n      lt\n        /* \"#utility.yul\":8993:9113   */\n      iszero\n      tag_200\n      jumpi\n        /* \"#utility.yul\":9064:9103   */\n      tag_201\n        /* \"#utility.yul\":9101:9102   */\n      0x00\n        /* \"#utility.yul\":9094:9099   */\n      dup3\n        /* \"#utility.yul\":9064:9103   */\n      tag_91\n      jump\t// in\n    tag_201:\n        /* \"#utility.yul\":9037:9038   */\n      0x01\n        /* \"#utility.yul\":9030:9035   */\n      dup2\n        /* \"#utility.yul\":9026:9039   */\n      add\n        /* \"#utility.yul\":9017:9039   */\n      swap1\n      pop\n        /* \"#utility.yul\":8993:9113   */\n      jump(tag_198)\n    tag_200:\n        /* \"#utility.yul\":8933:9119   */\n      pop\n      pop\n      jump\t// out\n        /* \"#utility.yul\":9125:9668   */\n    tag_93:\n        /* \"#utility.yul\":9226:9228   */\n      0x1f\n        /* \"#utility.yul\":9221:9224   */\n      dup3\n        /* \"#utility.yul\":9218:9229   */\n      gt\n        /* \"#utility.yul\":9215:9661   */\n      iszero\n      tag_203\n      jumpi\n        /* \"#utility.yul\":9260:9298   */\n      tag_204\n        /* \"#utility.yul\":9292:9297   */\n      dup2\n        /* \"#utility.yul\":9260:9298   */\n      tag_82\n      jump\t// in\n    tag_204:\n        /* \"#utility.yul\":9344:9373   */\n      tag_205\n        /* \"#utility.yul\":9362:9372   */\n      dup5\n        /* \"#utility.yul\":9344:9373   */\n      tag_83\n      jump\t// in\n    tag_205:\n        /* \"#utility.yul\":9334:9342   */\n      dup2\n        /* \"#utility.yul\":9330:9374   */\n      add\n        /* \"#utility.yul\":9527:9529   */\n      0x20\n        /* \"#utility.yul\":9515:9525   */\n      dup6\n        /* \"#utility.yul\":9512:9530   */\n      lt\n        /* \"#utility.yul\":9509:9558   */\n      iszero\n      tag_206\n      jumpi\n        /* \"#utility.yul\":9548:9556   */\n      dup2\n        /* \"#utility.yul\":9533:9556   */\n      swap1\n      pop\n        /* \"#utility.yul\":9509:9558   */\n    tag_206:\n        /* \"#utility.yul\":9571:9651   */\n      tag_207\n        /* \"#utility.yul\":9627:9649   */\n      tag_208\n        /* \"#utility.yul\":9645:9648   */\n      dup6\n        /* \"#utility.yul\":9627:9649   */\n      tag_83\n      jump\t// in\n    tag_208:\n        /* \"#utility.yul\":9617:9625   */\n      dup4\n        /* \"#utility.yul\":9613:9650   */\n      add\n        /* \"#utility.yul\":9600:9611   */\n      dup3\n        /* \"#utility.yul\":9571:9651   */\n      tag_92\n      jump\t// in\n    tag_207:\n        /* \"#utility.yul\":9230:9661   */\n      pop\n      pop\n        /* \"#utility.yul\":9215:9661   */\n    tag_203:\n        /* \"#utility.yul\":9125:9668   */\n      pop\n      pop\n      pop\n      jump\t// out\n        /* \"#utility.yul\":9674:9791   */\n    tag_94:\n        /* \"#utility.yul\":9728:9736   */\n      0x00\n        /* \"#utility.yul\":9778:9783   */\n      dup3\n        /* \"#utility.yul\":9772:9776   */\n      dup3\n        /* \"#utility.yul\":9768:9784   */\n      shr\n        /* \"#utility.yul\":9747:9784   */\n      swap1\n      pop\n        /* \"#utility.yul\":9674:9791   */\n      swap3\n      swap2\n      pop\n      pop\n      jump\t// out\n        /* \"#utility.yul\":9797:9966   */\n    tag_95:\n        /* \"#utility.yul\":9841:9847   */\n      0x00\n        /* \"#utility.yul\":9874:9925   */\n      tag_211\n        /* \"#utility.yul\":9922:9923   */\n      0x00\n        /* \"#utility.yul\":9918:9924   */\n      not\n        /* \"#utility.yul\":9910:9915   */\n      dup5\n        /* \"#utility.yul\":9907:9908   */\n      0x08\n        /* \"#utility.yul\":9903:9916   */\n      mul\n        /* \"#utility.yul\":9874:9925   */\n      tag_94\n      jump\t// in\n    tag_211:\n        /* \"#utility.yul\":9870:9926   */\n      not\n        /* \"#utility.yul\":9955:9959   */\n      dup1\n        /* \"#utility.yul\":9949:9953   */\n      dup4\n        /* \"#utility.yul\":9945:9960   */\n      and\n        /* \"#utility.yul\":9935:9960   */\n      swap2\n      pop\n        /* \"#utility.yul\":9848:9966   */\n      pop\n        /* \"#utility.yul\":9797:9966   */\n      swap3\n      swap2\n      pop\n      pop\n      jump\t// out\n        /* \"#utility.yul\":9971:10266   */\n    tag_96:\n        /* \"#utility.yul\":10047:10051   */\n      0x00\n        /* \"#utility.yul\":10193:10222   */\n      tag_213\n        /* \"#utility.yul\":10218:10221   */\n      dup4\n        /* \"#utility.yul\":10212:10216   */\n      dup4\n        /* \"#utility.yul\":10193:10222   */\n      tag_95\n      jump\t// in\n    tag_213:\n        /* \"#utility.yul\":10185:10222   */\n      swap2\n      pop\n        /* \"#utility.yul\":10255:10258   */\n      dup3\n        /* \"#utility.yul\":10252:10253   */\n      0x02\n        /* \"#utility.yul\":10248:10259   */\n      mul\n        /* \"#utility.yul\":10242:10246   */\n      dup3\n        /* \"#utility.yul\":10239:10260   */\n      or\n        /* \"#utility.yul\":10231:10260   */\n      swap1\n      pop\n        /* \"#utility.yul\":9971:10266   */\n      swap3\n      swap2\n      pop\n      pop\n      jump\t// out\n        /* \"#utility.yul\":10271:11674   */\n    tag_46:\n        /* \"#utility.yul\":10395:10439   */\n      tag_215\n        /* \"#utility.yul\":10435:10438   */\n      dup4\n        /* \"#utility.yul\":10430:10433   */\n      dup4\n        /* \"#utility.yul\":10395:10439   */\n      tag_80\n      jump\t// in\n    tag_215:\n        /* \"#utility.yul\":10504:10522   */\n      0xffffffffffffffff\n        /* \"#utility.yul\":10496:10502   */\n      dup2\n        /* \"#utility.yul\":10493:10523   */\n      gt\n        /* \"#utility.yul\":10490:10546   */\n      iszero\n      tag_216\n      jumpi\n        /* \"#utility.yul\":10526:10544   */\n      tag_217\n      tag_81\n      jump\t// in\n    tag_217:\n        /* \"#utility.yul\":10490:10546   */\n    tag_216:\n        /* \"#utility.yul\":10570:10608   */\n      tag_218\n        /* \"#utility.yul\":10602:10606   */\n      dup3\n        /* \"#utility.yul\":10596:10607   */\n      sload\n        /* \"#utility.yul\":10570:10608   */\n      tag_39\n      jump\t// in\n    tag_218:\n        /* \"#utility.yul\":10655:10722   */\n      tag_219\n        /* \"#utility.yul\":10715:10721   */\n      dup3\n        /* \"#utility.yul\":10707:10713   */\n      dup3\n        /* \"#utility.yul\":10701:10705   */\n      dup6\n        /* \"#utility.yul\":10655:10722   */\n      tag_93\n      jump\t// in\n    tag_219:\n        /* \"#utility.yul\":10749:10750   */\n      0x00\n        /* \"#utility.yul\":10778:10780   */\n      0x1f\n        /* \"#utility.yul\":10770:10776   */\n      dup4\n        /* \"#utility.yul\":10767:10781   */\n      gt\n        /* \"#utility.yul\":10795:10796   */\n      0x01\n        /* \"#utility.yul\":10790:11422   */\n      dup2\n      eq\n      tag_221\n      jumpi\n        /* \"#utility.yul\":11466:11467   */\n      0x00\n        /* \"#utility.yul\":11483:11489   */\n      dup5\n        /* \"#utility.yul\":11480:11564   */\n      iszero\n      tag_222\n      jumpi\n        /* \"#utility.yul\":11539:11548   */\n      dup3\n        /* \"#utility.yul\":11534:11537   */\n      dup8\n        /* \"#utility.yul\":11530:11549   */\n      add\n        /* \"#utility.yul\":11517:11550   */\n      calldataload\n        /* \"#utility.yul\":11508:11550   */\n      swap1\n      pop\n        /* \"#utility.yul\":11480:11564   */\n    tag_222:\n        /* \"#utility.yul\":11590:11657   */\n      tag_223\n        /* \"#utility.yul\":11650:11656   */\n      dup6\n        /* \"#utility.yul\":11643:11648   */\n      dup3\n        /* \"#utility.yul\":11590:11657   */\n      tag_96\n      jump\t// in\n    tag_223:\n        /* \"#utility.yul\":11584:11588   */\n      dup7\n        /* \"#utility.yul\":11577:11658   */\n      sstore\n        /* \"#utility.yul\":11439:11668   */\n      pop\n        /* \"#utility.yul\":10760:11668   */\n      jump(tag_220)\n        /* \"#utility.yul\":10790:11422   */\n    tag_221:\n        /* \"#utility.yul\":10842:10846   */\n      0x1f\n        /* \"#utility.yul\":10838:10847   */\n      not\n        /* \"#utility.yul\":10830:10836   */\n      dup5\n        /* \"#utility.yul\":10826:10848   */\n      and\n        /* \"#utility.yul\":10876:10913   */\n      tag_224\n        /* \"#utility.yul\":10908:10912   */\n      dup7\n        /* \"#utility.yul\":10876:10913   */\n      tag_82\n      jump\t// in\n    tag_224:\n        /* \"#utility.yul\":10935:10936   */\n      0x00\n        /* \"#utility.yul\":10949:11164   */\n    tag_225:\n        /* \"#utility.yul\":10963:10970   */\n      dup3\n        /* \"#utility.yul\":10960:10961   */\n      dup2\n        /* \"#utility.yul\":10957:10971   */\n      lt\n        /* \"#utility.yul\":10949:11164   */\n      iszero\n      tag_227\n      jumpi\n        /* \"#utility.yul\":11049:11058   */\n      dup5\n        /* \"#utility.yul\":11044:11047   */\n      dup10\n        /* \"#utility.yul\":11040:11059   */\n      add\n        /* \"#utility.yul\":11027:11060   */\n      calldataload\n        /* \"#utility.yul\":11019:11025   */\n      dup3\n        /* \"#utility.yul\":11012:11061   */\n      sstore\n        /* \"#utility.yul\":11100:11101   */\n      0x01\n        /* \"#utility.yul\":11092:11098   */\n      dup3\n        /* \"#utility.yul\":11088:11102   */\n      add\n        /* \"#utility.yul\":11078:11102   */\n      swap2\n      pop\n        /* \"#utility.yul\":11147:11149   */\n      0x20\n        /* \"#utility.yul\":11136:11145   */\n      dup6\n        /* \"#utility.yul\":11132:11150   */\n      add\n        /* \"#utility.yul\":11119:11150   */\n      swap5\n      pop\n        /* \"#utility.yul\":10986:10990   */\n      0x20\n        /* \"#utility.yul\":10983:10984   */\n      dup2\n        /* \"#utility.yul\":10979:10991   */\n      add\n        /* \"#utility.yul\":10974:10991   */\n      swap1\n      pop\n        /* \"#utility.yul\":10949:11164   */\n      jump(tag_225)\n    tag_227:\n        /* \"#utility.yul\":11192:11198   */\n      dup7\n        /* \"#utility.yul\":11183:11190   */\n      dup4\n        /* \"#utility.yul\":11180:11199   */\n      lt\n        /* \"#utility.yul\":11177:11363   */\n      iszero\n      tag_228\n      jumpi\n        /* \"#utility.yul\":11257:11266   */\n      dup5\n        /* \"#utility.yul\":11252:11255   */\n      dup10\n        /* \"#utility.yul\":11248:11267   */\n      add\n        /* \"#utility.yul\":11235:11268   */\n      calldataload\n        /* \"#utility.yul\":11300:11348   */\n      tag_229\n        /* \"#utility.yul\":11342:11346   */\n      0x1f\n        /* \"#utility.yul\":11334:11340   */\n      dup10\n        /* \"#utility.yul\":11330:11347   */\n      and\n        /* \"#utility.yul\":11319:11328   */\n      dup3\n        /* \"#utility.yul\":11300:11348   */\n      tag_95\n      jump\t// in\n    tag_229:\n        /* \"#utility.yul\":11292:11298   */\n      dup4\n        /* \"#utility.yul\":11285:11349   */\n      sstore\n        /* \"#utility.yul\":11200:11363   */\n      pop\n        /* \"#utility.yul\":11177:11363   */\n    tag_228:\n        /* \"#utility.yul\":11409:11410   */\n      0x01\n        /* \"#utility.yul\":11405:11406   */\n      0x02\n        /* \"#utility.yul\":11397:11403   */\n      dup9\n        /* \"#utility.yul\":11393:11407   */\n      mul\n        /* \"#utility.yul\":11389:11411   */\n      add\n        /* \"#utility.yul\":11383:11387   */\n      dup9\n        /* \"#utility.yul\":11376:11412   */\n      sstore\n        /* \"#utility.yul\":10797:11422   */\n      pop\n      pop\n      pop\n        /* \"#utility.yul\":10760:11668   */\n    tag_220:\n      pop\n        /* \"#utility.yul\":10370:11674   */\n      pop\n      pop\n      pop\n        /* \"#utility.yul\":10271:11674   */\n      pop\n      pop\n      pop\n      jump\t// out\n        /* \"#utility.yul\":11680:11828   */\n    tag_97:\n        /* \"#utility.yul\":11778:11784   */\n      dup3\n        /* \"#utility.yul\":11773:11776   */\n      dup2\n        /* \"#utility.yul\":11768:11771   */\n      dup4\n        /* \"#utility.yul\":11755:11785   */\n      calldatacopy\n        /* \"#utility.yul\":11819:11820   */\n      0x00\n        /* \"#utility.yul\":11810:11816   */\n      dup4\n        /* \"#utility.yul\":11805:11808   */\n      dup4\n        /* \"#utility.yul\":11801:11817   */\n      add\n        /* \"#utility.yul\":11794:11821   */\n      mstore\n        /* \"#utility.yul\":11680:11828   */\n      pop\n      pop\n      pop\n      jump\t// out\n        /* \"#utility.yul\":11858:12175   */\n    tag_98:\n        /* \"#utility.yul\":11956:11959   */\n      0x00\n        /* \"#utility.yul\":11977:12048   */\n      tag_232\n        /* \"#utility.yul\":12041:12047   */\n      dup4\n        /* \"#utility.yul\":12036:12039   */\n      dup6\n        /* \"#utility.yul\":11977:12048   */\n      tag_58\n      jump\t// in\n    tag_232:\n        /* \"#utility.yul\":11970:12048   */\n      swap4\n      pop\n        /* \"#utility.yul\":12058:12114   */\n      tag_233\n        /* \"#utility.yul\":12107:12113   */\n      dup4\n        /* \"#utility.yul\":12102:12105   */\n      dup6\n        /* \"#utility.yul\":12095:12100   */\n      dup5\n        /* \"#utility.yul\":12058:12114   */\n      tag_97\n      jump\t// in\n    tag_233:\n        /* \"#utility.yul\":12139:12168   */\n      tag_234\n        /* \"#utility.yul\":12161:12167   */\n      dup4\n        /* \"#utility.yul\":12139:12168   */\n      tag_60\n      jump\t// in\n    tag_234:\n        /* \"#utility.yul\":12134:12137   */\n      dup5\n        /* \"#utility.yul\":12130:12169   */\n      add\n        /* \"#utility.yul\":12123:12169   */\n      swap1\n      pop\n        /* \"#utility.yul\":11858:12175   */\n      swap4\n      swap3\n      pop\n      pop\n      pop\n      jump\t// out\n        /* \"#utility.yul\":12181:12940   */\n    tag_48:\n        /* \"#utility.yul\":12408:12412   */\n      0x00\n        /* \"#utility.yul\":12446:12449   */\n      0xa0\n        /* \"#utility.yul\":12435:12444   */\n      dup3\n        /* \"#utility.yul\":12431:12450   */\n      add\n        /* \"#utility.yul\":12423:12450   */\n      swap1\n      pop\n        /* \"#utility.yul\":12460:12531   */\n      tag_236\n        /* \"#utility.yul\":12528:12529   */\n      0x00\n        /* \"#utility.yul\":12517:12526   */\n      dup4\n        /* \"#utility.yul\":12513:12530   */\n      add\n        /* \"#utility.yul\":12504:12510   */\n      dup10\n        /* \"#utility.yul\":12460:12531   */\n      tag_77\n      jump\t// in\n    tag_236:\n        /* \"#utility.yul\":12541:12607   */\n      tag_237\n        /* \"#utility.yul\":12603:12605   */\n      0x20\n        /* \"#utility.yul\":12592:12601   */\n      dup4\n        /* \"#utility.yul\":12588:12606   */\n      add\n        /* \"#utility.yul\":12579:12585   */\n      dup9\n        /* \"#utility.yul\":12541:12607   */\n      tag_56\n      jump\t// in\n    tag_237:\n        /* \"#utility.yul\":12617:12689   */\n      tag_238\n        /* \"#utility.yul\":12685:12687   */\n      0x40\n        /* \"#utility.yul\":12674:12683   */\n      dup4\n        /* \"#utility.yul\":12670:12688   */\n      add\n        /* \"#utility.yul\":12661:12667   */\n      dup8\n        /* \"#utility.yul\":12617:12689   */\n      tag_77\n      jump\t// in\n    tag_238:\n        /* \"#utility.yul\":12699:12769   */\n      tag_239\n        /* \"#utility.yul\":12765:12767   */\n      0x60\n        /* \"#utility.yul\":12754:12763   */\n      dup4\n        /* \"#utility.yul\":12750:12768   */\n      add\n        /* \"#utility.yul\":12741:12747   */\n      dup7\n        /* \"#utility.yul\":12699:12769   */\n      tag_78\n      jump\t// in\n    tag_239:\n        /* \"#utility.yul\":12817:12826   */\n      dup2\n        /* \"#utility.yul\":12811:12815   */\n      dup2\n        /* \"#utility.yul\":12807:12827   */\n      sub\n        /* \"#utility.yul\":12801:12804   */\n      0x80\n        /* \"#utility.yul\":12790:12799   */\n      dup4\n        /* \"#utility.yul\":12786:12805   */\n      add\n        /* \"#utility.yul\":12779:12828   */\n      mstore\n        /* \"#utility.yul\":12845:12933   */\n      tag_240\n        /* \"#utility.yul\":12928:12932   */\n      dup2\n        /* \"#utility.yul\":12919:12925   */\n      dup5\n        /* \"#utility.yul\":12911:12917   */\n      dup7\n        /* \"#utility.yul\":12845:12933   */\n      tag_98\n      jump\t// in\n    tag_240:\n        /* \"#utility.yul\":12837:12933   */\n      swap1\n      pop\n        /* \"#utility.yul\":12181:12940   */\n      swap8\n      swap7\n      pop\n      pop\n      pop\n      pop\n      pop\n      pop\n      pop\n      jump\t// out\n\n    auxdata: 0xa2646970667358221220ba28e3cdfff2d04f66a0d623e8095ecb1cd2bb2920da468ca7bbabea2c33608764736f6c634300081e0033\n}\n",
				"bytecode": {
					"linkReferences": {},
					"object": "6080604052348015600e575f5ffd5b50610a568061001c5f395ff3fe608060405234801561000f575f5ffd5b506004361061007b575f3560e01c80637bf4fdd0116100595780637bf4fdd0146100d75780638fa952cc146100f9578063a69e1bd214610117578063c8d95007146101355761007b565b80630a6cda6a1461007f5780630fa5b22e1461009d5780633fa337f4146100bb575b5f5ffd5b610087610153565b6040516100949190610389565b60405180910390f35b6100a5610165565b6040516100b29190610412565b60405180910390f35b6100d560048036038101906100d0919061054d565b6101f1565b005b6100df61028c565b6040516100f0959493929190610601565b60405180910390f35b610101610352565b60405161010e9190610659565b60405180910390f35b61011f610357565b60405161012c9190610659565b60405180910390f35b61013d61035d565b60405161014a9190610672565b60405180910390f35b60015f9054906101000a900460ff1681565b60048054610172906106b8565b80601f016020809104026020016040519081016040528092919081815260200182805461019e906106b8565b80156101e95780601f106101c0576101008083540402835291602001916101e9565b820191905f5260205f20905b8154815290600101906020018083116101cc57829003601f168201915b505050505081565b855f819055508460015f6101000a81548160ff021916908315150217905550836002819055508260035f6101000a81548160ff021916908360f81c02179055508181600491826102429291906108bf565b507f2e83361a0961e56f4bd6852895ffe1056619b4cf3d1d0a7ba4f987e24763ee5b86868686868660405161027c969594939291906109c6565b60405180910390a1505050505050565b5f5f5f5f60605f5460015f9054906101000a900460ff1660025460035f9054906101000a900460f81b60048080546102c3906106b8565b80601f01602080910402602001604051908101604052809291908181526020018280546102ef906106b8565b801561033a5780601f106103115761010080835404028352916020019161033a565b820191905f5260205f20905b81548152906001019060200180831161031d57829003601f168201915b50505050509050945094509450945094509091929394565b5f5481565b60025481565b60035f9054906101000a900460f81b81565b5f8115159050919050565b6103838161036f565b82525050565b5f60208201905061039c5f83018461037a565b92915050565b5f81519050919050565b5f82825260208201905092915050565b8281835e5f83830152505050565b5f601f19601f8301169050919050565b5f6103e4826103a2565b6103ee81856103ac565b93506103fe8185602086016103bc565b610407816103ca565b840191505092915050565b5f6020820190508181035f83015261042a81846103da565b905092915050565b5f5ffd5b5f5ffd5b5f819050919050565b61044c8161043a565b8114610456575f5ffd5b50565b5f8135905061046781610443565b92915050565b6104768161036f565b8114610480575f5ffd5b50565b5f813590506104918161046d565b92915050565b5f7fff0000000000000000000000000000000000000000000000000000000000000082169050919050565b6104cb81610497565b81146104d5575f5ffd5b50565b5f813590506104e6816104c2565b92915050565b5f5ffd5b5f5ffd5b5f5ffd5b5f5f83601f84011261050d5761050c6104ec565b5b8235905067ffffffffffffffff81111561052a576105296104f0565b5b602083019150836001820283011115610546576105456104f4565b5b9250929050565b5f5f5f5f5f5f60a0878903121561056757610566610432565b5b5f61057489828a01610459565b965050602061058589828a01610483565b955050604061059689828a01610459565b94505060606105a789828a016104d8565b935050608087013567ffffffffffffffff8111156105c8576105c7610436565b5b6105d489828a016104f8565b92509250509295509295509295565b6105ec8161043a565b82525050565b6105fb81610497565b82525050565b5f60a0820190506106145f8301886105e3565b610621602083018761037a565b61062e60408301866105e3565b61063b60608301856105f2565b818103608083015261064d81846103da565b90509695505050505050565b5f60208201905061066c5f8301846105e3565b92915050565b5f6020820190506106855f8301846105f2565b92915050565b7f4e487b71000000000000000000000000000000000000000000000000000000005f52602260045260245ffd5b5f60028204905060018216806106cf57607f821691505b6020821081036106e2576106e161068b565b5b50919050565b5f82905092915050565b7f4e487b71000000000000000000000000000000000000000000000000000000005f52604160045260245ffd5b5f819050815f5260205f209050919050565b5f6020601f8301049050919050565b5f82821b905092915050565b5f6008830261077b7fffffffffffffffffffffffffffffffffffffffffffffffffffffffffffffffff82610740565b6107858683610740565b95508019841693508086168417925050509392505050565b5f819050919050565b5f6107c06107bb6107b68461043a565b61079d565b61043a565b9050919050565b5f819050919050565b6107d9836107a6565b6107ed6107e5826107c7565b84845461074c565b825550505050565b5f5f905090565b6108046107f5565b61080f8184846107d0565b505050565b5b81811015610832576108275f826107fc565b600181019050610815565b5050565b601f821115610877576108488161071f565b61085184610731565b81016020851015610860578190505b61087461086c85610731565b830182610814565b50505b505050565b5f82821c905092915050565b5f6108975f198460080261087c565b1980831691505092915050565b5f6108af8383610888565b9150826002028217905092915050565b6108c983836106e8565b67ffffffffffffffff8111156108e2576108e16106f2565b5b6108ec82546106b8565b6108f7828285610836565b5f601f831160018114610924575f8415610912578287013590505b61091c85826108a4565b865550610983565b601f1984166109328661071f565b5f5b8281101561095957848901358255600182019150602085019450602081019050610934565b868310156109765784890135610972601f891682610888565b8355505b6001600288020188555050505b50505050505050565b828183375f83830152505050565b5f6109a583856103ac565b93506109b283858461098c565b6109bb836103ca565b840190509392505050565b5f60a0820190506109d95f8301896105e3565b6109e6602083018861037a565b6109f360408301876105e3565b610a0060608301866105f2565b8181036080830152610a1381848661099a565b905097965050505050505056fea2646970667358221220ba28e3cdfff2d04f66a0d623e8095ecb1cd2bb2920da468ca7bbabea2c33608764736f6c634300081e0033",
					"opcodes": "PUSH1 0x80 PUSH1 0x40 MSTORE CALLVALUE DUP1 ISZERO PUSH1 0xE JUMPI PUSH0 PUSH0 REVERT JUMPDEST POP PUSH2 0xA56 DUP1 PUSH2 0x1C PUSH0 CODECOPY PUSH0 RETURN INVALID PUSH1 0x80 PUSH1 0x40 MSTORE CALLVALUE DUP1 ISZERO PUSH2 0xF JUMPI PUSH0 PUSH0 REVERT JUMPDEST POP PUSH1 0x4 CALLDATASIZE LT PUSH2 0x7B JUMPI PUSH0 CALLDATALOAD PUSH1 0xE0 SHR DUP1 PUSH4 0x7BF4FDD0 GT PUSH2 0x59 JUMPI DUP1 PUSH4 0x7BF4FDD0 EQ PUSH2 0xD7 JUMPI DUP1 PUSH4 0x8FA952CC EQ PUSH2 0xF9 JUMPI DUP1 PUSH4 0xA69E1BD2 EQ PUSH2 0x117 JUMPI DUP1 PUSH4 0xC8D95007 EQ PUSH2 0x135 JUMPI PUSH2 0x7B JUMP JUMPDEST DUP1 PUSH4 0xA6CDA6A EQ PUSH2 0x7F JUMPI DUP1 PUSH4 0xFA5B22E EQ PUSH2 0x9D JUMPI DUP1 PUSH4 0x3FA337F4 EQ PUSH2 0xBB JUMPI JUMPDEST PUSH0 PUSH0 REVERT JUMPDEST PUSH2 0x87 PUSH2 0x153 JUMP JUMPDEST PUSH1 0x40 MLOAD PUSH2 0x94 SWAP2 SWAP1 PUSH2 0x389 JUMP JUMPDEST PUSH1 0x40 MLOAD DUP1 SWAP2 SUB SWAP1 RETURN JUMPDEST PUSH2 0xA5 PUSH2 0x165 JUMP JUMPDEST PUSH1 0x40 MLOAD PUSH2 0xB2 SWAP2 SWAP1 PUSH2 0x412 JUMP JUMPDEST PUSH1 0x40 MLOAD DUP1 SWAP2 SUB SWAP1 RETURN JUMPDEST PUSH2 0xD5 PUSH1 0x4 DUP1 CALLDATASIZE SUB DUP2 ADD SWAP1 PUSH2 0xD0 SWAP2 SWAP1 PUSH2 0x54D JUMP JUMPDEST PUSH2 0x1F1 JUMP JUMPDEST STOP JUMPDEST PUSH2 0xDF PUSH2 0x28C JUMP JUMPDEST PUSH1 0x40 MLOAD PUSH2 0xF0 SWAP6 SWAP5 SWAP4 SWAP3 SWAP2 SWAP1 PUSH2 0x601 JUMP JUMPDEST PUSH1 0x40 MLOAD DUP1 SWAP2 SUB SWAP1 RETURN JUMPDEST PUSH2 0x101 PUSH2 0x352 JUMP JUMPDEST PUSH1 0x40 MLOAD PUSH2 0x10E SWAP2 SWAP1 PUSH2 0x659 JUMP JUMPDEST PUSH1 0x40 MLOAD DUP1 SWAP2 SUB SWAP1 RETURN JUMPDEST PUSH2 0x11F PUSH2 0x357 JUMP JUMPDEST PUSH1 0x40 MLOAD PUSH2 0x12C SWAP2 SWAP1 PUSH2 0x659 JUMP JUMPDEST PUSH1 0x40 MLOAD DUP1 SWAP2 SUB SWAP1 RETURN JUMPDEST PUSH2 0x13D PUSH2 0x35D JUMP JUMPDEST PUSH1 0x40 MLOAD PUSH2 0x14A SWAP2 SWAP1 PUSH2 0x672 JUMP JUMPDEST PUSH1 0x40 MLOAD DUP1 SWAP2 SUB SWAP1 RETURN JUMPDEST PUSH1 0x1 PUSH0 SWAP1 SLOAD SWAP1 PUSH2 0x100 EXP SWAP1 DIV PUSH1 0xFF AND DUP2 JUMP JUMPDEST PUSH1 0x4 DUP1 SLOAD PUSH2 0x172 SWAP1 PUSH2 0x6B8 JUMP JUMPDEST DUP1 PUSH1 0x1F ADD PUSH1 0x20 DUP1 SWAP2 DIV MUL PUSH1 0x20 ADD PUSH1 0x40 MLOAD SWAP1 DUP2 ADD PUSH1 0x40 MSTORE DUP1 SWAP3 SWAP2 SWAP1 DUP2 DUP2 MSTORE PUSH1 0x20 ADD DUP3 DUP1 SLOAD PUSH2 0x19E SWAP1 PUSH2 0x6B8 JUMP JUMPDEST DUP1 ISZERO PUSH2 0x1E9 JUMPI DUP1 PUSH1 0x1F LT PUSH2 0x1C0 JUMPI PUSH2 0x100 DUP1 DUP4 SLOAD DIV MUL DUP4 MSTORE SWAP2 PUSH1 0x20 ADD SWAP2 PUSH2 0x1E9 JUMP JUMPDEST DUP3 ADD SWAP2 SWAP1 PUSH0 MSTORE PUSH1 0x20 PUSH0 KECCAK256 SWAP1 JUMPDEST DUP2 SLOAD DUP2 MSTORE SWAP1 PUSH1 0x1 ADD SWAP1 PUSH1 0x20 ADD DUP1 DUP4 GT PUSH2 0x1CC JUMPI DUP3 SWAP1 SUB PUSH1 0x1F AND DUP3 ADD SWAP2 JUMPDEST POP POP POP POP POP DUP2 JUMP JUMPDEST DUP6 PUSH0 DUP2 SWAP1 SSTORE POP DUP5 PUSH1 0x1 PUSH0 PUSH2 0x100 EXP DUP2 SLOAD DUP2 PUSH1 0xFF MUL NOT AND SWAP1 DUP4 ISZERO ISZERO MUL OR SWAP1 SSTORE POP DUP4 PUSH1 0x2 DUP2 SWAP1 SSTORE POP DUP3 PUSH1 0x3 PUSH0 PUSH2 0x100 EXP DUP2 SLOAD DUP2 PUSH1 0xFF MUL NOT AND SWAP1 DUP4 PUSH1 0xF8 SHR MUL OR SWAP1 SSTORE POP DUP2 DUP2 PUSH1 0x4 SWAP2 DUP3 PUSH2 0x242 SWAP3 SWAP2 SWAP1 PUSH2 0x8BF JUMP JUMPDEST POP PUSH32 0x2E83361A0961E56F4BD6852895FFE1056619B4CF3D1D0A7BA4F987E24763EE5B DUP7 DUP7 DUP7 DUP7 DUP7 DUP7 PUSH1 0x40 MLOAD PUSH2 0x27C SWAP7 SWAP6 SWAP5 SWAP4 SWAP3 SWAP2 SWAP1 PUSH2 0x9C6 JUMP JUMPDEST PUSH1 0x40 MLOAD DUP1 SWAP2 SUB SWAP1 LOG1 POP POP POP POP POP POP JUMP JUMPDEST PUSH0 PUSH0 PUSH0 PUSH0 PUSH1 0x60 PUSH0 SLOAD PUSH1 0x1 PUSH0 SWAP1 SLOAD SWAP1 PUSH2 0x100 EXP SWAP1 DIV PUSH1 0xFF AND PUSH1 0x2 SLOAD PUSH1 0x3 PUSH0 SWAP1 SLOAD SWAP1 PUSH2 0x100 EXP SWAP1 DIV PUSH1 0xF8 SHL PUSH1 0x4 DUP1 DUP1 SLOAD PUSH2 0x2C3 SWAP1 PUSH2 0x6B8 JUMP JUMPDEST DUP1 PUSH1 0x1F ADD PUSH1 0x20 DUP1 SWAP2 DIV MUL PUSH1 0x20 ADD PUSH1 0x40 MLOAD SWAP1 DUP2 ADD PUSH1 0x40 MSTORE DUP1 SWAP3 SWAP2 SWAP1 DUP2 DUP2 MSTORE PUSH1 0x20 ADD DUP3 DUP1 SLOAD PUSH2 0x2EF SWAP1 PUSH2 0x6B8 JUMP JUMPDEST DUP1 ISZERO PUSH2 0x33A JUMPI DUP1 PUSH1 0x1F LT PUSH2 0x311 JUMPI PUSH2 0x100 DUP1 DUP4 SLOAD DIV MUL DUP4 MSTORE SWAP2 PUSH1 0x20 ADD SWAP2 PUSH2 0x33A JUMP JUMPDEST DUP3 ADD SWAP2 SWAP1 PUSH0 MSTORE PUSH1 0x20 PUSH0 KECCAK256 SWAP1 JUMPDEST DUP2 SLOAD DUP2 MSTORE SWAP1 PUSH1 0x1 ADD SWAP1 PUSH1 0x20 ADD DUP1 DUP4 GT PUSH2 0x31D JUMPI DUP3 SWAP1 SUB PUSH1 0x1F AND DUP3 ADD SWAP2 JUMPDEST POP POP POP POP POP SWAP1 POP SWAP5 POP SWAP5 POP SWAP5 POP SWAP5 POP SWAP5 POP SWAP1 SWAP2 SWAP3 SWAP4 SWAP5 JUMP JUMPDEST PUSH0 SLOAD DUP2 JUMP JUMPDEST PUSH1 0x2 SLOAD DUP2 JUMP JUMPDEST PUSH1 0x3 PUSH0 SWAP1 SLOAD SWAP1 PUSH2 0x100 EXP SWAP1 DIV PUSH1 0xF8 SHL DUP2 JUMP JUMPDEST PUSH0 DUP2 ISZERO ISZERO SWAP1 POP SWAP2 SWAP1 POP JUMP JUMPDEST PUSH2 0x383 DUP2 PUSH2 0x36F JUMP JUMPDEST DUP3 MSTORE POP POP JUMP JUMPDEST PUSH0 PUSH1 0x20 DUP3 ADD SWAP1 POP PUSH2 0x39C PUSH0 DUP4 ADD DUP5 PUSH2 0x37A JUMP JUMPDEST SWAP3 SWAP2 POP POP JUMP JUMPDEST PUSH0 DUP2 MLOAD SWAP1 POP SWAP2 SWAP1 POP JUMP JUMPDEST PUSH0 DUP3 DUP3 MSTORE PUSH1 0x20 DUP3 ADD SWAP1 POP SWAP3 SWAP2 POP POP JUMP JUMPDEST DUP3 DUP2 DUP4 MCOPY PUSH0 DUP4 DUP4 ADD MSTORE POP POP POP JUMP JUMPDEST PUSH0 PUSH1 0x1F NOT PUSH1 0x1F DUP4 ADD AND SWAP1 POP SWAP2 SWAP1 POP JUMP JUMPDEST PUSH0 PUSH2 0x3E4 DUP3 PUSH2 0x3A2 JUMP JUMPDEST PUSH2 0x3EE DUP2 DUP6 PUSH2 0x3AC JUMP JUMPDEST SWAP4 POP PUSH2 0x3FE DUP2 DUP6 PUSH1 0x20 DUP7 ADD PUSH2 0x3BC JUMP JUMPDEST PUSH2 0x407 DUP2 PUSH2 0x3CA JUMP JUMPDEST DUP5 ADD SWAP2 POP POP SWAP3 SWAP2 POP POP JUMP JUMPDEST PUSH0 PUSH1 0x20 DUP3 ADD SWAP1 POP DUP2 DUP2 SUB PUSH0 DUP4 ADD MSTORE PUSH2 0x42A DUP2 DUP5 PUSH2 0x3DA JUMP JUMPDEST SWAP1 POP SWAP3 SWAP2 POP POP JUMP JUMPDEST PUSH0 PUSH0 REVERT JUMPDEST PUSH0 PUSH0 REVERT JUMPDEST PUSH0 DUP2 SWAP1 POP SWAP2 SWAP1 POP JUMP JUMPDEST PUSH2 0x44C DUP2 PUSH2 0x43A JUMP JUMPDEST DUP2 EQ PUSH2 0x456 JUMPI PUSH0 PUSH0 REVERT JUMPDEST POP JUMP JUMPDEST PUSH0 DUP2 CALLDATALOAD SWAP1 POP PUSH2 0x467 DUP2 PUSH2 0x443 JUMP JUMPDEST SWAP3 SWAP2 POP POP JUMP JUMPDEST PUSH2 0x476 DUP2 PUSH2 0x36F JUMP JUMPDEST DUP2 EQ PUSH2 0x480 JUMPI PUSH0 PUSH0 REVERT JUMPDEST POP JUMP JUMPDEST PUSH0 DUP2 CALLDATALOAD SWAP1 POP PUSH2 0x491 DUP2 PUSH2 0x46D JUMP JUMPDEST SWAP3 SWAP2 POP POP JUMP JUMPDEST PUSH0 PUSH32 0xFF00000000000000000000000000000000000000000000000000000000000000 DUP3 AND SWAP1 POP SWAP2 SWAP1 POP JUMP JUMPDEST PUSH2 0x4CB DUP2 PUSH2 0x497 JUMP JUMPDEST DUP2 EQ PUSH2 0x4D5 JUMPI PUSH0 PUSH0 REVERT JUMPDEST POP JUMP JUMPDEST PUSH0 DUP2 CALLDATALOAD SWAP1 POP PUSH2 0x4E6 DUP2 PUSH2 0x4C2 JUMP JUMPDEST SWAP3 SWAP2 POP POP JUMP JUMPDEST PUSH0 PUSH0 REVERT JUMPDEST PUSH0 PUSH0 REVERT JUMPDEST PUSH0 PUSH0 REVERT JUMPDEST PUSH0 PUSH0 DUP4 PUSH1 0x1F DUP5 ADD SLT PUSH2 0x50D JUMPI PUSH2 0x50C PUSH2 0x4EC JUMP JUMPDEST JUMPDEST DUP3 CALLDATALOAD SWAP1 POP PUSH8 0xFFFFFFFFFFFFFFFF DUP2 GT ISZERO PUSH2 0x52A JUMPI PUSH2 0x529 PUSH2 0x4F0 JUMP JUMPDEST JUMPDEST PUSH1 0x20 DUP4 ADD SWAP2 POP DUP4 PUSH1 0x1 DUP3 MUL DUP4 ADD GT ISZERO PUSH2 0x546 JUMPI PUSH2 0x545 PUSH2 0x4F4 JUMP JUMPDEST JUMPDEST SWAP3 POP SWAP3 SWAP1 POP JUMP JUMPDEST PUSH0 PUSH0 PUSH0 PUSH0 PUSH0 PUSH0 PUSH1 0xA0 DUP8 DUP10 SUB SLT ISZERO PUSH2 0x567 JUMPI PUSH2 0x566 PUSH2 0x432 JUMP JUMPDEST JUMPDEST PUSH0 PUSH2 0x574 DUP10 DUP3 DUP11 ADD PUSH2 0x459 JUMP JUMPDEST SWAP7 POP POP PUSH1 0x20 PUSH2 0x585 DUP10 DUP3 DUP11 ADD PUSH2 0x483 JUMP JUMPDEST SWAP6 POP POP PUSH1 0x40 PUSH2 0x596 DUP10 DUP3 DUP11 ADD PUSH2 0x459 JUMP JUMPDEST SWAP5 POP POP PUSH1 0x60 PUSH2 0x5A7 DUP10 DUP3 DUP11 ADD PUSH2 0x4D8 JUMP JUMPDEST SWAP4 POP POP PUSH1 0x80 DUP8 ADD CALLDATALOAD PUSH8 0xFFFFFFFFFFFFFFFF DUP2 GT ISZERO PUSH2 0x5C8 JUMPI PUSH2 0x5C7 PUSH2 0x436 JUMP JUMPDEST JUMPDEST PUSH2 0x5D4 DUP10 DUP3 DUP11 ADD PUSH2 0x4F8 JUMP JUMPDEST SWAP3 POP SWAP3 POP POP SWAP3 SWAP6 POP SWAP3 SWAP6 POP SWAP3 SWAP6 JUMP JUMPDEST PUSH2 0x5EC DUP2 PUSH2 0x43A JUMP JUMPDEST DUP3 MSTORE POP POP JUMP JUMPDEST PUSH2 0x5FB DUP2 PUSH2 0x497 JUMP JUMPDEST DUP3 MSTORE POP POP JUMP JUMPDEST PUSH0 PUSH1 0xA0 DUP3 ADD SWAP1 POP PUSH2 0x614 PUSH0 DUP4 ADD DUP9 PUSH2 0x5E3 JUMP JUMPDEST PUSH2 0x621 PUSH1 0x20 DUP4 ADD DUP8 PUSH2 0x37A JUMP JUMPDEST PUSH2 0x62E PUSH1 0x40 DUP4 ADD DUP7 PUSH2 0x5E3 JUMP JUMPDEST PUSH2 0x63B PUSH1 0x60 DUP4 ADD DUP6 PUSH2 0x5F2 JUMP JUMPDEST DUP2 DUP2 SUB PUSH1 0x80 DUP4 ADD MSTORE PUSH2 0x64D DUP2 DUP5 PUSH2 0x3DA JUMP JUMPDEST SWAP1 POP SWAP7 SWAP6 POP POP POP POP POP POP JUMP JUMPDEST PUSH0 PUSH1 0x20 DUP3 ADD SWAP1 POP PUSH2 0x66C PUSH0 DUP4 ADD DUP5 PUSH2 0x5E3 JUMP JUMPDEST SWAP3 SWAP2 POP POP JUMP JUMPDEST PUSH0 PUSH1 0x20 DUP3 ADD SWAP1 POP PUSH2 0x685 PUSH0 DUP4 ADD DUP5 PUSH2 0x5F2 JUMP JUMPDEST SWAP3 SWAP2 POP POP JUMP JUMPDEST PUSH32 0x4E487B7100000000000000000000000000000000000000000000000000000000 PUSH0 MSTORE PUSH1 0x22 PUSH1 0x4 MSTORE PUSH1 0x24 PUSH0 REVERT JUMPDEST PUSH0 PUSH1 0x2 DUP3 DIV SWAP1 POP PUSH1 0x1 DUP3 AND DUP1 PUSH2 0x6CF JUMPI PUSH1 0x7F DUP3 AND SWAP2 POP JUMPDEST PUSH1 0x20 DUP3 LT DUP2 SUB PUSH2 0x6E2 JUMPI PUSH2 0x6E1 PUSH2 0x68B JUMP JUMPDEST JUMPDEST POP SWAP2 SWAP1 POP JUMP JUMPDEST PUSH0 DUP3 SWAP1 POP SWAP3 SWAP2 POP POP JUMP JUMPDEST PUSH32 0x4E487B7100000000000000000000000000000000000000000000000000000000 PUSH0 MSTORE PUSH1 0x41 PUSH1 0x4 MSTORE PUSH1 0x24 PUSH0 REVERT JUMPDEST PUSH0 DUP2 SWAP1 POP DUP2 PUSH0 MSTORE PUSH1 0x20 PUSH0 KECCAK256 SWAP1 POP SWAP2 SWAP1 POP JUMP JUMPDEST PUSH0 PUSH1 0x20 PUSH1 0x1F DUP4 ADD DIV SWAP1 POP SWAP2 SWAP1 POP JUMP JUMPDEST PUSH0 DUP3 DUP3 SHL SWAP1 POP SWAP3 SWAP2 POP POP JUMP JUMPDEST PUSH0 PUSH1 0x8 DUP4 MUL PUSH2 0x77B PUSH32 0xFFFFFFFFFFFFFFFFFFFFFFFFFFFFFFFFFFFFFFFFFFFFFFFFFFFFFFFFFFFFFFFF DUP3 PUSH2 0x740 JUMP JUMPDEST PUSH2 0x785 DUP7 DUP4 PUSH2 0x740 JUMP JUMPDEST SWAP6 POP DUP1 NOT DUP5 AND SWAP4 POP DUP1 DUP7 AND DUP5 OR SWAP3 POP POP POP SWAP4 SWAP3 POP POP POP JUMP JUMPDEST PUSH0 DUP2 SWAP1 POP SWAP2 SWAP1 POP JUMP JUMPDEST PUSH0 PUSH2 0x7C0 PUSH2 0x7BB PUSH2 0x7B6 DUP5 PUSH2 0x43A JUMP JUMPDEST PUSH2 0x79D JUMP JUMPDEST PUSH2 0x43A JUMP JUMPDEST SWAP1 POP SWAP2 SWAP1 POP JUMP JUMPDEST PUSH0 DUP2 SWAP1 POP SWAP2 SWAP1 POP JUMP JUMPDEST PUSH2 0x7D9 DUP4 PUSH2 0x7A6 JUMP JUMPDEST PUSH2 0x7ED PUSH2 0x7E5 DUP3 PUSH2 0x7C7 JUMP JUMPDEST DUP5 DUP5 SLOAD PUSH2 0x74C JUMP JUMPDEST DUP3 SSTORE POP POP POP POP JUMP JUMPDEST PUSH0 PUSH0 SWAP1 POP SWAP1 JUMP JUMPDEST PUSH2 0x804 PUSH2 0x7F5 JUMP JUMPDEST PUSH2 0x80F DUP2 DUP5 DUP5 PUSH2 0x7D0 JUMP JUMPDEST POP POP POP JUMP JUMPDEST JUMPDEST DUP2 DUP2 LT ISZERO PUSH2 0x832 JUMPI PUSH2 0x827 PUSH0 DUP3 PUSH2 0x7FC JUMP JUMPDEST PUSH1 0x1 DUP2 ADD SWAP1 POP PUSH2 0x815 JUMP JUMPDEST POP POP JUMP JUMPDEST PUSH1 0x1F DUP3 GT ISZERO PUSH2 0x877 JUMPI PUSH2 0x848 DUP2 PUSH2 0x71F JUMP JUMPDEST PUSH2 0x851 DUP5 PUSH2 0x731 JUMP JUMPDEST DUP2 ADD PUSH1 0x20 DUP6 LT ISZERO PUSH2 0x860 JUMPI DUP2 SWAP1 POP JUMPDEST PUSH2 0x874 PUSH2 0x86C DUP6 PUSH2 0x731 JUMP JUMPDEST DUP4 ADD DUP3 PUSH2 0x814 JUMP JUMPDEST POP POP JUMPDEST POP POP POP JUMP JUMPDEST PUSH0 DUP3 DUP3 SHR SWAP1 POP SWAP3 SWAP2 POP POP JUMP JUMPDEST PUSH0 PUSH2 0x897 PUSH0 NOT DUP5 PUSH1 0x8 MUL PUSH2 0x87C JUMP JUMPDEST NOT DUP1 DUP4 AND SWAP2 POP POP SWAP3 SWAP2 POP POP JUMP JUMPDEST PUSH0 PUSH2 0x8AF DUP4 DUP4 PUSH2 0x888 JUMP JUMPDEST SWAP2 POP DUP3 PUSH1 0x2 MUL DUP3 OR SWAP1 POP SWAP3 SWAP2 POP POP JUMP JUMPDEST PUSH2 0x8C9 DUP4 DUP4 PUSH2 0x6E8 JUMP JUMPDEST PUSH8 0xFFFFFFFFFFFFFFFF DUP2 GT ISZERO PUSH2 0x8E2 JUMPI PUSH2 0x8E1 PUSH2 0x6F2 JUMP JUMPDEST JUMPDEST PUSH2 0x8EC DUP3 SLOAD PUSH2 0x6B8 JUMP JUMPDEST PUSH2 0x8F7 DUP3 DUP3 DUP6 PUSH2 0x836 JUMP JUMPDEST PUSH0 PUSH1 0x1F DUP4 GT PUSH1 0x1 DUP2 EQ PUSH2 0x924 JUMPI PUSH0 DUP5 ISZERO PUSH2 0x912 JUMPI DUP3 DUP8 ADD CALLDATALOAD SWAP1 POP JUMPDEST PUSH2 0x91C DUP6 DUP3 PUSH2 0x8A4 JUMP JUMPDEST DUP7 SSTORE POP PUSH2 0x983 JUMP JUMPDEST PUSH1 0x1F NOT DUP5 AND PUSH2 0x932 DUP7 PUSH2 0x71F JUMP JUMPDEST PUSH0 JUMPDEST DUP3 DUP2 LT ISZERO PUSH2 0x959 JUMPI DUP5 DUP10 ADD CALLDATALOAD DUP3 SSTORE PUSH1 0x1 DUP3 ADD SWAP2 POP PUSH1 0x20 DUP6 ADD SWAP5 POP PUSH1 0x20 DUP2 ADD SWAP1 POP PUSH2 0x934 JUMP JUMPDEST DUP7 DUP4 LT ISZERO PUSH2 0x976 JUMPI DUP5 DUP10 ADD CALLDATALOAD PUSH2 0x972 PUSH1 0x1F DUP10 AND DUP3 PUSH2 0x888 JUMP JUMPDEST DUP4 SSTORE POP JUMPDEST PUSH1 0x1 PUSH1 0x2 DUP9 MUL ADD DUP9 SSTORE POP POP POP JUMPDEST POP POP POP POP POP POP POP JUMP JUMPDEST DUP3 DUP2 DUP4 CALLDATACOPY PUSH0 DUP4 DUP4 ADD MSTORE POP POP POP JUMP JUMPDEST PUSH0 PUSH2 0x9A5 DUP4 DUP6 PUSH2 0x3AC JUMP JUMPDEST SWAP4 POP PUSH2 0x9B2 DUP4 DUP6 DUP5 PUSH2 0x98C JUMP JUMPDEST PUSH2 0x9BB DUP4 PUSH2 0x3CA JUMP JUMPDEST DUP5 ADD SWAP1 POP SWAP4 SWAP3 POP POP POP JUMP JUMPDEST PUSH0 PUSH1 0xA0 DUP3 ADD SWAP1 POP PUSH2 0x9D9 PUSH0 DUP4 ADD DUP10 PUSH2 0x5E3 JUMP JUMPDEST PUSH2 0x9E6 PUSH1 0x20 DUP4 ADD DUP9 PUSH2 0x37A JUMP JUMPDEST PUSH2 0x9F3 PUSH1 0x40 DUP4 ADD DUP8 PUSH2 0x5E3 JUMP JUMPDEST PUSH2 0xA00 PUSH1 0x60 DUP4 ADD DUP7 PUSH2 0x5F2 JUMP JUMPDEST DUP2 DUP2 SUB PUSH1 0x80 DUP4 ADD MSTORE PUSH2 0xA13 DUP2 DUP5 DUP7 PUSH2 0x99A JUMP JUMPDEST SWAP1 POP SWAP8 SWAP7 POP POP POP POP POP POP POP JUMP INVALID LOG2 PUSH5 0x6970667358 0x22 SLT KECCAK256 0xBA 0x28 CALLF 0xCDFF CALLCODE 0xD0 0x4F PUSH7 0xA0D623E8095ECB SHR 0xD2 0xBB 0x29 KECCAK256 0xDA CHAINID DUP13 0xA7 0xBB 0xAB 0xEA 0x2C CALLER PUSH1 0x87 PUSH5 0x736F6C6343 STOP ADDMOD 0x1E STOP CALLER "
				},
				"gasEstimates": {
					"creation": {
						"codeDepositCost": "529200",
						"executionCost": "560",
						"totalCost": "529760"
					},
					"external": {
						"booleano()": "2467",
						"caracter()": "2532",
						"guardarDatos(uint256,bool,uint256,bytes1,string)": "infinite",
						"numeroDecimalSimulado()": "2469",
						"numeroEntero()": "2446",
						"obtenerDatos()": "infinite",
						"texto()": "infinite"
					}
				},
				"methodIdentifiers": {
					"booleano()": "0a6cda6a",
					"caracter()": "c8d95007",
					"guardarDatos(uint256,bool,uint256,bytes1,string)": "3fa337f4",
					"numeroDecimalSimulado()": "a69e1bd2",
					"numeroEntero()": "8fa952cc",
					"obtenerDatos()": "7bf4fdd0",
					"texto()": "0fa5b22e"
				}
			},
			"storageLayout": {
				"storage": [
					{
						"astId": 3,
						"contract": "contracts/Contrato.sol:StorageContract",
						"label": "numeroEntero",
						"offset": 0,
						"slot": "0",
						"type": "t_uint256"
					},
					{
						"astId": 5,
						"contract": "contracts/Contrato.sol:StorageContract",
						"label": "booleano",
						"offset": 0,
						"slot": "1",
						"type": "t_bool"
					},
					{
						"astId": 7,
						"contract": "contracts/Contrato.sol:StorageContract",
						"label": "numeroDecimalSimulado",
						"offset": 0,
						"slot": "2",
						"type": "t_uint256"
					},
					{
						"astId": 9,
						"contract": "contracts/Contrato.sol:StorageContract",
						"label": "caracter",
						"offset": 0,
						"slot": "3",
						"type": "t_bytes1"
					},
					{
						"astId": 11,
						"contract": "contracts/Contrato.sol:StorageContract",
						"label": "texto",
						"offset": 0,
						"slot": "4",
						"type": "t_string_storage"
					}
				],
				"types": {
					"t_bool": {
						"encoding": "inplace",
						"label": "bool",
						"numberOfBytes": "1"
					},
					"t_bytes1": {
						"encoding": "inplace",
						"label": "bytes1",
						"numberOfBytes": "1"
					},
					"t_string_storage": {
						"encoding": "bytes",
						"label": "string",
						"numberOfBytes": "32"
					},
					"t_uint256": {
						"encoding": "inplace",
						"label": "uint256",
						"numberOfBytes": "32"
					}
				}
			},
			"userdoc": {
				"kind": "user",
				"methods": {},
				"version": 1
			}
		}
	}
}