{
	"contracts/Candidatos_Electorales.sol": {
		"RegistroCandidatos": {
			"abi": [
				{
					"inputs": [],
					"stateMutability": "nonpayable",
					"type": "constructor"
				},
				{
					"inputs": [],
					"name": "administrador",
					"outputs": [
						{
							"internalType": "address",
							"name": "",
							"type": "address"
						}
					],
					"stateMutability": "view",
					"type": "function"
				},
				{
					"inputs": [
						{
							"internalType": "string",
							"name": "cedula",
							"type": "string"
						}
					],
					"name": "candidatoExiste",
					"outputs": [
						{
							"internalType": "bool",
							"name": "",
							"type": "bool"
						}
					],
					"stateMutability": "view",
					"type": "function"
				},
				{
					"inputs": [
						{
							"internalType": "string",
							"name": "cedula",
							"type": "string"
						},
						{
							"internalType": "string",
							"name": "nombre",
							"type": "string"
						},
						{
							"internalType": "string",
							"name": "partido",
							"type": "string"
						},
						{
							"internalType": "uint256",
							"name": "edad",
							"type": "uint256"
						},
						{
							"internalType": "string",
							"name": "propuesta",
							"type": "string"
						}
					],
					"name": "crearCandidato",
					"outputs": [],
					"stateMutability": "nonpayable",
					"type": "function"
				},
				{
					"inputs": [
						{
							"internalType": "string",
							"name": "cedula",
							"type": "string"
						},
						{
							"internalType": "string",
							"name": "nombre",
							"type": "string"
						},
						{
							"internalType": "string",
							"name": "partido",
							"type": "string"
						},
						{
							"internalType": "uint256",
							"name": "edad",
							"type": "uint256"
						},
						{
							"internalType": "string",
							"name": "propuesta",
							"type": "string"
						}
					],
					"name": "editarCandidato",
					"outputs": [],
					"stateMutability": "nonpayable",
					"type": "function"
				},
				{
					"inputs": [
						{
							"internalType": "string",
							"name": "cedula",
							"type": "string"
						}
					],
					"name": "eliminarCandidato",
					"outputs": [],
					"stateMutability": "nonpayable",
					"type": "function"
				},
				{
					"inputs": [],
					"name": "obtenerTodasLasCedulas",
					"outputs": [
						{
							"internalType": "string[]",
							"name": "",
							"type": "string[]"
						}
					],
					"stateMutability": "view",
					"type": "function"
				},
				{
					"inputs": [],
					"name": "totalCandidatos",
					"outputs": [
						{
							"internalType": "uint256",
							"name": "",
							"type": "uint256"
						}
					],
					"stateMutability": "view",
					"type": "function"
				},
				{
					"inputs": [
						{
							"internalType": "string",
							"name": "cedula",
							"type": "string"
						}
					],
					"name": "verCandidato",
					"outputs": [
						{
							"internalType": "string",
							"name": "nombre",
							"type": "string"
						},
						{
							"internalType": "string",
							"name": "partido",
							"type": "string"
						},
						{
							"internalType": "uint256",
							"name": "edad",
							"type": "uint256"
						},
						{
							"internalType": "string",
							"name": "propuesta",
							"type": "string"
						}
					],
					"stateMutability": "view",
					"type": "function"
				}
			],
			"devdoc": {
				"kind": "dev",
				"methods": {},
				"version": 1
			},
			"evm": {
				"assembly": "    /* \"contracts/Candidatos_Electorales.sol\":57:3348  contract RegistroCandidatos {... */\n  mstore(0x40, 0x80)\n    /* \"contracts/Candidatos_Electorales.sol\":810:867  constructor() {... */\n  callvalue\n  dup1\n  iszero\n  tag_1\n  jumpi\n  revert(0x00, 0x00)\ntag_1:\n  pop\n    /* \"contracts/Candidatos_Electorales.sol\":850:860  msg.sender */\n  caller\n    /* \"contracts/Candidatos_Electorales.sol\":834:847  administrador */\n  0x02\n  0x00\n    /* \"contracts/Candidatos_Electorales.sol\":834:860  administrador = msg.sender */\n  0x0100\n  exp\n  dup2\n  sload\n  dup2\n  0xffffffffffffffffffffffffffffffffffffffff\n  mul\n  not\n  and\n  swap1\n  dup4\n  0xffffffffffffffffffffffffffffffffffffffff\n  and\n  mul\n  or\n  swap1\n  sstore\n  pop\n    /* \"contracts/Candidatos_Electorales.sol\":57:3348  contract RegistroCandidatos {... */\n  dataSize(sub_0)\n  dup1\n  dataOffset(sub_0)\n  0x00\n  codecopy\n  0x00\n  return\nstop\n\nsub_0: assembly {\n        /* \"contracts/Candidatos_Electorales.sol\":57:3348  contract RegistroCandidatos {... */\n      mstore(0x40, 0x80)\n      callvalue\n      dup1\n      iszero\n      tag_1\n      jumpi\n      revert(0x00, 0x00)\n    tag_1:\n      pop\n      jumpi(tag_2, lt(calldatasize, 0x04))\n      shr(0xe0, calldataload(0x00))\n      dup1\n      0xbc83abde\n      gt\n      tag_11\n      jumpi\n      dup1\n      0xbc83abde\n      eq\n      tag_7\n      jumpi\n      dup1\n      0xbc9cd835\n      eq\n      tag_8\n      jumpi\n      dup1\n      0xbf89035b\n      eq\n      tag_9\n      jumpi\n      dup1\n      0xf2b2cc9d\n      eq\n      tag_10\n      jumpi\n      jump(tag_2)\n    tag_11:\n      dup1\n      0x503af877\n      eq\n      tag_3\n      jumpi\n      dup1\n      0x512aad4d\n      eq\n      tag_4\n      jumpi\n      dup1\n      0x7062b97d\n      eq\n      tag_5\n      jumpi\n      dup1\n      0xa4fe6a0a\n      eq\n      tag_6\n      jumpi\n    tag_2:\n      revert(0x00, 0x00)\n        /* \"contracts/Candidatos_Electorales.sol\":905:1418  function crearCandidato(string memory cedula, string memory nombre, string memory partido, uint edad, string memory propuesta) public soloAdministrador {... */\n    tag_3:\n      tag_12\n      0x04\n      dup1\n      calldatasize\n      sub\n      dup2\n      add\n      swap1\n      tag_13\n      swap2\n      swap1\n      tag_14\n      jump\t// in\n    tag_13:\n      tag_15\n      jump\t// in\n    tag_12:\n      stop\n        /* \"contracts/Candidatos_Electorales.sol\":3238:3346  function obtenerTodasLasCedulas() public view returns (string[] memory) {... */\n    tag_4:\n      tag_16\n      tag_17\n      jump\t// in\n    tag_16:\n      mload(0x40)\n      tag_18\n      swap2\n      swap1\n      tag_19\n      jump\t// in\n    tag_18:\n      mload(0x40)\n      dup1\n      swap2\n      sub\n      swap1\n      return\n        /* \"contracts/Candidatos_Electorales.sol\":517:545  address public administrador */\n    tag_5:\n      tag_20\n      tag_21\n      jump\t// in\n    tag_20:\n      mload(0x40)\n      tag_22\n      swap2\n      swap1\n      tag_23\n      jump\t// in\n    tag_22:\n      mload(0x40)\n      dup1\n      swap2\n      sub\n      swap1\n      return\n        /* \"contracts/Candidatos_Electorales.sol\":2293:2837  function eliminarCandidato(string memory cedula) public soloAdministrador {... */\n    tag_6:\n      tag_24\n      0x04\n      dup1\n      calldatasize\n      sub\n      dup2\n      add\n      swap1\n      tag_25\n      swap2\n      swap1\n      tag_26\n      jump\t// in\n    tag_25:\n      tag_27\n      jump\t// in\n    tag_24:\n      stop\n        /* \"contracts/Candidatos_Electorales.sol\":3059:3156  function totalCandidatos() public view returns (uint) {... */\n    tag_7:\n      tag_28\n      tag_29\n      jump\t// in\n    tag_28:\n      mload(0x40)\n      tag_30\n      swap2\n      swap1\n      tag_31\n      jump\t// in\n    tag_30:\n      mload(0x40)\n      dup1\n      swap2\n      sub\n      swap1\n      return\n        /* \"contracts/Candidatos_Electorales.sol\":1463:1795  function verCandidato(string memory cedula) public view returns (string memory nombre, string memory partido, uint edad, string memory propuesta) {... */\n    tag_8:\n      tag_32\n      0x04\n      dup1\n      calldatasize\n      sub\n      dup2\n      add\n      swap1\n      tag_33\n      swap2\n      swap1\n      tag_26\n      jump\t// in\n    tag_33:\n      tag_34\n      jump\t// in\n    tag_32:\n      mload(0x40)\n      tag_35\n      swap5\n      swap4\n      swap3\n      swap2\n      swap1\n      tag_36\n      jump\t// in\n    tag_35:\n      mload(0x40)\n      dup1\n      swap2\n      sub\n      swap1\n      return\n        /* \"contracts/Candidatos_Electorales.sol\":2883:3006  function candidatoExiste(string memory cedula) public view returns (bool) {... */\n    tag_9:\n      tag_37\n      0x04\n      dup1\n      calldatasize\n      sub\n      dup2\n      add\n      swap1\n      tag_38\n      swap2\n      swap1\n      tag_26\n      jump\t// in\n    tag_38:\n      tag_39\n      jump\t// in\n    tag_37:\n      mload(0x40)\n      tag_40\n      swap2\n      swap1\n      tag_41\n      jump\t// in\n    tag_40:\n      mload(0x40)\n      dup1\n      swap2\n      sub\n      swap1\n      return\n        /* \"contracts/Candidatos_Electorales.sol\":1838:2258  function editarCandidato(string memory cedula, string memory nombre, string memory partido, uint edad, string memory propuesta) public soloAdministrador {... */\n    tag_10:\n      tag_42\n      0x04\n      dup1\n      calldatasize\n      sub\n      dup2\n      add\n      swap1\n      tag_43\n      swap2\n      swap1\n      tag_14\n      jump\t// in\n    tag_43:\n      tag_44\n      jump\t// in\n    tag_42:\n      stop\n        /* \"contracts/Candidatos_Electorales.sol\":905:1418  function crearCandidato(string memory cedula, string memory nombre, string memory partido, uint edad, string memory propuesta) public soloAdministrador {... */\n    tag_15:\n        /* \"contracts/Candidatos_Electorales.sol\":675:688  administrador */\n      0x02\n      0x00\n      swap1\n      sload\n      swap1\n      0x0100\n      exp\n      swap1\n      div\n      0xffffffffffffffffffffffffffffffffffffffff\n      and\n        /* \"contracts/Candidatos_Electorales.sol\":661:688  msg.sender == administrador */\n      0xffffffffffffffffffffffffffffffffffffffff\n      and\n        /* \"contracts/Candidatos_Electorales.sol\":661:671  msg.sender */\n      caller\n        /* \"contracts/Candidatos_Electorales.sol\":661:688  msg.sender == administrador */\n      0xffffffffffffffffffffffffffffffffffffffff\n      and\n      eq\n        /* \"contracts/Candidatos_Electorales.sol\":653:742  require(msg.sender == administrador, \"Solo el administrador puede ejecutar esta funcion\") */\n      tag_46\n      jumpi\n      mload(0x40)\n      0x08c379a000000000000000000000000000000000000000000000000000000000\n      dup2\n      mstore\n      0x04\n      add\n      tag_47\n      swap1\n      tag_48\n      jump\t// in\n    tag_47:\n      mload(0x40)\n      dup1\n      swap2\n      sub\n      swap1\n      revert\n    tag_46:\n        /* \"contracts/Candidatos_Electorales.sol\":1076:1086  candidatos */\n      0x00\n        /* \"contracts/Candidatos_Electorales.sol\":1087:1093  cedula */\n      dup6\n        /* \"contracts/Candidatos_Electorales.sol\":1076:1094  candidatos[cedula] */\n      mload(0x40)\n      tag_50\n      swap2\n      swap1\n      tag_51\n      jump\t// in\n    tag_50:\n      swap1\n      dup2\n      mstore\n      0x20\n      add\n      mload(0x40)\n      dup1\n      swap2\n      sub\n      swap1\n      keccak256\n        /* \"contracts/Candidatos_Electorales.sol\":1076:1101  candidatos[cedula].existe */\n      0x05\n      add\n      0x00\n      swap1\n      sload\n      swap1\n      0x0100\n      exp\n      swap1\n      div\n      0xff\n      and\n        /* \"contracts/Candidatos_Electorales.sol\":1075:1101  !candidatos[cedula].existe */\n      iszero\n        /* \"contracts/Candidatos_Electorales.sol\":1067:1144  require(!candidatos[cedula].existe, \"El candidato ya existe con esta cedula\") */\n      tag_52\n      jumpi\n      mload(0x40)\n      0x08c379a000000000000000000000000000000000000000000000000000000000\n      dup2\n      mstore\n      0x04\n      add\n      tag_53\n      swap1\n      tag_54\n      jump\t// in\n    tag_53:\n      mload(0x40)\n      dup1\n      swap2\n      sub\n      swap1\n      revert\n    tag_52:\n        /* \"contracts/Candidatos_Electorales.sol\":1184:1375  Candidato({... */\n      mload(0x40)\n      dup1\n      0xc0\n      add\n      0x40\n      mstore\n      dup1\n        /* \"contracts/Candidatos_Electorales.sol\":1216:1222  cedula */\n      dup7\n        /* \"contracts/Candidatos_Electorales.sol\":1184:1375  Candidato({... */\n      dup2\n      mstore\n      0x20\n      add\n        /* \"contracts/Candidatos_Electorales.sol\":1244:1250  nombre */\n      dup6\n        /* \"contracts/Candidatos_Electorales.sol\":1184:1375  Candidato({... */\n      dup2\n      mstore\n      0x20\n      add\n        /* \"contracts/Candidatos_Electorales.sol\":1273:1280  partido */\n      dup5\n        /* \"contracts/Candidatos_Electorales.sol\":1184:1375  Candidato({... */\n      dup2\n      mstore\n      0x20\n      add\n        /* \"contracts/Candidatos_Electorales.sol\":1300:1304  edad */\n      dup4\n        /* \"contracts/Candidatos_Electorales.sol\":1184:1375  Candidato({... */\n      dup2\n      mstore\n      0x20\n      add\n        /* \"contracts/Candidatos_Electorales.sol\":1329:1338  propuesta */\n      dup3\n        /* \"contracts/Candidatos_Electorales.sol\":1184:1375  Candidato({... */\n      dup2\n      mstore\n      0x20\n      add\n        /* \"contracts/Candidatos_Electorales.sol\":1360:1364  true */\n      0x01\n        /* \"contracts/Candidatos_Electorales.sol\":1184:1375  Candidato({... */\n      iszero\n      iszero\n      dup2\n      mstore\n      pop\n        /* \"contracts/Candidatos_Electorales.sol\":1163:1173  candidatos */\n      0x00\n        /* \"contracts/Candidatos_Electorales.sol\":1174:1180  cedula */\n      dup7\n        /* \"contracts/Candidatos_Electorales.sol\":1163:1181  candidatos[cedula] */\n      mload(0x40)\n      tag_55\n      swap2\n      swap1\n      tag_51\n      jump\t// in\n    tag_55:\n      swap1\n      dup2\n      mstore\n      0x20\n      add\n      mload(0x40)\n      dup1\n      swap2\n      sub\n      swap1\n      keccak256\n        /* \"contracts/Candidatos_Electorales.sol\":1163:1375  candidatos[cedula] = Candidato({... */\n      0x00\n      dup3\n      add\n      mload\n      dup2\n      0x00\n      add\n      swap1\n      dup2\n      tag_56\n      swap2\n      swap1\n      tag_57\n      jump\t// in\n    tag_56:\n      pop\n      0x20\n      dup3\n      add\n      mload\n      dup2\n      0x01\n      add\n      swap1\n      dup2\n      tag_58\n      swap2\n      swap1\n      tag_57\n      jump\t// in\n    tag_58:\n      pop\n      0x40\n      dup3\n      add\n      mload\n      dup2\n      0x02\n      add\n      swap1\n      dup2\n      tag_59\n      swap2\n      swap1\n      tag_57\n      jump\t// in\n    tag_59:\n      pop\n      0x60\n      dup3\n      add\n      mload\n      dup2\n      0x03\n      add\n      sstore\n      0x80\n      dup3\n      add\n      mload\n      dup2\n      0x04\n      add\n      swap1\n      dup2\n      tag_60\n      swap2\n      swap1\n      tag_57\n      jump\t// in\n    tag_60:\n      pop\n      0xa0\n      dup3\n      add\n      mload\n      dup2\n      0x05\n      add\n      exp(0x0100, 0x00)\n      dup2\n      sload\n      dup2\n      0xff\n      mul\n      not\n      and\n      swap1\n      dup4\n      iszero\n      iszero\n      mul\n      or\n      swap1\n      sstore\n      pop\n      swap1\n      pop\n      pop\n        /* \"contracts/Candidatos_Electorales.sol\":1386:1398  listaCedulas */\n      0x01\n        /* \"contracts/Candidatos_Electorales.sol\":1404:1410  cedula */\n      dup6\n        /* \"contracts/Candidatos_Electorales.sol\":1386:1411  listaCedulas.push(cedula) */\n      swap1\n      dup1\n      0x01\n      dup2\n      sload\n      add\n      dup1\n      dup3\n      sstore\n      dup1\n      swap2\n      pop\n      pop\n      0x01\n      swap1\n      sub\n      swap1\n      0x00\n      mstore\n      keccak256(0x00, 0x20)\n      add\n      0x00\n      swap1\n      swap2\n      swap1\n      swap2\n      swap1\n      swap2\n      pop\n      swap1\n      dup2\n      tag_62\n      swap2\n      swap1\n      tag_57\n      jump\t// in\n    tag_62:\n      pop\n        /* \"contracts/Candidatos_Electorales.sol\":905:1418  function crearCandidato(string memory cedula, string memory nombre, string memory partido, uint edad, string memory propuesta) public soloAdministrador {... */\n      pop\n      pop\n      pop\n      pop\n      pop\n      jump\t// out\n        /* \"contracts/Candidatos_Electorales.sol\":3238:3346  function obtenerTodasLasCedulas() public view returns (string[] memory) {... */\n    tag_17:\n        /* \"contracts/Candidatos_Electorales.sol\":3293:3308  string[] memory */\n      0x60\n        /* \"contracts/Candidatos_Electorales.sol\":3327:3339  listaCedulas */\n      0x01\n        /* \"contracts/Candidatos_Electorales.sol\":3320:3339  return listaCedulas */\n      dup1\n      sload\n      dup1\n      0x20\n      mul\n      0x20\n      add\n      mload(0x40)\n      swap1\n      dup2\n      add\n      0x40\n      mstore\n      dup1\n      swap3\n      swap2\n      swap1\n      dup2\n      dup2\n      mstore\n      0x20\n      add\n      0x00\n      swap1\n    tag_64:\n      dup3\n      dup3\n      lt\n      iszero\n      tag_65\n      jumpi\n      dup4\n      dup3\n      swap1\n      0x00\n      mstore\n      keccak256(0x00, 0x20)\n      add\n      dup1\n      sload\n      tag_67\n      swap1\n      tag_68\n      jump\t// in\n    tag_67:\n      dup1\n      0x1f\n      add\n      0x20\n      dup1\n      swap2\n      div\n      mul\n      0x20\n      add\n      mload(0x40)\n      swap1\n      dup2\n      add\n      0x40\n      mstore\n      dup1\n      swap3\n      swap2\n      swap1\n      dup2\n      dup2\n      mstore\n      0x20\n      add\n      dup3\n      dup1\n      sload\n      tag_69\n      swap1\n      tag_68\n      jump\t// in\n    tag_69:\n      dup1\n      iszero\n      tag_70\n      jumpi\n      dup1\n      0x1f\n      lt\n      tag_71\n      jumpi\n      0x0100\n      dup1\n      dup4\n      sload\n      div\n      mul\n      dup4\n      mstore\n      swap2\n      0x20\n      add\n      swap2\n      jump(tag_70)\n    tag_71:\n      dup3\n      add\n      swap2\n      swap1\n      0x00\n      mstore\n      keccak256(0x00, 0x20)\n      swap1\n    tag_72:\n      dup2\n      sload\n      dup2\n      mstore\n      swap1\n      0x01\n      add\n      swap1\n      0x20\n      add\n      dup1\n      dup4\n      gt\n      tag_72\n      jumpi\n      dup3\n      swap1\n      sub\n      0x1f\n      and\n      dup3\n      add\n      swap2\n    tag_70:\n      pop\n      pop\n      pop\n      pop\n      pop\n      dup2\n      mstore\n      0x20\n      add\n      swap1\n      0x01\n      add\n      swap1\n      jump(tag_64)\n    tag_65:\n      pop\n      pop\n      pop\n      pop\n      swap1\n      pop\n        /* \"contracts/Candidatos_Electorales.sol\":3238:3346  function obtenerTodasLasCedulas() public view returns (string[] memory) {... */\n      swap1\n      jump\t// out\n        /* \"contracts/Candidatos_Electorales.sol\":517:545  address public administrador */\n    tag_21:\n      0x02\n      0x00\n      swap1\n      sload\n      swap1\n      0x0100\n      exp\n      swap1\n      div\n      0xffffffffffffffffffffffffffffffffffffffff\n      and\n      dup2\n      jump\t// out\n        /* \"contracts/Candidatos_Electorales.sol\":2293:2837  function eliminarCandidato(string memory cedula) public soloAdministrador {... */\n    tag_27:\n        /* \"contracts/Candidatos_Electorales.sol\":675:688  administrador */\n      0x02\n      0x00\n      swap1\n      sload\n      swap1\n      0x0100\n      exp\n      swap1\n      div\n      0xffffffffffffffffffffffffffffffffffffffff\n      and\n        /* \"contracts/Candidatos_Electorales.sol\":661:688  msg.sender == administrador */\n      0xffffffffffffffffffffffffffffffffffffffff\n      and\n        /* \"contracts/Candidatos_Electorales.sol\":661:671  msg.sender */\n      caller\n        /* \"contracts/Candidatos_Electorales.sol\":661:688  msg.sender == administrador */\n      0xffffffffffffffffffffffffffffffffffffffff\n      and\n      eq\n        /* \"contracts/Candidatos_Electorales.sol\":653:742  require(msg.sender == administrador, \"Solo el administrador puede ejecutar esta funcion\") */\n      tag_74\n      jumpi\n      mload(0x40)\n      0x08c379a000000000000000000000000000000000000000000000000000000000\n      dup2\n      mstore\n      0x04\n      add\n      tag_75\n      swap1\n      tag_48\n      jump\t// in\n    tag_75:\n      mload(0x40)\n      dup1\n      swap2\n      sub\n      swap1\n      revert\n    tag_74:\n        /* \"contracts/Candidatos_Electorales.sol\":2385:2395  candidatos */\n      0x00\n        /* \"contracts/Candidatos_Electorales.sol\":2396:2402  cedula */\n      dup2\n        /* \"contracts/Candidatos_Electorales.sol\":2385:2403  candidatos[cedula] */\n      mload(0x40)\n      tag_77\n      swap2\n      swap1\n      tag_51\n      jump\t// in\n    tag_77:\n      swap1\n      dup2\n      mstore\n      0x20\n      add\n      mload(0x40)\n      dup1\n      swap2\n      sub\n      swap1\n      keccak256\n        /* \"contracts/Candidatos_Electorales.sol\":2385:2410  candidatos[cedula].existe */\n      0x05\n      add\n      0x00\n      swap1\n      sload\n      swap1\n      0x0100\n      exp\n      swap1\n      div\n      0xff\n      and\n        /* \"contracts/Candidatos_Electorales.sol\":2377:2438  require(candidatos[cedula].existe, \"Candidato no encontrado\") */\n      tag_78\n      jumpi\n      mload(0x40)\n      0x08c379a000000000000000000000000000000000000000000000000000000000\n      dup2\n      mstore\n      0x04\n      add\n      tag_79\n      swap1\n      tag_80\n      jump\t// in\n    tag_79:\n      mload(0x40)\n      dup1\n      swap2\n      sub\n      swap1\n      revert\n    tag_78:\n        /* \"contracts/Candidatos_Electorales.sol\":2464:2474  candidatos */\n      0x00\n        /* \"contracts/Candidatos_Electorales.sol\":2475:2481  cedula */\n      dup2\n        /* \"contracts/Candidatos_Electorales.sol\":2464:2482  candidatos[cedula] */\n      mload(0x40)\n      tag_81\n      swap2\n      swap1\n      tag_51\n      jump\t// in\n    tag_81:\n      swap1\n      dup2\n      mstore\n      0x20\n      add\n      mload(0x40)\n      dup1\n      swap2\n      sub\n      swap1\n      keccak256\n      0x00\n        /* \"contracts/Candidatos_Electorales.sol\":2457:2482  delete candidatos[cedula] */\n      0x00\n      dup3\n      add\n      0x00\n      tag_82\n      swap2\n      swap1\n      tag_83\n      jump\t// in\n    tag_82:\n      0x01\n      dup3\n      add\n      0x00\n      tag_84\n      swap2\n      swap1\n      tag_83\n      jump\t// in\n    tag_84:\n      0x02\n      dup3\n      add\n      0x00\n      tag_85\n      swap2\n      swap1\n      tag_83\n      jump\t// in\n    tag_85:\n      0x03\n      dup3\n      add\n      0x00\n      swap1\n      sstore\n      0x04\n      dup3\n      add\n      0x00\n      tag_86\n      swap2\n      swap1\n      tag_83\n      jump\t// in\n    tag_86:\n      0x05\n      dup3\n      add\n      exp(0x0100, 0x00)\n      dup2\n      sload\n      swap1\n      0xff\n      mul\n      not\n      and\n      swap1\n      sstore\n      pop\n      pop\n        /* \"contracts/Candidatos_Electorales.sol\":2551:2557  uint i */\n      0x00\n        /* \"contracts/Candidatos_Electorales.sol\":2560:2561  0 */\n      0x00\n        /* \"contracts/Candidatos_Electorales.sol\":2551:2561  uint i = 0 */\n      swap1\n      pop\n        /* \"contracts/Candidatos_Electorales.sol\":2546:2831  for (uint i = 0; i < listaCedulas.length; i++) {... */\n    tag_87:\n        /* \"contracts/Candidatos_Electorales.sol\":2567:2579  listaCedulas */\n      0x01\n        /* \"contracts/Candidatos_Electorales.sol\":2567:2586  listaCedulas.length */\n      dup1\n      sload\n      swap1\n      pop\n        /* \"contracts/Candidatos_Electorales.sol\":2563:2564  i */\n      dup2\n        /* \"contracts/Candidatos_Electorales.sol\":2563:2586  i < listaCedulas.length */\n      lt\n        /* \"contracts/Candidatos_Electorales.sol\":2546:2831  for (uint i = 0; i < listaCedulas.length; i++) {... */\n      iszero\n      tag_88\n      jumpi\n        /* \"contracts/Candidatos_Electorales.sol\":2664:2670  cedula */\n      dup2\n        /* \"contracts/Candidatos_Electorales.sol\":2648:2672  keccak256(bytes(cedula)) */\n      dup1\n      mload\n      swap1\n      0x20\n      add\n      keccak256\n        /* \"contracts/Candidatos_Electorales.sol\":2627:2639  listaCedulas */\n      0x01\n        /* \"contracts/Candidatos_Electorales.sol\":2640:2641  i */\n      dup3\n        /* \"contracts/Candidatos_Electorales.sol\":2627:2642  listaCedulas[i] */\n      dup2\n      sload\n      dup2\n      lt\n      tag_90\n      jumpi\n      tag_91\n      tag_92\n      jump\t// in\n    tag_91:\n    tag_90:\n      swap1\n      0x00\n      mstore\n      keccak256(0x00, 0x20)\n      add\n        /* \"contracts/Candidatos_Electorales.sol\":2611:2644  keccak256(bytes(listaCedulas[i])) */\n      mload(0x40)\n      tag_94\n      swap2\n      swap1\n      tag_95\n      jump\t// in\n    tag_94:\n      mload(0x40)\n      dup1\n      swap2\n      sub\n      swap1\n      keccak256\n        /* \"contracts/Candidatos_Electorales.sol\":2611:2672  keccak256(bytes(listaCedulas[i])) == keccak256(bytes(cedula)) */\n      sub\n        /* \"contracts/Candidatos_Electorales.sol\":2607:2821  if (keccak256(bytes(listaCedulas[i])) == keccak256(bytes(cedula))) {... */\n      tag_96\n      jumpi\n        /* \"contracts/Candidatos_Electorales.sol\":2710:2722  listaCedulas */\n      0x01\n        /* \"contracts/Candidatos_Electorales.sol\":2745:2746  1 */\n      dup1\n        /* \"contracts/Candidatos_Electorales.sol\":2723:2735  listaCedulas */\n      dup1\n        /* \"contracts/Candidatos_Electorales.sol\":2723:2742  listaCedulas.length */\n      dup1\n      sload\n      swap1\n      pop\n        /* \"contracts/Candidatos_Electorales.sol\":2723:2746  listaCedulas.length - 1 */\n      tag_97\n      swap2\n      swap1\n      tag_98\n      jump\t// in\n    tag_97:\n        /* \"contracts/Candidatos_Electorales.sol\":2710:2747  listaCedulas[listaCedulas.length - 1] */\n      dup2\n      sload\n      dup2\n      lt\n      tag_99\n      jumpi\n      tag_100\n      tag_92\n      jump\t// in\n    tag_100:\n    tag_99:\n      swap1\n      0x00\n      mstore\n      keccak256(0x00, 0x20)\n      add\n        /* \"contracts/Candidatos_Electorales.sol\":2692:2704  listaCedulas */\n      0x01\n        /* \"contracts/Candidatos_Electorales.sol\":2705:2706  i */\n      dup3\n        /* \"contracts/Candidatos_Electorales.sol\":2692:2707  listaCedulas[i] */\n      dup2\n      sload\n      dup2\n      lt\n      tag_102\n      jumpi\n      tag_103\n      tag_92\n      jump\t// in\n    tag_103:\n    tag_102:\n      swap1\n      0x00\n      mstore\n      keccak256(0x00, 0x20)\n      add\n        /* \"contracts/Candidatos_Electorales.sol\":2692:2747  listaCedulas[i] = listaCedulas[listaCedulas.length - 1] */\n      swap1\n      dup2\n      tag_105\n      swap2\n      swap1\n      tag_106\n      jump\t// in\n    tag_105:\n      pop\n        /* \"contracts/Candidatos_Electorales.sol\":2765:2777  listaCedulas */\n      0x01\n        /* \"contracts/Candidatos_Electorales.sol\":2765:2783  listaCedulas.pop() */\n      dup1\n      sload\n      dup1\n      tag_107\n      jumpi\n      tag_108\n      tag_109\n      jump\t// in\n    tag_108:\n    tag_107:\n      0x01\n      swap1\n      sub\n      dup2\n      dup2\n      swap1\n      0x00\n      mstore\n      keccak256(0x00, 0x20)\n      add\n      0x00\n      tag_111\n      swap2\n      swap1\n      tag_83\n      jump\t// in\n    tag_111:\n      swap1\n      sstore\n        /* \"contracts/Candidatos_Electorales.sol\":2801:2806  break */\n      jump(tag_88)\n        /* \"contracts/Candidatos_Electorales.sol\":2607:2821  if (keccak256(bytes(listaCedulas[i])) == keccak256(bytes(cedula))) {... */\n    tag_96:\n        /* \"contracts/Candidatos_Electorales.sol\":2588:2591  i++ */\n      dup1\n      dup1\n      0x01\n      add\n      swap2\n      pop\n      pop\n        /* \"contracts/Candidatos_Electorales.sol\":2546:2831  for (uint i = 0; i < listaCedulas.length; i++) {... */\n      jump(tag_87)\n    tag_88:\n      pop\n        /* \"contracts/Candidatos_Electorales.sol\":2293:2837  function eliminarCandidato(string memory cedula) public soloAdministrador {... */\n      pop\n      jump\t// out\n        /* \"contracts/Candidatos_Electorales.sol\":3059:3156  function totalCandidatos() public view returns (uint) {... */\n    tag_29:\n        /* \"contracts/Candidatos_Electorales.sol\":3107:3111  uint */\n      0x00\n        /* \"contracts/Candidatos_Electorales.sol\":3130:3142  listaCedulas */\n      0x01\n        /* \"contracts/Candidatos_Electorales.sol\":3130:3149  listaCedulas.length */\n      dup1\n      sload\n      swap1\n      pop\n        /* \"contracts/Candidatos_Electorales.sol\":3123:3149  return listaCedulas.length */\n      swap1\n      pop\n        /* \"contracts/Candidatos_Electorales.sol\":3059:3156  function totalCandidatos() public view returns (uint) {... */\n      swap1\n      jump\t// out\n        /* \"contracts/Candidatos_Electorales.sol\":1463:1795  function verCandidato(string memory cedula) public view returns (string memory nombre, string memory partido, uint edad, string memory propuesta) {... */\n    tag_34:\n        /* \"contracts/Candidatos_Electorales.sol\":1528:1548  string memory nombre */\n      0x60\n        /* \"contracts/Candidatos_Electorales.sol\":1550:1571  string memory partido */\n      dup1\n        /* \"contracts/Candidatos_Electorales.sol\":1573:1582  uint edad */\n      0x00\n        /* \"contracts/Candidatos_Electorales.sol\":1584:1607  string memory propuesta */\n      0x60\n        /* \"contracts/Candidatos_Electorales.sol\":1627:1637  candidatos */\n      0x00\n        /* \"contracts/Candidatos_Electorales.sol\":1638:1644  cedula */\n      dup6\n        /* \"contracts/Candidatos_Electorales.sol\":1627:1645  candidatos[cedula] */\n      mload(0x40)\n      tag_114\n      swap2\n      swap1\n      tag_51\n      jump\t// in\n    tag_114:\n      swap1\n      dup2\n      mstore\n      0x20\n      add\n      mload(0x40)\n      dup1\n      swap2\n      sub\n      swap1\n      keccak256\n        /* \"contracts/Candidatos_Electorales.sol\":1627:1652  candidatos[cedula].existe */\n      0x05\n      add\n      0x00\n      swap1\n      sload\n      swap1\n      0x0100\n      exp\n      swap1\n      div\n      0xff\n      and\n        /* \"contracts/Candidatos_Electorales.sol\":1619:1680  require(candidatos[cedula].existe, \"Candidato no encontrado\") */\n      tag_115\n      jumpi\n      mload(0x40)\n      0x08c379a000000000000000000000000000000000000000000000000000000000\n      dup2\n      mstore\n      0x04\n      add\n      tag_116\n      swap1\n      tag_80\n      jump\t// in\n    tag_116:\n      mload(0x40)\n      dup1\n      swap2\n      sub\n      swap1\n      revert\n    tag_115:\n        /* \"contracts/Candidatos_Electorales.sol\":1690:1708  Candidato memory c */\n      0x00\n        /* \"contracts/Candidatos_Electorales.sol\":1711:1721  candidatos */\n      0x00\n        /* \"contracts/Candidatos_Electorales.sol\":1722:1728  cedula */\n      dup7\n        /* \"contracts/Candidatos_Electorales.sol\":1711:1729  candidatos[cedula] */\n      mload(0x40)\n      tag_117\n      swap2\n      swap1\n      tag_51\n      jump\t// in\n    tag_117:\n      swap1\n      dup2\n      mstore\n      0x20\n      add\n      mload(0x40)\n      dup1\n      swap2\n      sub\n      swap1\n      keccak256\n        /* \"contracts/Candidatos_Electorales.sol\":1690:1729  Candidato memory c = candidatos[cedula] */\n      mload(0x40)\n      dup1\n      0xc0\n      add\n      0x40\n      mstore\n      swap1\n      dup2\n      0x00\n      dup3\n      add\n      dup1\n      sload\n      tag_118\n      swap1\n      tag_68\n      jump\t// in\n    tag_118:\n      dup1\n      0x1f\n      add\n      0x20\n      dup1\n      swap2\n      div\n      mul\n      0x20\n      add\n      mload(0x40)\n      swap1\n      dup2\n      add\n      0x40\n      mstore\n      dup1\n      swap3\n      swap2\n      swap1\n      dup2\n      dup2\n      mstore\n      0x20\n      add\n      dup3\n      dup1\n      sload\n      tag_119\n      swap1\n      tag_68\n      jump\t// in\n    tag_119:\n      dup1\n      iszero\n      tag_120\n      jumpi\n      dup1\n      0x1f\n      lt\n      tag_121\n      jumpi\n      0x0100\n      dup1\n      dup4\n      sload\n      div\n      mul\n      dup4\n      mstore\n      swap2\n      0x20\n      add\n      swap2\n      jump(tag_120)\n    tag_121:\n      dup3\n      add\n      swap2\n      swap1\n      0x00\n      mstore\n      keccak256(0x00, 0x20)\n      swap1\n    tag_122:\n      dup2\n      sload\n      dup2\n      mstore\n      swap1\n      0x01\n      add\n      swap1\n      0x20\n      add\n      dup1\n      dup4\n      gt\n      tag_122\n      jumpi\n      dup3\n      swap1\n      sub\n      0x1f\n      and\n      dup3\n      add\n      swap2\n    tag_120:\n      pop\n      pop\n      pop\n      pop\n      pop\n      dup2\n      mstore\n      0x20\n      add\n      0x01\n      dup3\n      add\n      dup1\n      sload\n      tag_123\n      swap1\n      tag_68\n      jump\t// in\n    tag_123:\n      dup1\n      0x1f\n      add\n      0x20\n      dup1\n      swap2\n      div\n      mul\n      0x20\n      add\n      mload(0x40)\n      swap1\n      dup2\n      add\n      0x40\n      mstore\n      dup1\n      swap3\n      swap2\n      swap1\n      dup2\n      dup2\n      mstore\n      0x20\n      add\n      dup3\n      dup1\n      sload\n      tag_124\n      swap1\n      tag_68\n      jump\t// in\n    tag_124:\n      dup1\n      iszero\n      tag_125\n      jumpi\n      dup1\n      0x1f\n      lt\n      tag_126\n      jumpi\n      0x0100\n      dup1\n      dup4\n      sload\n      div\n      mul\n      dup4\n      mstore\n      swap2\n      0x20\n      add\n      swap2\n      jump(tag_125)\n    tag_126:\n      dup3\n      add\n      swap2\n      swap1\n      0x00\n      mstore\n      keccak256(0x00, 0x20)\n      swap1\n    tag_127:\n      dup2\n      sload\n      dup2\n      mstore\n      swap1\n      0x01\n      add\n      swap1\n      0x20\n      add\n      dup1\n      dup4\n      gt\n      tag_127\n      jumpi\n      dup3\n      swap1\n      sub\n      0x1f\n      and\n      dup3\n      add\n      swap2\n    tag_125:\n      pop\n      pop\n      pop\n      pop\n      pop\n      dup2\n      mstore\n      0x20\n      add\n      0x02\n      dup3\n      add\n      dup1\n      sload\n      tag_128\n      swap1\n      tag_68\n      jump\t// in\n    tag_128:\n      dup1\n      0x1f\n      add\n      0x20\n      dup1\n      swap2\n      div\n      mul\n      0x20\n      add\n      mload(0x40)\n      swap1\n      dup2\n      add\n      0x40\n      mstore\n      dup1\n      swap3\n      swap2\n      swap1\n      dup2\n      dup2\n      mstore\n      0x20\n      add\n      dup3\n      dup1\n      sload\n      tag_129\n      swap1\n      tag_68\n      jump\t// in\n    tag_129:\n      dup1\n      iszero\n      tag_130\n      jumpi\n      dup1\n      0x1f\n      lt\n      tag_131\n      jumpi\n      0x0100\n      dup1\n      dup4\n      sload\n      div\n      mul\n      dup4\n      mstore\n      swap2\n      0x20\n      add\n      swap2\n      jump(tag_130)\n    tag_131:\n      dup3\n      add\n      swap2\n      swap1\n      0x00\n      mstore\n      keccak256(0x00, 0x20)\n      swap1\n    tag_132:\n      dup2\n      sload\n      dup2\n      mstore\n      swap1\n      0x01\n      add\n      swap1\n      0x20\n      add\n      dup1\n      dup4\n      gt\n      tag_132\n      jumpi\n      dup3\n      swap1\n      sub\n      0x1f\n      and\n      dup3\n      add\n      swap2\n    tag_130:\n      pop\n      pop\n      pop\n      pop\n      pop\n      dup2\n      mstore\n      0x20\n      add\n      0x03\n      dup3\n      add\n      sload\n      dup2\n      mstore\n      0x20\n      add\n      0x04\n      dup3\n      add\n      dup1\n      sload\n      tag_133\n      swap1\n      tag_68\n      jump\t// in\n    tag_133:\n      dup1\n      0x1f\n      add\n      0x20\n      dup1\n      swap2\n      div\n      mul\n      0x20\n      add\n      mload(0x40)\n      swap1\n      dup2\n      add\n      0x40\n      mstore\n      dup1\n      swap3\n      swap2\n      swap1\n      dup2\n      dup2\n      mstore\n      0x20\n      add\n      dup3\n      dup1\n      sload\n      tag_134\n      swap1\n      tag_68\n      jump\t// in\n    tag_134:\n      dup1\n      iszero\n      tag_135\n      jumpi\n      dup1\n      0x1f\n      lt\n      tag_136\n      jumpi\n      0x0100\n      dup1\n      dup4\n      sload\n      div\n      mul\n      dup4\n      mstore\n      swap2\n      0x20\n      add\n      swap2\n      jump(tag_135)\n    tag_136:\n      dup3\n      add\n      swap2\n      swap1\n      0x00\n      mstore\n      keccak256(0x00, 0x20)\n      swap1\n    tag_137:\n      dup2\n      sload\n      dup2\n      mstore\n      swap1\n      0x01\n      add\n      swap1\n      0x20\n      add\n      dup1\n      dup4\n      gt\n      tag_137\n      jumpi\n      dup3\n      swap1\n      sub\n      0x1f\n      and\n      dup3\n      add\n      swap2\n    tag_135:\n      pop\n      pop\n      pop\n      pop\n      pop\n      dup2\n      mstore\n      0x20\n      add\n      0x05\n      dup3\n      add\n      0x00\n      swap1\n      sload\n      swap1\n      0x0100\n      exp\n      swap1\n      div\n      0xff\n      and\n      iszero\n      iszero\n      iszero\n      iszero\n      dup2\n      mstore\n      pop\n      pop\n      swap1\n      pop\n        /* \"contracts/Candidatos_Electorales.sol\":1747:1748  c */\n      dup1\n        /* \"contracts/Candidatos_Electorales.sol\":1747:1755  c.nombre */\n      0x20\n      add\n      mload\n        /* \"contracts/Candidatos_Electorales.sol\":1757:1758  c */\n      dup2\n        /* \"contracts/Candidatos_Electorales.sol\":1757:1766  c.partido */\n      0x40\n      add\n      mload\n        /* \"contracts/Candidatos_Electorales.sol\":1768:1769  c */\n      dup3\n        /* \"contracts/Candidatos_Electorales.sol\":1768:1774  c.edad */\n      0x60\n      add\n      mload\n        /* \"contracts/Candidatos_Electorales.sol\":1776:1777  c */\n      dup4\n        /* \"contracts/Candidatos_Electorales.sol\":1776:1787  c.propuesta */\n      0x80\n      add\n      mload\n        /* \"contracts/Candidatos_Electorales.sol\":1739:1788  return (c.nombre, c.partido, c.edad, c.propuesta) */\n      swap5\n      pop\n      swap5\n      pop\n      swap5\n      pop\n      swap5\n      pop\n      pop\n        /* \"contracts/Candidatos_Electorales.sol\":1463:1795  function verCandidato(string memory cedula) public view returns (string memory nombre, string memory partido, uint edad, string memory propuesta) {... */\n      swap2\n      swap4\n      pop\n      swap2\n      swap4\n      jump\t// out\n        /* \"contracts/Candidatos_Electorales.sol\":2883:3006  function candidatoExiste(string memory cedula) public view returns (bool) {... */\n    tag_39:\n        /* \"contracts/Candidatos_Electorales.sol\":2951:2955  bool */\n      0x00\n        /* \"contracts/Candidatos_Electorales.sol\":2974:2984  candidatos */\n      0x00\n        /* \"contracts/Candidatos_Electorales.sol\":2985:2991  cedula */\n      dup3\n        /* \"contracts/Candidatos_Electorales.sol\":2974:2992  candidatos[cedula] */\n      mload(0x40)\n      tag_139\n      swap2\n      swap1\n      tag_51\n      jump\t// in\n    tag_139:\n      swap1\n      dup2\n      mstore\n      0x20\n      add\n      mload(0x40)\n      dup1\n      swap2\n      sub\n      swap1\n      keccak256\n        /* \"contracts/Candidatos_Electorales.sol\":2974:2999  candidatos[cedula].existe */\n      0x05\n      add\n      0x00\n      swap1\n      sload\n      swap1\n      0x0100\n      exp\n      swap1\n      div\n      0xff\n      and\n        /* \"contracts/Candidatos_Electorales.sol\":2967:2999  return candidatos[cedula].existe */\n      swap1\n      pop\n        /* \"contracts/Candidatos_Electorales.sol\":2883:3006  function candidatoExiste(string memory cedula) public view returns (bool) {... */\n      swap2\n      swap1\n      pop\n      jump\t// out\n        /* \"contracts/Candidatos_Electorales.sol\":1838:2258  function editarCandidato(string memory cedula, string memory nombre, string memory partido, uint edad, string memory propuesta) public soloAdministrador {... */\n    tag_44:\n        /* \"contracts/Candidatos_Electorales.sol\":675:688  administrador */\n      0x02\n      0x00\n      swap1\n      sload\n      swap1\n      0x0100\n      exp\n      swap1\n      div\n      0xffffffffffffffffffffffffffffffffffffffff\n      and\n        /* \"contracts/Candidatos_Electorales.sol\":661:688  msg.sender == administrador */\n      0xffffffffffffffffffffffffffffffffffffffff\n      and\n        /* \"contracts/Candidatos_Electorales.sol\":661:671  msg.sender */\n      caller\n        /* \"contracts/Candidatos_Electorales.sol\":661:688  msg.sender == administrador */\n      0xffffffffffffffffffffffffffffffffffffffff\n      and\n      eq\n        /* \"contracts/Candidatos_Electorales.sol\":653:742  require(msg.sender == administrador, \"Solo el administrador puede ejecutar esta funcion\") */\n      tag_141\n      jumpi\n      mload(0x40)\n      0x08c379a000000000000000000000000000000000000000000000000000000000\n      dup2\n      mstore\n      0x04\n      add\n      tag_142\n      swap1\n      tag_48\n      jump\t// in\n    tag_142:\n      mload(0x40)\n      dup1\n      swap2\n      sub\n      swap1\n      revert\n    tag_141:\n        /* \"contracts/Candidatos_Electorales.sol\":2009:2019  candidatos */\n      0x00\n        /* \"contracts/Candidatos_Electorales.sol\":2020:2026  cedula */\n      dup6\n        /* \"contracts/Candidatos_Electorales.sol\":2009:2027  candidatos[cedula] */\n      mload(0x40)\n      tag_144\n      swap2\n      swap1\n      tag_51\n      jump\t// in\n    tag_144:\n      swap1\n      dup2\n      mstore\n      0x20\n      add\n      mload(0x40)\n      dup1\n      swap2\n      sub\n      swap1\n      keccak256\n        /* \"contracts/Candidatos_Electorales.sol\":2009:2034  candidatos[cedula].existe */\n      0x05\n      add\n      0x00\n      swap1\n      sload\n      swap1\n      0x0100\n      exp\n      swap1\n      div\n      0xff\n      and\n        /* \"contracts/Candidatos_Electorales.sol\":2001:2062  require(candidatos[cedula].existe, \"Candidato no encontrado\") */\n      tag_145\n      jumpi\n      mload(0x40)\n      0x08c379a000000000000000000000000000000000000000000000000000000000\n      dup2\n      mstore\n      0x04\n      add\n      tag_146\n      swap1\n      tag_80\n      jump\t// in\n    tag_146:\n      mload(0x40)\n      dup1\n      swap2\n      sub\n      swap1\n      revert\n    tag_145:\n        /* \"contracts/Candidatos_Electorales.sol\":2109:2115  nombre */\n      dup4\n        /* \"contracts/Candidatos_Electorales.sol\":2081:2091  candidatos */\n      0x00\n        /* \"contracts/Candidatos_Electorales.sol\":2092:2098  cedula */\n      dup7\n        /* \"contracts/Candidatos_Electorales.sol\":2081:2099  candidatos[cedula] */\n      mload(0x40)\n      tag_147\n      swap2\n      swap1\n      tag_51\n      jump\t// in\n    tag_147:\n      swap1\n      dup2\n      mstore\n      0x20\n      add\n      mload(0x40)\n      dup1\n      swap2\n      sub\n      swap1\n      keccak256\n        /* \"contracts/Candidatos_Electorales.sol\":2081:2106  candidatos[cedula].nombre */\n      0x01\n      add\n        /* \"contracts/Candidatos_Electorales.sol\":2081:2115  candidatos[cedula].nombre = nombre */\n      swap1\n      dup2\n      tag_148\n      swap2\n      swap1\n      tag_57\n      jump\t// in\n    tag_148:\n      pop\n        /* \"contracts/Candidatos_Electorales.sol\":2154:2161  partido */\n      dup3\n        /* \"contracts/Candidatos_Electorales.sol\":2125:2135  candidatos */\n      0x00\n        /* \"contracts/Candidatos_Electorales.sol\":2136:2142  cedula */\n      dup7\n        /* \"contracts/Candidatos_Electorales.sol\":2125:2143  candidatos[cedula] */\n      mload(0x40)\n      tag_149\n      swap2\n      swap1\n      tag_51\n      jump\t// in\n    tag_149:\n      swap1\n      dup2\n      mstore\n      0x20\n      add\n      mload(0x40)\n      dup1\n      swap2\n      sub\n      swap1\n      keccak256\n        /* \"contracts/Candidatos_Electorales.sol\":2125:2151  candidatos[cedula].partido */\n      0x02\n      add\n        /* \"contracts/Candidatos_Electorales.sol\":2125:2161  candidatos[cedula].partido = partido */\n      swap1\n      dup2\n      tag_150\n      swap2\n      swap1\n      tag_57\n      jump\t// in\n    tag_150:\n      pop\n        /* \"contracts/Candidatos_Electorales.sol\":2197:2201  edad */\n      dup2\n        /* \"contracts/Candidatos_Electorales.sol\":2171:2181  candidatos */\n      0x00\n        /* \"contracts/Candidatos_Electorales.sol\":2182:2188  cedula */\n      dup7\n        /* \"contracts/Candidatos_Electorales.sol\":2171:2189  candidatos[cedula] */\n      mload(0x40)\n      tag_151\n      swap2\n      swap1\n      tag_51\n      jump\t// in\n    tag_151:\n      swap1\n      dup2\n      mstore\n      0x20\n      add\n      mload(0x40)\n      dup1\n      swap2\n      sub\n      swap1\n      keccak256\n        /* \"contracts/Candidatos_Electorales.sol\":2171:2194  candidatos[cedula].edad */\n      0x03\n      add\n        /* \"contracts/Candidatos_Electorales.sol\":2171:2201  candidatos[cedula].edad = edad */\n      dup2\n      swap1\n      sstore\n      pop\n        /* \"contracts/Candidatos_Electorales.sol\":2242:2251  propuesta */\n      dup1\n        /* \"contracts/Candidatos_Electorales.sol\":2211:2221  candidatos */\n      0x00\n        /* \"contracts/Candidatos_Electorales.sol\":2222:2228  cedula */\n      dup7\n        /* \"contracts/Candidatos_Electorales.sol\":2211:2229  candidatos[cedula] */\n      mload(0x40)\n      tag_152\n      swap2\n      swap1\n      tag_51\n      jump\t// in\n    tag_152:\n      swap1\n      dup2\n      mstore\n      0x20\n      add\n      mload(0x40)\n      dup1\n      swap2\n      sub\n      swap1\n      keccak256\n        /* \"contracts/Candidatos_Electorales.sol\":2211:2239  candidatos[cedula].propuesta */\n      0x04\n      add\n        /* \"contracts/Candidatos_Electorales.sol\":2211:2251  candidatos[cedula].propuesta = propuesta */\n      swap1\n      dup2\n      tag_153\n      swap2\n      swap1\n      tag_57\n      jump\t// in\n    tag_153:\n      pop\n        /* \"contracts/Candidatos_Electorales.sol\":1838:2258  function editarCandidato(string memory cedula, string memory nombre, string memory partido, uint edad, string memory propuesta) public soloAdministrador {... */\n      pop\n      pop\n      pop\n      pop\n      pop\n      jump\t// out\n    tag_83:\n      pop\n      dup1\n      sload\n      tag_154\n      swap1\n      tag_68\n      jump\t// in\n    tag_154:\n      0x00\n      dup3\n      sstore\n      dup1\n      0x1f\n      lt\n      tag_156\n      jumpi\n      pop\n      jump(tag_155)\n    tag_156:\n      0x1f\n      add\n      0x20\n      swap1\n      div\n      swap1\n      0x00\n      mstore\n      keccak256(0x00, 0x20)\n      swap1\n      dup2\n      add\n      swap1\n      tag_157\n      swap2\n      swap1\n      tag_158\n      jump\t// in\n    tag_157:\n    tag_155:\n      pop\n      jump\t// out\n    tag_158:\n    tag_159:\n      dup1\n      dup3\n      gt\n      iszero\n      tag_160\n      jumpi\n      0x00\n      dup2\n      0x00\n      swap1\n      sstore\n      pop\n      0x01\n      add\n      jump(tag_159)\n    tag_160:\n      pop\n      swap1\n      jump\t// out\n        /* \"#utility.yul\":7:82   */\n    tag_161:\n        /* \"#utility.yul\":40:46   */\n      0x00\n        /* \"#utility.yul\":73:75   */\n      0x40\n        /* \"#utility.yul\":67:76   */\n      mload\n        /* \"#utility.yul\":57:76   */\n      swap1\n      pop\n        /* \"#utility.yul\":7:82   */\n      swap1\n      jump\t// out\n        /* \"#utility.yul\":88:205   */\n    tag_162:\n        /* \"#utility.yul\":197:198   */\n      0x00\n        /* \"#utility.yul\":194:195   */\n      0x00\n        /* \"#utility.yul\":187:199   */\n      revert\n        /* \"#utility.yul\":211:328   */\n    tag_163:\n        /* \"#utility.yul\":320:321   */\n      0x00\n        /* \"#utility.yul\":317:318   */\n      0x00\n        /* \"#utility.yul\":310:322   */\n      revert\n        /* \"#utility.yul\":334:451   */\n    tag_164:\n        /* \"#utility.yul\":443:444   */\n      0x00\n        /* \"#utility.yul\":440:441   */\n      0x00\n        /* \"#utility.yul\":433:445   */\n      revert\n        /* \"#utility.yul\":457:574   */\n    tag_165:\n        /* \"#utility.yul\":566:567   */\n      0x00\n        /* \"#utility.yul\":563:564   */\n      0x00\n        /* \"#utility.yul\":556:568   */\n      revert\n        /* \"#utility.yul\":580:682   */\n    tag_166:\n        /* \"#utility.yul\":621:627   */\n      0x00\n        /* \"#utility.yul\":672:674   */\n      0x1f\n        /* \"#utility.yul\":668:675   */\n      not\n        /* \"#utility.yul\":663:665   */\n      0x1f\n        /* \"#utility.yul\":656:661   */\n      dup4\n        /* \"#utility.yul\":652:666   */\n      add\n        /* \"#utility.yul\":648:676   */\n      and\n        /* \"#utility.yul\":638:676   */\n      swap1\n      pop\n        /* \"#utility.yul\":580:682   */\n      swap2\n      swap1\n      pop\n      jump\t// out\n        /* \"#utility.yul\":688:868   */\n    tag_167:\n        /* \"#utility.yul\":736:813   */\n      0x4e487b7100000000000000000000000000000000000000000000000000000000\n        /* \"#utility.yul\":733:734   */\n      0x00\n        /* \"#utility.yul\":726:814   */\n      mstore\n        /* \"#utility.yul\":833:837   */\n      0x41\n        /* \"#utility.yul\":830:831   */\n      0x04\n        /* \"#utility.yul\":823:838   */\n      mstore\n        /* \"#utility.yul\":857:861   */\n      0x24\n        /* \"#utility.yul\":854:855   */\n      0x00\n        /* \"#utility.yul\":847:862   */\n      revert\n        /* \"#utility.yul\":874:1155   */\n    tag_168:\n        /* \"#utility.yul\":957:984   */\n      tag_234\n        /* \"#utility.yul\":979:983   */\n      dup3\n        /* \"#utility.yul\":957:984   */\n      tag_166\n      jump\t// in\n    tag_234:\n        /* \"#utility.yul\":949:955   */\n      dup2\n        /* \"#utility.yul\":945:985   */\n      add\n        /* \"#utility.yul\":1087:1093   */\n      dup2\n        /* \"#utility.yul\":1075:1085   */\n      dup2\n        /* \"#utility.yul\":1072:1094   */\n      lt\n        /* \"#utility.yul\":1051:1069   */\n      0xffffffffffffffff\n        /* \"#utility.yul\":1039:1049   */\n      dup3\n        /* \"#utility.yul\":1036:1070   */\n      gt\n        /* \"#utility.yul\":1033:1095   */\n      or\n        /* \"#utility.yul\":1030:1118   */\n      iszero\n      tag_235\n      jumpi\n        /* \"#utility.yul\":1098:1116   */\n      tag_236\n      tag_167\n      jump\t// in\n    tag_236:\n        /* \"#utility.yul\":1030:1118   */\n    tag_235:\n        /* \"#utility.yul\":1138:1148   */\n      dup1\n        /* \"#utility.yul\":1134:1136   */\n      0x40\n        /* \"#utility.yul\":1127:1149   */\n      mstore\n        /* \"#utility.yul\":917:1155   */\n      pop\n        /* \"#utility.yul\":874:1155   */\n      pop\n      pop\n      jump\t// out\n        /* \"#utility.yul\":1161:1290   */\n    tag_169:\n        /* \"#utility.yul\":1195:1201   */\n      0x00\n        /* \"#utility.yul\":1222:1242   */\n      tag_238\n      tag_161\n      jump\t// in\n    tag_238:\n        /* \"#utility.yul\":1212:1242   */\n      swap1\n      pop\n        /* \"#utility.yul\":1251:1284   */\n      tag_239\n        /* \"#utility.yul\":1279:1283   */\n      dup3\n        /* \"#utility.yul\":1271:1277   */\n      dup3\n        /* \"#utility.yul\":1251:1284   */\n      tag_168\n      jump\t// in\n    tag_239:\n        /* \"#utility.yul\":1161:1290   */\n      swap2\n      swap1\n      pop\n      jump\t// out\n        /* \"#utility.yul\":1296:1604   */\n    tag_170:\n        /* \"#utility.yul\":1358:1362   */\n      0x00\n        /* \"#utility.yul\":1448:1466   */\n      0xffffffffffffffff\n        /* \"#utility.yul\":1440:1446   */\n      dup3\n        /* \"#utility.yul\":1437:1467   */\n      gt\n        /* \"#utility.yul\":1434:1490   */\n      iszero\n      tag_241\n      jumpi\n        /* \"#utility.yul\":1470:1488   */\n      tag_242\n      tag_167\n      jump\t// in\n    tag_242:\n        /* \"#utility.yul\":1434:1490   */\n    tag_241:\n        /* \"#utility.yul\":1508:1537   */\n      tag_243\n        /* \"#utility.yul\":1530:1536   */\n      dup3\n        /* \"#utility.yul\":1508:1537   */\n      tag_166\n      jump\t// in\n    tag_243:\n        /* \"#utility.yul\":1500:1537   */\n      swap1\n      pop\n        /* \"#utility.yul\":1592:1596   */\n      0x20\n        /* \"#utility.yul\":1586:1590   */\n      dup2\n        /* \"#utility.yul\":1582:1597   */\n      add\n        /* \"#utility.yul\":1574:1597   */\n      swap1\n      pop\n        /* \"#utility.yul\":1296:1604   */\n      swap2\n      swap1\n      pop\n      jump\t// out\n        /* \"#utility.yul\":1610:1758   */\n    tag_171:\n        /* \"#utility.yul\":1708:1714   */\n      dup3\n        /* \"#utility.yul\":1703:1706   */\n      dup2\n        /* \"#utility.yul\":1698:1701   */\n      dup4\n        /* \"#utility.yul\":1685:1715   */\n      calldatacopy\n        /* \"#utility.yul\":1749:1750   */\n      0x00\n        /* \"#utility.yul\":1740:1746   */\n      dup4\n        /* \"#utility.yul\":1735:1738   */\n      dup4\n        /* \"#utility.yul\":1731:1747   */\n      add\n        /* \"#utility.yul\":1724:1751   */\n      mstore\n        /* \"#utility.yul\":1610:1758   */\n      pop\n      pop\n      pop\n      jump\t// out\n        /* \"#utility.yul\":1764:2189   */\n    tag_172:\n        /* \"#utility.yul\":1842:1847   */\n      0x00\n        /* \"#utility.yul\":1867:1933   */\n      tag_246\n        /* \"#utility.yul\":1883:1932   */\n      tag_247\n        /* \"#utility.yul\":1925:1931   */\n      dup5\n        /* \"#utility.yul\":1883:1932   */\n      tag_170\n      jump\t// in\n    tag_247:\n        /* \"#utility.yul\":1867:1933   */\n      tag_169\n      jump\t// in\n    tag_246:\n        /* \"#utility.yul\":1858:1933   */\n      swap1\n      pop\n        /* \"#utility.yul\":1956:1962   */\n      dup3\n        /* \"#utility.yul\":1949:1954   */\n      dup2\n        /* \"#utility.yul\":1942:1963   */\n      mstore\n        /* \"#utility.yul\":1994:1998   */\n      0x20\n        /* \"#utility.yul\":1987:1992   */\n      dup2\n        /* \"#utility.yul\":1983:1999   */\n      add\n        /* \"#utility.yul\":2032:2035   */\n      dup5\n        /* \"#utility.yul\":2023:2029   */\n      dup5\n        /* \"#utility.yul\":2018:2021   */\n      dup5\n        /* \"#utility.yul\":2014:2030   */\n      add\n        /* \"#utility.yul\":2011:2036   */\n      gt\n        /* \"#utility.yul\":2008:2120   */\n      iszero\n      tag_248\n      jumpi\n        /* \"#utility.yul\":2039:2118   */\n      tag_249\n      tag_165\n      jump\t// in\n    tag_249:\n        /* \"#utility.yul\":2008:2120   */\n    tag_248:\n        /* \"#utility.yul\":2129:2183   */\n      tag_250\n        /* \"#utility.yul\":2176:2182   */\n      dup5\n        /* \"#utility.yul\":2171:2174   */\n      dup3\n        /* \"#utility.yul\":2166:2169   */\n      dup6\n        /* \"#utility.yul\":2129:2183   */\n      tag_171\n      jump\t// in\n    tag_250:\n        /* \"#utility.yul\":1848:2189   */\n      pop\n        /* \"#utility.yul\":1764:2189   */\n      swap4\n      swap3\n      pop\n      pop\n      pop\n      jump\t// out\n        /* \"#utility.yul\":2209:2549   */\n    tag_173:\n        /* \"#utility.yul\":2265:2270   */\n      0x00\n        /* \"#utility.yul\":2314:2317   */\n      dup3\n        /* \"#utility.yul\":2307:2311   */\n      0x1f\n        /* \"#utility.yul\":2299:2305   */\n      dup4\n        /* \"#utility.yul\":2295:2312   */\n      add\n        /* \"#utility.yul\":2291:2318   */\n      slt\n        /* \"#utility.yul\":2281:2403   */\n      tag_252\n      jumpi\n        /* \"#utility.yul\":2322:2401   */\n      tag_253\n      tag_164\n      jump\t// in\n    tag_253:\n        /* \"#utility.yul\":2281:2403   */\n    tag_252:\n        /* \"#utility.yul\":2439:2445   */\n      dup2\n        /* \"#utility.yul\":2426:2446   */\n      calldataload\n        /* \"#utility.yul\":2464:2543   */\n      tag_254\n        /* \"#utility.yul\":2539:2542   */\n      dup5\n        /* \"#utility.yul\":2531:2537   */\n      dup3\n        /* \"#utility.yul\":2524:2528   */\n      0x20\n        /* \"#utility.yul\":2516:2522   */\n      dup7\n        /* \"#utility.yul\":2512:2529   */\n      add\n        /* \"#utility.yul\":2464:2543   */\n      tag_172\n      jump\t// in\n    tag_254:\n        /* \"#utility.yul\":2455:2543   */\n      swap2\n      pop\n        /* \"#utility.yul\":2271:2549   */\n      pop\n        /* \"#utility.yul\":2209:2549   */\n      swap3\n      swap2\n      pop\n      pop\n      jump\t// out\n        /* \"#utility.yul\":2555:2632   */\n    tag_174:\n        /* \"#utility.yul\":2592:2599   */\n      0x00\n        /* \"#utility.yul\":2621:2626   */\n      dup2\n        /* \"#utility.yul\":2610:2626   */\n      swap1\n      pop\n        /* \"#utility.yul\":2555:2632   */\n      swap2\n      swap1\n      pop\n      jump\t// out\n        /* \"#utility.yul\":2638:2760   */\n    tag_175:\n        /* \"#utility.yul\":2711:2735   */\n      tag_257\n        /* \"#utility.yul\":2729:2734   */\n      dup2\n        /* \"#utility.yul\":2711:2735   */\n      tag_174\n      jump\t// in\n    tag_257:\n        /* \"#utility.yul\":2704:2709   */\n      dup2\n        /* \"#utility.yul\":2701:2736   */\n      eq\n        /* \"#utility.yul\":2691:2754   */\n      tag_258\n      jumpi\n        /* \"#utility.yul\":2750:2751   */\n      0x00\n        /* \"#utility.yul\":2747:2748   */\n      0x00\n        /* \"#utility.yul\":2740:2752   */\n      revert\n        /* \"#utility.yul\":2691:2754   */\n    tag_258:\n        /* \"#utility.yul\":2638:2760   */\n      pop\n      jump\t// out\n        /* \"#utility.yul\":2766:2905   */\n    tag_176:\n        /* \"#utility.yul\":2812:2817   */\n      0x00\n        /* \"#utility.yul\":2850:2856   */\n      dup2\n        /* \"#utility.yul\":2837:2857   */\n      calldataload\n        /* \"#utility.yul\":2828:2857   */\n      swap1\n      pop\n        /* \"#utility.yul\":2866:2899   */\n      tag_260\n        /* \"#utility.yul\":2893:2898   */\n      dup2\n        /* \"#utility.yul\":2866:2899   */\n      tag_175\n      jump\t// in\n    tag_260:\n        /* \"#utility.yul\":2766:2905   */\n      swap3\n      swap2\n      pop\n      pop\n      jump\t// out\n        /* \"#utility.yul\":2911:4542   */\n    tag_14:\n        /* \"#utility.yul\":3046:3052   */\n      0x00\n        /* \"#utility.yul\":3054:3060   */\n      0x00\n        /* \"#utility.yul\":3062:3068   */\n      0x00\n        /* \"#utility.yul\":3070:3076   */\n      0x00\n        /* \"#utility.yul\":3078:3084   */\n      0x00\n        /* \"#utility.yul\":3127:3130   */\n      0xa0\n        /* \"#utility.yul\":3115:3124   */\n      dup7\n        /* \"#utility.yul\":3106:3113   */\n      dup9\n        /* \"#utility.yul\":3102:3125   */\n      sub\n        /* \"#utility.yul\":3098:3131   */\n      slt\n        /* \"#utility.yul\":3095:3215   */\n      iszero\n      tag_262\n      jumpi\n        /* \"#utility.yul\":3134:3213   */\n      tag_263\n      tag_162\n      jump\t// in\n    tag_263:\n        /* \"#utility.yul\":3095:3215   */\n    tag_262:\n        /* \"#utility.yul\":3282:3283   */\n      0x00\n        /* \"#utility.yul\":3271:3280   */\n      dup7\n        /* \"#utility.yul\":3267:3284   */\n      add\n        /* \"#utility.yul\":3254:3285   */\n      calldataload\n        /* \"#utility.yul\":3312:3330   */\n      0xffffffffffffffff\n        /* \"#utility.yul\":3304:3310   */\n      dup2\n        /* \"#utility.yul\":3301:3331   */\n      gt\n        /* \"#utility.yul\":3298:3415   */\n      iszero\n      tag_264\n      jumpi\n        /* \"#utility.yul\":3334:3413   */\n      tag_265\n      tag_163\n      jump\t// in\n    tag_265:\n        /* \"#utility.yul\":3298:3415   */\n    tag_264:\n        /* \"#utility.yul\":3439:3502   */\n      tag_266\n        /* \"#utility.yul\":3494:3501   */\n      dup9\n        /* \"#utility.yul\":3485:3491   */\n      dup3\n        /* \"#utility.yul\":3474:3483   */\n      dup10\n        /* \"#utility.yul\":3470:3492   */\n      add\n        /* \"#utility.yul\":3439:3502   */\n      tag_173\n      jump\t// in\n    tag_266:\n        /* \"#utility.yul\":3429:3502   */\n      swap6\n      pop\n        /* \"#utility.yul\":3225:3512   */\n      pop\n        /* \"#utility.yul\":3579:3581   */\n      0x20\n        /* \"#utility.yul\":3568:3577   */\n      dup7\n        /* \"#utility.yul\":3564:3582   */\n      add\n        /* \"#utility.yul\":3551:3583   */\n      calldataload\n        /* \"#utility.yul\":3610:3628   */\n      0xffffffffffffffff\n        /* \"#utility.yul\":3602:3608   */\n      dup2\n        /* \"#utility.yul\":3599:3629   */\n      gt\n        /* \"#utility.yul\":3596:3713   */\n      iszero\n      tag_267\n      jumpi\n        /* \"#utility.yul\":3632:3711   */\n      tag_268\n      tag_163\n      jump\t// in\n    tag_268:\n        /* \"#utility.yul\":3596:3713   */\n    tag_267:\n        /* \"#utility.yul\":3737:3800   */\n      tag_269\n        /* \"#utility.yul\":3792:3799   */\n      dup9\n        /* \"#utility.yul\":3783:3789   */\n      dup3\n        /* \"#utility.yul\":3772:3781   */\n      dup10\n        /* \"#utility.yul\":3768:3790   */\n      add\n        /* \"#utility.yul\":3737:3800   */\n      tag_173\n      jump\t// in\n    tag_269:\n        /* \"#utility.yul\":3727:3800   */\n      swap5\n      pop\n        /* \"#utility.yul\":3522:3810   */\n      pop\n        /* \"#utility.yul\":3877:3879   */\n      0x40\n        /* \"#utility.yul\":3866:3875   */\n      dup7\n        /* \"#utility.yul\":3862:3880   */\n      add\n        /* \"#utility.yul\":3849:3881   */\n      calldataload\n        /* \"#utility.yul\":3908:3926   */\n      0xffffffffffffffff\n        /* \"#utility.yul\":3900:3906   */\n      dup2\n        /* \"#utility.yul\":3897:3927   */\n      gt\n        /* \"#utility.yul\":3894:4011   */\n      iszero\n      tag_270\n      jumpi\n        /* \"#utility.yul\":3930:4009   */\n      tag_271\n      tag_163\n      jump\t// in\n    tag_271:\n        /* \"#utility.yul\":3894:4011   */\n    tag_270:\n        /* \"#utility.yul\":4035:4098   */\n      tag_272\n        /* \"#utility.yul\":4090:4097   */\n      dup9\n        /* \"#utility.yul\":4081:4087   */\n      dup3\n        /* \"#utility.yul\":4070:4079   */\n      dup10\n        /* \"#utility.yul\":4066:4088   */\n      add\n        /* \"#utility.yul\":4035:4098   */\n      tag_173\n      jump\t// in\n    tag_272:\n        /* \"#utility.yul\":4025:4098   */\n      swap4\n      pop\n        /* \"#utility.yul\":3820:4108   */\n      pop\n        /* \"#utility.yul\":4147:4149   */\n      0x60\n        /* \"#utility.yul\":4173:4226   */\n      tag_273\n        /* \"#utility.yul\":4218:4225   */\n      dup9\n        /* \"#utility.yul\":4209:4215   */\n      dup3\n        /* \"#utility.yul\":4198:4207   */\n      dup10\n        /* \"#utility.yul\":4194:4216   */\n      add\n        /* \"#utility.yul\":4173:4226   */\n      tag_176\n      jump\t// in\n    tag_273:\n        /* \"#utility.yul\":4163:4226   */\n      swap3\n      pop\n        /* \"#utility.yul\":4118:4236   */\n      pop\n        /* \"#utility.yul\":4303:4306   */\n      0x80\n        /* \"#utility.yul\":4292:4301   */\n      dup7\n        /* \"#utility.yul\":4288:4307   */\n      add\n        /* \"#utility.yul\":4275:4308   */\n      calldataload\n        /* \"#utility.yul\":4335:4353   */\n      0xffffffffffffffff\n        /* \"#utility.yul\":4327:4333   */\n      dup2\n        /* \"#utility.yul\":4324:4354   */\n      gt\n        /* \"#utility.yul\":4321:4438   */\n      iszero\n      tag_274\n      jumpi\n        /* \"#utility.yul\":4357:4436   */\n      tag_275\n      tag_163\n      jump\t// in\n    tag_275:\n        /* \"#utility.yul\":4321:4438   */\n    tag_274:\n        /* \"#utility.yul\":4462:4525   */\n      tag_276\n        /* \"#utility.yul\":4517:4524   */\n      dup9\n        /* \"#utility.yul\":4508:4514   */\n      dup3\n        /* \"#utility.yul\":4497:4506   */\n      dup10\n        /* \"#utility.yul\":4493:4515   */\n      add\n        /* \"#utility.yul\":4462:4525   */\n      tag_173\n      jump\t// in\n    tag_276:\n        /* \"#utility.yul\":4452:4525   */\n      swap2\n      pop\n        /* \"#utility.yul\":4246:4535   */\n      pop\n        /* \"#utility.yul\":2911:4542   */\n      swap3\n      swap6\n      pop\n      swap3\n      swap6\n      swap1\n      swap4\n      pop\n      jump\t// out\n        /* \"#utility.yul\":4548:4672   */\n    tag_177:\n        /* \"#utility.yul\":4625:4631   */\n      0x00\n        /* \"#utility.yul\":4659:4664   */\n      dup2\n        /* \"#utility.yul\":4653:4665   */\n      mload\n        /* \"#utility.yul\":4643:4665   */\n      swap1\n      pop\n        /* \"#utility.yul\":4548:4672   */\n      swap2\n      swap1\n      pop\n      jump\t// out\n        /* \"#utility.yul\":4678:4872   */\n    tag_178:\n        /* \"#utility.yul\":4787:4798   */\n      0x00\n        /* \"#utility.yul\":4821:4827   */\n      dup3\n        /* \"#utility.yul\":4816:4819   */\n      dup3\n        /* \"#utility.yul\":4809:4828   */\n      mstore\n        /* \"#utility.yul\":4861:4865   */\n      0x20\n        /* \"#utility.yul\":4856:4859   */\n      dup3\n        /* \"#utility.yul\":4852:4866   */\n      add\n        /* \"#utility.yul\":4837:4866   */\n      swap1\n      pop\n        /* \"#utility.yul\":4678:4872   */\n      swap3\n      swap2\n      pop\n      pop\n      jump\t// out\n        /* \"#utility.yul\":4878:5020   */\n    tag_179:\n        /* \"#utility.yul\":4955:4959   */\n      0x00\n        /* \"#utility.yul\":4978:4981   */\n      dup2\n        /* \"#utility.yul\":4970:4981   */\n      swap1\n      pop\n        /* \"#utility.yul\":5008:5012   */\n      0x20\n        /* \"#utility.yul\":5003:5006   */\n      dup3\n        /* \"#utility.yul\":4999:5013   */\n      add\n        /* \"#utility.yul\":4991:5013   */\n      swap1\n      pop\n        /* \"#utility.yul\":4878:5020   */\n      swap2\n      swap1\n      pop\n      jump\t// out\n        /* \"#utility.yul\":5026:5125   */\n    tag_180:\n        /* \"#utility.yul\":5078:5084   */\n      0x00\n        /* \"#utility.yul\":5112:5117   */\n      dup2\n        /* \"#utility.yul\":5106:5118   */\n      mload\n        /* \"#utility.yul\":5096:5118   */\n      swap1\n      pop\n        /* \"#utility.yul\":5026:5125   */\n      swap2\n      swap1\n      pop\n      jump\t// out\n        /* \"#utility.yul\":5131:5290   */\n    tag_181:\n        /* \"#utility.yul\":5205:5216   */\n      0x00\n        /* \"#utility.yul\":5239:5245   */\n      dup3\n        /* \"#utility.yul\":5234:5237   */\n      dup3\n        /* \"#utility.yul\":5227:5246   */\n      mstore\n        /* \"#utility.yul\":5279:5283   */\n      0x20\n        /* \"#utility.yul\":5274:5277   */\n      dup3\n        /* \"#utility.yul\":5270:5284   */\n      add\n        /* \"#utility.yul\":5255:5284   */\n      swap1\n      pop\n        /* \"#utility.yul\":5131:5290   */\n      swap3\n      swap2\n      pop\n      pop\n      jump\t// out\n        /* \"#utility.yul\":5296:5435   */\n    tag_182:\n        /* \"#utility.yul\":5385:5391   */\n      dup3\n        /* \"#utility.yul\":5380:5383   */\n      dup2\n        /* \"#utility.yul\":5375:5378   */\n      dup4\n        /* \"#utility.yul\":5369:5392   */\n      mcopy\n        /* \"#utility.yul\":5426:5427   */\n      0x00\n        /* \"#utility.yul\":5417:5423   */\n      dup4\n        /* \"#utility.yul\":5412:5415   */\n      dup4\n        /* \"#utility.yul\":5408:5424   */\n      add\n        /* \"#utility.yul\":5401:5428   */\n      mstore\n        /* \"#utility.yul\":5296:5435   */\n      pop\n      pop\n      pop\n      jump\t// out\n        /* \"#utility.yul\":5441:5798   */\n    tag_183:\n        /* \"#utility.yul\":5519:5522   */\n      0x00\n        /* \"#utility.yul\":5547:5586   */\n      tag_284\n        /* \"#utility.yul\":5580:5585   */\n      dup3\n        /* \"#utility.yul\":5547:5586   */\n      tag_180\n      jump\t// in\n    tag_284:\n        /* \"#utility.yul\":5602:5663   */\n      tag_285\n        /* \"#utility.yul\":5656:5662   */\n      dup2\n        /* \"#utility.yul\":5651:5654   */\n      dup6\n        /* \"#utility.yul\":5602:5663   */\n      tag_181\n      jump\t// in\n    tag_285:\n        /* \"#utility.yul\":5595:5663   */\n      swap4\n      pop\n        /* \"#utility.yul\":5672:5737   */\n      tag_286\n        /* \"#utility.yul\":5730:5736   */\n      dup2\n        /* \"#utility.yul\":5725:5728   */\n      dup6\n        /* \"#utility.yul\":5718:5722   */\n      0x20\n        /* \"#utility.yul\":5711:5716   */\n      dup7\n        /* \"#utility.yul\":5707:5723   */\n      add\n        /* \"#utility.yul\":5672:5737   */\n      tag_182\n      jump\t// in\n    tag_286:\n        /* \"#utility.yul\":5762:5791   */\n      tag_287\n        /* \"#utility.yul\":5784:5790   */\n      dup2\n        /* \"#utility.yul\":5762:5791   */\n      tag_166\n      jump\t// in\n    tag_287:\n        /* \"#utility.yul\":5757:5760   */\n      dup5\n        /* \"#utility.yul\":5753:5792   */\n      add\n        /* \"#utility.yul\":5746:5792   */\n      swap2\n      pop\n        /* \"#utility.yul\":5523:5798   */\n      pop\n        /* \"#utility.yul\":5441:5798   */\n      swap3\n      swap2\n      pop\n      pop\n      jump\t// out\n        /* \"#utility.yul\":5804:6000   */\n    tag_184:\n        /* \"#utility.yul\":5893:5903   */\n      0x00\n        /* \"#utility.yul\":5928:5994   */\n      tag_289\n        /* \"#utility.yul\":5990:5993   */\n      dup4\n        /* \"#utility.yul\":5982:5988   */\n      dup4\n        /* \"#utility.yul\":5928:5994   */\n      tag_183\n      jump\t// in\n    tag_289:\n        /* \"#utility.yul\":5914:5994   */\n      swap1\n      pop\n        /* \"#utility.yul\":5804:6000   */\n      swap3\n      swap2\n      pop\n      pop\n      jump\t// out\n        /* \"#utility.yul\":6006:6129   */\n    tag_185:\n        /* \"#utility.yul\":6086:6090   */\n      0x00\n        /* \"#utility.yul\":6118:6122   */\n      0x20\n        /* \"#utility.yul\":6113:6116   */\n      dup3\n        /* \"#utility.yul\":6109:6123   */\n      add\n        /* \"#utility.yul\":6101:6123   */\n      swap1\n      pop\n        /* \"#utility.yul\":6006:6129   */\n      swap2\n      swap1\n      pop\n      jump\t// out\n        /* \"#utility.yul\":6163:7154   */\n    tag_186:\n        /* \"#utility.yul\":6302:6305   */\n      0x00\n        /* \"#utility.yul\":6331:6395   */\n      tag_292\n        /* \"#utility.yul\":6389:6394   */\n      dup3\n        /* \"#utility.yul\":6331:6395   */\n      tag_177\n      jump\t// in\n    tag_292:\n        /* \"#utility.yul\":6411:6507   */\n      tag_293\n        /* \"#utility.yul\":6500:6506   */\n      dup2\n        /* \"#utility.yul\":6495:6498   */\n      dup6\n        /* \"#utility.yul\":6411:6507   */\n      tag_178\n      jump\t// in\n    tag_293:\n        /* \"#utility.yul\":6404:6507   */\n      swap4\n      pop\n        /* \"#utility.yul\":6533:6536   */\n      dup4\n        /* \"#utility.yul\":6578:6582   */\n      0x20\n        /* \"#utility.yul\":6570:6576   */\n      dup3\n        /* \"#utility.yul\":6566:6583   */\n      mul\n        /* \"#utility.yul\":6561:6564   */\n      dup6\n        /* \"#utility.yul\":6557:6584   */\n      add\n        /* \"#utility.yul\":6608:6674   */\n      tag_294\n        /* \"#utility.yul\":6668:6673   */\n      dup6\n        /* \"#utility.yul\":6608:6674   */\n      tag_179\n      jump\t// in\n    tag_294:\n        /* \"#utility.yul\":6697:6704   */\n      dup1\n        /* \"#utility.yul\":6728:6729   */\n      0x00\n        /* \"#utility.yul\":6713:7109   */\n    tag_295:\n        /* \"#utility.yul\":6738:6744   */\n      dup6\n        /* \"#utility.yul\":6735:6736   */\n      dup2\n        /* \"#utility.yul\":6732:6745   */\n      lt\n        /* \"#utility.yul\":6713:7109   */\n      iszero\n      tag_297\n      jumpi\n        /* \"#utility.yul\":6809:6818   */\n      dup5\n        /* \"#utility.yul\":6803:6807   */\n      dup5\n        /* \"#utility.yul\":6799:6819   */\n      sub\n        /* \"#utility.yul\":6794:6797   */\n      dup10\n        /* \"#utility.yul\":6787:6820   */\n      mstore\n        /* \"#utility.yul\":6860:6866   */\n      dup2\n        /* \"#utility.yul\":6854:6867   */\n      mload\n        /* \"#utility.yul\":6888:6972   */\n      tag_298\n        /* \"#utility.yul\":6967:6971   */\n      dup6\n        /* \"#utility.yul\":6952:6965   */\n      dup3\n        /* \"#utility.yul\":6888:6972   */\n      tag_184\n      jump\t// in\n    tag_298:\n        /* \"#utility.yul\":6880:6972   */\n      swap5\n      pop\n        /* \"#utility.yul\":6995:7065   */\n      tag_299\n        /* \"#utility.yul\":7058:7064   */\n      dup4\n        /* \"#utility.yul\":6995:7065   */\n      tag_185\n      jump\t// in\n    tag_299:\n        /* \"#utility.yul\":6985:7065   */\n      swap3\n      pop\n        /* \"#utility.yul\":7094:7098   */\n      0x20\n        /* \"#utility.yul\":7089:7092   */\n      dup11\n        /* \"#utility.yul\":7085:7099   */\n      add\n        /* \"#utility.yul\":7078:7099   */\n      swap10\n      pop\n        /* \"#utility.yul\":6773:7109   */\n      pop\n        /* \"#utility.yul\":6760:6761   */\n      0x01\n        /* \"#utility.yul\":6757:6758   */\n      dup2\n        /* \"#utility.yul\":6753:6762   */\n      add\n        /* \"#utility.yul\":6748:6762   */\n      swap1\n      pop\n        /* \"#utility.yul\":6713:7109   */\n      jump(tag_295)\n    tag_297:\n        /* \"#utility.yul\":6717:6731   */\n      pop\n        /* \"#utility.yul\":7125:7129   */\n      dup3\n        /* \"#utility.yul\":7118:7129   */\n      swap8\n      pop\n        /* \"#utility.yul\":7145:7148   */\n      dup8\n        /* \"#utility.yul\":7138:7148   */\n      swap6\n      pop\n        /* \"#utility.yul\":6307:7154   */\n      pop\n      pop\n      pop\n      pop\n      pop\n        /* \"#utility.yul\":6163:7154   */\n      swap3\n      swap2\n      pop\n      pop\n      jump\t// out\n        /* \"#utility.yul\":7160:7573   */\n    tag_19:\n        /* \"#utility.yul\":7323:7327   */\n      0x00\n        /* \"#utility.yul\":7361:7363   */\n      0x20\n        /* \"#utility.yul\":7350:7359   */\n      dup3\n        /* \"#utility.yul\":7346:7364   */\n      add\n        /* \"#utility.yul\":7338:7364   */\n      swap1\n      pop\n        /* \"#utility.yul\":7410:7419   */\n      dup2\n        /* \"#utility.yul\":7404:7408   */\n      dup2\n        /* \"#utility.yul\":7400:7420   */\n      sub\n        /* \"#utility.yul\":7396:7397   */\n      0x00\n        /* \"#utility.yul\":7385:7394   */\n      dup4\n        /* \"#utility.yul\":7381:7398   */\n      add\n        /* \"#utility.yul\":7374:7421   */\n      mstore\n        /* \"#utility.yul\":7438:7566   */\n      tag_301\n        /* \"#utility.yul\":7561:7565   */\n      dup2\n        /* \"#utility.yul\":7552:7558   */\n      dup5\n        /* \"#utility.yul\":7438:7566   */\n      tag_186\n      jump\t// in\n    tag_301:\n        /* \"#utility.yul\":7430:7566   */\n      swap1\n      pop\n        /* \"#utility.yul\":7160:7573   */\n      swap3\n      swap2\n      pop\n      pop\n      jump\t// out\n        /* \"#utility.yul\":7579:7705   */\n    tag_187:\n        /* \"#utility.yul\":7616:7623   */\n      0x00\n        /* \"#utility.yul\":7656:7698   */\n      0xffffffffffffffffffffffffffffffffffffffff\n        /* \"#utility.yul\":7649:7654   */\n      dup3\n        /* \"#utility.yul\":7645:7699   */\n      and\n        /* \"#utility.yul\":7634:7699   */\n      swap1\n      pop\n        /* \"#utility.yul\":7579:7705   */\n      swap2\n      swap1\n      pop\n      jump\t// out\n        /* \"#utility.yul\":7711:7807   */\n    tag_188:\n        /* \"#utility.yul\":7748:7755   */\n      0x00\n        /* \"#utility.yul\":7777:7801   */\n      tag_304\n        /* \"#utility.yul\":7795:7800   */\n      dup3\n        /* \"#utility.yul\":7777:7801   */\n      tag_187\n      jump\t// in\n    tag_304:\n        /* \"#utility.yul\":7766:7801   */\n      swap1\n      pop\n        /* \"#utility.yul\":7711:7807   */\n      swap2\n      swap1\n      pop\n      jump\t// out\n        /* \"#utility.yul\":7813:7931   */\n    tag_189:\n        /* \"#utility.yul\":7900:7924   */\n      tag_306\n        /* \"#utility.yul\":7918:7923   */\n      dup2\n        /* \"#utility.yul\":7900:7924   */\n      tag_188\n      jump\t// in\n    tag_306:\n        /* \"#utility.yul\":7895:7898   */\n      dup3\n        /* \"#utility.yul\":7888:7925   */\n      mstore\n        /* \"#utility.yul\":7813:7931   */\n      pop\n      pop\n      jump\t// out\n        /* \"#utility.yul\":7937:8159   */\n    tag_23:\n        /* \"#utility.yul\":8030:8034   */\n      0x00\n        /* \"#utility.yul\":8068:8070   */\n      0x20\n        /* \"#utility.yul\":8057:8066   */\n      dup3\n        /* \"#utility.yul\":8053:8071   */\n      add\n        /* \"#utility.yul\":8045:8071   */\n      swap1\n      pop\n        /* \"#utility.yul\":8081:8152   */\n      tag_308\n        /* \"#utility.yul\":8149:8150   */\n      0x00\n        /* \"#utility.yul\":8138:8147   */\n      dup4\n        /* \"#utility.yul\":8134:8151   */\n      add\n        /* \"#utility.yul\":8125:8131   */\n      dup5\n        /* \"#utility.yul\":8081:8152   */\n      tag_189\n      jump\t// in\n    tag_308:\n        /* \"#utility.yul\":7937:8159   */\n      swap3\n      swap2\n      pop\n      pop\n      jump\t// out\n        /* \"#utility.yul\":8165:8674   */\n    tag_26:\n        /* \"#utility.yul\":8234:8240   */\n      0x00\n        /* \"#utility.yul\":8283:8285   */\n      0x20\n        /* \"#utility.yul\":8271:8280   */\n      dup3\n        /* \"#utility.yul\":8262:8269   */\n      dup5\n        /* \"#utility.yul\":8258:8281   */\n      sub\n        /* \"#utility.yul\":8254:8286   */\n      slt\n        /* \"#utility.yul\":8251:8370   */\n      iszero\n      tag_310\n      jumpi\n        /* \"#utility.yul\":8289:8368   */\n      tag_311\n      tag_162\n      jump\t// in\n    tag_311:\n        /* \"#utility.yul\":8251:8370   */\n    tag_310:\n        /* \"#utility.yul\":8437:8438   */\n      0x00\n        /* \"#utility.yul\":8426:8435   */\n      dup3\n        /* \"#utility.yul\":8422:8439   */\n      add\n        /* \"#utility.yul\":8409:8440   */\n      calldataload\n        /* \"#utility.yul\":8467:8485   */\n      0xffffffffffffffff\n        /* \"#utility.yul\":8459:8465   */\n      dup2\n        /* \"#utility.yul\":8456:8486   */\n      gt\n        /* \"#utility.yul\":8453:8570   */\n      iszero\n      tag_312\n      jumpi\n        /* \"#utility.yul\":8489:8568   */\n      tag_313\n      tag_163\n      jump\t// in\n    tag_313:\n        /* \"#utility.yul\":8453:8570   */\n    tag_312:\n        /* \"#utility.yul\":8594:8657   */\n      tag_314\n        /* \"#utility.yul\":8649:8656   */\n      dup5\n        /* \"#utility.yul\":8640:8646   */\n      dup3\n        /* \"#utility.yul\":8629:8638   */\n      dup6\n        /* \"#utility.yul\":8625:8647   */\n      add\n        /* \"#utility.yul\":8594:8657   */\n      tag_173\n      jump\t// in\n    tag_314:\n        /* \"#utility.yul\":8584:8657   */\n      swap2\n      pop\n        /* \"#utility.yul\":8380:8667   */\n      pop\n        /* \"#utility.yul\":8165:8674   */\n      swap3\n      swap2\n      pop\n      pop\n      jump\t// out\n        /* \"#utility.yul\":8680:8798   */\n    tag_190:\n        /* \"#utility.yul\":8767:8791   */\n      tag_316\n        /* \"#utility.yul\":8785:8790   */\n      dup2\n        /* \"#utility.yul\":8767:8791   */\n      tag_174\n      jump\t// in\n    tag_316:\n        /* \"#utility.yul\":8762:8765   */\n      dup3\n        /* \"#utility.yul\":8755:8792   */\n      mstore\n        /* \"#utility.yul\":8680:8798   */\n      pop\n      pop\n      jump\t// out\n        /* \"#utility.yul\":8804:9026   */\n    tag_31:\n        /* \"#utility.yul\":8897:8901   */\n      0x00\n        /* \"#utility.yul\":8935:8937   */\n      0x20\n        /* \"#utility.yul\":8924:8933   */\n      dup3\n        /* \"#utility.yul\":8920:8938   */\n      add\n        /* \"#utility.yul\":8912:8938   */\n      swap1\n      pop\n        /* \"#utility.yul\":8948:9019   */\n      tag_318\n        /* \"#utility.yul\":9016:9017   */\n      0x00\n        /* \"#utility.yul\":9005:9014   */\n      dup4\n        /* \"#utility.yul\":9001:9018   */\n      add\n        /* \"#utility.yul\":8992:8998   */\n      dup5\n        /* \"#utility.yul\":8948:9019   */\n      tag_190\n      jump\t// in\n    tag_318:\n        /* \"#utility.yul\":8804:9026   */\n      swap3\n      swap2\n      pop\n      pop\n      jump\t// out\n        /* \"#utility.yul\":9032:9201   */\n    tag_191:\n        /* \"#utility.yul\":9116:9127   */\n      0x00\n        /* \"#utility.yul\":9150:9156   */\n      dup3\n        /* \"#utility.yul\":9145:9148   */\n      dup3\n        /* \"#utility.yul\":9138:9157   */\n      mstore\n        /* \"#utility.yul\":9190:9194   */\n      0x20\n        /* \"#utility.yul\":9185:9188   */\n      dup3\n        /* \"#utility.yul\":9181:9195   */\n      add\n        /* \"#utility.yul\":9166:9195   */\n      swap1\n      pop\n        /* \"#utility.yul\":9032:9201   */\n      swap3\n      swap2\n      pop\n      pop\n      jump\t// out\n        /* \"#utility.yul\":9207:9584   */\n    tag_192:\n        /* \"#utility.yul\":9295:9298   */\n      0x00\n        /* \"#utility.yul\":9323:9362   */\n      tag_321\n        /* \"#utility.yul\":9356:9361   */\n      dup3\n        /* \"#utility.yul\":9323:9362   */\n      tag_180\n      jump\t// in\n    tag_321:\n        /* \"#utility.yul\":9378:9449   */\n      tag_322\n        /* \"#utility.yul\":9442:9448   */\n      dup2\n        /* \"#utility.yul\":9437:9440   */\n      dup6\n        /* \"#utility.yul\":9378:9449   */\n      tag_191\n      jump\t// in\n    tag_322:\n        /* \"#utility.yul\":9371:9449   */\n      swap4\n      pop\n        /* \"#utility.yul\":9458:9523   */\n      tag_323\n        /* \"#utility.yul\":9516:9522   */\n      dup2\n        /* \"#utility.yul\":9511:9514   */\n      dup6\n        /* \"#utility.yul\":9504:9508   */\n      0x20\n        /* \"#utility.yul\":9497:9502   */\n      dup7\n        /* \"#utility.yul\":9493:9509   */\n      add\n        /* \"#utility.yul\":9458:9523   */\n      tag_182\n      jump\t// in\n    tag_323:\n        /* \"#utility.yul\":9548:9577   */\n      tag_324\n        /* \"#utility.yul\":9570:9576   */\n      dup2\n        /* \"#utility.yul\":9548:9577   */\n      tag_166\n      jump\t// in\n    tag_324:\n        /* \"#utility.yul\":9543:9546   */\n      dup5\n        /* \"#utility.yul\":9539:9578   */\n      add\n        /* \"#utility.yul\":9532:9578   */\n      swap2\n      pop\n        /* \"#utility.yul\":9299:9584   */\n      pop\n        /* \"#utility.yul\":9207:9584   */\n      swap3\n      swap2\n      pop\n      pop\n      jump\t// out\n        /* \"#utility.yul\":9590:10416   */\n    tag_36:\n        /* \"#utility.yul\":9827:9831   */\n      0x00\n        /* \"#utility.yul\":9865:9868   */\n      0x80\n        /* \"#utility.yul\":9854:9863   */\n      dup3\n        /* \"#utility.yul\":9850:9869   */\n      add\n        /* \"#utility.yul\":9842:9869   */\n      swap1\n      pop\n        /* \"#utility.yul\":9915:9924   */\n      dup2\n        /* \"#utility.yul\":9909:9913   */\n      dup2\n        /* \"#utility.yul\":9905:9925   */\n      sub\n        /* \"#utility.yul\":9901:9902   */\n      0x00\n        /* \"#utility.yul\":9890:9899   */\n      dup4\n        /* \"#utility.yul\":9886:9903   */\n      add\n        /* \"#utility.yul\":9879:9926   */\n      mstore\n        /* \"#utility.yul\":9943:10021   */\n      tag_326\n        /* \"#utility.yul\":10016:10020   */\n      dup2\n        /* \"#utility.yul\":10007:10013   */\n      dup8\n        /* \"#utility.yul\":9943:10021   */\n      tag_192\n      jump\t// in\n    tag_326:\n        /* \"#utility.yul\":9935:10021   */\n      swap1\n      pop\n        /* \"#utility.yul\":10068:10077   */\n      dup2\n        /* \"#utility.yul\":10062:10066   */\n      dup2\n        /* \"#utility.yul\":10058:10078   */\n      sub\n        /* \"#utility.yul\":10053:10055   */\n      0x20\n        /* \"#utility.yul\":10042:10051   */\n      dup4\n        /* \"#utility.yul\":10038:10056   */\n      add\n        /* \"#utility.yul\":10031:10079   */\n      mstore\n        /* \"#utility.yul\":10096:10174   */\n      tag_327\n        /* \"#utility.yul\":10169:10173   */\n      dup2\n        /* \"#utility.yul\":10160:10166   */\n      dup7\n        /* \"#utility.yul\":10096:10174   */\n      tag_192\n      jump\t// in\n    tag_327:\n        /* \"#utility.yul\":10088:10174   */\n      swap1\n      pop\n        /* \"#utility.yul\":10184:10256   */\n      tag_328\n        /* \"#utility.yul\":10252:10254   */\n      0x40\n        /* \"#utility.yul\":10241:10250   */\n      dup4\n        /* \"#utility.yul\":10237:10255   */\n      add\n        /* \"#utility.yul\":10228:10234   */\n      dup6\n        /* \"#utility.yul\":10184:10256   */\n      tag_190\n      jump\t// in\n    tag_328:\n        /* \"#utility.yul\":10303:10312   */\n      dup2\n        /* \"#utility.yul\":10297:10301   */\n      dup2\n        /* \"#utility.yul\":10293:10313   */\n      sub\n        /* \"#utility.yul\":10288:10290   */\n      0x60\n        /* \"#utility.yul\":10277:10286   */\n      dup4\n        /* \"#utility.yul\":10273:10291   */\n      add\n        /* \"#utility.yul\":10266:10314   */\n      mstore\n        /* \"#utility.yul\":10331:10409   */\n      tag_329\n        /* \"#utility.yul\":10404:10408   */\n      dup2\n        /* \"#utility.yul\":10395:10401   */\n      dup5\n        /* \"#utility.yul\":10331:10409   */\n      tag_192\n      jump\t// in\n    tag_329:\n        /* \"#utility.yul\":10323:10409   */\n      swap1\n      pop\n        /* \"#utility.yul\":9590:10416   */\n      swap6\n      swap5\n      pop\n      pop\n      pop\n      pop\n      pop\n      jump\t// out\n        /* \"#utility.yul\":10422:10512   */\n    tag_193:\n        /* \"#utility.yul\":10456:10463   */\n      0x00\n        /* \"#utility.yul\":10499:10504   */\n      dup2\n        /* \"#utility.yul\":10492:10505   */\n      iszero\n        /* \"#utility.yul\":10485:10506   */\n      iszero\n        /* \"#utility.yul\":10474:10506   */\n      swap1\n      pop\n        /* \"#utility.yul\":10422:10512   */\n      swap2\n      swap1\n      pop\n      jump\t// out\n        /* \"#utility.yul\":10518:10627   */\n    tag_194:\n        /* \"#utility.yul\":10599:10620   */\n      tag_332\n        /* \"#utility.yul\":10614:10619   */\n      dup2\n        /* \"#utility.yul\":10599:10620   */\n      tag_193\n      jump\t// in\n    tag_332:\n        /* \"#utility.yul\":10594:10597   */\n      dup3\n        /* \"#utility.yul\":10587:10621   */\n      mstore\n        /* \"#utility.yul\":10518:10627   */\n      pop\n      pop\n      jump\t// out\n        /* \"#utility.yul\":10633:10843   */\n    tag_41:\n        /* \"#utility.yul\":10720:10724   */\n      0x00\n        /* \"#utility.yul\":10758:10760   */\n      0x20\n        /* \"#utility.yul\":10747:10756   */\n      dup3\n        /* \"#utility.yul\":10743:10761   */\n      add\n        /* \"#utility.yul\":10735:10761   */\n      swap1\n      pop\n        /* \"#utility.yul\":10771:10836   */\n      tag_334\n        /* \"#utility.yul\":10833:10834   */\n      0x00\n        /* \"#utility.yul\":10822:10831   */\n      dup4\n        /* \"#utility.yul\":10818:10835   */\n      add\n        /* \"#utility.yul\":10809:10815   */\n      dup5\n        /* \"#utility.yul\":10771:10836   */\n      tag_194\n      jump\t// in\n    tag_334:\n        /* \"#utility.yul\":10633:10843   */\n      swap3\n      swap2\n      pop\n      pop\n      jump\t// out\n        /* \"#utility.yul\":10849:11085   */\n    tag_195:\n        /* \"#utility.yul\":10989:11023   */\n      0x536f6c6f20656c2061646d696e6973747261646f7220707565646520656a6563\n        /* \"#utility.yul\":10985:10986   */\n      0x00\n        /* \"#utility.yul\":10977:10983   */\n      dup3\n        /* \"#utility.yul\":10973:10987   */\n      add\n        /* \"#utility.yul\":10966:11024   */\n      mstore\n        /* \"#utility.yul\":11058:11077   */\n      0x7574617220657374612066756e63696f6e000000000000000000000000000000\n        /* \"#utility.yul\":11053:11055   */\n      0x20\n        /* \"#utility.yul\":11045:11051   */\n      dup3\n        /* \"#utility.yul\":11041:11056   */\n      add\n        /* \"#utility.yul\":11034:11078   */\n      mstore\n        /* \"#utility.yul\":10849:11085   */\n      pop\n      jump\t// out\n        /* \"#utility.yul\":11091:11457   */\n    tag_196:\n        /* \"#utility.yul\":11233:11236   */\n      0x00\n        /* \"#utility.yul\":11254:11321   */\n      tag_337\n        /* \"#utility.yul\":11318:11320   */\n      0x31\n        /* \"#utility.yul\":11313:11316   */\n      dup4\n        /* \"#utility.yul\":11254:11321   */\n      tag_191\n      jump\t// in\n    tag_337:\n        /* \"#utility.yul\":11247:11321   */\n      swap2\n      pop\n        /* \"#utility.yul\":11330:11423   */\n      tag_338\n        /* \"#utility.yul\":11419:11422   */\n      dup3\n        /* \"#utility.yul\":11330:11423   */\n      tag_195\n      jump\t// in\n    tag_338:\n        /* \"#utility.yul\":11448:11450   */\n      0x40\n        /* \"#utility.yul\":11443:11446   */\n      dup3\n        /* \"#utility.yul\":11439:11451   */\n      add\n        /* \"#utility.yul\":11432:11451   */\n      swap1\n      pop\n        /* \"#utility.yul\":11091:11457   */\n      swap2\n      swap1\n      pop\n      jump\t// out\n        /* \"#utility.yul\":11463:11882   */\n    tag_48:\n        /* \"#utility.yul\":11629:11633   */\n      0x00\n        /* \"#utility.yul\":11667:11669   */\n      0x20\n        /* \"#utility.yul\":11656:11665   */\n      dup3\n        /* \"#utility.yul\":11652:11670   */\n      add\n        /* \"#utility.yul\":11644:11670   */\n      swap1\n      pop\n        /* \"#utility.yul\":11716:11725   */\n      dup2\n        /* \"#utility.yul\":11710:11714   */\n      dup2\n        /* \"#utility.yul\":11706:11726   */\n      sub\n        /* \"#utility.yul\":11702:11703   */\n      0x00\n        /* \"#utility.yul\":11691:11700   */\n      dup4\n        /* \"#utility.yul\":11687:11704   */\n      add\n        /* \"#utility.yul\":11680:11727   */\n      mstore\n        /* \"#utility.yul\":11744:11875   */\n      tag_340\n        /* \"#utility.yul\":11870:11874   */\n      dup2\n        /* \"#utility.yul\":11744:11875   */\n      tag_196\n      jump\t// in\n    tag_340:\n        /* \"#utility.yul\":11736:11875   */\n      swap1\n      pop\n        /* \"#utility.yul\":11463:11882   */\n      swap2\n      swap1\n      pop\n      jump\t// out\n        /* \"#utility.yul\":11888:12036   */\n    tag_197:\n        /* \"#utility.yul\":11990:12001   */\n      0x00\n        /* \"#utility.yul\":12027:12030   */\n      dup2\n        /* \"#utility.yul\":12012:12030   */\n      swap1\n      pop\n        /* \"#utility.yul\":11888:12036   */\n      swap3\n      swap2\n      pop\n      pop\n      jump\t// out\n        /* \"#utility.yul\":12042:12432   */\n    tag_198:\n        /* \"#utility.yul\":12148:12151   */\n      0x00\n        /* \"#utility.yul\":12176:12215   */\n      tag_343\n        /* \"#utility.yul\":12209:12214   */\n      dup3\n        /* \"#utility.yul\":12176:12215   */\n      tag_180\n      jump\t// in\n    tag_343:\n        /* \"#utility.yul\":12231:12320   */\n      tag_344\n        /* \"#utility.yul\":12313:12319   */\n      dup2\n        /* \"#utility.yul\":12308:12311   */\n      dup6\n        /* \"#utility.yul\":12231:12320   */\n      tag_197\n      jump\t// in\n    tag_344:\n        /* \"#utility.yul\":12224:12320   */\n      swap4\n      pop\n        /* \"#utility.yul\":12329:12394   */\n      tag_345\n        /* \"#utility.yul\":12387:12393   */\n      dup2\n        /* \"#utility.yul\":12382:12385   */\n      dup6\n        /* \"#utility.yul\":12375:12379   */\n      0x20\n        /* \"#utility.yul\":12368:12373   */\n      dup7\n        /* \"#utility.yul\":12364:12380   */\n      add\n        /* \"#utility.yul\":12329:12394   */\n      tag_182\n      jump\t// in\n    tag_345:\n        /* \"#utility.yul\":12419:12425   */\n      dup1\n        /* \"#utility.yul\":12414:12417   */\n      dup5\n        /* \"#utility.yul\":12410:12426   */\n      add\n        /* \"#utility.yul\":12403:12426   */\n      swap2\n      pop\n        /* \"#utility.yul\":12152:12432   */\n      pop\n        /* \"#utility.yul\":12042:12432   */\n      swap3\n      swap2\n      pop\n      pop\n      jump\t// out\n        /* \"#utility.yul\":12438:12713   */\n    tag_51:\n        /* \"#utility.yul\":12570:12573   */\n      0x00\n        /* \"#utility.yul\":12592:12687   */\n      tag_347\n        /* \"#utility.yul\":12683:12686   */\n      dup3\n        /* \"#utility.yul\":12674:12680   */\n      dup5\n        /* \"#utility.yul\":12592:12687   */\n      tag_198\n      jump\t// in\n    tag_347:\n        /* \"#utility.yul\":12585:12687   */\n      swap2\n      pop\n        /* \"#utility.yul\":12704:12707   */\n      dup2\n        /* \"#utility.yul\":12697:12707   */\n      swap1\n      pop\n        /* \"#utility.yul\":12438:12713   */\n      swap3\n      swap2\n      pop\n      pop\n      jump\t// out\n        /* \"#utility.yul\":12719:12944   */\n    tag_199:\n        /* \"#utility.yul\":12859:12893   */\n      0x456c2063616e64696461746f2079612065786973746520636f6e206573746120\n        /* \"#utility.yul\":12855:12856   */\n      0x00\n        /* \"#utility.yul\":12847:12853   */\n      dup3\n        /* \"#utility.yul\":12843:12857   */\n      add\n        /* \"#utility.yul\":12836:12894   */\n      mstore\n        /* \"#utility.yul\":12928:12936   */\n      0x636564756c610000000000000000000000000000000000000000000000000000\n        /* \"#utility.yul\":12923:12925   */\n      0x20\n        /* \"#utility.yul\":12915:12921   */\n      dup3\n        /* \"#utility.yul\":12911:12926   */\n      add\n        /* \"#utility.yul\":12904:12937   */\n      mstore\n        /* \"#utility.yul\":12719:12944   */\n      pop\n      jump\t// out\n        /* \"#utility.yul\":12950:13316   */\n    tag_200:\n        /* \"#utility.yul\":13092:13095   */\n      0x00\n        /* \"#utility.yul\":13113:13180   */\n      tag_350\n        /* \"#utility.yul\":13177:13179   */\n      0x26\n        /* \"#utility.yul\":13172:13175   */\n      dup4\n        /* \"#utility.yul\":13113:13180   */\n      tag_191\n      jump\t// in\n    tag_350:\n        /* \"#utility.yul\":13106:13180   */\n      swap2\n      pop\n        /* \"#utility.yul\":13189:13282   */\n      tag_351\n        /* \"#utility.yul\":13278:13281   */\n      dup3\n        /* \"#utility.yul\":13189:13282   */\n      tag_199\n      jump\t// in\n    tag_351:\n        /* \"#utility.yul\":13307:13309   */\n      0x40\n        /* \"#utility.yul\":13302:13305   */\n      dup3\n        /* \"#utility.yul\":13298:13310   */\n      add\n        /* \"#utility.yul\":13291:13310   */\n      swap1\n      pop\n        /* \"#utility.yul\":12950:13316   */\n      swap2\n      swap1\n      pop\n      jump\t// out\n        /* \"#utility.yul\":13322:13741   */\n    tag_54:\n        /* \"#utility.yul\":13488:13492   */\n      0x00\n        /* \"#utility.yul\":13526:13528   */\n      0x20\n        /* \"#utility.yul\":13515:13524   */\n      dup3\n        /* \"#utility.yul\":13511:13529   */\n      add\n        /* \"#utility.yul\":13503:13529   */\n      swap1\n      pop\n        /* \"#utility.yul\":13575:13584   */\n      dup2\n        /* \"#utility.yul\":13569:13573   */\n      dup2\n        /* \"#utility.yul\":13565:13585   */\n      sub\n        /* \"#utility.yul\":13561:13562   */\n      0x00\n        /* \"#utility.yul\":13550:13559   */\n      dup4\n        /* \"#utility.yul\":13546:13563   */\n      add\n        /* \"#utility.yul\":13539:13586   */\n      mstore\n        /* \"#utility.yul\":13603:13734   */\n      tag_353\n        /* \"#utility.yul\":13729:13733   */\n      dup2\n        /* \"#utility.yul\":13603:13734   */\n      tag_200\n      jump\t// in\n    tag_353:\n        /* \"#utility.yul\":13595:13734   */\n      swap1\n      pop\n        /* \"#utility.yul\":13322:13741   */\n      swap2\n      swap1\n      pop\n      jump\t// out\n        /* \"#utility.yul\":13747:13927   */\n    tag_201:\n        /* \"#utility.yul\":13795:13872   */\n      0x4e487b7100000000000000000000000000000000000000000000000000000000\n        /* \"#utility.yul\":13792:13793   */\n      0x00\n        /* \"#utility.yul\":13785:13873   */\n      mstore\n        /* \"#utility.yul\":13892:13896   */\n      0x22\n        /* \"#utility.yul\":13889:13890   */\n      0x04\n        /* \"#utility.yul\":13882:13897   */\n      mstore\n        /* \"#utility.yul\":13916:13920   */\n      0x24\n        /* \"#utility.yul\":13913:13914   */\n      0x00\n        /* \"#utility.yul\":13906:13921   */\n      revert\n        /* \"#utility.yul\":13933:14253   */\n    tag_68:\n        /* \"#utility.yul\":13977:13983   */\n      0x00\n        /* \"#utility.yul\":14014:14015   */\n      0x02\n        /* \"#utility.yul\":14008:14012   */\n      dup3\n        /* \"#utility.yul\":14004:14016   */\n      div\n        /* \"#utility.yul\":13994:14016   */\n      swap1\n      pop\n        /* \"#utility.yul\":14061:14062   */\n      0x01\n        /* \"#utility.yul\":14055:14059   */\n      dup3\n        /* \"#utility.yul\":14051:14063   */\n      and\n        /* \"#utility.yul\":14082:14100   */\n      dup1\n        /* \"#utility.yul\":14072:14153   */\n      tag_356\n      jumpi\n        /* \"#utility.yul\":14138:14142   */\n      0x7f\n        /* \"#utility.yul\":14130:14136   */\n      dup3\n        /* \"#utility.yul\":14126:14143   */\n      and\n        /* \"#utility.yul\":14116:14143   */\n      swap2\n      pop\n        /* \"#utility.yul\":14072:14153   */\n    tag_356:\n        /* \"#utility.yul\":14200:14202   */\n      0x20\n        /* \"#utility.yul\":14192:14198   */\n      dup3\n        /* \"#utility.yul\":14189:14203   */\n      lt\n        /* \"#utility.yul\":14169:14187   */\n      dup2\n        /* \"#utility.yul\":14166:14204   */\n      sub\n        /* \"#utility.yul\":14163:14247   */\n      tag_357\n      jumpi\n        /* \"#utility.yul\":14219:14237   */\n      tag_358\n      tag_201\n      jump\t// in\n    tag_358:\n        /* \"#utility.yul\":14163:14247   */\n    tag_357:\n        /* \"#utility.yul\":13984:14253   */\n      pop\n        /* \"#utility.yul\":13933:14253   */\n      swap2\n      swap1\n      pop\n      jump\t// out\n        /* \"#utility.yul\":14259:14400   */\n    tag_202:\n        /* \"#utility.yul\":14308:14312   */\n      0x00\n        /* \"#utility.yul\":14331:14334   */\n      dup2\n        /* \"#utility.yul\":14323:14334   */\n      swap1\n      pop\n        /* \"#utility.yul\":14354:14357   */\n      dup2\n        /* \"#utility.yul\":14351:14352   */\n      0x00\n        /* \"#utility.yul\":14344:14358   */\n      mstore\n        /* \"#utility.yul\":14388:14392   */\n      0x20\n        /* \"#utility.yul\":14385:14386   */\n      0x00\n        /* \"#utility.yul\":14375:14393   */\n      keccak256\n        /* \"#utility.yul\":14367:14393   */\n      swap1\n      pop\n        /* \"#utility.yul\":14259:14400   */\n      swap2\n      swap1\n      pop\n      jump\t// out\n        /* \"#utility.yul\":14406:14499   */\n    tag_203:\n        /* \"#utility.yul\":14443:14449   */\n      0x00\n        /* \"#utility.yul\":14490:14492   */\n      0x20\n        /* \"#utility.yul\":14485:14487   */\n      0x1f\n        /* \"#utility.yul\":14478:14483   */\n      dup4\n        /* \"#utility.yul\":14474:14488   */\n      add\n        /* \"#utility.yul\":14470:14493   */\n      div\n        /* \"#utility.yul\":14460:14493   */\n      swap1\n      pop\n        /* \"#utility.yul\":14406:14499   */\n      swap2\n      swap1\n      pop\n      jump\t// out\n        /* \"#utility.yul\":14505:14612   */\n    tag_204:\n        /* \"#utility.yul\":14549:14557   */\n      0x00\n        /* \"#utility.yul\":14599:14604   */\n      dup3\n        /* \"#utility.yul\":14593:14597   */\n      dup3\n        /* \"#utility.yul\":14589:14605   */\n      shl\n        /* \"#utility.yul\":14568:14605   */\n      swap1\n      pop\n        /* \"#utility.yul\":14505:14612   */\n      swap3\n      swap2\n      pop\n      pop\n      jump\t// out\n        /* \"#utility.yul\":14618:15011   */\n    tag_205:\n        /* \"#utility.yul\":14687:14693   */\n      0x00\n        /* \"#utility.yul\":14737:14738   */\n      0x08\n        /* \"#utility.yul\":14725:14735   */\n      dup4\n        /* \"#utility.yul\":14721:14739   */\n      mul\n        /* \"#utility.yul\":14760:14857   */\n      tag_363\n        /* \"#utility.yul\":14790:14856   */\n      0xffffffffffffffffffffffffffffffffffffffffffffffffffffffffffffffff\n        /* \"#utility.yul\":14779:14788   */\n      dup3\n        /* \"#utility.yul\":14760:14857   */\n      tag_204\n      jump\t// in\n    tag_363:\n        /* \"#utility.yul\":14878:14917   */\n      tag_364\n        /* \"#utility.yul\":14908:14916   */\n      dup7\n        /* \"#utility.yul\":14897:14906   */\n      dup4\n        /* \"#utility.yul\":14878:14917   */\n      tag_204\n      jump\t// in\n    tag_364:\n        /* \"#utility.yul\":14866:14917   */\n      swap6\n      pop\n        /* \"#utility.yul\":14950:14954   */\n      dup1\n        /* \"#utility.yul\":14946:14955   */\n      not\n        /* \"#utility.yul\":14939:14944   */\n      dup5\n        /* \"#utility.yul\":14935:14956   */\n      and\n        /* \"#utility.yul\":14926:14956   */\n      swap4\n      pop\n        /* \"#utility.yul\":14999:15003   */\n      dup1\n        /* \"#utility.yul\":14989:14997   */\n      dup7\n        /* \"#utility.yul\":14985:15004   */\n      and\n        /* \"#utility.yul\":14978:14983   */\n      dup5\n        /* \"#utility.yul\":14975:15005   */\n      or\n        /* \"#utility.yul\":14965:15005   */\n      swap3\n      pop\n        /* \"#utility.yul\":14694:15011   */\n      pop\n      pop\n        /* \"#utility.yul\":14618:15011   */\n      swap4\n      swap3\n      pop\n      pop\n      pop\n      jump\t// out\n        /* \"#utility.yul\":15017:15077   */\n    tag_206:\n        /* \"#utility.yul\":15045:15048   */\n      0x00\n        /* \"#utility.yul\":15066:15071   */\n      dup2\n        /* \"#utility.yul\":15059:15071   */\n      swap1\n      pop\n        /* \"#utility.yul\":15017:15077   */\n      swap2\n      swap1\n      pop\n      jump\t// out\n        /* \"#utility.yul\":15083:15225   */\n    tag_207:\n        /* \"#utility.yul\":15133:15142   */\n      0x00\n        /* \"#utility.yul\":15166:15219   */\n      tag_367\n        /* \"#utility.yul\":15184:15218   */\n      tag_368\n        /* \"#utility.yul\":15193:15217   */\n      tag_369\n        /* \"#utility.yul\":15211:15216   */\n      dup5\n        /* \"#utility.yul\":15193:15217   */\n      tag_174\n      jump\t// in\n    tag_369:\n        /* \"#utility.yul\":15184:15218   */\n      tag_206\n      jump\t// in\n    tag_368:\n        /* \"#utility.yul\":15166:15219   */\n      tag_174\n      jump\t// in\n    tag_367:\n        /* \"#utility.yul\":15153:15219   */\n      swap1\n      pop\n        /* \"#utility.yul\":15083:15225   */\n      swap2\n      swap1\n      pop\n      jump\t// out\n        /* \"#utility.yul\":15231:15306   */\n    tag_208:\n        /* \"#utility.yul\":15274:15277   */\n      0x00\n        /* \"#utility.yul\":15295:15300   */\n      dup2\n        /* \"#utility.yul\":15288:15300   */\n      swap1\n      pop\n        /* \"#utility.yul\":15231:15306   */\n      swap2\n      swap1\n      pop\n      jump\t// out\n        /* \"#utility.yul\":15312:15581   */\n    tag_209:\n        /* \"#utility.yul\":15422:15461   */\n      tag_372\n        /* \"#utility.yul\":15453:15460   */\n      dup4\n        /* \"#utility.yul\":15422:15461   */\n      tag_207\n      jump\t// in\n    tag_372:\n        /* \"#utility.yul\":15483:15574   */\n      tag_373\n        /* \"#utility.yul\":15532:15573   */\n      tag_374\n        /* \"#utility.yul\":15556:15572   */\n      dup3\n        /* \"#utility.yul\":15532:15573   */\n      tag_208\n      jump\t// in\n    tag_374:\n        /* \"#utility.yul\":15524:15530   */\n      dup5\n        /* \"#utility.yul\":15517:15521   */\n      dup5\n        /* \"#utility.yul\":15511:15522   */\n      sload\n        /* \"#utility.yul\":15483:15574   */\n      tag_205\n      jump\t// in\n    tag_373:\n        /* \"#utility.yul\":15477:15481   */\n      dup3\n        /* \"#utility.yul\":15470:15575   */\n      sstore\n        /* \"#utility.yul\":15388:15581   */\n      pop\n        /* \"#utility.yul\":15312:15581   */\n      pop\n      pop\n      pop\n      jump\t// out\n        /* \"#utility.yul\":15587:15660   */\n    tag_210:\n        /* \"#utility.yul\":15632:15635   */\n      0x00\n        /* \"#utility.yul\":15653:15654   */\n      0x00\n        /* \"#utility.yul\":15646:15654   */\n      swap1\n      pop\n        /* \"#utility.yul\":15587:15660   */\n      swap1\n      jump\t// out\n        /* \"#utility.yul\":15666:15855   */\n    tag_211:\n        /* \"#utility.yul\":15743:15775   */\n      tag_377\n      tag_210\n      jump\t// in\n    tag_377:\n        /* \"#utility.yul\":15784:15849   */\n      tag_378\n        /* \"#utility.yul\":15842:15848   */\n      dup2\n        /* \"#utility.yul\":15834:15840   */\n      dup5\n        /* \"#utility.yul\":15828:15832   */\n      dup5\n        /* \"#utility.yul\":15784:15849   */\n      tag_209\n      jump\t// in\n    tag_378:\n        /* \"#utility.yul\":15719:15855   */\n      pop\n        /* \"#utility.yul\":15666:15855   */\n      pop\n      pop\n      jump\t// out\n        /* \"#utility.yul\":15861:16047   */\n    tag_212:\n        /* \"#utility.yul\":15921:16041   */\n    tag_380:\n        /* \"#utility.yul\":15938:15941   */\n      dup2\n        /* \"#utility.yul\":15931:15936   */\n      dup2\n        /* \"#utility.yul\":15928:15942   */\n      lt\n        /* \"#utility.yul\":15921:16041   */\n      iszero\n      tag_382\n      jumpi\n        /* \"#utility.yul\":15992:16031   */\n      tag_383\n        /* \"#utility.yul\":16029:16030   */\n      0x00\n        /* \"#utility.yul\":16022:16027   */\n      dup3\n        /* \"#utility.yul\":15992:16031   */\n      tag_211\n      jump\t// in\n    tag_383:\n        /* \"#utility.yul\":15965:15966   */\n      0x01\n        /* \"#utility.yul\":15958:15963   */\n      dup2\n        /* \"#utility.yul\":15954:15967   */\n      add\n        /* \"#utility.yul\":15945:15967   */\n      swap1\n      pop\n        /* \"#utility.yul\":15921:16041   */\n      jump(tag_380)\n    tag_382:\n        /* \"#utility.yul\":15861:16047   */\n      pop\n      pop\n      jump\t// out\n        /* \"#utility.yul\":16053:16596   */\n    tag_213:\n        /* \"#utility.yul\":16154:16156   */\n      0x1f\n        /* \"#utility.yul\":16149:16152   */\n      dup3\n        /* \"#utility.yul\":16146:16157   */\n      gt\n        /* \"#utility.yul\":16143:16589   */\n      iszero\n      tag_385\n      jumpi\n        /* \"#utility.yul\":16188:16226   */\n      tag_386\n        /* \"#utility.yul\":16220:16225   */\n      dup2\n        /* \"#utility.yul\":16188:16226   */\n      tag_202\n      jump\t// in\n    tag_386:\n        /* \"#utility.yul\":16272:16301   */\n      tag_387\n        /* \"#utility.yul\":16290:16300   */\n      dup5\n        /* \"#utility.yul\":16272:16301   */\n      tag_203\n      jump\t// in\n    tag_387:\n        /* \"#utility.yul\":16262:16270   */\n      dup2\n        /* \"#utility.yul\":16258:16302   */\n      add\n        /* \"#utility.yul\":16455:16457   */\n      0x20\n        /* \"#utility.yul\":16443:16453   */\n      dup6\n        /* \"#utility.yul\":16440:16458   */\n      lt\n        /* \"#utility.yul\":16437:16486   */\n      iszero\n      tag_388\n      jumpi\n        /* \"#utility.yul\":16476:16484   */\n      dup2\n        /* \"#utility.yul\":16461:16484   */\n      swap1\n      pop\n        /* \"#utility.yul\":16437:16486   */\n    tag_388:\n        /* \"#utility.yul\":16499:16579   */\n      tag_389\n        /* \"#utility.yul\":16555:16577   */\n      tag_390\n        /* \"#utility.yul\":16573:16576   */\n      dup6\n        /* \"#utility.yul\":16555:16577   */\n      tag_203\n      jump\t// in\n    tag_390:\n        /* \"#utility.yul\":16545:16553   */\n      dup4\n        /* \"#utility.yul\":16541:16578   */\n      add\n        /* \"#utility.yul\":16528:16539   */\n      dup3\n        /* \"#utility.yul\":16499:16579   */\n      tag_212\n      jump\t// in\n    tag_389:\n        /* \"#utility.yul\":16158:16589   */\n      pop\n      pop\n        /* \"#utility.yul\":16143:16589   */\n    tag_385:\n        /* \"#utility.yul\":16053:16596   */\n      pop\n      pop\n      pop\n      jump\t// out\n        /* \"#utility.yul\":16602:16719   */\n    tag_214:\n        /* \"#utility.yul\":16656:16664   */\n      0x00\n        /* \"#utility.yul\":16706:16711   */\n      dup3\n        /* \"#utility.yul\":16700:16704   */\n      dup3\n        /* \"#utility.yul\":16696:16712   */\n      shr\n        /* \"#utility.yul\":16675:16712   */\n      swap1\n      pop\n        /* \"#utility.yul\":16602:16719   */\n      swap3\n      swap2\n      pop\n      pop\n      jump\t// out\n        /* \"#utility.yul\":16725:16894   */\n    tag_215:\n        /* \"#utility.yul\":16769:16775   */\n      0x00\n        /* \"#utility.yul\":16802:16853   */\n      tag_393\n        /* \"#utility.yul\":16850:16851   */\n      0x00\n        /* \"#utility.yul\":16846:16852   */\n      not\n        /* \"#utility.yul\":16838:16843   */\n      dup5\n        /* \"#utility.yul\":16835:16836   */\n      0x08\n        /* \"#utility.yul\":16831:16844   */\n      mul\n        /* \"#utility.yul\":16802:16853   */\n      tag_214\n      jump\t// in\n    tag_393:\n        /* \"#utility.yul\":16798:16854   */\n      not\n        /* \"#utility.yul\":16883:16887   */\n      dup1\n        /* \"#utility.yul\":16877:16881   */\n      dup4\n        /* \"#utility.yul\":16873:16888   */\n      and\n        /* \"#utility.yul\":16863:16888   */\n      swap2\n      pop\n        /* \"#utility.yul\":16776:16894   */\n      pop\n        /* \"#utility.yul\":16725:16894   */\n      swap3\n      swap2\n      pop\n      pop\n      jump\t// out\n        /* \"#utility.yul\":16899:17194   */\n    tag_216:\n        /* \"#utility.yul\":16975:16979   */\n      0x00\n        /* \"#utility.yul\":17121:17150   */\n      tag_395\n        /* \"#utility.yul\":17146:17149   */\n      dup4\n        /* \"#utility.yul\":17140:17144   */\n      dup4\n        /* \"#utility.yul\":17121:17150   */\n      tag_215\n      jump\t// in\n    tag_395:\n        /* \"#utility.yul\":17113:17150   */\n      swap2\n      pop\n        /* \"#utility.yul\":17183:17186   */\n      dup3\n        /* \"#utility.yul\":17180:17181   */\n      0x02\n        /* \"#utility.yul\":17176:17187   */\n      mul\n        /* \"#utility.yul\":17170:17174   */\n      dup3\n        /* \"#utility.yul\":17167:17188   */\n      or\n        /* \"#utility.yul\":17159:17188   */\n      swap1\n      pop\n        /* \"#utility.yul\":16899:17194   */\n      swap3\n      swap2\n      pop\n      pop\n      jump\t// out\n        /* \"#utility.yul\":17199:18594   */\n    tag_57:\n        /* \"#utility.yul\":17316:17353   */\n      tag_397\n        /* \"#utility.yul\":17349:17352   */\n      dup3\n        /* \"#utility.yul\":17316:17353   */\n      tag_180\n      jump\t// in\n    tag_397:\n        /* \"#utility.yul\":17418:17436   */\n      0xffffffffffffffff\n        /* \"#utility.yul\":17410:17416   */\n      dup2\n        /* \"#utility.yul\":17407:17437   */\n      gt\n        /* \"#utility.yul\":17404:17460   */\n      iszero\n      tag_398\n      jumpi\n        /* \"#utility.yul\":17440:17458   */\n      tag_399\n      tag_167\n      jump\t// in\n    tag_399:\n        /* \"#utility.yul\":17404:17460   */\n    tag_398:\n        /* \"#utility.yul\":17484:17522   */\n      tag_400\n        /* \"#utility.yul\":17516:17520   */\n      dup3\n        /* \"#utility.yul\":17510:17521   */\n      sload\n        /* \"#utility.yul\":17484:17522   */\n      tag_68\n      jump\t// in\n    tag_400:\n        /* \"#utility.yul\":17569:17636   */\n      tag_401\n        /* \"#utility.yul\":17629:17635   */\n      dup3\n        /* \"#utility.yul\":17621:17627   */\n      dup3\n        /* \"#utility.yul\":17615:17619   */\n      dup6\n        /* \"#utility.yul\":17569:17636   */\n      tag_213\n      jump\t// in\n    tag_401:\n        /* \"#utility.yul\":17663:17664   */\n      0x00\n        /* \"#utility.yul\":17687:17691   */\n      0x20\n        /* \"#utility.yul\":17674:17691   */\n      swap1\n      pop\n        /* \"#utility.yul\":17719:17721   */\n      0x1f\n        /* \"#utility.yul\":17711:17717   */\n      dup4\n        /* \"#utility.yul\":17708:17722   */\n      gt\n        /* \"#utility.yul\":17736:17737   */\n      0x01\n        /* \"#utility.yul\":17731:18349   */\n      dup2\n      eq\n      tag_403\n      jumpi\n        /* \"#utility.yul\":18393:18394   */\n      0x00\n        /* \"#utility.yul\":18410:18416   */\n      dup5\n        /* \"#utility.yul\":18407:18484   */\n      iszero\n      tag_404\n      jumpi\n        /* \"#utility.yul\":18459:18468   */\n      dup3\n        /* \"#utility.yul\":18454:18457   */\n      dup8\n        /* \"#utility.yul\":18450:18469   */\n      add\n        /* \"#utility.yul\":18444:18470   */\n      mload\n        /* \"#utility.yul\":18435:18470   */\n      swap1\n      pop\n        /* \"#utility.yul\":18407:18484   */\n    tag_404:\n        /* \"#utility.yul\":18510:18577   */\n      tag_405\n        /* \"#utility.yul\":18570:18576   */\n      dup6\n        /* \"#utility.yul\":18563:18568   */\n      dup3\n        /* \"#utility.yul\":18510:18577   */\n      tag_216\n      jump\t// in\n    tag_405:\n        /* \"#utility.yul\":18504:18508   */\n      dup7\n        /* \"#utility.yul\":18497:18578   */\n      sstore\n        /* \"#utility.yul\":18366:18588   */\n      pop\n        /* \"#utility.yul\":17701:18588   */\n      jump(tag_402)\n        /* \"#utility.yul\":17731:18349   */\n    tag_403:\n        /* \"#utility.yul\":17783:17787   */\n      0x1f\n        /* \"#utility.yul\":17779:17788   */\n      not\n        /* \"#utility.yul\":17771:17777   */\n      dup5\n        /* \"#utility.yul\":17767:17789   */\n      and\n        /* \"#utility.yul\":17817:17854   */\n      tag_406\n        /* \"#utility.yul\":17849:17853   */\n      dup7\n        /* \"#utility.yul\":17817:17854   */\n      tag_202\n      jump\t// in\n    tag_406:\n        /* \"#utility.yul\":17876:17877   */\n      0x00\n        /* \"#utility.yul\":17890:18098   */\n    tag_407:\n        /* \"#utility.yul\":17904:17911   */\n      dup3\n        /* \"#utility.yul\":17901:17902   */\n      dup2\n        /* \"#utility.yul\":17898:17912   */\n      lt\n        /* \"#utility.yul\":17890:18098   */\n      iszero\n      tag_409\n      jumpi\n        /* \"#utility.yul\":17983:17992   */\n      dup5\n        /* \"#utility.yul\":17978:17981   */\n      dup10\n        /* \"#utility.yul\":17974:17993   */\n      add\n        /* \"#utility.yul\":17968:17994   */\n      mload\n        /* \"#utility.yul\":17960:17966   */\n      dup3\n        /* \"#utility.yul\":17953:17995   */\n      sstore\n        /* \"#utility.yul\":18034:18035   */\n      0x01\n        /* \"#utility.yul\":18026:18032   */\n      dup3\n        /* \"#utility.yul\":18022:18036   */\n      add\n        /* \"#utility.yul\":18012:18036   */\n      swap2\n      pop\n        /* \"#utility.yul\":18081:18083   */\n      0x20\n        /* \"#utility.yul\":18070:18079   */\n      dup6\n        /* \"#utility.yul\":18066:18084   */\n      add\n        /* \"#utility.yul\":18053:18084   */\n      swap5\n      pop\n        /* \"#utility.yul\":17927:17931   */\n      0x20\n        /* \"#utility.yul\":17924:17925   */\n      dup2\n        /* \"#utility.yul\":17920:17932   */\n      add\n        /* \"#utility.yul\":17915:17932   */\n      swap1\n      pop\n        /* \"#utility.yul\":17890:18098   */\n      jump(tag_407)\n    tag_409:\n        /* \"#utility.yul\":18126:18132   */\n      dup7\n        /* \"#utility.yul\":18117:18124   */\n      dup4\n        /* \"#utility.yul\":18114:18133   */\n      lt\n        /* \"#utility.yul\":18111:18290   */\n      iszero\n      tag_410\n      jumpi\n        /* \"#utility.yul\":18184:18193   */\n      dup5\n        /* \"#utility.yul\":18179:18182   */\n      dup10\n        /* \"#utility.yul\":18175:18194   */\n      add\n        /* \"#utility.yul\":18169:18195   */\n      mload\n        /* \"#utility.yul\":18227:18275   */\n      tag_411\n        /* \"#utility.yul\":18269:18273   */\n      0x1f\n        /* \"#utility.yul\":18261:18267   */\n      dup10\n        /* \"#utility.yul\":18257:18274   */\n      and\n        /* \"#utility.yul\":18246:18255   */\n      dup3\n        /* \"#utility.yul\":18227:18275   */\n      tag_215\n      jump\t// in\n    tag_411:\n        /* \"#utility.yul\":18219:18225   */\n      dup4\n        /* \"#utility.yul\":18212:18276   */\n      sstore\n        /* \"#utility.yul\":18134:18290   */\n      pop\n        /* \"#utility.yul\":18111:18290   */\n    tag_410:\n        /* \"#utility.yul\":18336:18337   */\n      0x01\n        /* \"#utility.yul\":18332:18333   */\n      0x02\n        /* \"#utility.yul\":18324:18330   */\n      dup9\n        /* \"#utility.yul\":18320:18334   */\n      mul\n        /* \"#utility.yul\":18316:18338   */\n      add\n        /* \"#utility.yul\":18310:18314   */\n      dup9\n        /* \"#utility.yul\":18303:18339   */\n      sstore\n        /* \"#utility.yul\":17738:18349   */\n      pop\n      pop\n      pop\n        /* \"#utility.yul\":17701:18588   */\n    tag_402:\n      pop\n        /* \"#utility.yul\":17291:18594   */\n      pop\n      pop\n      pop\n        /* \"#utility.yul\":17199:18594   */\n      pop\n      pop\n      jump\t// out\n        /* \"#utility.yul\":18600:18773   */\n    tag_217:\n        /* \"#utility.yul\":18740:18765   */\n      0x43616e64696461746f206e6f20656e636f6e747261646f000000000000000000\n        /* \"#utility.yul\":18736:18737   */\n      0x00\n        /* \"#utility.yul\":18728:18734   */\n      dup3\n        /* \"#utility.yul\":18724:18738   */\n      add\n        /* \"#utility.yul\":18717:18766   */\n      mstore\n        /* \"#utility.yul\":18600:18773   */\n      pop\n      jump\t// out\n        /* \"#utility.yul\":18779:19145   */\n    tag_218:\n        /* \"#utility.yul\":18921:18924   */\n      0x00\n        /* \"#utility.yul\":18942:19009   */\n      tag_414\n        /* \"#utility.yul\":19006:19008   */\n      0x17\n        /* \"#utility.yul\":19001:19004   */\n      dup4\n        /* \"#utility.yul\":18942:19009   */\n      tag_191\n      jump\t// in\n    tag_414:\n        /* \"#utility.yul\":18935:19009   */\n      swap2\n      pop\n        /* \"#utility.yul\":19018:19111   */\n      tag_415\n        /* \"#utility.yul\":19107:19110   */\n      dup3\n        /* \"#utility.yul\":19018:19111   */\n      tag_217\n      jump\t// in\n    tag_415:\n        /* \"#utility.yul\":19136:19138   */\n      0x20\n        /* \"#utility.yul\":19131:19134   */\n      dup3\n        /* \"#utility.yul\":19127:19139   */\n      add\n        /* \"#utility.yul\":19120:19139   */\n      swap1\n      pop\n        /* \"#utility.yul\":18779:19145   */\n      swap2\n      swap1\n      pop\n      jump\t// out\n        /* \"#utility.yul\":19151:19570   */\n    tag_80:\n        /* \"#utility.yul\":19317:19321   */\n      0x00\n        /* \"#utility.yul\":19355:19357   */\n      0x20\n        /* \"#utility.yul\":19344:19353   */\n      dup3\n        /* \"#utility.yul\":19340:19358   */\n      add\n        /* \"#utility.yul\":19332:19358   */\n      swap1\n      pop\n        /* \"#utility.yul\":19404:19413   */\n      dup2\n        /* \"#utility.yul\":19398:19402   */\n      dup2\n        /* \"#utility.yul\":19394:19414   */\n      sub\n        /* \"#utility.yul\":19390:19391   */\n      0x00\n        /* \"#utility.yul\":19379:19388   */\n      dup4\n        /* \"#utility.yul\":19375:19392   */\n      add\n        /* \"#utility.yul\":19368:19415   */\n      mstore\n        /* \"#utility.yul\":19432:19563   */\n      tag_417\n        /* \"#utility.yul\":19558:19562   */\n      dup2\n        /* \"#utility.yul\":19432:19563   */\n      tag_218\n      jump\t// in\n    tag_417:\n        /* \"#utility.yul\":19424:19563   */\n      swap1\n      pop\n        /* \"#utility.yul\":19151:19570   */\n      swap2\n      swap1\n      pop\n      jump\t// out\n        /* \"#utility.yul\":19576:19756   */\n    tag_92:\n        /* \"#utility.yul\":19624:19701   */\n      0x4e487b7100000000000000000000000000000000000000000000000000000000\n        /* \"#utility.yul\":19621:19622   */\n      0x00\n        /* \"#utility.yul\":19614:19702   */\n      mstore\n        /* \"#utility.yul\":19721:19725   */\n      0x32\n        /* \"#utility.yul\":19718:19719   */\n      0x04\n        /* \"#utility.yul\":19711:19726   */\n      mstore\n        /* \"#utility.yul\":19745:19749   */\n      0x24\n        /* \"#utility.yul\":19742:19743   */\n      0x00\n        /* \"#utility.yul\":19735:19750   */\n      revert\n        /* \"#utility.yul\":19762:19909   */\n    tag_219:\n        /* \"#utility.yul\":19863:19874   */\n      0x00\n        /* \"#utility.yul\":19900:19903   */\n      dup2\n        /* \"#utility.yul\":19885:19903   */\n      swap1\n      pop\n        /* \"#utility.yul\":19762:19909   */\n      swap3\n      swap2\n      pop\n      pop\n      jump\t// out\n        /* \"#utility.yul\":19915:20059   */\n    tag_220:\n        /* \"#utility.yul\":19967:19971   */\n      0x00\n        /* \"#utility.yul\":19990:19993   */\n      dup2\n        /* \"#utility.yul\":19982:19993   */\n      swap1\n      pop\n        /* \"#utility.yul\":20013:20016   */\n      dup2\n        /* \"#utility.yul\":20010:20011   */\n      0x00\n        /* \"#utility.yul\":20003:20017   */\n      mstore\n        /* \"#utility.yul\":20047:20051   */\n      0x20\n        /* \"#utility.yul\":20044:20045   */\n      0x00\n        /* \"#utility.yul\":20034:20052   */\n      keccak256\n        /* \"#utility.yul\":20026:20052   */\n      swap1\n      pop\n        /* \"#utility.yul\":19915:20059   */\n      swap2\n      swap1\n      pop\n      jump\t// out\n        /* \"#utility.yul\":20087:20965   */\n    tag_221:\n        /* \"#utility.yul\":20192:20195   */\n      0x00\n        /* \"#utility.yul\":20229:20234   */\n      dup2\n        /* \"#utility.yul\":20223:20235   */\n      sload\n        /* \"#utility.yul\":20258:20294   */\n      tag_422\n        /* \"#utility.yul\":20284:20293   */\n      dup2\n        /* \"#utility.yul\":20258:20294   */\n      tag_68\n      jump\t// in\n    tag_422:\n        /* \"#utility.yul\":20310:20398   */\n      tag_423\n        /* \"#utility.yul\":20391:20397   */\n      dup2\n        /* \"#utility.yul\":20386:20389   */\n      dup7\n        /* \"#utility.yul\":20310:20398   */\n      tag_219\n      jump\t// in\n    tag_423:\n        /* \"#utility.yul\":20303:20398   */\n      swap5\n      pop\n        /* \"#utility.yul\":20429:20430   */\n      0x01\n        /* \"#utility.yul\":20418:20427   */\n      dup3\n        /* \"#utility.yul\":20414:20431   */\n      and\n        /* \"#utility.yul\":20445:20446   */\n      0x00\n        /* \"#utility.yul\":20440:20606   */\n      dup2\n      eq\n      tag_425\n      jumpi\n        /* \"#utility.yul\":20620:20621   */\n      0x01\n        /* \"#utility.yul\":20615:20959   */\n      dup2\n      eq\n      tag_426\n      jumpi\n        /* \"#utility.yul\":20407:20959   */\n      jump(tag_424)\n        /* \"#utility.yul\":20440:20606   */\n    tag_425:\n        /* \"#utility.yul\":20524:20528   */\n      0xff\n        /* \"#utility.yul\":20520:20529   */\n      not\n        /* \"#utility.yul\":20509:20518   */\n      dup4\n        /* \"#utility.yul\":20505:20530   */\n      and\n        /* \"#utility.yul\":20500:20503   */\n      dup7\n        /* \"#utility.yul\":20493:20531   */\n      mstore\n        /* \"#utility.yul\":20586:20592   */\n      dup2\n        /* \"#utility.yul\":20579:20593   */\n      iszero\n        /* \"#utility.yul\":20572:20594   */\n      iszero\n        /* \"#utility.yul\":20564:20570   */\n      dup3\n        /* \"#utility.yul\":20560:20595   */\n      mul\n        /* \"#utility.yul\":20555:20558   */\n      dup7\n        /* \"#utility.yul\":20551:20596   */\n      add\n        /* \"#utility.yul\":20544:20596   */\n      swap4\n      pop\n        /* \"#utility.yul\":20440:20606   */\n      jump(tag_424)\n        /* \"#utility.yul\":20615:20959   */\n    tag_426:\n        /* \"#utility.yul\":20682:20723   */\n      tag_427\n        /* \"#utility.yul\":20717:20722   */\n      dup6\n        /* \"#utility.yul\":20682:20723   */\n      tag_220\n      jump\t// in\n    tag_427:\n        /* \"#utility.yul\":20745:20746   */\n      0x00\n        /* \"#utility.yul\":20759:20913   */\n    tag_428:\n        /* \"#utility.yul\":20773:20779   */\n      dup4\n        /* \"#utility.yul\":20770:20771   */\n      dup2\n        /* \"#utility.yul\":20767:20780   */\n      lt\n        /* \"#utility.yul\":20759:20913   */\n      iszero\n      tag_430\n      jumpi\n        /* \"#utility.yul\":20847:20854   */\n      dup2\n        /* \"#utility.yul\":20841:20855   */\n      sload\n        /* \"#utility.yul\":20837:20838   */\n      dup2\n        /* \"#utility.yul\":20832:20835   */\n      dup10\n        /* \"#utility.yul\":20828:20839   */\n      add\n        /* \"#utility.yul\":20821:20856   */\n      mstore\n        /* \"#utility.yul\":20897:20898   */\n      0x01\n        /* \"#utility.yul\":20888:20895   */\n      dup3\n        /* \"#utility.yul\":20884:20899   */\n      add\n        /* \"#utility.yul\":20873:20899   */\n      swap2\n      pop\n        /* \"#utility.yul\":20795:20799   */\n      0x20\n        /* \"#utility.yul\":20792:20793   */\n      dup2\n        /* \"#utility.yul\":20788:20800   */\n      add\n        /* \"#utility.yul\":20783:20800   */\n      swap1\n      pop\n        /* \"#utility.yul\":20759:20913   */\n      jump(tag_428)\n    tag_430:\n        /* \"#utility.yul\":20942:20948   */\n      dup4\n        /* \"#utility.yul\":20937:20940   */\n      dup9\n        /* \"#utility.yul\":20933:20949   */\n      add\n        /* \"#utility.yul\":20926:20949   */\n      swap6\n      pop\n        /* \"#utility.yul\":20622:20959   */\n      pop\n      pop\n        /* \"#utility.yul\":20407:20959   */\n    tag_424:\n      pop\n        /* \"#utility.yul\":20196:20965   */\n      pop\n      pop\n        /* \"#utility.yul\":20087:20965   */\n      swap3\n      swap2\n      pop\n      pop\n      jump\t// out\n        /* \"#utility.yul\":20971:21244   */\n    tag_95:\n        /* \"#utility.yul\":21102:21105   */\n      0x00\n        /* \"#utility.yul\":21124:21218   */\n      tag_432\n        /* \"#utility.yul\":21214:21217   */\n      dup3\n        /* \"#utility.yul\":21205:21211   */\n      dup5\n        /* \"#utility.yul\":21124:21218   */\n      tag_221\n      jump\t// in\n    tag_432:\n        /* \"#utility.yul\":21117:21218   */\n      swap2\n      pop\n        /* \"#utility.yul\":21235:21238   */\n      dup2\n        /* \"#utility.yul\":21228:21238   */\n      swap1\n      pop\n        /* \"#utility.yul\":20971:21244   */\n      swap3\n      swap2\n      pop\n      pop\n      jump\t// out\n        /* \"#utility.yul\":21250:21430   */\n    tag_222:\n        /* \"#utility.yul\":21298:21375   */\n      0x4e487b7100000000000000000000000000000000000000000000000000000000\n        /* \"#utility.yul\":21295:21296   */\n      0x00\n        /* \"#utility.yul\":21288:21376   */\n      mstore\n        /* \"#utility.yul\":21395:21399   */\n      0x11\n        /* \"#utility.yul\":21392:21393   */\n      0x04\n        /* \"#utility.yul\":21385:21400   */\n      mstore\n        /* \"#utility.yul\":21419:21423   */\n      0x24\n        /* \"#utility.yul\":21416:21417   */\n      0x00\n        /* \"#utility.yul\":21409:21424   */\n      revert\n        /* \"#utility.yul\":21436:21630   */\n    tag_98:\n        /* \"#utility.yul\":21476:21480   */\n      0x00\n        /* \"#utility.yul\":21496:21516   */\n      tag_435\n        /* \"#utility.yul\":21514:21515   */\n      dup3\n        /* \"#utility.yul\":21496:21516   */\n      tag_174\n      jump\t// in\n    tag_435:\n        /* \"#utility.yul\":21491:21516   */\n      swap2\n      pop\n        /* \"#utility.yul\":21530:21550   */\n      tag_436\n        /* \"#utility.yul\":21548:21549   */\n      dup4\n        /* \"#utility.yul\":21530:21550   */\n      tag_174\n      jump\t// in\n    tag_436:\n        /* \"#utility.yul\":21525:21550   */\n      swap3\n      pop\n        /* \"#utility.yul\":21574:21575   */\n      dup3\n        /* \"#utility.yul\":21571:21572   */\n      dup3\n        /* \"#utility.yul\":21567:21576   */\n      sub\n        /* \"#utility.yul\":21559:21576   */\n      swap1\n      pop\n        /* \"#utility.yul\":21598:21599   */\n      dup2\n        /* \"#utility.yul\":21592:21596   */\n      dup2\n        /* \"#utility.yul\":21589:21600   */\n      gt\n        /* \"#utility.yul\":21586:21623   */\n      iszero\n      tag_437\n      jumpi\n        /* \"#utility.yul\":21603:21621   */\n      tag_438\n      tag_222\n      jump\t// in\n    tag_438:\n        /* \"#utility.yul\":21586:21623   */\n    tag_437:\n        /* \"#utility.yul\":21436:21630   */\n      swap3\n      swap2\n      pop\n      pop\n      jump\t// out\n        /* \"#utility.yul\":21636:21789   */\n    tag_223:\n        /* \"#utility.yul\":21689:21695   */\n      0x00\n        /* \"#utility.yul\":21723:21728   */\n      dup2\n        /* \"#utility.yul\":21717:21729   */\n      sload\n        /* \"#utility.yul\":21707:21729   */\n      swap1\n      pop\n        /* \"#utility.yul\":21749:21782   */\n      tag_440\n        /* \"#utility.yul\":21775:21781   */\n      dup2\n        /* \"#utility.yul\":21749:21782   */\n      tag_68\n      jump\t// in\n    tag_440:\n        /* \"#utility.yul\":21739:21782   */\n      swap1\n      pop\n        /* \"#utility.yul\":21636:21789   */\n      swap2\n      swap1\n      pop\n      jump\t// out\n        /* \"#utility.yul\":21795:21940   */\n    tag_224:\n        /* \"#utility.yul\":21848:21852   */\n      0x00\n        /* \"#utility.yul\":21871:21874   */\n      dup2\n        /* \"#utility.yul\":21863:21874   */\n      swap1\n      pop\n        /* \"#utility.yul\":21894:21897   */\n      dup2\n        /* \"#utility.yul\":21891:21892   */\n      0x00\n        /* \"#utility.yul\":21884:21898   */\n      mstore\n        /* \"#utility.yul\":21928:21932   */\n      0x20\n        /* \"#utility.yul\":21925:21926   */\n      0x00\n        /* \"#utility.yul\":21915:21933   */\n      keccak256\n        /* \"#utility.yul\":21907:21933   */\n      swap1\n      pop\n        /* \"#utility.yul\":21795:21940   */\n      swap2\n      swap1\n      pop\n      jump\t// out\n        /* \"#utility.yul\":21946:23409   */\n    tag_106:\n        /* \"#utility.yul\":22061:22064   */\n      dup2\n        /* \"#utility.yul\":22055:22059   */\n      dup2\n        /* \"#utility.yul\":22052:22065   */\n      sub\n        /* \"#utility.yul\":22049:22075   */\n      tag_443\n      jumpi\n        /* \"#utility.yul\":22068:22073   */\n      pop\n      pop\n      jump(tag_442)\n        /* \"#utility.yul\":22049:22075   */\n    tag_443:\n        /* \"#utility.yul\":22099:22137   */\n      tag_444\n        /* \"#utility.yul\":22133:22136   */\n      dup3\n        /* \"#utility.yul\":22099:22137   */\n      tag_223\n      jump\t// in\n    tag_444:\n        /* \"#utility.yul\":22202:22220   */\n      0xffffffffffffffff\n        /* \"#utility.yul\":22194:22200   */\n      dup2\n        /* \"#utility.yul\":22191:22221   */\n      gt\n        /* \"#utility.yul\":22188:22244   */\n      iszero\n      tag_445\n      jumpi\n        /* \"#utility.yul\":22224:22242   */\n      tag_446\n      tag_167\n      jump\t// in\n    tag_446:\n        /* \"#utility.yul\":22188:22244   */\n    tag_445:\n        /* \"#utility.yul\":22268:22306   */\n      tag_447\n        /* \"#utility.yul\":22300:22304   */\n      dup3\n        /* \"#utility.yul\":22294:22305   */\n      sload\n        /* \"#utility.yul\":22268:22306   */\n      tag_68\n      jump\t// in\n    tag_447:\n        /* \"#utility.yul\":22353:22420   */\n      tag_448\n        /* \"#utility.yul\":22413:22419   */\n      dup3\n        /* \"#utility.yul\":22405:22411   */\n      dup3\n        /* \"#utility.yul\":22399:22403   */\n      dup6\n        /* \"#utility.yul\":22353:22420   */\n      tag_213\n      jump\t// in\n    tag_448:\n        /* \"#utility.yul\":22447:22448   */\n      0x00\n        /* \"#utility.yul\":22476:22478   */\n      0x1f\n        /* \"#utility.yul\":22468:22474   */\n      dup4\n        /* \"#utility.yul\":22465:22479   */\n      gt\n        /* \"#utility.yul\":22493:22494   */\n      0x01\n        /* \"#utility.yul\":22488:23164   */\n      dup2\n      eq\n      tag_450\n      jumpi\n        /* \"#utility.yul\":23208:23209   */\n      0x00\n        /* \"#utility.yul\":23225:23231   */\n      dup5\n        /* \"#utility.yul\":23222:23299   */\n      iszero\n      tag_451\n      jumpi\n        /* \"#utility.yul\":23274:23283   */\n      dup3\n        /* \"#utility.yul\":23269:23272   */\n      dup8\n        /* \"#utility.yul\":23265:23284   */\n      add\n        /* \"#utility.yul\":23259:23285   */\n      sload\n        /* \"#utility.yul\":23250:23285   */\n      swap1\n      pop\n        /* \"#utility.yul\":23222:23299   */\n    tag_451:\n        /* \"#utility.yul\":23325:23392   */\n      tag_452\n        /* \"#utility.yul\":23385:23391   */\n      dup6\n        /* \"#utility.yul\":23378:23383   */\n      dup3\n        /* \"#utility.yul\":23325:23392   */\n      tag_216\n      jump\t// in\n    tag_452:\n        /* \"#utility.yul\":23319:23323   */\n      dup7\n        /* \"#utility.yul\":23312:23393   */\n      sstore\n        /* \"#utility.yul\":23181:23403   */\n      pop\n        /* \"#utility.yul\":22458:23403   */\n      jump(tag_449)\n        /* \"#utility.yul\":22488:23164   */\n    tag_450:\n        /* \"#utility.yul\":22540:22544   */\n      0x1f\n        /* \"#utility.yul\":22536:22545   */\n      not\n        /* \"#utility.yul\":22528:22534   */\n      dup5\n        /* \"#utility.yul\":22524:22546   */\n      and\n        /* \"#utility.yul\":22566:22606   */\n      tag_453\n        /* \"#utility.yul\":22602:22605   */\n      dup8\n        /* \"#utility.yul\":22566:22606   */\n      tag_224\n      jump\t// in\n    tag_453:\n        /* \"#utility.yul\":22559:22606   */\n      swap7\n      pop\n        /* \"#utility.yul\":22633:22670   */\n      tag_454\n        /* \"#utility.yul\":22665:22669   */\n      dup7\n        /* \"#utility.yul\":22633:22670   */\n      tag_202\n      jump\t// in\n    tag_454:\n        /* \"#utility.yul\":22692:22693   */\n      0x00\n        /* \"#utility.yul\":22706:22913   */\n    tag_455:\n        /* \"#utility.yul\":22720:22727   */\n      dup3\n        /* \"#utility.yul\":22717:22718   */\n      dup2\n        /* \"#utility.yul\":22714:22728   */\n      lt\n        /* \"#utility.yul\":22706:22913   */\n      iszero\n      tag_457\n      jumpi\n        /* \"#utility.yul\":22799:22808   */\n      dup5\n        /* \"#utility.yul\":22794:22797   */\n      dup10\n        /* \"#utility.yul\":22790:22809   */\n      add\n        /* \"#utility.yul\":22784:22810   */\n      sload\n        /* \"#utility.yul\":22776:22782   */\n      dup3\n        /* \"#utility.yul\":22769:22811   */\n      sstore\n        /* \"#utility.yul\":22850:22851   */\n      0x01\n        /* \"#utility.yul\":22842:22848   */\n      dup3\n        /* \"#utility.yul\":22838:22852   */\n      add\n        /* \"#utility.yul\":22828:22852   */\n      swap2\n      pop\n        /* \"#utility.yul\":22897:22898   */\n      0x01\n        /* \"#utility.yul\":22886:22895   */\n      dup6\n        /* \"#utility.yul\":22882:22899   */\n      add\n        /* \"#utility.yul\":22869:22899   */\n      swap5\n      pop\n        /* \"#utility.yul\":22743:22747   */\n      0x20\n        /* \"#utility.yul\":22740:22741   */\n      dup2\n        /* \"#utility.yul\":22736:22748   */\n      add\n        /* \"#utility.yul\":22731:22748   */\n      swap1\n      pop\n        /* \"#utility.yul\":22706:22913   */\n      jump(tag_455)\n    tag_457:\n        /* \"#utility.yul\":22941:22947   */\n      dup7\n        /* \"#utility.yul\":22932:22939   */\n      dup4\n        /* \"#utility.yul\":22929:22948   */\n      lt\n        /* \"#utility.yul\":22926:23105   */\n      iszero\n      tag_458\n      jumpi\n        /* \"#utility.yul\":22999:23008   */\n      dup5\n        /* \"#utility.yul\":22994:22997   */\n      dup10\n        /* \"#utility.yul\":22990:23009   */\n      add\n        /* \"#utility.yul\":22984:23010   */\n      sload\n        /* \"#utility.yul\":23042:23090   */\n      tag_459\n        /* \"#utility.yul\":23084:23088   */\n      0x1f\n        /* \"#utility.yul\":23076:23082   */\n      dup10\n        /* \"#utility.yul\":23072:23089   */\n      and\n        /* \"#utility.yul\":23061:23070   */\n      dup3\n        /* \"#utility.yul\":23042:23090   */\n      tag_215\n      jump\t// in\n    tag_459:\n        /* \"#utility.yul\":23034:23040   */\n      dup4\n        /* \"#utility.yul\":23027:23091   */\n      sstore\n        /* \"#utility.yul\":22949:23105   */\n      pop\n        /* \"#utility.yul\":22926:23105   */\n    tag_458:\n        /* \"#utility.yul\":23151:23152   */\n      0x01\n        /* \"#utility.yul\":23147:23148   */\n      0x02\n        /* \"#utility.yul\":23139:23145   */\n      dup9\n        /* \"#utility.yul\":23135:23149   */\n      mul\n        /* \"#utility.yul\":23131:23153   */\n      add\n        /* \"#utility.yul\":23125:23129   */\n      dup9\n        /* \"#utility.yul\":23118:23154   */\n      sstore\n        /* \"#utility.yul\":22495:23164   */\n      pop\n      pop\n      pop\n        /* \"#utility.yul\":22458:23403   */\n    tag_449:\n      pop\n        /* \"#utility.yul\":22039:23409   */\n      pop\n      pop\n      pop\n        /* \"#utility.yul\":21946:23409   */\n      pop\n      pop\n    tag_442:\n      jump\t// out\n        /* \"#utility.yul\":23415:23595   */\n    tag_109:\n        /* \"#utility.yul\":23463:23540   */\n      0x4e487b7100000000000000000000000000000000000000000000000000000000\n        /* \"#utility.yul\":23460:23461   */\n      0x00\n        /* \"#utility.yul\":23453:23541   */\n      mstore\n        /* \"#utility.yul\":23560:23564   */\n      0x31\n        /* \"#utility.yul\":23557:23558   */\n      0x04\n        /* \"#utility.yul\":23550:23565   */\n      mstore\n        /* \"#utility.yul\":23584:23588   */\n      0x24\n        /* \"#utility.yul\":23581:23582   */\n      0x00\n        /* \"#utility.yul\":23574:23589   */\n      revert\n\n    auxdata: 0xa2646970667358221220ac06171a6ff264cbae2e2a14fbba09be8f9517500e5b580d20274425f48ae0e064736f6c634300081e0033\n}\n",
				"bytecode": {
					"linkReferences": {},
					"object": "6080604052348015600e575f5ffd5b503360025f6101000a81548173ffffffffffffffffffffffffffffffffffffffff021916908373ffffffffffffffffffffffffffffffffffffffff1602179055506118e78061005c5f395ff3fe608060405234801561000f575f5ffd5b5060043610610086575f3560e01c8063bc83abde11610059578063bc83abde146100fe578063bc9cd8351461011c578063bf89035b1461014f578063f2b2cc9d1461017f57610086565b8063503af8771461008a578063512aad4d146100a65780637062b97d146100c4578063a4fe6a0a146100e2575b5f5ffd5b6100a4600480360381019061009f9190610ddd565b61019b565b005b6100ae61039f565b6040516100bb9190610fdf565b60405180910390f35b6100cc610473565b6040516100d9919061103e565b60405180910390f35b6100fc60048036038101906100f79190611057565b610498565b005b6101066106ef565b60405161011391906110ad565b60405180910390f35b61013660048036038101906101319190611057565b6106fb565b604051610146949392919061110e565b60405180910390f35b61016960048036038101906101649190611057565b610a1f565b6040516101769190611180565b60405180910390f35b61019960048036038101906101949190610ddd565b610a54565b005b60025f9054906101000a900473ffffffffffffffffffffffffffffffffffffffff1673ffffffffffffffffffffffffffffffffffffffff163373ffffffffffffffffffffffffffffffffffffffff161461022a576040517f08c379a000000000000000000000000000000000000000000000000000000000815260040161022190611209565b60405180910390fd5b5f856040516102399190611261565b90815260200160405180910390206005015f9054906101000a900460ff1615610297576040517f08c379a000000000000000000000000000000000000000000000000000000000815260040161028e906112e7565b60405180910390fd5b6040518060c00160405280868152602001858152602001848152602001838152602001828152602001600115158152505f866040516102d69190611261565b90815260200160405180910390205f820151815f0190816102f79190611502565b50602082015181600101908161030d9190611502565b5060408201518160020190816103239190611502565b506060820151816003015560808201518160040190816103439190611502565b5060a0820151816005015f6101000a81548160ff021916908315150217905550905050600185908060018154018082558091505060019003905f5260205f20015f9091909190915090816103979190611502565b505050505050565b60606001805480602002602001604051908101604052809291908181526020015f905b8282101561046a578382905f5260205f200180546103df90611332565b80601f016020809104026020016040519081016040528092919081815260200182805461040b90611332565b80156104565780601f1061042d57610100808354040283529160200191610456565b820191905f5260205f20905b81548152906001019060200180831161043957829003601f168201915b5050505050815260200190600101906103c2565b50505050905090565b60025f9054906101000a900473ffffffffffffffffffffffffffffffffffffffff1681565b60025f9054906101000a900473ffffffffffffffffffffffffffffffffffffffff1673ffffffffffffffffffffffffffffffffffffffff163373ffffffffffffffffffffffffffffffffffffffff1614610527576040517f08c379a000000000000000000000000000000000000000000000000000000000815260040161051e90611209565b60405180910390fd5b5f816040516105369190611261565b90815260200160405180910390206005015f9054906101000a900460ff16610593576040517f08c379a000000000000000000000000000000000000000000000000000000000815260040161058a9061161b565b60405180910390fd5b5f816040516105a29190611261565b90815260200160405180910390205f5f82015f6105bf9190610c05565b600182015f6105ce9190610c05565b600282015f6105dd9190610c05565b600382015f9055600482015f6105f39190610c05565b600582015f6101000a81549060ff021916905550505f5f90505b6001805490508110156106eb5781805190602001206001828154811061063657610635611639565b5b905f5260205f200160405161064b9190611702565b6040518091039020036106de57600180808054905061066a9190611745565b8154811061067b5761067a611639565b5b905f5260205f20016001828154811061069757610696611639565b5b905f5260205f200190816106ab919061179f565b5060018054806106be576106bd611884565b5b600190038181905f5260205f20015f6106d79190610c05565b90556106eb565b808060010191505061060d565b5050565b5f600180549050905090565b6060805f60605f856040516107109190611261565b90815260200160405180910390206005015f9054906101000a900460ff1661076d576040517f08c379a00000000000000000000000000000000000000000000000000000000081526004016107649061161b565b60405180910390fd5b5f5f8660405161077d9190611261565b90815260200160405180910390206040518060c00160405290815f820180546107a590611332565b80601f01602080910402602001604051908101604052809291908181526020018280546107d190611332565b801561081c5780601f106107f35761010080835404028352916020019161081c565b820191905f5260205f20905b8154815290600101906020018083116107ff57829003601f168201915b5050505050815260200160018201805461083590611332565b80601f016020809104026020016040519081016040528092919081815260200182805461086190611332565b80156108ac5780601f10610883576101008083540402835291602001916108ac565b820191905f5260205f20905b81548152906001019060200180831161088f57829003601f168201915b505050505081526020016002820180546108c590611332565b80601f01602080910402602001604051908101604052809291908181526020018280546108f190611332565b801561093c5780601f106109135761010080835404028352916020019161093c565b820191905f5260205f20905b81548152906001019060200180831161091f57829003601f168201915b505050505081526020016003820154815260200160048201805461095f90611332565b80601f016020809104026020016040519081016040528092919081815260200182805461098b90611332565b80156109d65780601f106109ad576101008083540402835291602001916109d6565b820191905f5260205f20905b8154815290600101906020018083116109b957829003601f168201915b50505050508152602001600582015f9054906101000a900460ff161515151581525050905080602001518160400151826060015183608001519450945094509450509193509193565b5f5f82604051610a2f9190611261565b90815260200160405180910390206005015f9054906101000a900460ff169050919050565b60025f9054906101000a900473ffffffffffffffffffffffffffffffffffffffff1673ffffffffffffffffffffffffffffffffffffffff163373ffffffffffffffffffffffffffffffffffffffff1614610ae3576040517f08c379a0000000000000000000000000000000000000000000000000000000008152600401610ada90611209565b60405180910390fd5b5f85604051610af29190611261565b90815260200160405180910390206005015f9054906101000a900460ff16610b4f576040517f08c379a0000000000000000000000000000000000000000000000000000000008152600401610b469061161b565b60405180910390fd5b835f86604051610b5f9190611261565b90815260200160405180910390206001019081610b7c9190611502565b50825f86604051610b8d9190611261565b90815260200160405180910390206002019081610baa9190611502565b50815f86604051610bbb9190611261565b908152602001604051809103902060030181905550805f86604051610be09190611261565b90815260200160405180910390206004019081610bfd9190611502565b505050505050565b508054610c1190611332565b5f825580601f10610c225750610c3f565b601f0160209004905f5260205f2090810190610c3e9190610c42565b5b50565b5b80821115610c59575f815f905550600101610c43565b5090565b5f604051905090565b5f5ffd5b5f5ffd5b5f5ffd5b5f5ffd5b5f601f19601f8301169050919050565b7f4e487b71000000000000000000000000000000000000000000000000000000005f52604160045260245ffd5b610cbc82610c76565b810181811067ffffffffffffffff82111715610cdb57610cda610c86565b5b80604052505050565b5f610ced610c5d565b9050610cf98282610cb3565b919050565b5f67ffffffffffffffff821115610d1857610d17610c86565b5b610d2182610c76565b9050602081019050919050565b828183375f83830152505050565b5f610d4e610d4984610cfe565b610ce4565b905082815260208101848484011115610d6a57610d69610c72565b5b610d75848285610d2e565b509392505050565b5f82601f830112610d9157610d90610c6e565b5b8135610da1848260208601610d3c565b91505092915050565b5f819050919050565b610dbc81610daa565b8114610dc6575f5ffd5b50565b5f81359050610dd781610db3565b92915050565b5f5f5f5f5f60a08688031215610df657610df5610c66565b5b5f86013567ffffffffffffffff811115610e1357610e12610c6a565b5b610e1f88828901610d7d565b955050602086013567ffffffffffffffff811115610e4057610e3f610c6a565b5b610e4c88828901610d7d565b945050604086013567ffffffffffffffff811115610e6d57610e6c610c6a565b5b610e7988828901610d7d565b9350506060610e8a88828901610dc9565b925050608086013567ffffffffffffffff811115610eab57610eaa610c6a565b5b610eb788828901610d7d565b9150509295509295909350565b5f81519050919050565b5f82825260208201905092915050565b5f819050602082019050919050565b5f81519050919050565b5f82825260208201905092915050565b8281835e5f83830152505050565b5f610f1f82610eed565b610f298185610ef7565b9350610f39818560208601610f07565b610f4281610c76565b840191505092915050565b5f610f588383610f15565b905092915050565b5f602082019050919050565b5f610f7682610ec4565b610f808185610ece565b935083602082028501610f9285610ede565b805f5b85811015610fcd5784840389528151610fae8582610f4d565b9450610fb983610f60565b925060208a01995050600181019050610f95565b50829750879550505050505092915050565b5f6020820190508181035f830152610ff78184610f6c565b905092915050565b5f73ffffffffffffffffffffffffffffffffffffffff82169050919050565b5f61102882610fff565b9050919050565b6110388161101e565b82525050565b5f6020820190506110515f83018461102f565b92915050565b5f6020828403121561106c5761106b610c66565b5b5f82013567ffffffffffffffff81111561108957611088610c6a565b5b61109584828501610d7d565b91505092915050565b6110a781610daa565b82525050565b5f6020820190506110c05f83018461109e565b92915050565b5f82825260208201905092915050565b5f6110e082610eed565b6110ea81856110c6565b93506110fa818560208601610f07565b61110381610c76565b840191505092915050565b5f6080820190508181035f83015261112681876110d6565b9050818103602083015261113a81866110d6565b9050611149604083018561109e565b818103606083015261115b81846110d6565b905095945050505050565b5f8115159050919050565b61117a81611166565b82525050565b5f6020820190506111935f830184611171565b92915050565b7f536f6c6f20656c2061646d696e6973747261646f7220707565646520656a65635f8201527f7574617220657374612066756e63696f6e000000000000000000000000000000602082015250565b5f6111f36031836110c6565b91506111fe82611199565b604082019050919050565b5f6020820190508181035f830152611220816111e7565b9050919050565b5f81905092915050565b5f61123b82610eed565b6112458185611227565b9350611255818560208601610f07565b80840191505092915050565b5f61126c8284611231565b915081905092915050565b7f456c2063616e64696461746f2079612065786973746520636f6e2065737461205f8201527f636564756c610000000000000000000000000000000000000000000000000000602082015250565b5f6112d16026836110c6565b91506112dc82611277565b604082019050919050565b5f6020820190508181035f8301526112fe816112c5565b9050919050565b7f4e487b71000000000000000000000000000000000000000000000000000000005f52602260045260245ffd5b5f600282049050600182168061134957607f821691505b60208210810361135c5761135b611305565b5b50919050565b5f819050815f5260205f209050919050565b5f6020601f8301049050919050565b5f82821b905092915050565b5f600883026113be7fffffffffffffffffffffffffffffffffffffffffffffffffffffffffffffffff82611383565b6113c88683611383565b95508019841693508086168417925050509392505050565b5f819050919050565b5f6114036113fe6113f984610daa565b6113e0565b610daa565b9050919050565b5f819050919050565b61141c836113e9565b6114306114288261140a565b84845461138f565b825550505050565b5f5f905090565b611447611438565b611452818484611413565b505050565b5b818110156114755761146a5f8261143f565b600181019050611458565b5050565b601f8211156114ba5761148b81611362565b61149484611374565b810160208510156114a3578190505b6114b76114af85611374565b830182611457565b50505b505050565b5f82821c905092915050565b5f6114da5f19846008026114bf565b1980831691505092915050565b5f6114f283836114cb565b9150826002028217905092915050565b61150b82610eed565b67ffffffffffffffff81111561152457611523610c86565b5b61152e8254611332565b611539828285611479565b5f60209050601f83116001811461156a575f8415611558578287015190505b61156285826114e7565b8655506115c9565b601f19841661157886611362565b5f5b8281101561159f5784890151825560018201915060208501945060208101905061157a565b868310156115bc57848901516115b8601f8916826114cb565b8355505b6001600288020188555050505b505050505050565b7f43616e64696461746f206e6f20656e636f6e747261646f0000000000000000005f82015250565b5f6116056017836110c6565b9150611610826115d1565b602082019050919050565b5f6020820190508181035f830152611632816115f9565b9050919050565b7f4e487b71000000000000000000000000000000000000000000000000000000005f52603260045260245ffd5b5f81905092915050565b5f819050815f5260205f209050919050565b5f815461168e81611332565b6116988186611666565b9450600182165f81146116b257600181146116c7576116f9565b60ff19831686528115158202860193506116f9565b6116d085611670565b5f5b838110156116f1578154818901526001820191506020810190506116d2565b838801955050505b50505092915050565b5f61170d8284611682565b915081905092915050565b7f4e487b71000000000000000000000000000000000000000000000000000000005f52601160045260245ffd5b5f61174f82610daa565b915061175a83610daa565b925082820390508181111561177257611771611718565b5b92915050565b5f8154905061178681611332565b9050919050565b5f819050815f5260205f209050919050565b8181036117ad575050611882565b6117b682611778565b67ffffffffffffffff8111156117cf576117ce610c86565b5b6117d98254611332565b6117e4828285611479565b5f601f831160018114611811575f84156117ff578287015490505b61180985826114e7565b86555061187b565b601f19841661181f8761178d565b965061182a86611362565b5f5b828110156118515784890154825560018201915060018501945060208101905061182c565b8683101561186e578489015461186a601f8916826114cb565b8355505b6001600288020188555050505b5050505050505b565b7f4e487b71000000000000000000000000000000000000000000000000000000005f52603160045260245ffdfea2646970667358221220ac06171a6ff264cbae2e2a14fbba09be8f9517500e5b580d20274425f48ae0e064736f6c634300081e0033",
					"opcodes": "PUSH1 0x80 PUSH1 0x40 MSTORE CALLVALUE DUP1 ISZERO PUSH1 0xE JUMPI PUSH0 PUSH0 REVERT JUMPDEST POP CALLER PUSH1 0x2 PUSH0 PUSH2 0x100 EXP DUP2 SLOAD DUP2 PUSH20 0xFFFFFFFFFFFFFFFFFFFFFFFFFFFFFFFFFFFFFFFF MUL NOT AND SWAP1 DUP4 PUSH20 0xFFFFFFFFFFFFFFFFFFFFFFFFFFFFFFFFFFFFFFFF AND MUL OR SWAP1 SSTORE POP PUSH2 0x18E7 DUP1 PUSH2 0x5C PUSH0 CODECOPY PUSH0 RETURN INVALID PUSH1 0x80 PUSH1 0x40 MSTORE CALLVALUE DUP1 ISZERO PUSH2 0xF JUMPI PUSH0 PUSH0 REVERT JUMPDEST POP PUSH1 0x4 CALLDATASIZE LT PUSH2 0x86 JUMPI PUSH0 CALLDATALOAD PUSH1 0xE0 SHR DUP1 PUSH4 0xBC83ABDE GT PUSH2 0x59 JUMPI DUP1 PUSH4 0xBC83ABDE EQ PUSH2 0xFE JUMPI DUP1 PUSH4 0xBC9CD835 EQ PUSH2 0x11C JUMPI DUP1 PUSH4 0xBF89035B EQ PUSH2 0x14F JUMPI DUP1 PUSH4 0xF2B2CC9D EQ PUSH2 0x17F JUMPI PUSH2 0x86 JUMP JUMPDEST DUP1 PUSH4 0x503AF877 EQ PUSH2 0x8A JUMPI DUP1 PUSH4 0x512AAD4D EQ PUSH2 0xA6 JUMPI DUP1 PUSH4 0x7062B97D EQ PUSH2 0xC4 JUMPI DUP1 PUSH4 0xA4FE6A0A EQ PUSH2 0xE2 JUMPI JUMPDEST PUSH0 PUSH0 REVERT JUMPDEST PUSH2 0xA4 PUSH1 0x4 DUP1 CALLDATASIZE SUB DUP2 ADD SWAP1 PUSH2 0x9F SWAP2 SWAP1 PUSH2 0xDDD JUMP JUMPDEST PUSH2 0x19B JUMP JUMPDEST STOP JUMPDEST PUSH2 0xAE PUSH2 0x39F JUMP JUMPDEST PUSH1 0x40 MLOAD PUSH2 0xBB SWAP2 SWAP1 PUSH2 0xFDF JUMP JUMPDEST PUSH1 0x40 MLOAD DUP1 SWAP2 SUB SWAP1 RETURN JUMPDEST PUSH2 0xCC PUSH2 0x473 JUMP JUMPDEST PUSH1 0x40 MLOAD PUSH2 0xD9 SWAP2 SWAP1 PUSH2 0x103E JUMP JUMPDEST PUSH1 0x40 MLOAD DUP1 SWAP2 SUB SWAP1 RETURN JUMPDEST PUSH2 0xFC PUSH1 0x4 DUP1 CALLDATASIZE SUB DUP2 ADD SWAP1 PUSH2 0xF7 SWAP2 SWAP1 PUSH2 0x1057 JUMP JUMPDEST PUSH2 0x498 JUMP JUMPDEST STOP JUMPDEST PUSH2 0x106 PUSH2 0x6EF JUMP JUMPDEST PUSH1 0x40 MLOAD PUSH2 0x113 SWAP2 SWAP1 PUSH2 0x10AD JUMP JUMPDEST PUSH1 0x40 MLOAD DUP1 SWAP2 SUB SWAP1 RETURN JUMPDEST PUSH2 0x136 PUSH1 0x4 DUP1 CALLDATASIZE SUB DUP2 ADD SWAP1 PUSH2 0x131 SWAP2 SWAP1 PUSH2 0x1057 JUMP JUMPDEST PUSH2 0x6FB JUMP JUMPDEST PUSH1 0x40 MLOAD PUSH2 0x146 SWAP5 SWAP4 SWAP3 SWAP2 SWAP1 PUSH2 0x110E JUMP JUMPDEST PUSH1 0x40 MLOAD DUP1 SWAP2 SUB SWAP1 RETURN JUMPDEST PUSH2 0x169 PUSH1 0x4 DUP1 CALLDATASIZE SUB DUP2 ADD SWAP1 PUSH2 0x164 SWAP2 SWAP1 PUSH2 0x1057 JUMP JUMPDEST PUSH2 0xA1F JUMP JUMPDEST PUSH1 0x40 MLOAD PUSH2 0x176 SWAP2 SWAP1 PUSH2 0x1180 JUMP JUMPDEST PUSH1 0x40 MLOAD DUP1 SWAP2 SUB SWAP1 RETURN JUMPDEST PUSH2 0x199 PUSH1 0x4 DUP1 CALLDATASIZE SUB DUP2 ADD SWAP1 PUSH2 0x194 SWAP2 SWAP1 PUSH2 0xDDD JUMP JUMPDEST PUSH2 0xA54 JUMP JUMPDEST STOP JUMPDEST PUSH1 0x2 PUSH0 SWAP1 SLOAD SWAP1 PUSH2 0x100 EXP SWAP1 DIV PUSH20 0xFFFFFFFFFFFFFFFFFFFFFFFFFFFFFFFFFFFFFFFF AND PUSH20 0xFFFFFFFFFFFFFFFFFFFFFFFFFFFFFFFFFFFFFFFF AND CALLER PUSH20 0xFFFFFFFFFFFFFFFFFFFFFFFFFFFFFFFFFFFFFFFF AND EQ PUSH2 0x22A JUMPI PUSH1 0x40 MLOAD PUSH32 0x8C379A000000000000000000000000000000000000000000000000000000000 DUP2 MSTORE PUSH1 0x4 ADD PUSH2 0x221 SWAP1 PUSH2 0x1209 JUMP JUMPDEST PUSH1 0x40 MLOAD DUP1 SWAP2 SUB SWAP1 REVERT JUMPDEST PUSH0 DUP6 PUSH1 0x40 MLOAD PUSH2 0x239 SWAP2 SWAP1 PUSH2 0x1261 JUMP JUMPDEST SWAP1 DUP2 MSTORE PUSH1 0x20 ADD PUSH1 0x40 MLOAD DUP1 SWAP2 SUB SWAP1 KECCAK256 PUSH1 0x5 ADD PUSH0 SWAP1 SLOAD SWAP1 PUSH2 0x100 EXP SWAP1 DIV PUSH1 0xFF AND ISZERO PUSH2 0x297 JUMPI PUSH1 0x40 MLOAD PUSH32 0x8C379A000000000000000000000000000000000000000000000000000000000 DUP2 MSTORE PUSH1 0x4 ADD PUSH2 0x28E SWAP1 PUSH2 0x12E7 JUMP JUMPDEST PUSH1 0x40 MLOAD DUP1 SWAP2 SUB SWAP1 REVERT JUMPDEST PUSH1 0x40 MLOAD DUP1 PUSH1 0xC0 ADD PUSH1 0x40 MSTORE DUP1 DUP7 DUP2 MSTORE PUSH1 0x20 ADD DUP6 DUP2 MSTORE PUSH1 0x20 ADD DUP5 DUP2 MSTORE PUSH1 0x20 ADD DUP4 DUP2 MSTORE PUSH1 0x20 ADD DUP3 DUP2 MSTORE PUSH1 0x20 ADD PUSH1 0x1 ISZERO ISZERO DUP2 MSTORE POP PUSH0 DUP7 PUSH1 0x40 MLOAD PUSH2 0x2D6 SWAP2 SWAP1 PUSH2 0x1261 JUMP JUMPDEST SWAP1 DUP2 MSTORE PUSH1 0x20 ADD PUSH1 0x40 MLOAD DUP1 SWAP2 SUB SWAP1 KECCAK256 PUSH0 DUP3 ADD MLOAD DUP2 PUSH0 ADD SWAP1 DUP2 PUSH2 0x2F7 SWAP2 SWAP1 PUSH2 0x1502 JUMP JUMPDEST POP PUSH1 0x20 DUP3 ADD MLOAD DUP2 PUSH1 0x1 ADD SWAP1 DUP2 PUSH2 0x30D SWAP2 SWAP1 PUSH2 0x1502 JUMP JUMPDEST POP PUSH1 0x40 DUP3 ADD MLOAD DUP2 PUSH1 0x2 ADD SWAP1 DUP2 PUSH2 0x323 SWAP2 SWAP1 PUSH2 0x1502 JUMP JUMPDEST POP PUSH1 0x60 DUP3 ADD MLOAD DUP2 PUSH1 0x3 ADD SSTORE PUSH1 0x80 DUP3 ADD MLOAD DUP2 PUSH1 0x4 ADD SWAP1 DUP2 PUSH2 0x343 SWAP2 SWAP1 PUSH2 0x1502 JUMP JUMPDEST POP PUSH1 0xA0 DUP3 ADD MLOAD DUP2 PUSH1 0x5 ADD PUSH0 PUSH2 0x100 EXP DUP2 SLOAD DUP2 PUSH1 0xFF MUL NOT AND SWAP1 DUP4 ISZERO ISZERO MUL OR SWAP1 SSTORE POP SWAP1 POP POP PUSH1 0x1 DUP6 SWAP1 DUP1 PUSH1 0x1 DUP2 SLOAD ADD DUP1 DUP3 SSTORE DUP1 SWAP2 POP POP PUSH1 0x1 SWAP1 SUB SWAP1 PUSH0 MSTORE PUSH1 0x20 PUSH0 KECCAK256 ADD PUSH0 SWAP1 SWAP2 SWAP1 SWAP2 SWAP1 SWAP2 POP SWAP1 DUP2 PUSH2 0x397 SWAP2 SWAP1 PUSH2 0x1502 JUMP JUMPDEST POP POP POP POP POP POP JUMP JUMPDEST PUSH1 0x60 PUSH1 0x1 DUP1 SLOAD DUP1 PUSH1 0x20 MUL PUSH1 0x20 ADD PUSH1 0x40 MLOAD SWAP1 DUP2 ADD PUSH1 0x40 MSTORE DUP1 SWAP3 SWAP2 SWAP1 DUP2 DUP2 MSTORE PUSH1 0x20 ADD PUSH0 SWAP1 JUMPDEST DUP3 DUP3 LT ISZERO PUSH2 0x46A JUMPI DUP4 DUP3 SWAP1 PUSH0 MSTORE PUSH1 0x20 PUSH0 KECCAK256 ADD DUP1 SLOAD PUSH2 0x3DF SWAP1 PUSH2 0x1332 JUMP JUMPDEST DUP1 PUSH1 0x1F ADD PUSH1 0x20 DUP1 SWAP2 DIV MUL PUSH1 0x20 ADD PUSH1 0x40 MLOAD SWAP1 DUP2 ADD PUSH1 0x40 MSTORE DUP1 SWAP3 SWAP2 SWAP1 DUP2 DUP2 MSTORE PUSH1 0x20 ADD DUP3 DUP1 SLOAD PUSH2 0x40B SWAP1 PUSH2 0x1332 JUMP JUMPDEST DUP1 ISZERO PUSH2 0x456 JUMPI DUP1 PUSH1 0x1F LT PUSH2 0x42D JUMPI PUSH2 0x100 DUP1 DUP4 SLOAD DIV MUL DUP4 MSTORE SWAP2 PUSH1 0x20 ADD SWAP2 PUSH2 0x456 JUMP JUMPDEST DUP3 ADD SWAP2 SWAP1 PUSH0 MSTORE PUSH1 0x20 PUSH0 KECCAK256 SWAP1 JUMPDEST DUP2 SLOAD DUP2 MSTORE SWAP1 PUSH1 0x1 ADD SWAP1 PUSH1 0x20 ADD DUP1 DUP4 GT PUSH2 0x439 JUMPI DUP3 SWAP1 SUB PUSH1 0x1F AND DUP3 ADD SWAP2 JUMPDEST POP POP POP POP POP DUP2 MSTORE PUSH1 0x20 ADD SWAP1 PUSH1 0x1 ADD SWAP1 PUSH2 0x3C2 JUMP JUMPDEST POP POP POP POP SWAP1 POP SWAP1 JUMP JUMPDEST PUSH1 0x2 PUSH0 SWAP1 SLOAD SWAP1 PUSH2 0x100 EXP SWAP1 DIV PUSH20 0xFFFFFFFFFFFFFFFFFFFFFFFFFFFFFFFFFFFFFFFF AND DUP2 JUMP JUMPDEST PUSH1 0x2 PUSH0 SWAP1 SLOAD SWAP1 PUSH2 0x100 EXP SWAP1 DIV PUSH20 0xFFFFFFFFFFFFFFFFFFFFFFFFFFFFFFFFFFFFFFFF AND PUSH20 0xFFFFFFFFFFFFFFFFFFFFFFFFFFFFFFFFFFFFFFFF AND CALLER PUSH20 0xFFFFFFFFFFFFFFFFFFFFFFFFFFFFFFFFFFFFFFFF AND EQ PUSH2 0x527 JUMPI PUSH1 0x40 MLOAD PUSH32 0x8C379A000000000000000000000000000000000000000000000000000000000 DUP2 MSTORE PUSH1 0x4 ADD PUSH2 0x51E SWAP1 PUSH2 0x1209 JUMP JUMPDEST PUSH1 0x40 MLOAD DUP1 SWAP2 SUB SWAP1 REVERT JUMPDEST PUSH0 DUP2 PUSH1 0x40 MLOAD PUSH2 0x536 SWAP2 SWAP1 PUSH2 0x1261 JUMP JUMPDEST SWAP1 DUP2 MSTORE PUSH1 0x20 ADD PUSH1 0x40 MLOAD DUP1 SWAP2 SUB SWAP1 KECCAK256 PUSH1 0x5 ADD PUSH0 SWAP1 SLOAD SWAP1 PUSH2 0x100 EXP SWAP1 DIV PUSH1 0xFF AND PUSH2 0x593 JUMPI PUSH1 0x40 MLOAD PUSH32 0x8C379A000000000000000000000000000000000000000000000000000000000 DUP2 MSTORE PUSH1 0x4 ADD PUSH2 0x58A SWAP1 PUSH2 0x161B JUMP JUMPDEST PUSH1 0x40 MLOAD DUP1 SWAP2 SUB SWAP1 REVERT JUMPDEST PUSH0 DUP2 PUSH1 0x40 MLOAD PUSH2 0x5A2 SWAP2 SWAP1 PUSH2 0x1261 JUMP JUMPDEST SWAP1 DUP2 MSTORE PUSH1 0x20 ADD PUSH1 0x40 MLOAD DUP1 SWAP2 SUB SWAP1 KECCAK256 PUSH0 PUSH0 DUP3 ADD PUSH0 PUSH2 0x5BF SWAP2 SWAP1 PUSH2 0xC05 JUMP JUMPDEST PUSH1 0x1 DUP3 ADD PUSH0 PUSH2 0x5CE SWAP2 SWAP1 PUSH2 0xC05 JUMP JUMPDEST PUSH1 0x2 DUP3 ADD PUSH0 PUSH2 0x5DD SWAP2 SWAP1 PUSH2 0xC05 JUMP JUMPDEST PUSH1 0x3 DUP3 ADD PUSH0 SWAP1 SSTORE PUSH1 0x4 DUP3 ADD PUSH0 PUSH2 0x5F3 SWAP2 SWAP1 PUSH2 0xC05 JUMP JUMPDEST PUSH1 0x5 DUP3 ADD PUSH0 PUSH2 0x100 EXP DUP2 SLOAD SWAP1 PUSH1 0xFF MUL NOT AND SWAP1 SSTORE POP POP PUSH0 PUSH0 SWAP1 POP JUMPDEST PUSH1 0x1 DUP1 SLOAD SWAP1 POP DUP2 LT ISZERO PUSH2 0x6EB JUMPI DUP2 DUP1 MLOAD SWAP1 PUSH1 0x20 ADD KECCAK256 PUSH1 0x1 DUP3 DUP2 SLOAD DUP2 LT PUSH2 0x636 JUMPI PUSH2 0x635 PUSH2 0x1639 JUMP JUMPDEST JUMPDEST SWAP1 PUSH0 MSTORE PUSH1 0x20 PUSH0 KECCAK256 ADD PUSH1 0x40 MLOAD PUSH2 0x64B SWAP2 SWAP1 PUSH2 0x1702 JUMP JUMPDEST PUSH1 0x40 MLOAD DUP1 SWAP2 SUB SWAP1 KECCAK256 SUB PUSH2 0x6DE JUMPI PUSH1 0x1 DUP1 DUP1 DUP1 SLOAD SWAP1 POP PUSH2 0x66A SWAP2 SWAP1 PUSH2 0x1745 JUMP JUMPDEST DUP2 SLOAD DUP2 LT PUSH2 0x67B JUMPI PUSH2 0x67A PUSH2 0x1639 JUMP JUMPDEST JUMPDEST SWAP1 PUSH0 MSTORE PUSH1 0x20 PUSH0 KECCAK256 ADD PUSH1 0x1 DUP3 DUP2 SLOAD DUP2 LT PUSH2 0x697 JUMPI PUSH2 0x696 PUSH2 0x1639 JUMP JUMPDEST JUMPDEST SWAP1 PUSH0 MSTORE PUSH1 0x20 PUSH0 KECCAK256 ADD SWAP1 DUP2 PUSH2 0x6AB SWAP2 SWAP1 PUSH2 0x179F JUMP JUMPDEST POP PUSH1 0x1 DUP1 SLOAD DUP1 PUSH2 0x6BE JUMPI PUSH2 0x6BD PUSH2 0x1884 JUMP JUMPDEST JUMPDEST PUSH1 0x1 SWAP1 SUB DUP2 DUP2 SWAP1 PUSH0 MSTORE PUSH1 0x20 PUSH0 KECCAK256 ADD PUSH0 PUSH2 0x6D7 SWAP2 SWAP1 PUSH2 0xC05 JUMP JUMPDEST SWAP1 SSTORE PUSH2 0x6EB JUMP JUMPDEST DUP1 DUP1 PUSH1 0x1 ADD SWAP2 POP POP PUSH2 0x60D JUMP JUMPDEST POP POP JUMP JUMPDEST PUSH0 PUSH1 0x1 DUP1 SLOAD SWAP1 POP SWAP1 POP SWAP1 JUMP JUMPDEST PUSH1 0x60 DUP1 PUSH0 PUSH1 0x60 PUSH0 DUP6 PUSH1 0x40 MLOAD PUSH2 0x710 SWAP2 SWAP1 PUSH2 0x1261 JUMP JUMPDEST SWAP1 DUP2 MSTORE PUSH1 0x20 ADD PUSH1 0x40 MLOAD DUP1 SWAP2 SUB SWAP1 KECCAK256 PUSH1 0x5 ADD PUSH0 SWAP1 SLOAD SWAP1 PUSH2 0x100 EXP SWAP1 DIV PUSH1 0xFF AND PUSH2 0x76D JUMPI PUSH1 0x40 MLOAD PUSH32 0x8C379A000000000000000000000000000000000000000000000000000000000 DUP2 MSTORE PUSH1 0x4 ADD PUSH2 0x764 SWAP1 PUSH2 0x161B JUMP JUMPDEST PUSH1 0x40 MLOAD DUP1 SWAP2 SUB SWAP1 REVERT JUMPDEST PUSH0 PUSH0 DUP7 PUSH1 0x40 MLOAD PUSH2 0x77D SWAP2 SWAP1 PUSH2 0x1261 JUMP JUMPDEST SWAP1 DUP2 MSTORE PUSH1 0x20 ADD PUSH1 0x40 MLOAD DUP1 SWAP2 SUB SWAP1 KECCAK256 PUSH1 0x40 MLOAD DUP1 PUSH1 0xC0 ADD PUSH1 0x40 MSTORE SWAP1 DUP2 PUSH0 DUP3 ADD DUP1 SLOAD PUSH2 0x7A5 SWAP1 PUSH2 0x1332 JUMP JUMPDEST DUP1 PUSH1 0x1F ADD PUSH1 0x20 DUP1 SWAP2 DIV MUL PUSH1 0x20 ADD PUSH1 0x40 MLOAD SWAP1 DUP2 ADD PUSH1 0x40 MSTORE DUP1 SWAP3 SWAP2 SWAP1 DUP2 DUP2 MSTORE PUSH1 0x20 ADD DUP3 DUP1 SLOAD PUSH2 0x7D1 SWAP1 PUSH2 0x1332 JUMP JUMPDEST DUP1 ISZERO PUSH2 0x81C JUMPI DUP1 PUSH1 0x1F LT PUSH2 0x7F3 JUMPI PUSH2 0x100 DUP1 DUP4 SLOAD DIV MUL DUP4 MSTORE SWAP2 PUSH1 0x20 ADD SWAP2 PUSH2 0x81C JUMP JUMPDEST DUP3 ADD SWAP2 SWAP1 PUSH0 MSTORE PUSH1 0x20 PUSH0 KECCAK256 SWAP1 JUMPDEST DUP2 SLOAD DUP2 MSTORE SWAP1 PUSH1 0x1 ADD SWAP1 PUSH1 0x20 ADD DUP1 DUP4 GT PUSH2 0x7FF JUMPI DUP3 SWAP1 SUB PUSH1 0x1F AND DUP3 ADD SWAP2 JUMPDEST POP POP POP POP POP DUP2 MSTORE PUSH1 0x20 ADD PUSH1 0x1 DUP3 ADD DUP1 SLOAD PUSH2 0x835 SWAP1 PUSH2 0x1332 JUMP JUMPDEST DUP1 PUSH1 0x1F ADD PUSH1 0x20 DUP1 SWAP2 DIV MUL PUSH1 0x20 ADD PUSH1 0x40 MLOAD SWAP1 DUP2 ADD PUSH1 0x40 MSTORE DUP1 SWAP3 SWAP2 SWAP1 DUP2 DUP2 MSTORE PUSH1 0x20 ADD DUP3 DUP1 SLOAD PUSH2 0x861 SWAP1 PUSH2 0x1332 JUMP JUMPDEST DUP1 ISZERO PUSH2 0x8AC JUMPI DUP1 PUSH1 0x1F LT PUSH2 0x883 JUMPI PUSH2 0x100 DUP1 DUP4 SLOAD DIV MUL DUP4 MSTORE SWAP2 PUSH1 0x20 ADD SWAP2 PUSH2 0x8AC JUMP JUMPDEST DUP3 ADD SWAP2 SWAP1 PUSH0 MSTORE PUSH1 0x20 PUSH0 KECCAK256 SWAP1 JUMPDEST DUP2 SLOAD DUP2 MSTORE SWAP1 PUSH1 0x1 ADD SWAP1 PUSH1 0x20 ADD DUP1 DUP4 GT PUSH2 0x88F JUMPI DUP3 SWAP1 SUB PUSH1 0x1F AND DUP3 ADD SWAP2 JUMPDEST POP POP POP POP POP DUP2 MSTORE PUSH1 0x20 ADD PUSH1 0x2 DUP3 ADD DUP1 SLOAD PUSH2 0x8C5 SWAP1 PUSH2 0x1332 JUMP JUMPDEST DUP1 PUSH1 0x1F ADD PUSH1 0x20 DUP1 SWAP2 DIV MUL PUSH1 0x20 ADD PUSH1 0x40 MLOAD SWAP1 DUP2 ADD PUSH1 0x40 MSTORE DUP1 SWAP3 SWAP2 SWAP1 DUP2 DUP2 MSTORE PUSH1 0x20 ADD DUP3 DUP1 SLOAD PUSH2 0x8F1 SWAP1 PUSH2 0x1332 JUMP JUMPDEST DUP1 ISZERO PUSH2 0x93C JUMPI DUP1 PUSH1 0x1F LT PUSH2 0x913 JUMPI PUSH2 0x100 DUP1 DUP4 SLOAD DIV MUL DUP4 MSTORE SWAP2 PUSH1 0x20 ADD SWAP2 PUSH2 0x93C JUMP JUMPDEST DUP3 ADD SWAP2 SWAP1 PUSH0 MSTORE PUSH1 0x20 PUSH0 KECCAK256 SWAP1 JUMPDEST DUP2 SLOAD DUP2 MSTORE SWAP1 PUSH1 0x1 ADD SWAP1 PUSH1 0x20 ADD DUP1 DUP4 GT PUSH2 0x91F JUMPI DUP3 SWAP1 SUB PUSH1 0x1F AND DUP3 ADD SWAP2 JUMPDEST POP POP POP POP POP DUP2 MSTORE PUSH1 0x20 ADD PUSH1 0x3 DUP3 ADD SLOAD DUP2 MSTORE PUSH1 0x20 ADD PUSH1 0x4 DUP3 ADD DUP1 SLOAD PUSH2 0x95F SWAP1 PUSH2 0x1332 JUMP JUMPDEST DUP1 PUSH1 0x1F ADD PUSH1 0x20 DUP1 SWAP2 DIV MUL PUSH1 0x20 ADD PUSH1 0x40 MLOAD SWAP1 DUP2 ADD PUSH1 0x40 MSTORE DUP1 SWAP3 SWAP2 SWAP1 DUP2 DUP2 MSTORE PUSH1 0x20 ADD DUP3 DUP1 SLOAD PUSH2 0x98B SWAP1 PUSH2 0x1332 JUMP JUMPDEST DUP1 ISZERO PUSH2 0x9D6 JUMPI DUP1 PUSH1 0x1F LT PUSH2 0x9AD JUMPI PUSH2 0x100 DUP1 DUP4 SLOAD DIV MUL DUP4 MSTORE SWAP2 PUSH1 0x20 ADD SWAP2 PUSH2 0x9D6 JUMP JUMPDEST DUP3 ADD SWAP2 SWAP1 PUSH0 MSTORE PUSH1 0x20 PUSH0 KECCAK256 SWAP1 JUMPDEST DUP2 SLOAD DUP2 MSTORE SWAP1 PUSH1 0x1 ADD SWAP1 PUSH1 0x20 ADD DUP1 DUP4 GT PUSH2 0x9B9 JUMPI DUP3 SWAP1 SUB PUSH1 0x1F AND DUP3 ADD SWAP2 JUMPDEST POP POP POP POP POP DUP2 MSTORE PUSH1 0x20 ADD PUSH1 0x5 DUP3 ADD PUSH0 SWAP1 SLOAD SWAP1 PUSH2 0x100 EXP SWAP1 DIV PUSH1 0xFF AND ISZERO ISZERO ISZERO ISZERO DUP2 MSTORE POP POP SWAP1 POP DUP1 PUSH1 0x20 ADD MLOAD DUP2 PUSH1 0x40 ADD MLOAD DUP3 PUSH1 0x60 ADD MLOAD DUP4 PUSH1 0x80 ADD MLOAD SWAP5 POP SWAP5 POP SWAP5 POP SWAP5 POP POP SWAP2 SWAP4 POP SWAP2 SWAP4 JUMP JUMPDEST PUSH0 PUSH0 DUP3 PUSH1 0x40 MLOAD PUSH2 0xA2F SWAP2 SWAP1 PUSH2 0x1261 JUMP JUMPDEST SWAP1 DUP2 MSTORE PUSH1 0x20 ADD PUSH1 0x40 MLOAD DUP1 SWAP2 SUB SWAP1 KECCAK256 PUSH1 0x5 ADD PUSH0 SWAP1 SLOAD SWAP1 PUSH2 0x100 EXP SWAP1 DIV PUSH1 0xFF AND SWAP1 POP SWAP2 SWAP1 POP JUMP JUMPDEST PUSH1 0x2 PUSH0 SWAP1 SLOAD SWAP1 PUSH2 0x100 EXP SWAP1 DIV PUSH20 0xFFFFFFFFFFFFFFFFFFFFFFFFFFFFFFFFFFFFFFFF AND PUSH20 0xFFFFFFFFFFFFFFFFFFFFFFFFFFFFFFFFFFFFFFFF AND CALLER PUSH20 0xFFFFFFFFFFFFFFFFFFFFFFFFFFFFFFFFFFFFFFFF AND EQ PUSH2 0xAE3 JUMPI PUSH1 0x40 MLOAD PUSH32 0x8C379A000000000000000000000000000000000000000000000000000000000 DUP2 MSTORE PUSH1 0x4 ADD PUSH2 0xADA SWAP1 PUSH2 0x1209 JUMP JUMPDEST PUSH1 0x40 MLOAD DUP1 SWAP2 SUB SWAP1 REVERT JUMPDEST PUSH0 DUP6 PUSH1 0x40 MLOAD PUSH2 0xAF2 SWAP2 SWAP1 PUSH2 0x1261 JUMP JUMPDEST SWAP1 DUP2 MSTORE PUSH1 0x20 ADD PUSH1 0x40 MLOAD DUP1 SWAP2 SUB SWAP1 KECCAK256 PUSH1 0x5 ADD PUSH0 SWAP1 SLOAD SWAP1 PUSH2 0x100 EXP SWAP1 DIV PUSH1 0xFF AND PUSH2 0xB4F JUMPI PUSH1 0x40 MLOAD PUSH32 0x8C379A000000000000000000000000000000000000000000000000000000000 DUP2 MSTORE PUSH1 0x4 ADD PUSH2 0xB46 SWAP1 PUSH2 0x161B JUMP JUMPDEST PUSH1 0x40 MLOAD DUP1 SWAP2 SUB SWAP1 REVERT JUMPDEST DUP4 PUSH0 DUP7 PUSH1 0x40 MLOAD PUSH2 0xB5F SWAP2 SWAP1 PUSH2 0x1261 JUMP JUMPDEST SWAP1 DUP2 MSTORE PUSH1 0x20 ADD PUSH1 0x40 MLOAD DUP1 SWAP2 SUB SWAP1 KECCAK256 PUSH1 0x1 ADD SWAP1 DUP2 PUSH2 0xB7C SWAP2 SWAP1 PUSH2 0x1502 JUMP JUMPDEST POP DUP3 PUSH0 DUP7 PUSH1 0x40 MLOAD PUSH2 0xB8D SWAP2 SWAP1 PUSH2 0x1261 JUMP JUMPDEST SWAP1 DUP2 MSTORE PUSH1 0x20 ADD PUSH1 0x40 MLOAD DUP1 SWAP2 SUB SWAP1 KECCAK256 PUSH1 0x2 ADD SWAP1 DUP2 PUSH2 0xBAA SWAP2 SWAP1 PUSH2 0x1502 JUMP JUMPDEST POP DUP2 PUSH0 DUP7 PUSH1 0x40 MLOAD PUSH2 0xBBB SWAP2 SWAP1 PUSH2 0x1261 JUMP JUMPDEST SWAP1 DUP2 MSTORE PUSH1 0x20 ADD PUSH1 0x40 MLOAD DUP1 SWAP2 SUB SWAP1 KECCAK256 PUSH1 0x3 ADD DUP2 SWAP1 SSTORE POP DUP1 PUSH0 DUP7 PUSH1 0x40 MLOAD PUSH2 0xBE0 SWAP2 SWAP1 PUSH2 0x1261 JUMP JUMPDEST SWAP1 DUP2 MSTORE PUSH1 0x20 ADD PUSH1 0x40 MLOAD DUP1 SWAP2 SUB SWAP1 KECCAK256 PUSH1 0x4 ADD SWAP1 DUP2 PUSH2 0xBFD SWAP2 SWAP1 PUSH2 0x1502 JUMP JUMPDEST POP POP POP POP POP POP JUMP JUMPDEST POP DUP1 SLOAD PUSH2 0xC11 SWAP1 PUSH2 0x1332 JUMP JUMPDEST PUSH0 DUP3 SSTORE DUP1 PUSH1 0x1F LT PUSH2 0xC22 JUMPI POP PUSH2 0xC3F JUMP JUMPDEST PUSH1 0x1F ADD PUSH1 0x20 SWAP1 DIV SWAP1 PUSH0 MSTORE PUSH1 0x20 PUSH0 KECCAK256 SWAP1 DUP2 ADD SWAP1 PUSH2 0xC3E SWAP2 SWAP1 PUSH2 0xC42 JUMP JUMPDEST JUMPDEST POP JUMP JUMPDEST JUMPDEST DUP1 DUP3 GT ISZERO PUSH2 0xC59 JUMPI PUSH0 DUP2 PUSH0 SWAP1 SSTORE POP PUSH1 0x1 ADD PUSH2 0xC43 JUMP JUMPDEST POP SWAP1 JUMP JUMPDEST PUSH0 PUSH1 0x40 MLOAD SWAP1 POP SWAP1 JUMP JUMPDEST PUSH0 PUSH0 REVERT JUMPDEST PUSH0 PUSH0 REVERT JUMPDEST PUSH0 PUSH0 REVERT JUMPDEST PUSH0 PUSH0 REVERT JUMPDEST PUSH0 PUSH1 0x1F NOT PUSH1 0x1F DUP4 ADD AND SWAP1 POP SWAP2 SWAP1 POP JUMP JUMPDEST PUSH32 0x4E487B7100000000000000000000000000000000000000000000000000000000 PUSH0 MSTORE PUSH1 0x41 PUSH1 0x4 MSTORE PUSH1 0x24 PUSH0 REVERT JUMPDEST PUSH2 0xCBC DUP3 PUSH2 0xC76 JUMP JUMPDEST DUP2 ADD DUP2 DUP2 LT PUSH8 0xFFFFFFFFFFFFFFFF DUP3 GT OR ISZERO PUSH2 0xCDB JUMPI PUSH2 0xCDA PUSH2 0xC86 JUMP JUMPDEST JUMPDEST DUP1 PUSH1 0x40 MSTORE POP POP POP JUMP JUMPDEST PUSH0 PUSH2 0xCED PUSH2 0xC5D JUMP JUMPDEST SWAP1 POP PUSH2 0xCF9 DUP3 DUP3 PUSH2 0xCB3 JUMP JUMPDEST SWAP2 SWAP1 POP JUMP JUMPDEST PUSH0 PUSH8 0xFFFFFFFFFFFFFFFF DUP3 GT ISZERO PUSH2 0xD18 JUMPI PUSH2 0xD17 PUSH2 0xC86 JUMP JUMPDEST JUMPDEST PUSH2 0xD21 DUP3 PUSH2 0xC76 JUMP JUMPDEST SWAP1 POP PUSH1 0x20 DUP2 ADD SWAP1 POP SWAP2 SWAP1 POP JUMP JUMPDEST DUP3 DUP2 DUP4 CALLDATACOPY PUSH0 DUP4 DUP4 ADD MSTORE POP POP POP JUMP JUMPDEST PUSH0 PUSH2 0xD4E PUSH2 0xD49 DUP5 PUSH2 0xCFE JUMP JUMPDEST PUSH2 0xCE4 JUMP JUMPDEST SWAP1 POP DUP3 DUP2 MSTORE PUSH1 0x20 DUP2 ADD DUP5 DUP5 DUP5 ADD GT ISZERO PUSH2 0xD6A JUMPI PUSH2 0xD69 PUSH2 0xC72 JUMP JUMPDEST JUMPDEST PUSH2 0xD75 DUP5 DUP3 DUP6 PUSH2 0xD2E JUMP JUMPDEST POP SWAP4 SWAP3 POP POP POP JUMP JUMPDEST PUSH0 DUP3 PUSH1 0x1F DUP4 ADD SLT PUSH2 0xD91 JUMPI PUSH2 0xD90 PUSH2 0xC6E JUMP JUMPDEST JUMPDEST DUP2 CALLDATALOAD PUSH2 0xDA1 DUP5 DUP3 PUSH1 0x20 DUP7 ADD PUSH2 0xD3C JUMP JUMPDEST SWAP2 POP POP SWAP3 SWAP2 POP POP JUMP JUMPDEST PUSH0 DUP2 SWAP1 POP SWAP2 SWAP1 POP JUMP JUMPDEST PUSH2 0xDBC DUP2 PUSH2 0xDAA JUMP JUMPDEST DUP2 EQ PUSH2 0xDC6 JUMPI PUSH0 PUSH0 REVERT JUMPDEST POP JUMP JUMPDEST PUSH0 DUP2 CALLDATALOAD SWAP1 POP PUSH2 0xDD7 DUP2 PUSH2 0xDB3 JUMP JUMPDEST SWAP3 SWAP2 POP POP JUMP JUMPDEST PUSH0 PUSH0 PUSH0 PUSH0 PUSH0 PUSH1 0xA0 DUP7 DUP9 SUB SLT ISZERO PUSH2 0xDF6 JUMPI PUSH2 0xDF5 PUSH2 0xC66 JUMP JUMPDEST JUMPDEST PUSH0 DUP7 ADD CALLDATALOAD PUSH8 0xFFFFFFFFFFFFFFFF DUP2 GT ISZERO PUSH2 0xE13 JUMPI PUSH2 0xE12 PUSH2 0xC6A JUMP JUMPDEST JUMPDEST PUSH2 0xE1F DUP9 DUP3 DUP10 ADD PUSH2 0xD7D JUMP JUMPDEST SWAP6 POP POP PUSH1 0x20 DUP7 ADD CALLDATALOAD PUSH8 0xFFFFFFFFFFFFFFFF DUP2 GT ISZERO PUSH2 0xE40 JUMPI PUSH2 0xE3F PUSH2 0xC6A JUMP JUMPDEST JUMPDEST PUSH2 0xE4C DUP9 DUP3 DUP10 ADD PUSH2 0xD7D JUMP JUMPDEST SWAP5 POP POP PUSH1 0x40 DUP7 ADD CALLDATALOAD PUSH8 0xFFFFFFFFFFFFFFFF DUP2 GT ISZERO PUSH2 0xE6D JUMPI PUSH2 0xE6C PUSH2 0xC6A JUMP JUMPDEST JUMPDEST PUSH2 0xE79 DUP9 DUP3 DUP10 ADD PUSH2 0xD7D JUMP JUMPDEST SWAP4 POP POP PUSH1 0x60 PUSH2 0xE8A DUP9 DUP3 DUP10 ADD PUSH2 0xDC9 JUMP JUMPDEST SWAP3 POP POP PUSH1 0x80 DUP7 ADD CALLDATALOAD PUSH8 0xFFFFFFFFFFFFFFFF DUP2 GT ISZERO PUSH2 0xEAB JUMPI PUSH2 0xEAA PUSH2 0xC6A JUMP JUMPDEST JUMPDEST PUSH2 0xEB7 DUP9 DUP3 DUP10 ADD PUSH2 0xD7D JUMP JUMPDEST SWAP2 POP POP SWAP3 SWAP6 POP SWAP3 SWAP6 SWAP1 SWAP4 POP JUMP JUMPDEST PUSH0 DUP2 MLOAD SWAP1 POP SWAP2 SWAP1 POP JUMP JUMPDEST PUSH0 DUP3 DUP3 MSTORE PUSH1 0x20 DUP3 ADD SWAP1 POP SWAP3 SWAP2 POP POP JUMP JUMPDEST PUSH0 DUP2 SWAP1 POP PUSH1 0x20 DUP3 ADD SWAP1 POP SWAP2 SWAP1 POP JUMP JUMPDEST PUSH0 DUP2 MLOAD SWAP1 POP SWAP2 SWAP1 POP JUMP JUMPDEST PUSH0 DUP3 DUP3 MSTORE PUSH1 0x20 DUP3 ADD SWAP1 POP SWAP3 SWAP2 POP POP JUMP JUMPDEST DUP3 DUP2 DUP4 MCOPY PUSH0 DUP4 DUP4 ADD MSTORE POP POP POP JUMP JUMPDEST PUSH0 PUSH2 0xF1F DUP3 PUSH2 0xEED JUMP JUMPDEST PUSH2 0xF29 DUP2 DUP6 PUSH2 0xEF7 JUMP JUMPDEST SWAP4 POP PUSH2 0xF39 DUP2 DUP6 PUSH1 0x20 DUP7 ADD PUSH2 0xF07 JUMP JUMPDEST PUSH2 0xF42 DUP2 PUSH2 0xC76 JUMP JUMPDEST DUP5 ADD SWAP2 POP POP SWAP3 SWAP2 POP POP JUMP JUMPDEST PUSH0 PUSH2 0xF58 DUP4 DUP4 PUSH2 0xF15 JUMP JUMPDEST SWAP1 POP SWAP3 SWAP2 POP POP JUMP JUMPDEST PUSH0 PUSH1 0x20 DUP3 ADD SWAP1 POP SWAP2 SWAP1 POP JUMP JUMPDEST PUSH0 PUSH2 0xF76 DUP3 PUSH2 0xEC4 JUMP JUMPDEST PUSH2 0xF80 DUP2 DUP6 PUSH2 0xECE JUMP JUMPDEST SWAP4 POP DUP4 PUSH1 0x20 DUP3 MUL DUP6 ADD PUSH2 0xF92 DUP6 PUSH2 0xEDE JUMP JUMPDEST DUP1 PUSH0 JUMPDEST DUP6 DUP2 LT ISZERO PUSH2 0xFCD JUMPI DUP5 DUP5 SUB DUP10 MSTORE DUP2 MLOAD PUSH2 0xFAE DUP6 DUP3 PUSH2 0xF4D JUMP JUMPDEST SWAP5 POP PUSH2 0xFB9 DUP4 PUSH2 0xF60 JUMP JUMPDEST SWAP3 POP PUSH1 0x20 DUP11 ADD SWAP10 POP POP PUSH1 0x1 DUP2 ADD SWAP1 POP PUSH2 0xF95 JUMP JUMPDEST POP DUP3 SWAP8 POP DUP8 SWAP6 POP POP POP POP POP POP SWAP3 SWAP2 POP POP JUMP JUMPDEST PUSH0 PUSH1 0x20 DUP3 ADD SWAP1 POP DUP2 DUP2 SUB PUSH0 DUP4 ADD MSTORE PUSH2 0xFF7 DUP2 DUP5 PUSH2 0xF6C JUMP JUMPDEST SWAP1 POP SWAP3 SWAP2 POP POP JUMP JUMPDEST PUSH0 PUSH20 0xFFFFFFFFFFFFFFFFFFFFFFFFFFFFFFFFFFFFFFFF DUP3 AND SWAP1 POP SWAP2 SWAP1 POP JUMP JUMPDEST PUSH0 PUSH2 0x1028 DUP3 PUSH2 0xFFF JUMP JUMPDEST SWAP1 POP SWAP2 SWAP1 POP JUMP JUMPDEST PUSH2 0x1038 DUP2 PUSH2 0x101E JUMP JUMPDEST DUP3 MSTORE POP POP JUMP JUMPDEST PUSH0 PUSH1 0x20 DUP3 ADD SWAP1 POP PUSH2 0x1051 PUSH0 DUP4 ADD DUP5 PUSH2 0x102F JUMP JUMPDEST SWAP3 SWAP2 POP POP JUMP JUMPDEST PUSH0 PUSH1 0x20 DUP3 DUP5 SUB SLT ISZERO PUSH2 0x106C JUMPI PUSH2 0x106B PUSH2 0xC66 JUMP JUMPDEST JUMPDEST PUSH0 DUP3 ADD CALLDATALOAD PUSH8 0xFFFFFFFFFFFFFFFF DUP2 GT ISZERO PUSH2 0x1089 JUMPI PUSH2 0x1088 PUSH2 0xC6A JUMP JUMPDEST JUMPDEST PUSH2 0x1095 DUP5 DUP3 DUP6 ADD PUSH2 0xD7D JUMP JUMPDEST SWAP2 POP POP SWAP3 SWAP2 POP POP JUMP JUMPDEST PUSH2 0x10A7 DUP2 PUSH2 0xDAA JUMP JUMPDEST DUP3 MSTORE POP POP JUMP JUMPDEST PUSH0 PUSH1 0x20 DUP3 ADD SWAP1 POP PUSH2 0x10C0 PUSH0 DUP4 ADD DUP5 PUSH2 0x109E JUMP JUMPDEST SWAP3 SWAP2 POP POP JUMP JUMPDEST PUSH0 DUP3 DUP3 MSTORE PUSH1 0x20 DUP3 ADD SWAP1 POP SWAP3 SWAP2 POP POP JUMP JUMPDEST PUSH0 PUSH2 0x10E0 DUP3 PUSH2 0xEED JUMP JUMPDEST PUSH2 0x10EA DUP2 DUP6 PUSH2 0x10C6 JUMP JUMPDEST SWAP4 POP PUSH2 0x10FA DUP2 DUP6 PUSH1 0x20 DUP7 ADD PUSH2 0xF07 JUMP JUMPDEST PUSH2 0x1103 DUP2 PUSH2 0xC76 JUMP JUMPDEST DUP5 ADD SWAP2 POP POP SWAP3 SWAP2 POP POP JUMP JUMPDEST PUSH0 PUSH1 0x80 DUP3 ADD SWAP1 POP DUP2 DUP2 SUB PUSH0 DUP4 ADD MSTORE PUSH2 0x1126 DUP2 DUP8 PUSH2 0x10D6 JUMP JUMPDEST SWAP1 POP DUP2 DUP2 SUB PUSH1 0x20 DUP4 ADD MSTORE PUSH2 0x113A DUP2 DUP7 PUSH2 0x10D6 JUMP JUMPDEST SWAP1 POP PUSH2 0x1149 PUSH1 0x40 DUP4 ADD DUP6 PUSH2 0x109E JUMP JUMPDEST DUP2 DUP2 SUB PUSH1 0x60 DUP4 ADD MSTORE PUSH2 0x115B DUP2 DUP5 PUSH2 0x10D6 JUMP JUMPDEST SWAP1 POP SWAP6 SWAP5 POP POP POP POP POP JUMP JUMPDEST PUSH0 DUP2 ISZERO ISZERO SWAP1 POP SWAP2 SWAP1 POP JUMP JUMPDEST PUSH2 0x117A DUP2 PUSH2 0x1166 JUMP JUMPDEST DUP3 MSTORE POP POP JUMP JUMPDEST PUSH0 PUSH1 0x20 DUP3 ADD SWAP1 POP PUSH2 0x1193 PUSH0 DUP4 ADD DUP5 PUSH2 0x1171 JUMP JUMPDEST SWAP3 SWAP2 POP POP JUMP JUMPDEST PUSH32 0x536F6C6F20656C2061646D696E6973747261646F7220707565646520656A6563 PUSH0 DUP3 ADD MSTORE PUSH32 0x7574617220657374612066756E63696F6E000000000000000000000000000000 PUSH1 0x20 DUP3 ADD MSTORE POP JUMP JUMPDEST PUSH0 PUSH2 0x11F3 PUSH1 0x31 DUP4 PUSH2 0x10C6 JUMP JUMPDEST SWAP2 POP PUSH2 0x11FE DUP3 PUSH2 0x1199 JUMP JUMPDEST PUSH1 0x40 DUP3 ADD SWAP1 POP SWAP2 SWAP1 POP JUMP JUMPDEST PUSH0 PUSH1 0x20 DUP3 ADD SWAP1 POP DUP2 DUP2 SUB PUSH0 DUP4 ADD MSTORE PUSH2 0x1220 DUP2 PUSH2 0x11E7 JUMP JUMPDEST SWAP1 POP SWAP2 SWAP1 POP JUMP JUMPDEST PUSH0 DUP2 SWAP1 POP SWAP3 SWAP2 POP POP JUMP JUMPDEST PUSH0 PUSH2 0x123B DUP3 PUSH2 0xEED JUMP JUMPDEST PUSH2 0x1245 DUP2 DUP6 PUSH2 0x1227 JUMP JUMPDEST SWAP4 POP PUSH2 0x1255 DUP2 DUP6 PUSH1 0x20 DUP7 ADD PUSH2 0xF07 JUMP JUMPDEST DUP1 DUP5 ADD SWAP2 POP POP SWAP3 SWAP2 POP POP JUMP JUMPDEST PUSH0 PUSH2 0x126C DUP3 DUP5 PUSH2 0x1231 JUMP JUMPDEST SWAP2 POP DUP2 SWAP1 POP SWAP3 SWAP2 POP POP JUMP JUMPDEST PUSH32 0x456C2063616E64696461746F2079612065786973746520636F6E206573746120 PUSH0 DUP3 ADD MSTORE PUSH32 0x636564756C610000000000000000000000000000000000000000000000000000 PUSH1 0x20 DUP3 ADD MSTORE POP JUMP JUMPDEST PUSH0 PUSH2 0x12D1 PUSH1 0x26 DUP4 PUSH2 0x10C6 JUMP JUMPDEST SWAP2 POP PUSH2 0x12DC DUP3 PUSH2 0x1277 JUMP JUMPDEST PUSH1 0x40 DUP3 ADD SWAP1 POP SWAP2 SWAP1 POP JUMP JUMPDEST PUSH0 PUSH1 0x20 DUP3 ADD SWAP1 POP DUP2 DUP2 SUB PUSH0 DUP4 ADD MSTORE PUSH2 0x12FE DUP2 PUSH2 0x12C5 JUMP JUMPDEST SWAP1 POP SWAP2 SWAP1 POP JUMP JUMPDEST PUSH32 0x4E487B7100000000000000000000000000000000000000000000000000000000 PUSH0 MSTORE PUSH1 0x22 PUSH1 0x4 MSTORE PUSH1 0x24 PUSH0 REVERT JUMPDEST PUSH0 PUSH1 0x2 DUP3 DIV SWAP1 POP PUSH1 0x1 DUP3 AND DUP1 PUSH2 0x1349 JUMPI PUSH1 0x7F DUP3 AND SWAP2 POP JUMPDEST PUSH1 0x20 DUP3 LT DUP2 SUB PUSH2 0x135C JUMPI PUSH2 0x135B PUSH2 0x1305 JUMP JUMPDEST JUMPDEST POP SWAP2 SWAP1 POP JUMP JUMPDEST PUSH0 DUP2 SWAP1 POP DUP2 PUSH0 MSTORE PUSH1 0x20 PUSH0 KECCAK256 SWAP1 POP SWAP2 SWAP1 POP JUMP JUMPDEST PUSH0 PUSH1 0x20 PUSH1 0x1F DUP4 ADD DIV SWAP1 POP SWAP2 SWAP1 POP JUMP JUMPDEST PUSH0 DUP3 DUP3 SHL SWAP1 POP SWAP3 SWAP2 POP POP JUMP JUMPDEST PUSH0 PUSH1 0x8 DUP4 MUL PUSH2 0x13BE PUSH32 0xFFFFFFFFFFFFFFFFFFFFFFFFFFFFFFFFFFFFFFFFFFFFFFFFFFFFFFFFFFFFFFFF DUP3 PUSH2 0x1383 JUMP JUMPDEST PUSH2 0x13C8 DUP7 DUP4 PUSH2 0x1383 JUMP JUMPDEST SWAP6 POP DUP1 NOT DUP5 AND SWAP4 POP DUP1 DUP7 AND DUP5 OR SWAP3 POP POP POP SWAP4 SWAP3 POP POP POP JUMP JUMPDEST PUSH0 DUP2 SWAP1 POP SWAP2 SWAP1 POP JUMP JUMPDEST PUSH0 PUSH2 0x1403 PUSH2 0x13FE PUSH2 0x13F9 DUP5 PUSH2 0xDAA JUMP JUMPDEST PUSH2 0x13E0 JUMP JUMPDEST PUSH2 0xDAA JUMP JUMPDEST SWAP1 POP SWAP2 SWAP1 POP JUMP JUMPDEST PUSH0 DUP2 SWAP1 POP SWAP2 SWAP1 POP JUMP JUMPDEST PUSH2 0x141C DUP4 PUSH2 0x13E9 JUMP JUMPDEST PUSH2 0x1430 PUSH2 0x1428 DUP3 PUSH2 0x140A JUMP JUMPDEST DUP5 DUP5 SLOAD PUSH2 0x138F JUMP JUMPDEST DUP3 SSTORE POP POP POP POP JUMP JUMPDEST PUSH0 PUSH0 SWAP1 POP SWAP1 JUMP JUMPDEST PUSH2 0x1447 PUSH2 0x1438 JUMP JUMPDEST PUSH2 0x1452 DUP2 DUP5 DUP5 PUSH2 0x1413 JUMP JUMPDEST POP POP POP JUMP JUMPDEST JUMPDEST DUP2 DUP2 LT ISZERO PUSH2 0x1475 JUMPI PUSH2 0x146A PUSH0 DUP3 PUSH2 0x143F JUMP JUMPDEST PUSH1 0x1 DUP2 ADD SWAP1 POP PUSH2 0x1458 JUMP JUMPDEST POP POP JUMP JUMPDEST PUSH1 0x1F DUP3 GT ISZERO PUSH2 0x14BA JUMPI PUSH2 0x148B DUP2 PUSH2 0x1362 JUMP JUMPDEST PUSH2 0x1494 DUP5 PUSH2 0x1374 JUMP JUMPDEST DUP2 ADD PUSH1 0x20 DUP6 LT ISZERO PUSH2 0x14A3 JUMPI DUP2 SWAP1 POP JUMPDEST PUSH2 0x14B7 PUSH2 0x14AF DUP6 PUSH2 0x1374 JUMP JUMPDEST DUP4 ADD DUP3 PUSH2 0x1457 JUMP JUMPDEST POP POP JUMPDEST POP POP POP JUMP JUMPDEST PUSH0 DUP3 DUP3 SHR SWAP1 POP SWAP3 SWAP2 POP POP JUMP JUMPDEST PUSH0 PUSH2 0x14DA PUSH0 NOT DUP5 PUSH1 0x8 MUL PUSH2 0x14BF JUMP JUMPDEST NOT DUP1 DUP4 AND SWAP2 POP POP SWAP3 SWAP2 POP POP JUMP JUMPDEST PUSH0 PUSH2 0x14F2 DUP4 DUP4 PUSH2 0x14CB JUMP JUMPDEST SWAP2 POP DUP3 PUSH1 0x2 MUL DUP3 OR SWAP1 POP SWAP3 SWAP2 POP POP JUMP JUMPDEST PUSH2 0x150B DUP3 PUSH2 0xEED JUMP JUMPDEST PUSH8 0xFFFFFFFFFFFFFFFF DUP2 GT ISZERO PUSH2 0x1524 JUMPI PUSH2 0x1523 PUSH2 0xC86 JUMP JUMPDEST JUMPDEST PUSH2 0x152E DUP3 SLOAD PUSH2 0x1332 JUMP JUMPDEST PUSH2 0x1539 DUP3 DUP3 DUP6 PUSH2 0x1479 JUMP JUMPDEST PUSH0 PUSH1 0x20 SWAP1 POP PUSH1 0x1F DUP4 GT PUSH1 0x1 DUP2 EQ PUSH2 0x156A JUMPI PUSH0 DUP5 ISZERO PUSH2 0x1558 JUMPI DUP3 DUP8 ADD MLOAD SWAP1 POP JUMPDEST PUSH2 0x1562 DUP6 DUP3 PUSH2 0x14E7 JUMP JUMPDEST DUP7 SSTORE POP PUSH2 0x15C9 JUMP JUMPDEST PUSH1 0x1F NOT DUP5 AND PUSH2 0x1578 DUP7 PUSH2 0x1362 JUMP JUMPDEST PUSH0 JUMPDEST DUP3 DUP2 LT ISZERO PUSH2 0x159F JUMPI DUP5 DUP10 ADD MLOAD DUP3 SSTORE PUSH1 0x1 DUP3 ADD SWAP2 POP PUSH1 0x20 DUP6 ADD SWAP5 POP PUSH1 0x20 DUP2 ADD SWAP1 POP PUSH2 0x157A JUMP JUMPDEST DUP7 DUP4 LT ISZERO PUSH2 0x15BC JUMPI DUP5 DUP10 ADD MLOAD PUSH2 0x15B8 PUSH1 0x1F DUP10 AND DUP3 PUSH2 0x14CB JUMP JUMPDEST DUP4 SSTORE POP JUMPDEST PUSH1 0x1 PUSH1 0x2 DUP9 MUL ADD DUP9 SSTORE POP POP POP JUMPDEST POP POP POP POP POP POP JUMP JUMPDEST PUSH32 0x43616E64696461746F206E6F20656E636F6E747261646F000000000000000000 PUSH0 DUP3 ADD MSTORE POP JUMP JUMPDEST PUSH0 PUSH2 0x1605 PUSH1 0x17 DUP4 PUSH2 0x10C6 JUMP JUMPDEST SWAP2 POP PUSH2 0x1610 DUP3 PUSH2 0x15D1 JUMP JUMPDEST PUSH1 0x20 DUP3 ADD SWAP1 POP SWAP2 SWAP1 POP JUMP JUMPDEST PUSH0 PUSH1 0x20 DUP3 ADD SWAP1 POP DUP2 DUP2 SUB PUSH0 DUP4 ADD MSTORE PUSH2 0x1632 DUP2 PUSH2 0x15F9 JUMP JUMPDEST SWAP1 POP SWAP2 SWAP1 POP JUMP JUMPDEST PUSH32 0x4E487B7100000000000000000000000000000000000000000000000000000000 PUSH0 MSTORE PUSH1 0x32 PUSH1 0x4 MSTORE PUSH1 0x24 PUSH0 REVERT JUMPDEST PUSH0 DUP2 SWAP1 POP SWAP3 SWAP2 POP POP JUMP JUMPDEST PUSH0 DUP2 SWAP1 POP DUP2 PUSH0 MSTORE PUSH1 0x20 PUSH0 KECCAK256 SWAP1 POP SWAP2 SWAP1 POP JUMP JUMPDEST PUSH0 DUP2 SLOAD PUSH2 0x168E DUP2 PUSH2 0x1332 JUMP JUMPDEST PUSH2 0x1698 DUP2 DUP7 PUSH2 0x1666 JUMP JUMPDEST SWAP5 POP PUSH1 0x1 DUP3 AND PUSH0 DUP2 EQ PUSH2 0x16B2 JUMPI PUSH1 0x1 DUP2 EQ PUSH2 0x16C7 JUMPI PUSH2 0x16F9 JUMP JUMPDEST PUSH1 0xFF NOT DUP4 AND DUP7 MSTORE DUP2 ISZERO ISZERO DUP3 MUL DUP7 ADD SWAP4 POP PUSH2 0x16F9 JUMP JUMPDEST PUSH2 0x16D0 DUP6 PUSH2 0x1670 JUMP JUMPDEST PUSH0 JUMPDEST DUP4 DUP2 LT ISZERO PUSH2 0x16F1 JUMPI DUP2 SLOAD DUP2 DUP10 ADD MSTORE PUSH1 0x1 DUP3 ADD SWAP2 POP PUSH1 0x20 DUP2 ADD SWAP1 POP PUSH2 0x16D2 JUMP JUMPDEST DUP4 DUP9 ADD SWAP6 POP POP POP JUMPDEST POP POP POP SWAP3 SWAP2 POP POP JUMP JUMPDEST PUSH0 PUSH2 0x170D DUP3 DUP5 PUSH2 0x1682 JUMP JUMPDEST SWAP2 POP DUP2 SWAP1 POP SWAP3 SWAP2 POP POP JUMP JUMPDEST PUSH32 0x4E487B7100000000000000000000000000000000000000000000000000000000 PUSH0 MSTORE PUSH1 0x11 PUSH1 0x4 MSTORE PUSH1 0x24 PUSH0 REVERT JUMPDEST PUSH0 PUSH2 0x174F DUP3 PUSH2 0xDAA JUMP JUMPDEST SWAP2 POP PUSH2 0x175A DUP4 PUSH2 0xDAA JUMP JUMPDEST SWAP3 POP DUP3 DUP3 SUB SWAP1 POP DUP2 DUP2 GT ISZERO PUSH2 0x1772 JUMPI PUSH2 0x1771 PUSH2 0x1718 JUMP JUMPDEST JUMPDEST SWAP3 SWAP2 POP POP JUMP JUMPDEST PUSH0 DUP2 SLOAD SWAP1 POP PUSH2 0x1786 DUP2 PUSH2 0x1332 JUMP JUMPDEST SWAP1 POP SWAP2 SWAP1 POP JUMP JUMPDEST PUSH0 DUP2 SWAP1 POP DUP2 PUSH0 MSTORE PUSH1 0x20 PUSH0 KECCAK256 SWAP1 POP SWAP2 SWAP1 POP JUMP JUMPDEST DUP2 DUP2 SUB PUSH2 0x17AD JUMPI POP POP PUSH2 0x1882 JUMP JUMPDEST PUSH2 0x17B6 DUP3 PUSH2 0x1778 JUMP JUMPDEST PUSH8 0xFFFFFFFFFFFFFFFF DUP2 GT ISZERO PUSH2 0x17CF JUMPI PUSH2 0x17CE PUSH2 0xC86 JUMP JUMPDEST JUMPDEST PUSH2 0x17D9 DUP3 SLOAD PUSH2 0x1332 JUMP JUMPDEST PUSH2 0x17E4 DUP3 DUP3 DUP6 PUSH2 0x1479 JUMP JUMPDEST PUSH0 PUSH1 0x1F DUP4 GT PUSH1 0x1 DUP2 EQ PUSH2 0x1811 JUMPI PUSH0 DUP5 ISZERO PUSH2 0x17FF JUMPI DUP3 DUP8 ADD SLOAD SWAP1 POP JUMPDEST PUSH2 0x1809 DUP6 DUP3 PUSH2 0x14E7 JUMP JUMPDEST DUP7 SSTORE POP PUSH2 0x187B JUMP JUMPDEST PUSH1 0x1F NOT DUP5 AND PUSH2 0x181F DUP8 PUSH2 0x178D JUMP JUMPDEST SWAP7 POP PUSH2 0x182A DUP7 PUSH2 0x1362 JUMP JUMPDEST PUSH0 JUMPDEST DUP3 DUP2 LT ISZERO PUSH2 0x1851 JUMPI DUP5 DUP10 ADD SLOAD DUP3 SSTORE PUSH1 0x1 DUP3 ADD SWAP2 POP PUSH1 0x1 DUP6 ADD SWAP5 POP PUSH1 0x20 DUP2 ADD SWAP1 POP PUSH2 0x182C JUMP JUMPDEST DUP7 DUP4 LT ISZERO PUSH2 0x186E JUMPI DUP5 DUP10 ADD SLOAD PUSH2 0x186A PUSH1 0x1F DUP10 AND DUP3 PUSH2 0x14CB JUMP JUMPDEST DUP4 SSTORE POP JUMPDEST PUSH1 0x1 PUSH1 0x2 DUP9 MUL ADD DUP9 SSTORE POP POP POP JUMPDEST POP POP POP POP POP POP JUMPDEST JUMP JUMPDEST PUSH32 0x4E487B7100000000000000000000000000000000000000000000000000000000 PUSH0 MSTORE PUSH1 0x31 PUSH1 0x4 MSTORE PUSH1 0x24 PUSH0 REVERT INVALID LOG2 PUSH5 0x6970667358 0x22 SLT KECCAK256 0xAC MOD OR BYTE PUSH16 0xF264CBAE2E2A14FBBA09BE8F9517500E JUMPDEST PC 0xD KECCAK256 0x27 PREVRANDAO 0x25 DELEGATECALL DUP11 RJUMP 0xE064 PUSH20 0x6F6C634300081E00330000000000000000000000 "
				},
				"gasEstimates": {
					"creation": {
						"codeDepositCost": "1275000",
						"executionCost": "25592",
						"totalCost": "1300592"
					},
					"external": {
						"administrador()": "2553",
						"candidatoExiste(string)": "infinite",
						"crearCandidato(string,string,string,uint256,string)": "infinite",
						"editarCandidato(string,string,string,uint256,string)": "infinite",
						"eliminarCandidato(string)": "infinite",
						"obtenerTodasLasCedulas()": "infinite",
						"totalCandidatos()": "2440",
						"verCandidato(string)": "infinite"
					}
				},
				"methodIdentifiers": {
					"administrador()": "7062b97d",
					"candidatoExiste(string)": "bf89035b",
					"crearCandidato(string,string,string,uint256,string)": "503af877",
					"editarCandidato(string,string,string,uint256,string)": "f2b2cc9d",
					"eliminarCandidato(string)": "a4fe6a0a",
					"obtenerTodasLasCedulas()": "512aad4d",
					"totalCandidatos()": "bc83abde",
					"verCandidato(string)": "bc9cd835"
				}
			},
			"storageLayout": {
				"storage": [
					{
						"astId": 19,
						"contract": "contracts/Candidatos_Electorales.sol:RegistroCandidatos",
						"label": "candidatos",
						"offset": 0,
						"slot": "0",
						"type": "t_mapping(t_string_memory_ptr,t_struct(Candidato)14_storage)"
					},
					{
						"astId": 22,
						"contract": "contracts/Candidatos_Electorales.sol:RegistroCandidatos",
						"label": "listaCedulas",
						"offset": 0,
						"slot": "1",
						"type": "t_array(t_string_storage)dyn_storage"
					},
					{
						"astId": 24,
						"contract": "contracts/Candidatos_Electorales.sol:RegistroCandidatos",
						"label": "administrador",
						"offset": 0,
						"slot": "2",
						"type": "t_address"
					}
				],
				"types": {
					"t_address": {
						"encoding": "inplace",
						"label": "address",
						"numberOfBytes": "20"
					},
					"t_array(t_string_storage)dyn_storage": {
						"base": "t_string_storage",
						"encoding": "dynamic_array",
						"label": "string[]",
						"numberOfBytes": "32"
					},
					"t_bool": {
						"encoding": "inplace",
						"label": "bool",
						"numberOfBytes": "1"
					},
					"t_mapping(t_string_memory_ptr,t_struct(Candidato)14_storage)": {
						"encoding": "mapping",
						"key": "t_string_memory_ptr",
						"label": "mapping(string => struct RegistroCandidatos.Candidato)",
						"numberOfBytes": "32",
						"value": "t_struct(Candidato)14_storage"
					},
					"t_string_memory_ptr": {
						"encoding": "bytes",
						"label": "string",
						"numberOfBytes": "32"
					},
					"t_string_storage": {
						"encoding": "bytes",
						"label": "string",
						"numberOfBytes": "32"
					},
					"t_struct(Candidato)14_storage": {
						"encoding": "inplace",
						"label": "struct RegistroCandidatos.Candidato",
						"members": [
							{
								"astId": 3,
								"contract": "contracts/Candidatos_Electorales.sol:RegistroCandidatos",
								"label": "cedula",
								"offset": 0,
								"slot": "0",
								"type": "t_string_storage"
							},
							{
								"astId": 5,
								"contract": "contracts/Candidatos_Electorales.sol:RegistroCandidatos",
								"label": "nombre",
								"offset": 0,
								"slot": "1",
								"type": "t_string_storage"
							},
							{
								"astId": 7,
								"contract": "contracts/Candidatos_Electorales.sol:RegistroCandidatos",
								"label": "partido",
								"offset": 0,
								"slot": "2",
								"type": "t_string_storage"
							},
							{
								"astId": 9,
								"contract": "contracts/Candidatos_Electorales.sol:RegistroCandidatos",
								"label": "edad",
								"offset": 0,
								"slot": "3",
								"type": "t_uint256"
							},
							{
								"astId": 11,
								"contract": "contracts/Candidatos_Electorales.sol:RegistroCandidatos",
								"label": "propuesta",
								"offset": 0,
								"slot": "4",
								"type": "t_string_storage"
							},
							{
								"astId": 13,
								"contract": "contracts/Candidatos_Electorales.sol:RegistroCandidatos",
								"label": "existe",
								"offset": 0,
								"slot": "5",
								"type": "t_bool"
							}
						],
						"numberOfBytes": "192"
					},
					"t_uint256": {
						"encoding": "inplace",
						"label": "uint256",
						"numberOfBytes": "32"
					}
				}
			},
			"userdoc": {
				"kind": "user",
				"methods": {},
				"version": 1
			}
		}
	}
}