{
	"contracts/LibroDeFirmas.sol": {
		"LibroDeFirmas": {
			"abi": [
				{
					"anonymous": false,
					"inputs": [
						{
							"indexed": true,
							"internalType": "address",
							"name": "firmante",
							"type": "address"
						},
						{
							"indexed": false,
							"internalType": "string",
							"name": "Texto_firma",
							"type": "string"
						},
						{
							"indexed": false,
							"internalType": "uint256",
							"name": "fecha",
							"type": "uint256"
						},
						{
							"indexed": false,
							"internalType": "bytes32",
							"name": "hash_firma",
							"type": "bytes32"
						}
					],
					"name": "NuevaFirma",
					"type": "event"
				},
				{
					"inputs": [
						{
							"internalType": "bytes32",
							"name": "_hash_firma",
							"type": "bytes32"
						}
					],
					"name": "buscarFirmaPorHash",
					"outputs": [
						{
							"internalType": "address",
							"name": "firmante",
							"type": "address"
						},
						{
							"internalType": "string",
							"name": "Texto_firma",
							"type": "string"
						},
						{
							"internalType": "uint256",
							"name": "fecha",
							"type": "uint256"
						},
						{
							"internalType": "bytes32",
							"name": "hash",
							"type": "bytes32"
						}
					],
					"stateMutability": "view",
					"type": "function"
				},
				{
					"inputs": [
						{
							"internalType": "string",
							"name": "_Texto_firma",
							"type": "string"
						}
					],
					"name": "buscarFirmasPorTexto",
					"outputs": [
						{
							"components": [
								{
									"internalType": "address",
									"name": "firmante",
									"type": "address"
								},
								{
									"internalType": "string",
									"name": "Texto_firma",
									"type": "string"
								},
								{
									"internalType": "uint256",
									"name": "fecha",
									"type": "uint256"
								},
								{
									"internalType": "bytes32",
									"name": "hash_firma",
									"type": "bytes32"
								}
							],
							"internalType": "struct LibroDeFirmas.Firma[]",
							"name": "resultados",
							"type": "tuple[]"
						}
					],
					"stateMutability": "view",
					"type": "function"
				},
				{
					"inputs": [
						{
							"internalType": "string",
							"name": "_Texto_firma",
							"type": "string"
						}
					],
					"name": "firmar",
					"outputs": [],
					"stateMutability": "nonpayable",
					"type": "function"
				},
				{
					"inputs": [
						{
							"internalType": "uint256",
							"name": "",
							"type": "uint256"
						}
					],
					"name": "firmas",
					"outputs": [
						{
							"internalType": "address",
							"name": "firmante",
							"type": "address"
						},
						{
							"internalType": "string",
							"name": "Texto_firma",
							"type": "string"
						},
						{
							"internalType": "uint256",
							"name": "fecha",
							"type": "uint256"
						},
						{
							"internalType": "bytes32",
							"name": "hash_firma",
							"type": "bytes32"
						}
					],
					"stateMutability": "view",
					"type": "function"
				},
				{
					"inputs": [
						{
							"internalType": "string",
							"name": "_Texto_firma",
							"type": "string"
						},
						{
							"internalType": "uint256",
							"name": "_fecha",
							"type": "uint256"
						}
					],
					"name": "generarHashLibro",
					"outputs": [
						{
							"internalType": "bytes32",
							"name": "",
							"type": "bytes32"
						}
					],
					"stateMutability": "pure",
					"type": "function"
				},
				{
					"inputs": [
						{
							"internalType": "bytes32",
							"name": "",
							"type": "bytes32"
						}
					],
					"name": "indicePorHashLibro",
					"outputs": [
						{
							"internalType": "uint256",
							"name": "",
							"type": "uint256"
						}
					],
					"stateMutability": "view",
					"type": "function"
				},
				{
					"inputs": [
						{
							"internalType": "string",
							"name": "",
							"type": "string"
						},
						{
							"internalType": "uint256",
							"name": "",
							"type": "uint256"
						}
					],
					"name": "indicesPorTextoFirma",
					"outputs": [
						{
							"internalType": "uint256",
							"name": "",
							"type": "uint256"
						}
					],
					"stateMutability": "view",
					"type": "function"
				},
				{
					"inputs": [],
					"name": "obtenerCantidadFirmas",
					"outputs": [
						{
							"internalType": "uint256",
							"name": "",
							"type": "uint256"
						}
					],
					"stateMutability": "view",
					"type": "function"
				},
				{
					"inputs": [
						{
							"internalType": "uint256",
							"name": "indice",
							"type": "uint256"
						}
					],
					"name": "obtenerFirmaPorIndice",
					"outputs": [
						{
							"internalType": "address",
							"name": "firmante",
							"type": "address"
						},
						{
							"internalType": "string",
							"name": "Texto_firma",
							"type": "string"
						},
						{
							"internalType": "uint256",
							"name": "fecha",
							"type": "uint256"
						},
						{
							"internalType": "bytes32",
							"name": "hash_firma",
							"type": "bytes32"
						}
					],
					"stateMutability": "view",
					"type": "function"
				}
			],
			"devdoc": {
				"kind": "dev",
				"methods": {
					"buscarFirmasPorTexto(string)": {
						"params": {
							"_Texto_firma": "Texto exacto a buscar"
						}
					},
					"firmar(string)": {
						"params": {
							"_Texto_firma": "El texto del mensaje a firmar"
						}
					},
					"generarHashLibro(string,uint256)": {
						"params": {
							"_Texto_firma": "El texto exacto usado",
							"_fecha": "El timestamp usado en la firma original"
						}
					}
				},
				"title": "Libro de Firmas con búsqueda por texto, fecha y hash",
				"version": 1
			},
			"evm": {
				"assembly": "    /* \"contracts/LibroDeFirmas.sol\":126:4027  contract LibroDeFirmas {... */\n  mstore(0x40, 0x80)\n  callvalue\n  dup1\n  iszero\n  tag_1\n  jumpi\n  revert(0x00, 0x00)\ntag_1:\n  pop\n  dataSize(sub_0)\n  dup1\n  dataOffset(sub_0)\n  0x00\n  codecopy\n  0x00\n  return\nstop\n\nsub_0: assembly {\n        /* \"contracts/LibroDeFirmas.sol\":126:4027  contract LibroDeFirmas {... */\n      mstore(0x40, 0x80)\n      callvalue\n      dup1\n      iszero\n      tag_1\n      jumpi\n      revert(0x00, 0x00)\n    tag_1:\n      pop\n      jumpi(tag_2, lt(calldatasize, 0x04))\n      shr(0xe0, calldataload(0x00))\n      dup1\n      0x4820fc5d\n      gt\n      tag_12\n      jumpi\n      dup1\n      0x4820fc5d\n      eq\n      tag_7\n      jumpi\n      dup1\n      0x55ae032c\n      eq\n      tag_8\n      jumpi\n      dup1\n      0x56bf5c48\n      eq\n      tag_9\n      jumpi\n      dup1\n      0x9ffda5e2\n      eq\n      tag_10\n      jumpi\n      dup1\n      0xd9b5a670\n      eq\n      tag_11\n      jumpi\n      jump(tag_2)\n    tag_12:\n      dup1\n      0x076110f3\n      eq\n      tag_3\n      jumpi\n      dup1\n      0x2a6b76ff\n      eq\n      tag_4\n      jumpi\n      dup1\n      0x3a419d0c\n      eq\n      tag_5\n      jumpi\n      dup1\n      0x3c629706\n      eq\n      tag_6\n      jumpi\n    tag_2:\n      revert(0x00, 0x00)\n        /* \"contracts/LibroDeFirmas.sol\":2604:3035  function buscarFirmaPorHash(bytes32 _hash_firma) external view returns (... */\n    tag_3:\n      tag_13\n      0x04\n      dup1\n      calldatasize\n      sub\n      dup2\n      add\n      swap1\n      tag_14\n      swap2\n      swap1\n      tag_15\n      jump\t// in\n    tag_14:\n      tag_16\n      jump\t// in\n    tag_13:\n      mload(0x40)\n      tag_17\n      swap5\n      swap4\n      swap3\n      swap2\n      swap1\n      tag_18\n      jump\t// in\n    tag_17:\n      mload(0x40)\n      dup1\n      swap2\n      sub\n      swap1\n      return\n        /* \"contracts/LibroDeFirmas.sol\":3284:3653  function buscarFirmasPorTexto(string calldata _Texto_firma) external view returns (... */\n    tag_4:\n      tag_19\n      0x04\n      dup1\n      calldatasize\n      sub\n      dup2\n      add\n      swap1\n      tag_20\n      swap2\n      swap1\n      tag_21\n      jump\t// in\n    tag_20:\n      tag_22\n      jump\t// in\n    tag_19:\n      mload(0x40)\n      tag_23\n      swap2\n      swap1\n      tag_24\n      jump\t// in\n    tag_23:\n      mload(0x40)\n      dup1\n      swap2\n      sub\n      swap1\n      return\n        /* \"contracts/LibroDeFirmas.sol\":990:1721  function firmar(string calldata _Texto_firma) external {... */\n    tag_5:\n      tag_25\n      0x04\n      dup1\n      calldatasize\n      sub\n      dup2\n      add\n      swap1\n      tag_26\n      swap2\n      swap1\n      tag_21\n      jump\t// in\n    tag_26:\n      tag_27\n      jump\t// in\n    tag_25:\n      stop\n        /* \"contracts/LibroDeFirmas.sol\":510:531  Firma[] public firmas */\n    tag_6:\n      tag_28\n      0x04\n      dup1\n      calldatasize\n      sub\n      dup2\n      add\n      swap1\n      tag_29\n      swap2\n      swap1\n      tag_30\n      jump\t// in\n    tag_29:\n      tag_31\n      jump\t// in\n    tag_28:\n      mload(0x40)\n      tag_32\n      swap5\n      swap4\n      swap3\n      swap2\n      swap1\n      tag_18\n      jump\t// in\n    tag_32:\n      mload(0x40)\n      dup1\n      swap2\n      sub\n      swap1\n      return\n        /* \"contracts/LibroDeFirmas.sol\":1994:2366  function obtenerFirmaPorIndice(uint indice) external view returns (... */\n    tag_7:\n      tag_33\n      0x04\n      dup1\n      calldatasize\n      sub\n      dup2\n      add\n      swap1\n      tag_34\n      swap2\n      swap1\n      tag_30\n      jump\t// in\n    tag_34:\n      tag_35\n      jump\t// in\n    tag_33:\n      mload(0x40)\n      tag_36\n      swap5\n      swap4\n      swap3\n      swap2\n      swap1\n      tag_18\n      jump\t// in\n    tag_36:\n      mload(0x40)\n      dup1\n      swap2\n      sub\n      swap1\n      return\n        /* \"contracts/LibroDeFirmas.sol\":1795:1896  function obtenerCantidadFirmas() external view returns (uint) {... */\n    tag_8:\n      tag_37\n      tag_38\n      jump\t// in\n    tag_37:\n      mload(0x40)\n      tag_39\n      swap2\n      swap1\n      tag_40\n      jump\t// in\n    tag_39:\n      mload(0x40)\n      dup1\n      swap2\n      sub\n      swap1\n      return\n        /* \"contracts/LibroDeFirmas.sol\":570:620  mapping(bytes32 => uint) public indicePorHashLibro */\n    tag_9:\n      tag_41\n      0x04\n      dup1\n      calldatasize\n      sub\n      dup2\n      add\n      swap1\n      tag_42\n      swap2\n      swap1\n      tag_15\n      jump\t// in\n    tag_42:\n      tag_43\n      jump\t// in\n    tag_41:\n      mload(0x40)\n      tag_44\n      swap2\n      swap1\n      tag_40\n      jump\t// in\n    tag_44:\n      mload(0x40)\n      dup1\n      swap2\n      sub\n      swap1\n      return\n        /* \"contracts/LibroDeFirmas.sol\":3852:4024  function generarHashLibro(string memory _Texto_firma, uint _fecha) public pure returns (bytes32) {... */\n    tag_10:\n      tag_45\n      0x04\n      dup1\n      calldatasize\n      sub\n      dup2\n      add\n      swap1\n      tag_46\n      swap2\n      swap1\n      tag_47\n      jump\t// in\n    tag_46:\n      tag_48\n      jump\t// in\n    tag_45:\n      mload(0x40)\n      tag_49\n      swap2\n      swap1\n      tag_50\n      jump\t// in\n    tag_49:\n      mload(0x40)\n      dup1\n      swap2\n      sub\n      swap1\n      return\n        /* \"contracts/LibroDeFirmas.sol\":627:680  mapping(string => uint[]) public indicesPorTextoFirma */\n    tag_11:\n      tag_51\n      0x04\n      dup1\n      calldatasize\n      sub\n      dup2\n      add\n      swap1\n      tag_52\n      swap2\n      swap1\n      tag_47\n      jump\t// in\n    tag_52:\n      tag_53\n      jump\t// in\n    tag_51:\n      mload(0x40)\n      tag_54\n      swap2\n      swap1\n      tag_40\n      jump\t// in\n    tag_54:\n      mload(0x40)\n      dup1\n      swap2\n      sub\n      swap1\n      return\n        /* \"contracts/LibroDeFirmas.sol\":2604:3035  function buscarFirmaPorHash(bytes32 _hash_firma) external view returns (... */\n    tag_16:\n        /* \"contracts/LibroDeFirmas.sol\":2686:2702  address firmante */\n      0x00\n        /* \"contracts/LibroDeFirmas.sol\":2713:2738  string memory Texto_firma */\n      0x60\n        /* \"contracts/LibroDeFirmas.sol\":2749:2759  uint fecha */\n      0x00\n        /* \"contracts/LibroDeFirmas.sol\":2770:2782  bytes32 hash */\n      0x00\n        /* \"contracts/LibroDeFirmas.sol\":2801:2812  uint indice */\n      0x00\n        /* \"contracts/LibroDeFirmas.sol\":2815:2833  indicePorHashLibro */\n      0x01\n        /* \"contracts/LibroDeFirmas.sol\":2815:2846  indicePorHashLibro[_hash_firma] */\n      0x00\n        /* \"contracts/LibroDeFirmas.sol\":2834:2845  _hash_firma */\n      dup8\n        /* \"contracts/LibroDeFirmas.sol\":2815:2846  indicePorHashLibro[_hash_firma] */\n      dup2\n      mstore\n      0x20\n      add\n      swap1\n      dup2\n      mstore\n      0x20\n      add\n      0x00\n      keccak256\n      sload\n        /* \"contracts/LibroDeFirmas.sol\":2801:2846  uint indice = indicePorHashLibro[_hash_firma] */\n      swap1\n      pop\n        /* \"contracts/LibroDeFirmas.sol\":2874:2880  firmas */\n      0x00\n        /* \"contracts/LibroDeFirmas.sol\":2874:2887  firmas.length */\n      dup1\n      sload\n      swap1\n      pop\n        /* \"contracts/LibroDeFirmas.sol\":2865:2871  indice */\n      dup2\n        /* \"contracts/LibroDeFirmas.sol\":2865:2887  indice < firmas.length */\n      lt\n        /* \"contracts/LibroDeFirmas.sol\":2857:2915  require(indice < firmas.length, \"No se encontro la firma\") */\n      tag_56\n      jumpi\n      mload(0x40)\n      0x08c379a000000000000000000000000000000000000000000000000000000000\n      dup2\n      mstore\n      0x04\n      add\n      tag_57\n      swap1\n      tag_58\n      jump\t// in\n    tag_57:\n      mload(0x40)\n      dup1\n      swap2\n      sub\n      swap1\n      revert\n    tag_56:\n        /* \"contracts/LibroDeFirmas.sol\":2928:2942  Firma memory f */\n      0x00\n        /* \"contracts/LibroDeFirmas.sol\":2945:2951  firmas */\n      0x00\n        /* \"contracts/LibroDeFirmas.sol\":2952:2958  indice */\n      dup3\n        /* \"contracts/LibroDeFirmas.sol\":2945:2959  firmas[indice] */\n      dup2\n      sload\n      dup2\n      lt\n      tag_59\n      jumpi\n      tag_60\n      tag_61\n      jump\t// in\n    tag_60:\n    tag_59:\n      swap1\n      0x00\n      mstore\n      keccak256(0x00, 0x20)\n      swap1\n      0x04\n      mul\n      add\n        /* \"contracts/LibroDeFirmas.sol\":2928:2959  Firma memory f = firmas[indice] */\n      mload(0x40)\n      dup1\n      0x80\n      add\n      0x40\n      mstore\n      swap1\n      dup2\n      0x00\n      dup3\n      add\n      0x00\n      swap1\n      sload\n      swap1\n      0x0100\n      exp\n      swap1\n      div\n      0xffffffffffffffffffffffffffffffffffffffff\n      and\n      0xffffffffffffffffffffffffffffffffffffffff\n      and\n      0xffffffffffffffffffffffffffffffffffffffff\n      and\n      dup2\n      mstore\n      0x20\n      add\n      0x01\n      dup3\n      add\n      dup1\n      sload\n      tag_63\n      swap1\n      tag_64\n      jump\t// in\n    tag_63:\n      dup1\n      0x1f\n      add\n      0x20\n      dup1\n      swap2\n      div\n      mul\n      0x20\n      add\n      mload(0x40)\n      swap1\n      dup2\n      add\n      0x40\n      mstore\n      dup1\n      swap3\n      swap2\n      swap1\n      dup2\n      dup2\n      mstore\n      0x20\n      add\n      dup3\n      dup1\n      sload\n      tag_65\n      swap1\n      tag_64\n      jump\t// in\n    tag_65:\n      dup1\n      iszero\n      tag_66\n      jumpi\n      dup1\n      0x1f\n      lt\n      tag_67\n      jumpi\n      0x0100\n      dup1\n      dup4\n      sload\n      div\n      mul\n      dup4\n      mstore\n      swap2\n      0x20\n      add\n      swap2\n      jump(tag_66)\n    tag_67:\n      dup3\n      add\n      swap2\n      swap1\n      0x00\n      mstore\n      keccak256(0x00, 0x20)\n      swap1\n    tag_68:\n      dup2\n      sload\n      dup2\n      mstore\n      swap1\n      0x01\n      add\n      swap1\n      0x20\n      add\n      dup1\n      dup4\n      gt\n      tag_68\n      jumpi\n      dup3\n      swap1\n      sub\n      0x1f\n      and\n      dup3\n      add\n      swap2\n    tag_66:\n      pop\n      pop\n      pop\n      pop\n      pop\n      dup2\n      mstore\n      0x20\n      add\n      0x02\n      dup3\n      add\n      sload\n      dup2\n      mstore\n      0x20\n      add\n      0x03\n      dup3\n      add\n      sload\n      dup2\n      mstore\n      pop\n      pop\n      swap1\n      pop\n        /* \"contracts/LibroDeFirmas.sol\":2978:2979  f */\n      dup1\n        /* \"contracts/LibroDeFirmas.sol\":2978:2988  f.firmante */\n      0x00\n      add\n      mload\n        /* \"contracts/LibroDeFirmas.sol\":2990:2991  f */\n      dup2\n        /* \"contracts/LibroDeFirmas.sol\":2990:3003  f.Texto_firma */\n      0x20\n      add\n      mload\n        /* \"contracts/LibroDeFirmas.sol\":3005:3006  f */\n      dup3\n        /* \"contracts/LibroDeFirmas.sol\":3005:3012  f.fecha */\n      0x40\n      add\n      mload\n        /* \"contracts/LibroDeFirmas.sol\":3014:3015  f */\n      dup4\n        /* \"contracts/LibroDeFirmas.sol\":3014:3026  f.hash_firma */\n      0x60\n      add\n      mload\n        /* \"contracts/LibroDeFirmas.sol\":2970:3027  return (f.firmante, f.Texto_firma, f.fecha, f.hash_firma) */\n      swap6\n      pop\n      swap6\n      pop\n      swap6\n      pop\n      swap6\n      pop\n      pop\n      pop\n        /* \"contracts/LibroDeFirmas.sol\":2604:3035  function buscarFirmaPorHash(bytes32 _hash_firma) external view returns (... */\n      swap2\n      swap4\n      pop\n      swap2\n      swap4\n      jump\t// out\n        /* \"contracts/LibroDeFirmas.sol\":3284:3653  function buscarFirmasPorTexto(string calldata _Texto_firma) external view returns (... */\n    tag_22:\n        /* \"contracts/LibroDeFirmas.sol\":3377:3402  Firma[] memory resultados */\n      0x60\n        /* \"contracts/LibroDeFirmas.sol\":3421:3442  uint[] memory indices */\n      0x00\n        /* \"contracts/LibroDeFirmas.sol\":3445:3465  indicesPorTextoFirma */\n      0x02\n        /* \"contracts/LibroDeFirmas.sol\":3466:3478  _Texto_firma */\n      dup5\n      dup5\n        /* \"contracts/LibroDeFirmas.sol\":3445:3479  indicesPorTextoFirma[_Texto_firma] */\n      mload(0x40)\n      tag_70\n      swap3\n      swap2\n      swap1\n      tag_71\n      jump\t// in\n    tag_70:\n      swap1\n      dup2\n      mstore\n      0x20\n      add\n      mload(0x40)\n      dup1\n      swap2\n      sub\n      swap1\n      keccak256\n        /* \"contracts/LibroDeFirmas.sol\":3421:3479  uint[] memory indices = indicesPorTextoFirma[_Texto_firma] */\n      dup1\n      sload\n      dup1\n      0x20\n      mul\n      0x20\n      add\n      mload(0x40)\n      swap1\n      dup2\n      add\n      0x40\n      mstore\n      dup1\n      swap3\n      swap2\n      swap1\n      dup2\n      dup2\n      mstore\n      0x20\n      add\n      dup3\n      dup1\n      sload\n      dup1\n      iszero\n      tag_72\n      jumpi\n      0x20\n      mul\n      dup3\n      add\n      swap2\n      swap1\n      0x00\n      mstore\n      keccak256(0x00, 0x20)\n      swap1\n    tag_73:\n      dup2\n      sload\n      dup2\n      mstore\n      0x20\n      add\n      swap1\n      0x01\n      add\n      swap1\n      dup1\n      dup4\n      gt\n      tag_73\n      jumpi\n    tag_72:\n      pop\n      pop\n      pop\n      pop\n      pop\n      swap1\n      pop\n        /* \"contracts/LibroDeFirmas.sol\":3515:3522  indices */\n      dup1\n        /* \"contracts/LibroDeFirmas.sol\":3515:3529  indices.length */\n      mload\n        /* \"contracts/LibroDeFirmas.sol\":3503:3530  new Firma[](indices.length) */\n      0xffffffffffffffff\n      dup2\n      gt\n      iszero\n      tag_74\n      jumpi\n      tag_75\n      tag_76\n      jump\t// in\n    tag_75:\n    tag_74:\n      mload(0x40)\n      swap1\n      dup1\n      dup3\n      mstore\n      dup1\n      0x20\n      mul\n      0x20\n      add\n      dup3\n      add\n      0x40\n      mstore\n      dup1\n      iszero\n      tag_77\n      jumpi\n      dup2\n      0x20\n      add\n    tag_78:\n      tag_79\n      tag_80\n      jump\t// in\n    tag_79:\n      dup2\n      mstore\n      0x20\n      add\n      swap1\n      0x01\n      swap1\n      sub\n      swap1\n      dup2\n      tag_78\n      jumpi\n      swap1\n      pop\n    tag_77:\n      pop\n        /* \"contracts/LibroDeFirmas.sol\":3490:3530  resultados = new Firma[](indices.length) */\n      swap2\n      pop\n        /* \"contracts/LibroDeFirmas.sol\":3548:3554  uint i */\n      0x00\n        /* \"contracts/LibroDeFirmas.sol\":3557:3558  0 */\n      0x00\n        /* \"contracts/LibroDeFirmas.sol\":3548:3558  uint i = 0 */\n      swap1\n      pop\n        /* \"contracts/LibroDeFirmas.sol\":3543:3646  for (uint i = 0; i < indices.length; i++) {... */\n    tag_81:\n        /* \"contracts/LibroDeFirmas.sol\":3564:3571  indices */\n      dup2\n        /* \"contracts/LibroDeFirmas.sol\":3564:3578  indices.length */\n      mload\n        /* \"contracts/LibroDeFirmas.sol\":3560:3561  i */\n      dup2\n        /* \"contracts/LibroDeFirmas.sol\":3560:3578  i < indices.length */\n      lt\n        /* \"contracts/LibroDeFirmas.sol\":3543:3646  for (uint i = 0; i < indices.length; i++) {... */\n      iszero\n      tag_82\n      jumpi\n        /* \"contracts/LibroDeFirmas.sol\":3616:3622  firmas */\n      0x00\n        /* \"contracts/LibroDeFirmas.sol\":3623:3630  indices */\n      dup3\n        /* \"contracts/LibroDeFirmas.sol\":3631:3632  i */\n      dup3\n        /* \"contracts/LibroDeFirmas.sol\":3623:3633  indices[i] */\n      dup2\n      mload\n      dup2\n      lt\n      tag_84\n      jumpi\n      tag_85\n      tag_61\n      jump\t// in\n    tag_85:\n    tag_84:\n      0x20\n      mul\n      0x20\n      add\n      add\n      mload\n        /* \"contracts/LibroDeFirmas.sol\":3616:3634  firmas[indices[i]] */\n      dup2\n      sload\n      dup2\n      lt\n      tag_86\n      jumpi\n      tag_87\n      tag_61\n      jump\t// in\n    tag_87:\n    tag_86:\n      swap1\n      0x00\n      mstore\n      keccak256(0x00, 0x20)\n      swap1\n      0x04\n      mul\n      add\n        /* \"contracts/LibroDeFirmas.sol\":3600:3634  resultados[i] = firmas[indices[i]] */\n      mload(0x40)\n      dup1\n      0x80\n      add\n      0x40\n      mstore\n      swap1\n      dup2\n      0x00\n      dup3\n      add\n      0x00\n      swap1\n      sload\n      swap1\n      0x0100\n      exp\n      swap1\n      div\n      0xffffffffffffffffffffffffffffffffffffffff\n      and\n      0xffffffffffffffffffffffffffffffffffffffff\n      and\n      0xffffffffffffffffffffffffffffffffffffffff\n      and\n      dup2\n      mstore\n      0x20\n      add\n      0x01\n      dup3\n      add\n      dup1\n      sload\n      tag_89\n      swap1\n      tag_64\n      jump\t// in\n    tag_89:\n      dup1\n      0x1f\n      add\n      0x20\n      dup1\n      swap2\n      div\n      mul\n      0x20\n      add\n      mload(0x40)\n      swap1\n      dup2\n      add\n      0x40\n      mstore\n      dup1\n      swap3\n      swap2\n      swap1\n      dup2\n      dup2\n      mstore\n      0x20\n      add\n      dup3\n      dup1\n      sload\n      tag_90\n      swap1\n      tag_64\n      jump\t// in\n    tag_90:\n      dup1\n      iszero\n      tag_91\n      jumpi\n      dup1\n      0x1f\n      lt\n      tag_92\n      jumpi\n      0x0100\n      dup1\n      dup4\n      sload\n      div\n      mul\n      dup4\n      mstore\n      swap2\n      0x20\n      add\n      swap2\n      jump(tag_91)\n    tag_92:\n      dup3\n      add\n      swap2\n      swap1\n      0x00\n      mstore\n      keccak256(0x00, 0x20)\n      swap1\n    tag_93:\n      dup2\n      sload\n      dup2\n      mstore\n      swap1\n      0x01\n      add\n      swap1\n      0x20\n      add\n      dup1\n      dup4\n      gt\n      tag_93\n      jumpi\n      dup3\n      swap1\n      sub\n      0x1f\n      and\n      dup3\n      add\n      swap2\n    tag_91:\n      pop\n      pop\n      pop\n      pop\n      pop\n      dup2\n      mstore\n      0x20\n      add\n      0x02\n      dup3\n      add\n      sload\n      dup2\n      mstore\n      0x20\n      add\n      0x03\n      dup3\n      add\n      sload\n      dup2\n      mstore\n      pop\n      pop\n        /* \"contracts/LibroDeFirmas.sol\":3600:3610  resultados */\n      dup4\n        /* \"contracts/LibroDeFirmas.sol\":3611:3612  i */\n      dup3\n        /* \"contracts/LibroDeFirmas.sol\":3600:3613  resultados[i] */\n      dup2\n      mload\n      dup2\n      lt\n      tag_94\n      jumpi\n      tag_95\n      tag_61\n      jump\t// in\n    tag_95:\n    tag_94:\n      0x20\n      mul\n      0x20\n      add\n      add\n        /* \"contracts/LibroDeFirmas.sol\":3600:3634  resultados[i] = firmas[indices[i]] */\n      dup2\n      swap1\n      mstore\n      pop\n        /* \"contracts/LibroDeFirmas.sol\":3580:3583  i++ */\n      dup1\n      dup1\n      0x01\n      add\n      swap2\n      pop\n      pop\n        /* \"contracts/LibroDeFirmas.sol\":3543:3646  for (uint i = 0; i < indices.length; i++) {... */\n      jump(tag_81)\n    tag_82:\n      pop\n        /* \"contracts/LibroDeFirmas.sol\":3410:3653  {... */\n      pop\n        /* \"contracts/LibroDeFirmas.sol\":3284:3653  function buscarFirmasPorTexto(string calldata _Texto_firma) external view returns (... */\n      swap3\n      swap2\n      pop\n      pop\n      jump\t// out\n        /* \"contracts/LibroDeFirmas.sol\":990:1721  function firmar(string calldata _Texto_firma) external {... */\n    tag_27:\n        /* \"contracts/LibroDeFirmas.sol\":1056:1067  uint _fecha */\n      0x00\n        /* \"contracts/LibroDeFirmas.sol\":1070:1085  block.timestamp */\n      timestamp\n        /* \"contracts/LibroDeFirmas.sol\":1056:1085  uint _fecha = block.timestamp */\n      swap1\n      pop\n        /* \"contracts/LibroDeFirmas.sol\":1144:1163  bytes32 _hash_firma */\n      0x00\n        /* \"contracts/LibroDeFirmas.sol\":1193:1205  _Texto_firma */\n      dup4\n      dup4\n        /* \"contracts/LibroDeFirmas.sol\":1207:1213  _fecha */\n      dup4\n        /* \"contracts/LibroDeFirmas.sol\":1176:1214  abi.encodePacked(_Texto_firma, _fecha) */\n      add(0x20, mload(0x40))\n      tag_97\n      swap4\n      swap3\n      swap2\n      swap1\n      tag_98\n      jump\t// in\n    tag_97:\n      mload(0x40)\n      0x20\n      dup2\n      dup4\n      sub\n      sub\n      dup2\n      mstore\n      swap1\n      0x40\n      mstore\n        /* \"contracts/LibroDeFirmas.sol\":1166:1215  keccak256(abi.encodePacked(_Texto_firma, _fecha)) */\n      dup1\n      mload\n      swap1\n      0x20\n      add\n      keccak256\n        /* \"contracts/LibroDeFirmas.sol\":1144:1215  bytes32 _hash_firma = keccak256(abi.encodePacked(_Texto_firma, _fecha)) */\n      swap1\n      pop\n        /* \"contracts/LibroDeFirmas.sol\":1228:1246  Firma memory nueva */\n      0x00\n        /* \"contracts/LibroDeFirmas.sol\":1249:1408  Firma({... */\n      mload(0x40)\n      dup1\n      0x80\n      add\n      0x40\n      mstore\n      dup1\n        /* \"contracts/LibroDeFirmas.sol\":1280:1290  msg.sender */\n      caller\n        /* \"contracts/LibroDeFirmas.sol\":1249:1408  Firma({... */\n      0xffffffffffffffffffffffffffffffffffffffff\n      and\n      dup2\n      mstore\n      0x20\n      add\n        /* \"contracts/LibroDeFirmas.sol\":1318:1330  _Texto_firma */\n      dup7\n      dup7\n        /* \"contracts/LibroDeFirmas.sol\":1249:1408  Firma({... */\n      dup1\n      dup1\n      0x1f\n      add\n      0x20\n      dup1\n      swap2\n      div\n      mul\n      0x20\n      add\n      mload(0x40)\n      swap1\n      dup2\n      add\n      0x40\n      mstore\n      dup1\n      swap4\n      swap3\n      swap2\n      swap1\n      dup2\n      dup2\n      mstore\n      0x20\n      add\n      dup4\n      dup4\n      dup1\n      dup3\n      dup5\n      calldatacopy\n      0x00\n      dup2\n      dup5\n      add\n      mstore\n      not(0x1f)\n      0x1f\n      dup3\n      add\n      and\n      swap1\n      pop\n      dup1\n      dup4\n      add\n      swap3\n      pop\n      pop\n      pop\n      pop\n      pop\n      pop\n      pop\n      dup2\n      mstore\n      0x20\n      add\n        /* \"contracts/LibroDeFirmas.sol\":1352:1358  _fecha */\n      dup5\n        /* \"contracts/LibroDeFirmas.sol\":1249:1408  Firma({... */\n      dup2\n      mstore\n      0x20\n      add\n        /* \"contracts/LibroDeFirmas.sol\":1385:1396  _hash_firma */\n      dup4\n        /* \"contracts/LibroDeFirmas.sol\":1249:1408  Firma({... */\n      dup2\n      mstore\n      pop\n        /* \"contracts/LibroDeFirmas.sol\":1228:1408  Firma memory nueva = Firma({... */\n      swap1\n      pop\n        /* \"contracts/LibroDeFirmas.sol\":1421:1427  firmas */\n      0x00\n        /* \"contracts/LibroDeFirmas.sol\":1433:1438  nueva */\n      dup2\n        /* \"contracts/LibroDeFirmas.sol\":1421:1439  firmas.push(nueva) */\n      swap1\n      dup1\n      0x01\n      dup2\n      sload\n      add\n      dup1\n      dup3\n      sstore\n      dup1\n      swap2\n      pop\n      pop\n      0x01\n      swap1\n      sub\n      swap1\n      0x00\n      mstore\n      keccak256(0x00, 0x20)\n      swap1\n      0x04\n      mul\n      add\n      0x00\n      swap1\n      swap2\n      swap1\n      swap2\n      swap1\n      swap2\n      pop\n      0x00\n      dup3\n      add\n      mload\n      dup2\n      0x00\n      add\n      exp(0x0100, 0x00)\n      dup2\n      sload\n      dup2\n      0xffffffffffffffffffffffffffffffffffffffff\n      mul\n      not\n      and\n      swap1\n      dup4\n      0xffffffffffffffffffffffffffffffffffffffff\n      and\n      mul\n      or\n      swap1\n      sstore\n      pop\n      0x20\n      dup3\n      add\n      mload\n      dup2\n      0x01\n      add\n      swap1\n      dup2\n      tag_100\n      swap2\n      swap1\n      tag_101\n      jump\t// in\n    tag_100:\n      pop\n      0x40\n      dup3\n      add\n      mload\n      dup2\n      0x02\n      add\n      sstore\n      0x60\n      dup3\n      add\n      mload\n      dup2\n      0x03\n      add\n      sstore\n      pop\n      pop\n        /* \"contracts/LibroDeFirmas.sol\":1452:1463  uint indice */\n      0x00\n        /* \"contracts/LibroDeFirmas.sol\":1482:1483  1 */\n      0x01\n        /* \"contracts/LibroDeFirmas.sol\":1466:1472  firmas */\n      0x00\n        /* \"contracts/LibroDeFirmas.sol\":1466:1479  firmas.length */\n      dup1\n      sload\n      swap1\n      pop\n        /* \"contracts/LibroDeFirmas.sol\":1466:1483  firmas.length - 1 */\n      tag_102\n      swap2\n      swap1\n      tag_103\n      jump\t// in\n    tag_102:\n        /* \"contracts/LibroDeFirmas.sol\":1452:1483  uint indice = firmas.length - 1 */\n      swap1\n      pop\n        /* \"contracts/LibroDeFirmas.sol\":1574:1580  indice */\n      dup1\n        /* \"contracts/LibroDeFirmas.sol\":1540:1558  indicePorHashLibro */\n      0x01\n        /* \"contracts/LibroDeFirmas.sol\":1540:1571  indicePorHashLibro[_hash_firma] */\n      0x00\n        /* \"contracts/LibroDeFirmas.sol\":1559:1570  _hash_firma */\n      dup6\n        /* \"contracts/LibroDeFirmas.sol\":1540:1571  indicePorHashLibro[_hash_firma] */\n      dup2\n      mstore\n      0x20\n      add\n      swap1\n      dup2\n      mstore\n      0x20\n      add\n      0x00\n      keccak256\n        /* \"contracts/LibroDeFirmas.sol\":1540:1580  indicePorHashLibro[_hash_firma] = indice */\n      dup2\n      swap1\n      sstore\n      pop\n        /* \"contracts/LibroDeFirmas.sol\":1591:1611  indicesPorTextoFirma */\n      0x02\n        /* \"contracts/LibroDeFirmas.sol\":1612:1624  _Texto_firma */\n      dup7\n      dup7\n        /* \"contracts/LibroDeFirmas.sol\":1591:1625  indicesPorTextoFirma[_Texto_firma] */\n      mload(0x40)\n      tag_104\n      swap3\n      swap2\n      swap1\n      tag_71\n      jump\t// in\n    tag_104:\n      swap1\n      dup2\n      mstore\n      0x20\n      add\n      mload(0x40)\n      dup1\n      swap2\n      sub\n      swap1\n      keccak256\n        /* \"contracts/LibroDeFirmas.sol\":1631:1637  indice */\n      dup2\n        /* \"contracts/LibroDeFirmas.sol\":1591:1638  indicesPorTextoFirma[_Texto_firma].push(indice) */\n      swap1\n      dup1\n      0x01\n      dup2\n      sload\n      add\n      dup1\n      dup3\n      sstore\n      dup1\n      swap2\n      pop\n      pop\n      0x01\n      swap1\n      sub\n      swap1\n      0x00\n      mstore\n      keccak256(0x00, 0x20)\n      add\n      0x00\n      swap1\n      swap2\n      swap1\n      swap2\n      swap1\n      swap2\n      pop\n      sstore\n        /* \"contracts/LibroDeFirmas.sol\":1667:1677  msg.sender */\n      caller\n        /* \"contracts/LibroDeFirmas.sol\":1656:1713  NuevaFirma(msg.sender, _Texto_firma, _fecha, _hash_firma) */\n      0xffffffffffffffffffffffffffffffffffffffff\n      and\n      0x43d36e0547072645a361a18cc0ae285b0367b5aec05cfcd140d26f1a6b216f82\n        /* \"contracts/LibroDeFirmas.sol\":1679:1691  _Texto_firma */\n      dup8\n      dup8\n        /* \"contracts/LibroDeFirmas.sol\":1693:1699  _fecha */\n      dup8\n        /* \"contracts/LibroDeFirmas.sol\":1701:1712  _hash_firma */\n      dup8\n        /* \"contracts/LibroDeFirmas.sol\":1656:1713  NuevaFirma(msg.sender, _Texto_firma, _fecha, _hash_firma) */\n      mload(0x40)\n      tag_106\n      swap5\n      swap4\n      swap3\n      swap2\n      swap1\n      tag_107\n      jump\t// in\n    tag_106:\n      mload(0x40)\n      dup1\n      swap2\n      sub\n      swap1\n      log2\n        /* \"contracts/LibroDeFirmas.sol\":1045:1721  {... */\n      pop\n      pop\n      pop\n      pop\n        /* \"contracts/LibroDeFirmas.sol\":990:1721  function firmar(string calldata _Texto_firma) external {... */\n      pop\n      pop\n      jump\t// out\n        /* \"contracts/LibroDeFirmas.sol\":510:531  Firma[] public firmas */\n    tag_31:\n      0x00\n      dup2\n      dup2\n      sload\n      dup2\n      lt\n      tag_108\n      jumpi\n      0x00\n      dup1\n      revert\n    tag_108:\n      swap1\n      0x00\n      mstore\n      keccak256(0x00, 0x20)\n      swap1\n      0x04\n      mul\n      add\n      0x00\n      swap2\n      pop\n      swap1\n      pop\n      dup1\n      0x00\n      add\n      0x00\n      swap1\n      sload\n      swap1\n      0x0100\n      exp\n      swap1\n      div\n      0xffffffffffffffffffffffffffffffffffffffff\n      and\n      swap1\n      dup1\n      0x01\n      add\n      dup1\n      sload\n      tag_110\n      swap1\n      tag_64\n      jump\t// in\n    tag_110:\n      dup1\n      0x1f\n      add\n      0x20\n      dup1\n      swap2\n      div\n      mul\n      0x20\n      add\n      mload(0x40)\n      swap1\n      dup2\n      add\n      0x40\n      mstore\n      dup1\n      swap3\n      swap2\n      swap1\n      dup2\n      dup2\n      mstore\n      0x20\n      add\n      dup3\n      dup1\n      sload\n      tag_111\n      swap1\n      tag_64\n      jump\t// in\n    tag_111:\n      dup1\n      iszero\n      tag_112\n      jumpi\n      dup1\n      0x1f\n      lt\n      tag_113\n      jumpi\n      0x0100\n      dup1\n      dup4\n      sload\n      div\n      mul\n      dup4\n      mstore\n      swap2\n      0x20\n      add\n      swap2\n      jump(tag_112)\n    tag_113:\n      dup3\n      add\n      swap2\n      swap1\n      0x00\n      mstore\n      keccak256(0x00, 0x20)\n      swap1\n    tag_114:\n      dup2\n      sload\n      dup2\n      mstore\n      swap1\n      0x01\n      add\n      swap1\n      0x20\n      add\n      dup1\n      dup4\n      gt\n      tag_114\n      jumpi\n      dup3\n      swap1\n      sub\n      0x1f\n      and\n      dup3\n      add\n      swap2\n    tag_112:\n      pop\n      pop\n      pop\n      pop\n      pop\n      swap1\n      dup1\n      0x02\n      add\n      sload\n      swap1\n      dup1\n      0x03\n      add\n      sload\n      swap1\n      pop\n      dup5\n      jump\t// out\n        /* \"contracts/LibroDeFirmas.sol\":1994:2366  function obtenerFirmaPorIndice(uint indice) external view returns (... */\n    tag_35:\n        /* \"contracts/LibroDeFirmas.sol\":2071:2087  address firmante */\n      0x00\n        /* \"contracts/LibroDeFirmas.sol\":2098:2123  string memory Texto_firma */\n      0x60\n        /* \"contracts/LibroDeFirmas.sol\":2134:2144  uint fecha */\n      0x00\n        /* \"contracts/LibroDeFirmas.sol\":2155:2173  bytes32 hash_firma */\n      0x00\n        /* \"contracts/LibroDeFirmas.sol\":2209:2215  firmas */\n      0x00\n        /* \"contracts/LibroDeFirmas.sol\":2209:2222  firmas.length */\n      dup1\n      sload\n      swap1\n      pop\n        /* \"contracts/LibroDeFirmas.sol\":2200:2206  indice */\n      dup6\n        /* \"contracts/LibroDeFirmas.sol\":2200:2222  indice < firmas.length */\n      lt\n        /* \"contracts/LibroDeFirmas.sol\":2192:2248  require(indice < firmas.length, \"Indice fuera de rango\") */\n      tag_116\n      jumpi\n      mload(0x40)\n      0x08c379a000000000000000000000000000000000000000000000000000000000\n      dup2\n      mstore\n      0x04\n      add\n      tag_117\n      swap1\n      tag_118\n      jump\t// in\n    tag_117:\n      mload(0x40)\n      dup1\n      swap2\n      sub\n      swap1\n      revert\n    tag_116:\n        /* \"contracts/LibroDeFirmas.sol\":2259:2273  Firma memory f */\n      0x00\n        /* \"contracts/LibroDeFirmas.sol\":2276:2282  firmas */\n      0x00\n        /* \"contracts/LibroDeFirmas.sol\":2283:2289  indice */\n      dup7\n        /* \"contracts/LibroDeFirmas.sol\":2276:2290  firmas[indice] */\n      dup2\n      sload\n      dup2\n      lt\n      tag_119\n      jumpi\n      tag_120\n      tag_61\n      jump\t// in\n    tag_120:\n    tag_119:\n      swap1\n      0x00\n      mstore\n      keccak256(0x00, 0x20)\n      swap1\n      0x04\n      mul\n      add\n        /* \"contracts/LibroDeFirmas.sol\":2259:2290  Firma memory f = firmas[indice] */\n      mload(0x40)\n      dup1\n      0x80\n      add\n      0x40\n      mstore\n      swap1\n      dup2\n      0x00\n      dup3\n      add\n      0x00\n      swap1\n      sload\n      swap1\n      0x0100\n      exp\n      swap1\n      div\n      0xffffffffffffffffffffffffffffffffffffffff\n      and\n      0xffffffffffffffffffffffffffffffffffffffff\n      and\n      0xffffffffffffffffffffffffffffffffffffffff\n      and\n      dup2\n      mstore\n      0x20\n      add\n      0x01\n      dup3\n      add\n      dup1\n      sload\n      tag_122\n      swap1\n      tag_64\n      jump\t// in\n    tag_122:\n      dup1\n      0x1f\n      add\n      0x20\n      dup1\n      swap2\n      div\n      mul\n      0x20\n      add\n      mload(0x40)\n      swap1\n      dup2\n      add\n      0x40\n      mstore\n      dup1\n      swap3\n      swap2\n      swap1\n      dup2\n      dup2\n      mstore\n      0x20\n      add\n      dup3\n      dup1\n      sload\n      tag_123\n      swap1\n      tag_64\n      jump\t// in\n    tag_123:\n      dup1\n      iszero\n      tag_124\n      jumpi\n      dup1\n      0x1f\n      lt\n      tag_125\n      jumpi\n      0x0100\n      dup1\n      dup4\n      sload\n      div\n      mul\n      dup4\n      mstore\n      swap2\n      0x20\n      add\n      swap2\n      jump(tag_124)\n    tag_125:\n      dup3\n      add\n      swap2\n      swap1\n      0x00\n      mstore\n      keccak256(0x00, 0x20)\n      swap1\n    tag_126:\n      dup2\n      sload\n      dup2\n      mstore\n      swap1\n      0x01\n      add\n      swap1\n      0x20\n      add\n      dup1\n      dup4\n      gt\n      tag_126\n      jumpi\n      dup3\n      swap1\n      sub\n      0x1f\n      and\n      dup3\n      add\n      swap2\n    tag_124:\n      pop\n      pop\n      pop\n      pop\n      pop\n      dup2\n      mstore\n      0x20\n      add\n      0x02\n      dup3\n      add\n      sload\n      dup2\n      mstore\n      0x20\n      add\n      0x03\n      dup3\n      add\n      sload\n      dup2\n      mstore\n      pop\n      pop\n      swap1\n      pop\n        /* \"contracts/LibroDeFirmas.sol\":2309:2310  f */\n      dup1\n        /* \"contracts/LibroDeFirmas.sol\":2309:2319  f.firmante */\n      0x00\n      add\n      mload\n        /* \"contracts/LibroDeFirmas.sol\":2321:2322  f */\n      dup2\n        /* \"contracts/LibroDeFirmas.sol\":2321:2334  f.Texto_firma */\n      0x20\n      add\n      mload\n        /* \"contracts/LibroDeFirmas.sol\":2336:2337  f */\n      dup3\n        /* \"contracts/LibroDeFirmas.sol\":2336:2343  f.fecha */\n      0x40\n      add\n      mload\n        /* \"contracts/LibroDeFirmas.sol\":2345:2346  f */\n      dup4\n        /* \"contracts/LibroDeFirmas.sol\":2345:2357  f.hash_firma */\n      0x60\n      add\n      mload\n        /* \"contracts/LibroDeFirmas.sol\":2301:2358  return (f.firmante, f.Texto_firma, f.fecha, f.hash_firma) */\n      swap5\n      pop\n      swap5\n      pop\n      swap5\n      pop\n      swap5\n      pop\n      pop\n        /* \"contracts/LibroDeFirmas.sol\":1994:2366  function obtenerFirmaPorIndice(uint indice) external view returns (... */\n      swap2\n      swap4\n      pop\n      swap2\n      swap4\n      jump\t// out\n        /* \"contracts/LibroDeFirmas.sol\":1795:1896  function obtenerCantidadFirmas() external view returns (uint) {... */\n    tag_38:\n        /* \"contracts/LibroDeFirmas.sol\":1851:1855  uint */\n      0x00\n        /* \"contracts/LibroDeFirmas.sol\":1875:1881  firmas */\n      0x00\n        /* \"contracts/LibroDeFirmas.sol\":1875:1888  firmas.length */\n      dup1\n      sload\n      swap1\n      pop\n        /* \"contracts/LibroDeFirmas.sol\":1868:1888  return firmas.length */\n      swap1\n      pop\n        /* \"contracts/LibroDeFirmas.sol\":1795:1896  function obtenerCantidadFirmas() external view returns (uint) {... */\n      swap1\n      jump\t// out\n        /* \"contracts/LibroDeFirmas.sol\":570:620  mapping(bytes32 => uint) public indicePorHashLibro */\n    tag_43:\n      mstore(0x20, 0x01)\n      dup1\n      0x00\n      mstore\n      keccak256(0x00, 0x40)\n      0x00\n      swap2\n      pop\n      swap1\n      pop\n      sload\n      dup2\n      jump\t// out\n        /* \"contracts/LibroDeFirmas.sol\":3852:4024  function generarHashLibro(string memory _Texto_firma, uint _fecha) public pure returns (bytes32) {... */\n    tag_48:\n        /* \"contracts/LibroDeFirmas.sol\":3940:3947  bytes32 */\n      0x00\n        /* \"contracts/LibroDeFirmas.sol\":3994:4006  _Texto_firma */\n      dup3\n        /* \"contracts/LibroDeFirmas.sol\":4008:4014  _fecha */\n      dup3\n        /* \"contracts/LibroDeFirmas.sol\":3977:4015  abi.encodePacked(_Texto_firma, _fecha) */\n      add(0x20, mload(0x40))\n      tag_129\n      swap3\n      swap2\n      swap1\n      tag_130\n      jump\t// in\n    tag_129:\n      mload(0x40)\n      0x20\n      dup2\n      dup4\n      sub\n      sub\n      dup2\n      mstore\n      swap1\n      0x40\n      mstore\n        /* \"contracts/LibroDeFirmas.sol\":3967:4016  keccak256(abi.encodePacked(_Texto_firma, _fecha)) */\n      dup1\n      mload\n      swap1\n      0x20\n      add\n      keccak256\n        /* \"contracts/LibroDeFirmas.sol\":3960:4016  return keccak256(abi.encodePacked(_Texto_firma, _fecha)) */\n      swap1\n      pop\n        /* \"contracts/LibroDeFirmas.sol\":3852:4024  function generarHashLibro(string memory _Texto_firma, uint _fecha) public pure returns (bytes32) {... */\n      swap3\n      swap2\n      pop\n      pop\n      jump\t// out\n        /* \"contracts/LibroDeFirmas.sol\":627:680  mapping(string => uint[]) public indicesPorTextoFirma */\n    tag_53:\n      0x02\n      dup3\n      dup1\n      mload\n      0x20\n      dup2\n      add\n      dup3\n      add\n      dup1\n      mload\n      dup5\n      dup3\n      mstore\n      0x20\n      dup4\n      add\n      0x20\n      dup6\n      add\n      keccak256\n      dup2\n      dup4\n      mstore\n      dup1\n      swap6\n      pop\n      pop\n      pop\n      pop\n      pop\n      pop\n      dup2\n      dup2\n      sload\n      dup2\n      lt\n      tag_131\n      jumpi\n      0x00\n      dup1\n      revert\n    tag_131:\n      swap1\n      0x00\n      mstore\n      keccak256(0x00, 0x20)\n      add\n      0x00\n      swap2\n      pop\n      swap2\n      pop\n      pop\n      sload\n      dup2\n      jump\t// out\n    tag_80:\n      mload(0x40)\n      dup1\n      0x80\n      add\n      0x40\n      mstore\n      dup1\n      and(0xffffffffffffffffffffffffffffffffffffffff, 0x00)\n      dup2\n      mstore\n      0x20\n      add\n      0x60\n      dup2\n      mstore\n      0x20\n      add\n      0x00\n      dup2\n      mstore\n      0x20\n      add\n      0x00\n      dup2\n      mstore\n      pop\n      swap1\n      jump\t// out\n        /* \"#utility.yul\":7:82   */\n    tag_133:\n        /* \"#utility.yul\":40:46   */\n      0x00\n        /* \"#utility.yul\":73:75   */\n      0x40\n        /* \"#utility.yul\":67:76   */\n      mload\n        /* \"#utility.yul\":57:76   */\n      swap1\n      pop\n        /* \"#utility.yul\":7:82   */\n      swap1\n      jump\t// out\n        /* \"#utility.yul\":88:205   */\n    tag_134:\n        /* \"#utility.yul\":197:198   */\n      0x00\n        /* \"#utility.yul\":194:195   */\n      0x00\n        /* \"#utility.yul\":187:199   */\n      revert\n        /* \"#utility.yul\":211:328   */\n    tag_135:\n        /* \"#utility.yul\":320:321   */\n      0x00\n        /* \"#utility.yul\":317:318   */\n      0x00\n        /* \"#utility.yul\":310:322   */\n      revert\n        /* \"#utility.yul\":334:411   */\n    tag_136:\n        /* \"#utility.yul\":371:378   */\n      0x00\n        /* \"#utility.yul\":400:405   */\n      dup2\n        /* \"#utility.yul\":389:405   */\n      swap1\n      pop\n        /* \"#utility.yul\":334:411   */\n      swap2\n      swap1\n      pop\n      jump\t// out\n        /* \"#utility.yul\":417:539   */\n    tag_137:\n        /* \"#utility.yul\":490:514   */\n      tag_208\n        /* \"#utility.yul\":508:513   */\n      dup2\n        /* \"#utility.yul\":490:514   */\n      tag_136\n      jump\t// in\n    tag_208:\n        /* \"#utility.yul\":483:488   */\n      dup2\n        /* \"#utility.yul\":480:515   */\n      eq\n        /* \"#utility.yul\":470:533   */\n      tag_209\n      jumpi\n        /* \"#utility.yul\":529:530   */\n      0x00\n        /* \"#utility.yul\":526:527   */\n      0x00\n        /* \"#utility.yul\":519:531   */\n      revert\n        /* \"#utility.yul\":470:533   */\n    tag_209:\n        /* \"#utility.yul\":417:539   */\n      pop\n      jump\t// out\n        /* \"#utility.yul\":545:684   */\n    tag_138:\n        /* \"#utility.yul\":591:596   */\n      0x00\n        /* \"#utility.yul\":629:635   */\n      dup2\n        /* \"#utility.yul\":616:636   */\n      calldataload\n        /* \"#utility.yul\":607:636   */\n      swap1\n      pop\n        /* \"#utility.yul\":645:678   */\n      tag_211\n        /* \"#utility.yul\":672:677   */\n      dup2\n        /* \"#utility.yul\":645:678   */\n      tag_137\n      jump\t// in\n    tag_211:\n        /* \"#utility.yul\":545:684   */\n      swap3\n      swap2\n      pop\n      pop\n      jump\t// out\n        /* \"#utility.yul\":690:1019   */\n    tag_15:\n        /* \"#utility.yul\":749:755   */\n      0x00\n        /* \"#utility.yul\":798:800   */\n      0x20\n        /* \"#utility.yul\":786:795   */\n      dup3\n        /* \"#utility.yul\":777:784   */\n      dup5\n        /* \"#utility.yul\":773:796   */\n      sub\n        /* \"#utility.yul\":769:801   */\n      slt\n        /* \"#utility.yul\":766:885   */\n      iszero\n      tag_213\n      jumpi\n        /* \"#utility.yul\":804:883   */\n      tag_214\n      tag_134\n      jump\t// in\n    tag_214:\n        /* \"#utility.yul\":766:885   */\n    tag_213:\n        /* \"#utility.yul\":924:925   */\n      0x00\n        /* \"#utility.yul\":949:1002   */\n      tag_215\n        /* \"#utility.yul\":994:1001   */\n      dup5\n        /* \"#utility.yul\":985:991   */\n      dup3\n        /* \"#utility.yul\":974:983   */\n      dup6\n        /* \"#utility.yul\":970:992   */\n      add\n        /* \"#utility.yul\":949:1002   */\n      tag_138\n      jump\t// in\n    tag_215:\n        /* \"#utility.yul\":939:1002   */\n      swap2\n      pop\n        /* \"#utility.yul\":895:1012   */\n      pop\n        /* \"#utility.yul\":690:1019   */\n      swap3\n      swap2\n      pop\n      pop\n      jump\t// out\n        /* \"#utility.yul\":1025:1151   */\n    tag_139:\n        /* \"#utility.yul\":1062:1069   */\n      0x00\n        /* \"#utility.yul\":1102:1144   */\n      0xffffffffffffffffffffffffffffffffffffffff\n        /* \"#utility.yul\":1095:1100   */\n      dup3\n        /* \"#utility.yul\":1091:1145   */\n      and\n        /* \"#utility.yul\":1080:1145   */\n      swap1\n      pop\n        /* \"#utility.yul\":1025:1151   */\n      swap2\n      swap1\n      pop\n      jump\t// out\n        /* \"#utility.yul\":1157:1253   */\n    tag_140:\n        /* \"#utility.yul\":1194:1201   */\n      0x00\n        /* \"#utility.yul\":1223:1247   */\n      tag_218\n        /* \"#utility.yul\":1241:1246   */\n      dup3\n        /* \"#utility.yul\":1223:1247   */\n      tag_139\n      jump\t// in\n    tag_218:\n        /* \"#utility.yul\":1212:1247   */\n      swap1\n      pop\n        /* \"#utility.yul\":1157:1253   */\n      swap2\n      swap1\n      pop\n      jump\t// out\n        /* \"#utility.yul\":1259:1377   */\n    tag_141:\n        /* \"#utility.yul\":1346:1370   */\n      tag_220\n        /* \"#utility.yul\":1364:1369   */\n      dup2\n        /* \"#utility.yul\":1346:1370   */\n      tag_140\n      jump\t// in\n    tag_220:\n        /* \"#utility.yul\":1341:1344   */\n      dup3\n        /* \"#utility.yul\":1334:1371   */\n      mstore\n        /* \"#utility.yul\":1259:1377   */\n      pop\n      pop\n      jump\t// out\n        /* \"#utility.yul\":1383:1482   */\n    tag_142:\n        /* \"#utility.yul\":1435:1441   */\n      0x00\n        /* \"#utility.yul\":1469:1474   */\n      dup2\n        /* \"#utility.yul\":1463:1475   */\n      mload\n        /* \"#utility.yul\":1453:1475   */\n      swap1\n      pop\n        /* \"#utility.yul\":1383:1482   */\n      swap2\n      swap1\n      pop\n      jump\t// out\n        /* \"#utility.yul\":1488:1657   */\n    tag_143:\n        /* \"#utility.yul\":1572:1583   */\n      0x00\n        /* \"#utility.yul\":1606:1612   */\n      dup3\n        /* \"#utility.yul\":1601:1604   */\n      dup3\n        /* \"#utility.yul\":1594:1613   */\n      mstore\n        /* \"#utility.yul\":1646:1650   */\n      0x20\n        /* \"#utility.yul\":1641:1644   */\n      dup3\n        /* \"#utility.yul\":1637:1651   */\n      add\n        /* \"#utility.yul\":1622:1651   */\n      swap1\n      pop\n        /* \"#utility.yul\":1488:1657   */\n      swap3\n      swap2\n      pop\n      pop\n      jump\t// out\n        /* \"#utility.yul\":1663:1802   */\n    tag_144:\n        /* \"#utility.yul\":1752:1758   */\n      dup3\n        /* \"#utility.yul\":1747:1750   */\n      dup2\n        /* \"#utility.yul\":1742:1745   */\n      dup4\n        /* \"#utility.yul\":1736:1759   */\n      mcopy\n        /* \"#utility.yul\":1793:1794   */\n      0x00\n        /* \"#utility.yul\":1784:1790   */\n      dup4\n        /* \"#utility.yul\":1779:1782   */\n      dup4\n        /* \"#utility.yul\":1775:1791   */\n      add\n        /* \"#utility.yul\":1768:1795   */\n      mstore\n        /* \"#utility.yul\":1663:1802   */\n      pop\n      pop\n      pop\n      jump\t// out\n        /* \"#utility.yul\":1808:1910   */\n    tag_145:\n        /* \"#utility.yul\":1849:1855   */\n      0x00\n        /* \"#utility.yul\":1900:1902   */\n      0x1f\n        /* \"#utility.yul\":1896:1903   */\n      not\n        /* \"#utility.yul\":1891:1893   */\n      0x1f\n        /* \"#utility.yul\":1884:1889   */\n      dup4\n        /* \"#utility.yul\":1880:1894   */\n      add\n        /* \"#utility.yul\":1876:1904   */\n      and\n        /* \"#utility.yul\":1866:1904   */\n      swap1\n      pop\n        /* \"#utility.yul\":1808:1910   */\n      swap2\n      swap1\n      pop\n      jump\t// out\n        /* \"#utility.yul\":1916:2293   */\n    tag_146:\n        /* \"#utility.yul\":2004:2007   */\n      0x00\n        /* \"#utility.yul\":2032:2071   */\n      tag_226\n        /* \"#utility.yul\":2065:2070   */\n      dup3\n        /* \"#utility.yul\":2032:2071   */\n      tag_142\n      jump\t// in\n    tag_226:\n        /* \"#utility.yul\":2087:2158   */\n      tag_227\n        /* \"#utility.yul\":2151:2157   */\n      dup2\n        /* \"#utility.yul\":2146:2149   */\n      dup6\n        /* \"#utility.yul\":2087:2158   */\n      tag_143\n      jump\t// in\n    tag_227:\n        /* \"#utility.yul\":2080:2158   */\n      swap4\n      pop\n        /* \"#utility.yul\":2167:2232   */\n      tag_228\n        /* \"#utility.yul\":2225:2231   */\n      dup2\n        /* \"#utility.yul\":2220:2223   */\n      dup6\n        /* \"#utility.yul\":2213:2217   */\n      0x20\n        /* \"#utility.yul\":2206:2211   */\n      dup7\n        /* \"#utility.yul\":2202:2218   */\n      add\n        /* \"#utility.yul\":2167:2232   */\n      tag_144\n      jump\t// in\n    tag_228:\n        /* \"#utility.yul\":2257:2286   */\n      tag_229\n        /* \"#utility.yul\":2279:2285   */\n      dup2\n        /* \"#utility.yul\":2257:2286   */\n      tag_145\n      jump\t// in\n    tag_229:\n        /* \"#utility.yul\":2252:2255   */\n      dup5\n        /* \"#utility.yul\":2248:2287   */\n      add\n        /* \"#utility.yul\":2241:2287   */\n      swap2\n      pop\n        /* \"#utility.yul\":2008:2293   */\n      pop\n        /* \"#utility.yul\":1916:2293   */\n      swap3\n      swap2\n      pop\n      pop\n      jump\t// out\n        /* \"#utility.yul\":2299:2376   */\n    tag_147:\n        /* \"#utility.yul\":2336:2343   */\n      0x00\n        /* \"#utility.yul\":2365:2370   */\n      dup2\n        /* \"#utility.yul\":2354:2370   */\n      swap1\n      pop\n        /* \"#utility.yul\":2299:2376   */\n      swap2\n      swap1\n      pop\n      jump\t// out\n        /* \"#utility.yul\":2382:2500   */\n    tag_148:\n        /* \"#utility.yul\":2469:2493   */\n      tag_232\n        /* \"#utility.yul\":2487:2492   */\n      dup2\n        /* \"#utility.yul\":2469:2493   */\n      tag_147\n      jump\t// in\n    tag_232:\n        /* \"#utility.yul\":2464:2467   */\n      dup3\n        /* \"#utility.yul\":2457:2494   */\n      mstore\n        /* \"#utility.yul\":2382:2500   */\n      pop\n      pop\n      jump\t// out\n        /* \"#utility.yul\":2506:2624   */\n    tag_149:\n        /* \"#utility.yul\":2593:2617   */\n      tag_234\n        /* \"#utility.yul\":2611:2616   */\n      dup2\n        /* \"#utility.yul\":2593:2617   */\n      tag_136\n      jump\t// in\n    tag_234:\n        /* \"#utility.yul\":2588:2591   */\n      dup3\n        /* \"#utility.yul\":2581:2618   */\n      mstore\n        /* \"#utility.yul\":2506:2624   */\n      pop\n      pop\n      jump\t// out\n        /* \"#utility.yul\":2630:3274   */\n    tag_18:\n        /* \"#utility.yul\":2827:2831   */\n      0x00\n        /* \"#utility.yul\":2865:2868   */\n      0x80\n        /* \"#utility.yul\":2854:2863   */\n      dup3\n        /* \"#utility.yul\":2850:2869   */\n      add\n        /* \"#utility.yul\":2842:2869   */\n      swap1\n      pop\n        /* \"#utility.yul\":2879:2950   */\n      tag_236\n        /* \"#utility.yul\":2947:2948   */\n      0x00\n        /* \"#utility.yul\":2936:2945   */\n      dup4\n        /* \"#utility.yul\":2932:2949   */\n      add\n        /* \"#utility.yul\":2923:2929   */\n      dup8\n        /* \"#utility.yul\":2879:2950   */\n      tag_141\n      jump\t// in\n    tag_236:\n        /* \"#utility.yul\":2997:3006   */\n      dup2\n        /* \"#utility.yul\":2991:2995   */\n      dup2\n        /* \"#utility.yul\":2987:3007   */\n      sub\n        /* \"#utility.yul\":2982:2984   */\n      0x20\n        /* \"#utility.yul\":2971:2980   */\n      dup4\n        /* \"#utility.yul\":2967:2985   */\n      add\n        /* \"#utility.yul\":2960:3008   */\n      mstore\n        /* \"#utility.yul\":3025:3103   */\n      tag_237\n        /* \"#utility.yul\":3098:3102   */\n      dup2\n        /* \"#utility.yul\":3089:3095   */\n      dup7\n        /* \"#utility.yul\":3025:3103   */\n      tag_146\n      jump\t// in\n    tag_237:\n        /* \"#utility.yul\":3017:3103   */\n      swap1\n      pop\n        /* \"#utility.yul\":3113:3185   */\n      tag_238\n        /* \"#utility.yul\":3181:3183   */\n      0x40\n        /* \"#utility.yul\":3170:3179   */\n      dup4\n        /* \"#utility.yul\":3166:3184   */\n      add\n        /* \"#utility.yul\":3157:3163   */\n      dup6\n        /* \"#utility.yul\":3113:3185   */\n      tag_148\n      jump\t// in\n    tag_238:\n        /* \"#utility.yul\":3195:3267   */\n      tag_239\n        /* \"#utility.yul\":3263:3265   */\n      0x60\n        /* \"#utility.yul\":3252:3261   */\n      dup4\n        /* \"#utility.yul\":3248:3266   */\n      add\n        /* \"#utility.yul\":3239:3245   */\n      dup5\n        /* \"#utility.yul\":3195:3267   */\n      tag_149\n      jump\t// in\n    tag_239:\n        /* \"#utility.yul\":2630:3274   */\n      swap6\n      swap5\n      pop\n      pop\n      pop\n      pop\n      pop\n      jump\t// out\n        /* \"#utility.yul\":3280:3397   */\n    tag_150:\n        /* \"#utility.yul\":3389:3390   */\n      0x00\n        /* \"#utility.yul\":3386:3387   */\n      0x00\n        /* \"#utility.yul\":3379:3391   */\n      revert\n        /* \"#utility.yul\":3403:3520   */\n    tag_151:\n        /* \"#utility.yul\":3512:3513   */\n      0x00\n        /* \"#utility.yul\":3509:3510   */\n      0x00\n        /* \"#utility.yul\":3502:3514   */\n      revert\n        /* \"#utility.yul\":3526:3643   */\n    tag_152:\n        /* \"#utility.yul\":3635:3636   */\n      0x00\n        /* \"#utility.yul\":3632:3633   */\n      0x00\n        /* \"#utility.yul\":3625:3637   */\n      revert\n        /* \"#utility.yul\":3663:4216   */\n    tag_153:\n        /* \"#utility.yul\":3721:3729   */\n      0x00\n        /* \"#utility.yul\":3731:3737   */\n      0x00\n        /* \"#utility.yul\":3781:3784   */\n      dup4\n        /* \"#utility.yul\":3774:3778   */\n      0x1f\n        /* \"#utility.yul\":3766:3772   */\n      dup5\n        /* \"#utility.yul\":3762:3779   */\n      add\n        /* \"#utility.yul\":3758:3785   */\n      slt\n        /* \"#utility.yul\":3748:3870   */\n      tag_244\n      jumpi\n        /* \"#utility.yul\":3789:3868   */\n      tag_245\n      tag_150\n      jump\t// in\n    tag_245:\n        /* \"#utility.yul\":3748:3870   */\n    tag_244:\n        /* \"#utility.yul\":3902:3908   */\n      dup3\n        /* \"#utility.yul\":3889:3909   */\n      calldataload\n        /* \"#utility.yul\":3879:3909   */\n      swap1\n      pop\n        /* \"#utility.yul\":3932:3950   */\n      0xffffffffffffffff\n        /* \"#utility.yul\":3924:3930   */\n      dup2\n        /* \"#utility.yul\":3921:3951   */\n      gt\n        /* \"#utility.yul\":3918:4035   */\n      iszero\n      tag_246\n      jumpi\n        /* \"#utility.yul\":3954:4033   */\n      tag_247\n      tag_151\n      jump\t// in\n    tag_247:\n        /* \"#utility.yul\":3918:4035   */\n    tag_246:\n        /* \"#utility.yul\":4068:4072   */\n      0x20\n        /* \"#utility.yul\":4060:4066   */\n      dup4\n        /* \"#utility.yul\":4056:4073   */\n      add\n        /* \"#utility.yul\":4044:4073   */\n      swap2\n      pop\n        /* \"#utility.yul\":4122:4125   */\n      dup4\n        /* \"#utility.yul\":4114:4118   */\n      0x01\n        /* \"#utility.yul\":4106:4112   */\n      dup3\n        /* \"#utility.yul\":4102:4119   */\n      mul\n        /* \"#utility.yul\":4092:4100   */\n      dup4\n        /* \"#utility.yul\":4088:4120   */\n      add\n        /* \"#utility.yul\":4085:4126   */\n      gt\n        /* \"#utility.yul\":4082:4210   */\n      iszero\n      tag_248\n      jumpi\n        /* \"#utility.yul\":4129:4208   */\n      tag_249\n      tag_152\n      jump\t// in\n    tag_249:\n        /* \"#utility.yul\":4082:4210   */\n    tag_248:\n        /* \"#utility.yul\":3663:4216   */\n      swap3\n      pop\n      swap3\n      swap1\n      pop\n      jump\t// out\n        /* \"#utility.yul\":4222:4751   */\n    tag_21:\n        /* \"#utility.yul\":4293:4299   */\n      0x00\n        /* \"#utility.yul\":4301:4307   */\n      0x00\n        /* \"#utility.yul\":4350:4352   */\n      0x20\n        /* \"#utility.yul\":4338:4347   */\n      dup4\n        /* \"#utility.yul\":4329:4336   */\n      dup6\n        /* \"#utility.yul\":4325:4348   */\n      sub\n        /* \"#utility.yul\":4321:4353   */\n      slt\n        /* \"#utility.yul\":4318:4437   */\n      iszero\n      tag_251\n      jumpi\n        /* \"#utility.yul\":4356:4435   */\n      tag_252\n      tag_134\n      jump\t// in\n    tag_252:\n        /* \"#utility.yul\":4318:4437   */\n    tag_251:\n        /* \"#utility.yul\":4504:4505   */\n      0x00\n        /* \"#utility.yul\":4493:4502   */\n      dup4\n        /* \"#utility.yul\":4489:4506   */\n      add\n        /* \"#utility.yul\":4476:4507   */\n      calldataload\n        /* \"#utility.yul\":4534:4552   */\n      0xffffffffffffffff\n        /* \"#utility.yul\":4526:4532   */\n      dup2\n        /* \"#utility.yul\":4523:4553   */\n      gt\n        /* \"#utility.yul\":4520:4637   */\n      iszero\n      tag_253\n      jumpi\n        /* \"#utility.yul\":4556:4635   */\n      tag_254\n      tag_135\n      jump\t// in\n    tag_254:\n        /* \"#utility.yul\":4520:4637   */\n    tag_253:\n        /* \"#utility.yul\":4669:4734   */\n      tag_255\n        /* \"#utility.yul\":4726:4733   */\n      dup6\n        /* \"#utility.yul\":4717:4723   */\n      dup3\n        /* \"#utility.yul\":4706:4715   */\n      dup7\n        /* \"#utility.yul\":4702:4724   */\n      add\n        /* \"#utility.yul\":4669:4734   */\n      tag_153\n      jump\t// in\n    tag_255:\n        /* \"#utility.yul\":4651:4734   */\n      swap3\n      pop\n      swap3\n      pop\n        /* \"#utility.yul\":4447:4744   */\n      pop\n        /* \"#utility.yul\":4222:4751   */\n      swap3\n      pop\n      swap3\n      swap1\n      pop\n      jump\t// out\n        /* \"#utility.yul\":4757:4892   */\n    tag_154:\n        /* \"#utility.yul\":4845:4851   */\n      0x00\n        /* \"#utility.yul\":4879:4884   */\n      dup2\n        /* \"#utility.yul\":4873:4885   */\n      mload\n        /* \"#utility.yul\":4863:4885   */\n      swap1\n      pop\n        /* \"#utility.yul\":4757:4892   */\n      swap2\n      swap1\n      pop\n      jump\t// out\n        /* \"#utility.yul\":4898:5103   */\n    tag_155:\n        /* \"#utility.yul\":5018:5029   */\n      0x00\n        /* \"#utility.yul\":5052:5058   */\n      dup3\n        /* \"#utility.yul\":5047:5050   */\n      dup3\n        /* \"#utility.yul\":5040:5059   */\n      mstore\n        /* \"#utility.yul\":5092:5096   */\n      0x20\n        /* \"#utility.yul\":5087:5090   */\n      dup3\n        /* \"#utility.yul\":5083:5097   */\n      add\n        /* \"#utility.yul\":5068:5097   */\n      swap1\n      pop\n        /* \"#utility.yul\":4898:5103   */\n      swap3\n      swap2\n      pop\n      pop\n      jump\t// out\n        /* \"#utility.yul\":5109:5262   */\n    tag_156:\n        /* \"#utility.yul\":5197:5201   */\n      0x00\n        /* \"#utility.yul\":5220:5223   */\n      dup2\n        /* \"#utility.yul\":5212:5223   */\n      swap1\n      pop\n        /* \"#utility.yul\":5250:5254   */\n      0x20\n        /* \"#utility.yul\":5245:5248   */\n      dup3\n        /* \"#utility.yul\":5241:5255   */\n      add\n        /* \"#utility.yul\":5233:5255   */\n      swap1\n      pop\n        /* \"#utility.yul\":5109:5262   */\n      swap2\n      swap1\n      pop\n      jump\t// out\n        /* \"#utility.yul\":5268:5376   */\n    tag_157:\n        /* \"#utility.yul\":5345:5369   */\n      tag_260\n        /* \"#utility.yul\":5363:5368   */\n      dup2\n        /* \"#utility.yul\":5345:5369   */\n      tag_140\n      jump\t// in\n    tag_260:\n        /* \"#utility.yul\":5340:5343   */\n      dup3\n        /* \"#utility.yul\":5333:5370   */\n      mstore\n        /* \"#utility.yul\":5268:5376   */\n      pop\n      pop\n      jump\t// out\n        /* \"#utility.yul\":5382:5541   */\n    tag_158:\n        /* \"#utility.yul\":5456:5467   */\n      0x00\n        /* \"#utility.yul\":5490:5496   */\n      dup3\n        /* \"#utility.yul\":5485:5488   */\n      dup3\n        /* \"#utility.yul\":5478:5497   */\n      mstore\n        /* \"#utility.yul\":5530:5534   */\n      0x20\n        /* \"#utility.yul\":5525:5528   */\n      dup3\n        /* \"#utility.yul\":5521:5535   */\n      add\n        /* \"#utility.yul\":5506:5535   */\n      swap1\n      pop\n        /* \"#utility.yul\":5382:5541   */\n      swap3\n      swap2\n      pop\n      pop\n      jump\t// out\n        /* \"#utility.yul\":5547:5904   */\n    tag_159:\n        /* \"#utility.yul\":5625:5628   */\n      0x00\n        /* \"#utility.yul\":5653:5692   */\n      tag_263\n        /* \"#utility.yul\":5686:5691   */\n      dup3\n        /* \"#utility.yul\":5653:5692   */\n      tag_142\n      jump\t// in\n    tag_263:\n        /* \"#utility.yul\":5708:5769   */\n      tag_264\n        /* \"#utility.yul\":5762:5768   */\n      dup2\n        /* \"#utility.yul\":5757:5760   */\n      dup6\n        /* \"#utility.yul\":5708:5769   */\n      tag_158\n      jump\t// in\n    tag_264:\n        /* \"#utility.yul\":5701:5769   */\n      swap4\n      pop\n        /* \"#utility.yul\":5778:5843   */\n      tag_265\n        /* \"#utility.yul\":5836:5842   */\n      dup2\n        /* \"#utility.yul\":5831:5834   */\n      dup6\n        /* \"#utility.yul\":5824:5828   */\n      0x20\n        /* \"#utility.yul\":5817:5822   */\n      dup7\n        /* \"#utility.yul\":5813:5829   */\n      add\n        /* \"#utility.yul\":5778:5843   */\n      tag_144\n      jump\t// in\n    tag_265:\n        /* \"#utility.yul\":5868:5897   */\n      tag_266\n        /* \"#utility.yul\":5890:5896   */\n      dup2\n        /* \"#utility.yul\":5868:5897   */\n      tag_145\n      jump\t// in\n    tag_266:\n        /* \"#utility.yul\":5863:5866   */\n      dup5\n        /* \"#utility.yul\":5859:5898   */\n      add\n        /* \"#utility.yul\":5852:5898   */\n      swap2\n      pop\n        /* \"#utility.yul\":5629:5904   */\n      pop\n        /* \"#utility.yul\":5547:5904   */\n      swap3\n      swap2\n      pop\n      pop\n      jump\t// out\n        /* \"#utility.yul\":5910:6018   */\n    tag_160:\n        /* \"#utility.yul\":5987:6011   */\n      tag_268\n        /* \"#utility.yul\":6005:6010   */\n      dup2\n        /* \"#utility.yul\":5987:6011   */\n      tag_147\n      jump\t// in\n    tag_268:\n        /* \"#utility.yul\":5982:5985   */\n      dup3\n        /* \"#utility.yul\":5975:6012   */\n      mstore\n        /* \"#utility.yul\":5910:6018   */\n      pop\n      pop\n      jump\t// out\n        /* \"#utility.yul\":6024:6132   */\n    tag_161:\n        /* \"#utility.yul\":6101:6125   */\n      tag_270\n        /* \"#utility.yul\":6119:6124   */\n      dup2\n        /* \"#utility.yul\":6101:6125   */\n      tag_136\n      jump\t// in\n    tag_270:\n        /* \"#utility.yul\":6096:6099   */\n      dup3\n        /* \"#utility.yul\":6089:6126   */\n      mstore\n        /* \"#utility.yul\":6024:6132   */\n      pop\n      pop\n      jump\t// out\n        /* \"#utility.yul\":6202:7156   */\n    tag_162:\n        /* \"#utility.yul\":6303:6306   */\n      0x00\n        /* \"#utility.yul\":6339:6343   */\n      0x80\n        /* \"#utility.yul\":6334:6337   */\n      dup4\n        /* \"#utility.yul\":6330:6344   */\n      add\n        /* \"#utility.yul\":6430:6434   */\n      0x00\n        /* \"#utility.yul\":6423:6428   */\n      dup4\n        /* \"#utility.yul\":6419:6435   */\n      add\n        /* \"#utility.yul\":6413:6436   */\n      mload\n        /* \"#utility.yul\":6449:6512   */\n      tag_272\n        /* \"#utility.yul\":6506:6510   */\n      0x00\n        /* \"#utility.yul\":6501:6504   */\n      dup7\n        /* \"#utility.yul\":6497:6511   */\n      add\n        /* \"#utility.yul\":6483:6495   */\n      dup3\n        /* \"#utility.yul\":6449:6512   */\n      tag_157\n      jump\t// in\n    tag_272:\n        /* \"#utility.yul\":6354:6522   */\n      pop\n        /* \"#utility.yul\":6611:6615   */\n      0x20\n        /* \"#utility.yul\":6604:6609   */\n      dup4\n        /* \"#utility.yul\":6600:6616   */\n      add\n        /* \"#utility.yul\":6594:6617   */\n      mload\n        /* \"#utility.yul\":6664:6667   */\n      dup5\n        /* \"#utility.yul\":6658:6662   */\n      dup3\n        /* \"#utility.yul\":6654:6668   */\n      sub\n        /* \"#utility.yul\":6647:6651   */\n      0x20\n        /* \"#utility.yul\":6642:6645   */\n      dup7\n        /* \"#utility.yul\":6638:6652   */\n      add\n        /* \"#utility.yul\":6631:6669   */\n      mstore\n        /* \"#utility.yul\":6690:6763   */\n      tag_273\n        /* \"#utility.yul\":6758:6762   */\n      dup3\n        /* \"#utility.yul\":6744:6756   */\n      dup3\n        /* \"#utility.yul\":6690:6763   */\n      tag_159\n      jump\t// in\n    tag_273:\n        /* \"#utility.yul\":6682:6763   */\n      swap2\n      pop\n        /* \"#utility.yul\":6532:6774   */\n      pop\n        /* \"#utility.yul\":6857:6861   */\n      0x40\n        /* \"#utility.yul\":6850:6855   */\n      dup4\n        /* \"#utility.yul\":6846:6862   */\n      add\n        /* \"#utility.yul\":6840:6863   */\n      mload\n        /* \"#utility.yul\":6876:6939   */\n      tag_274\n        /* \"#utility.yul\":6933:6937   */\n      0x40\n        /* \"#utility.yul\":6928:6931   */\n      dup7\n        /* \"#utility.yul\":6924:6938   */\n      add\n        /* \"#utility.yul\":6910:6922   */\n      dup3\n        /* \"#utility.yul\":6876:6939   */\n      tag_160\n      jump\t// in\n    tag_274:\n        /* \"#utility.yul\":6784:6949   */\n      pop\n        /* \"#utility.yul\":7037:7041   */\n      0x60\n        /* \"#utility.yul\":7030:7035   */\n      dup4\n        /* \"#utility.yul\":7026:7042   */\n      add\n        /* \"#utility.yul\":7020:7043   */\n      mload\n        /* \"#utility.yul\":7056:7119   */\n      tag_275\n        /* \"#utility.yul\":7113:7117   */\n      0x60\n        /* \"#utility.yul\":7108:7111   */\n      dup7\n        /* \"#utility.yul\":7104:7118   */\n      add\n        /* \"#utility.yul\":7090:7102   */\n      dup3\n        /* \"#utility.yul\":7056:7119   */\n      tag_161\n      jump\t// in\n    tag_275:\n        /* \"#utility.yul\":6959:7129   */\n      pop\n        /* \"#utility.yul\":7146:7150   */\n      dup1\n        /* \"#utility.yul\":7139:7150   */\n      swap2\n      pop\n        /* \"#utility.yul\":6308:7156   */\n      pop\n        /* \"#utility.yul\":6202:7156   */\n      swap3\n      swap2\n      pop\n      pop\n      jump\t// out\n        /* \"#utility.yul\":7162:7402   */\n    tag_163:\n        /* \"#utility.yul\":7273:7283   */\n      0x00\n        /* \"#utility.yul\":7308:7396   */\n      tag_277\n        /* \"#utility.yul\":7392:7395   */\n      dup4\n        /* \"#utility.yul\":7384:7390   */\n      dup4\n        /* \"#utility.yul\":7308:7396   */\n      tag_162\n      jump\t// in\n    tag_277:\n        /* \"#utility.yul\":7294:7396   */\n      swap1\n      pop\n        /* \"#utility.yul\":7162:7402   */\n      swap3\n      swap2\n      pop\n      pop\n      jump\t// out\n        /* \"#utility.yul\":7408:7542   */\n    tag_164:\n        /* \"#utility.yul\":7499:7503   */\n      0x00\n        /* \"#utility.yul\":7531:7535   */\n      0x20\n        /* \"#utility.yul\":7526:7529   */\n      dup3\n        /* \"#utility.yul\":7522:7536   */\n      add\n        /* \"#utility.yul\":7514:7536   */\n      swap1\n      pop\n        /* \"#utility.yul\":7408:7542   */\n      swap2\n      swap1\n      pop\n      jump\t// out\n        /* \"#utility.yul\":7616:8695   */\n    tag_165:\n        /* \"#utility.yul\":7777:7780   */\n      0x00\n        /* \"#utility.yul\":7806:7881   */\n      tag_280\n        /* \"#utility.yul\":7875:7880   */\n      dup3\n        /* \"#utility.yul\":7806:7881   */\n      tag_154\n      jump\t// in\n    tag_280:\n        /* \"#utility.yul\":7897:8004   */\n      tag_281\n        /* \"#utility.yul\":7997:8003   */\n      dup2\n        /* \"#utility.yul\":7992:7995   */\n      dup6\n        /* \"#utility.yul\":7897:8004   */\n      tag_155\n      jump\t// in\n    tag_281:\n        /* \"#utility.yul\":7890:8004   */\n      swap4\n      pop\n        /* \"#utility.yul\":8030:8033   */\n      dup4\n        /* \"#utility.yul\":8075:8079   */\n      0x20\n        /* \"#utility.yul\":8067:8073   */\n      dup3\n        /* \"#utility.yul\":8063:8080   */\n      mul\n        /* \"#utility.yul\":8058:8061   */\n      dup6\n        /* \"#utility.yul\":8054:8081   */\n      add\n        /* \"#utility.yul\":8105:8182   */\n      tag_282\n        /* \"#utility.yul\":8176:8181   */\n      dup6\n        /* \"#utility.yul\":8105:8182   */\n      tag_156\n      jump\t// in\n    tag_282:\n        /* \"#utility.yul\":8205:8212   */\n      dup1\n        /* \"#utility.yul\":8236:8237   */\n      0x00\n        /* \"#utility.yul\":8221:8650   */\n    tag_283:\n        /* \"#utility.yul\":8246:8252   */\n      dup6\n        /* \"#utility.yul\":8243:8244   */\n      dup2\n        /* \"#utility.yul\":8240:8253   */\n      lt\n        /* \"#utility.yul\":8221:8650   */\n      iszero\n      tag_285\n      jumpi\n        /* \"#utility.yul\":8317:8326   */\n      dup5\n        /* \"#utility.yul\":8311:8315   */\n      dup5\n        /* \"#utility.yul\":8307:8327   */\n      sub\n        /* \"#utility.yul\":8302:8305   */\n      dup10\n        /* \"#utility.yul\":8295:8328   */\n      mstore\n        /* \"#utility.yul\":8368:8374   */\n      dup2\n        /* \"#utility.yul\":8362:8375   */\n      mload\n        /* \"#utility.yul\":8396:8502   */\n      tag_286\n        /* \"#utility.yul\":8497:8501   */\n      dup6\n        /* \"#utility.yul\":8482:8495   */\n      dup3\n        /* \"#utility.yul\":8396:8502   */\n      tag_163\n      jump\t// in\n    tag_286:\n        /* \"#utility.yul\":8388:8502   */\n      swap5\n      pop\n        /* \"#utility.yul\":8525:8606   */\n      tag_287\n        /* \"#utility.yul\":8599:8605   */\n      dup4\n        /* \"#utility.yul\":8525:8606   */\n      tag_164\n      jump\t// in\n    tag_287:\n        /* \"#utility.yul\":8515:8606   */\n      swap3\n      pop\n        /* \"#utility.yul\":8635:8639   */\n      0x20\n        /* \"#utility.yul\":8630:8633   */\n      dup11\n        /* \"#utility.yul\":8626:8640   */\n      add\n        /* \"#utility.yul\":8619:8640   */\n      swap10\n      pop\n        /* \"#utility.yul\":8281:8650   */\n      pop\n        /* \"#utility.yul\":8268:8269   */\n      0x01\n        /* \"#utility.yul\":8265:8266   */\n      dup2\n        /* \"#utility.yul\":8261:8270   */\n      add\n        /* \"#utility.yul\":8256:8270   */\n      swap1\n      pop\n        /* \"#utility.yul\":8221:8650   */\n      jump(tag_283)\n    tag_285:\n        /* \"#utility.yul\":8225:8239   */\n      pop\n        /* \"#utility.yul\":8666:8670   */\n      dup3\n        /* \"#utility.yul\":8659:8670   */\n      swap8\n      pop\n        /* \"#utility.yul\":8686:8689   */\n      dup8\n        /* \"#utility.yul\":8679:8689   */\n      swap6\n      pop\n        /* \"#utility.yul\":7782:8695   */\n      pop\n      pop\n      pop\n      pop\n      pop\n        /* \"#utility.yul\":7616:8695   */\n      swap3\n      swap2\n      pop\n      pop\n      jump\t// out\n        /* \"#utility.yul\":8701:9158   */\n    tag_24:\n        /* \"#utility.yul\":8886:8890   */\n      0x00\n        /* \"#utility.yul\":8924:8926   */\n      0x20\n        /* \"#utility.yul\":8913:8922   */\n      dup3\n        /* \"#utility.yul\":8909:8927   */\n      add\n        /* \"#utility.yul\":8901:8927   */\n      swap1\n      pop\n        /* \"#utility.yul\":8973:8982   */\n      dup2\n        /* \"#utility.yul\":8967:8971   */\n      dup2\n        /* \"#utility.yul\":8963:8983   */\n      sub\n        /* \"#utility.yul\":8959:8960   */\n      0x00\n        /* \"#utility.yul\":8948:8957   */\n      dup4\n        /* \"#utility.yul\":8944:8961   */\n      add\n        /* \"#utility.yul\":8937:8984   */\n      mstore\n        /* \"#utility.yul\":9001:9151   */\n      tag_289\n        /* \"#utility.yul\":9146:9150   */\n      dup2\n        /* \"#utility.yul\":9137:9143   */\n      dup5\n        /* \"#utility.yul\":9001:9151   */\n      tag_165\n      jump\t// in\n    tag_289:\n        /* \"#utility.yul\":8993:9151   */\n      swap1\n      pop\n        /* \"#utility.yul\":8701:9158   */\n      swap3\n      swap2\n      pop\n      pop\n      jump\t// out\n        /* \"#utility.yul\":9164:9286   */\n    tag_166:\n        /* \"#utility.yul\":9237:9261   */\n      tag_291\n        /* \"#utility.yul\":9255:9260   */\n      dup2\n        /* \"#utility.yul\":9237:9261   */\n      tag_147\n      jump\t// in\n    tag_291:\n        /* \"#utility.yul\":9230:9235   */\n      dup2\n        /* \"#utility.yul\":9227:9262   */\n      eq\n        /* \"#utility.yul\":9217:9280   */\n      tag_292\n      jumpi\n        /* \"#utility.yul\":9276:9277   */\n      0x00\n        /* \"#utility.yul\":9273:9274   */\n      0x00\n        /* \"#utility.yul\":9266:9278   */\n      revert\n        /* \"#utility.yul\":9217:9280   */\n    tag_292:\n        /* \"#utility.yul\":9164:9286   */\n      pop\n      jump\t// out\n        /* \"#utility.yul\":9292:9431   */\n    tag_167:\n        /* \"#utility.yul\":9338:9343   */\n      0x00\n        /* \"#utility.yul\":9376:9382   */\n      dup2\n        /* \"#utility.yul\":9363:9383   */\n      calldataload\n        /* \"#utility.yul\":9354:9383   */\n      swap1\n      pop\n        /* \"#utility.yul\":9392:9425   */\n      tag_294\n        /* \"#utility.yul\":9419:9424   */\n      dup2\n        /* \"#utility.yul\":9392:9425   */\n      tag_166\n      jump\t// in\n    tag_294:\n        /* \"#utility.yul\":9292:9431   */\n      swap3\n      swap2\n      pop\n      pop\n      jump\t// out\n        /* \"#utility.yul\":9437:9766   */\n    tag_30:\n        /* \"#utility.yul\":9496:9502   */\n      0x00\n        /* \"#utility.yul\":9545:9547   */\n      0x20\n        /* \"#utility.yul\":9533:9542   */\n      dup3\n        /* \"#utility.yul\":9524:9531   */\n      dup5\n        /* \"#utility.yul\":9520:9543   */\n      sub\n        /* \"#utility.yul\":9516:9548   */\n      slt\n        /* \"#utility.yul\":9513:9632   */\n      iszero\n      tag_296\n      jumpi\n        /* \"#utility.yul\":9551:9630   */\n      tag_297\n      tag_134\n      jump\t// in\n    tag_297:\n        /* \"#utility.yul\":9513:9632   */\n    tag_296:\n        /* \"#utility.yul\":9671:9672   */\n      0x00\n        /* \"#utility.yul\":9696:9749   */\n      tag_298\n        /* \"#utility.yul\":9741:9748   */\n      dup5\n        /* \"#utility.yul\":9732:9738   */\n      dup3\n        /* \"#utility.yul\":9721:9730   */\n      dup6\n        /* \"#utility.yul\":9717:9739   */\n      add\n        /* \"#utility.yul\":9696:9749   */\n      tag_167\n      jump\t// in\n    tag_298:\n        /* \"#utility.yul\":9686:9749   */\n      swap2\n      pop\n        /* \"#utility.yul\":9642:9759   */\n      pop\n        /* \"#utility.yul\":9437:9766   */\n      swap3\n      swap2\n      pop\n      pop\n      jump\t// out\n        /* \"#utility.yul\":9772:9994   */\n    tag_40:\n        /* \"#utility.yul\":9865:9869   */\n      0x00\n        /* \"#utility.yul\":9903:9905   */\n      0x20\n        /* \"#utility.yul\":9892:9901   */\n      dup3\n        /* \"#utility.yul\":9888:9906   */\n      add\n        /* \"#utility.yul\":9880:9906   */\n      swap1\n      pop\n        /* \"#utility.yul\":9916:9987   */\n      tag_300\n        /* \"#utility.yul\":9984:9985   */\n      0x00\n        /* \"#utility.yul\":9973:9982   */\n      dup4\n        /* \"#utility.yul\":9969:9986   */\n      add\n        /* \"#utility.yul\":9960:9966   */\n      dup5\n        /* \"#utility.yul\":9916:9987   */\n      tag_148\n      jump\t// in\n    tag_300:\n        /* \"#utility.yul\":9772:9994   */\n      swap3\n      swap2\n      pop\n      pop\n      jump\t// out\n        /* \"#utility.yul\":10000:10117   */\n    tag_168:\n        /* \"#utility.yul\":10109:10110   */\n      0x00\n        /* \"#utility.yul\":10106:10107   */\n      0x00\n        /* \"#utility.yul\":10099:10111   */\n      revert\n        /* \"#utility.yul\":10123:10303   */\n    tag_76:\n        /* \"#utility.yul\":10171:10248   */\n      0x4e487b7100000000000000000000000000000000000000000000000000000000\n        /* \"#utility.yul\":10168:10169   */\n      0x00\n        /* \"#utility.yul\":10161:10249   */\n      mstore\n        /* \"#utility.yul\":10268:10272   */\n      0x41\n        /* \"#utility.yul\":10265:10266   */\n      0x04\n        /* \"#utility.yul\":10258:10273   */\n      mstore\n        /* \"#utility.yul\":10292:10296   */\n      0x24\n        /* \"#utility.yul\":10289:10290   */\n      0x00\n        /* \"#utility.yul\":10282:10297   */\n      revert\n        /* \"#utility.yul\":10309:10590   */\n    tag_169:\n        /* \"#utility.yul\":10392:10419   */\n      tag_304\n        /* \"#utility.yul\":10414:10418   */\n      dup3\n        /* \"#utility.yul\":10392:10419   */\n      tag_145\n      jump\t// in\n    tag_304:\n        /* \"#utility.yul\":10384:10390   */\n      dup2\n        /* \"#utility.yul\":10380:10420   */\n      add\n        /* \"#utility.yul\":10522:10528   */\n      dup2\n        /* \"#utility.yul\":10510:10520   */\n      dup2\n        /* \"#utility.yul\":10507:10529   */\n      lt\n        /* \"#utility.yul\":10486:10504   */\n      0xffffffffffffffff\n        /* \"#utility.yul\":10474:10484   */\n      dup3\n        /* \"#utility.yul\":10471:10505   */\n      gt\n        /* \"#utility.yul\":10468:10530   */\n      or\n        /* \"#utility.yul\":10465:10553   */\n      iszero\n      tag_305\n      jumpi\n        /* \"#utility.yul\":10533:10551   */\n      tag_306\n      tag_76\n      jump\t// in\n    tag_306:\n        /* \"#utility.yul\":10465:10553   */\n    tag_305:\n        /* \"#utility.yul\":10573:10583   */\n      dup1\n        /* \"#utility.yul\":10569:10571   */\n      0x40\n        /* \"#utility.yul\":10562:10584   */\n      mstore\n        /* \"#utility.yul\":10352:10590   */\n      pop\n        /* \"#utility.yul\":10309:10590   */\n      pop\n      pop\n      jump\t// out\n        /* \"#utility.yul\":10596:10725   */\n    tag_170:\n        /* \"#utility.yul\":10630:10636   */\n      0x00\n        /* \"#utility.yul\":10657:10677   */\n      tag_308\n      tag_133\n      jump\t// in\n    tag_308:\n        /* \"#utility.yul\":10647:10677   */\n      swap1\n      pop\n        /* \"#utility.yul\":10686:10719   */\n      tag_309\n        /* \"#utility.yul\":10714:10718   */\n      dup3\n        /* \"#utility.yul\":10706:10712   */\n      dup3\n        /* \"#utility.yul\":10686:10719   */\n      tag_169\n      jump\t// in\n    tag_309:\n        /* \"#utility.yul\":10596:10725   */\n      swap2\n      swap1\n      pop\n      jump\t// out\n        /* \"#utility.yul\":10731:11039   */\n    tag_171:\n        /* \"#utility.yul\":10793:10797   */\n      0x00\n        /* \"#utility.yul\":10883:10901   */\n      0xffffffffffffffff\n        /* \"#utility.yul\":10875:10881   */\n      dup3\n        /* \"#utility.yul\":10872:10902   */\n      gt\n        /* \"#utility.yul\":10869:10925   */\n      iszero\n      tag_311\n      jumpi\n        /* \"#utility.yul\":10905:10923   */\n      tag_312\n      tag_76\n      jump\t// in\n    tag_312:\n        /* \"#utility.yul\":10869:10925   */\n    tag_311:\n        /* \"#utility.yul\":10943:10972   */\n      tag_313\n        /* \"#utility.yul\":10965:10971   */\n      dup3\n        /* \"#utility.yul\":10943:10972   */\n      tag_145\n      jump\t// in\n    tag_313:\n        /* \"#utility.yul\":10935:10972   */\n      swap1\n      pop\n        /* \"#utility.yul\":11027:11031   */\n      0x20\n        /* \"#utility.yul\":11021:11025   */\n      dup2\n        /* \"#utility.yul\":11017:11032   */\n      add\n        /* \"#utility.yul\":11009:11032   */\n      swap1\n      pop\n        /* \"#utility.yul\":10731:11039   */\n      swap2\n      swap1\n      pop\n      jump\t// out\n        /* \"#utility.yul\":11045:11193   */\n    tag_172:\n        /* \"#utility.yul\":11143:11149   */\n      dup3\n        /* \"#utility.yul\":11138:11141   */\n      dup2\n        /* \"#utility.yul\":11133:11136   */\n      dup4\n        /* \"#utility.yul\":11120:11150   */\n      calldatacopy\n        /* \"#utility.yul\":11184:11185   */\n      0x00\n        /* \"#utility.yul\":11175:11181   */\n      dup4\n        /* \"#utility.yul\":11170:11173   */\n      dup4\n        /* \"#utility.yul\":11166:11182   */\n      add\n        /* \"#utility.yul\":11159:11186   */\n      mstore\n        /* \"#utility.yul\":11045:11193   */\n      pop\n      pop\n      pop\n      jump\t// out\n        /* \"#utility.yul\":11199:11624   */\n    tag_173:\n        /* \"#utility.yul\":11277:11282   */\n      0x00\n        /* \"#utility.yul\":11302:11368   */\n      tag_316\n        /* \"#utility.yul\":11318:11367   */\n      tag_317\n        /* \"#utility.yul\":11360:11366   */\n      dup5\n        /* \"#utility.yul\":11318:11367   */\n      tag_171\n      jump\t// in\n    tag_317:\n        /* \"#utility.yul\":11302:11368   */\n      tag_170\n      jump\t// in\n    tag_316:\n        /* \"#utility.yul\":11293:11368   */\n      swap1\n      pop\n        /* \"#utility.yul\":11391:11397   */\n      dup3\n        /* \"#utility.yul\":11384:11389   */\n      dup2\n        /* \"#utility.yul\":11377:11398   */\n      mstore\n        /* \"#utility.yul\":11429:11433   */\n      0x20\n        /* \"#utility.yul\":11422:11427   */\n      dup2\n        /* \"#utility.yul\":11418:11434   */\n      add\n        /* \"#utility.yul\":11467:11470   */\n      dup5\n        /* \"#utility.yul\":11458:11464   */\n      dup5\n        /* \"#utility.yul\":11453:11456   */\n      dup5\n        /* \"#utility.yul\":11449:11465   */\n      add\n        /* \"#utility.yul\":11446:11471   */\n      gt\n        /* \"#utility.yul\":11443:11555   */\n      iszero\n      tag_318\n      jumpi\n        /* \"#utility.yul\":11474:11553   */\n      tag_319\n      tag_168\n      jump\t// in\n    tag_319:\n        /* \"#utility.yul\":11443:11555   */\n    tag_318:\n        /* \"#utility.yul\":11564:11618   */\n      tag_320\n        /* \"#utility.yul\":11611:11617   */\n      dup5\n        /* \"#utility.yul\":11606:11609   */\n      dup3\n        /* \"#utility.yul\":11601:11604   */\n      dup6\n        /* \"#utility.yul\":11564:11618   */\n      tag_172\n      jump\t// in\n    tag_320:\n        /* \"#utility.yul\":11283:11624   */\n      pop\n        /* \"#utility.yul\":11199:11624   */\n      swap4\n      swap3\n      pop\n      pop\n      pop\n      jump\t// out\n        /* \"#utility.yul\":11644:11984   */\n    tag_174:\n        /* \"#utility.yul\":11700:11705   */\n      0x00\n        /* \"#utility.yul\":11749:11752   */\n      dup3\n        /* \"#utility.yul\":11742:11746   */\n      0x1f\n        /* \"#utility.yul\":11734:11740   */\n      dup4\n        /* \"#utility.yul\":11730:11747   */\n      add\n        /* \"#utility.yul\":11726:11753   */\n      slt\n        /* \"#utility.yul\":11716:11838   */\n      tag_322\n      jumpi\n        /* \"#utility.yul\":11757:11836   */\n      tag_323\n      tag_150\n      jump\t// in\n    tag_323:\n        /* \"#utility.yul\":11716:11838   */\n    tag_322:\n        /* \"#utility.yul\":11874:11880   */\n      dup2\n        /* \"#utility.yul\":11861:11881   */\n      calldataload\n        /* \"#utility.yul\":11899:11978   */\n      tag_324\n        /* \"#utility.yul\":11974:11977   */\n      dup5\n        /* \"#utility.yul\":11966:11972   */\n      dup3\n        /* \"#utility.yul\":11959:11963   */\n      0x20\n        /* \"#utility.yul\":11951:11957   */\n      dup7\n        /* \"#utility.yul\":11947:11964   */\n      add\n        /* \"#utility.yul\":11899:11978   */\n      tag_173\n      jump\t// in\n    tag_324:\n        /* \"#utility.yul\":11890:11978   */\n      swap2\n      pop\n        /* \"#utility.yul\":11706:11984   */\n      pop\n        /* \"#utility.yul\":11644:11984   */\n      swap3\n      swap2\n      pop\n      pop\n      jump\t// out\n        /* \"#utility.yul\":11990:12644   */\n    tag_47:\n        /* \"#utility.yul\":12068:12074   */\n      0x00\n        /* \"#utility.yul\":12076:12082   */\n      0x00\n        /* \"#utility.yul\":12125:12127   */\n      0x40\n        /* \"#utility.yul\":12113:12122   */\n      dup4\n        /* \"#utility.yul\":12104:12111   */\n      dup6\n        /* \"#utility.yul\":12100:12123   */\n      sub\n        /* \"#utility.yul\":12096:12128   */\n      slt\n        /* \"#utility.yul\":12093:12212   */\n      iszero\n      tag_326\n      jumpi\n        /* \"#utility.yul\":12131:12210   */\n      tag_327\n      tag_134\n      jump\t// in\n    tag_327:\n        /* \"#utility.yul\":12093:12212   */\n    tag_326:\n        /* \"#utility.yul\":12279:12280   */\n      0x00\n        /* \"#utility.yul\":12268:12277   */\n      dup4\n        /* \"#utility.yul\":12264:12281   */\n      add\n        /* \"#utility.yul\":12251:12282   */\n      calldataload\n        /* \"#utility.yul\":12309:12327   */\n      0xffffffffffffffff\n        /* \"#utility.yul\":12301:12307   */\n      dup2\n        /* \"#utility.yul\":12298:12328   */\n      gt\n        /* \"#utility.yul\":12295:12412   */\n      iszero\n      tag_328\n      jumpi\n        /* \"#utility.yul\":12331:12410   */\n      tag_329\n      tag_135\n      jump\t// in\n    tag_329:\n        /* \"#utility.yul\":12295:12412   */\n    tag_328:\n        /* \"#utility.yul\":12436:12499   */\n      tag_330\n        /* \"#utility.yul\":12491:12498   */\n      dup6\n        /* \"#utility.yul\":12482:12488   */\n      dup3\n        /* \"#utility.yul\":12471:12480   */\n      dup7\n        /* \"#utility.yul\":12467:12489   */\n      add\n        /* \"#utility.yul\":12436:12499   */\n      tag_174\n      jump\t// in\n    tag_330:\n        /* \"#utility.yul\":12426:12499   */\n      swap3\n      pop\n        /* \"#utility.yul\":12222:12509   */\n      pop\n        /* \"#utility.yul\":12548:12550   */\n      0x20\n        /* \"#utility.yul\":12574:12627   */\n      tag_331\n        /* \"#utility.yul\":12619:12626   */\n      dup6\n        /* \"#utility.yul\":12610:12616   */\n      dup3\n        /* \"#utility.yul\":12599:12608   */\n      dup7\n        /* \"#utility.yul\":12595:12617   */\n      add\n        /* \"#utility.yul\":12574:12627   */\n      tag_167\n      jump\t// in\n    tag_331:\n        /* \"#utility.yul\":12564:12627   */\n      swap2\n      pop\n        /* \"#utility.yul\":12519:12637   */\n      pop\n        /* \"#utility.yul\":11990:12644   */\n      swap3\n      pop\n      swap3\n      swap1\n      pop\n      jump\t// out\n        /* \"#utility.yul\":12650:12872   */\n    tag_50:\n        /* \"#utility.yul\":12743:12747   */\n      0x00\n        /* \"#utility.yul\":12781:12783   */\n      0x20\n        /* \"#utility.yul\":12770:12779   */\n      dup3\n        /* \"#utility.yul\":12766:12784   */\n      add\n        /* \"#utility.yul\":12758:12784   */\n      swap1\n      pop\n        /* \"#utility.yul\":12794:12865   */\n      tag_333\n        /* \"#utility.yul\":12862:12863   */\n      0x00\n        /* \"#utility.yul\":12851:12860   */\n      dup4\n        /* \"#utility.yul\":12847:12864   */\n      add\n        /* \"#utility.yul\":12838:12844   */\n      dup5\n        /* \"#utility.yul\":12794:12865   */\n      tag_149\n      jump\t// in\n    tag_333:\n        /* \"#utility.yul\":12650:12872   */\n      swap3\n      swap2\n      pop\n      pop\n      jump\t// out\n        /* \"#utility.yul\":12878:13051   */\n    tag_175:\n        /* \"#utility.yul\":13018:13043   */\n      0x4e6f20736520656e636f6e74726f206c61206669726d61000000000000000000\n        /* \"#utility.yul\":13014:13015   */\n      0x00\n        /* \"#utility.yul\":13006:13012   */\n      dup3\n        /* \"#utility.yul\":13002:13016   */\n      add\n        /* \"#utility.yul\":12995:13044   */\n      mstore\n        /* \"#utility.yul\":12878:13051   */\n      pop\n      jump\t// out\n        /* \"#utility.yul\":13057:13423   */\n    tag_176:\n        /* \"#utility.yul\":13199:13202   */\n      0x00\n        /* \"#utility.yul\":13220:13287   */\n      tag_336\n        /* \"#utility.yul\":13284:13286   */\n      0x17\n        /* \"#utility.yul\":13279:13282   */\n      dup4\n        /* \"#utility.yul\":13220:13287   */\n      tag_143\n      jump\t// in\n    tag_336:\n        /* \"#utility.yul\":13213:13287   */\n      swap2\n      pop\n        /* \"#utility.yul\":13296:13389   */\n      tag_337\n        /* \"#utility.yul\":13385:13388   */\n      dup3\n        /* \"#utility.yul\":13296:13389   */\n      tag_175\n      jump\t// in\n    tag_337:\n        /* \"#utility.yul\":13414:13416   */\n      0x20\n        /* \"#utility.yul\":13409:13412   */\n      dup3\n        /* \"#utility.yul\":13405:13417   */\n      add\n        /* \"#utility.yul\":13398:13417   */\n      swap1\n      pop\n        /* \"#utility.yul\":13057:13423   */\n      swap2\n      swap1\n      pop\n      jump\t// out\n        /* \"#utility.yul\":13429:13848   */\n    tag_58:\n        /* \"#utility.yul\":13595:13599   */\n      0x00\n        /* \"#utility.yul\":13633:13635   */\n      0x20\n        /* \"#utility.yul\":13622:13631   */\n      dup3\n        /* \"#utility.yul\":13618:13636   */\n      add\n        /* \"#utility.yul\":13610:13636   */\n      swap1\n      pop\n        /* \"#utility.yul\":13682:13691   */\n      dup2\n        /* \"#utility.yul\":13676:13680   */\n      dup2\n        /* \"#utility.yul\":13672:13692   */\n      sub\n        /* \"#utility.yul\":13668:13669   */\n      0x00\n        /* \"#utility.yul\":13657:13666   */\n      dup4\n        /* \"#utility.yul\":13653:13670   */\n      add\n        /* \"#utility.yul\":13646:13693   */\n      mstore\n        /* \"#utility.yul\":13710:13841   */\n      tag_339\n        /* \"#utility.yul\":13836:13840   */\n      dup2\n        /* \"#utility.yul\":13710:13841   */\n      tag_176\n      jump\t// in\n    tag_339:\n        /* \"#utility.yul\":13702:13841   */\n      swap1\n      pop\n        /* \"#utility.yul\":13429:13848   */\n      swap2\n      swap1\n      pop\n      jump\t// out\n        /* \"#utility.yul\":13854:14034   */\n    tag_61:\n        /* \"#utility.yul\":13902:13979   */\n      0x4e487b7100000000000000000000000000000000000000000000000000000000\n        /* \"#utility.yul\":13899:13900   */\n      0x00\n        /* \"#utility.yul\":13892:13980   */\n      mstore\n        /* \"#utility.yul\":13999:14003   */\n      0x32\n        /* \"#utility.yul\":13996:13997   */\n      0x04\n        /* \"#utility.yul\":13989:14004   */\n      mstore\n        /* \"#utility.yul\":14023:14027   */\n      0x24\n        /* \"#utility.yul\":14020:14021   */\n      0x00\n        /* \"#utility.yul\":14013:14028   */\n      revert\n        /* \"#utility.yul\":14040:14220   */\n    tag_177:\n        /* \"#utility.yul\":14088:14165   */\n      0x4e487b7100000000000000000000000000000000000000000000000000000000\n        /* \"#utility.yul\":14085:14086   */\n      0x00\n        /* \"#utility.yul\":14078:14166   */\n      mstore\n        /* \"#utility.yul\":14185:14189   */\n      0x22\n        /* \"#utility.yul\":14182:14183   */\n      0x04\n        /* \"#utility.yul\":14175:14190   */\n      mstore\n        /* \"#utility.yul\":14209:14213   */\n      0x24\n        /* \"#utility.yul\":14206:14207   */\n      0x00\n        /* \"#utility.yul\":14199:14214   */\n      revert\n        /* \"#utility.yul\":14226:14546   */\n    tag_64:\n        /* \"#utility.yul\":14270:14276   */\n      0x00\n        /* \"#utility.yul\":14307:14308   */\n      0x02\n        /* \"#utility.yul\":14301:14305   */\n      dup3\n        /* \"#utility.yul\":14297:14309   */\n      div\n        /* \"#utility.yul\":14287:14309   */\n      swap1\n      pop\n        /* \"#utility.yul\":14354:14355   */\n      0x01\n        /* \"#utility.yul\":14348:14352   */\n      dup3\n        /* \"#utility.yul\":14344:14356   */\n      and\n        /* \"#utility.yul\":14375:14393   */\n      dup1\n        /* \"#utility.yul\":14365:14446   */\n      tag_343\n      jumpi\n        /* \"#utility.yul\":14431:14435   */\n      0x7f\n        /* \"#utility.yul\":14423:14429   */\n      dup3\n        /* \"#utility.yul\":14419:14436   */\n      and\n        /* \"#utility.yul\":14409:14436   */\n      swap2\n      pop\n        /* \"#utility.yul\":14365:14446   */\n    tag_343:\n        /* \"#utility.yul\":14493:14495   */\n      0x20\n        /* \"#utility.yul\":14485:14491   */\n      dup3\n        /* \"#utility.yul\":14482:14496   */\n      lt\n        /* \"#utility.yul\":14462:14480   */\n      dup2\n        /* \"#utility.yul\":14459:14497   */\n      sub\n        /* \"#utility.yul\":14456:14540   */\n      tag_344\n      jumpi\n        /* \"#utility.yul\":14512:14530   */\n      tag_345\n      tag_177\n      jump\t// in\n    tag_345:\n        /* \"#utility.yul\":14456:14540   */\n    tag_344:\n        /* \"#utility.yul\":14277:14546   */\n      pop\n        /* \"#utility.yul\":14226:14546   */\n      swap2\n      swap1\n      pop\n      jump\t// out\n        /* \"#utility.yul\":14552:14700   */\n    tag_178:\n        /* \"#utility.yul\":14654:14665   */\n      0x00\n        /* \"#utility.yul\":14691:14694   */\n      dup2\n        /* \"#utility.yul\":14676:14694   */\n      swap1\n      pop\n        /* \"#utility.yul\":14552:14700   */\n      swap3\n      swap2\n      pop\n      pop\n      jump\t// out\n        /* \"#utility.yul\":14730:15060   */\n    tag_179:\n        /* \"#utility.yul\":14846:14849   */\n      0x00\n        /* \"#utility.yul\":14867:14956   */\n      tag_348\n        /* \"#utility.yul\":14949:14955   */\n      dup4\n        /* \"#utility.yul\":14944:14947   */\n      dup6\n        /* \"#utility.yul\":14867:14956   */\n      tag_178\n      jump\t// in\n    tag_348:\n        /* \"#utility.yul\":14860:14956   */\n      swap4\n      pop\n        /* \"#utility.yul\":14966:15022   */\n      tag_349\n        /* \"#utility.yul\":15015:15021   */\n      dup4\n        /* \"#utility.yul\":15010:15013   */\n      dup6\n        /* \"#utility.yul\":15003:15008   */\n      dup5\n        /* \"#utility.yul\":14966:15022   */\n      tag_172\n      jump\t// in\n    tag_349:\n        /* \"#utility.yul\":15047:15053   */\n      dup3\n        /* \"#utility.yul\":15042:15045   */\n      dup5\n        /* \"#utility.yul\":15038:15054   */\n      add\n        /* \"#utility.yul\":15031:15054   */\n      swap1\n      pop\n        /* \"#utility.yul\":14730:15060   */\n      swap4\n      swap3\n      pop\n      pop\n      pop\n      jump\t// out\n        /* \"#utility.yul\":15066:15361   */\n    tag_71:\n        /* \"#utility.yul\":15208:15211   */\n      0x00\n        /* \"#utility.yul\":15230:15335   */\n      tag_351\n        /* \"#utility.yul\":15331:15334   */\n      dup3\n        /* \"#utility.yul\":15322:15328   */\n      dup5\n        /* \"#utility.yul\":15314:15320   */\n      dup7\n        /* \"#utility.yul\":15230:15335   */\n      tag_179\n      jump\t// in\n    tag_351:\n        /* \"#utility.yul\":15223:15335   */\n      swap2\n      pop\n        /* \"#utility.yul\":15352:15355   */\n      dup2\n        /* \"#utility.yul\":15345:15355   */\n      swap1\n      pop\n        /* \"#utility.yul\":15066:15361   */\n      swap4\n      swap3\n      pop\n      pop\n      pop\n      jump\t// out\n        /* \"#utility.yul\":15367:15446   */\n    tag_180:\n        /* \"#utility.yul\":15406:15413   */\n      0x00\n        /* \"#utility.yul\":15435:15440   */\n      dup2\n        /* \"#utility.yul\":15424:15440   */\n      swap1\n      pop\n        /* \"#utility.yul\":15367:15446   */\n      swap2\n      swap1\n      pop\n      jump\t// out\n        /* \"#utility.yul\":15452:15609   */\n    tag_181:\n        /* \"#utility.yul\":15557:15602   */\n      tag_354\n        /* \"#utility.yul\":15577:15601   */\n      tag_355\n        /* \"#utility.yul\":15595:15600   */\n      dup3\n        /* \"#utility.yul\":15577:15601   */\n      tag_147\n      jump\t// in\n    tag_355:\n        /* \"#utility.yul\":15557:15602   */\n      tag_180\n      jump\t// in\n    tag_354:\n        /* \"#utility.yul\":15552:15555   */\n      dup3\n        /* \"#utility.yul\":15545:15603   */\n      mstore\n        /* \"#utility.yul\":15452:15609   */\n      pop\n      pop\n      jump\t// out\n        /* \"#utility.yul\":15615:16051   */\n    tag_98:\n        /* \"#utility.yul\":15785:15788   */\n      0x00\n        /* \"#utility.yul\":15807:15912   */\n      tag_357\n        /* \"#utility.yul\":15908:15911   */\n      dup3\n        /* \"#utility.yul\":15899:15905   */\n      dup6\n        /* \"#utility.yul\":15891:15897   */\n      dup8\n        /* \"#utility.yul\":15807:15912   */\n      tag_179\n      jump\t// in\n    tag_357:\n        /* \"#utility.yul\":15800:15912   */\n      swap2\n      pop\n        /* \"#utility.yul\":15922:15997   */\n      tag_358\n        /* \"#utility.yul\":15993:15996   */\n      dup3\n        /* \"#utility.yul\":15984:15990   */\n      dup5\n        /* \"#utility.yul\":15922:15997   */\n      tag_181\n      jump\t// in\n    tag_358:\n        /* \"#utility.yul\":16022:16024   */\n      0x20\n        /* \"#utility.yul\":16017:16020   */\n      dup3\n        /* \"#utility.yul\":16013:16025   */\n      add\n        /* \"#utility.yul\":16006:16025   */\n      swap2\n      pop\n        /* \"#utility.yul\":16042:16045   */\n      dup2\n        /* \"#utility.yul\":16035:16045   */\n      swap1\n      pop\n        /* \"#utility.yul\":15615:16051   */\n      swap5\n      swap4\n      pop\n      pop\n      pop\n      pop\n      jump\t// out\n        /* \"#utility.yul\":16057:16198   */\n    tag_182:\n        /* \"#utility.yul\":16106:16110   */\n      0x00\n        /* \"#utility.yul\":16129:16132   */\n      dup2\n        /* \"#utility.yul\":16121:16132   */\n      swap1\n      pop\n        /* \"#utility.yul\":16152:16155   */\n      dup2\n        /* \"#utility.yul\":16149:16150   */\n      0x00\n        /* \"#utility.yul\":16142:16156   */\n      mstore\n        /* \"#utility.yul\":16186:16190   */\n      0x20\n        /* \"#utility.yul\":16183:16184   */\n      0x00\n        /* \"#utility.yul\":16173:16191   */\n      keccak256\n        /* \"#utility.yul\":16165:16191   */\n      swap1\n      pop\n        /* \"#utility.yul\":16057:16198   */\n      swap2\n      swap1\n      pop\n      jump\t// out\n        /* \"#utility.yul\":16204:16297   */\n    tag_183:\n        /* \"#utility.yul\":16241:16247   */\n      0x00\n        /* \"#utility.yul\":16288:16290   */\n      0x20\n        /* \"#utility.yul\":16283:16285   */\n      0x1f\n        /* \"#utility.yul\":16276:16281   */\n      dup4\n        /* \"#utility.yul\":16272:16286   */\n      add\n        /* \"#utility.yul\":16268:16291   */\n      div\n        /* \"#utility.yul\":16258:16291   */\n      swap1\n      pop\n        /* \"#utility.yul\":16204:16297   */\n      swap2\n      swap1\n      pop\n      jump\t// out\n        /* \"#utility.yul\":16303:16410   */\n    tag_184:\n        /* \"#utility.yul\":16347:16355   */\n      0x00\n        /* \"#utility.yul\":16397:16402   */\n      dup3\n        /* \"#utility.yul\":16391:16395   */\n      dup3\n        /* \"#utility.yul\":16387:16403   */\n      shl\n        /* \"#utility.yul\":16366:16403   */\n      swap1\n      pop\n        /* \"#utility.yul\":16303:16410   */\n      swap3\n      swap2\n      pop\n      pop\n      jump\t// out\n        /* \"#utility.yul\":16416:16809   */\n    tag_185:\n        /* \"#utility.yul\":16485:16491   */\n      0x00\n        /* \"#utility.yul\":16535:16536   */\n      0x08\n        /* \"#utility.yul\":16523:16533   */\n      dup4\n        /* \"#utility.yul\":16519:16537   */\n      mul\n        /* \"#utility.yul\":16558:16655   */\n      tag_363\n        /* \"#utility.yul\":16588:16654   */\n      0xffffffffffffffffffffffffffffffffffffffffffffffffffffffffffffffff\n        /* \"#utility.yul\":16577:16586   */\n      dup3\n        /* \"#utility.yul\":16558:16655   */\n      tag_184\n      jump\t// in\n    tag_363:\n        /* \"#utility.yul\":16676:16715   */\n      tag_364\n        /* \"#utility.yul\":16706:16714   */\n      dup7\n        /* \"#utility.yul\":16695:16704   */\n      dup4\n        /* \"#utility.yul\":16676:16715   */\n      tag_184\n      jump\t// in\n    tag_364:\n        /* \"#utility.yul\":16664:16715   */\n      swap6\n      pop\n        /* \"#utility.yul\":16748:16752   */\n      dup1\n        /* \"#utility.yul\":16744:16753   */\n      not\n        /* \"#utility.yul\":16737:16742   */\n      dup5\n        /* \"#utility.yul\":16733:16754   */\n      and\n        /* \"#utility.yul\":16724:16754   */\n      swap4\n      pop\n        /* \"#utility.yul\":16797:16801   */\n      dup1\n        /* \"#utility.yul\":16787:16795   */\n      dup7\n        /* \"#utility.yul\":16783:16802   */\n      and\n        /* \"#utility.yul\":16776:16781   */\n      dup5\n        /* \"#utility.yul\":16773:16803   */\n      or\n        /* \"#utility.yul\":16763:16803   */\n      swap3\n      pop\n        /* \"#utility.yul\":16492:16809   */\n      pop\n      pop\n        /* \"#utility.yul\":16416:16809   */\n      swap4\n      swap3\n      pop\n      pop\n      pop\n      jump\t// out\n        /* \"#utility.yul\":16815:16875   */\n    tag_186:\n        /* \"#utility.yul\":16843:16846   */\n      0x00\n        /* \"#utility.yul\":16864:16869   */\n      dup2\n        /* \"#utility.yul\":16857:16869   */\n      swap1\n      pop\n        /* \"#utility.yul\":16815:16875   */\n      swap2\n      swap1\n      pop\n      jump\t// out\n        /* \"#utility.yul\":16881:17023   */\n    tag_187:\n        /* \"#utility.yul\":16931:16940   */\n      0x00\n        /* \"#utility.yul\":16964:17017   */\n      tag_367\n        /* \"#utility.yul\":16982:17016   */\n      tag_368\n        /* \"#utility.yul\":16991:17015   */\n      tag_369\n        /* \"#utility.yul\":17009:17014   */\n      dup5\n        /* \"#utility.yul\":16991:17015   */\n      tag_147\n      jump\t// in\n    tag_369:\n        /* \"#utility.yul\":16982:17016   */\n      tag_186\n      jump\t// in\n    tag_368:\n        /* \"#utility.yul\":16964:17017   */\n      tag_147\n      jump\t// in\n    tag_367:\n        /* \"#utility.yul\":16951:17017   */\n      swap1\n      pop\n        /* \"#utility.yul\":16881:17023   */\n      swap2\n      swap1\n      pop\n      jump\t// out\n        /* \"#utility.yul\":17029:17104   */\n    tag_188:\n        /* \"#utility.yul\":17072:17075   */\n      0x00\n        /* \"#utility.yul\":17093:17098   */\n      dup2\n        /* \"#utility.yul\":17086:17098   */\n      swap1\n      pop\n        /* \"#utility.yul\":17029:17104   */\n      swap2\n      swap1\n      pop\n      jump\t// out\n        /* \"#utility.yul\":17110:17379   */\n    tag_189:\n        /* \"#utility.yul\":17220:17259   */\n      tag_372\n        /* \"#utility.yul\":17251:17258   */\n      dup4\n        /* \"#utility.yul\":17220:17259   */\n      tag_187\n      jump\t// in\n    tag_372:\n        /* \"#utility.yul\":17281:17372   */\n      tag_373\n        /* \"#utility.yul\":17330:17371   */\n      tag_374\n        /* \"#utility.yul\":17354:17370   */\n      dup3\n        /* \"#utility.yul\":17330:17371   */\n      tag_188\n      jump\t// in\n    tag_374:\n        /* \"#utility.yul\":17322:17328   */\n      dup5\n        /* \"#utility.yul\":17315:17319   */\n      dup5\n        /* \"#utility.yul\":17309:17320   */\n      sload\n        /* \"#utility.yul\":17281:17372   */\n      tag_185\n      jump\t// in\n    tag_373:\n        /* \"#utility.yul\":17275:17279   */\n      dup3\n        /* \"#utility.yul\":17268:17373   */\n      sstore\n        /* \"#utility.yul\":17186:17379   */\n      pop\n        /* \"#utility.yul\":17110:17379   */\n      pop\n      pop\n      pop\n      jump\t// out\n        /* \"#utility.yul\":17385:17458   */\n    tag_190:\n        /* \"#utility.yul\":17430:17433   */\n      0x00\n        /* \"#utility.yul\":17451:17452   */\n      0x00\n        /* \"#utility.yul\":17444:17452   */\n      swap1\n      pop\n        /* \"#utility.yul\":17385:17458   */\n      swap1\n      jump\t// out\n        /* \"#utility.yul\":17464:17653   */\n    tag_191:\n        /* \"#utility.yul\":17541:17573   */\n      tag_377\n      tag_190\n      jump\t// in\n    tag_377:\n        /* \"#utility.yul\":17582:17647   */\n      tag_378\n        /* \"#utility.yul\":17640:17646   */\n      dup2\n        /* \"#utility.yul\":17632:17638   */\n      dup5\n        /* \"#utility.yul\":17626:17630   */\n      dup5\n        /* \"#utility.yul\":17582:17647   */\n      tag_189\n      jump\t// in\n    tag_378:\n        /* \"#utility.yul\":17517:17653   */\n      pop\n        /* \"#utility.yul\":17464:17653   */\n      pop\n      pop\n      jump\t// out\n        /* \"#utility.yul\":17659:17845   */\n    tag_192:\n        /* \"#utility.yul\":17719:17839   */\n    tag_380:\n        /* \"#utility.yul\":17736:17739   */\n      dup2\n        /* \"#utility.yul\":17729:17734   */\n      dup2\n        /* \"#utility.yul\":17726:17740   */\n      lt\n        /* \"#utility.yul\":17719:17839   */\n      iszero\n      tag_382\n      jumpi\n        /* \"#utility.yul\":17790:17829   */\n      tag_383\n        /* \"#utility.yul\":17827:17828   */\n      0x00\n        /* \"#utility.yul\":17820:17825   */\n      dup3\n        /* \"#utility.yul\":17790:17829   */\n      tag_191\n      jump\t// in\n    tag_383:\n        /* \"#utility.yul\":17763:17764   */\n      0x01\n        /* \"#utility.yul\":17756:17761   */\n      dup2\n        /* \"#utility.yul\":17752:17765   */\n      add\n        /* \"#utility.yul\":17743:17765   */\n      swap1\n      pop\n        /* \"#utility.yul\":17719:17839   */\n      jump(tag_380)\n    tag_382:\n        /* \"#utility.yul\":17659:17845   */\n      pop\n      pop\n      jump\t// out\n        /* \"#utility.yul\":17851:18394   */\n    tag_193:\n        /* \"#utility.yul\":17952:17954   */\n      0x1f\n        /* \"#utility.yul\":17947:17950   */\n      dup3\n        /* \"#utility.yul\":17944:17955   */\n      gt\n        /* \"#utility.yul\":17941:18387   */\n      iszero\n      tag_385\n      jumpi\n        /* \"#utility.yul\":17986:18024   */\n      tag_386\n        /* \"#utility.yul\":18018:18023   */\n      dup2\n        /* \"#utility.yul\":17986:18024   */\n      tag_182\n      jump\t// in\n    tag_386:\n        /* \"#utility.yul\":18070:18099   */\n      tag_387\n        /* \"#utility.yul\":18088:18098   */\n      dup5\n        /* \"#utility.yul\":18070:18099   */\n      tag_183\n      jump\t// in\n    tag_387:\n        /* \"#utility.yul\":18060:18068   */\n      dup2\n        /* \"#utility.yul\":18056:18100   */\n      add\n        /* \"#utility.yul\":18253:18255   */\n      0x20\n        /* \"#utility.yul\":18241:18251   */\n      dup6\n        /* \"#utility.yul\":18238:18256   */\n      lt\n        /* \"#utility.yul\":18235:18284   */\n      iszero\n      tag_388\n      jumpi\n        /* \"#utility.yul\":18274:18282   */\n      dup2\n        /* \"#utility.yul\":18259:18282   */\n      swap1\n      pop\n        /* \"#utility.yul\":18235:18284   */\n    tag_388:\n        /* \"#utility.yul\":18297:18377   */\n      tag_389\n        /* \"#utility.yul\":18353:18375   */\n      tag_390\n        /* \"#utility.yul\":18371:18374   */\n      dup6\n        /* \"#utility.yul\":18353:18375   */\n      tag_183\n      jump\t// in\n    tag_390:\n        /* \"#utility.yul\":18343:18351   */\n      dup4\n        /* \"#utility.yul\":18339:18376   */\n      add\n        /* \"#utility.yul\":18326:18337   */\n      dup3\n        /* \"#utility.yul\":18297:18377   */\n      tag_192\n      jump\t// in\n    tag_389:\n        /* \"#utility.yul\":17956:18387   */\n      pop\n      pop\n        /* \"#utility.yul\":17941:18387   */\n    tag_385:\n        /* \"#utility.yul\":17851:18394   */\n      pop\n      pop\n      pop\n      jump\t// out\n        /* \"#utility.yul\":18400:18517   */\n    tag_194:\n        /* \"#utility.yul\":18454:18462   */\n      0x00\n        /* \"#utility.yul\":18504:18509   */\n      dup3\n        /* \"#utility.yul\":18498:18502   */\n      dup3\n        /* \"#utility.yul\":18494:18510   */\n      shr\n        /* \"#utility.yul\":18473:18510   */\n      swap1\n      pop\n        /* \"#utility.yul\":18400:18517   */\n      swap3\n      swap2\n      pop\n      pop\n      jump\t// out\n        /* \"#utility.yul\":18523:18692   */\n    tag_195:\n        /* \"#utility.yul\":18567:18573   */\n      0x00\n        /* \"#utility.yul\":18600:18651   */\n      tag_393\n        /* \"#utility.yul\":18648:18649   */\n      0x00\n        /* \"#utility.yul\":18644:18650   */\n      not\n        /* \"#utility.yul\":18636:18641   */\n      dup5\n        /* \"#utility.yul\":18633:18634   */\n      0x08\n        /* \"#utility.yul\":18629:18642   */\n      mul\n        /* \"#utility.yul\":18600:18651   */\n      tag_194\n      jump\t// in\n    tag_393:\n        /* \"#utility.yul\":18596:18652   */\n      not\n        /* \"#utility.yul\":18681:18685   */\n      dup1\n        /* \"#utility.yul\":18675:18679   */\n      dup4\n        /* \"#utility.yul\":18671:18686   */\n      and\n        /* \"#utility.yul\":18661:18686   */\n      swap2\n      pop\n        /* \"#utility.yul\":18574:18692   */\n      pop\n        /* \"#utility.yul\":18523:18692   */\n      swap3\n      swap2\n      pop\n      pop\n      jump\t// out\n        /* \"#utility.yul\":18697:18992   */\n    tag_196:\n        /* \"#utility.yul\":18773:18777   */\n      0x00\n        /* \"#utility.yul\":18919:18948   */\n      tag_395\n        /* \"#utility.yul\":18944:18947   */\n      dup4\n        /* \"#utility.yul\":18938:18942   */\n      dup4\n        /* \"#utility.yul\":18919:18948   */\n      tag_195\n      jump\t// in\n    tag_395:\n        /* \"#utility.yul\":18911:18948   */\n      swap2\n      pop\n        /* \"#utility.yul\":18981:18984   */\n      dup3\n        /* \"#utility.yul\":18978:18979   */\n      0x02\n        /* \"#utility.yul\":18974:18985   */\n      mul\n        /* \"#utility.yul\":18968:18972   */\n      dup3\n        /* \"#utility.yul\":18965:18986   */\n      or\n        /* \"#utility.yul\":18957:18986   */\n      swap1\n      pop\n        /* \"#utility.yul\":18697:18992   */\n      swap3\n      swap2\n      pop\n      pop\n      jump\t// out\n        /* \"#utility.yul\":18997:20392   */\n    tag_101:\n        /* \"#utility.yul\":19114:19151   */\n      tag_397\n        /* \"#utility.yul\":19147:19150   */\n      dup3\n        /* \"#utility.yul\":19114:19151   */\n      tag_142\n      jump\t// in\n    tag_397:\n        /* \"#utility.yul\":19216:19234   */\n      0xffffffffffffffff\n        /* \"#utility.yul\":19208:19214   */\n      dup2\n        /* \"#utility.yul\":19205:19235   */\n      gt\n        /* \"#utility.yul\":19202:19258   */\n      iszero\n      tag_398\n      jumpi\n        /* \"#utility.yul\":19238:19256   */\n      tag_399\n      tag_76\n      jump\t// in\n    tag_399:\n        /* \"#utility.yul\":19202:19258   */\n    tag_398:\n        /* \"#utility.yul\":19282:19320   */\n      tag_400\n        /* \"#utility.yul\":19314:19318   */\n      dup3\n        /* \"#utility.yul\":19308:19319   */\n      sload\n        /* \"#utility.yul\":19282:19320   */\n      tag_64\n      jump\t// in\n    tag_400:\n        /* \"#utility.yul\":19367:19434   */\n      tag_401\n        /* \"#utility.yul\":19427:19433   */\n      dup3\n        /* \"#utility.yul\":19419:19425   */\n      dup3\n        /* \"#utility.yul\":19413:19417   */\n      dup6\n        /* \"#utility.yul\":19367:19434   */\n      tag_193\n      jump\t// in\n    tag_401:\n        /* \"#utility.yul\":19461:19462   */\n      0x00\n        /* \"#utility.yul\":19485:19489   */\n      0x20\n        /* \"#utility.yul\":19472:19489   */\n      swap1\n      pop\n        /* \"#utility.yul\":19517:19519   */\n      0x1f\n        /* \"#utility.yul\":19509:19515   */\n      dup4\n        /* \"#utility.yul\":19506:19520   */\n      gt\n        /* \"#utility.yul\":19534:19535   */\n      0x01\n        /* \"#utility.yul\":19529:20147   */\n      dup2\n      eq\n      tag_403\n      jumpi\n        /* \"#utility.yul\":20191:20192   */\n      0x00\n        /* \"#utility.yul\":20208:20214   */\n      dup5\n        /* \"#utility.yul\":20205:20282   */\n      iszero\n      tag_404\n      jumpi\n        /* \"#utility.yul\":20257:20266   */\n      dup3\n        /* \"#utility.yul\":20252:20255   */\n      dup8\n        /* \"#utility.yul\":20248:20267   */\n      add\n        /* \"#utility.yul\":20242:20268   */\n      mload\n        /* \"#utility.yul\":20233:20268   */\n      swap1\n      pop\n        /* \"#utility.yul\":20205:20282   */\n    tag_404:\n        /* \"#utility.yul\":20308:20375   */\n      tag_405\n        /* \"#utility.yul\":20368:20374   */\n      dup6\n        /* \"#utility.yul\":20361:20366   */\n      dup3\n        /* \"#utility.yul\":20308:20375   */\n      tag_196\n      jump\t// in\n    tag_405:\n        /* \"#utility.yul\":20302:20306   */\n      dup7\n        /* \"#utility.yul\":20295:20376   */\n      sstore\n        /* \"#utility.yul\":20164:20386   */\n      pop\n        /* \"#utility.yul\":19499:20386   */\n      jump(tag_402)\n        /* \"#utility.yul\":19529:20147   */\n    tag_403:\n        /* \"#utility.yul\":19581:19585   */\n      0x1f\n        /* \"#utility.yul\":19577:19586   */\n      not\n        /* \"#utility.yul\":19569:19575   */\n      dup5\n        /* \"#utility.yul\":19565:19587   */\n      and\n        /* \"#utility.yul\":19615:19652   */\n      tag_406\n        /* \"#utility.yul\":19647:19651   */\n      dup7\n        /* \"#utility.yul\":19615:19652   */\n      tag_182\n      jump\t// in\n    tag_406:\n        /* \"#utility.yul\":19674:19675   */\n      0x00\n        /* \"#utility.yul\":19688:19896   */\n    tag_407:\n        /* \"#utility.yul\":19702:19709   */\n      dup3\n        /* \"#utility.yul\":19699:19700   */\n      dup2\n        /* \"#utility.yul\":19696:19710   */\n      lt\n        /* \"#utility.yul\":19688:19896   */\n      iszero\n      tag_409\n      jumpi\n        /* \"#utility.yul\":19781:19790   */\n      dup5\n        /* \"#utility.yul\":19776:19779   */\n      dup10\n        /* \"#utility.yul\":19772:19791   */\n      add\n        /* \"#utility.yul\":19766:19792   */\n      mload\n        /* \"#utility.yul\":19758:19764   */\n      dup3\n        /* \"#utility.yul\":19751:19793   */\n      sstore\n        /* \"#utility.yul\":19832:19833   */\n      0x01\n        /* \"#utility.yul\":19824:19830   */\n      dup3\n        /* \"#utility.yul\":19820:19834   */\n      add\n        /* \"#utility.yul\":19810:19834   */\n      swap2\n      pop\n        /* \"#utility.yul\":19879:19881   */\n      0x20\n        /* \"#utility.yul\":19868:19877   */\n      dup6\n        /* \"#utility.yul\":19864:19882   */\n      add\n        /* \"#utility.yul\":19851:19882   */\n      swap5\n      pop\n        /* \"#utility.yul\":19725:19729   */\n      0x20\n        /* \"#utility.yul\":19722:19723   */\n      dup2\n        /* \"#utility.yul\":19718:19730   */\n      add\n        /* \"#utility.yul\":19713:19730   */\n      swap1\n      pop\n        /* \"#utility.yul\":19688:19896   */\n      jump(tag_407)\n    tag_409:\n        /* \"#utility.yul\":19924:19930   */\n      dup7\n        /* \"#utility.yul\":19915:19922   */\n      dup4\n        /* \"#utility.yul\":19912:19931   */\n      lt\n        /* \"#utility.yul\":19909:20088   */\n      iszero\n      tag_410\n      jumpi\n        /* \"#utility.yul\":19982:19991   */\n      dup5\n        /* \"#utility.yul\":19977:19980   */\n      dup10\n        /* \"#utility.yul\":19973:19992   */\n      add\n        /* \"#utility.yul\":19967:19993   */\n      mload\n        /* \"#utility.yul\":20025:20073   */\n      tag_411\n        /* \"#utility.yul\":20067:20071   */\n      0x1f\n        /* \"#utility.yul\":20059:20065   */\n      dup10\n        /* \"#utility.yul\":20055:20072   */\n      and\n        /* \"#utility.yul\":20044:20053   */\n      dup3\n        /* \"#utility.yul\":20025:20073   */\n      tag_195\n      jump\t// in\n    tag_411:\n        /* \"#utility.yul\":20017:20023   */\n      dup4\n        /* \"#utility.yul\":20010:20074   */\n      sstore\n        /* \"#utility.yul\":19932:20088   */\n      pop\n        /* \"#utility.yul\":19909:20088   */\n    tag_410:\n        /* \"#utility.yul\":20134:20135   */\n      0x01\n        /* \"#utility.yul\":20130:20131   */\n      0x02\n        /* \"#utility.yul\":20122:20128   */\n      dup9\n        /* \"#utility.yul\":20118:20132   */\n      mul\n        /* \"#utility.yul\":20114:20136   */\n      add\n        /* \"#utility.yul\":20108:20112   */\n      dup9\n        /* \"#utility.yul\":20101:20137   */\n      sstore\n        /* \"#utility.yul\":19536:20147   */\n      pop\n      pop\n      pop\n        /* \"#utility.yul\":19499:20386   */\n    tag_402:\n      pop\n        /* \"#utility.yul\":19089:20392   */\n      pop\n      pop\n      pop\n        /* \"#utility.yul\":18997:20392   */\n      pop\n      pop\n      jump\t// out\n        /* \"#utility.yul\":20398:20578   */\n    tag_197:\n        /* \"#utility.yul\":20446:20523   */\n      0x4e487b7100000000000000000000000000000000000000000000000000000000\n        /* \"#utility.yul\":20443:20444   */\n      0x00\n        /* \"#utility.yul\":20436:20524   */\n      mstore\n        /* \"#utility.yul\":20543:20547   */\n      0x11\n        /* \"#utility.yul\":20540:20541   */\n      0x04\n        /* \"#utility.yul\":20533:20548   */\n      mstore\n        /* \"#utility.yul\":20567:20571   */\n      0x24\n        /* \"#utility.yul\":20564:20565   */\n      0x00\n        /* \"#utility.yul\":20557:20572   */\n      revert\n        /* \"#utility.yul\":20584:20778   */\n    tag_103:\n        /* \"#utility.yul\":20624:20628   */\n      0x00\n        /* \"#utility.yul\":20644:20664   */\n      tag_414\n        /* \"#utility.yul\":20662:20663   */\n      dup3\n        /* \"#utility.yul\":20644:20664   */\n      tag_147\n      jump\t// in\n    tag_414:\n        /* \"#utility.yul\":20639:20664   */\n      swap2\n      pop\n        /* \"#utility.yul\":20678:20698   */\n      tag_415\n        /* \"#utility.yul\":20696:20697   */\n      dup4\n        /* \"#utility.yul\":20678:20698   */\n      tag_147\n      jump\t// in\n    tag_415:\n        /* \"#utility.yul\":20673:20698   */\n      swap3\n      pop\n        /* \"#utility.yul\":20722:20723   */\n      dup3\n        /* \"#utility.yul\":20719:20720   */\n      dup3\n        /* \"#utility.yul\":20715:20724   */\n      sub\n        /* \"#utility.yul\":20707:20724   */\n      swap1\n      pop\n        /* \"#utility.yul\":20746:20747   */\n      dup2\n        /* \"#utility.yul\":20740:20744   */\n      dup2\n        /* \"#utility.yul\":20737:20748   */\n      gt\n        /* \"#utility.yul\":20734:20771   */\n      iszero\n      tag_416\n      jumpi\n        /* \"#utility.yul\":20751:20769   */\n      tag_417\n      tag_197\n      jump\t// in\n    tag_417:\n        /* \"#utility.yul\":20734:20771   */\n    tag_416:\n        /* \"#utility.yul\":20584:20778   */\n      swap3\n      swap2\n      pop\n      pop\n      jump\t// out\n        /* \"#utility.yul\":20808:21125   */\n    tag_198:\n        /* \"#utility.yul\":20906:20909   */\n      0x00\n        /* \"#utility.yul\":20927:20998   */\n      tag_419\n        /* \"#utility.yul\":20991:20997   */\n      dup4\n        /* \"#utility.yul\":20986:20989   */\n      dup6\n        /* \"#utility.yul\":20927:20998   */\n      tag_143\n      jump\t// in\n    tag_419:\n        /* \"#utility.yul\":20920:20998   */\n      swap4\n      pop\n        /* \"#utility.yul\":21008:21064   */\n      tag_420\n        /* \"#utility.yul\":21057:21063   */\n      dup4\n        /* \"#utility.yul\":21052:21055   */\n      dup6\n        /* \"#utility.yul\":21045:21050   */\n      dup5\n        /* \"#utility.yul\":21008:21064   */\n      tag_172\n      jump\t// in\n    tag_420:\n        /* \"#utility.yul\":21089:21118   */\n      tag_421\n        /* \"#utility.yul\":21111:21117   */\n      dup4\n        /* \"#utility.yul\":21089:21118   */\n      tag_145\n      jump\t// in\n    tag_421:\n        /* \"#utility.yul\":21084:21087   */\n      dup5\n        /* \"#utility.yul\":21080:21119   */\n      add\n        /* \"#utility.yul\":21073:21119   */\n      swap1\n      pop\n        /* \"#utility.yul\":20808:21125   */\n      swap4\n      swap3\n      pop\n      pop\n      pop\n      jump\t// out\n        /* \"#utility.yul\":21131:21684   */\n    tag_107:\n        /* \"#utility.yul\":21310:21314   */\n      0x00\n        /* \"#utility.yul\":21348:21350   */\n      0x60\n        /* \"#utility.yul\":21337:21346   */\n      dup3\n        /* \"#utility.yul\":21333:21351   */\n      add\n        /* \"#utility.yul\":21325:21351   */\n      swap1\n      pop\n        /* \"#utility.yul\":21397:21406   */\n      dup2\n        /* \"#utility.yul\":21391:21395   */\n      dup2\n        /* \"#utility.yul\":21387:21407   */\n      sub\n        /* \"#utility.yul\":21383:21384   */\n      0x00\n        /* \"#utility.yul\":21372:21381   */\n      dup4\n        /* \"#utility.yul\":21368:21385   */\n      add\n        /* \"#utility.yul\":21361:21408   */\n      mstore\n        /* \"#utility.yul\":21425:21513   */\n      tag_423\n        /* \"#utility.yul\":21508:21512   */\n      dup2\n        /* \"#utility.yul\":21499:21505   */\n      dup7\n        /* \"#utility.yul\":21491:21497   */\n      dup9\n        /* \"#utility.yul\":21425:21513   */\n      tag_198\n      jump\t// in\n    tag_423:\n        /* \"#utility.yul\":21417:21513   */\n      swap1\n      pop\n        /* \"#utility.yul\":21523:21595   */\n      tag_424\n        /* \"#utility.yul\":21591:21593   */\n      0x20\n        /* \"#utility.yul\":21580:21589   */\n      dup4\n        /* \"#utility.yul\":21576:21594   */\n      add\n        /* \"#utility.yul\":21567:21573   */\n      dup6\n        /* \"#utility.yul\":21523:21595   */\n      tag_148\n      jump\t// in\n    tag_424:\n        /* \"#utility.yul\":21605:21677   */\n      tag_425\n        /* \"#utility.yul\":21673:21675   */\n      0x40\n        /* \"#utility.yul\":21662:21671   */\n      dup4\n        /* \"#utility.yul\":21658:21676   */\n      add\n        /* \"#utility.yul\":21649:21655   */\n      dup5\n        /* \"#utility.yul\":21605:21677   */\n      tag_149\n      jump\t// in\n    tag_425:\n        /* \"#utility.yul\":21131:21684   */\n      swap6\n      swap5\n      pop\n      pop\n      pop\n      pop\n      pop\n      jump\t// out\n        /* \"#utility.yul\":21690:21861   */\n    tag_199:\n        /* \"#utility.yul\":21830:21853   */\n      0x496e646963652066756572612064652072616e676f0000000000000000000000\n        /* \"#utility.yul\":21826:21827   */\n      0x00\n        /* \"#utility.yul\":21818:21824   */\n      dup3\n        /* \"#utility.yul\":21814:21828   */\n      add\n        /* \"#utility.yul\":21807:21854   */\n      mstore\n        /* \"#utility.yul\":21690:21861   */\n      pop\n      jump\t// out\n        /* \"#utility.yul\":21867:22233   */\n    tag_200:\n        /* \"#utility.yul\":22009:22012   */\n      0x00\n        /* \"#utility.yul\":22030:22097   */\n      tag_428\n        /* \"#utility.yul\":22094:22096   */\n      0x15\n        /* \"#utility.yul\":22089:22092   */\n      dup4\n        /* \"#utility.yul\":22030:22097   */\n      tag_143\n      jump\t// in\n    tag_428:\n        /* \"#utility.yul\":22023:22097   */\n      swap2\n      pop\n        /* \"#utility.yul\":22106:22199   */\n      tag_429\n        /* \"#utility.yul\":22195:22198   */\n      dup3\n        /* \"#utility.yul\":22106:22199   */\n      tag_199\n      jump\t// in\n    tag_429:\n        /* \"#utility.yul\":22224:22226   */\n      0x20\n        /* \"#utility.yul\":22219:22222   */\n      dup3\n        /* \"#utility.yul\":22215:22227   */\n      add\n        /* \"#utility.yul\":22208:22227   */\n      swap1\n      pop\n        /* \"#utility.yul\":21867:22233   */\n      swap2\n      swap1\n      pop\n      jump\t// out\n        /* \"#utility.yul\":22239:22658   */\n    tag_118:\n        /* \"#utility.yul\":22405:22409   */\n      0x00\n        /* \"#utility.yul\":22443:22445   */\n      0x20\n        /* \"#utility.yul\":22432:22441   */\n      dup3\n        /* \"#utility.yul\":22428:22446   */\n      add\n        /* \"#utility.yul\":22420:22446   */\n      swap1\n      pop\n        /* \"#utility.yul\":22492:22501   */\n      dup2\n        /* \"#utility.yul\":22486:22490   */\n      dup2\n        /* \"#utility.yul\":22482:22502   */\n      sub\n        /* \"#utility.yul\":22478:22479   */\n      0x00\n        /* \"#utility.yul\":22467:22476   */\n      dup4\n        /* \"#utility.yul\":22463:22480   */\n      add\n        /* \"#utility.yul\":22456:22503   */\n      mstore\n        /* \"#utility.yul\":22520:22651   */\n      tag_431\n        /* \"#utility.yul\":22646:22650   */\n      dup2\n        /* \"#utility.yul\":22520:22651   */\n      tag_200\n      jump\t// in\n    tag_431:\n        /* \"#utility.yul\":22512:22651   */\n      swap1\n      pop\n        /* \"#utility.yul\":22239:22658   */\n      swap2\n      swap1\n      pop\n      jump\t// out\n        /* \"#utility.yul\":22664:23054   */\n    tag_201:\n        /* \"#utility.yul\":22770:22773   */\n      0x00\n        /* \"#utility.yul\":22798:22837   */\n      tag_433\n        /* \"#utility.yul\":22831:22836   */\n      dup3\n        /* \"#utility.yul\":22798:22837   */\n      tag_142\n      jump\t// in\n    tag_433:\n        /* \"#utility.yul\":22853:22942   */\n      tag_434\n        /* \"#utility.yul\":22935:22941   */\n      dup2\n        /* \"#utility.yul\":22930:22933   */\n      dup6\n        /* \"#utility.yul\":22853:22942   */\n      tag_178\n      jump\t// in\n    tag_434:\n        /* \"#utility.yul\":22846:22942   */\n      swap4\n      pop\n        /* \"#utility.yul\":22951:23016   */\n      tag_435\n        /* \"#utility.yul\":23009:23015   */\n      dup2\n        /* \"#utility.yul\":23004:23007   */\n      dup6\n        /* \"#utility.yul\":22997:23001   */\n      0x20\n        /* \"#utility.yul\":22990:22995   */\n      dup7\n        /* \"#utility.yul\":22986:23002   */\n      add\n        /* \"#utility.yul\":22951:23016   */\n      tag_144\n      jump\t// in\n    tag_435:\n        /* \"#utility.yul\":23041:23047   */\n      dup1\n        /* \"#utility.yul\":23036:23039   */\n      dup5\n        /* \"#utility.yul\":23032:23048   */\n      add\n        /* \"#utility.yul\":23025:23048   */\n      swap2\n      pop\n        /* \"#utility.yul\":22774:23054   */\n      pop\n        /* \"#utility.yul\":22664:23054   */\n      swap3\n      swap2\n      pop\n      pop\n      jump\t// out\n        /* \"#utility.yul\":23060:23476   */\n    tag_130:\n        /* \"#utility.yul\":23220:23223   */\n      0x00\n        /* \"#utility.yul\":23242:23337   */\n      tag_437\n        /* \"#utility.yul\":23333:23336   */\n      dup3\n        /* \"#utility.yul\":23324:23330   */\n      dup6\n        /* \"#utility.yul\":23242:23337   */\n      tag_201\n      jump\t// in\n    tag_437:\n        /* \"#utility.yul\":23235:23337   */\n      swap2\n      pop\n        /* \"#utility.yul\":23347:23422   */\n      tag_438\n        /* \"#utility.yul\":23418:23421   */\n      dup3\n        /* \"#utility.yul\":23409:23415   */\n      dup5\n        /* \"#utility.yul\":23347:23422   */\n      tag_181\n      jump\t// in\n    tag_438:\n        /* \"#utility.yul\":23447:23449   */\n      0x20\n        /* \"#utility.yul\":23442:23445   */\n      dup3\n        /* \"#utility.yul\":23438:23450   */\n      add\n        /* \"#utility.yul\":23431:23450   */\n      swap2\n      pop\n        /* \"#utility.yul\":23467:23470   */\n      dup2\n        /* \"#utility.yul\":23460:23470   */\n      swap1\n      pop\n        /* \"#utility.yul\":23060:23476   */\n      swap4\n      swap3\n      pop\n      pop\n      pop\n      jump\t// out\n\n    auxdata: 0xa26469706673582212206579f4d04c32846014f279058cfde20a46af489f3afae4fc14a627c8fee361df64736f6c634300081e0033\n}\n",
				"bytecode": {
					"linkReferences": {},
					"object": "6080604052348015600e575f5ffd5b5061170d8061001c5f395ff3fe608060405234801561000f575f5ffd5b5060043610610091575f3560e01c80634820fc5d116100645780634820fc5d1461014757806355ae032c1461017a57806356bf5c48146101985780639ffda5e2146101c8578063d9b5a670146101f857610091565b8063076110f3146100955780632a6b76ff146100c85780633a419d0c146100f85780633c62970614610114575b5f5ffd5b6100af60048036038101906100aa9190610bae565b610228565b6040516100bf9493929190610caf565b60405180910390f35b6100e260048036038101906100dd9190610d5a565b6103d1565b6040516100ef9190610f35565b60405180910390f35b610112600480360381019061010d9190610d5a565b610617565b005b61012e60048036038101906101299190610f7f565b610828565b60405161013e9493929190610caf565b60405180910390f35b610161600480360381019061015c9190610f7f565b610907565b6040516101719493929190610caf565b60405180910390f35b610182610a9a565b60405161018f9190610faa565b60405180910390f35b6101b260048036038101906101ad9190610bae565b610aa5565b6040516101bf9190610faa565b60405180910390f35b6101e260048036038101906101dd91906110eb565b610aba565b6040516101ef9190611145565b60405180910390f35b610212600480360381019061020d91906110eb565b610aec565b60405161021f9190610faa565b60405180910390f35b5f60605f5f5f60015f8781526020019081526020015f205490505f805490508110610288576040517f08c379a000000000000000000000000000000000000000000000000000000000815260040161027f906111a8565b60405180910390fd5b5f5f828154811061029c5761029b6111c6565b5b905f5260205f2090600402016040518060800160405290815f82015f9054906101000a900473ffffffffffffffffffffffffffffffffffffffff1673ffffffffffffffffffffffffffffffffffffffff1673ffffffffffffffffffffffffffffffffffffffff16815260200160018201805461031790611220565b80601f016020809104026020016040519081016040528092919081815260200182805461034390611220565b801561038e5780601f106103655761010080835404028352916020019161038e565b820191905f5260205f20905b81548152906001019060200180831161037157829003601f168201915b50505050508152602001600282015481526020016003820154815250509050805f0151816020015182604001518360600151955095509550955050509193509193565b60605f600284846040516103e692919061127e565b908152602001604051809103902080548060200260200160405190810160405280929190818152602001828054801561043c57602002820191905f5260205f20905b815481526020019060010190808311610428575b50505050509050805167ffffffffffffffff81111561045e5761045d610fc7565b5b60405190808252806020026020018201604052801561049757816020015b610484610b2f565b81526020019060019003908161047c5790505b5091505f5f90505b815181101561060f575f8282815181106104bc576104bb6111c6565b5b6020026020010151815481106104d5576104d46111c6565b5b905f5260205f2090600402016040518060800160405290815f82015f9054906101000a900473ffffffffffffffffffffffffffffffffffffffff1673ffffffffffffffffffffffffffffffffffffffff1673ffffffffffffffffffffffffffffffffffffffff16815260200160018201805461055090611220565b80601f016020809104026020016040519081016040528092919081815260200182805461057c90611220565b80156105c75780601f1061059e576101008083540402835291602001916105c7565b820191905f5260205f20905b8154815290600101906020018083116105aa57829003601f168201915b50505050508152602001600282015481526020016003820154815250508382815181106105f7576105f66111c6565b5b6020026020010181905250808060010191505061049f565b505092915050565b5f4290505f838383604051602001610631939291906112b6565b6040516020818303038152906040528051906020012090505f60405180608001604052803373ffffffffffffffffffffffffffffffffffffffff16815260200186868080601f0160208091040260200160405190810160405280939291908181526020018383808284375f81840152601f19601f8201169050808301925050505050505081526020018481526020018381525090505f81908060018154018082558091505060019003905f5260205f2090600402015f909190919091505f820151815f015f6101000a81548173ffffffffffffffffffffffffffffffffffffffff021916908373ffffffffffffffffffffffffffffffffffffffff1602179055506020820151816001019081610747919061147f565b50604082015181600201556060820151816003015550505f60015f80549050610770919061157b565b90508060015f8581526020019081526020015f20819055506002868660405161079a92919061127e565b908152602001604051809103902081908060018154018082558091505060019003905f5260205f20015f90919091909150553373ffffffffffffffffffffffffffffffffffffffff167f43d36e0547072645a361a18cc0ae285b0367b5aec05cfcd140d26f1a6b216f828787878760405161081894939291906115da565b60405180910390a2505050505050565b5f8181548110610836575f80fd5b905f5260205f2090600402015f91509050805f015f9054906101000a900473ffffffffffffffffffffffffffffffffffffffff169080600101805461087a90611220565b80601f01602080910402602001604051908101604052809291908181526020018280546108a690611220565b80156108f15780601f106108c8576101008083540402835291602001916108f1565b820191905f5260205f20905b8154815290600101906020018083116108d457829003601f168201915b5050505050908060020154908060030154905084565b5f60605f5f5f805490508510610952576040517f08c379a000000000000000000000000000000000000000000000000000000000815260040161094990611662565b60405180910390fd5b5f5f8681548110610966576109656111c6565b5b905f5260205f2090600402016040518060800160405290815f82015f9054906101000a900473ffffffffffffffffffffffffffffffffffffffff1673ffffffffffffffffffffffffffffffffffffffff1673ffffffffffffffffffffffffffffffffffffffff1681526020016001820180546109e190611220565b80601f0160208091040260200160405190810160405280929190818152602001828054610a0d90611220565b8015610a585780601f10610a2f57610100808354040283529160200191610a58565b820191905f5260205f20905b815481529060010190602001808311610a3b57829003601f168201915b50505050508152602001600282015481526020016003820154815250509050805f01518160200151826040015183606001519450945094509450509193509193565b5f5f80549050905090565b6001602052805f5260405f205f915090505481565b5f8282604051602001610ace9291906116b0565b60405160208183030381529060405280519060200120905092915050565b6002828051602081018201805184825260208301602085012081835280955050505050508181548110610b1d575f80fd5b905f5260205f20015f91509150505481565b60405180608001604052805f73ffffffffffffffffffffffffffffffffffffffff168152602001606081526020015f81526020015f81525090565b5f604051905090565b5f5ffd5b5f5ffd5b5f819050919050565b610b8d81610b7b565b8114610b97575f5ffd5b50565b5f81359050610ba881610b84565b92915050565b5f60208284031215610bc357610bc2610b73565b5b5f610bd084828501610b9a565b91505092915050565b5f73ffffffffffffffffffffffffffffffffffffffff82169050919050565b5f610c0282610bd9565b9050919050565b610c1281610bf8565b82525050565b5f81519050919050565b5f82825260208201905092915050565b8281835e5f83830152505050565b5f601f19601f8301169050919050565b5f610c5a82610c18565b610c648185610c22565b9350610c74818560208601610c32565b610c7d81610c40565b840191505092915050565b5f819050919050565b610c9a81610c88565b82525050565b610ca981610b7b565b82525050565b5f608082019050610cc25f830187610c09565b8181036020830152610cd48186610c50565b9050610ce36040830185610c91565b610cf06060830184610ca0565b95945050505050565b5f5ffd5b5f5ffd5b5f5ffd5b5f5f83601f840112610d1a57610d19610cf9565b5b8235905067ffffffffffffffff811115610d3757610d36610cfd565b5b602083019150836001820283011115610d5357610d52610d01565b5b9250929050565b5f5f60208385031215610d7057610d6f610b73565b5b5f83013567ffffffffffffffff811115610d8d57610d8c610b77565b5b610d9985828601610d05565b92509250509250929050565b5f81519050919050565b5f82825260208201905092915050565b5f819050602082019050919050565b610dd781610bf8565b82525050565b5f82825260208201905092915050565b5f610df782610c18565b610e018185610ddd565b9350610e11818560208601610c32565b610e1a81610c40565b840191505092915050565b610e2e81610c88565b82525050565b610e3d81610b7b565b82525050565b5f608083015f830151610e585f860182610dce565b5060208301518482036020860152610e708282610ded565b9150506040830151610e856040860182610e25565b506060830151610e986060860182610e34565b508091505092915050565b5f610eae8383610e43565b905092915050565b5f602082019050919050565b5f610ecc82610da5565b610ed68185610daf565b935083602082028501610ee885610dbf565b805f5b85811015610f235784840389528151610f048582610ea3565b9450610f0f83610eb6565b925060208a01995050600181019050610eeb565b50829750879550505050505092915050565b5f6020820190508181035f830152610f4d8184610ec2565b905092915050565b610f5e81610c88565b8114610f68575f5ffd5b50565b5f81359050610f7981610f55565b92915050565b5f60208284031215610f9457610f93610b73565b5b5f610fa184828501610f6b565b91505092915050565b5f602082019050610fbd5f830184610c91565b92915050565b5f5ffd5b7f4e487b71000000000000000000000000000000000000000000000000000000005f52604160045260245ffd5b610ffd82610c40565b810181811067ffffffffffffffff8211171561101c5761101b610fc7565b5b80604052505050565b5f61102e610b6a565b905061103a8282610ff4565b919050565b5f67ffffffffffffffff82111561105957611058610fc7565b5b61106282610c40565b9050602081019050919050565b828183375f83830152505050565b5f61108f61108a8461103f565b611025565b9050828152602081018484840111156110ab576110aa610fc3565b5b6110b684828561106f565b509392505050565b5f82601f8301126110d2576110d1610cf9565b5b81356110e284826020860161107d565b91505092915050565b5f5f6040838503121561110157611100610b73565b5b5f83013567ffffffffffffffff81111561111e5761111d610b77565b5b61112a858286016110be565b925050602061113b85828601610f6b565b9150509250929050565b5f6020820190506111585f830184610ca0565b92915050565b7f4e6f20736520656e636f6e74726f206c61206669726d610000000000000000005f82015250565b5f611192601783610c22565b915061119d8261115e565b602082019050919050565b5f6020820190508181035f8301526111bf81611186565b9050919050565b7f4e487b71000000000000000000000000000000000000000000000000000000005f52603260045260245ffd5b7f4e487b71000000000000000000000000000000000000000000000000000000005f52602260045260245ffd5b5f600282049050600182168061123757607f821691505b60208210810361124a576112496111f3565b5b50919050565b5f81905092915050565b5f6112658385611250565b935061127283858461106f565b82840190509392505050565b5f61128a82848661125a565b91508190509392505050565b5f819050919050565b6112b06112ab82610c88565b611296565b82525050565b5f6112c282858761125a565b91506112ce828461129f565b602082019150819050949350505050565b5f819050815f5260205f209050919050565b5f6020601f8301049050919050565b5f82821b905092915050565b5f6008830261133b7fffffffffffffffffffffffffffffffffffffffffffffffffffffffffffffffff82611300565b6113458683611300565b95508019841693508086168417925050509392505050565b5f819050919050565b5f61138061137b61137684610c88565b61135d565b610c88565b9050919050565b5f819050919050565b61139983611366565b6113ad6113a582611387565b84845461130c565b825550505050565b5f5f905090565b6113c46113b5565b6113cf818484611390565b505050565b5b818110156113f2576113e75f826113bc565b6001810190506113d5565b5050565b601f82111561143757611408816112df565b611411846112f1565b81016020851015611420578190505b61143461142c856112f1565b8301826113d4565b50505b505050565b5f82821c905092915050565b5f6114575f198460080261143c565b1980831691505092915050565b5f61146f8383611448565b9150826002028217905092915050565b61148882610c18565b67ffffffffffffffff8111156114a1576114a0610fc7565b5b6114ab8254611220565b6114b68282856113f6565b5f60209050601f8311600181146114e7575f84156114d5578287015190505b6114df8582611464565b865550611546565b601f1984166114f5866112df565b5f5b8281101561151c578489015182556001820191506020850194506020810190506114f7565b868310156115395784890151611535601f891682611448565b8355505b6001600288020188555050505b505050505050565b7f4e487b71000000000000000000000000000000000000000000000000000000005f52601160045260245ffd5b5f61158582610c88565b915061159083610c88565b92508282039050818111156115a8576115a761154e565b5b92915050565b5f6115b98385610c22565b93506115c683858461106f565b6115cf83610c40565b840190509392505050565b5f6060820190508181035f8301526115f38186886115ae565b90506116026020830185610c91565b61160f6040830184610ca0565b95945050505050565b7f496e646963652066756572612064652072616e676f00000000000000000000005f82015250565b5f61164c601583610c22565b915061165782611618565b602082019050919050565b5f6020820190508181035f83015261167981611640565b9050919050565b5f61168a82610c18565b6116948185611250565b93506116a4818560208601610c32565b80840191505092915050565b5f6116bb8285611680565b91506116c7828461129f565b602082019150819050939250505056fea26469706673582212206579f4d04c32846014f279058cfde20a46af489f3afae4fc14a627c8fee361df64736f6c634300081e0033",
					"opcodes": "PUSH1 0x80 PUSH1 0x40 MSTORE CALLVALUE DUP1 ISZERO PUSH1 0xE JUMPI PUSH0 PUSH0 REVERT JUMPDEST POP PUSH2 0x170D DUP1 PUSH2 0x1C PUSH0 CODECOPY PUSH0 RETURN INVALID PUSH1 0x80 PUSH1 0x40 MSTORE CALLVALUE DUP1 ISZERO PUSH2 0xF JUMPI PUSH0 PUSH0 REVERT JUMPDEST POP PUSH1 0x4 CALLDATASIZE LT PUSH2 0x91 JUMPI PUSH0 CALLDATALOAD PUSH1 0xE0 SHR DUP1 PUSH4 0x4820FC5D GT PUSH2 0x64 JUMPI DUP1 PUSH4 0x4820FC5D EQ PUSH2 0x147 JUMPI DUP1 PUSH4 0x55AE032C EQ PUSH2 0x17A JUMPI DUP1 PUSH4 0x56BF5C48 EQ PUSH2 0x198 JUMPI DUP1 PUSH4 0x9FFDA5E2 EQ PUSH2 0x1C8 JUMPI DUP1 PUSH4 0xD9B5A670 EQ PUSH2 0x1F8 JUMPI PUSH2 0x91 JUMP JUMPDEST DUP1 PUSH4 0x76110F3 EQ PUSH2 0x95 JUMPI DUP1 PUSH4 0x2A6B76FF EQ PUSH2 0xC8 JUMPI DUP1 PUSH4 0x3A419D0C EQ PUSH2 0xF8 JUMPI DUP1 PUSH4 0x3C629706 EQ PUSH2 0x114 JUMPI JUMPDEST PUSH0 PUSH0 REVERT JUMPDEST PUSH2 0xAF PUSH1 0x4 DUP1 CALLDATASIZE SUB DUP2 ADD SWAP1 PUSH2 0xAA SWAP2 SWAP1 PUSH2 0xBAE JUMP JUMPDEST PUSH2 0x228 JUMP JUMPDEST PUSH1 0x40 MLOAD PUSH2 0xBF SWAP5 SWAP4 SWAP3 SWAP2 SWAP1 PUSH2 0xCAF JUMP JUMPDEST PUSH1 0x40 MLOAD DUP1 SWAP2 SUB SWAP1 RETURN JUMPDEST PUSH2 0xE2 PUSH1 0x4 DUP1 CALLDATASIZE SUB DUP2 ADD SWAP1 PUSH2 0xDD SWAP2 SWAP1 PUSH2 0xD5A JUMP JUMPDEST PUSH2 0x3D1 JUMP JUMPDEST PUSH1 0x40 MLOAD PUSH2 0xEF SWAP2 SWAP1 PUSH2 0xF35 JUMP JUMPDEST PUSH1 0x40 MLOAD DUP1 SWAP2 SUB SWAP1 RETURN JUMPDEST PUSH2 0x112 PUSH1 0x4 DUP1 CALLDATASIZE SUB DUP2 ADD SWAP1 PUSH2 0x10D SWAP2 SWAP1 PUSH2 0xD5A JUMP JUMPDEST PUSH2 0x617 JUMP JUMPDEST STOP JUMPDEST PUSH2 0x12E PUSH1 0x4 DUP1 CALLDATASIZE SUB DUP2 ADD SWAP1 PUSH2 0x129 SWAP2 SWAP1 PUSH2 0xF7F JUMP JUMPDEST PUSH2 0x828 JUMP JUMPDEST PUSH1 0x40 MLOAD PUSH2 0x13E SWAP5 SWAP4 SWAP3 SWAP2 SWAP1 PUSH2 0xCAF JUMP JUMPDEST PUSH1 0x40 MLOAD DUP1 SWAP2 SUB SWAP1 RETURN JUMPDEST PUSH2 0x161 PUSH1 0x4 DUP1 CALLDATASIZE SUB DUP2 ADD SWAP1 PUSH2 0x15C SWAP2 SWAP1 PUSH2 0xF7F JUMP JUMPDEST PUSH2 0x907 JUMP JUMPDEST PUSH1 0x40 MLOAD PUSH2 0x171 SWAP5 SWAP4 SWAP3 SWAP2 SWAP1 PUSH2 0xCAF JUMP JUMPDEST PUSH1 0x40 MLOAD DUP1 SWAP2 SUB SWAP1 RETURN JUMPDEST PUSH2 0x182 PUSH2 0xA9A JUMP JUMPDEST PUSH1 0x40 MLOAD PUSH2 0x18F SWAP2 SWAP1 PUSH2 0xFAA JUMP JUMPDEST PUSH1 0x40 MLOAD DUP1 SWAP2 SUB SWAP1 RETURN JUMPDEST PUSH2 0x1B2 PUSH1 0x4 DUP1 CALLDATASIZE SUB DUP2 ADD SWAP1 PUSH2 0x1AD SWAP2 SWAP1 PUSH2 0xBAE JUMP JUMPDEST PUSH2 0xAA5 JUMP JUMPDEST PUSH1 0x40 MLOAD PUSH2 0x1BF SWAP2 SWAP1 PUSH2 0xFAA JUMP JUMPDEST PUSH1 0x40 MLOAD DUP1 SWAP2 SUB SWAP1 RETURN JUMPDEST PUSH2 0x1E2 PUSH1 0x4 DUP1 CALLDATASIZE SUB DUP2 ADD SWAP1 PUSH2 0x1DD SWAP2 SWAP1 PUSH2 0x10EB JUMP JUMPDEST PUSH2 0xABA JUMP JUMPDEST PUSH1 0x40 MLOAD PUSH2 0x1EF SWAP2 SWAP1 PUSH2 0x1145 JUMP JUMPDEST PUSH1 0x40 MLOAD DUP1 SWAP2 SUB SWAP1 RETURN JUMPDEST PUSH2 0x212 PUSH1 0x4 DUP1 CALLDATASIZE SUB DUP2 ADD SWAP1 PUSH2 0x20D SWAP2 SWAP1 PUSH2 0x10EB JUMP JUMPDEST PUSH2 0xAEC JUMP JUMPDEST PUSH1 0x40 MLOAD PUSH2 0x21F SWAP2 SWAP1 PUSH2 0xFAA JUMP JUMPDEST PUSH1 0x40 MLOAD DUP1 SWAP2 SUB SWAP1 RETURN JUMPDEST PUSH0 PUSH1 0x60 PUSH0 PUSH0 PUSH0 PUSH1 0x1 PUSH0 DUP8 DUP2 MSTORE PUSH1 0x20 ADD SWAP1 DUP2 MSTORE PUSH1 0x20 ADD PUSH0 KECCAK256 SLOAD SWAP1 POP PUSH0 DUP1 SLOAD SWAP1 POP DUP2 LT PUSH2 0x288 JUMPI PUSH1 0x40 MLOAD PUSH32 0x8C379A000000000000000000000000000000000000000000000000000000000 DUP2 MSTORE PUSH1 0x4 ADD PUSH2 0x27F SWAP1 PUSH2 0x11A8 JUMP JUMPDEST PUSH1 0x40 MLOAD DUP1 SWAP2 SUB SWAP1 REVERT JUMPDEST PUSH0 PUSH0 DUP3 DUP2 SLOAD DUP2 LT PUSH2 0x29C JUMPI PUSH2 0x29B PUSH2 0x11C6 JUMP JUMPDEST JUMPDEST SWAP1 PUSH0 MSTORE PUSH1 0x20 PUSH0 KECCAK256 SWAP1 PUSH1 0x4 MUL ADD PUSH1 0x40 MLOAD DUP1 PUSH1 0x80 ADD PUSH1 0x40 MSTORE SWAP1 DUP2 PUSH0 DUP3 ADD PUSH0 SWAP1 SLOAD SWAP1 PUSH2 0x100 EXP SWAP1 DIV PUSH20 0xFFFFFFFFFFFFFFFFFFFFFFFFFFFFFFFFFFFFFFFF AND PUSH20 0xFFFFFFFFFFFFFFFFFFFFFFFFFFFFFFFFFFFFFFFF AND PUSH20 0xFFFFFFFFFFFFFFFFFFFFFFFFFFFFFFFFFFFFFFFF AND DUP2 MSTORE PUSH1 0x20 ADD PUSH1 0x1 DUP3 ADD DUP1 SLOAD PUSH2 0x317 SWAP1 PUSH2 0x1220 JUMP JUMPDEST DUP1 PUSH1 0x1F ADD PUSH1 0x20 DUP1 SWAP2 DIV MUL PUSH1 0x20 ADD PUSH1 0x40 MLOAD SWAP1 DUP2 ADD PUSH1 0x40 MSTORE DUP1 SWAP3 SWAP2 SWAP1 DUP2 DUP2 MSTORE PUSH1 0x20 ADD DUP3 DUP1 SLOAD PUSH2 0x343 SWAP1 PUSH2 0x1220 JUMP JUMPDEST DUP1 ISZERO PUSH2 0x38E JUMPI DUP1 PUSH1 0x1F LT PUSH2 0x365 JUMPI PUSH2 0x100 DUP1 DUP4 SLOAD DIV MUL DUP4 MSTORE SWAP2 PUSH1 0x20 ADD SWAP2 PUSH2 0x38E JUMP JUMPDEST DUP3 ADD SWAP2 SWAP1 PUSH0 MSTORE PUSH1 0x20 PUSH0 KECCAK256 SWAP1 JUMPDEST DUP2 SLOAD DUP2 MSTORE SWAP1 PUSH1 0x1 ADD SWAP1 PUSH1 0x20 ADD DUP1 DUP4 GT PUSH2 0x371 JUMPI DUP3 SWAP1 SUB PUSH1 0x1F AND DUP3 ADD SWAP2 JUMPDEST POP POP POP POP POP DUP2 MSTORE PUSH1 0x20 ADD PUSH1 0x2 DUP3 ADD SLOAD DUP2 MSTORE PUSH1 0x20 ADD PUSH1 0x3 DUP3 ADD SLOAD DUP2 MSTORE POP POP SWAP1 POP DUP1 PUSH0 ADD MLOAD DUP2 PUSH1 0x20 ADD MLOAD DUP3 PUSH1 0x40 ADD MLOAD DUP4 PUSH1 0x60 ADD MLOAD SWAP6 POP SWAP6 POP SWAP6 POP SWAP6 POP POP POP SWAP2 SWAP4 POP SWAP2 SWAP4 JUMP JUMPDEST PUSH1 0x60 PUSH0 PUSH1 0x2 DUP5 DUP5 PUSH1 0x40 MLOAD PUSH2 0x3E6 SWAP3 SWAP2 SWAP1 PUSH2 0x127E JUMP JUMPDEST SWAP1 DUP2 MSTORE PUSH1 0x20 ADD PUSH1 0x40 MLOAD DUP1 SWAP2 SUB SWAP1 KECCAK256 DUP1 SLOAD DUP1 PUSH1 0x20 MUL PUSH1 0x20 ADD PUSH1 0x40 MLOAD SWAP1 DUP2 ADD PUSH1 0x40 MSTORE DUP1 SWAP3 SWAP2 SWAP1 DUP2 DUP2 MSTORE PUSH1 0x20 ADD DUP3 DUP1 SLOAD DUP1 ISZERO PUSH2 0x43C JUMPI PUSH1 0x20 MUL DUP3 ADD SWAP2 SWAP1 PUSH0 MSTORE PUSH1 0x20 PUSH0 KECCAK256 SWAP1 JUMPDEST DUP2 SLOAD DUP2 MSTORE PUSH1 0x20 ADD SWAP1 PUSH1 0x1 ADD SWAP1 DUP1 DUP4 GT PUSH2 0x428 JUMPI JUMPDEST POP POP POP POP POP SWAP1 POP DUP1 MLOAD PUSH8 0xFFFFFFFFFFFFFFFF DUP2 GT ISZERO PUSH2 0x45E JUMPI PUSH2 0x45D PUSH2 0xFC7 JUMP JUMPDEST JUMPDEST PUSH1 0x40 MLOAD SWAP1 DUP1 DUP3 MSTORE DUP1 PUSH1 0x20 MUL PUSH1 0x20 ADD DUP3 ADD PUSH1 0x40 MSTORE DUP1 ISZERO PUSH2 0x497 JUMPI DUP2 PUSH1 0x20 ADD JUMPDEST PUSH2 0x484 PUSH2 0xB2F JUMP JUMPDEST DUP2 MSTORE PUSH1 0x20 ADD SWAP1 PUSH1 0x1 SWAP1 SUB SWAP1 DUP2 PUSH2 0x47C JUMPI SWAP1 POP JUMPDEST POP SWAP2 POP PUSH0 PUSH0 SWAP1 POP JUMPDEST DUP2 MLOAD DUP2 LT ISZERO PUSH2 0x60F JUMPI PUSH0 DUP3 DUP3 DUP2 MLOAD DUP2 LT PUSH2 0x4BC JUMPI PUSH2 0x4BB PUSH2 0x11C6 JUMP JUMPDEST JUMPDEST PUSH1 0x20 MUL PUSH1 0x20 ADD ADD MLOAD DUP2 SLOAD DUP2 LT PUSH2 0x4D5 JUMPI PUSH2 0x4D4 PUSH2 0x11C6 JUMP JUMPDEST JUMPDEST SWAP1 PUSH0 MSTORE PUSH1 0x20 PUSH0 KECCAK256 SWAP1 PUSH1 0x4 MUL ADD PUSH1 0x40 MLOAD DUP1 PUSH1 0x80 ADD PUSH1 0x40 MSTORE SWAP1 DUP2 PUSH0 DUP3 ADD PUSH0 SWAP1 SLOAD SWAP1 PUSH2 0x100 EXP SWAP1 DIV PUSH20 0xFFFFFFFFFFFFFFFFFFFFFFFFFFFFFFFFFFFFFFFF AND PUSH20 0xFFFFFFFFFFFFFFFFFFFFFFFFFFFFFFFFFFFFFFFF AND PUSH20 0xFFFFFFFFFFFFFFFFFFFFFFFFFFFFFFFFFFFFFFFF AND DUP2 MSTORE PUSH1 0x20 ADD PUSH1 0x1 DUP3 ADD DUP1 SLOAD PUSH2 0x550 SWAP1 PUSH2 0x1220 JUMP JUMPDEST DUP1 PUSH1 0x1F ADD PUSH1 0x20 DUP1 SWAP2 DIV MUL PUSH1 0x20 ADD PUSH1 0x40 MLOAD SWAP1 DUP2 ADD PUSH1 0x40 MSTORE DUP1 SWAP3 SWAP2 SWAP1 DUP2 DUP2 MSTORE PUSH1 0x20 ADD DUP3 DUP1 SLOAD PUSH2 0x57C SWAP1 PUSH2 0x1220 JUMP JUMPDEST DUP1 ISZERO PUSH2 0x5C7 JUMPI DUP1 PUSH1 0x1F LT PUSH2 0x59E JUMPI PUSH2 0x100 DUP1 DUP4 SLOAD DIV MUL DUP4 MSTORE SWAP2 PUSH1 0x20 ADD SWAP2 PUSH2 0x5C7 JUMP JUMPDEST DUP3 ADD SWAP2 SWAP1 PUSH0 MSTORE PUSH1 0x20 PUSH0 KECCAK256 SWAP1 JUMPDEST DUP2 SLOAD DUP2 MSTORE SWAP1 PUSH1 0x1 ADD SWAP1 PUSH1 0x20 ADD DUP1 DUP4 GT PUSH2 0x5AA JUMPI DUP3 SWAP1 SUB PUSH1 0x1F AND DUP3 ADD SWAP2 JUMPDEST POP POP POP POP POP DUP2 MSTORE PUSH1 0x20 ADD PUSH1 0x2 DUP3 ADD SLOAD DUP2 MSTORE PUSH1 0x20 ADD PUSH1 0x3 DUP3 ADD SLOAD DUP2 MSTORE POP POP DUP4 DUP3 DUP2 MLOAD DUP2 LT PUSH2 0x5F7 JUMPI PUSH2 0x5F6 PUSH2 0x11C6 JUMP JUMPDEST JUMPDEST PUSH1 0x20 MUL PUSH1 0x20 ADD ADD DUP2 SWAP1 MSTORE POP DUP1 DUP1 PUSH1 0x1 ADD SWAP2 POP POP PUSH2 0x49F JUMP JUMPDEST POP POP SWAP3 SWAP2 POP POP JUMP JUMPDEST PUSH0 TIMESTAMP SWAP1 POP PUSH0 DUP4 DUP4 DUP4 PUSH1 0x40 MLOAD PUSH1 0x20 ADD PUSH2 0x631 SWAP4 SWAP3 SWAP2 SWAP1 PUSH2 0x12B6 JUMP JUMPDEST PUSH1 0x40 MLOAD PUSH1 0x20 DUP2 DUP4 SUB SUB DUP2 MSTORE SWAP1 PUSH1 0x40 MSTORE DUP1 MLOAD SWAP1 PUSH1 0x20 ADD KECCAK256 SWAP1 POP PUSH0 PUSH1 0x40 MLOAD DUP1 PUSH1 0x80 ADD PUSH1 0x40 MSTORE DUP1 CALLER PUSH20 0xFFFFFFFFFFFFFFFFFFFFFFFFFFFFFFFFFFFFFFFF AND DUP2 MSTORE PUSH1 0x20 ADD DUP7 DUP7 DUP1 DUP1 PUSH1 0x1F ADD PUSH1 0x20 DUP1 SWAP2 DIV MUL PUSH1 0x20 ADD PUSH1 0x40 MLOAD SWAP1 DUP2 ADD PUSH1 0x40 MSTORE DUP1 SWAP4 SWAP3 SWAP2 SWAP1 DUP2 DUP2 MSTORE PUSH1 0x20 ADD DUP4 DUP4 DUP1 DUP3 DUP5 CALLDATACOPY PUSH0 DUP2 DUP5 ADD MSTORE PUSH1 0x1F NOT PUSH1 0x1F DUP3 ADD AND SWAP1 POP DUP1 DUP4 ADD SWAP3 POP POP POP POP POP POP POP DUP2 MSTORE PUSH1 0x20 ADD DUP5 DUP2 MSTORE PUSH1 0x20 ADD DUP4 DUP2 MSTORE POP SWAP1 POP PUSH0 DUP2 SWAP1 DUP1 PUSH1 0x1 DUP2 SLOAD ADD DUP1 DUP3 SSTORE DUP1 SWAP2 POP POP PUSH1 0x1 SWAP1 SUB SWAP1 PUSH0 MSTORE PUSH1 0x20 PUSH0 KECCAK256 SWAP1 PUSH1 0x4 MUL ADD PUSH0 SWAP1 SWAP2 SWAP1 SWAP2 SWAP1 SWAP2 POP PUSH0 DUP3 ADD MLOAD DUP2 PUSH0 ADD PUSH0 PUSH2 0x100 EXP DUP2 SLOAD DUP2 PUSH20 0xFFFFFFFFFFFFFFFFFFFFFFFFFFFFFFFFFFFFFFFF MUL NOT AND SWAP1 DUP4 PUSH20 0xFFFFFFFFFFFFFFFFFFFFFFFFFFFFFFFFFFFFFFFF AND MUL OR SWAP1 SSTORE POP PUSH1 0x20 DUP3 ADD MLOAD DUP2 PUSH1 0x1 ADD SWAP1 DUP2 PUSH2 0x747 SWAP2 SWAP1 PUSH2 0x147F JUMP JUMPDEST POP PUSH1 0x40 DUP3 ADD MLOAD DUP2 PUSH1 0x2 ADD SSTORE PUSH1 0x60 DUP3 ADD MLOAD DUP2 PUSH1 0x3 ADD SSTORE POP POP PUSH0 PUSH1 0x1 PUSH0 DUP1 SLOAD SWAP1 POP PUSH2 0x770 SWAP2 SWAP1 PUSH2 0x157B JUMP JUMPDEST SWAP1 POP DUP1 PUSH1 0x1 PUSH0 DUP6 DUP2 MSTORE PUSH1 0x20 ADD SWAP1 DUP2 MSTORE PUSH1 0x20 ADD PUSH0 KECCAK256 DUP2 SWAP1 SSTORE POP PUSH1 0x2 DUP7 DUP7 PUSH1 0x40 MLOAD PUSH2 0x79A SWAP3 SWAP2 SWAP1 PUSH2 0x127E JUMP JUMPDEST SWAP1 DUP2 MSTORE PUSH1 0x20 ADD PUSH1 0x40 MLOAD DUP1 SWAP2 SUB SWAP1 KECCAK256 DUP2 SWAP1 DUP1 PUSH1 0x1 DUP2 SLOAD ADD DUP1 DUP3 SSTORE DUP1 SWAP2 POP POP PUSH1 0x1 SWAP1 SUB SWAP1 PUSH0 MSTORE PUSH1 0x20 PUSH0 KECCAK256 ADD PUSH0 SWAP1 SWAP2 SWAP1 SWAP2 SWAP1 SWAP2 POP SSTORE CALLER PUSH20 0xFFFFFFFFFFFFFFFFFFFFFFFFFFFFFFFFFFFFFFFF AND PUSH32 0x43D36E0547072645A361A18CC0AE285B0367B5AEC05CFCD140D26F1A6B216F82 DUP8 DUP8 DUP8 DUP8 PUSH1 0x40 MLOAD PUSH2 0x818 SWAP5 SWAP4 SWAP3 SWAP2 SWAP1 PUSH2 0x15DA JUMP JUMPDEST PUSH1 0x40 MLOAD DUP1 SWAP2 SUB SWAP1 LOG2 POP POP POP POP POP POP JUMP JUMPDEST PUSH0 DUP2 DUP2 SLOAD DUP2 LT PUSH2 0x836 JUMPI PUSH0 DUP1 REVERT JUMPDEST SWAP1 PUSH0 MSTORE PUSH1 0x20 PUSH0 KECCAK256 SWAP1 PUSH1 0x4 MUL ADD PUSH0 SWAP2 POP SWAP1 POP DUP1 PUSH0 ADD PUSH0 SWAP1 SLOAD SWAP1 PUSH2 0x100 EXP SWAP1 DIV PUSH20 0xFFFFFFFFFFFFFFFFFFFFFFFFFFFFFFFFFFFFFFFF AND SWAP1 DUP1 PUSH1 0x1 ADD DUP1 SLOAD PUSH2 0x87A SWAP1 PUSH2 0x1220 JUMP JUMPDEST DUP1 PUSH1 0x1F ADD PUSH1 0x20 DUP1 SWAP2 DIV MUL PUSH1 0x20 ADD PUSH1 0x40 MLOAD SWAP1 DUP2 ADD PUSH1 0x40 MSTORE DUP1 SWAP3 SWAP2 SWAP1 DUP2 DUP2 MSTORE PUSH1 0x20 ADD DUP3 DUP1 SLOAD PUSH2 0x8A6 SWAP1 PUSH2 0x1220 JUMP JUMPDEST DUP1 ISZERO PUSH2 0x8F1 JUMPI DUP1 PUSH1 0x1F LT PUSH2 0x8C8 JUMPI PUSH2 0x100 DUP1 DUP4 SLOAD DIV MUL DUP4 MSTORE SWAP2 PUSH1 0x20 ADD SWAP2 PUSH2 0x8F1 JUMP JUMPDEST DUP3 ADD SWAP2 SWAP1 PUSH0 MSTORE PUSH1 0x20 PUSH0 KECCAK256 SWAP1 JUMPDEST DUP2 SLOAD DUP2 MSTORE SWAP1 PUSH1 0x1 ADD SWAP1 PUSH1 0x20 ADD DUP1 DUP4 GT PUSH2 0x8D4 JUMPI DUP3 SWAP1 SUB PUSH1 0x1F AND DUP3 ADD SWAP2 JUMPDEST POP POP POP POP POP SWAP1 DUP1 PUSH1 0x2 ADD SLOAD SWAP1 DUP1 PUSH1 0x3 ADD SLOAD SWAP1 POP DUP5 JUMP JUMPDEST PUSH0 PUSH1 0x60 PUSH0 PUSH0 PUSH0 DUP1 SLOAD SWAP1 POP DUP6 LT PUSH2 0x952 JUMPI PUSH1 0x40 MLOAD PUSH32 0x8C379A000000000000000000000000000000000000000000000000000000000 DUP2 MSTORE PUSH1 0x4 ADD PUSH2 0x949 SWAP1 PUSH2 0x1662 JUMP JUMPDEST PUSH1 0x40 MLOAD DUP1 SWAP2 SUB SWAP1 REVERT JUMPDEST PUSH0 PUSH0 DUP7 DUP2 SLOAD DUP2 LT PUSH2 0x966 JUMPI PUSH2 0x965 PUSH2 0x11C6 JUMP JUMPDEST JUMPDEST SWAP1 PUSH0 MSTORE PUSH1 0x20 PUSH0 KECCAK256 SWAP1 PUSH1 0x4 MUL ADD PUSH1 0x40 MLOAD DUP1 PUSH1 0x80 ADD PUSH1 0x40 MSTORE SWAP1 DUP2 PUSH0 DUP3 ADD PUSH0 SWAP1 SLOAD SWAP1 PUSH2 0x100 EXP SWAP1 DIV PUSH20 0xFFFFFFFFFFFFFFFFFFFFFFFFFFFFFFFFFFFFFFFF AND PUSH20 0xFFFFFFFFFFFFFFFFFFFFFFFFFFFFFFFFFFFFFFFF AND PUSH20 0xFFFFFFFFFFFFFFFFFFFFFFFFFFFFFFFFFFFFFFFF AND DUP2 MSTORE PUSH1 0x20 ADD PUSH1 0x1 DUP3 ADD DUP1 SLOAD PUSH2 0x9E1 SWAP1 PUSH2 0x1220 JUMP JUMPDEST DUP1 PUSH1 0x1F ADD PUSH1 0x20 DUP1 SWAP2 DIV MUL PUSH1 0x20 ADD PUSH1 0x40 MLOAD SWAP1 DUP2 ADD PUSH1 0x40 MSTORE DUP1 SWAP3 SWAP2 SWAP1 DUP2 DUP2 MSTORE PUSH1 0x20 ADD DUP3 DUP1 SLOAD PUSH2 0xA0D SWAP1 PUSH2 0x1220 JUMP JUMPDEST DUP1 ISZERO PUSH2 0xA58 JUMPI DUP1 PUSH1 0x1F LT PUSH2 0xA2F JUMPI PUSH2 0x100 DUP1 DUP4 SLOAD DIV MUL DUP4 MSTORE SWAP2 PUSH1 0x20 ADD SWAP2 PUSH2 0xA58 JUMP JUMPDEST DUP3 ADD SWAP2 SWAP1 PUSH0 MSTORE PUSH1 0x20 PUSH0 KECCAK256 SWAP1 JUMPDEST DUP2 SLOAD DUP2 MSTORE SWAP1 PUSH1 0x1 ADD SWAP1 PUSH1 0x20 ADD DUP1 DUP4 GT PUSH2 0xA3B JUMPI DUP3 SWAP1 SUB PUSH1 0x1F AND DUP3 ADD SWAP2 JUMPDEST POP POP POP POP POP DUP2 MSTORE PUSH1 0x20 ADD PUSH1 0x2 DUP3 ADD SLOAD DUP2 MSTORE PUSH1 0x20 ADD PUSH1 0x3 DUP3 ADD SLOAD DUP2 MSTORE POP POP SWAP1 POP DUP1 PUSH0 ADD MLOAD DUP2 PUSH1 0x20 ADD MLOAD DUP3 PUSH1 0x40 ADD MLOAD DUP4 PUSH1 0x60 ADD MLOAD SWAP5 POP SWAP5 POP SWAP5 POP SWAP5 POP POP SWAP2 SWAP4 POP SWAP2 SWAP4 JUMP JUMPDEST PUSH0 PUSH0 DUP1 SLOAD SWAP1 POP SWAP1 POP SWAP1 JUMP JUMPDEST PUSH1 0x1 PUSH1 0x20 MSTORE DUP1 PUSH0 MSTORE PUSH1 0x40 PUSH0 KECCAK256 PUSH0 SWAP2 POP SWAP1 POP SLOAD DUP2 JUMP JUMPDEST PUSH0 DUP3 DUP3 PUSH1 0x40 MLOAD PUSH1 0x20 ADD PUSH2 0xACE SWAP3 SWAP2 SWAP1 PUSH2 0x16B0 JUMP JUMPDEST PUSH1 0x40 MLOAD PUSH1 0x20 DUP2 DUP4 SUB SUB DUP2 MSTORE SWAP1 PUSH1 0x40 MSTORE DUP1 MLOAD SWAP1 PUSH1 0x20 ADD KECCAK256 SWAP1 POP SWAP3 SWAP2 POP POP JUMP JUMPDEST PUSH1 0x2 DUP3 DUP1 MLOAD PUSH1 0x20 DUP2 ADD DUP3 ADD DUP1 MLOAD DUP5 DUP3 MSTORE PUSH1 0x20 DUP4 ADD PUSH1 0x20 DUP6 ADD KECCAK256 DUP2 DUP4 MSTORE DUP1 SWAP6 POP POP POP POP POP POP DUP2 DUP2 SLOAD DUP2 LT PUSH2 0xB1D JUMPI PUSH0 DUP1 REVERT JUMPDEST SWAP1 PUSH0 MSTORE PUSH1 0x20 PUSH0 KECCAK256 ADD PUSH0 SWAP2 POP SWAP2 POP POP SLOAD DUP2 JUMP JUMPDEST PUSH1 0x40 MLOAD DUP1 PUSH1 0x80 ADD PUSH1 0x40 MSTORE DUP1 PUSH0 PUSH20 0xFFFFFFFFFFFFFFFFFFFFFFFFFFFFFFFFFFFFFFFF AND DUP2 MSTORE PUSH1 0x20 ADD PUSH1 0x60 DUP2 MSTORE PUSH1 0x20 ADD PUSH0 DUP2 MSTORE PUSH1 0x20 ADD PUSH0 DUP2 MSTORE POP SWAP1 JUMP JUMPDEST PUSH0 PUSH1 0x40 MLOAD SWAP1 POP SWAP1 JUMP JUMPDEST PUSH0 PUSH0 REVERT JUMPDEST PUSH0 PUSH0 REVERT JUMPDEST PUSH0 DUP2 SWAP1 POP SWAP2 SWAP1 POP JUMP JUMPDEST PUSH2 0xB8D DUP2 PUSH2 0xB7B JUMP JUMPDEST DUP2 EQ PUSH2 0xB97 JUMPI PUSH0 PUSH0 REVERT JUMPDEST POP JUMP JUMPDEST PUSH0 DUP2 CALLDATALOAD SWAP1 POP PUSH2 0xBA8 DUP2 PUSH2 0xB84 JUMP JUMPDEST SWAP3 SWAP2 POP POP JUMP JUMPDEST PUSH0 PUSH1 0x20 DUP3 DUP5 SUB SLT ISZERO PUSH2 0xBC3 JUMPI PUSH2 0xBC2 PUSH2 0xB73 JUMP JUMPDEST JUMPDEST PUSH0 PUSH2 0xBD0 DUP5 DUP3 DUP6 ADD PUSH2 0xB9A JUMP JUMPDEST SWAP2 POP POP SWAP3 SWAP2 POP POP JUMP JUMPDEST PUSH0 PUSH20 0xFFFFFFFFFFFFFFFFFFFFFFFFFFFFFFFFFFFFFFFF DUP3 AND SWAP1 POP SWAP2 SWAP1 POP JUMP JUMPDEST PUSH0 PUSH2 0xC02 DUP3 PUSH2 0xBD9 JUMP JUMPDEST SWAP1 POP SWAP2 SWAP1 POP JUMP JUMPDEST PUSH2 0xC12 DUP2 PUSH2 0xBF8 JUMP JUMPDEST DUP3 MSTORE POP POP JUMP JUMPDEST PUSH0 DUP2 MLOAD SWAP1 POP SWAP2 SWAP1 POP JUMP JUMPDEST PUSH0 DUP3 DUP3 MSTORE PUSH1 0x20 DUP3 ADD SWAP1 POP SWAP3 SWAP2 POP POP JUMP JUMPDEST DUP3 DUP2 DUP4 MCOPY PUSH0 DUP4 DUP4 ADD MSTORE POP POP POP JUMP JUMPDEST PUSH0 PUSH1 0x1F NOT PUSH1 0x1F DUP4 ADD AND SWAP1 POP SWAP2 SWAP1 POP JUMP JUMPDEST PUSH0 PUSH2 0xC5A DUP3 PUSH2 0xC18 JUMP JUMPDEST PUSH2 0xC64 DUP2 DUP6 PUSH2 0xC22 JUMP JUMPDEST SWAP4 POP PUSH2 0xC74 DUP2 DUP6 PUSH1 0x20 DUP7 ADD PUSH2 0xC32 JUMP JUMPDEST PUSH2 0xC7D DUP2 PUSH2 0xC40 JUMP JUMPDEST DUP5 ADD SWAP2 POP POP SWAP3 SWAP2 POP POP JUMP JUMPDEST PUSH0 DUP2 SWAP1 POP SWAP2 SWAP1 POP JUMP JUMPDEST PUSH2 0xC9A DUP2 PUSH2 0xC88 JUMP JUMPDEST DUP3 MSTORE POP POP JUMP JUMPDEST PUSH2 0xCA9 DUP2 PUSH2 0xB7B JUMP JUMPDEST DUP3 MSTORE POP POP JUMP JUMPDEST PUSH0 PUSH1 0x80 DUP3 ADD SWAP1 POP PUSH2 0xCC2 PUSH0 DUP4 ADD DUP8 PUSH2 0xC09 JUMP JUMPDEST DUP2 DUP2 SUB PUSH1 0x20 DUP4 ADD MSTORE PUSH2 0xCD4 DUP2 DUP7 PUSH2 0xC50 JUMP JUMPDEST SWAP1 POP PUSH2 0xCE3 PUSH1 0x40 DUP4 ADD DUP6 PUSH2 0xC91 JUMP JUMPDEST PUSH2 0xCF0 PUSH1 0x60 DUP4 ADD DUP5 PUSH2 0xCA0 JUMP JUMPDEST SWAP6 SWAP5 POP POP POP POP POP JUMP JUMPDEST PUSH0 PUSH0 REVERT JUMPDEST PUSH0 PUSH0 REVERT JUMPDEST PUSH0 PUSH0 REVERT JUMPDEST PUSH0 PUSH0 DUP4 PUSH1 0x1F DUP5 ADD SLT PUSH2 0xD1A JUMPI PUSH2 0xD19 PUSH2 0xCF9 JUMP JUMPDEST JUMPDEST DUP3 CALLDATALOAD SWAP1 POP PUSH8 0xFFFFFFFFFFFFFFFF DUP2 GT ISZERO PUSH2 0xD37 JUMPI PUSH2 0xD36 PUSH2 0xCFD JUMP JUMPDEST JUMPDEST PUSH1 0x20 DUP4 ADD SWAP2 POP DUP4 PUSH1 0x1 DUP3 MUL DUP4 ADD GT ISZERO PUSH2 0xD53 JUMPI PUSH2 0xD52 PUSH2 0xD01 JUMP JUMPDEST JUMPDEST SWAP3 POP SWAP3 SWAP1 POP JUMP JUMPDEST PUSH0 PUSH0 PUSH1 0x20 DUP4 DUP6 SUB SLT ISZERO PUSH2 0xD70 JUMPI PUSH2 0xD6F PUSH2 0xB73 JUMP JUMPDEST JUMPDEST PUSH0 DUP4 ADD CALLDATALOAD PUSH8 0xFFFFFFFFFFFFFFFF DUP2 GT ISZERO PUSH2 0xD8D JUMPI PUSH2 0xD8C PUSH2 0xB77 JUMP JUMPDEST JUMPDEST PUSH2 0xD99 DUP6 DUP3 DUP7 ADD PUSH2 0xD05 JUMP JUMPDEST SWAP3 POP SWAP3 POP POP SWAP3 POP SWAP3 SWAP1 POP JUMP JUMPDEST PUSH0 DUP2 MLOAD SWAP1 POP SWAP2 SWAP1 POP JUMP JUMPDEST PUSH0 DUP3 DUP3 MSTORE PUSH1 0x20 DUP3 ADD SWAP1 POP SWAP3 SWAP2 POP POP JUMP JUMPDEST PUSH0 DUP2 SWAP1 POP PUSH1 0x20 DUP3 ADD SWAP1 POP SWAP2 SWAP1 POP JUMP JUMPDEST PUSH2 0xDD7 DUP2 PUSH2 0xBF8 JUMP JUMPDEST DUP3 MSTORE POP POP JUMP JUMPDEST PUSH0 DUP3 DUP3 MSTORE PUSH1 0x20 DUP3 ADD SWAP1 POP SWAP3 SWAP2 POP POP JUMP JUMPDEST PUSH0 PUSH2 0xDF7 DUP3 PUSH2 0xC18 JUMP JUMPDEST PUSH2 0xE01 DUP2 DUP6 PUSH2 0xDDD JUMP JUMPDEST SWAP4 POP PUSH2 0xE11 DUP2 DUP6 PUSH1 0x20 DUP7 ADD PUSH2 0xC32 JUMP JUMPDEST PUSH2 0xE1A DUP2 PUSH2 0xC40 JUMP JUMPDEST DUP5 ADD SWAP2 POP POP SWAP3 SWAP2 POP POP JUMP JUMPDEST PUSH2 0xE2E DUP2 PUSH2 0xC88 JUMP JUMPDEST DUP3 MSTORE POP POP JUMP JUMPDEST PUSH2 0xE3D DUP2 PUSH2 0xB7B JUMP JUMPDEST DUP3 MSTORE POP POP JUMP JUMPDEST PUSH0 PUSH1 0x80 DUP4 ADD PUSH0 DUP4 ADD MLOAD PUSH2 0xE58 PUSH0 DUP7 ADD DUP3 PUSH2 0xDCE JUMP JUMPDEST POP PUSH1 0x20 DUP4 ADD MLOAD DUP5 DUP3 SUB PUSH1 0x20 DUP7 ADD MSTORE PUSH2 0xE70 DUP3 DUP3 PUSH2 0xDED JUMP JUMPDEST SWAP2 POP POP PUSH1 0x40 DUP4 ADD MLOAD PUSH2 0xE85 PUSH1 0x40 DUP7 ADD DUP3 PUSH2 0xE25 JUMP JUMPDEST POP PUSH1 0x60 DUP4 ADD MLOAD PUSH2 0xE98 PUSH1 0x60 DUP7 ADD DUP3 PUSH2 0xE34 JUMP JUMPDEST POP DUP1 SWAP2 POP POP SWAP3 SWAP2 POP POP JUMP JUMPDEST PUSH0 PUSH2 0xEAE DUP4 DUP4 PUSH2 0xE43 JUMP JUMPDEST SWAP1 POP SWAP3 SWAP2 POP POP JUMP JUMPDEST PUSH0 PUSH1 0x20 DUP3 ADD SWAP1 POP SWAP2 SWAP1 POP JUMP JUMPDEST PUSH0 PUSH2 0xECC DUP3 PUSH2 0xDA5 JUMP JUMPDEST PUSH2 0xED6 DUP2 DUP6 PUSH2 0xDAF JUMP JUMPDEST SWAP4 POP DUP4 PUSH1 0x20 DUP3 MUL DUP6 ADD PUSH2 0xEE8 DUP6 PUSH2 0xDBF JUMP JUMPDEST DUP1 PUSH0 JUMPDEST DUP6 DUP2 LT ISZERO PUSH2 0xF23 JUMPI DUP5 DUP5 SUB DUP10 MSTORE DUP2 MLOAD PUSH2 0xF04 DUP6 DUP3 PUSH2 0xEA3 JUMP JUMPDEST SWAP5 POP PUSH2 0xF0F DUP4 PUSH2 0xEB6 JUMP JUMPDEST SWAP3 POP PUSH1 0x20 DUP11 ADD SWAP10 POP POP PUSH1 0x1 DUP2 ADD SWAP1 POP PUSH2 0xEEB JUMP JUMPDEST POP DUP3 SWAP8 POP DUP8 SWAP6 POP POP POP POP POP POP SWAP3 SWAP2 POP POP JUMP JUMPDEST PUSH0 PUSH1 0x20 DUP3 ADD SWAP1 POP DUP2 DUP2 SUB PUSH0 DUP4 ADD MSTORE PUSH2 0xF4D DUP2 DUP5 PUSH2 0xEC2 JUMP JUMPDEST SWAP1 POP SWAP3 SWAP2 POP POP JUMP JUMPDEST PUSH2 0xF5E DUP2 PUSH2 0xC88 JUMP JUMPDEST DUP2 EQ PUSH2 0xF68 JUMPI PUSH0 PUSH0 REVERT JUMPDEST POP JUMP JUMPDEST PUSH0 DUP2 CALLDATALOAD SWAP1 POP PUSH2 0xF79 DUP2 PUSH2 0xF55 JUMP JUMPDEST SWAP3 SWAP2 POP POP JUMP JUMPDEST PUSH0 PUSH1 0x20 DUP3 DUP5 SUB SLT ISZERO PUSH2 0xF94 JUMPI PUSH2 0xF93 PUSH2 0xB73 JUMP JUMPDEST JUMPDEST PUSH0 PUSH2 0xFA1 DUP5 DUP3 DUP6 ADD PUSH2 0xF6B JUMP JUMPDEST SWAP2 POP POP SWAP3 SWAP2 POP POP JUMP JUMPDEST PUSH0 PUSH1 0x20 DUP3 ADD SWAP1 POP PUSH2 0xFBD PUSH0 DUP4 ADD DUP5 PUSH2 0xC91 JUMP JUMPDEST SWAP3 SWAP2 POP POP JUMP JUMPDEST PUSH0 PUSH0 REVERT JUMPDEST PUSH32 0x4E487B7100000000000000000000000000000000000000000000000000000000 PUSH0 MSTORE PUSH1 0x41 PUSH1 0x4 MSTORE PUSH1 0x24 PUSH0 REVERT JUMPDEST PUSH2 0xFFD DUP3 PUSH2 0xC40 JUMP JUMPDEST DUP2 ADD DUP2 DUP2 LT PUSH8 0xFFFFFFFFFFFFFFFF DUP3 GT OR ISZERO PUSH2 0x101C JUMPI PUSH2 0x101B PUSH2 0xFC7 JUMP JUMPDEST JUMPDEST DUP1 PUSH1 0x40 MSTORE POP POP POP JUMP JUMPDEST PUSH0 PUSH2 0x102E PUSH2 0xB6A JUMP JUMPDEST SWAP1 POP PUSH2 0x103A DUP3 DUP3 PUSH2 0xFF4 JUMP JUMPDEST SWAP2 SWAP1 POP JUMP JUMPDEST PUSH0 PUSH8 0xFFFFFFFFFFFFFFFF DUP3 GT ISZERO PUSH2 0x1059 JUMPI PUSH2 0x1058 PUSH2 0xFC7 JUMP JUMPDEST JUMPDEST PUSH2 0x1062 DUP3 PUSH2 0xC40 JUMP JUMPDEST SWAP1 POP PUSH1 0x20 DUP2 ADD SWAP1 POP SWAP2 SWAP1 POP JUMP JUMPDEST DUP3 DUP2 DUP4 CALLDATACOPY PUSH0 DUP4 DUP4 ADD MSTORE POP POP POP JUMP JUMPDEST PUSH0 PUSH2 0x108F PUSH2 0x108A DUP5 PUSH2 0x103F JUMP JUMPDEST PUSH2 0x1025 JUMP JUMPDEST SWAP1 POP DUP3 DUP2 MSTORE PUSH1 0x20 DUP2 ADD DUP5 DUP5 DUP5 ADD GT ISZERO PUSH2 0x10AB JUMPI PUSH2 0x10AA PUSH2 0xFC3 JUMP JUMPDEST JUMPDEST PUSH2 0x10B6 DUP5 DUP3 DUP6 PUSH2 0x106F JUMP JUMPDEST POP SWAP4 SWAP3 POP POP POP JUMP JUMPDEST PUSH0 DUP3 PUSH1 0x1F DUP4 ADD SLT PUSH2 0x10D2 JUMPI PUSH2 0x10D1 PUSH2 0xCF9 JUMP JUMPDEST JUMPDEST DUP2 CALLDATALOAD PUSH2 0x10E2 DUP5 DUP3 PUSH1 0x20 DUP7 ADD PUSH2 0x107D JUMP JUMPDEST SWAP2 POP POP SWAP3 SWAP2 POP POP JUMP JUMPDEST PUSH0 PUSH0 PUSH1 0x40 DUP4 DUP6 SUB SLT ISZERO PUSH2 0x1101 JUMPI PUSH2 0x1100 PUSH2 0xB73 JUMP JUMPDEST JUMPDEST PUSH0 DUP4 ADD CALLDATALOAD PUSH8 0xFFFFFFFFFFFFFFFF DUP2 GT ISZERO PUSH2 0x111E JUMPI PUSH2 0x111D PUSH2 0xB77 JUMP JUMPDEST JUMPDEST PUSH2 0x112A DUP6 DUP3 DUP7 ADD PUSH2 0x10BE JUMP JUMPDEST SWAP3 POP POP PUSH1 0x20 PUSH2 0x113B DUP6 DUP3 DUP7 ADD PUSH2 0xF6B JUMP JUMPDEST SWAP2 POP POP SWAP3 POP SWAP3 SWAP1 POP JUMP JUMPDEST PUSH0 PUSH1 0x20 DUP3 ADD SWAP1 POP PUSH2 0x1158 PUSH0 DUP4 ADD DUP5 PUSH2 0xCA0 JUMP JUMPDEST SWAP3 SWAP2 POP POP JUMP JUMPDEST PUSH32 0x4E6F20736520656E636F6E74726F206C61206669726D61000000000000000000 PUSH0 DUP3 ADD MSTORE POP JUMP JUMPDEST PUSH0 PUSH2 0x1192 PUSH1 0x17 DUP4 PUSH2 0xC22 JUMP JUMPDEST SWAP2 POP PUSH2 0x119D DUP3 PUSH2 0x115E JUMP JUMPDEST PUSH1 0x20 DUP3 ADD SWAP1 POP SWAP2 SWAP1 POP JUMP JUMPDEST PUSH0 PUSH1 0x20 DUP3 ADD SWAP1 POP DUP2 DUP2 SUB PUSH0 DUP4 ADD MSTORE PUSH2 0x11BF DUP2 PUSH2 0x1186 JUMP JUMPDEST SWAP1 POP SWAP2 SWAP1 POP JUMP JUMPDEST PUSH32 0x4E487B7100000000000000000000000000000000000000000000000000000000 PUSH0 MSTORE PUSH1 0x32 PUSH1 0x4 MSTORE PUSH1 0x24 PUSH0 REVERT JUMPDEST PUSH32 0x4E487B7100000000000000000000000000000000000000000000000000000000 PUSH0 MSTORE PUSH1 0x22 PUSH1 0x4 MSTORE PUSH1 0x24 PUSH0 REVERT JUMPDEST PUSH0 PUSH1 0x2 DUP3 DIV SWAP1 POP PUSH1 0x1 DUP3 AND DUP1 PUSH2 0x1237 JUMPI PUSH1 0x7F DUP3 AND SWAP2 POP JUMPDEST PUSH1 0x20 DUP3 LT DUP2 SUB PUSH2 0x124A JUMPI PUSH2 0x1249 PUSH2 0x11F3 JUMP JUMPDEST JUMPDEST POP SWAP2 SWAP1 POP JUMP JUMPDEST PUSH0 DUP2 SWAP1 POP SWAP3 SWAP2 POP POP JUMP JUMPDEST PUSH0 PUSH2 0x1265 DUP4 DUP6 PUSH2 0x1250 JUMP JUMPDEST SWAP4 POP PUSH2 0x1272 DUP4 DUP6 DUP5 PUSH2 0x106F JUMP JUMPDEST DUP3 DUP5 ADD SWAP1 POP SWAP4 SWAP3 POP POP POP JUMP JUMPDEST PUSH0 PUSH2 0x128A DUP3 DUP5 DUP7 PUSH2 0x125A JUMP JUMPDEST SWAP2 POP DUP2 SWAP1 POP SWAP4 SWAP3 POP POP POP JUMP JUMPDEST PUSH0 DUP2 SWAP1 POP SWAP2 SWAP1 POP JUMP JUMPDEST PUSH2 0x12B0 PUSH2 0x12AB DUP3 PUSH2 0xC88 JUMP JUMPDEST PUSH2 0x1296 JUMP JUMPDEST DUP3 MSTORE POP POP JUMP JUMPDEST PUSH0 PUSH2 0x12C2 DUP3 DUP6 DUP8 PUSH2 0x125A JUMP JUMPDEST SWAP2 POP PUSH2 0x12CE DUP3 DUP5 PUSH2 0x129F JUMP JUMPDEST PUSH1 0x20 DUP3 ADD SWAP2 POP DUP2 SWAP1 POP SWAP5 SWAP4 POP POP POP POP JUMP JUMPDEST PUSH0 DUP2 SWAP1 POP DUP2 PUSH0 MSTORE PUSH1 0x20 PUSH0 KECCAK256 SWAP1 POP SWAP2 SWAP1 POP JUMP JUMPDEST PUSH0 PUSH1 0x20 PUSH1 0x1F DUP4 ADD DIV SWAP1 POP SWAP2 SWAP1 POP JUMP JUMPDEST PUSH0 DUP3 DUP3 SHL SWAP1 POP SWAP3 SWAP2 POP POP JUMP JUMPDEST PUSH0 PUSH1 0x8 DUP4 MUL PUSH2 0x133B PUSH32 0xFFFFFFFFFFFFFFFFFFFFFFFFFFFFFFFFFFFFFFFFFFFFFFFFFFFFFFFFFFFFFFFF DUP3 PUSH2 0x1300 JUMP JUMPDEST PUSH2 0x1345 DUP7 DUP4 PUSH2 0x1300 JUMP JUMPDEST SWAP6 POP DUP1 NOT DUP5 AND SWAP4 POP DUP1 DUP7 AND DUP5 OR SWAP3 POP POP POP SWAP4 SWAP3 POP POP POP JUMP JUMPDEST PUSH0 DUP2 SWAP1 POP SWAP2 SWAP1 POP JUMP JUMPDEST PUSH0 PUSH2 0x1380 PUSH2 0x137B PUSH2 0x1376 DUP5 PUSH2 0xC88 JUMP JUMPDEST PUSH2 0x135D JUMP JUMPDEST PUSH2 0xC88 JUMP JUMPDEST SWAP1 POP SWAP2 SWAP1 POP JUMP JUMPDEST PUSH0 DUP2 SWAP1 POP SWAP2 SWAP1 POP JUMP JUMPDEST PUSH2 0x1399 DUP4 PUSH2 0x1366 JUMP JUMPDEST PUSH2 0x13AD PUSH2 0x13A5 DUP3 PUSH2 0x1387 JUMP JUMPDEST DUP5 DUP5 SLOAD PUSH2 0x130C JUMP JUMPDEST DUP3 SSTORE POP POP POP POP JUMP JUMPDEST PUSH0 PUSH0 SWAP1 POP SWAP1 JUMP JUMPDEST PUSH2 0x13C4 PUSH2 0x13B5 JUMP JUMPDEST PUSH2 0x13CF DUP2 DUP5 DUP5 PUSH2 0x1390 JUMP JUMPDEST POP POP POP JUMP JUMPDEST JUMPDEST DUP2 DUP2 LT ISZERO PUSH2 0x13F2 JUMPI PUSH2 0x13E7 PUSH0 DUP3 PUSH2 0x13BC JUMP JUMPDEST PUSH1 0x1 DUP2 ADD SWAP1 POP PUSH2 0x13D5 JUMP JUMPDEST POP POP JUMP JUMPDEST PUSH1 0x1F DUP3 GT ISZERO PUSH2 0x1437 JUMPI PUSH2 0x1408 DUP2 PUSH2 0x12DF JUMP JUMPDEST PUSH2 0x1411 DUP5 PUSH2 0x12F1 JUMP JUMPDEST DUP2 ADD PUSH1 0x20 DUP6 LT ISZERO PUSH2 0x1420 JUMPI DUP2 SWAP1 POP JUMPDEST PUSH2 0x1434 PUSH2 0x142C DUP6 PUSH2 0x12F1 JUMP JUMPDEST DUP4 ADD DUP3 PUSH2 0x13D4 JUMP JUMPDEST POP POP JUMPDEST POP POP POP JUMP JUMPDEST PUSH0 DUP3 DUP3 SHR SWAP1 POP SWAP3 SWAP2 POP POP JUMP JUMPDEST PUSH0 PUSH2 0x1457 PUSH0 NOT DUP5 PUSH1 0x8 MUL PUSH2 0x143C JUMP JUMPDEST NOT DUP1 DUP4 AND SWAP2 POP POP SWAP3 SWAP2 POP POP JUMP JUMPDEST PUSH0 PUSH2 0x146F DUP4 DUP4 PUSH2 0x1448 JUMP JUMPDEST SWAP2 POP DUP3 PUSH1 0x2 MUL DUP3 OR SWAP1 POP SWAP3 SWAP2 POP POP JUMP JUMPDEST PUSH2 0x1488 DUP3 PUSH2 0xC18 JUMP JUMPDEST PUSH8 0xFFFFFFFFFFFFFFFF DUP2 GT ISZERO PUSH2 0x14A1 JUMPI PUSH2 0x14A0 PUSH2 0xFC7 JUMP JUMPDEST JUMPDEST PUSH2 0x14AB DUP3 SLOAD PUSH2 0x1220 JUMP JUMPDEST PUSH2 0x14B6 DUP3 DUP3 DUP6 PUSH2 0x13F6 JUMP JUMPDEST PUSH0 PUSH1 0x20 SWAP1 POP PUSH1 0x1F DUP4 GT PUSH1 0x1 DUP2 EQ PUSH2 0x14E7 JUMPI PUSH0 DUP5 ISZERO PUSH2 0x14D5 JUMPI DUP3 DUP8 ADD MLOAD SWAP1 POP JUMPDEST PUSH2 0x14DF DUP6 DUP3 PUSH2 0x1464 JUMP JUMPDEST DUP7 SSTORE POP PUSH2 0x1546 JUMP JUMPDEST PUSH1 0x1F NOT DUP5 AND PUSH2 0x14F5 DUP7 PUSH2 0x12DF JUMP JUMPDEST PUSH0 JUMPDEST DUP3 DUP2 LT ISZERO PUSH2 0x151C JUMPI DUP5 DUP10 ADD MLOAD DUP3 SSTORE PUSH1 0x1 DUP3 ADD SWAP2 POP PUSH1 0x20 DUP6 ADD SWAP5 POP PUSH1 0x20 DUP2 ADD SWAP1 POP PUSH2 0x14F7 JUMP JUMPDEST DUP7 DUP4 LT ISZERO PUSH2 0x1539 JUMPI DUP5 DUP10 ADD MLOAD PUSH2 0x1535 PUSH1 0x1F DUP10 AND DUP3 PUSH2 0x1448 JUMP JUMPDEST DUP4 SSTORE POP JUMPDEST PUSH1 0x1 PUSH1 0x2 DUP9 MUL ADD DUP9 SSTORE POP POP POP JUMPDEST POP POP POP POP POP POP JUMP JUMPDEST PUSH32 0x4E487B7100000000000000000000000000000000000000000000000000000000 PUSH0 MSTORE PUSH1 0x11 PUSH1 0x4 MSTORE PUSH1 0x24 PUSH0 REVERT JUMPDEST PUSH0 PUSH2 0x1585 DUP3 PUSH2 0xC88 JUMP JUMPDEST SWAP2 POP PUSH2 0x1590 DUP4 PUSH2 0xC88 JUMP JUMPDEST SWAP3 POP DUP3 DUP3 SUB SWAP1 POP DUP2 DUP2 GT ISZERO PUSH2 0x15A8 JUMPI PUSH2 0x15A7 PUSH2 0x154E JUMP JUMPDEST JUMPDEST SWAP3 SWAP2 POP POP JUMP JUMPDEST PUSH0 PUSH2 0x15B9 DUP4 DUP6 PUSH2 0xC22 JUMP JUMPDEST SWAP4 POP PUSH2 0x15C6 DUP4 DUP6 DUP5 PUSH2 0x106F JUMP JUMPDEST PUSH2 0x15CF DUP4 PUSH2 0xC40 JUMP JUMPDEST DUP5 ADD SWAP1 POP SWAP4 SWAP3 POP POP POP JUMP JUMPDEST PUSH0 PUSH1 0x60 DUP3 ADD SWAP1 POP DUP2 DUP2 SUB PUSH0 DUP4 ADD MSTORE PUSH2 0x15F3 DUP2 DUP7 DUP9 PUSH2 0x15AE JUMP JUMPDEST SWAP1 POP PUSH2 0x1602 PUSH1 0x20 DUP4 ADD DUP6 PUSH2 0xC91 JUMP JUMPDEST PUSH2 0x160F PUSH1 0x40 DUP4 ADD DUP5 PUSH2 0xCA0 JUMP JUMPDEST SWAP6 SWAP5 POP POP POP POP POP JUMP JUMPDEST PUSH32 0x496E646963652066756572612064652072616E676F0000000000000000000000 PUSH0 DUP3 ADD MSTORE POP JUMP JUMPDEST PUSH0 PUSH2 0x164C PUSH1 0x15 DUP4 PUSH2 0xC22 JUMP JUMPDEST SWAP2 POP PUSH2 0x1657 DUP3 PUSH2 0x1618 JUMP JUMPDEST PUSH1 0x20 DUP3 ADD SWAP1 POP SWAP2 SWAP1 POP JUMP JUMPDEST PUSH0 PUSH1 0x20 DUP3 ADD SWAP1 POP DUP2 DUP2 SUB PUSH0 DUP4 ADD MSTORE PUSH2 0x1679 DUP2 PUSH2 0x1640 JUMP JUMPDEST SWAP1 POP SWAP2 SWAP1 POP JUMP JUMPDEST PUSH0 PUSH2 0x168A DUP3 PUSH2 0xC18 JUMP JUMPDEST PUSH2 0x1694 DUP2 DUP6 PUSH2 0x1250 JUMP JUMPDEST SWAP4 POP PUSH2 0x16A4 DUP2 DUP6 PUSH1 0x20 DUP7 ADD PUSH2 0xC32 JUMP JUMPDEST DUP1 DUP5 ADD SWAP2 POP POP SWAP3 SWAP2 POP POP JUMP JUMPDEST PUSH0 PUSH2 0x16BB DUP3 DUP6 PUSH2 0x1680 JUMP JUMPDEST SWAP2 POP PUSH2 0x16C7 DUP3 DUP5 PUSH2 0x129F JUMP JUMPDEST PUSH1 0x20 DUP3 ADD SWAP2 POP DUP2 SWAP1 POP SWAP4 SWAP3 POP POP POP JUMP INVALID LOG2 PUSH5 0x6970667358 0x22 SLT KECCAK256 PUSH6 0x79F4D04C3284 PUSH1 0x14 CALLCODE PUSH26 0x58CFDE20A46AF489F3AFAE4FC14A627C8FEE361DF64736F6C63 NUMBER STOP ADDMOD 0x1E STOP CALLER "
				},
				"gasEstimates": {
					"creation": {
						"codeDepositCost": "1180200",
						"executionCost": "1225",
						"totalCost": "1181425"
					},
					"external": {
						"buscarFirmaPorHash(bytes32)": "infinite",
						"buscarFirmasPorTexto(string)": "infinite",
						"firmar(string)": "infinite",
						"firmas(uint256)": "infinite",
						"generarHashLibro(string,uint256)": "infinite",
						"indicePorHashLibro(bytes32)": "2798",
						"indicesPorTextoFirma(string,uint256)": "infinite",
						"obtenerCantidadFirmas()": "2461",
						"obtenerFirmaPorIndice(uint256)": "infinite"
					}
				},
				"methodIdentifiers": {
					"buscarFirmaPorHash(bytes32)": "076110f3",
					"buscarFirmasPorTexto(string)": "2a6b76ff",
					"firmar(string)": "3a419d0c",
					"firmas(uint256)": "3c629706",
					"generarHashLibro(string,uint256)": "9ffda5e2",
					"indicePorHashLibro(bytes32)": "56bf5c48",
					"indicesPorTextoFirma(string,uint256)": "d9b5a670",
					"obtenerCantidadFirmas()": "55ae032c",
					"obtenerFirmaPorIndice(uint256)": "4820fc5d"
				}
			},
			"storageLayout": {
				"storage": [
					{
						"astId": 16,
						"contract": "contracts/LibroDeFirmas.sol:LibroDeFirmas",
						"label": "firmas",
						"offset": 0,
						"slot": "0",
						"type": "t_array(t_struct(Firma)12_storage)dyn_storage"
					},
					{
						"astId": 20,
						"contract": "contracts/LibroDeFirmas.sol:LibroDeFirmas",
						"label": "indicePorHashLibro",
						"offset": 0,
						"slot": "1",
						"type": "t_mapping(t_bytes32,t_uint256)"
					},
					{
						"astId": 25,
						"contract": "contracts/LibroDeFirmas.sol:LibroDeFirmas",
						"label": "indicesPorTextoFirma",
						"offset": 0,
						"slot": "2",
						"type": "t_mapping(t_string_memory_ptr,t_array(t_uint256)dyn_storage)"
					}
				],
				"types": {
					"t_address": {
						"encoding": "inplace",
						"label": "address",
						"numberOfBytes": "20"
					},
					"t_array(t_struct(Firma)12_storage)dyn_storage": {
						"base": "t_struct(Firma)12_storage",
						"encoding": "dynamic_array",
						"label": "struct LibroDeFirmas.Firma[]",
						"numberOfBytes": "32"
					},
					"t_array(t_uint256)dyn_storage": {
						"base": "t_uint256",
						"encoding": "dynamic_array",
						"label": "uint256[]",
						"numberOfBytes": "32"
					},
					"t_bytes32": {
						"encoding": "inplace",
						"label": "bytes32",
						"numberOfBytes": "32"
					},
					"t_mapping(t_bytes32,t_uint256)": {
						"encoding": "mapping",
						"key": "t_bytes32",
						"label": "mapping(bytes32 => uint256)",
						"numberOfBytes": "32",
						"value": "t_uint256"
					},
					"t_mapping(t_string_memory_ptr,t_array(t_uint256)dyn_storage)": {
						"encoding": "mapping",
						"key": "t_string_memory_ptr",
						"label": "mapping(string => uint256[])",
						"numberOfBytes": "32",
						"value": "t_array(t_uint256)dyn_storage"
					},
					"t_string_memory_ptr": {
						"encoding": "bytes",
						"label": "string",
						"numberOfBytes": "32"
					},
					"t_string_storage": {
						"encoding": "bytes",
						"label": "string",
						"numberOfBytes": "32"
					},
					"t_struct(Firma)12_storage": {
						"encoding": "inplace",
						"label": "struct LibroDeFirmas.Firma",
						"members": [
							{
								"astId": 5,
								"contract": "contracts/LibroDeFirmas.sol:LibroDeFirmas",
								"label": "firmante",
								"offset": 0,
								"slot": "0",
								"type": "t_address"
							},
							{
								"astId": 7,
								"contract": "contracts/LibroDeFirmas.sol:LibroDeFirmas",
								"label": "Texto_firma",
								"offset": 0,
								"slot": "1",
								"type": "t_string_storage"
							},
							{
								"astId": 9,
								"contract": "contracts/LibroDeFirmas.sol:LibroDeFirmas",
								"label": "fecha",
								"offset": 0,
								"slot": "2",
								"type": "t_uint256"
							},
							{
								"astId": 11,
								"contract": "contracts/LibroDeFirmas.sol:LibroDeFirmas",
								"label": "hash_firma",
								"offset": 0,
								"slot": "3",
								"type": "t_bytes32"
							}
						],
						"numberOfBytes": "128"
					},
					"t_uint256": {
						"encoding": "inplace",
						"label": "uint256",
						"numberOfBytes": "32"
					}
				}
			},
			"userdoc": {
				"kind": "user",
				"methods": {
					"buscarFirmaPorHash(bytes32)": {
						"notice": "Devuelve una firma por su hash_firmaEn la siguiente variable se guarda el hash \"bytes32 _hash_firma\"Ejemplo 0xbe2b67652a8d3d321bdf67f673fd3705e8ddf81d16ed8781e69c034491d50448"
					},
					"buscarFirmasPorTexto(string)": {
						"notice": "Devuelve todas las firmas que tengan un texto específicoEn la siguiente variable se guarda el hash \"string _Texto_firma\"Ejemplo 1234567"
					},
					"firmar(string)": {
						"notice": "Permite a un usuario firmar el libro"
					},
					"generarHashLibro(string,uint256)": {
						"notice": "Genera el hash_firma fuera del contrato (útil para buscar)"
					},
					"obtenerCantidadFirmas()": {
						"notice": "Devuelve la cantidad total de firmas registradas"
					},
					"obtenerFirmaPorIndice(uint256)": {
						"notice": "Devuelve una firma específica por índiceEmpieza en 0"
					}
				},
				"version": 1
			}
		}
	}
}