{
	"contracts/SistemaVotacion.sol": {
		"SistemaVotacion": {
			"abi": [
				{
					"anonymous": false,
					"inputs": [
						{
							"indexed": false,
							"internalType": "bytes32",
							"name": "hash_planilla",
							"type": "bytes32"
						},
						{
							"indexed": false,
							"internalType": "string",
							"name": "ciudad",
							"type": "string"
						},
						{
							"indexed": false,
							"internalType": "uint256",
							"name": "numero_mesa",
							"type": "uint256"
						},
						{
							"indexed": false,
							"internalType": "uint256",
							"name": "fecha_creacion_planilla",
							"type": "uint256"
						},
						{
							"indexed": false,
							"internalType": "address",
							"name": "creador",
							"type": "address"
						}
					],
					"name": "PlanillaRegistrada",
					"type": "event"
				},
				{
					"inputs": [
						{
							"internalType": "bytes32",
							"name": "_hash",
							"type": "bytes32"
						}
					],
					"name": "buscarPlanillaPorHash",
					"outputs": [
						{
							"internalType": "string",
							"name": "ciudad",
							"type": "string"
						},
						{
							"internalType": "uint256",
							"name": "numero_mesa",
							"type": "uint256"
						},
						{
							"internalType": "string",
							"name": "nombre_votante_1",
							"type": "string"
						},
						{
							"internalType": "uint256",
							"name": "cantidad_1",
							"type": "uint256"
						},
						{
							"internalType": "string",
							"name": "nombre_votante_2",
							"type": "string"
						},
						{
							"internalType": "uint256",
							"name": "cantidad_2",
							"type": "uint256"
						},
						{
							"internalType": "uint256",
							"name": "votos_blanco",
							"type": "uint256"
						},
						{
							"internalType": "uint256",
							"name": "votos_totales",
							"type": "uint256"
						},
						{
							"internalType": "uint256",
							"name": "fecha_creacion_planilla",
							"type": "uint256"
						},
						{
							"internalType": "address",
							"name": "creador",
							"type": "address"
						}
					],
					"stateMutability": "view",
					"type": "function"
				},
				{
					"inputs": [
						{
							"internalType": "string",
							"name": "_ciudad",
							"type": "string"
						},
						{
							"internalType": "uint256",
							"name": "_numero_mesa",
							"type": "uint256"
						},
						{
							"internalType": "string",
							"name": "_nombre_votante_1",
							"type": "string"
						},
						{
							"internalType": "uint256",
							"name": "_cantidad_1",
							"type": "uint256"
						},
						{
							"internalType": "string",
							"name": "_nombre_votante_2",
							"type": "string"
						},
						{
							"internalType": "uint256",
							"name": "_cantidad_2",
							"type": "uint256"
						},
						{
							"internalType": "uint256",
							"name": "_votos_blanco",
							"type": "uint256"
						},
						{
							"internalType": "uint256",
							"name": "_fecha",
							"type": "uint256"
						}
					],
					"name": "generarHashPlanilla",
					"outputs": [
						{
							"internalType": "bytes32",
							"name": "",
							"type": "bytes32"
						}
					],
					"stateMutability": "pure",
					"type": "function"
				},
				{
					"inputs": [
						{
							"internalType": "bytes32",
							"name": "",
							"type": "bytes32"
						}
					],
					"name": "indicePorHash",
					"outputs": [
						{
							"internalType": "uint256",
							"name": "",
							"type": "uint256"
						}
					],
					"stateMutability": "view",
					"type": "function"
				},
				{
					"inputs": [],
					"name": "obtenerCantidadPlanillas",
					"outputs": [
						{
							"internalType": "uint256",
							"name": "",
							"type": "uint256"
						}
					],
					"stateMutability": "view",
					"type": "function"
				},
				{
					"inputs": [
						{
							"internalType": "uint256",
							"name": "indice",
							"type": "uint256"
						}
					],
					"name": "obtenerPlanillaPorIndice",
					"outputs": [
						{
							"internalType": "string",
							"name": "ciudad",
							"type": "string"
						},
						{
							"internalType": "uint256",
							"name": "numero_mesa",
							"type": "uint256"
						},
						{
							"internalType": "string",
							"name": "nombre_votante_1",
							"type": "string"
						},
						{
							"internalType": "uint256",
							"name": "cantidad_1",
							"type": "uint256"
						},
						{
							"internalType": "string",
							"name": "nombre_votante_2",
							"type": "string"
						},
						{
							"internalType": "uint256",
							"name": "cantidad_2",
							"type": "uint256"
						},
						{
							"internalType": "uint256",
							"name": "votos_blanco",
							"type": "uint256"
						},
						{
							"internalType": "uint256",
							"name": "votos_totales",
							"type": "uint256"
						},
						{
							"internalType": "uint256",
							"name": "fecha_creacion_planilla",
							"type": "uint256"
						},
						{
							"internalType": "bytes32",
							"name": "hash_planilla",
							"type": "bytes32"
						},
						{
							"internalType": "address",
							"name": "creador",
							"type": "address"
						}
					],
					"stateMutability": "view",
					"type": "function"
				},
				{
					"inputs": [
						{
							"internalType": "uint256",
							"name": "",
							"type": "uint256"
						}
					],
					"name": "planillas",
					"outputs": [
						{
							"internalType": "string",
							"name": "ciudad",
							"type": "string"
						},
						{
							"internalType": "uint256",
							"name": "numero_mesa",
							"type": "uint256"
						},
						{
							"internalType": "string",
							"name": "nombre_votante_1",
							"type": "string"
						},
						{
							"internalType": "uint256",
							"name": "cantidad_1",
							"type": "uint256"
						},
						{
							"internalType": "string",
							"name": "nombre_votante_2",
							"type": "string"
						},
						{
							"internalType": "uint256",
							"name": "cantidad_2",
							"type": "uint256"
						},
						{
							"internalType": "uint256",
							"name": "votos_blanco",
							"type": "uint256"
						},
						{
							"internalType": "uint256",
							"name": "votos_totales",
							"type": "uint256"
						},
						{
							"internalType": "uint256",
							"name": "fecha_creacion_planilla",
							"type": "uint256"
						},
						{
							"internalType": "bytes32",
							"name": "hash_planilla",
							"type": "bytes32"
						},
						{
							"internalType": "address",
							"name": "creador",
							"type": "address"
						}
					],
					"stateMutability": "view",
					"type": "function"
				},
				{
					"inputs": [
						{
							"internalType": "string",
							"name": "_ciudad",
							"type": "string"
						},
						{
							"internalType": "uint256",
							"name": "_numero_mesa",
							"type": "uint256"
						},
						{
							"internalType": "string",
							"name": "_nombre_votante_1",
							"type": "string"
						},
						{
							"internalType": "uint256",
							"name": "_cantidad_1",
							"type": "uint256"
						},
						{
							"internalType": "string",
							"name": "_nombre_votante_2",
							"type": "string"
						},
						{
							"internalType": "uint256",
							"name": "_cantidad_2",
							"type": "uint256"
						},
						{
							"internalType": "uint256",
							"name": "_votos_blanco",
							"type": "uint256"
						}
					],
					"name": "registrarPlanilla",
					"outputs": [],
					"stateMutability": "nonpayable",
					"type": "function"
				}
			],
			"devdoc": {
				"kind": "dev",
				"methods": {},
				"title": "Sistema de almacenamiento de votaciones",
				"version": 1
			},
			"evm": {
				"assembly": "    /* \"contracts/SistemaVotacion.sol\":108:5207  contract SistemaVotacion {... */\n  mstore(0x40, 0x80)\n  callvalue\n  dup1\n  iszero\n  tag_1\n  jumpi\n  revert(0x00, 0x00)\ntag_1:\n  pop\n  dataSize(sub_0)\n  dup1\n  dataOffset(sub_0)\n  0x00\n  codecopy\n  0x00\n  return\nstop\n\nsub_0: assembly {\n        /* \"contracts/SistemaVotacion.sol\":108:5207  contract SistemaVotacion {... */\n      mstore(0x40, 0x80)\n      callvalue\n      dup1\n      iszero\n      tag_1\n      jumpi\n      revert(0x00, 0x00)\n    tag_1:\n      pop\n      jumpi(tag_2, lt(calldatasize, 0x04))\n      shr(0xe0, calldataload(0x00))\n      dup1\n      0xac7bad22\n      gt\n      tag_10\n      jumpi\n      dup1\n      0xac7bad22\n      eq\n      tag_6\n      jumpi\n      dup1\n      0xc26cf569\n      eq\n      tag_7\n      jumpi\n      dup1\n      0xd7e6a9e9\n      eq\n      tag_8\n      jumpi\n      dup1\n      0xec6f7e48\n      eq\n      tag_9\n      jumpi\n      revert(0x00, 0x00)\n    tag_10:\n      dup1\n      0x08d6030d\n      eq\n      tag_3\n      jumpi\n      dup1\n      0x31fb2051\n      eq\n      tag_4\n      jumpi\n      dup1\n      0x5fcf849e\n      eq\n      tag_5\n      jumpi\n    tag_2:\n      revert(0x00, 0x00)\n        /* \"contracts/SistemaVotacion.sol\":569:604  PlanillaVotacion[] public planillas */\n    tag_3:\n      tag_11\n      tag_12\n      calldatasize\n      0x04\n      tag_13\n      jump\t// in\n    tag_12:\n      tag_14\n      jump\t// in\n    tag_11:\n      mload(0x40)\n      tag_15\n      swap12\n      swap11\n      swap10\n      swap9\n      swap8\n      swap7\n      swap6\n      swap5\n      swap4\n      swap3\n      swap2\n      swap1\n      tag_16\n      jump\t// in\n    tag_15:\n      mload(0x40)\n      dup1\n      swap2\n      sub\n      swap1\n      return\n        /* \"contracts/SistemaVotacion.sol\":4468:5205  function generarHashPlanilla(... */\n    tag_4:\n      tag_17\n      tag_18\n      calldatasize\n      0x04\n      tag_19\n      jump\t// in\n    tag_18:\n      tag_20\n      jump\t// in\n    tag_17:\n      mload(0x40)\n        /* \"#utility.yul\":4106:4131   */\n      swap1\n      dup2\n      mstore\n        /* \"#utility.yul\":4094:4096   */\n      0x20\n        /* \"#utility.yul\":4079:4097   */\n      add\n        /* \"contracts/SistemaVotacion.sol\":4468:5205  function generarHashPlanilla(... */\n      tag_15\n        /* \"#utility.yul\":3960:4137   */\n      jump\n        /* \"contracts/SistemaVotacion.sol\":962:2385  function registrarPlanilla(... */\n    tag_5:\n      tag_23\n      tag_24\n      calldatasize\n      0x04\n      tag_25\n      jump\t// in\n    tag_24:\n      tag_26\n      jump\t// in\n    tag_23:\n      stop\n        /* \"contracts/SistemaVotacion.sol\":645:690  mapping(bytes32 => uint) public indicePorHash */\n    tag_6:\n      tag_17\n      tag_28\n      calldatasize\n      0x04\n      tag_13\n      jump\t// in\n    tag_28:\n      mstore(0x20, 0x01)\n      0x00\n      swap1\n      dup2\n      mstore\n      0x40\n      swap1\n      keccak256\n      sload\n      dup2\n      jump\n        /* \"contracts/SistemaVotacion.sol\":2608:3490  function obtenerPlanillaPorIndice(uint indice) external view returns (... */\n    tag_7:\n      tag_11\n      tag_34\n      calldatasize\n      0x04\n      tag_13\n      jump\t// in\n    tag_34:\n      tag_35\n      jump\t// in\n        /* \"contracts/SistemaVotacion.sol\":3540:4407  function buscarPlanillaPorHash(bytes32 _hash) external view returns (... */\n    tag_8:\n      tag_37\n      tag_38\n      calldatasize\n      0x04\n      tag_13\n      jump\t// in\n    tag_38:\n      tag_39\n      jump\t// in\n    tag_37:\n      mload(0x40)\n      tag_15\n      swap11\n      swap10\n      swap9\n      swap8\n      swap7\n      swap6\n      swap5\n      swap4\n      swap3\n      swap2\n      swap1\n      tag_41\n      jump\t// in\n        /* \"contracts/SistemaVotacion.sol\":2446:2551  function obtenerCantidadPlanillas() external view returns (uint) {... */\n    tag_9:\n        /* \"contracts/SistemaVotacion.sol\":2505:2509  uint */\n      0x00\n        /* \"contracts/SistemaVotacion.sol\":2528:2544  planillas.length */\n      sload\n        /* \"contracts/SistemaVotacion.sol\":2446:2551  function obtenerCantidadPlanillas() external view returns (uint) {... */\n      jump(tag_17)\n        /* \"contracts/SistemaVotacion.sol\":569:604  PlanillaVotacion[] public planillas */\n    tag_14:\n      0x00\n      dup2\n      dup2\n      sload\n      dup2\n      lt\n      tag_45\n      jumpi\n      0x00\n      dup1\n      revert\n    tag_45:\n      swap1\n      0x00\n      mstore\n      keccak256(0x00, 0x20)\n      swap1\n      0x0b\n      mul\n      add\n      0x00\n      swap2\n      pop\n      swap1\n      pop\n      dup1\n      0x00\n      add\n      dup1\n      sload\n      tag_47\n      swap1\n      tag_48\n      jump\t// in\n    tag_47:\n      dup1\n      0x1f\n      add\n      0x20\n      dup1\n      swap2\n      div\n      mul\n      0x20\n      add\n      mload(0x40)\n      swap1\n      dup2\n      add\n      0x40\n      mstore\n      dup1\n      swap3\n      swap2\n      swap1\n      dup2\n      dup2\n      mstore\n      0x20\n      add\n      dup3\n      dup1\n      sload\n      tag_49\n      swap1\n      tag_48\n      jump\t// in\n    tag_49:\n      dup1\n      iszero\n      tag_50\n      jumpi\n      dup1\n      0x1f\n      lt\n      tag_51\n      jumpi\n      0x0100\n      dup1\n      dup4\n      sload\n      div\n      mul\n      dup4\n      mstore\n      swap2\n      0x20\n      add\n      swap2\n      jump(tag_50)\n    tag_51:\n      dup3\n      add\n      swap2\n      swap1\n      0x00\n      mstore\n      keccak256(0x00, 0x20)\n      swap1\n    tag_52:\n      dup2\n      sload\n      dup2\n      mstore\n      swap1\n      0x01\n      add\n      swap1\n      0x20\n      add\n      dup1\n      dup4\n      gt\n      tag_52\n      jumpi\n      dup3\n      swap1\n      sub\n      0x1f\n      and\n      dup3\n      add\n      swap2\n    tag_50:\n      pop\n      pop\n      pop\n      pop\n      pop\n      swap1\n      dup1\n      0x01\n      add\n      sload\n      swap1\n      dup1\n      0x02\n      add\n      dup1\n      sload\n      tag_53\n      swap1\n      tag_48\n      jump\t// in\n    tag_53:\n      dup1\n      0x1f\n      add\n      0x20\n      dup1\n      swap2\n      div\n      mul\n      0x20\n      add\n      mload(0x40)\n      swap1\n      dup2\n      add\n      0x40\n      mstore\n      dup1\n      swap3\n      swap2\n      swap1\n      dup2\n      dup2\n      mstore\n      0x20\n      add\n      dup3\n      dup1\n      sload\n      tag_54\n      swap1\n      tag_48\n      jump\t// in\n    tag_54:\n      dup1\n      iszero\n      tag_55\n      jumpi\n      dup1\n      0x1f\n      lt\n      tag_56\n      jumpi\n      0x0100\n      dup1\n      dup4\n      sload\n      div\n      mul\n      dup4\n      mstore\n      swap2\n      0x20\n      add\n      swap2\n      jump(tag_55)\n    tag_56:\n      dup3\n      add\n      swap2\n      swap1\n      0x00\n      mstore\n      keccak256(0x00, 0x20)\n      swap1\n    tag_57:\n      dup2\n      sload\n      dup2\n      mstore\n      swap1\n      0x01\n      add\n      swap1\n      0x20\n      add\n      dup1\n      dup4\n      gt\n      tag_57\n      jumpi\n      dup3\n      swap1\n      sub\n      0x1f\n      and\n      dup3\n      add\n      swap2\n    tag_55:\n      pop\n      pop\n      pop\n      pop\n      pop\n      swap1\n      dup1\n      0x03\n      add\n      sload\n      swap1\n      dup1\n      0x04\n      add\n      dup1\n      sload\n      tag_58\n      swap1\n      tag_48\n      jump\t// in\n    tag_58:\n      dup1\n      0x1f\n      add\n      0x20\n      dup1\n      swap2\n      div\n      mul\n      0x20\n      add\n      mload(0x40)\n      swap1\n      dup2\n      add\n      0x40\n      mstore\n      dup1\n      swap3\n      swap2\n      swap1\n      dup2\n      dup2\n      mstore\n      0x20\n      add\n      dup3\n      dup1\n      sload\n      tag_59\n      swap1\n      tag_48\n      jump\t// in\n    tag_59:\n      dup1\n      iszero\n      tag_60\n      jumpi\n      dup1\n      0x1f\n      lt\n      tag_61\n      jumpi\n      0x0100\n      dup1\n      dup4\n      sload\n      div\n      mul\n      dup4\n      mstore\n      swap2\n      0x20\n      add\n      swap2\n      jump(tag_60)\n    tag_61:\n      dup3\n      add\n      swap2\n      swap1\n      0x00\n      mstore\n      keccak256(0x00, 0x20)\n      swap1\n    tag_62:\n      dup2\n      sload\n      dup2\n      mstore\n      swap1\n      0x01\n      add\n      swap1\n      0x20\n      add\n      dup1\n      dup4\n      gt\n      tag_62\n      jumpi\n      dup3\n      swap1\n      sub\n      0x1f\n      and\n      dup3\n      add\n      swap2\n    tag_60:\n      pop\n      pop\n      pop\n      0x05\n      dup5\n      add\n      sload\n      0x06\n      dup6\n      add\n      sload\n      0x07\n      dup7\n      add\n      sload\n      0x08\n      dup8\n      add\n      sload\n      0x09\n      dup9\n      add\n      sload\n      0x0a\n      swap1\n      swap9\n      add\n      sload\n      swap7\n      swap8\n      swap4\n      swap7\n      swap3\n      swap6\n      pop\n      swap1\n      swap4\n      pop\n      swap2\n      swap1\n      sub(shl(0xa0, 0x01), 0x01)\n      and\n      dup12\n      jump\t// out\n        /* \"contracts/SistemaVotacion.sol\":4468:5205  function generarHashPlanilla(... */\n    tag_20:\n        /* \"contracts/SistemaVotacion.sol\":4765:4772  bytes32 */\n      0x00\n      dup1\n        /* \"contracts/SistemaVotacion.sol\":4834:4847  _votos_blanco */\n      dup4\n        /* \"contracts/SistemaVotacion.sol\":4806:4831  _cantidad_1 + _cantidad_2 */\n      tag_64\n        /* \"contracts/SistemaVotacion.sol\":4820:4831  _cantidad_2 */\n      dup7\n        /* \"contracts/SistemaVotacion.sol\":4806:4817  _cantidad_1 */\n      dup10\n        /* \"contracts/SistemaVotacion.sol\":4806:4831  _cantidad_1 + _cantidad_2 */\n      tag_65\n      jump\t// in\n    tag_64:\n        /* \"contracts/SistemaVotacion.sol\":4806:4847  _cantidad_1 + _cantidad_2 + _votos_blanco */\n      tag_66\n      swap2\n      swap1\n      tag_65\n      jump\t// in\n    tag_66:\n        /* \"contracts/SistemaVotacion.sol\":4784:4847  uint _votos_totales = _cantidad_1 + _cantidad_2 + _votos_blanco */\n      swap1\n      pop\n        /* \"contracts/SistemaVotacion.sol\":4922:4929  _ciudad */\n      dup10\n        /* \"contracts/SistemaVotacion.sol\":4947:4959  _numero_mesa */\n      dup10\n        /* \"contracts/SistemaVotacion.sol\":4977:4994  _nombre_votante_1 */\n      dup10\n        /* \"contracts/SistemaVotacion.sol\":5012:5023  _cantidad_1 */\n      dup10\n        /* \"contracts/SistemaVotacion.sol\":5041:5058  _nombre_votante_2 */\n      dup10\n        /* \"contracts/SistemaVotacion.sol\":5076:5087  _cantidad_2 */\n      dup10\n        /* \"contracts/SistemaVotacion.sol\":5105:5118  _votos_blanco */\n      dup10\n        /* \"contracts/SistemaVotacion.sol\":5136:5150  _votos_totales */\n      dup8\n        /* \"contracts/SistemaVotacion.sol\":5168:5174  _fecha */\n      dup11\n        /* \"contracts/SistemaVotacion.sol\":4888:5188  abi.encodePacked(... */\n      add(0x20, mload(0x40))\n      tag_67\n      swap10\n      swap9\n      swap8\n      swap7\n      swap6\n      swap5\n      swap4\n      swap3\n      swap2\n      swap1\n      tag_68\n      jump\t// in\n    tag_67:\n      mload(0x40)\n      0x20\n      dup2\n      dup4\n      sub\n      sub\n      dup2\n      mstore\n      swap1\n      0x40\n      mstore\n        /* \"contracts/SistemaVotacion.sol\":4865:5198  keccak256(... */\n      dup1\n      mload\n      swap1\n      0x20\n      add\n      keccak256\n        /* \"contracts/SistemaVotacion.sol\":4858:5198  return keccak256(... */\n      swap2\n      pop\n      pop\n        /* \"contracts/SistemaVotacion.sol\":4468:5205  function generarHashPlanilla(... */\n      swap9\n      swap8\n      pop\n      pop\n      pop\n      pop\n      pop\n      pop\n      pop\n      pop\n      jump\t// out\n        /* \"contracts/SistemaVotacion.sol\":962:2385  function registrarPlanilla(... */\n    tag_26:\n        /* \"contracts/SistemaVotacion.sol\":1254:1269  block.timestamp */\n      timestamp\n        /* \"contracts/SistemaVotacion.sol\":1240:1251  uint _fecha */\n      0x00\n        /* \"contracts/SistemaVotacion.sol\":1329:1342  _votos_blanco */\n      dup3\n        /* \"contracts/SistemaVotacion.sol\":1301:1326  _cantidad_1 + _cantidad_2 */\n      tag_70\n        /* \"contracts/SistemaVotacion.sol\":1315:1326  _cantidad_2 */\n      dup6\n        /* \"contracts/SistemaVotacion.sol\":1301:1312  _cantidad_1 */\n      dup10\n        /* \"contracts/SistemaVotacion.sol\":1301:1326  _cantidad_1 + _cantidad_2 */\n      tag_65\n      jump\t// in\n    tag_70:\n        /* \"contracts/SistemaVotacion.sol\":1301:1342  _cantidad_1 + _cantidad_2 + _votos_blanco */\n      tag_71\n      swap2\n      swap1\n      tag_65\n      jump\t// in\n    tag_71:\n        /* \"contracts/SistemaVotacion.sol\":1279:1342  uint _votos_totales = _cantidad_1 + _cantidad_2 + _votos_blanco */\n      swap1\n      pop\n        /* \"contracts/SistemaVotacion.sol\":1353:1366  bytes32 _hash */\n      0x00\n        /* \"contracts/SistemaVotacion.sol\":1426:1433  _ciudad */\n      dup13\n      dup13\n        /* \"contracts/SistemaVotacion.sol\":1451:1463  _numero_mesa */\n      dup13\n        /* \"contracts/SistemaVotacion.sol\":1481:1498  _nombre_votante_1 */\n      dup13\n      dup13\n        /* \"contracts/SistemaVotacion.sol\":1516:1527  _cantidad_1 */\n      dup13\n        /* \"contracts/SistemaVotacion.sol\":1545:1562  _nombre_votante_2 */\n      dup13\n      dup13\n        /* \"contracts/SistemaVotacion.sol\":1580:1591  _cantidad_2 */\n      dup13\n        /* \"contracts/SistemaVotacion.sol\":1609:1622  _votos_blanco */\n      dup13\n        /* \"contracts/SistemaVotacion.sol\":1640:1654  _votos_totales */\n      dup12\n        /* \"contracts/SistemaVotacion.sol\":1672:1678  _fecha */\n      dup14\n        /* \"contracts/SistemaVotacion.sol\":1392:1692  abi.encodePacked(... */\n      add(0x20, mload(0x40))\n      tag_72\n      swap13\n      swap12\n      swap11\n      swap10\n      swap9\n      swap8\n      swap7\n      swap6\n      swap5\n      swap4\n      swap3\n      swap2\n      swap1\n      tag_73\n      jump\t// in\n    tag_72:\n      mload(0x40)\n      0x20\n      dup2\n      dup4\n      sub\n      sub\n      dup2\n      mstore\n      swap1\n      0x40\n      mstore\n        /* \"contracts/SistemaVotacion.sol\":1369:1702  keccak256(... */\n      dup1\n      mload\n      swap1\n      0x20\n      add\n      keccak256\n        /* \"contracts/SistemaVotacion.sol\":1353:1702  bytes32 _hash = keccak256(... */\n      swap1\n      pop\n        /* \"contracts/SistemaVotacion.sol\":1713:1742  PlanillaVotacion memory nueva */\n      0x00\n        /* \"contracts/SistemaVotacion.sol\":1745:2209  PlanillaVotacion({... */\n      mload(0x40)\n      dup1\n      0x0160\n      add\n      0x40\n      mstore\n      dup1\n        /* \"contracts/SistemaVotacion.sol\":1784:1791  _ciudad */\n      dup16\n      dup16\n        /* \"contracts/SistemaVotacion.sol\":1745:2209  PlanillaVotacion({... */\n      dup1\n      dup1\n      0x1f\n      add\n      0x20\n      dup1\n      swap2\n      div\n      mul\n      0x20\n      add\n      mload(0x40)\n      swap1\n      dup2\n      add\n      0x40\n      mstore\n      dup1\n      swap4\n      swap3\n      swap2\n      swap1\n      dup2\n      dup2\n      mstore\n      0x20\n      add\n      dup4\n      dup4\n      dup1\n      dup3\n      dup5\n      calldatacopy\n      0x00\n      swap3\n      add\n      swap2\n      swap1\n      swap2\n      mstore\n      pop\n      pop\n      pop\n      swap1\n      dup3\n      mstore\n      pop\n      0x20\n      dup1\n      dup3\n      add\n      dup16\n      swap1\n      mstore\n      0x40\n      dup1\n      mload\n      0x1f\n      dup16\n      add\n      dup4\n      swap1\n      div\n      dup4\n      mul\n      dup2\n      add\n      dup4\n      add\n      dup3\n      mstore\n      dup15\n      dup2\n      mstore\n      swap3\n      add\n      swap2\n      swap1\n        /* \"contracts/SistemaVotacion.sol\":1862:1879  _nombre_votante_1 */\n      dup15\n      swap1\n      dup15\n      swap1\n      dup2\n      swap1\n        /* \"contracts/SistemaVotacion.sol\":1745:2209  PlanillaVotacion({... */\n      dup5\n      add\n        /* \"contracts/SistemaVotacion.sol\":1862:1879  _nombre_votante_1 */\n      dup4\n      dup3\n      dup1\n      dup3\n        /* \"contracts/SistemaVotacion.sol\":1745:2209  PlanillaVotacion({... */\n      dup5\n      calldatacopy\n      0x00\n      swap3\n      add\n      swap2\n      swap1\n      swap2\n      mstore\n      pop\n      pop\n      pop\n      swap1\n      dup3\n      mstore\n      pop\n      0x20\n      dup1\n      dup3\n      add\n      dup13\n      swap1\n      mstore\n      0x40\n      dup1\n      mload\n      0x1f\n      dup13\n      add\n      dup4\n      swap1\n      div\n      dup4\n      mul\n      dup2\n      add\n      dup4\n      add\n      dup3\n      mstore\n      dup12\n      dup2\n      mstore\n      swap3\n      add\n      swap2\n      swap1\n        /* \"contracts/SistemaVotacion.sol\":1948:1965  _nombre_votante_2 */\n      dup12\n      swap1\n      dup12\n      swap1\n      dup2\n      swap1\n        /* \"contracts/SistemaVotacion.sol\":1745:2209  PlanillaVotacion({... */\n      dup5\n      add\n        /* \"contracts/SistemaVotacion.sol\":1948:1965  _nombre_votante_2 */\n      dup4\n      dup3\n      dup1\n      dup3\n        /* \"contracts/SistemaVotacion.sol\":1745:2209  PlanillaVotacion({... */\n      dup5\n      calldatacopy\n      0x00\n      swap3\n      add\n      dup3\n      swap1\n      mstore\n      pop\n      swap4\n      dup6\n      mstore\n      pop\n      pop\n      pop\n      0x20\n      dup3\n      add\n      dup10\n      swap1\n      mstore\n      0x40\n      dup3\n      add\n      dup9\n      swap1\n      mstore\n      0x60\n      dup3\n      add\n      dup7\n      swap1\n      mstore\n      0x80\n      dup3\n      add\n      dup8\n      swap1\n      mstore\n      0xa0\n      dup3\n      add\n      dup6\n      swap1\n      mstore\n        /* \"contracts/SistemaVotacion.sol\":2188:2198  msg.sender */\n      caller\n        /* \"contracts/SistemaVotacion.sol\":1745:2209  PlanillaVotacion({... */\n      0xc0\n      swap1\n      swap3\n      add\n      swap2\n      swap1\n      swap2\n      mstore\n        /* \"contracts/SistemaVotacion.sol\":2220:2241  planillas.push(nueva) */\n      dup1\n      sload\n      0x01\n      dup2\n      add\n      dup3\n      sstore\n      swap1\n      dup1\n      mstore\n      dup2\n      mload\n        /* \"contracts/SistemaVotacion.sol\":1713:2209  PlanillaVotacion memory nueva = PlanillaVotacion({... */\n      swap2\n      swap3\n      pop\n      dup3\n      swap2\n        /* \"contracts/SistemaVotacion.sol\":2220:2241  planillas.push(nueva) */\n      0x0b\n      swap1\n      swap2\n      mul\n      0x290decd9548b62a8d60345a988386fc84ba6bc95484008f6362f93160ef3e563\n      add\n      swap1\n      dup2\n      swap1\n      tag_75\n      swap1\n      dup3\n      tag_76\n      jump\t// in\n    tag_75:\n      pop\n      0x20\n      dup3\n      add\n      mload\n      0x01\n      dup3\n      add\n      sstore\n      0x40\n      dup3\n      add\n      mload\n      0x02\n      dup3\n      add\n      swap1\n      tag_77\n      swap1\n      dup3\n      tag_76\n      jump\t// in\n    tag_77:\n      pop\n      0x60\n      dup3\n      add\n      mload\n      0x03\n      dup3\n      add\n      sstore\n      0x80\n      dup3\n      add\n      mload\n      0x04\n      dup3\n      add\n      swap1\n      tag_78\n      swap1\n      dup3\n      tag_76\n      jump\t// in\n    tag_78:\n      pop\n      0xa0\n      dup3\n      add\n      mload\n      0x05\n      dup3\n      add\n      sstore\n      0xc0\n      dup3\n      add\n      mload\n      0x06\n      dup3\n      add\n      sstore\n      0xe0\n      dup3\n      add\n      mload\n      0x07\n      dup3\n      add\n      sstore\n      0x0100\n      dup3\n      add\n      mload\n      0x08\n      dup3\n      add\n      sstore\n      0x0120\n      dup3\n      add\n      mload\n      0x09\n      dup3\n      add\n      sstore\n      0x0140\n      swap1\n      swap2\n      add\n      mload\n      0x0a\n      swap1\n      swap2\n      add\n      dup1\n      sload\n      not(sub(shl(0xa0, 0x01), 0x01))\n      and\n      sub(shl(0xa0, 0x01), 0x01)\n      swap1\n      swap3\n      and\n      swap2\n      swap1\n      swap2\n      or\n      swap1\n      sstore\n      0x00\n        /* \"contracts/SistemaVotacion.sol\":2274:2290  planillas.length */\n      sload\n        /* \"contracts/SistemaVotacion.sol\":2274:2294  planillas.length - 1 */\n      tag_79\n      swap1\n      0x01\n      swap1\n      tag_80\n      jump\t// in\n    tag_79:\n        /* \"contracts/SistemaVotacion.sol\":2251:2264  indicePorHash */\n      0x01\n        /* \"contracts/SistemaVotacion.sol\":2251:2271  indicePorHash[_hash] */\n      0x00\n        /* \"contracts/SistemaVotacion.sol\":2265:2270  _hash */\n      dup5\n        /* \"contracts/SistemaVotacion.sol\":2251:2271  indicePorHash[_hash] */\n      dup2\n      mstore\n      0x20\n      add\n      swap1\n      dup2\n      mstore\n      0x20\n      add\n      0x00\n      keccak256\n        /* \"contracts/SistemaVotacion.sol\":2251:2294  indicePorHash[_hash] = planillas.length - 1 */\n      dup2\n      swap1\n      sstore\n      pop\n        /* \"contracts/SistemaVotacion.sol\":2310:2378  PlanillaRegistrada(_hash, _ciudad, _numero_mesa, _fecha, msg.sender) */\n      0x11eea6945719d8c4f321e340cf6872743baf02e188d211cfd348d36233fb36ab\n        /* \"contracts/SistemaVotacion.sol\":2329:2334  _hash */\n      dup3\n        /* \"contracts/SistemaVotacion.sol\":2336:2343  _ciudad */\n      dup16\n      dup16\n        /* \"contracts/SistemaVotacion.sol\":2345:2357  _numero_mesa */\n      dup16\n        /* \"contracts/SistemaVotacion.sol\":2359:2365  _fecha */\n      dup9\n        /* \"contracts/SistemaVotacion.sol\":2367:2377  msg.sender */\n      caller\n        /* \"contracts/SistemaVotacion.sol\":2310:2378  PlanillaRegistrada(_hash, _ciudad, _numero_mesa, _fecha, msg.sender) */\n      mload(0x40)\n      tag_81\n      swap7\n      swap6\n      swap5\n      swap4\n      swap3\n      swap2\n      swap1\n      tag_82\n      jump\t// in\n    tag_81:\n      mload(0x40)\n      dup1\n      swap2\n      sub\n      swap1\n      log1\n        /* \"contracts/SistemaVotacion.sol\":1230:2385  {... */\n      pop\n      pop\n      pop\n      pop\n        /* \"contracts/SistemaVotacion.sol\":962:2385  function registrarPlanilla(... */\n      pop\n      pop\n      pop\n      pop\n      pop\n      pop\n      pop\n      pop\n      pop\n      pop\n      jump\t// out\n        /* \"contracts/SistemaVotacion.sol\":2608:3490  function obtenerPlanillaPorIndice(uint indice) external view returns (... */\n    tag_35:\n        /* \"contracts/SistemaVotacion.sol\":2687:2707  string memory ciudad */\n      0x60\n        /* \"contracts/SistemaVotacion.sol\":2717:2733  uint numero_mesa */\n      0x00\n        /* \"contracts/SistemaVotacion.sol\":2743:2773  string memory nombre_votante_1 */\n      0x60\n        /* \"contracts/SistemaVotacion.sol\":2783:2798  uint cantidad_1 */\n      0x00\n        /* \"contracts/SistemaVotacion.sol\":2808:2838  string memory nombre_votante_2 */\n      0x60\n        /* \"contracts/SistemaVotacion.sol\":2848:2863  uint cantidad_2 */\n      0x00\n        /* \"contracts/SistemaVotacion.sol\":2873:2890  uint votos_blanco */\n      0x00\n        /* \"contracts/SistemaVotacion.sol\":2900:2918  uint votos_totales */\n      0x00\n        /* \"contracts/SistemaVotacion.sol\":2928:2956  uint fecha_creacion_planilla */\n      0x00\n        /* \"contracts/SistemaVotacion.sol\":2966:2987  bytes32 hash_planilla */\n      0x00\n        /* \"contracts/SistemaVotacion.sol\":2997:3012  address creador */\n      0x00\n        /* \"contracts/SistemaVotacion.sol\":3046:3055  planillas */\n      0x00\n        /* \"contracts/SistemaVotacion.sol\":3046:3062  planillas.length */\n      dup1\n      sload\n      swap1\n      pop\n        /* \"contracts/SistemaVotacion.sol\":3037:3043  indice */\n      dup13\n        /* \"contracts/SistemaVotacion.sol\":3037:3062  indice < planillas.length */\n      lt\n        /* \"contracts/SistemaVotacion.sol\":3029:3088  require(indice < planillas.length, \"Indice fuera de rango\") */\n      tag_84\n      jumpi\n      mload(0x40)\n      shl(0xe5, 0x461bcd)\n      dup2\n      mstore\n        /* \"#utility.yul\":13285:13287   */\n      0x20\n        /* \"contracts/SistemaVotacion.sol\":3029:3088  require(indice < planillas.length, \"Indice fuera de rango\") */\n      0x04\n      dup3\n      add\n        /* \"#utility.yul\":13267:13288   */\n      mstore\n        /* \"#utility.yul\":13324:13326   */\n      0x15\n        /* \"#utility.yul\":13304:13322   */\n      0x24\n      dup3\n      add\n        /* \"#utility.yul\":13297:13327   */\n      mstore\n      shl(0x58, 0x496e646963652066756572612064652072616e676f)\n        /* \"#utility.yul\":13343:13361   */\n      0x44\n      dup3\n      add\n        /* \"#utility.yul\":13336:13387   */\n      mstore\n        /* \"#utility.yul\":13404:13422   */\n      0x64\n      add\n        /* \"contracts/SistemaVotacion.sol\":3029:3088  require(indice < planillas.length, \"Indice fuera de rango\") */\n    tag_85:\n      mload(0x40)\n      dup1\n      swap2\n      sub\n      swap1\n      revert\n    tag_84:\n        /* \"contracts/SistemaVotacion.sol\":3098:3123  PlanillaVotacion memory p */\n      0x00\n        /* \"contracts/SistemaVotacion.sol\":3126:3135  planillas */\n      0x00\n        /* \"contracts/SistemaVotacion.sol\":3136:3142  indice */\n      dup14\n        /* \"contracts/SistemaVotacion.sol\":3126:3143  planillas[indice] */\n      dup2\n      sload\n      dup2\n      lt\n      tag_88\n      jumpi\n      tag_88\n      tag_89\n      jump\t// in\n    tag_88:\n      swap1\n      0x00\n      mstore\n      keccak256(0x00, 0x20)\n      swap1\n      0x0b\n      mul\n      add\n        /* \"contracts/SistemaVotacion.sol\":3098:3143  PlanillaVotacion memory p = planillas[indice] */\n      mload(0x40)\n      dup1\n      0x0160\n      add\n      0x40\n      mstore\n      swap1\n      dup2\n      0x00\n      dup3\n      add\n      dup1\n      sload\n      tag_91\n      swap1\n      tag_48\n      jump\t// in\n    tag_91:\n      dup1\n      0x1f\n      add\n      0x20\n      dup1\n      swap2\n      div\n      mul\n      0x20\n      add\n      mload(0x40)\n      swap1\n      dup2\n      add\n      0x40\n      mstore\n      dup1\n      swap3\n      swap2\n      swap1\n      dup2\n      dup2\n      mstore\n      0x20\n      add\n      dup3\n      dup1\n      sload\n      tag_92\n      swap1\n      tag_48\n      jump\t// in\n    tag_92:\n      dup1\n      iszero\n      tag_93\n      jumpi\n      dup1\n      0x1f\n      lt\n      tag_94\n      jumpi\n      0x0100\n      dup1\n      dup4\n      sload\n      div\n      mul\n      dup4\n      mstore\n      swap2\n      0x20\n      add\n      swap2\n      jump(tag_93)\n    tag_94:\n      dup3\n      add\n      swap2\n      swap1\n      0x00\n      mstore\n      keccak256(0x00, 0x20)\n      swap1\n    tag_95:\n      dup2\n      sload\n      dup2\n      mstore\n      swap1\n      0x01\n      add\n      swap1\n      0x20\n      add\n      dup1\n      dup4\n      gt\n      tag_95\n      jumpi\n      dup3\n      swap1\n      sub\n      0x1f\n      and\n      dup3\n      add\n      swap2\n    tag_93:\n      pop\n      pop\n      pop\n      pop\n      pop\n      dup2\n      mstore\n      0x20\n      add\n      0x01\n      dup3\n      add\n      sload\n      dup2\n      mstore\n      0x20\n      add\n      0x02\n      dup3\n      add\n      dup1\n      sload\n      tag_96\n      swap1\n      tag_48\n      jump\t// in\n    tag_96:\n      dup1\n      0x1f\n      add\n      0x20\n      dup1\n      swap2\n      div\n      mul\n      0x20\n      add\n      mload(0x40)\n      swap1\n      dup2\n      add\n      0x40\n      mstore\n      dup1\n      swap3\n      swap2\n      swap1\n      dup2\n      dup2\n      mstore\n      0x20\n      add\n      dup3\n      dup1\n      sload\n      tag_97\n      swap1\n      tag_48\n      jump\t// in\n    tag_97:\n      dup1\n      iszero\n      tag_98\n      jumpi\n      dup1\n      0x1f\n      lt\n      tag_99\n      jumpi\n      0x0100\n      dup1\n      dup4\n      sload\n      div\n      mul\n      dup4\n      mstore\n      swap2\n      0x20\n      add\n      swap2\n      jump(tag_98)\n    tag_99:\n      dup3\n      add\n      swap2\n      swap1\n      0x00\n      mstore\n      keccak256(0x00, 0x20)\n      swap1\n    tag_100:\n      dup2\n      sload\n      dup2\n      mstore\n      swap1\n      0x01\n      add\n      swap1\n      0x20\n      add\n      dup1\n      dup4\n      gt\n      tag_100\n      jumpi\n      dup3\n      swap1\n      sub\n      0x1f\n      and\n      dup3\n      add\n      swap2\n    tag_98:\n      pop\n      pop\n      pop\n      pop\n      pop\n      dup2\n      mstore\n      0x20\n      add\n      0x03\n      dup3\n      add\n      sload\n      dup2\n      mstore\n      0x20\n      add\n      0x04\n      dup3\n      add\n      dup1\n      sload\n      tag_101\n      swap1\n      tag_48\n      jump\t// in\n    tag_101:\n      dup1\n      0x1f\n      add\n      0x20\n      dup1\n      swap2\n      div\n      mul\n      0x20\n      add\n      mload(0x40)\n      swap1\n      dup2\n      add\n      0x40\n      mstore\n      dup1\n      swap3\n      swap2\n      swap1\n      dup2\n      dup2\n      mstore\n      0x20\n      add\n      dup3\n      dup1\n      sload\n      tag_102\n      swap1\n      tag_48\n      jump\t// in\n    tag_102:\n      dup1\n      iszero\n      tag_103\n      jumpi\n      dup1\n      0x1f\n      lt\n      tag_104\n      jumpi\n      0x0100\n      dup1\n      dup4\n      sload\n      div\n      mul\n      dup4\n      mstore\n      swap2\n      0x20\n      add\n      swap2\n      jump(tag_103)\n    tag_104:\n      dup3\n      add\n      swap2\n      swap1\n      0x00\n      mstore\n      keccak256(0x00, 0x20)\n      swap1\n    tag_105:\n      dup2\n      sload\n      dup2\n      mstore\n      swap1\n      0x01\n      add\n      swap1\n      0x20\n      add\n      dup1\n      dup4\n      gt\n      tag_105\n      jumpi\n      dup3\n      swap1\n      sub\n      0x1f\n      and\n      dup3\n      add\n      swap2\n    tag_103:\n      pop\n      pop\n      pop\n      pop\n      pop\n      dup2\n      mstore\n      0x20\n      add\n      0x05\n      dup3\n      add\n      sload\n      dup2\n      mstore\n      0x20\n      add\n      0x06\n      dup3\n      add\n      sload\n      dup2\n      mstore\n      0x20\n      add\n      0x07\n      dup3\n      add\n      sload\n      dup2\n      mstore\n      0x20\n      add\n      0x08\n      dup3\n      add\n      sload\n      dup2\n      mstore\n      0x20\n      add\n      0x09\n      dup3\n      add\n      sload\n      dup2\n      mstore\n      0x20\n      add\n      0x0a\n      dup3\n      add\n      0x00\n      swap1\n      sload\n      swap1\n      0x0100\n      exp\n      swap1\n      div\n      sub(shl(0xa0, 0x01), 0x01)\n      and\n      sub(shl(0xa0, 0x01), 0x01)\n      and\n      sub(shl(0xa0, 0x01), 0x01)\n      and\n      dup2\n      mstore\n      pop\n      pop\n      swap1\n      pop\n        /* \"contracts/SistemaVotacion.sol\":3174:3175  p */\n      dup1\n        /* \"contracts/SistemaVotacion.sol\":3174:3182  p.ciudad */\n      0x00\n      add\n      mload\n        /* \"contracts/SistemaVotacion.sol\":3196:3197  p */\n      dup2\n        /* \"contracts/SistemaVotacion.sol\":3196:3209  p.numero_mesa */\n      0x20\n      add\n      mload\n        /* \"contracts/SistemaVotacion.sol\":3223:3224  p */\n      dup3\n        /* \"contracts/SistemaVotacion.sol\":3223:3241  p.nombre_votante_1 */\n      0x40\n      add\n      mload\n        /* \"contracts/SistemaVotacion.sol\":3255:3256  p */\n      dup4\n        /* \"contracts/SistemaVotacion.sol\":3255:3267  p.cantidad_1 */\n      0x60\n      add\n      mload\n        /* \"contracts/SistemaVotacion.sol\":3281:3282  p */\n      dup5\n        /* \"contracts/SistemaVotacion.sol\":3281:3299  p.nombre_votante_2 */\n      0x80\n      add\n      mload\n        /* \"contracts/SistemaVotacion.sol\":3313:3314  p */\n      dup6\n        /* \"contracts/SistemaVotacion.sol\":3313:3325  p.cantidad_2 */\n      0xa0\n      add\n      mload\n        /* \"contracts/SistemaVotacion.sol\":3339:3340  p */\n      dup7\n        /* \"contracts/SistemaVotacion.sol\":3339:3353  p.votos_blanco */\n      0xc0\n      add\n      mload\n        /* \"contracts/SistemaVotacion.sol\":3367:3368  p */\n      dup8\n        /* \"contracts/SistemaVotacion.sol\":3367:3382  p.votos_totales */\n      0xe0\n      add\n      mload\n        /* \"contracts/SistemaVotacion.sol\":3396:3397  p */\n      dup9\n        /* \"contracts/SistemaVotacion.sol\":3396:3421  p.fecha_creacion_planilla */\n      0x0100\n      add\n      mload\n        /* \"contracts/SistemaVotacion.sol\":3435:3436  p */\n      dup10\n        /* \"contracts/SistemaVotacion.sol\":3435:3450  p.hash_planilla */\n      0x0120\n      add\n      mload\n        /* \"contracts/SistemaVotacion.sol\":3464:3465  p */\n      dup11\n        /* \"contracts/SistemaVotacion.sol\":3464:3473  p.creador */\n      0x0140\n      add\n      mload\n        /* \"contracts/SistemaVotacion.sol\":3153:3483  return (... */\n      swap12\n      pop\n      swap12\n      pop\n      swap12\n      pop\n      swap12\n      pop\n      swap12\n      pop\n      swap12\n      pop\n      swap12\n      pop\n      swap12\n      pop\n      swap12\n      pop\n      swap12\n      pop\n      swap12\n      pop\n      pop\n        /* \"contracts/SistemaVotacion.sol\":2608:3490  function obtenerPlanillaPorIndice(uint indice) external view returns (... */\n      swap2\n      swap4\n      swap6\n      swap8\n      swap10\n      swap12\n      swap1\n      swap3\n      swap5\n      swap7\n      swap9\n      swap11\n      pop\n      jump\t// out\n        /* \"contracts/SistemaVotacion.sol\":3540:4407  function buscarPlanillaPorHash(bytes32 _hash) external view returns (... */\n    tag_39:\n        /* \"contracts/SistemaVotacion.sol\":3618:3638  string memory ciudad */\n      0x60\n        /* \"contracts/SistemaVotacion.sol\":3648:3664  uint numero_mesa */\n      0x00\n        /* \"contracts/SistemaVotacion.sol\":3674:3704  string memory nombre_votante_1 */\n      0x60\n        /* \"contracts/SistemaVotacion.sol\":3714:3729  uint cantidad_1 */\n      0x00\n        /* \"contracts/SistemaVotacion.sol\":3739:3769  string memory nombre_votante_2 */\n      0x60\n        /* \"contracts/SistemaVotacion.sol\":3779:3794  uint cantidad_2 */\n      0x00\n        /* \"contracts/SistemaVotacion.sol\":3804:3821  uint votos_blanco */\n      0x00\n        /* \"contracts/SistemaVotacion.sol\":3831:3849  uint votos_totales */\n      0x00\n        /* \"contracts/SistemaVotacion.sol\":3859:3887  uint fecha_creacion_planilla */\n      0x00\n        /* \"contracts/SistemaVotacion.sol\":3897:3912  address creador */\n      0x00\n        /* \"contracts/SistemaVotacion.sol\":3929:3940  uint indice */\n      0x00\n        /* \"contracts/SistemaVotacion.sol\":3943:3956  indicePorHash */\n      0x01\n        /* \"contracts/SistemaVotacion.sol\":3943:3963  indicePorHash[_hash] */\n      0x00\n        /* \"contracts/SistemaVotacion.sol\":3957:3962  _hash */\n      dup14\n        /* \"contracts/SistemaVotacion.sol\":3943:3963  indicePorHash[_hash] */\n      dup2\n      mstore\n      0x20\n      add\n      swap1\n      dup2\n      mstore\n      0x20\n      add\n      0x00\n      keccak256\n      sload\n        /* \"contracts/SistemaVotacion.sol\":3929:3963  uint indice = indicePorHash[_hash] */\n      swap1\n      pop\n        /* \"contracts/SistemaVotacion.sol\":3990:3999  planillas */\n      0x00\n        /* \"contracts/SistemaVotacion.sol\":3990:4006  planillas.length */\n      dup1\n      sload\n      swap1\n      pop\n        /* \"contracts/SistemaVotacion.sol\":3981:3987  indice */\n      dup2\n        /* \"contracts/SistemaVotacion.sol\":3981:4006  indice < planillas.length */\n      lt\n        /* \"contracts/SistemaVotacion.sol\":3973:4033  require(indice < planillas.length, \"Planilla no encontrada\") */\n      tag_107\n      jumpi\n      mload(0x40)\n      shl(0xe5, 0x461bcd)\n      dup2\n      mstore\n        /* \"#utility.yul\":13767:13769   */\n      0x20\n        /* \"contracts/SistemaVotacion.sol\":3973:4033  require(indice < planillas.length, \"Planilla no encontrada\") */\n      0x04\n      dup3\n      add\n        /* \"#utility.yul\":13749:13770   */\n      mstore\n        /* \"#utility.yul\":13806:13808   */\n      0x16\n        /* \"#utility.yul\":13786:13804   */\n      0x24\n      dup3\n      add\n        /* \"#utility.yul\":13779:13809   */\n      mstore\n      shl(0x50, 0x506c616e696c6c61206e6f20656e636f6e7472616461)\n        /* \"#utility.yul\":13825:13843   */\n      0x44\n      dup3\n      add\n        /* \"#utility.yul\":13818:13870   */\n      mstore\n        /* \"#utility.yul\":13887:13905   */\n      0x64\n      add\n        /* \"contracts/SistemaVotacion.sol\":3973:4033  require(indice < planillas.length, \"Planilla no encontrada\") */\n      tag_85\n        /* \"#utility.yul\":13565:13911   */\n      jump\n        /* \"contracts/SistemaVotacion.sol\":3973:4033  require(indice < planillas.length, \"Planilla no encontrada\") */\n    tag_107:\n        /* \"contracts/SistemaVotacion.sol\":4044:4069  PlanillaVotacion memory p */\n      0x00\n        /* \"contracts/SistemaVotacion.sol\":4072:4081  planillas */\n      0x00\n        /* \"contracts/SistemaVotacion.sol\":4082:4088  indice */\n      dup3\n        /* \"contracts/SistemaVotacion.sol\":4072:4089  planillas[indice] */\n      dup2\n      sload\n      dup2\n      lt\n      tag_111\n      jumpi\n      tag_111\n      tag_89\n      jump\t// in\n    tag_111:\n      swap1\n      0x00\n      mstore\n      keccak256(0x00, 0x20)\n      swap1\n      0x0b\n      mul\n      add\n        /* \"contracts/SistemaVotacion.sol\":4044:4089  PlanillaVotacion memory p = planillas[indice] */\n      mload(0x40)\n      dup1\n      0x0160\n      add\n      0x40\n      mstore\n      swap1\n      dup2\n      0x00\n      dup3\n      add\n      dup1\n      sload\n      tag_113\n      swap1\n      tag_48\n      jump\t// in\n    tag_113:\n      dup1\n      0x1f\n      add\n      0x20\n      dup1\n      swap2\n      div\n      mul\n      0x20\n      add\n      mload(0x40)\n      swap1\n      dup2\n      add\n      0x40\n      mstore\n      dup1\n      swap3\n      swap2\n      swap1\n      dup2\n      dup2\n      mstore\n      0x20\n      add\n      dup3\n      dup1\n      sload\n      tag_114\n      swap1\n      tag_48\n      jump\t// in\n    tag_114:\n      dup1\n      iszero\n      tag_115\n      jumpi\n      dup1\n      0x1f\n      lt\n      tag_116\n      jumpi\n      0x0100\n      dup1\n      dup4\n      sload\n      div\n      mul\n      dup4\n      mstore\n      swap2\n      0x20\n      add\n      swap2\n      jump(tag_115)\n    tag_116:\n      dup3\n      add\n      swap2\n      swap1\n      0x00\n      mstore\n      keccak256(0x00, 0x20)\n      swap1\n    tag_117:\n      dup2\n      sload\n      dup2\n      mstore\n      swap1\n      0x01\n      add\n      swap1\n      0x20\n      add\n      dup1\n      dup4\n      gt\n      tag_117\n      jumpi\n      dup3\n      swap1\n      sub\n      0x1f\n      and\n      dup3\n      add\n      swap2\n    tag_115:\n      pop\n      pop\n      pop\n      pop\n      pop\n      dup2\n      mstore\n      0x20\n      add\n      0x01\n      dup3\n      add\n      sload\n      dup2\n      mstore\n      0x20\n      add\n      0x02\n      dup3\n      add\n      dup1\n      sload\n      tag_118\n      swap1\n      tag_48\n      jump\t// in\n    tag_118:\n      dup1\n      0x1f\n      add\n      0x20\n      dup1\n      swap2\n      div\n      mul\n      0x20\n      add\n      mload(0x40)\n      swap1\n      dup2\n      add\n      0x40\n      mstore\n      dup1\n      swap3\n      swap2\n      swap1\n      dup2\n      dup2\n      mstore\n      0x20\n      add\n      dup3\n      dup1\n      sload\n      tag_119\n      swap1\n      tag_48\n      jump\t// in\n    tag_119:\n      dup1\n      iszero\n      tag_120\n      jumpi\n      dup1\n      0x1f\n      lt\n      tag_121\n      jumpi\n      0x0100\n      dup1\n      dup4\n      sload\n      div\n      mul\n      dup4\n      mstore\n      swap2\n      0x20\n      add\n      swap2\n      jump(tag_120)\n    tag_121:\n      dup3\n      add\n      swap2\n      swap1\n      0x00\n      mstore\n      keccak256(0x00, 0x20)\n      swap1\n    tag_122:\n      dup2\n      sload\n      dup2\n      mstore\n      swap1\n      0x01\n      add\n      swap1\n      0x20\n      add\n      dup1\n      dup4\n      gt\n      tag_122\n      jumpi\n      dup3\n      swap1\n      sub\n      0x1f\n      and\n      dup3\n      add\n      swap2\n    tag_120:\n      pop\n      pop\n      pop\n      pop\n      pop\n      dup2\n      mstore\n      0x20\n      add\n      0x03\n      dup3\n      add\n      sload\n      dup2\n      mstore\n      0x20\n      add\n      0x04\n      dup3\n      add\n      dup1\n      sload\n      tag_123\n      swap1\n      tag_48\n      jump\t// in\n    tag_123:\n      dup1\n      0x1f\n      add\n      0x20\n      dup1\n      swap2\n      div\n      mul\n      0x20\n      add\n      mload(0x40)\n      swap1\n      dup2\n      add\n      0x40\n      mstore\n      dup1\n      swap3\n      swap2\n      swap1\n      dup2\n      dup2\n      mstore\n      0x20\n      add\n      dup3\n      dup1\n      sload\n      tag_124\n      swap1\n      tag_48\n      jump\t// in\n    tag_124:\n      dup1\n      iszero\n      tag_125\n      jumpi\n      dup1\n      0x1f\n      lt\n      tag_126\n      jumpi\n      0x0100\n      dup1\n      dup4\n      sload\n      div\n      mul\n      dup4\n      mstore\n      swap2\n      0x20\n      add\n      swap2\n      jump(tag_125)\n    tag_126:\n      dup3\n      add\n      swap2\n      swap1\n      0x00\n      mstore\n      keccak256(0x00, 0x20)\n      swap1\n    tag_127:\n      dup2\n      sload\n      dup2\n      mstore\n      swap1\n      0x01\n      add\n      swap1\n      0x20\n      add\n      dup1\n      dup4\n      gt\n      tag_127\n      jumpi\n      dup3\n      swap1\n      sub\n      0x1f\n      and\n      dup3\n      add\n      swap2\n    tag_125:\n      pop\n      pop\n      pop\n      pop\n      pop\n      dup2\n      mstore\n      0x20\n      add\n      0x05\n      dup3\n      add\n      sload\n      dup2\n      mstore\n      0x20\n      add\n      0x06\n      dup3\n      add\n      sload\n      dup2\n      mstore\n      0x20\n      add\n      0x07\n      dup3\n      add\n      sload\n      dup2\n      mstore\n      0x20\n      add\n      0x08\n      dup3\n      add\n      sload\n      dup2\n      mstore\n      0x20\n      add\n      0x09\n      dup3\n      add\n      sload\n      dup2\n      mstore\n      0x20\n      add\n      0x0a\n      dup3\n      add\n      0x00\n      swap1\n      sload\n      swap1\n      0x0100\n      exp\n      swap1\n      div\n      sub(shl(0xa0, 0x01), 0x01)\n      and\n      sub(shl(0xa0, 0x01), 0x01)\n      and\n      sub(shl(0xa0, 0x01), 0x01)\n      and\n      dup2\n      mstore\n      pop\n      pop\n      swap1\n      pop\n        /* \"contracts/SistemaVotacion.sol\":4120:4121  p */\n      dup1\n        /* \"contracts/SistemaVotacion.sol\":4120:4128  p.ciudad */\n      0x00\n      add\n      mload\n        /* \"contracts/SistemaVotacion.sol\":4142:4143  p */\n      dup2\n        /* \"contracts/SistemaVotacion.sol\":4142:4155  p.numero_mesa */\n      0x20\n      add\n      mload\n        /* \"contracts/SistemaVotacion.sol\":4169:4170  p */\n      dup3\n        /* \"contracts/SistemaVotacion.sol\":4169:4187  p.nombre_votante_1 */\n      0x40\n      add\n      mload\n        /* \"contracts/SistemaVotacion.sol\":4201:4202  p */\n      dup4\n        /* \"contracts/SistemaVotacion.sol\":4201:4213  p.cantidad_1 */\n      0x60\n      add\n      mload\n        /* \"contracts/SistemaVotacion.sol\":4227:4228  p */\n      dup5\n        /* \"contracts/SistemaVotacion.sol\":4227:4245  p.nombre_votante_2 */\n      0x80\n      add\n      mload\n        /* \"contracts/SistemaVotacion.sol\":4259:4260  p */\n      dup6\n        /* \"contracts/SistemaVotacion.sol\":4259:4271  p.cantidad_2 */\n      0xa0\n      add\n      mload\n        /* \"contracts/SistemaVotacion.sol\":4285:4286  p */\n      dup7\n        /* \"contracts/SistemaVotacion.sol\":4285:4299  p.votos_blanco */\n      0xc0\n      add\n      mload\n        /* \"contracts/SistemaVotacion.sol\":4313:4314  p */\n      dup8\n        /* \"contracts/SistemaVotacion.sol\":4313:4328  p.votos_totales */\n      0xe0\n      add\n      mload\n        /* \"contracts/SistemaVotacion.sol\":4342:4343  p */\n      dup9\n        /* \"contracts/SistemaVotacion.sol\":4342:4367  p.fecha_creacion_planilla */\n      0x0100\n      add\n      mload\n        /* \"contracts/SistemaVotacion.sol\":4381:4382  p */\n      dup10\n        /* \"contracts/SistemaVotacion.sol\":4381:4390  p.creador */\n      0x0140\n      add\n      mload\n        /* \"contracts/SistemaVotacion.sol\":4099:4400  return (... */\n      swap12\n      pop\n      swap12\n      pop\n      swap12\n      pop\n      swap12\n      pop\n      swap12\n      pop\n      swap12\n      pop\n      swap12\n      pop\n      swap12\n      pop\n      swap12\n      pop\n      swap12\n      pop\n      pop\n      pop\n        /* \"contracts/SistemaVotacion.sol\":3540:4407  function buscarPlanillaPorHash(bytes32 _hash) external view returns (... */\n      swap2\n      swap4\n      swap6\n      swap8\n      swap10\n      pop\n      swap2\n      swap4\n      swap6\n      swap8\n      swap10\n      jump\t// out\n        /* \"#utility.yul\":14:240   */\n    tag_13:\n        /* \"#utility.yul\":73:79   */\n      0x00\n        /* \"#utility.yul\":126:128   */\n      0x20\n        /* \"#utility.yul\":114:123   */\n      dup3\n        /* \"#utility.yul\":105:112   */\n      dup5\n        /* \"#utility.yul\":101:124   */\n      sub\n        /* \"#utility.yul\":97:129   */\n      slt\n        /* \"#utility.yul\":94:146   */\n      iszero\n      tag_140\n      jumpi\n        /* \"#utility.yul\":142:143   */\n      0x00\n        /* \"#utility.yul\":139:140   */\n      0x00\n        /* \"#utility.yul\":132:144   */\n      revert\n        /* \"#utility.yul\":94:146   */\n    tag_140:\n      pop\n        /* \"#utility.yul\":187:210   */\n      calldataload\n      swap2\n        /* \"#utility.yul\":14:240   */\n      swap1\n      pop\n      jump\t// out\n        /* \"#utility.yul\":245:545   */\n    tag_129:\n        /* \"#utility.yul\":298:301   */\n      0x00\n        /* \"#utility.yul\":336:341   */\n      dup2\n        /* \"#utility.yul\":330:342   */\n      mload\n        /* \"#utility.yul\":363:369   */\n      dup1\n        /* \"#utility.yul\":358:361   */\n      dup5\n        /* \"#utility.yul\":351:370   */\n      mstore\n        /* \"#utility.yul\":419:425   */\n      dup1\n        /* \"#utility.yul\":412:416   */\n      0x20\n        /* \"#utility.yul\":405:410   */\n      dup5\n        /* \"#utility.yul\":401:417   */\n      add\n        /* \"#utility.yul\":394:398   */\n      0x20\n        /* \"#utility.yul\":389:392   */\n      dup7\n        /* \"#utility.yul\":385:399   */\n      add\n        /* \"#utility.yul\":379:426   */\n      mcopy\n        /* \"#utility.yul\":471:472   */\n      0x00\n        /* \"#utility.yul\":464:468   */\n      0x20\n        /* \"#utility.yul\":455:461   */\n      dup3\n        /* \"#utility.yul\":450:453   */\n      dup7\n        /* \"#utility.yul\":446:462   */\n      add\n        /* \"#utility.yul\":442:469   */\n      add\n        /* \"#utility.yul\":435:473   */\n      mstore\n        /* \"#utility.yul\":534:538   */\n      0x20\n        /* \"#utility.yul\":527:529   */\n      0x1f\n        /* \"#utility.yul\":523:530   */\n      not\n        /* \"#utility.yul\":518:520   */\n      0x1f\n        /* \"#utility.yul\":510:516   */\n      dup4\n        /* \"#utility.yul\":506:521   */\n      add\n        /* \"#utility.yul\":502:531   */\n      and\n        /* \"#utility.yul\":497:500   */\n      dup6\n        /* \"#utility.yul\":493:532   */\n      add\n        /* \"#utility.yul\":489:539   */\n      add\n        /* \"#utility.yul\":482:539   */\n      swap2\n      pop\n      pop\n        /* \"#utility.yul\":245:545   */\n      swap3\n      swap2\n      pop\n      pop\n      jump\t// out\n        /* \"#utility.yul\":550:1734   */\n    tag_16:\n        /* \"#utility.yul\":1020:1023   */\n      0x0160\n        /* \"#utility.yul\":1009:1018   */\n      dup2\n        /* \"#utility.yul\":1002:1024   */\n      mstore\n        /* \"#utility.yul\":983:987   */\n      0x00\n        /* \"#utility.yul\":1047:1104   */\n      tag_143\n        /* \"#utility.yul\":1099:1102   */\n      0x0160\n        /* \"#utility.yul\":1088:1097   */\n      dup4\n        /* \"#utility.yul\":1084:1103   */\n      add\n        /* \"#utility.yul\":1076:1082   */\n      dup15\n        /* \"#utility.yul\":1047:1104   */\n      tag_129\n      jump\t// in\n    tag_143:\n        /* \"#utility.yul\":1140:1146   */\n      dup13\n        /* \"#utility.yul\":1135:1137   */\n      0x20\n        /* \"#utility.yul\":1124:1133   */\n      dup5\n        /* \"#utility.yul\":1120:1138   */\n      add\n        /* \"#utility.yul\":1113:1147   */\n      mstore\n        /* \"#utility.yul\":1195:1204   */\n      dup3\n        /* \"#utility.yul\":1187:1193   */\n      dup2\n        /* \"#utility.yul\":1183:1205   */\n      sub\n        /* \"#utility.yul\":1178:1180   */\n      0x40\n        /* \"#utility.yul\":1167:1176   */\n      dup5\n        /* \"#utility.yul\":1163:1181   */\n      add\n        /* \"#utility.yul\":1156:1206   */\n      mstore\n        /* \"#utility.yul\":1229:1273   */\n      tag_144\n        /* \"#utility.yul\":1266:1272   */\n      dup2\n        /* \"#utility.yul\":1258:1264   */\n      dup14\n        /* \"#utility.yul\":1229:1273   */\n      tag_129\n      jump\t// in\n    tag_144:\n        /* \"#utility.yul\":1215:1273   */\n      swap1\n      pop\n        /* \"#utility.yul\":1309:1315   */\n      dup11\n        /* \"#utility.yul\":1304:1306   */\n      0x60\n        /* \"#utility.yul\":1293:1302   */\n      dup5\n        /* \"#utility.yul\":1289:1307   */\n      add\n        /* \"#utility.yul\":1282:1316   */\n      mstore\n        /* \"#utility.yul\":1365:1374   */\n      dup3\n        /* \"#utility.yul\":1357:1363   */\n      dup2\n        /* \"#utility.yul\":1353:1375   */\n      sub\n        /* \"#utility.yul\":1347:1350   */\n      0x80\n        /* \"#utility.yul\":1336:1345   */\n      dup5\n        /* \"#utility.yul\":1332:1351   */\n      add\n        /* \"#utility.yul\":1325:1376   */\n      mstore\n        /* \"#utility.yul\":1393:1437   */\n      tag_145\n        /* \"#utility.yul\":1430:1436   */\n      dup2\n        /* \"#utility.yul\":1422:1428   */\n      dup12\n        /* \"#utility.yul\":1393:1437   */\n      tag_129\n      jump\t// in\n    tag_145:\n        /* \"#utility.yul\":1468:1471   */\n      0xa0\n        /* \"#utility.yul\":1453:1472   */\n      dup5\n      add\n        /* \"#utility.yul\":1446:1481   */\n      swap10\n      swap1\n      swap10\n      mstore\n      pop\n      pop\n        /* \"#utility.yul\":1512:1515   */\n      0xc0\n        /* \"#utility.yul\":1497:1516   */\n      dup2\n      add\n        /* \"#utility.yul\":1490:1525   */\n      swap6\n      swap1\n      swap6\n      mstore\n        /* \"#utility.yul\":1556:1559   */\n      0xe0\n        /* \"#utility.yul\":1541:1560   */\n      dup6\n      add\n        /* \"#utility.yul\":1534:1569   */\n      swap4\n      swap1\n      swap4\n      mstore\n        /* \"#utility.yul\":1600:1603   */\n      0x0100\n        /* \"#utility.yul\":1585:1604   */\n      dup5\n      add\n        /* \"#utility.yul\":1578:1613   */\n      swap2\n      swap1\n      swap2\n      mstore\n        /* \"#utility.yul\":1644:1647   */\n      0x0120\n        /* \"#utility.yul\":1629:1648   */\n      dup4\n      add\n        /* \"#utility.yul\":1622:1657   */\n      mstore\n      sub(shl(0xa0, 0x01), 0x01)\n        /* \"#utility.yul\":1694:1727   */\n      and\n        /* \"#utility.yul\":1688:1691   */\n      0x0140\n        /* \"#utility.yul\":1673:1692   */\n      swap1\n      swap2\n      add\n        /* \"#utility.yul\":1666:1728   */\n      mstore\n        /* \"#utility.yul\":1385:1437   */\n      swap6\n        /* \"#utility.yul\":550:1734   */\n      swap5\n      pop\n      pop\n      pop\n      pop\n      pop\n      jump\t// out\n        /* \"#utility.yul\":1739:1866   */\n    tag_130:\n        /* \"#utility.yul\":1800:1810   */\n      0x4e487b71\n        /* \"#utility.yul\":1795:1798   */\n      0xe0\n        /* \"#utility.yul\":1791:1811   */\n      shl\n        /* \"#utility.yul\":1788:1789   */\n      0x00\n        /* \"#utility.yul\":1781:1812   */\n      mstore\n        /* \"#utility.yul\":1831:1835   */\n      0x41\n        /* \"#utility.yul\":1828:1829   */\n      0x04\n        /* \"#utility.yul\":1821:1836   */\n      mstore\n        /* \"#utility.yul\":1855:1859   */\n      0x24\n        /* \"#utility.yul\":1852:1853   */\n      0x00\n        /* \"#utility.yul\":1845:1860   */\n      revert\n        /* \"#utility.yul\":1871:2597   */\n    tag_131:\n        /* \"#utility.yul\":1914:1919   */\n      0x00\n        /* \"#utility.yul\":1967:1970   */\n      dup3\n        /* \"#utility.yul\":1960:1964   */\n      0x1f\n        /* \"#utility.yul\":1952:1958   */\n      dup4\n        /* \"#utility.yul\":1948:1965   */\n      add\n        /* \"#utility.yul\":1944:1971   */\n      slt\n        /* \"#utility.yul\":1934:1989   */\n      tag_148\n      jumpi\n        /* \"#utility.yul\":1985:1986   */\n      0x00\n        /* \"#utility.yul\":1982:1983   */\n      0x00\n        /* \"#utility.yul\":1975:1987   */\n      revert\n        /* \"#utility.yul\":1934:1989   */\n    tag_148:\n        /* \"#utility.yul\":2025:2031   */\n      dup2\n        /* \"#utility.yul\":2012:2032   */\n      calldataload\n        /* \"#utility.yul\":2055:2073   */\n      0xffffffffffffffff\n        /* \"#utility.yul\":2047:2053   */\n      dup2\n        /* \"#utility.yul\":2044:2074   */\n      gt\n        /* \"#utility.yul\":2041:2097   */\n      iszero\n      tag_150\n      jumpi\n        /* \"#utility.yul\":2077:2095   */\n      tag_150\n      tag_130\n      jump\t// in\n    tag_150:\n        /* \"#utility.yul\":2126:2128   */\n      0x40\n        /* \"#utility.yul\":2120:2129   */\n      mload\n        /* \"#utility.yul\":2218:2220   */\n      0x1f\n        /* \"#utility.yul\":2180:2197   */\n      dup3\n      add\n      not(0x1f)\n        /* \"#utility.yul\":2176:2207   */\n      swap1\n      dup2\n      and\n        /* \"#utility.yul\":2209:2211   */\n      0x3f\n        /* \"#utility.yul\":2172:2212   */\n      add\n        /* \"#utility.yul\":2168:2222   */\n      and\n        /* \"#utility.yul\":2156:2223   */\n      dup2\n      add\n        /* \"#utility.yul\":2253:2271   */\n      0xffffffffffffffff\n        /* \"#utility.yul\":2238:2272   */\n      dup2\n      gt\n        /* \"#utility.yul\":2274:2296   */\n      dup3\n      dup3\n      lt\n        /* \"#utility.yul\":2235:2297   */\n      or\n        /* \"#utility.yul\":2232:2320   */\n      iszero\n      tag_152\n      jumpi\n        /* \"#utility.yul\":2300:2318   */\n      tag_152\n      tag_130\n      jump\t// in\n    tag_152:\n        /* \"#utility.yul\":2336:2338   */\n      0x40\n        /* \"#utility.yul\":2329:2351   */\n      mstore\n        /* \"#utility.yul\":2360:2382   */\n      dup2\n      dup2\n      mstore\n        /* \"#utility.yul\":2401:2420   */\n      dup4\n      dup3\n      add\n        /* \"#utility.yul\":2422:2426   */\n      0x20\n        /* \"#utility.yul\":2397:2427   */\n      add\n        /* \"#utility.yul\":2394:2433   */\n      dup6\n      lt\n        /* \"#utility.yul\":2391:2450   */\n      iszero\n      tag_153\n      jumpi\n        /* \"#utility.yul\":2446:2447   */\n      0x00\n        /* \"#utility.yul\":2443:2444   */\n      0x00\n        /* \"#utility.yul\":2436:2448   */\n      revert\n        /* \"#utility.yul\":2391:2450   */\n    tag_153:\n        /* \"#utility.yul\":2510:2516   */\n      dup2\n        /* \"#utility.yul\":2503:2507   */\n      0x20\n        /* \"#utility.yul\":2495:2501   */\n      dup6\n        /* \"#utility.yul\":2491:2508   */\n      add\n        /* \"#utility.yul\":2484:2488   */\n      0x20\n        /* \"#utility.yul\":2476:2482   */\n      dup4\n        /* \"#utility.yul\":2472:2489   */\n      add\n        /* \"#utility.yul\":2459:2517   */\n      calldatacopy\n        /* \"#utility.yul\":2565:2566   */\n      0x00\n        /* \"#utility.yul\":2537:2556   */\n      swap2\n      dup2\n      add\n        /* \"#utility.yul\":2558:2562   */\n      0x20\n        /* \"#utility.yul\":2533:2563   */\n      add\n        /* \"#utility.yul\":2526:2567   */\n      swap2\n      swap1\n      swap2\n      mstore\n        /* \"#utility.yul\":2541:2547   */\n      swap4\n        /* \"#utility.yul\":1871:2597   */\n      swap3\n      pop\n      pop\n      pop\n      jump\t// out\n        /* \"#utility.yul\":2602:3955   */\n    tag_19:\n        /* \"#utility.yul\":2754:2760   */\n      0x00\n        /* \"#utility.yul\":2762:2768   */\n      0x00\n        /* \"#utility.yul\":2770:2776   */\n      0x00\n        /* \"#utility.yul\":2778:2784   */\n      0x00\n        /* \"#utility.yul\":2786:2792   */\n      0x00\n        /* \"#utility.yul\":2794:2800   */\n      0x00\n        /* \"#utility.yul\":2802:2808   */\n      0x00\n        /* \"#utility.yul\":2810:2816   */\n      0x00\n        /* \"#utility.yul\":2863:2866   */\n      0x0100\n        /* \"#utility.yul\":2851:2860   */\n      dup10\n        /* \"#utility.yul\":2842:2849   */\n      dup12\n        /* \"#utility.yul\":2838:2861   */\n      sub\n        /* \"#utility.yul\":2834:2867   */\n      slt\n        /* \"#utility.yul\":2831:2884   */\n      iszero\n      tag_155\n      jumpi\n        /* \"#utility.yul\":2880:2881   */\n      0x00\n        /* \"#utility.yul\":2877:2878   */\n      0x00\n        /* \"#utility.yul\":2870:2882   */\n      revert\n        /* \"#utility.yul\":2831:2884   */\n    tag_155:\n        /* \"#utility.yul\":2920:2929   */\n      dup9\n        /* \"#utility.yul\":2907:2930   */\n      calldataload\n        /* \"#utility.yul\":2953:2971   */\n      0xffffffffffffffff\n        /* \"#utility.yul\":2945:2951   */\n      dup2\n        /* \"#utility.yul\":2942:2972   */\n      gt\n        /* \"#utility.yul\":2939:2989   */\n      iszero\n      tag_156\n      jumpi\n        /* \"#utility.yul\":2985:2986   */\n      0x00\n        /* \"#utility.yul\":2982:2983   */\n      0x00\n        /* \"#utility.yul\":2975:2987   */\n      revert\n        /* \"#utility.yul\":2939:2989   */\n    tag_156:\n        /* \"#utility.yul\":3008:3058   */\n      tag_157\n        /* \"#utility.yul\":3050:3057   */\n      dup12\n        /* \"#utility.yul\":3041:3047   */\n      dup3\n        /* \"#utility.yul\":3030:3039   */\n      dup13\n        /* \"#utility.yul\":3026:3048   */\n      add\n        /* \"#utility.yul\":3008:3058   */\n      tag_131\n      jump\t// in\n    tag_157:\n        /* \"#utility.yul\":2998:3058   */\n      swap9\n      pop\n      pop\n        /* \"#utility.yul\":3127:3129   */\n      0x20\n        /* \"#utility.yul\":3112:3130   */\n      dup10\n      add\n        /* \"#utility.yul\":3099:3131   */\n      calldataload\n      swap7\n      pop\n        /* \"#utility.yul\":3208:3210   */\n      0x40\n        /* \"#utility.yul\":3193:3211   */\n      dup10\n      add\n        /* \"#utility.yul\":3180:3212   */\n      calldataload\n        /* \"#utility.yul\":3237:3255   */\n      0xffffffffffffffff\n        /* \"#utility.yul\":3224:3256   */\n      dup2\n      gt\n        /* \"#utility.yul\":3221:3273   */\n      iszero\n      tag_158\n      jumpi\n        /* \"#utility.yul\":3269:3270   */\n      0x00\n        /* \"#utility.yul\":3266:3267   */\n      0x00\n        /* \"#utility.yul\":3259:3271   */\n      revert\n        /* \"#utility.yul\":3221:3273   */\n    tag_158:\n        /* \"#utility.yul\":3292:3344   */\n      tag_159\n        /* \"#utility.yul\":3336:3343   */\n      dup12\n        /* \"#utility.yul\":3325:3333   */\n      dup3\n        /* \"#utility.yul\":3314:3323   */\n      dup13\n        /* \"#utility.yul\":3310:3334   */\n      add\n        /* \"#utility.yul\":3292:3344   */\n      tag_131\n      jump\t// in\n    tag_159:\n        /* \"#utility.yul\":3282:3344   */\n      swap7\n      pop\n      pop\n        /* \"#utility.yul\":3417:3419   */\n      0x60\n        /* \"#utility.yul\":3402:3420   */\n      dup10\n      add\n        /* \"#utility.yul\":3389:3421   */\n      calldataload\n      swap5\n      pop\n        /* \"#utility.yul\":3500:3503   */\n      0x80\n        /* \"#utility.yul\":3485:3504   */\n      dup10\n      add\n        /* \"#utility.yul\":3472:3505   */\n      calldataload\n        /* \"#utility.yul\":3530:3548   */\n      0xffffffffffffffff\n        /* \"#utility.yul\":3517:3549   */\n      dup2\n      gt\n        /* \"#utility.yul\":3514:3566   */\n      iszero\n      tag_160\n      jumpi\n        /* \"#utility.yul\":3562:3563   */\n      0x00\n        /* \"#utility.yul\":3559:3560   */\n      0x00\n        /* \"#utility.yul\":3552:3564   */\n      revert\n        /* \"#utility.yul\":3514:3566   */\n    tag_160:\n        /* \"#utility.yul\":3585:3637   */\n      tag_161\n        /* \"#utility.yul\":3629:3636   */\n      dup12\n        /* \"#utility.yul\":3618:3626   */\n      dup3\n        /* \"#utility.yul\":3607:3616   */\n      dup13\n        /* \"#utility.yul\":3603:3627   */\n      add\n        /* \"#utility.yul\":3585:3637   */\n      tag_131\n      jump\t// in\n    tag_161:\n        /* \"#utility.yul\":2602:3955   */\n      swap9\n      swap12\n      swap8\n      swap11\n      pop\n      swap6\n      swap9\n      swap5\n      swap8\n        /* \"#utility.yul\":3575:3637   */\n      swap7\n        /* \"#utility.yul\":3710:3713   */\n      0xa0\n        /* \"#utility.yul\":3695:3714   */\n      dup7\n      add\n        /* \"#utility.yul\":3682:3715   */\n      calldataload\n      swap7\n      pop\n        /* \"#utility.yul\":3814:3817   */\n      0xc0\n        /* \"#utility.yul\":3799:3818   */\n      dup7\n      add\n        /* \"#utility.yul\":3786:3819   */\n      calldataload\n      swap6\n        /* \"#utility.yul\":3918:3921   */\n      0xe0\n        /* \"#utility.yul\":3903:3922   */\n      add\n        /* \"#utility.yul\":3890:3923   */\n      calldataload\n      swap5\n      pop\n        /* \"#utility.yul\":2602:3955   */\n      swap3\n      pop\n      pop\n      pop\n      jump\t// out\n        /* \"#utility.yul\":4142:4490   */\n    tag_132:\n        /* \"#utility.yul\":4194:4202   */\n      0x00\n        /* \"#utility.yul\":4204:4210   */\n      0x00\n        /* \"#utility.yul\":4258:4261   */\n      dup4\n        /* \"#utility.yul\":4251:4255   */\n      0x1f\n        /* \"#utility.yul\":4243:4249   */\n      dup5\n        /* \"#utility.yul\":4239:4256   */\n      add\n        /* \"#utility.yul\":4235:4262   */\n      slt\n        /* \"#utility.yul\":4225:4280   */\n      tag_164\n      jumpi\n        /* \"#utility.yul\":4276:4277   */\n      0x00\n        /* \"#utility.yul\":4273:4274   */\n      0x00\n        /* \"#utility.yul\":4266:4278   */\n      revert\n        /* \"#utility.yul\":4225:4280   */\n    tag_164:\n      pop\n        /* \"#utility.yul\":4299:4319   */\n      dup2\n      calldataload\n        /* \"#utility.yul\":4342:4360   */\n      0xffffffffffffffff\n        /* \"#utility.yul\":4331:4361   */\n      dup2\n      gt\n        /* \"#utility.yul\":4328:4378   */\n      iszero\n      tag_165\n      jumpi\n        /* \"#utility.yul\":4374:4375   */\n      0x00\n        /* \"#utility.yul\":4371:4372   */\n      0x00\n        /* \"#utility.yul\":4364:4376   */\n      revert\n        /* \"#utility.yul\":4328:4378   */\n    tag_165:\n        /* \"#utility.yul\":4411:4415   */\n      0x20\n        /* \"#utility.yul\":4403:4409   */\n      dup4\n        /* \"#utility.yul\":4399:4416   */\n      add\n        /* \"#utility.yul\":4387:4416   */\n      swap2\n      pop\n        /* \"#utility.yul\":4463:4466   */\n      dup4\n        /* \"#utility.yul\":4456:4460   */\n      0x20\n        /* \"#utility.yul\":4447:4453   */\n      dup3\n        /* \"#utility.yul\":4439:4445   */\n      dup6\n        /* \"#utility.yul\":4435:4454   */\n      add\n        /* \"#utility.yul\":4431:4461   */\n      add\n        /* \"#utility.yul\":4428:4467   */\n      gt\n        /* \"#utility.yul\":4425:4484   */\n      iszero\n      tag_166\n      jumpi\n        /* \"#utility.yul\":4480:4481   */\n      0x00\n        /* \"#utility.yul\":4477:4478   */\n      0x00\n        /* \"#utility.yul\":4470:4482   */\n      revert\n        /* \"#utility.yul\":4425:4484   */\n    tag_166:\n        /* \"#utility.yul\":4142:4490   */\n      swap3\n      pop\n      swap3\n      swap1\n      pop\n      jump\t// out\n        /* \"#utility.yul\":4495:5994   */\n    tag_25:\n        /* \"#utility.yul\":4644:4650   */\n      0x00\n        /* \"#utility.yul\":4652:4658   */\n      0x00\n        /* \"#utility.yul\":4660:4666   */\n      0x00\n        /* \"#utility.yul\":4668:4674   */\n      0x00\n        /* \"#utility.yul\":4676:4682   */\n      0x00\n        /* \"#utility.yul\":4684:4690   */\n      0x00\n        /* \"#utility.yul\":4692:4698   */\n      0x00\n        /* \"#utility.yul\":4700:4706   */\n      0x00\n        /* \"#utility.yul\":4708:4714   */\n      0x00\n        /* \"#utility.yul\":4716:4722   */\n      0x00\n        /* \"#utility.yul\":4769:4772   */\n      0xe0\n        /* \"#utility.yul\":4757:4766   */\n      dup12\n        /* \"#utility.yul\":4748:4755   */\n      dup14\n        /* \"#utility.yul\":4744:4767   */\n      sub\n        /* \"#utility.yul\":4740:4773   */\n      slt\n        /* \"#utility.yul\":4737:4790   */\n      iszero\n      tag_168\n      jumpi\n        /* \"#utility.yul\":4786:4787   */\n      0x00\n        /* \"#utility.yul\":4783:4784   */\n      0x00\n        /* \"#utility.yul\":4776:4788   */\n      revert\n        /* \"#utility.yul\":4737:4790   */\n    tag_168:\n        /* \"#utility.yul\":4826:4835   */\n      dup11\n        /* \"#utility.yul\":4813:4836   */\n      calldataload\n        /* \"#utility.yul\":4859:4877   */\n      0xffffffffffffffff\n        /* \"#utility.yul\":4851:4857   */\n      dup2\n        /* \"#utility.yul\":4848:4878   */\n      gt\n        /* \"#utility.yul\":4845:4895   */\n      iszero\n      tag_169\n      jumpi\n        /* \"#utility.yul\":4891:4892   */\n      0x00\n        /* \"#utility.yul\":4888:4889   */\n      0x00\n        /* \"#utility.yul\":4881:4893   */\n      revert\n        /* \"#utility.yul\":4845:4895   */\n    tag_169:\n        /* \"#utility.yul\":4930:4989   */\n      tag_170\n        /* \"#utility.yul\":4981:4988   */\n      dup14\n        /* \"#utility.yul\":4972:4978   */\n      dup3\n        /* \"#utility.yul\":4961:4970   */\n      dup15\n        /* \"#utility.yul\":4957:4979   */\n      add\n        /* \"#utility.yul\":4930:4989   */\n      tag_132\n      jump\t// in\n    tag_170:\n        /* \"#utility.yul\":5008:5016   */\n      swap1\n      swap12\n      pop\n        /* \"#utility.yul\":4904:4989   */\n      swap10\n      pop\n      pop\n        /* \"#utility.yul\":5112:5114   */\n      0x20\n        /* \"#utility.yul\":5097:5115   */\n      dup12\n      add\n        /* \"#utility.yul\":5084:5116   */\n      calldataload\n      swap8\n      pop\n        /* \"#utility.yul\":5193:5195   */\n      0x40\n        /* \"#utility.yul\":5178:5196   */\n      dup12\n      add\n        /* \"#utility.yul\":5165:5197   */\n      calldataload\n        /* \"#utility.yul\":5222:5240   */\n      0xffffffffffffffff\n        /* \"#utility.yul\":5209:5241   */\n      dup2\n      gt\n        /* \"#utility.yul\":5206:5258   */\n      iszero\n      tag_171\n      jumpi\n        /* \"#utility.yul\":5254:5255   */\n      0x00\n        /* \"#utility.yul\":5251:5252   */\n      0x00\n        /* \"#utility.yul\":5244:5256   */\n      revert\n        /* \"#utility.yul\":5206:5258   */\n    tag_171:\n        /* \"#utility.yul\":5293:5354   */\n      tag_172\n        /* \"#utility.yul\":5346:5353   */\n      dup14\n        /* \"#utility.yul\":5335:5343   */\n      dup3\n        /* \"#utility.yul\":5324:5333   */\n      dup15\n        /* \"#utility.yul\":5320:5344   */\n      add\n        /* \"#utility.yul\":5293:5354   */\n      tag_132\n      jump\t// in\n    tag_172:\n        /* \"#utility.yul\":5373:5381   */\n      swap1\n      swap9\n      pop\n        /* \"#utility.yul\":5267:5354   */\n      swap7\n      pop\n      pop\n        /* \"#utility.yul\":5481:5483   */\n      0x60\n        /* \"#utility.yul\":5466:5484   */\n      dup12\n      add\n        /* \"#utility.yul\":5453:5485   */\n      calldataload\n      swap5\n      pop\n        /* \"#utility.yul\":5564:5567   */\n      0x80\n        /* \"#utility.yul\":5549:5568   */\n      dup12\n      add\n        /* \"#utility.yul\":5536:5569   */\n      calldataload\n        /* \"#utility.yul\":5594:5612   */\n      0xffffffffffffffff\n        /* \"#utility.yul\":5581:5613   */\n      dup2\n      gt\n        /* \"#utility.yul\":5578:5630   */\n      iszero\n      tag_173\n      jumpi\n        /* \"#utility.yul\":5626:5627   */\n      0x00\n        /* \"#utility.yul\":5623:5624   */\n      0x00\n        /* \"#utility.yul\":5616:5628   */\n      revert\n        /* \"#utility.yul\":5578:5630   */\n    tag_173:\n        /* \"#utility.yul\":5665:5726   */\n      tag_174\n        /* \"#utility.yul\":5718:5725   */\n      dup14\n        /* \"#utility.yul\":5707:5715   */\n      dup3\n        /* \"#utility.yul\":5696:5705   */\n      dup15\n        /* \"#utility.yul\":5692:5716   */\n      add\n        /* \"#utility.yul\":5665:5726   */\n      tag_132\n      jump\t// in\n    tag_174:\n        /* \"#utility.yul\":4495:5994   */\n      swap12\n      swap15\n      swap11\n      swap14\n      pop\n      swap9\n      swap12\n      swap8\n      swap11\n      swap7\n      swap10\n      swap6\n      swap9\n        /* \"#utility.yul\":5745:5753   */\n      swap8\n        /* \"#utility.yul\":5853:5856   */\n      0xa0\n        /* \"#utility.yul\":5838:5857   */\n      dup2\n      add\n        /* \"#utility.yul\":5825:5858   */\n      calldataload\n      swap7\n        /* \"#utility.yul\":5957:5960   */\n      0xc0\n        /* \"#utility.yul\":5942:5961   */\n      swap1\n      swap2\n      add\n        /* \"#utility.yul\":5929:5962   */\n      calldataload\n      swap6\n      pop\n        /* \"#utility.yul\":4495:5994   */\n      swap4\n      pop\n      pop\n      pop\n      pop\n      jump\t// out\n        /* \"#utility.yul\":6366:7476   */\n    tag_41:\n        /* \"#utility.yul\":6807:6810   */\n      0x0140\n        /* \"#utility.yul\":6796:6805   */\n      dup2\n        /* \"#utility.yul\":6789:6811   */\n      mstore\n        /* \"#utility.yul\":6770:6774   */\n      0x00\n        /* \"#utility.yul\":6834:6891   */\n      tag_179\n        /* \"#utility.yul\":6886:6889   */\n      0x0140\n        /* \"#utility.yul\":6875:6884   */\n      dup4\n        /* \"#utility.yul\":6871:6890   */\n      add\n        /* \"#utility.yul\":6863:6869   */\n      dup14\n        /* \"#utility.yul\":6834:6891   */\n      tag_129\n      jump\t// in\n    tag_179:\n        /* \"#utility.yul\":6927:6933   */\n      dup12\n        /* \"#utility.yul\":6922:6924   */\n      0x20\n        /* \"#utility.yul\":6911:6920   */\n      dup5\n        /* \"#utility.yul\":6907:6925   */\n      add\n        /* \"#utility.yul\":6900:6934   */\n      mstore\n        /* \"#utility.yul\":6982:6991   */\n      dup3\n        /* \"#utility.yul\":6974:6980   */\n      dup2\n        /* \"#utility.yul\":6970:6992   */\n      sub\n        /* \"#utility.yul\":6965:6967   */\n      0x40\n        /* \"#utility.yul\":6954:6963   */\n      dup5\n        /* \"#utility.yul\":6950:6968   */\n      add\n        /* \"#utility.yul\":6943:6993   */\n      mstore\n        /* \"#utility.yul\":7016:7060   */\n      tag_180\n        /* \"#utility.yul\":7053:7059   */\n      dup2\n        /* \"#utility.yul\":7045:7051   */\n      dup13\n        /* \"#utility.yul\":7016:7060   */\n      tag_129\n      jump\t// in\n    tag_180:\n        /* \"#utility.yul\":7002:7060   */\n      swap1\n      pop\n        /* \"#utility.yul\":7096:7102   */\n      dup10\n        /* \"#utility.yul\":7091:7093   */\n      0x60\n        /* \"#utility.yul\":7080:7089   */\n      dup5\n        /* \"#utility.yul\":7076:7094   */\n      add\n        /* \"#utility.yul\":7069:7103   */\n      mstore\n        /* \"#utility.yul\":7152:7161   */\n      dup3\n        /* \"#utility.yul\":7144:7150   */\n      dup2\n        /* \"#utility.yul\":7140:7162   */\n      sub\n        /* \"#utility.yul\":7134:7137   */\n      0x80\n        /* \"#utility.yul\":7123:7132   */\n      dup5\n        /* \"#utility.yul\":7119:7138   */\n      add\n        /* \"#utility.yul\":7112:7163   */\n      mstore\n        /* \"#utility.yul\":7180:7224   */\n      tag_181\n        /* \"#utility.yul\":7217:7223   */\n      dup2\n        /* \"#utility.yul\":7209:7215   */\n      dup11\n        /* \"#utility.yul\":7180:7224   */\n      tag_129\n      jump\t// in\n    tag_181:\n        /* \"#utility.yul\":7255:7258   */\n      0xa0\n        /* \"#utility.yul\":7240:7259   */\n      dup5\n      add\n        /* \"#utility.yul\":7233:7268   */\n      swap9\n      swap1\n      swap9\n      mstore\n      pop\n      pop\n        /* \"#utility.yul\":7299:7302   */\n      0xc0\n        /* \"#utility.yul\":7284:7303   */\n      dup2\n      add\n        /* \"#utility.yul\":7277:7312   */\n      swap5\n      swap1\n      swap5\n      mstore\n        /* \"#utility.yul\":7343:7346   */\n      0xe0\n        /* \"#utility.yul\":7328:7347   */\n      dup5\n      add\n        /* \"#utility.yul\":7321:7356   */\n      swap3\n      swap1\n      swap3\n      mstore\n        /* \"#utility.yul\":7387:7390   */\n      0x0100\n        /* \"#utility.yul\":7372:7391   */\n      dup4\n      add\n        /* \"#utility.yul\":7365:7400   */\n      mstore\n      sub(shl(0xa0, 0x01), 0x01)\n        /* \"#utility.yul\":7437:7469   */\n      and\n        /* \"#utility.yul\":7431:7434   */\n      0x0120\n        /* \"#utility.yul\":7416:7435   */\n      swap1\n      swap2\n      add\n        /* \"#utility.yul\":7409:7470   */\n      mstore\n        /* \"#utility.yul\":7172:7224   */\n      swap6\n        /* \"#utility.yul\":6366:7476   */\n      swap5\n      pop\n      pop\n      pop\n      pop\n      pop\n      jump\t// out\n        /* \"#utility.yul\":7481:7861   */\n    tag_48:\n        /* \"#utility.yul\":7560:7561   */\n      0x01\n        /* \"#utility.yul\":7556:7568   */\n      dup2\n      dup2\n      shr\n      swap1\n        /* \"#utility.yul\":7603:7615   */\n      dup3\n      and\n      dup1\n        /* \"#utility.yul\":7624:7685   */\n      tag_183\n      jumpi\n        /* \"#utility.yul\":7678:7682   */\n      0x7f\n        /* \"#utility.yul\":7670:7676   */\n      dup3\n        /* \"#utility.yul\":7666:7683   */\n      and\n        /* \"#utility.yul\":7656:7683   */\n      swap2\n      pop\n        /* \"#utility.yul\":7624:7685   */\n    tag_183:\n        /* \"#utility.yul\":7731:7733   */\n      0x20\n        /* \"#utility.yul\":7723:7729   */\n      dup3\n        /* \"#utility.yul\":7720:7734   */\n      lt\n        /* \"#utility.yul\":7700:7718   */\n      dup2\n        /* \"#utility.yul\":7697:7735   */\n      sub\n        /* \"#utility.yul\":7694:7855   */\n      tag_184\n      jumpi\n        /* \"#utility.yul\":7777:7787   */\n      0x4e487b71\n        /* \"#utility.yul\":7772:7775   */\n      0xe0\n        /* \"#utility.yul\":7768:7788   */\n      shl\n        /* \"#utility.yul\":7765:7766   */\n      0x00\n        /* \"#utility.yul\":7758:7789   */\n      mstore\n        /* \"#utility.yul\":7812:7816   */\n      0x22\n        /* \"#utility.yul\":7809:7810   */\n      0x04\n        /* \"#utility.yul\":7802:7817   */\n      mstore\n        /* \"#utility.yul\":7840:7844   */\n      0x24\n        /* \"#utility.yul\":7837:7838   */\n      0x00\n        /* \"#utility.yul\":7830:7845   */\n      revert\n        /* \"#utility.yul\":7694:7855   */\n    tag_184:\n      pop\n        /* \"#utility.yul\":7481:7861   */\n      swap2\n      swap1\n      pop\n      jump\t// out\n        /* \"#utility.yul\":7866:7993   */\n    tag_133:\n        /* \"#utility.yul\":7927:7937   */\n      0x4e487b71\n        /* \"#utility.yul\":7922:7925   */\n      0xe0\n        /* \"#utility.yul\":7918:7938   */\n      shl\n        /* \"#utility.yul\":7915:7916   */\n      0x00\n        /* \"#utility.yul\":7908:7939   */\n      mstore\n        /* \"#utility.yul\":7958:7962   */\n      0x11\n        /* \"#utility.yul\":7955:7956   */\n      0x04\n        /* \"#utility.yul\":7948:7963   */\n      mstore\n        /* \"#utility.yul\":7982:7986   */\n      0x24\n        /* \"#utility.yul\":7979:7980   */\n      0x00\n        /* \"#utility.yul\":7972:7987   */\n      revert\n        /* \"#utility.yul\":7998:8123   */\n    tag_65:\n        /* \"#utility.yul\":8063:8072   */\n      dup1\n      dup3\n      add\n        /* \"#utility.yul\":8084:8094   */\n      dup1\n      dup3\n      gt\n        /* \"#utility.yul\":8081:8117   */\n      iszero\n      tag_188\n      jumpi\n        /* \"#utility.yul\":8097:8115   */\n      tag_188\n      tag_133\n      jump\t// in\n    tag_188:\n        /* \"#utility.yul\":7998:8123   */\n      swap3\n      swap2\n      pop\n      pop\n      jump\t// out\n        /* \"#utility.yul\":8128:8340   */\n    tag_134:\n        /* \"#utility.yul\":8170:8173   */\n      0x00\n        /* \"#utility.yul\":8208:8213   */\n      dup2\n        /* \"#utility.yul\":8202:8214   */\n      mload\n        /* \"#utility.yul\":8252:8258   */\n      dup1\n        /* \"#utility.yul\":8245:8249   */\n      0x20\n        /* \"#utility.yul\":8238:8243   */\n      dup5\n        /* \"#utility.yul\":8234:8250   */\n      add\n        /* \"#utility.yul\":8229:8232   */\n      dup6\n        /* \"#utility.yul\":8223:8259   */\n      mcopy\n        /* \"#utility.yul\":8314:8315   */\n      0x00\n        /* \"#utility.yul\":8278:8294   */\n      swap4\n      add\n        /* \"#utility.yul\":8303:8316   */\n      swap3\n      dup4\n      mstore\n      pop\n        /* \"#utility.yul\":8278:8294   */\n      swap1\n      swap2\n        /* \"#utility.yul\":8128:8340   */\n      swap1\n      pop\n      jump\t// out\n        /* \"#utility.yul\":8345:9171   */\n    tag_68:\n        /* \"#utility.yul\":8740:8743   */\n      0x00\n        /* \"#utility.yul\":8771:8801   */\n      tag_191\n        /* \"#utility.yul\":8797:8800   */\n      dup3\n        /* \"#utility.yul\":8789:8795   */\n      dup13\n        /* \"#utility.yul\":8771:8801   */\n      tag_134\n      jump\t// in\n    tag_191:\n        /* \"#utility.yul\":8824:8830   */\n      dup11\n        /* \"#utility.yul\":8817:8822   */\n      dup2\n        /* \"#utility.yul\":8810:8831   */\n      mstore\n        /* \"#utility.yul\":8853:8894   */\n      tag_192\n        /* \"#utility.yul\":8890:8892   */\n      0x20\n        /* \"#utility.yul\":8883:8888   */\n      dup3\n        /* \"#utility.yul\":8879:8893   */\n      add\n        /* \"#utility.yul\":8871:8877   */\n      dup12\n        /* \"#utility.yul\":8853:8894   */\n      tag_134\n      jump\t// in\n    tag_192:\n        /* \"#utility.yul\":8840:8894   */\n      swap1\n      pop\n        /* \"#utility.yul\":8917:8923   */\n      dup9\n        /* \"#utility.yul\":8910:8915   */\n      dup2\n        /* \"#utility.yul\":8903:8924   */\n      mstore\n        /* \"#utility.yul\":8946:8987   */\n      tag_193\n        /* \"#utility.yul\":8983:8985   */\n      0x20\n        /* \"#utility.yul\":8976:8981   */\n      dup3\n        /* \"#utility.yul\":8972:8986   */\n      add\n        /* \"#utility.yul\":8964:8970   */\n      dup10\n        /* \"#utility.yul\":8946:8987   */\n      tag_134\n      jump\t// in\n    tag_193:\n        /* \"#utility.yul\":8996:9017   */\n      swap7\n      dup8\n      mstore\n      pop\n      pop\n      pop\n        /* \"#utility.yul\":9044:9046   */\n      0x20\n        /* \"#utility.yul\":9033:9047   */\n      dup5\n      add\n        /* \"#utility.yul\":9026:9056   */\n      swap3\n      swap1\n      swap3\n      mstore\n        /* \"#utility.yul\":9083:9085   */\n      0x40\n        /* \"#utility.yul\":9072:9086   */\n      dup4\n      add\n        /* \"#utility.yul\":9065:9095   */\n      mstore\n        /* \"#utility.yul\":9122:9124   */\n      0x60\n        /* \"#utility.yul\":9111:9125   */\n      dup3\n      add\n        /* \"#utility.yul\":9104:9134   */\n      mstore\n        /* \"#utility.yul\":9161:9164   */\n      0x80\n        /* \"#utility.yul\":9150:9165   */\n      add\n      swap6\n        /* \"#utility.yul\":8345:9171   */\n      swap5\n      pop\n      pop\n      pop\n      pop\n      pop\n      jump\t// out\n        /* \"#utility.yul\":9176:10110   */\n    tag_73:\n        /* \"#utility.yul\":9647:9653   */\n      dup12\n        /* \"#utility.yul\":9639:9645   */\n      dup14\n        /* \"#utility.yul\":9634:9637   */\n      dup3\n        /* \"#utility.yul\":9621:9654   */\n      calldatacopy\n        /* \"#utility.yul\":9603:9606   */\n      0x00\n        /* \"#utility.yul\":9682:9688   */\n      dup13\n        /* \"#utility.yul\":9677:9680   */\n      dup3\n        /* \"#utility.yul\":9673:9689   */\n      add\n        /* \"#utility.yul\":9709:9715   */\n      dup13\n        /* \"#utility.yul\":9705:9707   */\n      dup2\n        /* \"#utility.yul\":9698:9716   */\n      mstore\n        /* \"#utility.yul\":9759:9765   */\n      dup11\n        /* \"#utility.yul\":9751:9757   */\n      dup13\n        /* \"#utility.yul\":9746:9748   */\n      0x20\n        /* \"#utility.yul\":9742:9744   */\n      dup4\n        /* \"#utility.yul\":9738:9749   */\n      add\n        /* \"#utility.yul\":9725:9766   */\n      calldatacopy\n        /* \"#utility.yul\":9793:9799   */\n      dup11\n        /* \"#utility.yul\":9789:9791   */\n      dup2\n        /* \"#utility.yul\":9785:9800   */\n      add\n        /* \"#utility.yul\":9775:9800   */\n      swap1\n      pop\n        /* \"#utility.yul\":9829:9835   */\n      dup10\n        /* \"#utility.yul\":9824:9826   */\n      0x20\n        /* \"#utility.yul\":9820:9822   */\n      dup3\n        /* \"#utility.yul\":9816:9827   */\n      add\n        /* \"#utility.yul\":9809:9836   */\n      mstore\n        /* \"#utility.yul\":9879:9885   */\n      dup8\n        /* \"#utility.yul\":9871:9877   */\n      dup10\n        /* \"#utility.yul\":9866:9868   */\n      0x40\n        /* \"#utility.yul\":9862:9864   */\n      dup4\n        /* \"#utility.yul\":9858:9869   */\n      add\n        /* \"#utility.yul\":9845:9886   */\n      calldatacopy\n        /* \"#utility.yul\":9945:9956   */\n      0x40\n        /* \"#utility.yul\":9909:9924   */\n      swap8\n      add\n        /* \"#utility.yul\":9945:9956   */\n      swap7\n      dup8\n      add\n        /* \"#utility.yul\":9938:9965   */\n      swap6\n      swap1\n      swap6\n      mstore\n      pop\n        /* \"#utility.yul\":9981:9992   */\n      0x60\n      dup6\n      add\n        /* \"#utility.yul\":9974:10001   */\n      swap3\n      swap1\n      swap3\n      mstore\n        /* \"#utility.yul\":10017:10028   */\n      0x80\n      dup5\n      add\n        /* \"#utility.yul\":10010:10038   */\n      mstore\n        /* \"#utility.yul\":10054:10066   */\n      0xa0\n      dup4\n      add\n        /* \"#utility.yul\":10047:10076   */\n      mstore\n      pop\n        /* \"#utility.yul\":10092:10104   */\n      0xc0\n      add\n      swap8\n        /* \"#utility.yul\":9176:10110   */\n      swap7\n      pop\n      pop\n      pop\n      pop\n      pop\n      pop\n      pop\n      jump\t// out\n        /* \"#utility.yul\":10241:10759   */\n    tag_136:\n        /* \"#utility.yul\":10343:10345   */\n      0x1f\n        /* \"#utility.yul\":10338:10341   */\n      dup3\n        /* \"#utility.yul\":10335:10346   */\n      gt\n        /* \"#utility.yul\":10332:10753   */\n      iszero\n      tag_197\n      jumpi\n        /* \"#utility.yul\":10379:10384   */\n      dup1\n        /* \"#utility.yul\":10376:10377   */\n      0x00\n        /* \"#utility.yul\":10369:10385   */\n      mstore\n        /* \"#utility.yul\":10423:10427   */\n      0x20\n        /* \"#utility.yul\":10420:10421   */\n      0x00\n        /* \"#utility.yul\":10410:10428   */\n      keccak256\n        /* \"#utility.yul\":10493:10495   */\n      0x1f\n        /* \"#utility.yul\":10481:10491   */\n      dup5\n        /* \"#utility.yul\":10477:10496   */\n      add\n        /* \"#utility.yul\":10474:10475   */\n      0x05\n        /* \"#utility.yul\":10470:10497   */\n      shr\n        /* \"#utility.yul\":10464:10468   */\n      dup2\n        /* \"#utility.yul\":10460:10498   */\n      add\n        /* \"#utility.yul\":10529:10533   */\n      0x20\n        /* \"#utility.yul\":10517:10527   */\n      dup6\n        /* \"#utility.yul\":10514:10534   */\n      lt\n        /* \"#utility.yul\":10511:10558   */\n      iszero\n      tag_198\n      jumpi\n      pop\n        /* \"#utility.yul\":10552:10556   */\n      dup1\n        /* \"#utility.yul\":10511:10558   */\n    tag_198:\n        /* \"#utility.yul\":10607:10609   */\n      0x1f\n        /* \"#utility.yul\":10602:10605   */\n      dup5\n        /* \"#utility.yul\":10598:10610   */\n      add\n        /* \"#utility.yul\":10595:10596   */\n      0x05\n        /* \"#utility.yul\":10591:10611   */\n      shr\n        /* \"#utility.yul\":10585:10589   */\n      dup3\n        /* \"#utility.yul\":10581:10612   */\n      add\n        /* \"#utility.yul\":10571:10612   */\n      swap2\n      pop\n        /* \"#utility.yul\":10662:10743   */\n    tag_199:\n        /* \"#utility.yul\":10680:10682   */\n      dup2\n        /* \"#utility.yul\":10673:10678   */\n      dup2\n        /* \"#utility.yul\":10670:10683   */\n      lt\n        /* \"#utility.yul\":10662:10743   */\n      iszero\n      tag_201\n      jumpi\n        /* \"#utility.yul\":10739:10740   */\n      0x00\n        /* \"#utility.yul\":10725:10741   */\n      dup2\n      sstore\n        /* \"#utility.yul\":10706:10707   */\n      0x01\n        /* \"#utility.yul\":10695:10708   */\n      add\n        /* \"#utility.yul\":10662:10743   */\n      jump(tag_199)\n    tag_201:\n        /* \"#utility.yul\":10666:10669   */\n      pop\n      pop\n        /* \"#utility.yul\":10332:10753   */\n    tag_197:\n        /* \"#utility.yul\":10241:10759   */\n      pop\n      pop\n      pop\n      jump\t// out\n        /* \"#utility.yul\":10935:12234   */\n    tag_76:\n        /* \"#utility.yul\":11061:11064   */\n      dup2\n        /* \"#utility.yul\":11055:11065   */\n      mload\n        /* \"#utility.yul\":11088:11106   */\n      0xffffffffffffffff\n        /* \"#utility.yul\":11080:11086   */\n      dup2\n        /* \"#utility.yul\":11077:11107   */\n      gt\n        /* \"#utility.yul\":11074:11130   */\n      iszero\n      tag_205\n      jumpi\n        /* \"#utility.yul\":11110:11128   */\n      tag_205\n      tag_130\n      jump\t// in\n    tag_205:\n        /* \"#utility.yul\":11139:11236   */\n      tag_206\n        /* \"#utility.yul\":11229:11235   */\n      dup2\n        /* \"#utility.yul\":11189:11227   */\n      tag_207\n        /* \"#utility.yul\":11221:11225   */\n      dup5\n        /* \"#utility.yul\":11215:11226   */\n      sload\n        /* \"#utility.yul\":11189:11227   */\n      tag_48\n      jump\t// in\n    tag_207:\n        /* \"#utility.yul\":11183:11187   */\n      dup5\n        /* \"#utility.yul\":11139:11236   */\n      tag_136\n      jump\t// in\n    tag_206:\n        /* \"#utility.yul\":11285:11289   */\n      0x20\n        /* \"#utility.yul\":11316:11318   */\n      0x1f\n        /* \"#utility.yul\":11305:11319   */\n      dup3\n      gt\n        /* \"#utility.yul\":11333:11334   */\n      0x01\n        /* \"#utility.yul\":11328:11977   */\n      dup2\n      eq\n      tag_209\n      jumpi\n        /* \"#utility.yul\":12021:12022   */\n      0x00\n        /* \"#utility.yul\":12038:12044   */\n      dup4\n        /* \"#utility.yul\":12035:12124   */\n      iszero\n      tag_210\n      jumpi\n      pop\n        /* \"#utility.yul\":12090:12109   */\n      dup5\n      dup3\n      add\n        /* \"#utility.yul\":12084:12110   */\n      mload\n        /* \"#utility.yul\":12035:12124   */\n    tag_210:\n      not(0x00)\n        /* \"#utility.yul\":10892:10893   */\n      0x03\n        /* \"#utility.yul\":10888:10899   */\n      dup6\n      swap1\n      shl\n        /* \"#utility.yul\":10884:10908   */\n      shr\n        /* \"#utility.yul\":10880:10909   */\n      not\n        /* \"#utility.yul\":10870:10910   */\n      and\n        /* \"#utility.yul\":10916:10917   */\n      0x01\n        /* \"#utility.yul\":10912:10923   */\n      dup5\n      swap1\n      shl\n        /* \"#utility.yul\":10867:10924   */\n      or\n        /* \"#utility.yul\":12137:12218   */\n      dup5\n      sstore\n        /* \"#utility.yul\":11298:12228   */\n      jump(tag_201)\n        /* \"#utility.yul\":11328:11977   */\n    tag_209:\n        /* \"#utility.yul\":10188:10189   */\n      0x00\n        /* \"#utility.yul\":10181:10195   */\n      dup5\n      dup2\n      mstore\n        /* \"#utility.yul\":10225:10229   */\n      0x20\n        /* \"#utility.yul\":10212:10230   */\n      dup2\n      keccak256\n      not(0x1f)\n        /* \"#utility.yul\":11364:11384   */\n      dup6\n      and\n      swap2\n        /* \"#utility.yul\":11482:11704   */\n    tag_213:\n        /* \"#utility.yul\":11496:11503   */\n      dup3\n        /* \"#utility.yul\":11493:11494   */\n      dup2\n        /* \"#utility.yul\":11490:11504   */\n      lt\n        /* \"#utility.yul\":11482:11704   */\n      iszero\n      tag_215\n      jumpi\n        /* \"#utility.yul\":11578:11597   */\n      dup8\n      dup6\n      add\n        /* \"#utility.yul\":11572:11598   */\n      mload\n        /* \"#utility.yul\":11557:11599   */\n      dup3\n      sstore\n        /* \"#utility.yul\":11685:11689   */\n      0x20\n        /* \"#utility.yul\":11670:11690   */\n      swap5\n      dup6\n      add\n      swap5\n        /* \"#utility.yul\":11638:11639   */\n      0x01\n        /* \"#utility.yul\":11626:11640   */\n      swap1\n      swap3\n      add\n      swap2\n        /* \"#utility.yul\":11512:11524   */\n      add\n        /* \"#utility.yul\":11482:11704   */\n      jump(tag_213)\n    tag_215:\n        /* \"#utility.yul\":11486:11489   */\n      pop\n        /* \"#utility.yul\":11732:11738   */\n      dup5\n        /* \"#utility.yul\":11723:11730   */\n      dup3\n        /* \"#utility.yul\":11720:11739   */\n      lt\n        /* \"#utility.yul\":11717:11918   */\n      iszero\n      tag_216\n      jumpi\n        /* \"#utility.yul\":11793:11812   */\n      dup7\n      dup5\n      add\n        /* \"#utility.yul\":11787:11813   */\n      mload\n      not(0x00)\n        /* \"#utility.yul\":11876:11877   */\n      0x03\n        /* \"#utility.yul\":11872:11886   */\n      dup8\n      swap1\n      shl\n        /* \"#utility.yul\":11888:11891   */\n      0xf8\n        /* \"#utility.yul\":11868:11892   */\n      and\n        /* \"#utility.yul\":11864:11901   */\n      shr\n        /* \"#utility.yul\":11860:11902   */\n      not\n        /* \"#utility.yul\":11845:11903   */\n      and\n        /* \"#utility.yul\":11830:11904   */\n      dup2\n      sstore\n        /* \"#utility.yul\":11717:11918   */\n    tag_216:\n      pop\n      pop\n      pop\n      pop\n        /* \"#utility.yul\":11964:11965   */\n      0x01\n        /* \"#utility.yul\":11948:11962   */\n      swap1\n      dup2\n      shl\n        /* \"#utility.yul\":11944:11966   */\n      add\n        /* \"#utility.yul\":11931:11967   */\n      swap1\n      sstore\n      pop\n        /* \"#utility.yul\":10935:12234   */\n      jump\t// out\n        /* \"#utility.yul\":12239:12367   */\n    tag_80:\n        /* \"#utility.yul\":12306:12315   */\n      dup2\n      dup2\n      sub\n        /* \"#utility.yul\":12327:12338   */\n      dup2\n      dup2\n      gt\n        /* \"#utility.yul\":12324:12361   */\n      iszero\n      tag_188\n      jumpi\n        /* \"#utility.yul\":12341:12359   */\n      tag_188\n      tag_133\n      jump\t// in\n        /* \"#utility.yul\":12372:13078   */\n    tag_82:\n        /* \"#utility.yul\":12643:12649   */\n      dup7\n        /* \"#utility.yul\":12632:12641   */\n      dup2\n        /* \"#utility.yul\":12625:12650   */\n      mstore\n        /* \"#utility.yul\":12686:12689   */\n      0xa0\n        /* \"#utility.yul\":12681:12683   */\n      0x20\n        /* \"#utility.yul\":12670:12679   */\n      dup3\n        /* \"#utility.yul\":12666:12684   */\n      add\n        /* \"#utility.yul\":12659:12690   */\n      mstore\n        /* \"#utility.yul\":12727:12733   */\n      dup5\n        /* \"#utility.yul\":12721:12724   */\n      0xa0\n        /* \"#utility.yul\":12710:12719   */\n      dup3\n        /* \"#utility.yul\":12706:12725   */\n      add\n        /* \"#utility.yul\":12699:12734   */\n      mstore\n        /* \"#utility.yul\":12785:12791   */\n      dup5\n        /* \"#utility.yul\":12777:12783   */\n      dup7\n        /* \"#utility.yul\":12771:12774   */\n      0xc0\n        /* \"#utility.yul\":12760:12769   */\n      dup4\n        /* \"#utility.yul\":12756:12775   */\n      add\n        /* \"#utility.yul\":12743:12792   */\n      calldatacopy\n        /* \"#utility.yul\":12842:12843   */\n      0x00\n        /* \"#utility.yul\":12836:12839   */\n      0xc0\n        /* \"#utility.yul\":12812:12834   */\n      dup7\n      dup4\n      add\n        /* \"#utility.yul\":12808:12840   */\n      dup2\n      add\n        /* \"#utility.yul\":12801:12844   */\n      swap2\n      swap1\n      swap2\n      mstore\n        /* \"#utility.yul\":12947:12949   */\n      0x40\n        /* \"#utility.yul\":12932:12950   */\n      dup3\n      add\n        /* \"#utility.yul\":12925:12959   */\n      swap5\n      swap1\n      swap5\n      mstore\n        /* \"#utility.yul\":12990:12992   */\n      0x60\n        /* \"#utility.yul\":12975:12993   */\n      dup2\n      add\n        /* \"#utility.yul\":12968:13002   */\n      swap3\n      swap1\n      swap3\n      mstore\n      sub(shl(0xa0, 0x01), 0x01)\n        /* \"#utility.yul\":13039:13071   */\n      and\n      0x80\n        /* \"#utility.yul\":13018:13037   */\n      dup3\n      add\n        /* \"#utility.yul\":13011:13072   */\n      mstore\n        /* \"#utility.yul\":12905:12907   */\n      0x1f\n        /* \"#utility.yul\":12884:12899   */\n      swap1\n      swap3\n      add\n      not(0x1f)\n        /* \"#utility.yul\":12880:12909   */\n      and\n        /* \"#utility.yul\":12865:12910   */\n      swap1\n      swap2\n      add\n        /* \"#utility.yul\":12861:12916   */\n      add\n      swap3\n      swap2\n      pop\n      pop\n        /* \"#utility.yul\":12372:13078   */\n      jump\t// out\n        /* \"#utility.yul\":13433:13560   */\n    tag_89:\n        /* \"#utility.yul\":13494:13504   */\n      0x4e487b71\n        /* \"#utility.yul\":13489:13492   */\n      0xe0\n        /* \"#utility.yul\":13485:13505   */\n      shl\n        /* \"#utility.yul\":13482:13483   */\n      0x00\n        /* \"#utility.yul\":13475:13506   */\n      mstore\n        /* \"#utility.yul\":13525:13529   */\n      0x32\n        /* \"#utility.yul\":13522:13523   */\n      0x04\n        /* \"#utility.yul\":13515:13530   */\n      mstore\n        /* \"#utility.yul\":13549:13553   */\n      0x24\n        /* \"#utility.yul\":13546:13547   */\n      0x00\n        /* \"#utility.yul\":13539:13554   */\n      revert\n\n    auxdata: 0xa26469706673582212204c7e67682e8ab07d40e758f365d13d2bb13ae385900637986e5143530f1116c764736f6c634300081e0033\n}\n",
				"bytecode": {
					"linkReferences": {},
					"object": "6080604052348015600e575f5ffd5b506112ea8061001c5f395ff3fe608060405234801561000f575f5ffd5b506004361061007a575f3560e01c8063ac7bad2211610058578063ac7bad22146100e7578063c26cf56914610106578063d7e6a9e914610119578063ec6f7e4814610142575f5ffd5b806308d6030d1461007e57806331fb2051146100b15780635fcf849e146100d2575b5f5ffd5b61009161008c366004610c67565b610149565b6040516100a89b9a99989796959493929190610cac565b60405180910390f35b6100c46100bf366004610dd3565b61034b565b6040519081526020016100a8565b6100e56100e0366004610ed3565b6103aa565b005b6100c46100f5366004610c67565b60016020525f908152604090205481565b610091610114366004610c67565b610646565b61012c610127366004610c67565b610953565b6040516100a89a99989796959493929190610f95565b5f546100c4565b5f8181548110610157575f80fd5b905f5260205f2090600b02015f91509050805f01805461017690611014565b80601f01602080910402602001604051908101604052809291908181526020018280546101a290611014565b80156101ed5780601f106101c4576101008083540402835291602001916101ed565b820191905f5260205f20905b8154815290600101906020018083116101d057829003601f168201915b50505050509080600101549080600201805461020890611014565b80601f016020809104026020016040519081016040528092919081815260200182805461023490611014565b801561027f5780601f106102565761010080835404028352916020019161027f565b820191905f5260205f20905b81548152906001019060200180831161026257829003601f168201915b50505050509080600301549080600401805461029a90611014565b80601f01602080910402602001604051908101604052809291908181526020018280546102c690611014565b80156103115780601f106102e857610100808354040283529160200191610311565b820191905f5260205f20905b8154815290600101906020018083116102f457829003601f168201915b50505060058401546006850154600786015460088701546009880154600a909801549697939692955090935091906001600160a01b03168b565b5f80836103588689611060565b6103629190611060565b905089898989898989878a60405160200161038599989796959493929190611090565b6040516020818303038152906040528051906020012091505098975050505050505050565b425f826103b78589611060565b6103c19190611060565b90505f8c8c8c8c8c8c8c8c8c8c8b8d6040516020016103eb9c9b9a999897969594939291906110e1565b6040516020818303038152906040528051906020012090505f6040518061016001604052808f8f8080601f0160208091040260200160405190810160405280939291908181526020018383808284375f9201919091525050509082525060208082018f905260408051601f8f0183900483028101830182528e8152920191908e908e90819084018382808284375f9201919091525050509082525060208082018c905260408051601f8c0183900483028101830182528b8152920191908b908b90819084018382808284375f9201829052509385525050506020820189905260408201889052606082018690526080820187905260a082018590523360c090920191909152805460018101825590805281519192508291600b9091027f290decd9548b62a8d60345a988386fc84ba6bc95484008f6362f93160ef3e56301908190610536908261117e565b506020820151600182015560408201516002820190610555908261117e565b506060820151600382015560808201516004820190610574908261117e565b5060a0820151600582015560c0820151600682015560e082015160078201556101008201516008820155610120820151600982015561014090910151600a90910180546001600160a01b0319166001600160a01b039092169190911790555f546105e090600190611239565b60015f8481526020019081526020015f20819055507f11eea6945719d8c4f321e340cf6872743baf02e188d211cfd348d36233fb36ab828f8f8f883360405161062e9695949392919061124c565b60405180910390a15050505050505050505050505050565b60605f60605f60605f5f5f5f5f5f5f805490508c106106a45760405162461bcd60e51b8152602060048201526015602482015274496e646963652066756572612064652072616e676f60581b60448201526064015b60405180910390fd5b5f5f8d815481106106b7576106b76112a0565b905f5260205f2090600b0201604051806101600160405290815f820180546106de90611014565b80601f016020809104026020016040519081016040528092919081815260200182805461070a90611014565b80156107555780601f1061072c57610100808354040283529160200191610755565b820191905f5260205f20905b81548152906001019060200180831161073857829003601f168201915b505050505081526020016001820154815260200160028201805461077890611014565b80601f01602080910402602001604051908101604052809291908181526020018280546107a490611014565b80156107ef5780601f106107c6576101008083540402835291602001916107ef565b820191905f5260205f20905b8154815290600101906020018083116107d257829003601f168201915b505050505081526020016003820154815260200160048201805461081290611014565b80601f016020809104026020016040519081016040528092919081815260200182805461083e90611014565b80156108895780601f1061086057610100808354040283529160200191610889565b820191905f5260205f20905b81548152906001019060200180831161086c57829003601f168201915b505050505081526020016005820154815260200160068201548152602001600782015481526020016008820154815260200160098201548152602001600a82015f9054906101000a90046001600160a01b03166001600160a01b03166001600160a01b0316815250509050805f015181602001518260400151836060015184608001518560a001518660c001518760e001518861010001518961012001518a61014001519b509b509b509b509b509b509b509b509b509b509b505091939597999b90929496989a50565b60605f60605f60605f5f5f5f5f5f60015f8d81526020019081526020015f205490505f8054905081106109c15760405162461bcd60e51b8152602060048201526016602482015275506c616e696c6c61206e6f20656e636f6e747261646160501b604482015260640161069b565b5f5f82815481106109d4576109d46112a0565b905f5260205f2090600b0201604051806101600160405290815f820180546109fb90611014565b80601f0160208091040260200160405190810160405280929190818152602001828054610a2790611014565b8015610a725780601f10610a4957610100808354040283529160200191610a72565b820191905f5260205f20905b815481529060010190602001808311610a5557829003601f168201915b5050505050815260200160018201548152602001600282018054610a9590611014565b80601f0160208091040260200160405190810160405280929190818152602001828054610ac190611014565b8015610b0c5780601f10610ae357610100808354040283529160200191610b0c565b820191905f5260205f20905b815481529060010190602001808311610aef57829003601f168201915b5050505050815260200160038201548152602001600482018054610b2f90611014565b80601f0160208091040260200160405190810160405280929190818152602001828054610b5b90611014565b8015610ba65780601f10610b7d57610100808354040283529160200191610ba6565b820191905f5260205f20905b815481529060010190602001808311610b8957829003601f168201915b505050505081526020016005820154815260200160068201548152602001600782015481526020016008820154815260200160098201548152602001600a82015f9054906101000a90046001600160a01b03166001600160a01b03166001600160a01b0316815250509050805f015181602001518260400151836060015184608001518560a001518660c001518760e001518861010001518961014001519b509b509b509b509b509b509b509b509b509b5050509193959799509193959799565b5f60208284031215610c77575f5ffd5b5035919050565b5f81518084528060208401602086015e5f602082860101526020601f19601f83011685010191505092915050565b61016081525f610cc061016083018e610c7e565b8c60208401528281036040840152610cd8818d610c7e565b90508a60608401528281036080840152610cf2818b610c7e565b60a0840199909952505060c081019590955260e08501939093526101008401919091526101208301526001600160a01b03166101409091015295945050505050565b634e487b7160e01b5f52604160045260245ffd5b5f82601f830112610d57575f5ffd5b813567ffffffffffffffff811115610d7157610d71610d34565b604051601f8201601f19908116603f0116810167ffffffffffffffff81118282101715610da057610da0610d34565b604052818152838201602001851015610db7575f5ffd5b816020850160208301375f918101602001919091529392505050565b5f5f5f5f5f5f5f5f610100898b031215610deb575f5ffd5b883567ffffffffffffffff811115610e01575f5ffd5b610e0d8b828c01610d48565b98505060208901359650604089013567ffffffffffffffff811115610e30575f5ffd5b610e3c8b828c01610d48565b96505060608901359450608089013567ffffffffffffffff811115610e5f575f5ffd5b610e6b8b828c01610d48565b989b979a50959894979660a0860135965060c08601359560e00135945092505050565b5f5f83601f840112610e9e575f5ffd5b50813567ffffffffffffffff811115610eb5575f5ffd5b602083019150836020828501011115610ecc575f5ffd5b9250929050565b5f5f5f5f5f5f5f5f5f5f60e08b8d031215610eec575f5ffd5b8a3567ffffffffffffffff811115610f02575f5ffd5b610f0e8d828e01610e8e565b909b5099505060208b0135975060408b013567ffffffffffffffff811115610f34575f5ffd5b610f408d828e01610e8e565b90985096505060608b0135945060808b013567ffffffffffffffff811115610f66575f5ffd5b610f728d828e01610e8e565b9b9e9a9d50989b979a969995989760a08101359660c09091013595509350505050565b61014081525f610fa961014083018d610c7e565b8b60208401528281036040840152610fc1818c610c7e565b90508960608401528281036080840152610fdb818a610c7e565b60a0840198909852505060c081019490945260e08401929092526101008301526001600160a01b03166101209091015295945050505050565b600181811c9082168061102857607f821691505b60208210810361104657634e487b7160e01b5f52602260045260245ffd5b50919050565b634e487b7160e01b5f52601160045260245ffd5b808201808211156110735761107361104c565b92915050565b5f81518060208401855e5f93019283525090919050565b5f61109b828c611079565b8a81526110ab602082018b611079565b90508881526110bd6020820189611079565b96875250505060208401929092526040830152606082015260800195945050505050565b8b8d82375f8c82018c81528a8c60208301378a81019050896020820152878960408301376040970196870195909552506060850192909252608084015260a08301525060c001979650505050505050565b601f82111561117957805f5260205f20601f840160051c810160208510156111575750805b601f840160051c820191505b81811015611176575f8155600101611163565b50505b505050565b815167ffffffffffffffff81111561119857611198610d34565b6111ac816111a68454611014565b84611132565b6020601f8211600181146111de575f83156111c75750848201515b5f19600385901b1c1916600184901b178455611176565b5f84815260208120601f198516915b8281101561120d57878501518255602094850194600190920191016111ed565b508482101561122a57868401515f19600387901b60f8161c191681555b50505050600190811b01905550565b818103818111156110735761107361104c565b86815260a060208201528460a0820152848660c08301375f60c0868301810191909152604082019490945260608101929092526001600160a01b03166080820152601f909201601f19169091010192915050565b634e487b7160e01b5f52603260045260245ffdfea26469706673582212204c7e67682e8ab07d40e758f365d13d2bb13ae385900637986e5143530f1116c764736f6c634300081e0033",
					"opcodes": "PUSH1 0x80 PUSH1 0x40 MSTORE CALLVALUE DUP1 ISZERO PUSH1 0xE JUMPI PUSH0 PUSH0 REVERT JUMPDEST POP PUSH2 0x12EA DUP1 PUSH2 0x1C PUSH0 CODECOPY PUSH0 RETURN INVALID PUSH1 0x80 PUSH1 0x40 MSTORE CALLVALUE DUP1 ISZERO PUSH2 0xF JUMPI PUSH0 PUSH0 REVERT JUMPDEST POP PUSH1 0x4 CALLDATASIZE LT PUSH2 0x7A JUMPI PUSH0 CALLDATALOAD PUSH1 0xE0 SHR DUP1 PUSH4 0xAC7BAD22 GT PUSH2 0x58 JUMPI DUP1 PUSH4 0xAC7BAD22 EQ PUSH2 0xE7 JUMPI DUP1 PUSH4 0xC26CF569 EQ PUSH2 0x106 JUMPI DUP1 PUSH4 0xD7E6A9E9 EQ PUSH2 0x119 JUMPI DUP1 PUSH4 0xEC6F7E48 EQ PUSH2 0x142 JUMPI PUSH0 PUSH0 REVERT JUMPDEST DUP1 PUSH4 0x8D6030D EQ PUSH2 0x7E JUMPI DUP1 PUSH4 0x31FB2051 EQ PUSH2 0xB1 JUMPI DUP1 PUSH4 0x5FCF849E EQ PUSH2 0xD2 JUMPI JUMPDEST PUSH0 PUSH0 REVERT JUMPDEST PUSH2 0x91 PUSH2 0x8C CALLDATASIZE PUSH1 0x4 PUSH2 0xC67 JUMP JUMPDEST PUSH2 0x149 JUMP JUMPDEST PUSH1 0x40 MLOAD PUSH2 0xA8 SWAP12 SWAP11 SWAP10 SWAP9 SWAP8 SWAP7 SWAP6 SWAP5 SWAP4 SWAP3 SWAP2 SWAP1 PUSH2 0xCAC JUMP JUMPDEST PUSH1 0x40 MLOAD DUP1 SWAP2 SUB SWAP1 RETURN JUMPDEST PUSH2 0xC4 PUSH2 0xBF CALLDATASIZE PUSH1 0x4 PUSH2 0xDD3 JUMP JUMPDEST PUSH2 0x34B JUMP JUMPDEST PUSH1 0x40 MLOAD SWAP1 DUP2 MSTORE PUSH1 0x20 ADD PUSH2 0xA8 JUMP JUMPDEST PUSH2 0xE5 PUSH2 0xE0 CALLDATASIZE PUSH1 0x4 PUSH2 0xED3 JUMP JUMPDEST PUSH2 0x3AA JUMP JUMPDEST STOP JUMPDEST PUSH2 0xC4 PUSH2 0xF5 CALLDATASIZE PUSH1 0x4 PUSH2 0xC67 JUMP JUMPDEST PUSH1 0x1 PUSH1 0x20 MSTORE PUSH0 SWAP1 DUP2 MSTORE PUSH1 0x40 SWAP1 KECCAK256 SLOAD DUP2 JUMP JUMPDEST PUSH2 0x91 PUSH2 0x114 CALLDATASIZE PUSH1 0x4 PUSH2 0xC67 JUMP JUMPDEST PUSH2 0x646 JUMP JUMPDEST PUSH2 0x12C PUSH2 0x127 CALLDATASIZE PUSH1 0x4 PUSH2 0xC67 JUMP JUMPDEST PUSH2 0x953 JUMP JUMPDEST PUSH1 0x40 MLOAD PUSH2 0xA8 SWAP11 SWAP10 SWAP9 SWAP8 SWAP7 SWAP6 SWAP5 SWAP4 SWAP3 SWAP2 SWAP1 PUSH2 0xF95 JUMP JUMPDEST PUSH0 SLOAD PUSH2 0xC4 JUMP JUMPDEST PUSH0 DUP2 DUP2 SLOAD DUP2 LT PUSH2 0x157 JUMPI PUSH0 DUP1 REVERT JUMPDEST SWAP1 PUSH0 MSTORE PUSH1 0x20 PUSH0 KECCAK256 SWAP1 PUSH1 0xB MUL ADD PUSH0 SWAP2 POP SWAP1 POP DUP1 PUSH0 ADD DUP1 SLOAD PUSH2 0x176 SWAP1 PUSH2 0x1014 JUMP JUMPDEST DUP1 PUSH1 0x1F ADD PUSH1 0x20 DUP1 SWAP2 DIV MUL PUSH1 0x20 ADD PUSH1 0x40 MLOAD SWAP1 DUP2 ADD PUSH1 0x40 MSTORE DUP1 SWAP3 SWAP2 SWAP1 DUP2 DUP2 MSTORE PUSH1 0x20 ADD DUP3 DUP1 SLOAD PUSH2 0x1A2 SWAP1 PUSH2 0x1014 JUMP JUMPDEST DUP1 ISZERO PUSH2 0x1ED JUMPI DUP1 PUSH1 0x1F LT PUSH2 0x1C4 JUMPI PUSH2 0x100 DUP1 DUP4 SLOAD DIV MUL DUP4 MSTORE SWAP2 PUSH1 0x20 ADD SWAP2 PUSH2 0x1ED JUMP JUMPDEST DUP3 ADD SWAP2 SWAP1 PUSH0 MSTORE PUSH1 0x20 PUSH0 KECCAK256 SWAP1 JUMPDEST DUP2 SLOAD DUP2 MSTORE SWAP1 PUSH1 0x1 ADD SWAP1 PUSH1 0x20 ADD DUP1 DUP4 GT PUSH2 0x1D0 JUMPI DUP3 SWAP1 SUB PUSH1 0x1F AND DUP3 ADD SWAP2 JUMPDEST POP POP POP POP POP SWAP1 DUP1 PUSH1 0x1 ADD SLOAD SWAP1 DUP1 PUSH1 0x2 ADD DUP1 SLOAD PUSH2 0x208 SWAP1 PUSH2 0x1014 JUMP JUMPDEST DUP1 PUSH1 0x1F ADD PUSH1 0x20 DUP1 SWAP2 DIV MUL PUSH1 0x20 ADD PUSH1 0x40 MLOAD SWAP1 DUP2 ADD PUSH1 0x40 MSTORE DUP1 SWAP3 SWAP2 SWAP1 DUP2 DUP2 MSTORE PUSH1 0x20 ADD DUP3 DUP1 SLOAD PUSH2 0x234 SWAP1 PUSH2 0x1014 JUMP JUMPDEST DUP1 ISZERO PUSH2 0x27F JUMPI DUP1 PUSH1 0x1F LT PUSH2 0x256 JUMPI PUSH2 0x100 DUP1 DUP4 SLOAD DIV MUL DUP4 MSTORE SWAP2 PUSH1 0x20 ADD SWAP2 PUSH2 0x27F JUMP JUMPDEST DUP3 ADD SWAP2 SWAP1 PUSH0 MSTORE PUSH1 0x20 PUSH0 KECCAK256 SWAP1 JUMPDEST DUP2 SLOAD DUP2 MSTORE SWAP1 PUSH1 0x1 ADD SWAP1 PUSH1 0x20 ADD DUP1 DUP4 GT PUSH2 0x262 JUMPI DUP3 SWAP1 SUB PUSH1 0x1F AND DUP3 ADD SWAP2 JUMPDEST POP POP POP POP POP SWAP1 DUP1 PUSH1 0x3 ADD SLOAD SWAP1 DUP1 PUSH1 0x4 ADD DUP1 SLOAD PUSH2 0x29A SWAP1 PUSH2 0x1014 JUMP JUMPDEST DUP1 PUSH1 0x1F ADD PUSH1 0x20 DUP1 SWAP2 DIV MUL PUSH1 0x20 ADD PUSH1 0x40 MLOAD SWAP1 DUP2 ADD PUSH1 0x40 MSTORE DUP1 SWAP3 SWAP2 SWAP1 DUP2 DUP2 MSTORE PUSH1 0x20 ADD DUP3 DUP1 SLOAD PUSH2 0x2C6 SWAP1 PUSH2 0x1014 JUMP JUMPDEST DUP1 ISZERO PUSH2 0x311 JUMPI DUP1 PUSH1 0x1F LT PUSH2 0x2E8 JUMPI PUSH2 0x100 DUP1 DUP4 SLOAD DIV MUL DUP4 MSTORE SWAP2 PUSH1 0x20 ADD SWAP2 PUSH2 0x311 JUMP JUMPDEST DUP3 ADD SWAP2 SWAP1 PUSH0 MSTORE PUSH1 0x20 PUSH0 KECCAK256 SWAP1 JUMPDEST DUP2 SLOAD DUP2 MSTORE SWAP1 PUSH1 0x1 ADD SWAP1 PUSH1 0x20 ADD DUP1 DUP4 GT PUSH2 0x2F4 JUMPI DUP3 SWAP1 SUB PUSH1 0x1F AND DUP3 ADD SWAP2 JUMPDEST POP POP POP PUSH1 0x5 DUP5 ADD SLOAD PUSH1 0x6 DUP6 ADD SLOAD PUSH1 0x7 DUP7 ADD SLOAD PUSH1 0x8 DUP8 ADD SLOAD PUSH1 0x9 DUP9 ADD SLOAD PUSH1 0xA SWAP1 SWAP9 ADD SLOAD SWAP7 SWAP8 SWAP4 SWAP7 SWAP3 SWAP6 POP SWAP1 SWAP4 POP SWAP2 SWAP1 PUSH1 0x1 PUSH1 0x1 PUSH1 0xA0 SHL SUB AND DUP12 JUMP JUMPDEST PUSH0 DUP1 DUP4 PUSH2 0x358 DUP7 DUP10 PUSH2 0x1060 JUMP JUMPDEST PUSH2 0x362 SWAP2 SWAP1 PUSH2 0x1060 JUMP JUMPDEST SWAP1 POP DUP10 DUP10 DUP10 DUP10 DUP10 DUP10 DUP10 DUP8 DUP11 PUSH1 0x40 MLOAD PUSH1 0x20 ADD PUSH2 0x385 SWAP10 SWAP9 SWAP8 SWAP7 SWAP6 SWAP5 SWAP4 SWAP3 SWAP2 SWAP1 PUSH2 0x1090 JUMP JUMPDEST PUSH1 0x40 MLOAD PUSH1 0x20 DUP2 DUP4 SUB SUB DUP2 MSTORE SWAP1 PUSH1 0x40 MSTORE DUP1 MLOAD SWAP1 PUSH1 0x20 ADD KECCAK256 SWAP2 POP POP SWAP9 SWAP8 POP POP POP POP POP POP POP POP JUMP JUMPDEST TIMESTAMP PUSH0 DUP3 PUSH2 0x3B7 DUP6 DUP10 PUSH2 0x1060 JUMP JUMPDEST PUSH2 0x3C1 SWAP2 SWAP1 PUSH2 0x1060 JUMP JUMPDEST SWAP1 POP PUSH0 DUP13 DUP13 DUP13 DUP13 DUP13 DUP13 DUP13 DUP13 DUP13 DUP13 DUP12 DUP14 PUSH1 0x40 MLOAD PUSH1 0x20 ADD PUSH2 0x3EB SWAP13 SWAP12 SWAP11 SWAP10 SWAP9 SWAP8 SWAP7 SWAP6 SWAP5 SWAP4 SWAP3 SWAP2 SWAP1 PUSH2 0x10E1 JUMP JUMPDEST PUSH1 0x40 MLOAD PUSH1 0x20 DUP2 DUP4 SUB SUB DUP2 MSTORE SWAP1 PUSH1 0x40 MSTORE DUP1 MLOAD SWAP1 PUSH1 0x20 ADD KECCAK256 SWAP1 POP PUSH0 PUSH1 0x40 MLOAD DUP1 PUSH2 0x160 ADD PUSH1 0x40 MSTORE DUP1 DUP16 DUP16 DUP1 DUP1 PUSH1 0x1F ADD PUSH1 0x20 DUP1 SWAP2 DIV MUL PUSH1 0x20 ADD PUSH1 0x40 MLOAD SWAP1 DUP2 ADD PUSH1 0x40 MSTORE DUP1 SWAP4 SWAP3 SWAP2 SWAP1 DUP2 DUP2 MSTORE PUSH1 0x20 ADD DUP4 DUP4 DUP1 DUP3 DUP5 CALLDATACOPY PUSH0 SWAP3 ADD SWAP2 SWAP1 SWAP2 MSTORE POP POP POP SWAP1 DUP3 MSTORE POP PUSH1 0x20 DUP1 DUP3 ADD DUP16 SWAP1 MSTORE PUSH1 0x40 DUP1 MLOAD PUSH1 0x1F DUP16 ADD DUP4 SWAP1 DIV DUP4 MUL DUP2 ADD DUP4 ADD DUP3 MSTORE DUP15 DUP2 MSTORE SWAP3 ADD SWAP2 SWAP1 DUP15 SWAP1 DUP15 SWAP1 DUP2 SWAP1 DUP5 ADD DUP4 DUP3 DUP1 DUP3 DUP5 CALLDATACOPY PUSH0 SWAP3 ADD SWAP2 SWAP1 SWAP2 MSTORE POP POP POP SWAP1 DUP3 MSTORE POP PUSH1 0x20 DUP1 DUP3 ADD DUP13 SWAP1 MSTORE PUSH1 0x40 DUP1 MLOAD PUSH1 0x1F DUP13 ADD DUP4 SWAP1 DIV DUP4 MUL DUP2 ADD DUP4 ADD DUP3 MSTORE DUP12 DUP2 MSTORE SWAP3 ADD SWAP2 SWAP1 DUP12 SWAP1 DUP12 SWAP1 DUP2 SWAP1 DUP5 ADD DUP4 DUP3 DUP1 DUP3 DUP5 CALLDATACOPY PUSH0 SWAP3 ADD DUP3 SWAP1 MSTORE POP SWAP4 DUP6 MSTORE POP POP POP PUSH1 0x20 DUP3 ADD DUP10 SWAP1 MSTORE PUSH1 0x40 DUP3 ADD DUP9 SWAP1 MSTORE PUSH1 0x60 DUP3 ADD DUP7 SWAP1 MSTORE PUSH1 0x80 DUP3 ADD DUP8 SWAP1 MSTORE PUSH1 0xA0 DUP3 ADD DUP6 SWAP1 MSTORE CALLER PUSH1 0xC0 SWAP1 SWAP3 ADD SWAP2 SWAP1 SWAP2 MSTORE DUP1 SLOAD PUSH1 0x1 DUP2 ADD DUP3 SSTORE SWAP1 DUP1 MSTORE DUP2 MLOAD SWAP2 SWAP3 POP DUP3 SWAP2 PUSH1 0xB SWAP1 SWAP2 MUL PUSH32 0x290DECD9548B62A8D60345A988386FC84BA6BC95484008F6362F93160EF3E563 ADD SWAP1 DUP2 SWAP1 PUSH2 0x536 SWAP1 DUP3 PUSH2 0x117E JUMP JUMPDEST POP PUSH1 0x20 DUP3 ADD MLOAD PUSH1 0x1 DUP3 ADD SSTORE PUSH1 0x40 DUP3 ADD MLOAD PUSH1 0x2 DUP3 ADD SWAP1 PUSH2 0x555 SWAP1 DUP3 PUSH2 0x117E JUMP JUMPDEST POP PUSH1 0x60 DUP3 ADD MLOAD PUSH1 0x3 DUP3 ADD SSTORE PUSH1 0x80 DUP3 ADD MLOAD PUSH1 0x4 DUP3 ADD SWAP1 PUSH2 0x574 SWAP1 DUP3 PUSH2 0x117E JUMP JUMPDEST POP PUSH1 0xA0 DUP3 ADD MLOAD PUSH1 0x5 DUP3 ADD SSTORE PUSH1 0xC0 DUP3 ADD MLOAD PUSH1 0x6 DUP3 ADD SSTORE PUSH1 0xE0 DUP3 ADD MLOAD PUSH1 0x7 DUP3 ADD SSTORE PUSH2 0x100 DUP3 ADD MLOAD PUSH1 0x8 DUP3 ADD SSTORE PUSH2 0x120 DUP3 ADD MLOAD PUSH1 0x9 DUP3 ADD SSTORE PUSH2 0x140 SWAP1 SWAP2 ADD MLOAD PUSH1 0xA SWAP1 SWAP2 ADD DUP1 SLOAD PUSH1 0x1 PUSH1 0x1 PUSH1 0xA0 SHL SUB NOT AND PUSH1 0x1 PUSH1 0x1 PUSH1 0xA0 SHL SUB SWAP1 SWAP3 AND SWAP2 SWAP1 SWAP2 OR SWAP1 SSTORE PUSH0 SLOAD PUSH2 0x5E0 SWAP1 PUSH1 0x1 SWAP1 PUSH2 0x1239 JUMP JUMPDEST PUSH1 0x1 PUSH0 DUP5 DUP2 MSTORE PUSH1 0x20 ADD SWAP1 DUP2 MSTORE PUSH1 0x20 ADD PUSH0 KECCAK256 DUP2 SWAP1 SSTORE POP PUSH32 0x11EEA6945719D8C4F321E340CF6872743BAF02E188D211CFD348D36233FB36AB DUP3 DUP16 DUP16 DUP16 DUP9 CALLER PUSH1 0x40 MLOAD PUSH2 0x62E SWAP7 SWAP6 SWAP5 SWAP4 SWAP3 SWAP2 SWAP1 PUSH2 0x124C JUMP JUMPDEST PUSH1 0x40 MLOAD DUP1 SWAP2 SUB SWAP1 LOG1 POP POP POP POP POP POP POP POP POP POP POP POP POP POP JUMP JUMPDEST PUSH1 0x60 PUSH0 PUSH1 0x60 PUSH0 PUSH1 0x60 PUSH0 PUSH0 PUSH0 PUSH0 PUSH0 PUSH0 PUSH0 DUP1 SLOAD SWAP1 POP DUP13 LT PUSH2 0x6A4 JUMPI PUSH1 0x40 MLOAD PUSH3 0x461BCD PUSH1 0xE5 SHL DUP2 MSTORE PUSH1 0x20 PUSH1 0x4 DUP3 ADD MSTORE PUSH1 0x15 PUSH1 0x24 DUP3 ADD MSTORE PUSH21 0x496E646963652066756572612064652072616E676F PUSH1 0x58 SHL PUSH1 0x44 DUP3 ADD MSTORE PUSH1 0x64 ADD JUMPDEST PUSH1 0x40 MLOAD DUP1 SWAP2 SUB SWAP1 REVERT JUMPDEST PUSH0 PUSH0 DUP14 DUP2 SLOAD DUP2 LT PUSH2 0x6B7 JUMPI PUSH2 0x6B7 PUSH2 0x12A0 JUMP JUMPDEST SWAP1 PUSH0 MSTORE PUSH1 0x20 PUSH0 KECCAK256 SWAP1 PUSH1 0xB MUL ADD PUSH1 0x40 MLOAD DUP1 PUSH2 0x160 ADD PUSH1 0x40 MSTORE SWAP1 DUP2 PUSH0 DUP3 ADD DUP1 SLOAD PUSH2 0x6DE SWAP1 PUSH2 0x1014 JUMP JUMPDEST DUP1 PUSH1 0x1F ADD PUSH1 0x20 DUP1 SWAP2 DIV MUL PUSH1 0x20 ADD PUSH1 0x40 MLOAD SWAP1 DUP2 ADD PUSH1 0x40 MSTORE DUP1 SWAP3 SWAP2 SWAP1 DUP2 DUP2 MSTORE PUSH1 0x20 ADD DUP3 DUP1 SLOAD PUSH2 0x70A SWAP1 PUSH2 0x1014 JUMP JUMPDEST DUP1 ISZERO PUSH2 0x755 JUMPI DUP1 PUSH1 0x1F LT PUSH2 0x72C JUMPI PUSH2 0x100 DUP1 DUP4 SLOAD DIV MUL DUP4 MSTORE SWAP2 PUSH1 0x20 ADD SWAP2 PUSH2 0x755 JUMP JUMPDEST DUP3 ADD SWAP2 SWAP1 PUSH0 MSTORE PUSH1 0x20 PUSH0 KECCAK256 SWAP1 JUMPDEST DUP2 SLOAD DUP2 MSTORE SWAP1 PUSH1 0x1 ADD SWAP1 PUSH1 0x20 ADD DUP1 DUP4 GT PUSH2 0x738 JUMPI DUP3 SWAP1 SUB PUSH1 0x1F AND DUP3 ADD SWAP2 JUMPDEST POP POP POP POP POP DUP2 MSTORE PUSH1 0x20 ADD PUSH1 0x1 DUP3 ADD SLOAD DUP2 MSTORE PUSH1 0x20 ADD PUSH1 0x2 DUP3 ADD DUP1 SLOAD PUSH2 0x778 SWAP1 PUSH2 0x1014 JUMP JUMPDEST DUP1 PUSH1 0x1F ADD PUSH1 0x20 DUP1 SWAP2 DIV MUL PUSH1 0x20 ADD PUSH1 0x40 MLOAD SWAP1 DUP2 ADD PUSH1 0x40 MSTORE DUP1 SWAP3 SWAP2 SWAP1 DUP2 DUP2 MSTORE PUSH1 0x20 ADD DUP3 DUP1 SLOAD PUSH2 0x7A4 SWAP1 PUSH2 0x1014 JUMP JUMPDEST DUP1 ISZERO PUSH2 0x7EF JUMPI DUP1 PUSH1 0x1F LT PUSH2 0x7C6 JUMPI PUSH2 0x100 DUP1 DUP4 SLOAD DIV MUL DUP4 MSTORE SWAP2 PUSH1 0x20 ADD SWAP2 PUSH2 0x7EF JUMP JUMPDEST DUP3 ADD SWAP2 SWAP1 PUSH0 MSTORE PUSH1 0x20 PUSH0 KECCAK256 SWAP1 JUMPDEST DUP2 SLOAD DUP2 MSTORE SWAP1 PUSH1 0x1 ADD SWAP1 PUSH1 0x20 ADD DUP1 DUP4 GT PUSH2 0x7D2 JUMPI DUP3 SWAP1 SUB PUSH1 0x1F AND DUP3 ADD SWAP2 JUMPDEST POP POP POP POP POP DUP2 MSTORE PUSH1 0x20 ADD PUSH1 0x3 DUP3 ADD SLOAD DUP2 MSTORE PUSH1 0x20 ADD PUSH1 0x4 DUP3 ADD DUP1 SLOAD PUSH2 0x812 SWAP1 PUSH2 0x1014 JUMP JUMPDEST DUP1 PUSH1 0x1F ADD PUSH1 0x20 DUP1 SWAP2 DIV MUL PUSH1 0x20 ADD PUSH1 0x40 MLOAD SWAP1 DUP2 ADD PUSH1 0x40 MSTORE DUP1 SWAP3 SWAP2 SWAP1 DUP2 DUP2 MSTORE PUSH1 0x20 ADD DUP3 DUP1 SLOAD PUSH2 0x83E SWAP1 PUSH2 0x1014 JUMP JUMPDEST DUP1 ISZERO PUSH2 0x889 JUMPI DUP1 PUSH1 0x1F LT PUSH2 0x860 JUMPI PUSH2 0x100 DUP1 DUP4 SLOAD DIV MUL DUP4 MSTORE SWAP2 PUSH1 0x20 ADD SWAP2 PUSH2 0x889 JUMP JUMPDEST DUP3 ADD SWAP2 SWAP1 PUSH0 MSTORE PUSH1 0x20 PUSH0 KECCAK256 SWAP1 JUMPDEST DUP2 SLOAD DUP2 MSTORE SWAP1 PUSH1 0x1 ADD SWAP1 PUSH1 0x20 ADD DUP1 DUP4 GT PUSH2 0x86C JUMPI DUP3 SWAP1 SUB PUSH1 0x1F AND DUP3 ADD SWAP2 JUMPDEST POP POP POP POP POP DUP2 MSTORE PUSH1 0x20 ADD PUSH1 0x5 DUP3 ADD SLOAD DUP2 MSTORE PUSH1 0x20 ADD PUSH1 0x6 DUP3 ADD SLOAD DUP2 MSTORE PUSH1 0x20 ADD PUSH1 0x7 DUP3 ADD SLOAD DUP2 MSTORE PUSH1 0x20 ADD PUSH1 0x8 DUP3 ADD SLOAD DUP2 MSTORE PUSH1 0x20 ADD PUSH1 0x9 DUP3 ADD SLOAD DUP2 MSTORE PUSH1 0x20 ADD PUSH1 0xA DUP3 ADD PUSH0 SWAP1 SLOAD SWAP1 PUSH2 0x100 EXP SWAP1 DIV PUSH1 0x1 PUSH1 0x1 PUSH1 0xA0 SHL SUB AND PUSH1 0x1 PUSH1 0x1 PUSH1 0xA0 SHL SUB AND PUSH1 0x1 PUSH1 0x1 PUSH1 0xA0 SHL SUB AND DUP2 MSTORE POP POP SWAP1 POP DUP1 PUSH0 ADD MLOAD DUP2 PUSH1 0x20 ADD MLOAD DUP3 PUSH1 0x40 ADD MLOAD DUP4 PUSH1 0x60 ADD MLOAD DUP5 PUSH1 0x80 ADD MLOAD DUP6 PUSH1 0xA0 ADD MLOAD DUP7 PUSH1 0xC0 ADD MLOAD DUP8 PUSH1 0xE0 ADD MLOAD DUP9 PUSH2 0x100 ADD MLOAD DUP10 PUSH2 0x120 ADD MLOAD DUP11 PUSH2 0x140 ADD MLOAD SWAP12 POP SWAP12 POP SWAP12 POP SWAP12 POP SWAP12 POP SWAP12 POP SWAP12 POP SWAP12 POP SWAP12 POP SWAP12 POP SWAP12 POP POP SWAP2 SWAP4 SWAP6 SWAP8 SWAP10 SWAP12 SWAP1 SWAP3 SWAP5 SWAP7 SWAP9 SWAP11 POP JUMP JUMPDEST PUSH1 0x60 PUSH0 PUSH1 0x60 PUSH0 PUSH1 0x60 PUSH0 PUSH0 PUSH0 PUSH0 PUSH0 PUSH0 PUSH1 0x1 PUSH0 DUP14 DUP2 MSTORE PUSH1 0x20 ADD SWAP1 DUP2 MSTORE PUSH1 0x20 ADD PUSH0 KECCAK256 SLOAD SWAP1 POP PUSH0 DUP1 SLOAD SWAP1 POP DUP2 LT PUSH2 0x9C1 JUMPI PUSH1 0x40 MLOAD PUSH3 0x461BCD PUSH1 0xE5 SHL DUP2 MSTORE PUSH1 0x20 PUSH1 0x4 DUP3 ADD MSTORE PUSH1 0x16 PUSH1 0x24 DUP3 ADD MSTORE PUSH22 0x506C616E696C6C61206E6F20656E636F6E7472616461 PUSH1 0x50 SHL PUSH1 0x44 DUP3 ADD MSTORE PUSH1 0x64 ADD PUSH2 0x69B JUMP JUMPDEST PUSH0 PUSH0 DUP3 DUP2 SLOAD DUP2 LT PUSH2 0x9D4 JUMPI PUSH2 0x9D4 PUSH2 0x12A0 JUMP JUMPDEST SWAP1 PUSH0 MSTORE PUSH1 0x20 PUSH0 KECCAK256 SWAP1 PUSH1 0xB MUL ADD PUSH1 0x40 MLOAD DUP1 PUSH2 0x160 ADD PUSH1 0x40 MSTORE SWAP1 DUP2 PUSH0 DUP3 ADD DUP1 SLOAD PUSH2 0x9FB SWAP1 PUSH2 0x1014 JUMP JUMPDEST DUP1 PUSH1 0x1F ADD PUSH1 0x20 DUP1 SWAP2 DIV MUL PUSH1 0x20 ADD PUSH1 0x40 MLOAD SWAP1 DUP2 ADD PUSH1 0x40 MSTORE DUP1 SWAP3 SWAP2 SWAP1 DUP2 DUP2 MSTORE PUSH1 0x20 ADD DUP3 DUP1 SLOAD PUSH2 0xA27 SWAP1 PUSH2 0x1014 JUMP JUMPDEST DUP1 ISZERO PUSH2 0xA72 JUMPI DUP1 PUSH1 0x1F LT PUSH2 0xA49 JUMPI PUSH2 0x100 DUP1 DUP4 SLOAD DIV MUL DUP4 MSTORE SWAP2 PUSH1 0x20 ADD SWAP2 PUSH2 0xA72 JUMP JUMPDEST DUP3 ADD SWAP2 SWAP1 PUSH0 MSTORE PUSH1 0x20 PUSH0 KECCAK256 SWAP1 JUMPDEST DUP2 SLOAD DUP2 MSTORE SWAP1 PUSH1 0x1 ADD SWAP1 PUSH1 0x20 ADD DUP1 DUP4 GT PUSH2 0xA55 JUMPI DUP3 SWAP1 SUB PUSH1 0x1F AND DUP3 ADD SWAP2 JUMPDEST POP POP POP POP POP DUP2 MSTORE PUSH1 0x20 ADD PUSH1 0x1 DUP3 ADD SLOAD DUP2 MSTORE PUSH1 0x20 ADD PUSH1 0x2 DUP3 ADD DUP1 SLOAD PUSH2 0xA95 SWAP1 PUSH2 0x1014 JUMP JUMPDEST DUP1 PUSH1 0x1F ADD PUSH1 0x20 DUP1 SWAP2 DIV MUL PUSH1 0x20 ADD PUSH1 0x40 MLOAD SWAP1 DUP2 ADD PUSH1 0x40 MSTORE DUP1 SWAP3 SWAP2 SWAP1 DUP2 DUP2 MSTORE PUSH1 0x20 ADD DUP3 DUP1 SLOAD PUSH2 0xAC1 SWAP1 PUSH2 0x1014 JUMP JUMPDEST DUP1 ISZERO PUSH2 0xB0C JUMPI DUP1 PUSH1 0x1F LT PUSH2 0xAE3 JUMPI PUSH2 0x100 DUP1 DUP4 SLOAD DIV MUL DUP4 MSTORE SWAP2 PUSH1 0x20 ADD SWAP2 PUSH2 0xB0C JUMP JUMPDEST DUP3 ADD SWAP2 SWAP1 PUSH0 MSTORE PUSH1 0x20 PUSH0 KECCAK256 SWAP1 JUMPDEST DUP2 SLOAD DUP2 MSTORE SWAP1 PUSH1 0x1 ADD SWAP1 PUSH1 0x20 ADD DUP1 DUP4 GT PUSH2 0xAEF JUMPI DUP3 SWAP1 SUB PUSH1 0x1F AND DUP3 ADD SWAP2 JUMPDEST POP POP POP POP POP DUP2 MSTORE PUSH1 0x20 ADD PUSH1 0x3 DUP3 ADD SLOAD DUP2 MSTORE PUSH1 0x20 ADD PUSH1 0x4 DUP3 ADD DUP1 SLOAD PUSH2 0xB2F SWAP1 PUSH2 0x1014 JUMP JUMPDEST DUP1 PUSH1 0x1F ADD PUSH1 0x20 DUP1 SWAP2 DIV MUL PUSH1 0x20 ADD PUSH1 0x40 MLOAD SWAP1 DUP2 ADD PUSH1 0x40 MSTORE DUP1 SWAP3 SWAP2 SWAP1 DUP2 DUP2 MSTORE PUSH1 0x20 ADD DUP3 DUP1 SLOAD PUSH2 0xB5B SWAP1 PUSH2 0x1014 JUMP JUMPDEST DUP1 ISZERO PUSH2 0xBA6 JUMPI DUP1 PUSH1 0x1F LT PUSH2 0xB7D JUMPI PUSH2 0x100 DUP1 DUP4 SLOAD DIV MUL DUP4 MSTORE SWAP2 PUSH1 0x20 ADD SWAP2 PUSH2 0xBA6 JUMP JUMPDEST DUP3 ADD SWAP2 SWAP1 PUSH0 MSTORE PUSH1 0x20 PUSH0 KECCAK256 SWAP1 JUMPDEST DUP2 SLOAD DUP2 MSTORE SWAP1 PUSH1 0x1 ADD SWAP1 PUSH1 0x20 ADD DUP1 DUP4 GT PUSH2 0xB89 JUMPI DUP3 SWAP1 SUB PUSH1 0x1F AND DUP3 ADD SWAP2 JUMPDEST POP POP POP POP POP DUP2 MSTORE PUSH1 0x20 ADD PUSH1 0x5 DUP3 ADD SLOAD DUP2 MSTORE PUSH1 0x20 ADD PUSH1 0x6 DUP3 ADD SLOAD DUP2 MSTORE PUSH1 0x20 ADD PUSH1 0x7 DUP3 ADD SLOAD DUP2 MSTORE PUSH1 0x20 ADD PUSH1 0x8 DUP3 ADD SLOAD DUP2 MSTORE PUSH1 0x20 ADD PUSH1 0x9 DUP3 ADD SLOAD DUP2 MSTORE PUSH1 0x20 ADD PUSH1 0xA DUP3 ADD PUSH0 SWAP1 SLOAD SWAP1 PUSH2 0x100 EXP SWAP1 DIV PUSH1 0x1 PUSH1 0x1 PUSH1 0xA0 SHL SUB AND PUSH1 0x1 PUSH1 0x1 PUSH1 0xA0 SHL SUB AND PUSH1 0x1 PUSH1 0x1 PUSH1 0xA0 SHL SUB AND DUP2 MSTORE POP POP SWAP1 POP DUP1 PUSH0 ADD MLOAD DUP2 PUSH1 0x20 ADD MLOAD DUP3 PUSH1 0x40 ADD MLOAD DUP4 PUSH1 0x60 ADD MLOAD DUP5 PUSH1 0x80 ADD MLOAD DUP6 PUSH1 0xA0 ADD MLOAD DUP7 PUSH1 0xC0 ADD MLOAD DUP8 PUSH1 0xE0 ADD MLOAD DUP9 PUSH2 0x100 ADD MLOAD DUP10 PUSH2 0x140 ADD MLOAD SWAP12 POP SWAP12 POP SWAP12 POP SWAP12 POP SWAP12 POP SWAP12 POP SWAP12 POP SWAP12 POP SWAP12 POP SWAP12 POP POP POP SWAP2 SWAP4 SWAP6 SWAP8 SWAP10 POP SWAP2 SWAP4 SWAP6 SWAP8 SWAP10 JUMP JUMPDEST PUSH0 PUSH1 0x20 DUP3 DUP5 SUB SLT ISZERO PUSH2 0xC77 JUMPI PUSH0 PUSH0 REVERT JUMPDEST POP CALLDATALOAD SWAP2 SWAP1 POP JUMP JUMPDEST PUSH0 DUP2 MLOAD DUP1 DUP5 MSTORE DUP1 PUSH1 0x20 DUP5 ADD PUSH1 0x20 DUP7 ADD MCOPY PUSH0 PUSH1 0x20 DUP3 DUP7 ADD ADD MSTORE PUSH1 0x20 PUSH1 0x1F NOT PUSH1 0x1F DUP4 ADD AND DUP6 ADD ADD SWAP2 POP POP SWAP3 SWAP2 POP POP JUMP JUMPDEST PUSH2 0x160 DUP2 MSTORE PUSH0 PUSH2 0xCC0 PUSH2 0x160 DUP4 ADD DUP15 PUSH2 0xC7E JUMP JUMPDEST DUP13 PUSH1 0x20 DUP5 ADD MSTORE DUP3 DUP2 SUB PUSH1 0x40 DUP5 ADD MSTORE PUSH2 0xCD8 DUP2 DUP14 PUSH2 0xC7E JUMP JUMPDEST SWAP1 POP DUP11 PUSH1 0x60 DUP5 ADD MSTORE DUP3 DUP2 SUB PUSH1 0x80 DUP5 ADD MSTORE PUSH2 0xCF2 DUP2 DUP12 PUSH2 0xC7E JUMP JUMPDEST PUSH1 0xA0 DUP5 ADD SWAP10 SWAP1 SWAP10 MSTORE POP POP PUSH1 0xC0 DUP2 ADD SWAP6 SWAP1 SWAP6 MSTORE PUSH1 0xE0 DUP6 ADD SWAP4 SWAP1 SWAP4 MSTORE PUSH2 0x100 DUP5 ADD SWAP2 SWAP1 SWAP2 MSTORE PUSH2 0x120 DUP4 ADD MSTORE PUSH1 0x1 PUSH1 0x1 PUSH1 0xA0 SHL SUB AND PUSH2 0x140 SWAP1 SWAP2 ADD MSTORE SWAP6 SWAP5 POP POP POP POP POP JUMP JUMPDEST PUSH4 0x4E487B71 PUSH1 0xE0 SHL PUSH0 MSTORE PUSH1 0x41 PUSH1 0x4 MSTORE PUSH1 0x24 PUSH0 REVERT JUMPDEST PUSH0 DUP3 PUSH1 0x1F DUP4 ADD SLT PUSH2 0xD57 JUMPI PUSH0 PUSH0 REVERT JUMPDEST DUP2 CALLDATALOAD PUSH8 0xFFFFFFFFFFFFFFFF DUP2 GT ISZERO PUSH2 0xD71 JUMPI PUSH2 0xD71 PUSH2 0xD34 JUMP JUMPDEST PUSH1 0x40 MLOAD PUSH1 0x1F DUP3 ADD PUSH1 0x1F NOT SWAP1 DUP2 AND PUSH1 0x3F ADD AND DUP2 ADD PUSH8 0xFFFFFFFFFFFFFFFF DUP2 GT DUP3 DUP3 LT OR ISZERO PUSH2 0xDA0 JUMPI PUSH2 0xDA0 PUSH2 0xD34 JUMP JUMPDEST PUSH1 0x40 MSTORE DUP2 DUP2 MSTORE DUP4 DUP3 ADD PUSH1 0x20 ADD DUP6 LT ISZERO PUSH2 0xDB7 JUMPI PUSH0 PUSH0 REVERT JUMPDEST DUP2 PUSH1 0x20 DUP6 ADD PUSH1 0x20 DUP4 ADD CALLDATACOPY PUSH0 SWAP2 DUP2 ADD PUSH1 0x20 ADD SWAP2 SWAP1 SWAP2 MSTORE SWAP4 SWAP3 POP POP POP JUMP JUMPDEST PUSH0 PUSH0 PUSH0 PUSH0 PUSH0 PUSH0 PUSH0 PUSH0 PUSH2 0x100 DUP10 DUP12 SUB SLT ISZERO PUSH2 0xDEB JUMPI PUSH0 PUSH0 REVERT JUMPDEST DUP9 CALLDATALOAD PUSH8 0xFFFFFFFFFFFFFFFF DUP2 GT ISZERO PUSH2 0xE01 JUMPI PUSH0 PUSH0 REVERT JUMPDEST PUSH2 0xE0D DUP12 DUP3 DUP13 ADD PUSH2 0xD48 JUMP JUMPDEST SWAP9 POP POP PUSH1 0x20 DUP10 ADD CALLDATALOAD SWAP7 POP PUSH1 0x40 DUP10 ADD CALLDATALOAD PUSH8 0xFFFFFFFFFFFFFFFF DUP2 GT ISZERO PUSH2 0xE30 JUMPI PUSH0 PUSH0 REVERT JUMPDEST PUSH2 0xE3C DUP12 DUP3 DUP13 ADD PUSH2 0xD48 JUMP JUMPDEST SWAP7 POP POP PUSH1 0x60 DUP10 ADD CALLDATALOAD SWAP5 POP PUSH1 0x80 DUP10 ADD CALLDATALOAD PUSH8 0xFFFFFFFFFFFFFFFF DUP2 GT ISZERO PUSH2 0xE5F JUMPI PUSH0 PUSH0 REVERT JUMPDEST PUSH2 0xE6B DUP12 DUP3 DUP13 ADD PUSH2 0xD48 JUMP JUMPDEST SWAP9 SWAP12 SWAP8 SWAP11 POP SWAP6 SWAP9 SWAP5 SWAP8 SWAP7 PUSH1 0xA0 DUP7 ADD CALLDATALOAD SWAP7 POP PUSH1 0xC0 DUP7 ADD CALLDATALOAD SWAP6 PUSH1 0xE0 ADD CALLDATALOAD SWAP5 POP SWAP3 POP POP POP JUMP JUMPDEST PUSH0 PUSH0 DUP4 PUSH1 0x1F DUP5 ADD SLT PUSH2 0xE9E JUMPI PUSH0 PUSH0 REVERT JUMPDEST POP DUP2 CALLDATALOAD PUSH8 0xFFFFFFFFFFFFFFFF DUP2 GT ISZERO PUSH2 0xEB5 JUMPI PUSH0 PUSH0 REVERT JUMPDEST PUSH1 0x20 DUP4 ADD SWAP2 POP DUP4 PUSH1 0x20 DUP3 DUP6 ADD ADD GT ISZERO PUSH2 0xECC JUMPI PUSH0 PUSH0 REVERT JUMPDEST SWAP3 POP SWAP3 SWAP1 POP JUMP JUMPDEST PUSH0 PUSH0 PUSH0 PUSH0 PUSH0 PUSH0 PUSH0 PUSH0 PUSH0 PUSH0 PUSH1 0xE0 DUP12 DUP14 SUB SLT ISZERO PUSH2 0xEEC JUMPI PUSH0 PUSH0 REVERT JUMPDEST DUP11 CALLDATALOAD PUSH8 0xFFFFFFFFFFFFFFFF DUP2 GT ISZERO PUSH2 0xF02 JUMPI PUSH0 PUSH0 REVERT JUMPDEST PUSH2 0xF0E DUP14 DUP3 DUP15 ADD PUSH2 0xE8E JUMP JUMPDEST SWAP1 SWAP12 POP SWAP10 POP POP PUSH1 0x20 DUP12 ADD CALLDATALOAD SWAP8 POP PUSH1 0x40 DUP12 ADD CALLDATALOAD PUSH8 0xFFFFFFFFFFFFFFFF DUP2 GT ISZERO PUSH2 0xF34 JUMPI PUSH0 PUSH0 REVERT JUMPDEST PUSH2 0xF40 DUP14 DUP3 DUP15 ADD PUSH2 0xE8E JUMP JUMPDEST SWAP1 SWAP9 POP SWAP7 POP POP PUSH1 0x60 DUP12 ADD CALLDATALOAD SWAP5 POP PUSH1 0x80 DUP12 ADD CALLDATALOAD PUSH8 0xFFFFFFFFFFFFFFFF DUP2 GT ISZERO PUSH2 0xF66 JUMPI PUSH0 PUSH0 REVERT JUMPDEST PUSH2 0xF72 DUP14 DUP3 DUP15 ADD PUSH2 0xE8E JUMP JUMPDEST SWAP12 SWAP15 SWAP11 SWAP14 POP SWAP9 SWAP12 SWAP8 SWAP11 SWAP7 SWAP10 SWAP6 SWAP9 SWAP8 PUSH1 0xA0 DUP2 ADD CALLDATALOAD SWAP7 PUSH1 0xC0 SWAP1 SWAP2 ADD CALLDATALOAD SWAP6 POP SWAP4 POP POP POP POP JUMP JUMPDEST PUSH2 0x140 DUP2 MSTORE PUSH0 PUSH2 0xFA9 PUSH2 0x140 DUP4 ADD DUP14 PUSH2 0xC7E JUMP JUMPDEST DUP12 PUSH1 0x20 DUP5 ADD MSTORE DUP3 DUP2 SUB PUSH1 0x40 DUP5 ADD MSTORE PUSH2 0xFC1 DUP2 DUP13 PUSH2 0xC7E JUMP JUMPDEST SWAP1 POP DUP10 PUSH1 0x60 DUP5 ADD MSTORE DUP3 DUP2 SUB PUSH1 0x80 DUP5 ADD MSTORE PUSH2 0xFDB DUP2 DUP11 PUSH2 0xC7E JUMP JUMPDEST PUSH1 0xA0 DUP5 ADD SWAP9 SWAP1 SWAP9 MSTORE POP POP PUSH1 0xC0 DUP2 ADD SWAP5 SWAP1 SWAP5 MSTORE PUSH1 0xE0 DUP5 ADD SWAP3 SWAP1 SWAP3 MSTORE PUSH2 0x100 DUP4 ADD MSTORE PUSH1 0x1 PUSH1 0x1 PUSH1 0xA0 SHL SUB AND PUSH2 0x120 SWAP1 SWAP2 ADD MSTORE SWAP6 SWAP5 POP POP POP POP POP JUMP JUMPDEST PUSH1 0x1 DUP2 DUP2 SHR SWAP1 DUP3 AND DUP1 PUSH2 0x1028 JUMPI PUSH1 0x7F DUP3 AND SWAP2 POP JUMPDEST PUSH1 0x20 DUP3 LT DUP2 SUB PUSH2 0x1046 JUMPI PUSH4 0x4E487B71 PUSH1 0xE0 SHL PUSH0 MSTORE PUSH1 0x22 PUSH1 0x4 MSTORE PUSH1 0x24 PUSH0 REVERT JUMPDEST POP SWAP2 SWAP1 POP JUMP JUMPDEST PUSH4 0x4E487B71 PUSH1 0xE0 SHL PUSH0 MSTORE PUSH1 0x11 PUSH1 0x4 MSTORE PUSH1 0x24 PUSH0 REVERT JUMPDEST DUP1 DUP3 ADD DUP1 DUP3 GT ISZERO PUSH2 0x1073 JUMPI PUSH2 0x1073 PUSH2 0x104C JUMP JUMPDEST SWAP3 SWAP2 POP POP JUMP JUMPDEST PUSH0 DUP2 MLOAD DUP1 PUSH1 0x20 DUP5 ADD DUP6 MCOPY PUSH0 SWAP4 ADD SWAP3 DUP4 MSTORE POP SWAP1 SWAP2 SWAP1 POP JUMP JUMPDEST PUSH0 PUSH2 0x109B DUP3 DUP13 PUSH2 0x1079 JUMP JUMPDEST DUP11 DUP2 MSTORE PUSH2 0x10AB PUSH1 0x20 DUP3 ADD DUP12 PUSH2 0x1079 JUMP JUMPDEST SWAP1 POP DUP9 DUP2 MSTORE PUSH2 0x10BD PUSH1 0x20 DUP3 ADD DUP10 PUSH2 0x1079 JUMP JUMPDEST SWAP7 DUP8 MSTORE POP POP POP PUSH1 0x20 DUP5 ADD SWAP3 SWAP1 SWAP3 MSTORE PUSH1 0x40 DUP4 ADD MSTORE PUSH1 0x60 DUP3 ADD MSTORE PUSH1 0x80 ADD SWAP6 SWAP5 POP POP POP POP POP JUMP JUMPDEST DUP12 DUP14 DUP3 CALLDATACOPY PUSH0 DUP13 DUP3 ADD DUP13 DUP2 MSTORE DUP11 DUP13 PUSH1 0x20 DUP4 ADD CALLDATACOPY DUP11 DUP2 ADD SWAP1 POP DUP10 PUSH1 0x20 DUP3 ADD MSTORE DUP8 DUP10 PUSH1 0x40 DUP4 ADD CALLDATACOPY PUSH1 0x40 SWAP8 ADD SWAP7 DUP8 ADD SWAP6 SWAP1 SWAP6 MSTORE POP PUSH1 0x60 DUP6 ADD SWAP3 SWAP1 SWAP3 MSTORE PUSH1 0x80 DUP5 ADD MSTORE PUSH1 0xA0 DUP4 ADD MSTORE POP PUSH1 0xC0 ADD SWAP8 SWAP7 POP POP POP POP POP POP POP JUMP JUMPDEST PUSH1 0x1F DUP3 GT ISZERO PUSH2 0x1179 JUMPI DUP1 PUSH0 MSTORE PUSH1 0x20 PUSH0 KECCAK256 PUSH1 0x1F DUP5 ADD PUSH1 0x5 SHR DUP2 ADD PUSH1 0x20 DUP6 LT ISZERO PUSH2 0x1157 JUMPI POP DUP1 JUMPDEST PUSH1 0x1F DUP5 ADD PUSH1 0x5 SHR DUP3 ADD SWAP2 POP JUMPDEST DUP2 DUP2 LT ISZERO PUSH2 0x1176 JUMPI PUSH0 DUP2 SSTORE PUSH1 0x1 ADD PUSH2 0x1163 JUMP JUMPDEST POP POP JUMPDEST POP POP POP JUMP JUMPDEST DUP2 MLOAD PUSH8 0xFFFFFFFFFFFFFFFF DUP2 GT ISZERO PUSH2 0x1198 JUMPI PUSH2 0x1198 PUSH2 0xD34 JUMP JUMPDEST PUSH2 0x11AC DUP2 PUSH2 0x11A6 DUP5 SLOAD PUSH2 0x1014 JUMP JUMPDEST DUP5 PUSH2 0x1132 JUMP JUMPDEST PUSH1 0x20 PUSH1 0x1F DUP3 GT PUSH1 0x1 DUP2 EQ PUSH2 0x11DE JUMPI PUSH0 DUP4 ISZERO PUSH2 0x11C7 JUMPI POP DUP5 DUP3 ADD MLOAD JUMPDEST PUSH0 NOT PUSH1 0x3 DUP6 SWAP1 SHL SHR NOT AND PUSH1 0x1 DUP5 SWAP1 SHL OR DUP5 SSTORE PUSH2 0x1176 JUMP JUMPDEST PUSH0 DUP5 DUP2 MSTORE PUSH1 0x20 DUP2 KECCAK256 PUSH1 0x1F NOT DUP6 AND SWAP2 JUMPDEST DUP3 DUP2 LT ISZERO PUSH2 0x120D JUMPI DUP8 DUP6 ADD MLOAD DUP3 SSTORE PUSH1 0x20 SWAP5 DUP6 ADD SWAP5 PUSH1 0x1 SWAP1 SWAP3 ADD SWAP2 ADD PUSH2 0x11ED JUMP JUMPDEST POP DUP5 DUP3 LT ISZERO PUSH2 0x122A JUMPI DUP7 DUP5 ADD MLOAD PUSH0 NOT PUSH1 0x3 DUP8 SWAP1 SHL PUSH1 0xF8 AND SHR NOT AND DUP2 SSTORE JUMPDEST POP POP POP POP PUSH1 0x1 SWAP1 DUP2 SHL ADD SWAP1 SSTORE POP JUMP JUMPDEST DUP2 DUP2 SUB DUP2 DUP2 GT ISZERO PUSH2 0x1073 JUMPI PUSH2 0x1073 PUSH2 0x104C JUMP JUMPDEST DUP7 DUP2 MSTORE PUSH1 0xA0 PUSH1 0x20 DUP3 ADD MSTORE DUP5 PUSH1 0xA0 DUP3 ADD MSTORE DUP5 DUP7 PUSH1 0xC0 DUP4 ADD CALLDATACOPY PUSH0 PUSH1 0xC0 DUP7 DUP4 ADD DUP2 ADD SWAP2 SWAP1 SWAP2 MSTORE PUSH1 0x40 DUP3 ADD SWAP5 SWAP1 SWAP5 MSTORE PUSH1 0x60 DUP2 ADD SWAP3 SWAP1 SWAP3 MSTORE PUSH1 0x1 PUSH1 0x1 PUSH1 0xA0 SHL SUB AND PUSH1 0x80 DUP3 ADD MSTORE PUSH1 0x1F SWAP1 SWAP3 ADD PUSH1 0x1F NOT AND SWAP1 SWAP2 ADD ADD SWAP3 SWAP2 POP POP JUMP JUMPDEST PUSH4 0x4E487B71 PUSH1 0xE0 SHL PUSH0 MSTORE PUSH1 0x32 PUSH1 0x4 MSTORE PUSH1 0x24 PUSH0 REVERT INVALID LOG2 PUSH5 0x6970667358 0x22 SLT KECCAK256 0x4C PUSH31 0x67682E8AB07D40E758F365D13D2BB13AE385900637986E5143530F1116C764 PUSH20 0x6F6C634300081E00330000000000000000000000 "
				},
				"gasEstimates": {
					"creation": {
						"codeDepositCost": "968400",
						"executionCost": "1006",
						"totalCost": "969406"
					},
					"external": {
						"buscarPlanillaPorHash(bytes32)": "infinite",
						"generarHashPlanilla(string,uint256,string,uint256,string,uint256,uint256,uint256)": "infinite",
						"indicePorHash(bytes32)": "2435",
						"obtenerCantidadPlanillas()": "2356",
						"obtenerPlanillaPorIndice(uint256)": "infinite",
						"planillas(uint256)": "infinite",
						"registrarPlanilla(string,uint256,string,uint256,string,uint256,uint256)": "infinite"
					}
				},
				"methodIdentifiers": {
					"buscarPlanillaPorHash(bytes32)": "d7e6a9e9",
					"generarHashPlanilla(string,uint256,string,uint256,string,uint256,uint256,uint256)": "31fb2051",
					"indicePorHash(bytes32)": "ac7bad22",
					"obtenerCantidadPlanillas()": "ec6f7e48",
					"obtenerPlanillaPorIndice(uint256)": "c26cf569",
					"planillas(uint256)": "08d6030d",
					"registrarPlanilla(string,uint256,string,uint256,string,uint256,uint256)": "5fcf849e"
				}
			},
			"storageLayout": {
				"storage": [
					{
						"astId": 30,
						"contract": "contracts/SistemaVotacion.sol:SistemaVotacion",
						"label": "planillas",
						"offset": 0,
						"slot": "0",
						"type": "t_array(t_struct(PlanillaVotacion)26_storage)dyn_storage"
					},
					{
						"astId": 34,
						"contract": "contracts/SistemaVotacion.sol:SistemaVotacion",
						"label": "indicePorHash",
						"offset": 0,
						"slot": "1",
						"type": "t_mapping(t_bytes32,t_uint256)"
					}
				],
				"types": {
					"t_address": {
						"encoding": "inplace",
						"label": "address",
						"numberOfBytes": "20"
					},
					"t_array(t_struct(PlanillaVotacion)26_storage)dyn_storage": {
						"base": "t_struct(PlanillaVotacion)26_storage",
						"encoding": "dynamic_array",
						"label": "struct SistemaVotacion.PlanillaVotacion[]",
						"numberOfBytes": "32"
					},
					"t_bytes32": {
						"encoding": "inplace",
						"label": "bytes32",
						"numberOfBytes": "32"
					},
					"t_mapping(t_bytes32,t_uint256)": {
						"encoding": "mapping",
						"key": "t_bytes32",
						"label": "mapping(bytes32 => uint256)",
						"numberOfBytes": "32",
						"value": "t_uint256"
					},
					"t_string_storage": {
						"encoding": "bytes",
						"label": "string",
						"numberOfBytes": "32"
					},
					"t_struct(PlanillaVotacion)26_storage": {
						"encoding": "inplace",
						"label": "struct SistemaVotacion.PlanillaVotacion",
						"members": [
							{
								"astId": 5,
								"contract": "contracts/SistemaVotacion.sol:SistemaVotacion",
								"label": "ciudad",
								"offset": 0,
								"slot": "0",
								"type": "t_string_storage"
							},
							{
								"astId": 7,
								"contract": "contracts/SistemaVotacion.sol:SistemaVotacion",
								"label": "numero_mesa",
								"offset": 0,
								"slot": "1",
								"type": "t_uint256"
							},
							{
								"astId": 9,
								"contract": "contracts/SistemaVotacion.sol:SistemaVotacion",
								"label": "nombre_votante_1",
								"offset": 0,
								"slot": "2",
								"type": "t_string_storage"
							},
							{
								"astId": 11,
								"contract": "contracts/SistemaVotacion.sol:SistemaVotacion",
								"label": "cantidad_1",
								"offset": 0,
								"slot": "3",
								"type": "t_uint256"
							},
							{
								"astId": 13,
								"contract": "contracts/SistemaVotacion.sol:SistemaVotacion",
								"label": "nombre_votante_2",
								"offset": 0,
								"slot": "4",
								"type": "t_string_storage"
							},
							{
								"astId": 15,
								"contract": "contracts/SistemaVotacion.sol:SistemaVotacion",
								"label": "cantidad_2",
								"offset": 0,
								"slot": "5",
								"type": "t_uint256"
							},
							{
								"astId": 17,
								"contract": "contracts/SistemaVotacion.sol:SistemaVotacion",
								"label": "votos_blanco",
								"offset": 0,
								"slot": "6",
								"type": "t_uint256"
							},
							{
								"astId": 19,
								"contract": "contracts/SistemaVotacion.sol:SistemaVotacion",
								"label": "votos_totales",
								"offset": 0,
								"slot": "7",
								"type": "t_uint256"
							},
							{
								"astId": 21,
								"contract": "contracts/SistemaVotacion.sol:SistemaVotacion",
								"label": "fecha_creacion_planilla",
								"offset": 0,
								"slot": "8",
								"type": "t_uint256"
							},
							{
								"astId": 23,
								"contract": "contracts/SistemaVotacion.sol:SistemaVotacion",
								"label": "hash_planilla",
								"offset": 0,
								"slot": "9",
								"type": "t_bytes32"
							},
							{
								"astId": 25,
								"contract": "contracts/SistemaVotacion.sol:SistemaVotacion",
								"label": "creador",
								"offset": 0,
								"slot": "10",
								"type": "t_address"
							}
						],
						"numberOfBytes": "352"
					},
					"t_uint256": {
						"encoding": "inplace",
						"label": "uint256",
						"numberOfBytes": "32"
					}
				}
			},
			"userdoc": {
				"kind": "user",
				"methods": {
					"buscarPlanillaPorHash(bytes32)": {
						"notice": "Buscar planilla por su hash"
					},
					"generarHashPlanilla(string,uint256,string,uint256,string,uint256,uint256,uint256)": {
						"notice": "Generar hash para verificacion externa"
					},
					"obtenerCantidadPlanillas()": {
						"notice": "Obtener la cantidad total de planillas"
					},
					"obtenerPlanillaPorIndice(uint256)": {
						"notice": "Obtener una planilla por su indice"
					},
					"registrarPlanilla(string,uint256,string,uint256,string,uint256,uint256)": {
						"notice": "Registrar una nueva planilla"
					}
				},
				"version": 1
			}
		}
	}
}