{
	"contracts/ListaDeTareas.sol": {
		"ListaDeTareas": {
			"abi": [
				{
					"anonymous": false,
					"inputs": [
						{
							"indexed": false,
							"internalType": "string",
							"name": "Nombre_De_Tarea",
							"type": "string"
						},
						{
							"indexed": false,
							"internalType": "enum ListaDeTareas.EstadoTarea",
							"name": "nuevo_estado",
							"type": "uint8"
						},
						{
							"indexed": false,
							"internalType": "bytes32",
							"name": "nuevo_hash_tarea",
							"type": "bytes32"
						}
					],
					"name": "EstadoActualizado",
					"type": "event"
				},
				{
					"anonymous": false,
					"inputs": [
						{
							"indexed": false,
							"internalType": "string",
							"name": "Nombre_De_Tarea",
							"type": "string"
						},
						{
							"indexed": false,
							"internalType": "string",
							"name": "Descripcion_De_Tarea",
							"type": "string"
						},
						{
							"indexed": false,
							"internalType": "enum ListaDeTareas.EstadoTarea",
							"name": "estado",
							"type": "uint8"
						},
						{
							"indexed": false,
							"internalType": "uint256",
							"name": "fecha",
							"type": "uint256"
						},
						{
							"indexed": false,
							"internalType": "bytes32",
							"name": "hash_tarea",
							"type": "bytes32"
						},
						{
							"indexed": false,
							"internalType": "address",
							"name": "creador",
							"type": "address"
						}
					],
					"name": "TareaCreada",
					"type": "event"
				},
				{
					"inputs": [
						{
							"internalType": "uint256",
							"name": "indice",
							"type": "uint256"
						},
						{
							"internalType": "enum ListaDeTareas.EstadoTarea",
							"name": "nuevoEstado",
							"type": "uint8"
						}
					],
					"name": "actualizarEstado",
					"outputs": [],
					"stateMutability": "nonpayable",
					"type": "function"
				},
				{
					"inputs": [
						{
							"internalType": "bytes32",
							"name": "_hash_tarea",
							"type": "bytes32"
						}
					],
					"name": "buscarTareaPorHash",
					"outputs": [
						{
							"internalType": "string",
							"name": "Nombre_De_Tarea",
							"type": "string"
						},
						{
							"internalType": "string",
							"name": "Descripcion_De_Tarea",
							"type": "string"
						},
						{
							"internalType": "enum ListaDeTareas.EstadoTarea",
							"name": "estado",
							"type": "uint8"
						},
						{
							"internalType": "uint256",
							"name": "fecha",
							"type": "uint256"
						},
						{
							"internalType": "address",
							"name": "creador",
							"type": "address"
						}
					],
					"stateMutability": "view",
					"type": "function"
				},
				{
					"inputs": [
						{
							"internalType": "string",
							"name": "_Nombre_De_Tarea",
							"type": "string"
						}
					],
					"name": "buscarTareasPorNombre",
					"outputs": [
						{
							"components": [
								{
									"internalType": "string",
									"name": "Nombre_De_Tarea",
									"type": "string"
								},
								{
									"internalType": "string",
									"name": "Descripcion_De_Tarea",
									"type": "string"
								},
								{
									"internalType": "enum ListaDeTareas.EstadoTarea",
									"name": "estado",
									"type": "uint8"
								},
								{
									"internalType": "uint256",
									"name": "fecha_creacion",
									"type": "uint256"
								},
								{
									"internalType": "bytes32",
									"name": "hash_tarea",
									"type": "bytes32"
								},
								{
									"internalType": "address",
									"name": "creador",
									"type": "address"
								}
							],
							"internalType": "struct ListaDeTareas.Tarea[]",
							"name": "resultados",
							"type": "tuple[]"
						}
					],
					"stateMutability": "view",
					"type": "function"
				},
				{
					"inputs": [
						{
							"internalType": "string",
							"name": "_Nombre_De_Tarea",
							"type": "string"
						},
						{
							"internalType": "string",
							"name": "_Descripcion_De_Tarea",
							"type": "string"
						}
					],
					"name": "crearTarea",
					"outputs": [],
					"stateMutability": "nonpayable",
					"type": "function"
				},
				{
					"inputs": [
						{
							"internalType": "string",
							"name": "_Nombre_De_Tarea",
							"type": "string"
						},
						{
							"internalType": "uint256",
							"name": "_fecha",
							"type": "uint256"
						},
						{
							"internalType": "enum ListaDeTareas.EstadoTarea",
							"name": "_estado",
							"type": "uint8"
						}
					],
					"name": "generarHashTarea",
					"outputs": [
						{
							"internalType": "bytes32",
							"name": "",
							"type": "bytes32"
						}
					],
					"stateMutability": "pure",
					"type": "function"
				},
				{
					"inputs": [
						{
							"internalType": "bytes32",
							"name": "",
							"type": "bytes32"
						}
					],
					"name": "indicePorHashTarea",
					"outputs": [
						{
							"internalType": "uint256",
							"name": "",
							"type": "uint256"
						}
					],
					"stateMutability": "view",
					"type": "function"
				},
				{
					"inputs": [
						{
							"internalType": "string",
							"name": "",
							"type": "string"
						},
						{
							"internalType": "uint256",
							"name": "",
							"type": "uint256"
						}
					],
					"name": "indicesPorNombre",
					"outputs": [
						{
							"internalType": "uint256",
							"name": "",
							"type": "uint256"
						}
					],
					"stateMutability": "view",
					"type": "function"
				},
				{
					"inputs": [],
					"name": "obtenerCantidadTareas",
					"outputs": [
						{
							"internalType": "uint256",
							"name": "",
							"type": "uint256"
						}
					],
					"stateMutability": "view",
					"type": "function"
				},
				{
					"inputs": [
						{
							"internalType": "uint256",
							"name": "indice",
							"type": "uint256"
						}
					],
					"name": "obtenerTareaPorIndice",
					"outputs": [
						{
							"internalType": "string",
							"name": "Nombre_De_Tarea",
							"type": "string"
						},
						{
							"internalType": "string",
							"name": "Descripcion_De_Tarea",
							"type": "string"
						},
						{
							"internalType": "enum ListaDeTareas.EstadoTarea",
							"name": "estado",
							"type": "uint8"
						},
						{
							"internalType": "uint256",
							"name": "fecha",
							"type": "uint256"
						},
						{
							"internalType": "bytes32",
							"name": "hash_tarea",
							"type": "bytes32"
						},
						{
							"internalType": "address",
							"name": "creador",
							"type": "address"
						}
					],
					"stateMutability": "view",
					"type": "function"
				},
				{
					"inputs": [
						{
							"internalType": "uint256",
							"name": "",
							"type": "uint256"
						}
					],
					"name": "tareas",
					"outputs": [
						{
							"internalType": "string",
							"name": "Nombre_De_Tarea",
							"type": "string"
						},
						{
							"internalType": "string",
							"name": "Descripcion_De_Tarea",
							"type": "string"
						},
						{
							"internalType": "enum ListaDeTareas.EstadoTarea",
							"name": "estado",
							"type": "uint8"
						},
						{
							"internalType": "uint256",
							"name": "fecha_creacion",
							"type": "uint256"
						},
						{
							"internalType": "bytes32",
							"name": "hash_tarea",
							"type": "bytes32"
						},
						{
							"internalType": "address",
							"name": "creador",
							"type": "address"
						}
					],
					"stateMutability": "view",
					"type": "function"
				}
			],
			"devdoc": {
				"kind": "dev",
				"methods": {},
				"title": "Lista de Tareas en Solidity con búsqueda por hash y nombre",
				"version": 1
			},
			"evm": {
				"assembly": "    /* \"contracts/ListaDeTareas.sol\":128:4691  contract ListaDeTareas {... */\n  mstore(0x40, 0x80)\n  callvalue\n  dup1\n  iszero\n  tag_1\n  jumpi\n  revert(0x00, 0x00)\ntag_1:\n  pop\n  dataSize(sub_0)\n  dup1\n  dataOffset(sub_0)\n  0x00\n  codecopy\n  0x00\n  return\nstop\n\nsub_0: assembly {\n        /* \"contracts/ListaDeTareas.sol\":128:4691  contract ListaDeTareas {... */\n      mstore(0x40, 0x80)\n      callvalue\n      dup1\n      iszero\n      tag_1\n      jumpi\n      revert(0x00, 0x00)\n    tag_1:\n      pop\n      jumpi(tag_2, lt(calldatasize, 0x04))\n      shr(0xe0, calldataload(0x00))\n      dup1\n      0xafc6e8a6\n      gt\n      tag_13\n      jumpi\n      dup1\n      0xafc6e8a6\n      eq\n      tag_8\n      jumpi\n      dup1\n      0xde6872d1\n      eq\n      tag_9\n      jumpi\n      dup1\n      0xef2bba6e\n      eq\n      tag_10\n      jumpi\n      dup1\n      0xf019ec66\n      eq\n      tag_11\n      jumpi\n      dup1\n      0xfb946851\n      eq\n      tag_12\n      jumpi\n      jump(tag_2)\n    tag_13:\n      dup1\n      0x0300a225\n      eq\n      tag_3\n      jumpi\n      dup1\n      0x52154ba9\n      eq\n      tag_4\n      jumpi\n      dup1\n      0x79e4b328\n      eq\n      tag_5\n      jumpi\n      dup1\n      0x8ef1b7e4\n      eq\n      tag_6\n      jumpi\n      dup1\n      0x8f496317\n      eq\n      tag_7\n      jumpi\n    tag_2:\n      revert(0x00, 0x00)\n        /* \"contracts/ListaDeTareas.sol\":662:711  mapping(string => uint[]) public indicesPorNombre */\n    tag_3:\n      tag_14\n      0x04\n      dup1\n      calldatasize\n      sub\n      dup2\n      add\n      swap1\n      tag_15\n      swap2\n      swap1\n      tag_16\n      jump\t// in\n    tag_15:\n      tag_17\n      jump\t// in\n    tag_14:\n      mload(0x40)\n      tag_18\n      swap2\n      swap1\n      tag_19\n      jump\t// in\n    tag_18:\n      mload(0x40)\n      dup1\n      swap2\n      sub\n      swap1\n      return\n        /* \"contracts/ListaDeTareas.sol\":548:569  Tarea[] public tareas */\n    tag_4:\n      tag_20\n      0x04\n      dup1\n      calldatasize\n      sub\n      dup2\n      add\n      swap1\n      tag_21\n      swap2\n      swap1\n      tag_22\n      jump\t// in\n    tag_21:\n      tag_23\n      jump\t// in\n    tag_20:\n      mload(0x40)\n      tag_24\n      swap7\n      swap6\n      swap5\n      swap4\n      swap3\n      swap2\n      swap1\n      tag_25\n      jump\t// in\n    tag_24:\n      mload(0x40)\n      dup1\n      swap2\n      sub\n      swap1\n      return\n        /* \"contracts/ListaDeTareas.sol\":4481:4689  function generarHashTarea(string memory _Nombre_De_Tarea, uint _fecha, EstadoTarea _estado) public pure returns (bytes32) {... */\n    tag_5:\n      tag_26\n      0x04\n      dup1\n      calldatasize\n      sub\n      dup2\n      add\n      swap1\n      tag_27\n      swap2\n      swap1\n      tag_28\n      jump\t// in\n    tag_27:\n      tag_29\n      jump\t// in\n    tag_26:\n      mload(0x40)\n      tag_30\n      swap2\n      swap1\n      tag_31\n      jump\t// in\n    tag_30:\n      mload(0x40)\n      dup1\n      swap2\n      sub\n      swap1\n      return\n        /* \"contracts/ListaDeTareas.sol\":2945:3422  function obtenerTareaPorIndice(uint indice) external view returns (... */\n    tag_6:\n      tag_32\n      0x04\n      dup1\n      calldatasize\n      sub\n      dup2\n      add\n      swap1\n      tag_33\n      swap2\n      swap1\n      tag_22\n      jump\t// in\n    tag_33:\n      tag_34\n      jump\t// in\n    tag_32:\n      mload(0x40)\n      tag_35\n      swap7\n      swap6\n      swap5\n      swap4\n      swap3\n      swap2\n      swap1\n      tag_25\n      jump\t// in\n    tag_35:\n      mload(0x40)\n      dup1\n      swap2\n      sub\n      swap1\n      return\n        /* \"contracts/ListaDeTareas.sol\":3471:3976  function buscarTareaPorHash(bytes32 _hash_tarea) external view returns (... */\n    tag_7:\n      tag_36\n      0x04\n      dup1\n      calldatasize\n      sub\n      dup2\n      add\n      swap1\n      tag_37\n      swap2\n      swap1\n      tag_38\n      jump\t// in\n    tag_37:\n      tag_39\n      jump\t// in\n    tag_36:\n      mload(0x40)\n      tag_40\n      swap6\n      swap5\n      swap4\n      swap3\n      swap2\n      swap1\n      tag_41\n      jump\t// in\n    tag_40:\n      mload(0x40)\n      dup1\n      swap2\n      sub\n      swap1\n      return\n        /* \"contracts/ListaDeTareas.sol\":4047:4398  function buscarTareasPorNombre(string calldata _Nombre_De_Tarea) external view returns (Tarea[] memory resultados) {... */\n    tag_8:\n      tag_42\n      0x04\n      dup1\n      calldatasize\n      sub\n      dup2\n      add\n      swap1\n      tag_43\n      swap2\n      swap1\n      tag_44\n      jump\t// in\n    tag_43:\n      tag_45\n      jump\t// in\n    tag_42:\n      mload(0x40)\n      tag_46\n      swap2\n      swap1\n      tag_47\n      jump\t// in\n    tag_46:\n      mload(0x40)\n      dup1\n      swap2\n      sub\n      swap1\n      return\n        /* \"contracts/ListaDeTareas.sol\":1170:2055  function crearTarea(string calldata _Nombre_De_Tarea, string calldata _Descripcion_De_Tarea) external {... */\n    tag_9:\n      tag_48\n      0x04\n      dup1\n      calldatasize\n      sub\n      dup2\n      add\n      swap1\n      tag_49\n      swap2\n      swap1\n      tag_50\n      jump\t// in\n    tag_49:\n      tag_51\n      jump\t// in\n    tag_48:\n      stop\n        /* \"contracts/ListaDeTareas.sol\":2793:2892  function obtenerCantidadTareas() external view returns (uint) {... */\n    tag_10:\n      tag_52\n      tag_53\n      jump\t// in\n    tag_52:\n      mload(0x40)\n      tag_54\n      swap2\n      swap1\n      tag_19\n      jump\t// in\n    tag_54:\n      mload(0x40)\n      dup1\n      swap2\n      sub\n      swap1\n      return\n        /* \"contracts/ListaDeTareas.sol\":2127:2734  function actualizarEstado(uint indice, EstadoTarea nuevoEstado) external {... */\n    tag_11:\n      tag_55\n      0x04\n      dup1\n      calldatasize\n      sub\n      dup2\n      add\n      swap1\n      tag_56\n      swap2\n      swap1\n      tag_57\n      jump\t// in\n    tag_56:\n      tag_58\n      jump\t// in\n    tag_55:\n      stop\n        /* \"contracts/ListaDeTareas.sol\":606:656  mapping(bytes32 => uint) public indicePorHashTarea */\n    tag_12:\n      tag_59\n      0x04\n      dup1\n      calldatasize\n      sub\n      dup2\n      add\n      swap1\n      tag_60\n      swap2\n      swap1\n      tag_38\n      jump\t// in\n    tag_60:\n      tag_61\n      jump\t// in\n    tag_59:\n      mload(0x40)\n      tag_62\n      swap2\n      swap1\n      tag_19\n      jump\t// in\n    tag_62:\n      mload(0x40)\n      dup1\n      swap2\n      sub\n      swap1\n      return\n        /* \"contracts/ListaDeTareas.sol\":662:711  mapping(string => uint[]) public indicesPorNombre */\n    tag_17:\n      0x02\n      dup3\n      dup1\n      mload\n      0x20\n      dup2\n      add\n      dup3\n      add\n      dup1\n      mload\n      dup5\n      dup3\n      mstore\n      0x20\n      dup4\n      add\n      0x20\n      dup6\n      add\n      keccak256\n      dup2\n      dup4\n      mstore\n      dup1\n      swap6\n      pop\n      pop\n      pop\n      pop\n      pop\n      pop\n      dup2\n      dup2\n      sload\n      dup2\n      lt\n      tag_63\n      jumpi\n      0x00\n      dup1\n      revert\n    tag_63:\n      swap1\n      0x00\n      mstore\n      keccak256(0x00, 0x20)\n      add\n      0x00\n      swap2\n      pop\n      swap2\n      pop\n      pop\n      sload\n      dup2\n      jump\t// out\n        /* \"contracts/ListaDeTareas.sol\":548:569  Tarea[] public tareas */\n    tag_23:\n      0x00\n      dup2\n      dup2\n      sload\n      dup2\n      lt\n      tag_65\n      jumpi\n      0x00\n      dup1\n      revert\n    tag_65:\n      swap1\n      0x00\n      mstore\n      keccak256(0x00, 0x20)\n      swap1\n      0x06\n      mul\n      add\n      0x00\n      swap2\n      pop\n      swap1\n      pop\n      dup1\n      0x00\n      add\n      dup1\n      sload\n      tag_67\n      swap1\n      tag_68\n      jump\t// in\n    tag_67:\n      dup1\n      0x1f\n      add\n      0x20\n      dup1\n      swap2\n      div\n      mul\n      0x20\n      add\n      mload(0x40)\n      swap1\n      dup2\n      add\n      0x40\n      mstore\n      dup1\n      swap3\n      swap2\n      swap1\n      dup2\n      dup2\n      mstore\n      0x20\n      add\n      dup3\n      dup1\n      sload\n      tag_69\n      swap1\n      tag_68\n      jump\t// in\n    tag_69:\n      dup1\n      iszero\n      tag_70\n      jumpi\n      dup1\n      0x1f\n      lt\n      tag_71\n      jumpi\n      0x0100\n      dup1\n      dup4\n      sload\n      div\n      mul\n      dup4\n      mstore\n      swap2\n      0x20\n      add\n      swap2\n      jump(tag_70)\n    tag_71:\n      dup3\n      add\n      swap2\n      swap1\n      0x00\n      mstore\n      keccak256(0x00, 0x20)\n      swap1\n    tag_72:\n      dup2\n      sload\n      dup2\n      mstore\n      swap1\n      0x01\n      add\n      swap1\n      0x20\n      add\n      dup1\n      dup4\n      gt\n      tag_72\n      jumpi\n      dup3\n      swap1\n      sub\n      0x1f\n      and\n      dup3\n      add\n      swap2\n    tag_70:\n      pop\n      pop\n      pop\n      pop\n      pop\n      swap1\n      dup1\n      0x01\n      add\n      dup1\n      sload\n      tag_73\n      swap1\n      tag_68\n      jump\t// in\n    tag_73:\n      dup1\n      0x1f\n      add\n      0x20\n      dup1\n      swap2\n      div\n      mul\n      0x20\n      add\n      mload(0x40)\n      swap1\n      dup2\n      add\n      0x40\n      mstore\n      dup1\n      swap3\n      swap2\n      swap1\n      dup2\n      dup2\n      mstore\n      0x20\n      add\n      dup3\n      dup1\n      sload\n      tag_74\n      swap1\n      tag_68\n      jump\t// in\n    tag_74:\n      dup1\n      iszero\n      tag_75\n      jumpi\n      dup1\n      0x1f\n      lt\n      tag_76\n      jumpi\n      0x0100\n      dup1\n      dup4\n      sload\n      div\n      mul\n      dup4\n      mstore\n      swap2\n      0x20\n      add\n      swap2\n      jump(tag_75)\n    tag_76:\n      dup3\n      add\n      swap2\n      swap1\n      0x00\n      mstore\n      keccak256(0x00, 0x20)\n      swap1\n    tag_77:\n      dup2\n      sload\n      dup2\n      mstore\n      swap1\n      0x01\n      add\n      swap1\n      0x20\n      add\n      dup1\n      dup4\n      gt\n      tag_77\n      jumpi\n      dup3\n      swap1\n      sub\n      0x1f\n      and\n      dup3\n      add\n      swap2\n    tag_75:\n      pop\n      pop\n      pop\n      pop\n      pop\n      swap1\n      dup1\n      0x02\n      add\n      0x00\n      swap1\n      sload\n      swap1\n      0x0100\n      exp\n      swap1\n      div\n      0xff\n      and\n      swap1\n      dup1\n      0x03\n      add\n      sload\n      swap1\n      dup1\n      0x04\n      add\n      sload\n      swap1\n      dup1\n      0x05\n      add\n      0x00\n      swap1\n      sload\n      swap1\n      0x0100\n      exp\n      swap1\n      div\n      0xffffffffffffffffffffffffffffffffffffffff\n      and\n      swap1\n      pop\n      dup7\n      jump\t// out\n        /* \"contracts/ListaDeTareas.sol\":4481:4689  function generarHashTarea(string memory _Nombre_De_Tarea, uint _fecha, EstadoTarea _estado) public pure returns (bytes32) {... */\n    tag_29:\n        /* \"contracts/ListaDeTareas.sol\":4594:4601  bytes32 */\n      0x00\n        /* \"contracts/ListaDeTareas.sol\":4647:4663  _Nombre_De_Tarea */\n      dup4\n        /* \"contracts/ListaDeTareas.sol\":4665:4671  _fecha */\n      dup4\n        /* \"contracts/ListaDeTareas.sol\":4673:4680  _estado */\n      dup4\n        /* \"contracts/ListaDeTareas.sol\":4630:4681  abi.encodePacked(_Nombre_De_Tarea, _fecha, _estado) */\n      add(0x20, mload(0x40))\n      tag_79\n      swap4\n      swap3\n      swap2\n      swap1\n      tag_80\n      jump\t// in\n    tag_79:\n      mload(0x40)\n      0x20\n      dup2\n      dup4\n      sub\n      sub\n      dup2\n      mstore\n      swap1\n      0x40\n      mstore\n        /* \"contracts/ListaDeTareas.sol\":4620:4682  keccak256(abi.encodePacked(_Nombre_De_Tarea, _fecha, _estado)) */\n      dup1\n      mload\n      swap1\n      0x20\n      add\n      keccak256\n        /* \"contracts/ListaDeTareas.sol\":4613:4682  return keccak256(abi.encodePacked(_Nombre_De_Tarea, _fecha, _estado)) */\n      swap1\n      pop\n        /* \"contracts/ListaDeTareas.sol\":4481:4689  function generarHashTarea(string memory _Nombre_De_Tarea, uint _fecha, EstadoTarea _estado) public pure returns (bytes32) {... */\n      swap4\n      swap3\n      pop\n      pop\n      pop\n      jump\t// out\n        /* \"contracts/ListaDeTareas.sol\":2945:3422  function obtenerTareaPorIndice(uint indice) external view returns (... */\n    tag_34:\n        /* \"contracts/ListaDeTareas.sol\":3021:3050  string memory Nombre_De_Tarea */\n      0x60\n        /* \"contracts/ListaDeTareas.sol\":3060:3094  string memory Descripcion_De_Tarea */\n      dup1\n        /* \"contracts/ListaDeTareas.sol\":3104:3122  EstadoTarea estado */\n      0x00\n        /* \"contracts/ListaDeTareas.sol\":3132:3142  uint fecha */\n      0x00\n        /* \"contracts/ListaDeTareas.sol\":3152:3170  bytes32 hash_tarea */\n      0x00\n        /* \"contracts/ListaDeTareas.sol\":3180:3195  address creador */\n      0x00\n        /* \"contracts/ListaDeTareas.sol\":3229:3235  tareas */\n      0x00\n        /* \"contracts/ListaDeTareas.sol\":3229:3242  tareas.length */\n      dup1\n      sload\n      swap1\n      pop\n        /* \"contracts/ListaDeTareas.sol\":3220:3226  indice */\n      dup8\n        /* \"contracts/ListaDeTareas.sol\":3220:3242  indice < tareas.length */\n      lt\n        /* \"contracts/ListaDeTareas.sol\":3212:3261  require(indice < tareas.length, \"Indice invaido\") */\n      tag_82\n      jumpi\n      mload(0x40)\n      0x08c379a000000000000000000000000000000000000000000000000000000000\n      dup2\n      mstore\n      0x04\n      add\n      tag_83\n      swap1\n      tag_84\n      jump\t// in\n    tag_83:\n      mload(0x40)\n      dup1\n      swap2\n      sub\n      swap1\n      revert\n    tag_82:\n        /* \"contracts/ListaDeTareas.sol\":3271:3285  Tarea memory t */\n      0x00\n        /* \"contracts/ListaDeTareas.sol\":3288:3294  tareas */\n      0x00\n        /* \"contracts/ListaDeTareas.sol\":3295:3301  indice */\n      dup9\n        /* \"contracts/ListaDeTareas.sol\":3288:3302  tareas[indice] */\n      dup2\n      sload\n      dup2\n      lt\n      tag_85\n      jumpi\n      tag_86\n      tag_87\n      jump\t// in\n    tag_86:\n    tag_85:\n      swap1\n      0x00\n      mstore\n      keccak256(0x00, 0x20)\n      swap1\n      0x06\n      mul\n      add\n        /* \"contracts/ListaDeTareas.sol\":3271:3302  Tarea memory t = tareas[indice] */\n      mload(0x40)\n      dup1\n      0xc0\n      add\n      0x40\n      mstore\n      swap1\n      dup2\n      0x00\n      dup3\n      add\n      dup1\n      sload\n      tag_89\n      swap1\n      tag_68\n      jump\t// in\n    tag_89:\n      dup1\n      0x1f\n      add\n      0x20\n      dup1\n      swap2\n      div\n      mul\n      0x20\n      add\n      mload(0x40)\n      swap1\n      dup2\n      add\n      0x40\n      mstore\n      dup1\n      swap3\n      swap2\n      swap1\n      dup2\n      dup2\n      mstore\n      0x20\n      add\n      dup3\n      dup1\n      sload\n      tag_90\n      swap1\n      tag_68\n      jump\t// in\n    tag_90:\n      dup1\n      iszero\n      tag_91\n      jumpi\n      dup1\n      0x1f\n      lt\n      tag_92\n      jumpi\n      0x0100\n      dup1\n      dup4\n      sload\n      div\n      mul\n      dup4\n      mstore\n      swap2\n      0x20\n      add\n      swap2\n      jump(tag_91)\n    tag_92:\n      dup3\n      add\n      swap2\n      swap1\n      0x00\n      mstore\n      keccak256(0x00, 0x20)\n      swap1\n    tag_93:\n      dup2\n      sload\n      dup2\n      mstore\n      swap1\n      0x01\n      add\n      swap1\n      0x20\n      add\n      dup1\n      dup4\n      gt\n      tag_93\n      jumpi\n      dup3\n      swap1\n      sub\n      0x1f\n      and\n      dup3\n      add\n      swap2\n    tag_91:\n      pop\n      pop\n      pop\n      pop\n      pop\n      dup2\n      mstore\n      0x20\n      add\n      0x01\n      dup3\n      add\n      dup1\n      sload\n      tag_94\n      swap1\n      tag_68\n      jump\t// in\n    tag_94:\n      dup1\n      0x1f\n      add\n      0x20\n      dup1\n      swap2\n      div\n      mul\n      0x20\n      add\n      mload(0x40)\n      swap1\n      dup2\n      add\n      0x40\n      mstore\n      dup1\n      swap3\n      swap2\n      swap1\n      dup2\n      dup2\n      mstore\n      0x20\n      add\n      dup3\n      dup1\n      sload\n      tag_95\n      swap1\n      tag_68\n      jump\t// in\n    tag_95:\n      dup1\n      iszero\n      tag_96\n      jumpi\n      dup1\n      0x1f\n      lt\n      tag_97\n      jumpi\n      0x0100\n      dup1\n      dup4\n      sload\n      div\n      mul\n      dup4\n      mstore\n      swap2\n      0x20\n      add\n      swap2\n      jump(tag_96)\n    tag_97:\n      dup3\n      add\n      swap2\n      swap1\n      0x00\n      mstore\n      keccak256(0x00, 0x20)\n      swap1\n    tag_98:\n      dup2\n      sload\n      dup2\n      mstore\n      swap1\n      0x01\n      add\n      swap1\n      0x20\n      add\n      dup1\n      dup4\n      gt\n      tag_98\n      jumpi\n      dup3\n      swap1\n      sub\n      0x1f\n      and\n      dup3\n      add\n      swap2\n    tag_96:\n      pop\n      pop\n      pop\n      pop\n      pop\n      dup2\n      mstore\n      0x20\n      add\n      0x02\n      dup3\n      add\n      0x00\n      swap1\n      sload\n      swap1\n      0x0100\n      exp\n      swap1\n      div\n      0xff\n      and\n      0x02\n      dup2\n      gt\n      iszero\n      tag_99\n      jumpi\n      tag_100\n      tag_101\n      jump\t// in\n    tag_100:\n    tag_99:\n      0x02\n      dup2\n      gt\n      iszero\n      tag_102\n      jumpi\n      tag_103\n      tag_101\n      jump\t// in\n    tag_103:\n    tag_102:\n      dup2\n      mstore\n      0x20\n      add\n      0x03\n      dup3\n      add\n      sload\n      dup2\n      mstore\n      0x20\n      add\n      0x04\n      dup3\n      add\n      sload\n      dup2\n      mstore\n      0x20\n      add\n      0x05\n      dup3\n      add\n      0x00\n      swap1\n      sload\n      swap1\n      0x0100\n      exp\n      swap1\n      div\n      0xffffffffffffffffffffffffffffffffffffffff\n      and\n      0xffffffffffffffffffffffffffffffffffffffff\n      and\n      0xffffffffffffffffffffffffffffffffffffffff\n      and\n      dup2\n      mstore\n      pop\n      pop\n      swap1\n      pop\n        /* \"contracts/ListaDeTareas.sol\":3320:3321  t */\n      dup1\n        /* \"contracts/ListaDeTareas.sol\":3320:3337  t.Nombre_De_Tarea */\n      0x00\n      add\n      mload\n        /* \"contracts/ListaDeTareas.sol\":3339:3340  t */\n      dup2\n        /* \"contracts/ListaDeTareas.sol\":3339:3361  t.Descripcion_De_Tarea */\n      0x20\n      add\n      mload\n        /* \"contracts/ListaDeTareas.sol\":3363:3364  t */\n      dup3\n        /* \"contracts/ListaDeTareas.sol\":3363:3371  t.estado */\n      0x40\n      add\n      mload\n        /* \"contracts/ListaDeTareas.sol\":3373:3374  t */\n      dup4\n        /* \"contracts/ListaDeTareas.sol\":3373:3389  t.fecha_creacion */\n      0x60\n      add\n      mload\n        /* \"contracts/ListaDeTareas.sol\":3391:3392  t */\n      dup5\n        /* \"contracts/ListaDeTareas.sol\":3391:3403  t.hash_tarea */\n      0x80\n      add\n      mload\n        /* \"contracts/ListaDeTareas.sol\":3405:3406  t */\n      dup6\n        /* \"contracts/ListaDeTareas.sol\":3405:3414  t.creador */\n      0xa0\n      add\n      mload\n        /* \"contracts/ListaDeTareas.sol\":3312:3415  return (t.Nombre_De_Tarea, t.Descripcion_De_Tarea, t.estado, t.fecha_creacion, t.hash_tarea, t.creador) */\n      swap7\n      pop\n      swap7\n      pop\n      swap7\n      pop\n      swap7\n      pop\n      swap7\n      pop\n      swap7\n      pop\n      pop\n        /* \"contracts/ListaDeTareas.sol\":2945:3422  function obtenerTareaPorIndice(uint indice) external view returns (... */\n      swap2\n      swap4\n      swap6\n      pop\n      swap2\n      swap4\n      swap6\n      jump\t// out\n        /* \"contracts/ListaDeTareas.sol\":3471:3976  function buscarTareaPorHash(bytes32 _hash_tarea) external view returns (... */\n    tag_39:\n        /* \"contracts/ListaDeTareas.sol\":3552:3581  string memory Nombre_De_Tarea */\n      0x60\n        /* \"contracts/ListaDeTareas.sol\":3591:3625  string memory Descripcion_De_Tarea */\n      dup1\n        /* \"contracts/ListaDeTareas.sol\":3635:3653  EstadoTarea estado */\n      0x00\n        /* \"contracts/ListaDeTareas.sol\":3663:3673  uint fecha */\n      0x00\n        /* \"contracts/ListaDeTareas.sol\":3683:3698  address creador */\n      0x00\n        /* \"contracts/ListaDeTareas.sol\":3715:3726  uint indice */\n      0x00\n        /* \"contracts/ListaDeTareas.sol\":3729:3747  indicePorHashTarea */\n      0x01\n        /* \"contracts/ListaDeTareas.sol\":3729:3760  indicePorHashTarea[_hash_tarea] */\n      0x00\n        /* \"contracts/ListaDeTareas.sol\":3748:3759  _hash_tarea */\n      dup9\n        /* \"contracts/ListaDeTareas.sol\":3729:3760  indicePorHashTarea[_hash_tarea] */\n      dup2\n      mstore\n      0x20\n      add\n      swap1\n      dup2\n      mstore\n      0x20\n      add\n      0x00\n      keccak256\n      sload\n        /* \"contracts/ListaDeTareas.sol\":3715:3760  uint indice = indicePorHashTarea[_hash_tarea] */\n      swap1\n      pop\n        /* \"contracts/ListaDeTareas.sol\":3787:3793  tareas */\n      0x00\n        /* \"contracts/ListaDeTareas.sol\":3787:3800  tareas.length */\n      dup1\n      sload\n      swap1\n      pop\n        /* \"contracts/ListaDeTareas.sol\":3778:3784  indice */\n      dup2\n        /* \"contracts/ListaDeTareas.sol\":3778:3800  indice < tareas.length */\n      lt\n        /* \"contracts/ListaDeTareas.sol\":3770:3828  require(indice < tareas.length, \"No se encontro la tarea\") */\n      tag_105\n      jumpi\n      mload(0x40)\n      0x08c379a000000000000000000000000000000000000000000000000000000000\n      dup2\n      mstore\n      0x04\n      add\n      tag_106\n      swap1\n      tag_107\n      jump\t// in\n    tag_106:\n      mload(0x40)\n      dup1\n      swap2\n      sub\n      swap1\n      revert\n    tag_105:\n        /* \"contracts/ListaDeTareas.sol\":3839:3853  Tarea memory t */\n      0x00\n        /* \"contracts/ListaDeTareas.sol\":3856:3862  tareas */\n      0x00\n        /* \"contracts/ListaDeTareas.sol\":3863:3869  indice */\n      dup3\n        /* \"contracts/ListaDeTareas.sol\":3856:3870  tareas[indice] */\n      dup2\n      sload\n      dup2\n      lt\n      tag_108\n      jumpi\n      tag_109\n      tag_87\n      jump\t// in\n    tag_109:\n    tag_108:\n      swap1\n      0x00\n      mstore\n      keccak256(0x00, 0x20)\n      swap1\n      0x06\n      mul\n      add\n        /* \"contracts/ListaDeTareas.sol\":3839:3870  Tarea memory t = tareas[indice] */\n      mload(0x40)\n      dup1\n      0xc0\n      add\n      0x40\n      mstore\n      swap1\n      dup2\n      0x00\n      dup3\n      add\n      dup1\n      sload\n      tag_111\n      swap1\n      tag_68\n      jump\t// in\n    tag_111:\n      dup1\n      0x1f\n      add\n      0x20\n      dup1\n      swap2\n      div\n      mul\n      0x20\n      add\n      mload(0x40)\n      swap1\n      dup2\n      add\n      0x40\n      mstore\n      dup1\n      swap3\n      swap2\n      swap1\n      dup2\n      dup2\n      mstore\n      0x20\n      add\n      dup3\n      dup1\n      sload\n      tag_112\n      swap1\n      tag_68\n      jump\t// in\n    tag_112:\n      dup1\n      iszero\n      tag_113\n      jumpi\n      dup1\n      0x1f\n      lt\n      tag_114\n      jumpi\n      0x0100\n      dup1\n      dup4\n      sload\n      div\n      mul\n      dup4\n      mstore\n      swap2\n      0x20\n      add\n      swap2\n      jump(tag_113)\n    tag_114:\n      dup3\n      add\n      swap2\n      swap1\n      0x00\n      mstore\n      keccak256(0x00, 0x20)\n      swap1\n    tag_115:\n      dup2\n      sload\n      dup2\n      mstore\n      swap1\n      0x01\n      add\n      swap1\n      0x20\n      add\n      dup1\n      dup4\n      gt\n      tag_115\n      jumpi\n      dup3\n      swap1\n      sub\n      0x1f\n      and\n      dup3\n      add\n      swap2\n    tag_113:\n      pop\n      pop\n      pop\n      pop\n      pop\n      dup2\n      mstore\n      0x20\n      add\n      0x01\n      dup3\n      add\n      dup1\n      sload\n      tag_116\n      swap1\n      tag_68\n      jump\t// in\n    tag_116:\n      dup1\n      0x1f\n      add\n      0x20\n      dup1\n      swap2\n      div\n      mul\n      0x20\n      add\n      mload(0x40)\n      swap1\n      dup2\n      add\n      0x40\n      mstore\n      dup1\n      swap3\n      swap2\n      swap1\n      dup2\n      dup2\n      mstore\n      0x20\n      add\n      dup3\n      dup1\n      sload\n      tag_117\n      swap1\n      tag_68\n      jump\t// in\n    tag_117:\n      dup1\n      iszero\n      tag_118\n      jumpi\n      dup1\n      0x1f\n      lt\n      tag_119\n      jumpi\n      0x0100\n      dup1\n      dup4\n      sload\n      div\n      mul\n      dup4\n      mstore\n      swap2\n      0x20\n      add\n      swap2\n      jump(tag_118)\n    tag_119:\n      dup3\n      add\n      swap2\n      swap1\n      0x00\n      mstore\n      keccak256(0x00, 0x20)\n      swap1\n    tag_120:\n      dup2\n      sload\n      dup2\n      mstore\n      swap1\n      0x01\n      add\n      swap1\n      0x20\n      add\n      dup1\n      dup4\n      gt\n      tag_120\n      jumpi\n      dup3\n      swap1\n      sub\n      0x1f\n      and\n      dup3\n      add\n      swap2\n    tag_118:\n      pop\n      pop\n      pop\n      pop\n      pop\n      dup2\n      mstore\n      0x20\n      add\n      0x02\n      dup3\n      add\n      0x00\n      swap1\n      sload\n      swap1\n      0x0100\n      exp\n      swap1\n      div\n      0xff\n      and\n      0x02\n      dup2\n      gt\n      iszero\n      tag_121\n      jumpi\n      tag_122\n      tag_101\n      jump\t// in\n    tag_122:\n    tag_121:\n      0x02\n      dup2\n      gt\n      iszero\n      tag_123\n      jumpi\n      tag_124\n      tag_101\n      jump\t// in\n    tag_124:\n    tag_123:\n      dup2\n      mstore\n      0x20\n      add\n      0x03\n      dup3\n      add\n      sload\n      dup2\n      mstore\n      0x20\n      add\n      0x04\n      dup3\n      add\n      sload\n      dup2\n      mstore\n      0x20\n      add\n      0x05\n      dup3\n      add\n      0x00\n      swap1\n      sload\n      swap1\n      0x0100\n      exp\n      swap1\n      div\n      0xffffffffffffffffffffffffffffffffffffffff\n      and\n      0xffffffffffffffffffffffffffffffffffffffff\n      and\n      0xffffffffffffffffffffffffffffffffffffffff\n      and\n      dup2\n      mstore\n      pop\n      pop\n      swap1\n      pop\n        /* \"contracts/ListaDeTareas.sol\":3888:3889  t */\n      dup1\n        /* \"contracts/ListaDeTareas.sol\":3888:3905  t.Nombre_De_Tarea */\n      0x00\n      add\n      mload\n        /* \"contracts/ListaDeTareas.sol\":3907:3908  t */\n      dup2\n        /* \"contracts/ListaDeTareas.sol\":3907:3929  t.Descripcion_De_Tarea */\n      0x20\n      add\n      mload\n        /* \"contracts/ListaDeTareas.sol\":3931:3932  t */\n      dup3\n        /* \"contracts/ListaDeTareas.sol\":3931:3939  t.estado */\n      0x40\n      add\n      mload\n        /* \"contracts/ListaDeTareas.sol\":3941:3942  t */\n      dup4\n        /* \"contracts/ListaDeTareas.sol\":3941:3957  t.fecha_creacion */\n      0x60\n      add\n      mload\n        /* \"contracts/ListaDeTareas.sol\":3959:3960  t */\n      dup5\n        /* \"contracts/ListaDeTareas.sol\":3959:3968  t.creador */\n      0xa0\n      add\n      mload\n        /* \"contracts/ListaDeTareas.sol\":3880:3969  return (t.Nombre_De_Tarea, t.Descripcion_De_Tarea, t.estado, t.fecha_creacion, t.creador) */\n      swap7\n      pop\n      swap7\n      pop\n      swap7\n      pop\n      swap7\n      pop\n      swap7\n      pop\n      pop\n      pop\n        /* \"contracts/ListaDeTareas.sol\":3471:3976  function buscarTareaPorHash(bytes32 _hash_tarea) external view returns (... */\n      swap2\n      swap4\n      swap6\n      swap1\n      swap3\n      swap5\n      pop\n      jump\t// out\n        /* \"contracts/ListaDeTareas.sol\":4047:4398  function buscarTareasPorNombre(string calldata _Nombre_De_Tarea) external view returns (Tarea[] memory resultados) {... */\n    tag_45:\n        /* \"contracts/ListaDeTareas.sol\":4135:4160  Tarea[] memory resultados */\n      0x60\n        /* \"contracts/ListaDeTareas.sol\":4172:4193  uint[] memory indices */\n      0x00\n        /* \"contracts/ListaDeTareas.sol\":4196:4212  indicesPorNombre */\n      0x02\n        /* \"contracts/ListaDeTareas.sol\":4213:4229  _Nombre_De_Tarea */\n      dup5\n      dup5\n        /* \"contracts/ListaDeTareas.sol\":4196:4230  indicesPorNombre[_Nombre_De_Tarea] */\n      mload(0x40)\n      tag_126\n      swap3\n      swap2\n      swap1\n      tag_127\n      jump\t// in\n    tag_126:\n      swap1\n      dup2\n      mstore\n      0x20\n      add\n      mload(0x40)\n      dup1\n      swap2\n      sub\n      swap1\n      keccak256\n        /* \"contracts/ListaDeTareas.sol\":4172:4230  uint[] memory indices = indicesPorNombre[_Nombre_De_Tarea] */\n      dup1\n      sload\n      dup1\n      0x20\n      mul\n      0x20\n      add\n      mload(0x40)\n      swap1\n      dup2\n      add\n      0x40\n      mstore\n      dup1\n      swap3\n      swap2\n      swap1\n      dup2\n      dup2\n      mstore\n      0x20\n      add\n      dup3\n      dup1\n      sload\n      dup1\n      iszero\n      tag_128\n      jumpi\n      0x20\n      mul\n      dup3\n      add\n      swap2\n      swap1\n      0x00\n      mstore\n      keccak256(0x00, 0x20)\n      swap1\n    tag_129:\n      dup2\n      sload\n      dup2\n      mstore\n      0x20\n      add\n      swap1\n      0x01\n      add\n      swap1\n      dup1\n      dup4\n      gt\n      tag_129\n      jumpi\n    tag_128:\n      pop\n      pop\n      pop\n      pop\n      pop\n      swap1\n      pop\n        /* \"contracts/ListaDeTareas.sol\":4265:4272  indices */\n      dup1\n        /* \"contracts/ListaDeTareas.sol\":4265:4279  indices.length */\n      mload\n        /* \"contracts/ListaDeTareas.sol\":4253:4280  new Tarea[](indices.length) */\n      0xffffffffffffffff\n      dup2\n      gt\n      iszero\n      tag_130\n      jumpi\n      tag_131\n      tag_132\n      jump\t// in\n    tag_131:\n    tag_130:\n      mload(0x40)\n      swap1\n      dup1\n      dup3\n      mstore\n      dup1\n      0x20\n      mul\n      0x20\n      add\n      dup3\n      add\n      0x40\n      mstore\n      dup1\n      iszero\n      tag_133\n      jumpi\n      dup2\n      0x20\n      add\n    tag_134:\n      tag_135\n      tag_136\n      jump\t// in\n    tag_135:\n      dup2\n      mstore\n      0x20\n      add\n      swap1\n      0x01\n      swap1\n      sub\n      swap1\n      dup2\n      tag_134\n      jumpi\n      swap1\n      pop\n    tag_133:\n      pop\n        /* \"contracts/ListaDeTareas.sol\":4240:4280  resultados = new Tarea[](indices.length) */\n      swap2\n      pop\n        /* \"contracts/ListaDeTareas.sol\":4296:4302  uint i */\n      0x00\n        /* \"contracts/ListaDeTareas.sol\":4305:4306  0 */\n      0x00\n        /* \"contracts/ListaDeTareas.sol\":4296:4306  uint i = 0 */\n      swap1\n      pop\n        /* \"contracts/ListaDeTareas.sol\":4291:4392  for (uint i = 0; i < indices.length; i++) {... */\n    tag_137:\n        /* \"contracts/ListaDeTareas.sol\":4312:4319  indices */\n      dup2\n        /* \"contracts/ListaDeTareas.sol\":4312:4326  indices.length */\n      mload\n        /* \"contracts/ListaDeTareas.sol\":4308:4309  i */\n      dup2\n        /* \"contracts/ListaDeTareas.sol\":4308:4326  i < indices.length */\n      lt\n        /* \"contracts/ListaDeTareas.sol\":4291:4392  for (uint i = 0; i < indices.length; i++) {... */\n      iszero\n      tag_138\n      jumpi\n        /* \"contracts/ListaDeTareas.sol\":4363:4369  tareas */\n      0x00\n        /* \"contracts/ListaDeTareas.sol\":4370:4377  indices */\n      dup3\n        /* \"contracts/ListaDeTareas.sol\":4378:4379  i */\n      dup3\n        /* \"contracts/ListaDeTareas.sol\":4370:4380  indices[i] */\n      dup2\n      mload\n      dup2\n      lt\n      tag_140\n      jumpi\n      tag_141\n      tag_87\n      jump\t// in\n    tag_141:\n    tag_140:\n      0x20\n      mul\n      0x20\n      add\n      add\n      mload\n        /* \"contracts/ListaDeTareas.sol\":4363:4381  tareas[indices[i]] */\n      dup2\n      sload\n      dup2\n      lt\n      tag_142\n      jumpi\n      tag_143\n      tag_87\n      jump\t// in\n    tag_143:\n    tag_142:\n      swap1\n      0x00\n      mstore\n      keccak256(0x00, 0x20)\n      swap1\n      0x06\n      mul\n      add\n        /* \"contracts/ListaDeTareas.sol\":4347:4381  resultados[i] = tareas[indices[i]] */\n      mload(0x40)\n      dup1\n      0xc0\n      add\n      0x40\n      mstore\n      swap1\n      dup2\n      0x00\n      dup3\n      add\n      dup1\n      sload\n      tag_145\n      swap1\n      tag_68\n      jump\t// in\n    tag_145:\n      dup1\n      0x1f\n      add\n      0x20\n      dup1\n      swap2\n      div\n      mul\n      0x20\n      add\n      mload(0x40)\n      swap1\n      dup2\n      add\n      0x40\n      mstore\n      dup1\n      swap3\n      swap2\n      swap1\n      dup2\n      dup2\n      mstore\n      0x20\n      add\n      dup3\n      dup1\n      sload\n      tag_146\n      swap1\n      tag_68\n      jump\t// in\n    tag_146:\n      dup1\n      iszero\n      tag_147\n      jumpi\n      dup1\n      0x1f\n      lt\n      tag_148\n      jumpi\n      0x0100\n      dup1\n      dup4\n      sload\n      div\n      mul\n      dup4\n      mstore\n      swap2\n      0x20\n      add\n      swap2\n      jump(tag_147)\n    tag_148:\n      dup3\n      add\n      swap2\n      swap1\n      0x00\n      mstore\n      keccak256(0x00, 0x20)\n      swap1\n    tag_149:\n      dup2\n      sload\n      dup2\n      mstore\n      swap1\n      0x01\n      add\n      swap1\n      0x20\n      add\n      dup1\n      dup4\n      gt\n      tag_149\n      jumpi\n      dup3\n      swap1\n      sub\n      0x1f\n      and\n      dup3\n      add\n      swap2\n    tag_147:\n      pop\n      pop\n      pop\n      pop\n      pop\n      dup2\n      mstore\n      0x20\n      add\n      0x01\n      dup3\n      add\n      dup1\n      sload\n      tag_150\n      swap1\n      tag_68\n      jump\t// in\n    tag_150:\n      dup1\n      0x1f\n      add\n      0x20\n      dup1\n      swap2\n      div\n      mul\n      0x20\n      add\n      mload(0x40)\n      swap1\n      dup2\n      add\n      0x40\n      mstore\n      dup1\n      swap3\n      swap2\n      swap1\n      dup2\n      dup2\n      mstore\n      0x20\n      add\n      dup3\n      dup1\n      sload\n      tag_151\n      swap1\n      tag_68\n      jump\t// in\n    tag_151:\n      dup1\n      iszero\n      tag_152\n      jumpi\n      dup1\n      0x1f\n      lt\n      tag_153\n      jumpi\n      0x0100\n      dup1\n      dup4\n      sload\n      div\n      mul\n      dup4\n      mstore\n      swap2\n      0x20\n      add\n      swap2\n      jump(tag_152)\n    tag_153:\n      dup3\n      add\n      swap2\n      swap1\n      0x00\n      mstore\n      keccak256(0x00, 0x20)\n      swap1\n    tag_154:\n      dup2\n      sload\n      dup2\n      mstore\n      swap1\n      0x01\n      add\n      swap1\n      0x20\n      add\n      dup1\n      dup4\n      gt\n      tag_154\n      jumpi\n      dup3\n      swap1\n      sub\n      0x1f\n      and\n      dup3\n      add\n      swap2\n    tag_152:\n      pop\n      pop\n      pop\n      pop\n      pop\n      dup2\n      mstore\n      0x20\n      add\n      0x02\n      dup3\n      add\n      0x00\n      swap1\n      sload\n      swap1\n      0x0100\n      exp\n      swap1\n      div\n      0xff\n      and\n      0x02\n      dup2\n      gt\n      iszero\n      tag_155\n      jumpi\n      tag_156\n      tag_101\n      jump\t// in\n    tag_156:\n    tag_155:\n      0x02\n      dup2\n      gt\n      iszero\n      tag_157\n      jumpi\n      tag_158\n      tag_101\n      jump\t// in\n    tag_158:\n    tag_157:\n      dup2\n      mstore\n      0x20\n      add\n      0x03\n      dup3\n      add\n      sload\n      dup2\n      mstore\n      0x20\n      add\n      0x04\n      dup3\n      add\n      sload\n      dup2\n      mstore\n      0x20\n      add\n      0x05\n      dup3\n      add\n      0x00\n      swap1\n      sload\n      swap1\n      0x0100\n      exp\n      swap1\n      div\n      0xffffffffffffffffffffffffffffffffffffffff\n      and\n      0xffffffffffffffffffffffffffffffffffffffff\n      and\n      0xffffffffffffffffffffffffffffffffffffffff\n      and\n      dup2\n      mstore\n      pop\n      pop\n        /* \"contracts/ListaDeTareas.sol\":4347:4357  resultados */\n      dup4\n        /* \"contracts/ListaDeTareas.sol\":4358:4359  i */\n      dup3\n        /* \"contracts/ListaDeTareas.sol\":4347:4360  resultados[i] */\n      dup2\n      mload\n      dup2\n      lt\n      tag_159\n      jumpi\n      tag_160\n      tag_87\n      jump\t// in\n    tag_160:\n    tag_159:\n      0x20\n      mul\n      0x20\n      add\n      add\n        /* \"contracts/ListaDeTareas.sol\":4347:4381  resultados[i] = tareas[indices[i]] */\n      dup2\n      swap1\n      mstore\n      pop\n        /* \"contracts/ListaDeTareas.sol\":4328:4331  i++ */\n      dup1\n      dup1\n      0x01\n      add\n      swap2\n      pop\n      pop\n        /* \"contracts/ListaDeTareas.sol\":4291:4392  for (uint i = 0; i < indices.length; i++) {... */\n      jump(tag_137)\n    tag_138:\n      pop\n        /* \"contracts/ListaDeTareas.sol\":4162:4398  {... */\n      pop\n        /* \"contracts/ListaDeTareas.sol\":4047:4398  function buscarTareasPorNombre(string calldata _Nombre_De_Tarea) external view returns (Tarea[] memory resultados) {... */\n      swap3\n      swap2\n      pop\n      pop\n      jump\t// out\n        /* \"contracts/ListaDeTareas.sol\":1170:2055  function crearTarea(string calldata _Nombre_De_Tarea, string calldata _Descripcion_De_Tarea) external {... */\n    tag_51:\n        /* \"contracts/ListaDeTareas.sol\":1282:1293  uint _fecha */\n      0x00\n        /* \"contracts/ListaDeTareas.sol\":1296:1311  block.timestamp */\n      timestamp\n        /* \"contracts/ListaDeTareas.sol\":1282:1311  uint _fecha = block.timestamp */\n      swap1\n      pop\n        /* \"contracts/ListaDeTareas.sol\":1321:1346  EstadoTarea estadoInicial */\n      0x00\n        /* \"contracts/ListaDeTareas.sol\":1349:1370  EstadoTarea.Pendiente */\n      0x00\n        /* \"contracts/ListaDeTareas.sol\":1321:1370  EstadoTarea estadoInicial = EstadoTarea.Pendiente */\n      swap1\n      pop\n        /* \"contracts/ListaDeTareas.sol\":1381:1400  bytes32 _hash_tarea */\n      0x00\n        /* \"contracts/ListaDeTareas.sol\":1403:1460  generarHashTarea(_Nombre_De_Tarea, _fecha, estadoInicial) */\n      tag_162\n        /* \"contracts/ListaDeTareas.sol\":1420:1436  _Nombre_De_Tarea */\n      dup8\n      dup8\n        /* \"contracts/ListaDeTareas.sol\":1403:1460  generarHashTarea(_Nombre_De_Tarea, _fecha, estadoInicial) */\n      dup1\n      dup1\n      0x1f\n      add\n      0x20\n      dup1\n      swap2\n      div\n      mul\n      0x20\n      add\n      mload(0x40)\n      swap1\n      dup2\n      add\n      0x40\n      mstore\n      dup1\n      swap4\n      swap3\n      swap2\n      swap1\n      dup2\n      dup2\n      mstore\n      0x20\n      add\n      dup4\n      dup4\n      dup1\n      dup3\n      dup5\n      calldatacopy\n      0x00\n      dup2\n      dup5\n      add\n      mstore\n      not(0x1f)\n      0x1f\n      dup3\n      add\n      and\n      swap1\n      pop\n      dup1\n      dup4\n      add\n      swap3\n      pop\n      pop\n      pop\n      pop\n      pop\n      pop\n      pop\n        /* \"contracts/ListaDeTareas.sol\":1438:1444  _fecha */\n      dup5\n        /* \"contracts/ListaDeTareas.sol\":1446:1459  estadoInicial */\n      dup5\n        /* \"contracts/ListaDeTareas.sol\":1403:1419  generarHashTarea */\n      tag_29\n        /* \"contracts/ListaDeTareas.sol\":1403:1460  generarHashTarea(_Nombre_De_Tarea, _fecha, estadoInicial) */\n      jump\t// in\n    tag_162:\n        /* \"contracts/ListaDeTareas.sol\":1381:1460  bytes32 _hash_tarea = generarHashTarea(_Nombre_De_Tarea, _fecha, estadoInicial) */\n      swap1\n      pop\n        /* \"contracts/ListaDeTareas.sol\":1471:1489  Tarea memory nueva */\n      0x00\n        /* \"contracts/ListaDeTareas.sol\":1492:1754  Tarea({... */\n      mload(0x40)\n      dup1\n      0xc0\n      add\n      0x40\n      mstore\n      dup1\n        /* \"contracts/ListaDeTareas.sol\":1529:1545  _Nombre_De_Tarea */\n      dup10\n      dup10\n        /* \"contracts/ListaDeTareas.sol\":1492:1754  Tarea({... */\n      dup1\n      dup1\n      0x1f\n      add\n      0x20\n      dup1\n      swap2\n      div\n      mul\n      0x20\n      add\n      mload(0x40)\n      swap1\n      dup2\n      add\n      0x40\n      mstore\n      dup1\n      swap4\n      swap3\n      swap2\n      swap1\n      dup2\n      dup2\n      mstore\n      0x20\n      add\n      dup4\n      dup4\n      dup1\n      dup3\n      dup5\n      calldatacopy\n      0x00\n      dup2\n      dup5\n      add\n      mstore\n      not(0x1f)\n      0x1f\n      dup3\n      add\n      and\n      swap1\n      pop\n      dup1\n      dup4\n      add\n      swap3\n      pop\n      pop\n      pop\n      pop\n      pop\n      pop\n      pop\n      dup2\n      mstore\n      0x20\n      add\n        /* \"contracts/ListaDeTareas.sol\":1581:1602  _Descripcion_De_Tarea */\n      dup8\n      dup8\n        /* \"contracts/ListaDeTareas.sol\":1492:1754  Tarea({... */\n      dup1\n      dup1\n      0x1f\n      add\n      0x20\n      dup1\n      swap2\n      div\n      mul\n      0x20\n      add\n      mload(0x40)\n      swap1\n      dup2\n      add\n      0x40\n      mstore\n      dup1\n      swap4\n      swap3\n      swap2\n      swap1\n      dup2\n      dup2\n      mstore\n      0x20\n      add\n      dup4\n      dup4\n      dup1\n      dup3\n      dup5\n      calldatacopy\n      0x00\n      dup2\n      dup5\n      add\n      mstore\n      not(0x1f)\n      0x1f\n      dup3\n      add\n      and\n      swap1\n      pop\n      dup1\n      dup4\n      add\n      swap3\n      pop\n      pop\n      pop\n      pop\n      pop\n      pop\n      pop\n      dup2\n      mstore\n      0x20\n      add\n        /* \"contracts/ListaDeTareas.sol\":1624:1637  estadoInicial */\n      dup5\n        /* \"contracts/ListaDeTareas.sol\":1492:1754  Tarea({... */\n      0x02\n      dup2\n      gt\n      iszero\n      tag_163\n      jumpi\n      tag_164\n      tag_101\n      jump\t// in\n    tag_164:\n    tag_163:\n      dup2\n      mstore\n      0x20\n      add\n        /* \"contracts/ListaDeTareas.sol\":1667:1673  _fecha */\n      dup6\n        /* \"contracts/ListaDeTareas.sol\":1492:1754  Tarea({... */\n      dup2\n      mstore\n      0x20\n      add\n        /* \"contracts/ListaDeTareas.sol\":1699:1710  _hash_tarea */\n      dup4\n        /* \"contracts/ListaDeTareas.sol\":1492:1754  Tarea({... */\n      dup2\n      mstore\n      0x20\n      add\n        /* \"contracts/ListaDeTareas.sol\":1733:1743  msg.sender */\n      caller\n        /* \"contracts/ListaDeTareas.sol\":1492:1754  Tarea({... */\n      0xffffffffffffffffffffffffffffffffffffffff\n      and\n      dup2\n      mstore\n      pop\n        /* \"contracts/ListaDeTareas.sol\":1471:1754  Tarea memory nueva = Tarea({... */\n      swap1\n      pop\n        /* \"contracts/ListaDeTareas.sol\":1765:1771  tareas */\n      0x00\n        /* \"contracts/ListaDeTareas.sol\":1777:1782  nueva */\n      dup2\n        /* \"contracts/ListaDeTareas.sol\":1765:1783  tareas.push(nueva) */\n      swap1\n      dup1\n      0x01\n      dup2\n      sload\n      add\n      dup1\n      dup3\n      sstore\n      dup1\n      swap2\n      pop\n      pop\n      0x01\n      swap1\n      sub\n      swap1\n      0x00\n      mstore\n      keccak256(0x00, 0x20)\n      swap1\n      0x06\n      mul\n      add\n      0x00\n      swap1\n      swap2\n      swap1\n      swap2\n      swap1\n      swap2\n      pop\n      0x00\n      dup3\n      add\n      mload\n      dup2\n      0x00\n      add\n      swap1\n      dup2\n      tag_166\n      swap2\n      swap1\n      tag_167\n      jump\t// in\n    tag_166:\n      pop\n      0x20\n      dup3\n      add\n      mload\n      dup2\n      0x01\n      add\n      swap1\n      dup2\n      tag_168\n      swap2\n      swap1\n      tag_167\n      jump\t// in\n    tag_168:\n      pop\n      0x40\n      dup3\n      add\n      mload\n      dup2\n      0x02\n      add\n      exp(0x0100, 0x00)\n      dup2\n      sload\n      dup2\n      0xff\n      mul\n      not\n      and\n      swap1\n      dup4\n      0x02\n      dup2\n      gt\n      iszero\n      tag_169\n      jumpi\n      tag_170\n      tag_101\n      jump\t// in\n    tag_170:\n    tag_169:\n      mul\n      or\n      swap1\n      sstore\n      pop\n      0x60\n      dup3\n      add\n      mload\n      dup2\n      0x03\n      add\n      sstore\n      0x80\n      dup3\n      add\n      mload\n      dup2\n      0x04\n      add\n      sstore\n      0xa0\n      dup3\n      add\n      mload\n      dup2\n      0x05\n      add\n      exp(0x0100, 0x00)\n      dup2\n      sload\n      dup2\n      0xffffffffffffffffffffffffffffffffffffffff\n      mul\n      not\n      and\n      swap1\n      dup4\n      0xffffffffffffffffffffffffffffffffffffffff\n      and\n      mul\n      or\n      swap1\n      sstore\n      pop\n      pop\n      pop\n        /* \"contracts/ListaDeTareas.sol\":1793:1804  uint indice */\n      0x00\n        /* \"contracts/ListaDeTareas.sol\":1823:1824  1 */\n      0x01\n        /* \"contracts/ListaDeTareas.sol\":1807:1813  tareas */\n      0x00\n        /* \"contracts/ListaDeTareas.sol\":1807:1820  tareas.length */\n      dup1\n      sload\n      swap1\n      pop\n        /* \"contracts/ListaDeTareas.sol\":1807:1824  tareas.length - 1 */\n      tag_171\n      swap2\n      swap1\n      tag_172\n      jump\t// in\n    tag_171:\n        /* \"contracts/ListaDeTareas.sol\":1793:1824  uint indice = tareas.length - 1 */\n      swap1\n      pop\n        /* \"contracts/ListaDeTareas.sol\":1869:1875  indice */\n      dup1\n        /* \"contracts/ListaDeTareas.sol\":1835:1853  indicePorHashTarea */\n      0x01\n        /* \"contracts/ListaDeTareas.sol\":1835:1866  indicePorHashTarea[_hash_tarea] */\n      0x00\n        /* \"contracts/ListaDeTareas.sol\":1854:1865  _hash_tarea */\n      dup6\n        /* \"contracts/ListaDeTareas.sol\":1835:1866  indicePorHashTarea[_hash_tarea] */\n      dup2\n      mstore\n      0x20\n      add\n      swap1\n      dup2\n      mstore\n      0x20\n      add\n      0x00\n      keccak256\n        /* \"contracts/ListaDeTareas.sol\":1835:1875  indicePorHashTarea[_hash_tarea] = indice */\n      dup2\n      swap1\n      sstore\n      pop\n        /* \"contracts/ListaDeTareas.sol\":1885:1901  indicesPorNombre */\n      0x02\n        /* \"contracts/ListaDeTareas.sol\":1902:1918  _Nombre_De_Tarea */\n      dup10\n      dup10\n        /* \"contracts/ListaDeTareas.sol\":1885:1919  indicesPorNombre[_Nombre_De_Tarea] */\n      mload(0x40)\n      tag_173\n      swap3\n      swap2\n      swap1\n      tag_127\n      jump\t// in\n    tag_173:\n      swap1\n      dup2\n      mstore\n      0x20\n      add\n      mload(0x40)\n      dup1\n      swap2\n      sub\n      swap1\n      keccak256\n        /* \"contracts/ListaDeTareas.sol\":1925:1931  indice */\n      dup2\n        /* \"contracts/ListaDeTareas.sol\":1885:1932  indicesPorNombre[_Nombre_De_Tarea].push(indice) */\n      swap1\n      dup1\n      0x01\n      dup2\n      sload\n      add\n      dup1\n      dup3\n      sstore\n      dup1\n      swap2\n      pop\n      pop\n      0x01\n      swap1\n      sub\n      swap1\n      0x00\n      mstore\n      keccak256(0x00, 0x20)\n      add\n      0x00\n      swap1\n      swap2\n      swap1\n      swap2\n      swap1\n      swap2\n      pop\n      sstore\n        /* \"contracts/ListaDeTareas.sol\":1948:2048  TareaCreada(_Nombre_De_Tarea, _Descripcion_De_Tarea, estadoInicial, _fecha, _hash_tarea, msg.sender) */\n      0xfd1c7c81077a5f7cf7b5488a806182b203c0b2912896326cb9a6959faffba1af\n        /* \"contracts/ListaDeTareas.sol\":1960:1976  _Nombre_De_Tarea */\n      dup10\n      dup10\n        /* \"contracts/ListaDeTareas.sol\":1978:1999  _Descripcion_De_Tarea */\n      dup10\n      dup10\n        /* \"contracts/ListaDeTareas.sol\":2001:2014  estadoInicial */\n      dup9\n        /* \"contracts/ListaDeTareas.sol\":2016:2022  _fecha */\n      dup11\n        /* \"contracts/ListaDeTareas.sol\":2024:2035  _hash_tarea */\n      dup10\n        /* \"contracts/ListaDeTareas.sol\":2037:2047  msg.sender */\n      caller\n        /* \"contracts/ListaDeTareas.sol\":1948:2048  TareaCreada(_Nombre_De_Tarea, _Descripcion_De_Tarea, estadoInicial, _fecha, _hash_tarea, msg.sender) */\n      mload(0x40)\n      tag_175\n      swap9\n      swap8\n      swap7\n      swap6\n      swap5\n      swap4\n      swap3\n      swap2\n      swap1\n      tag_176\n      jump\t// in\n    tag_175:\n      mload(0x40)\n      dup1\n      swap2\n      sub\n      swap1\n      log1\n        /* \"contracts/ListaDeTareas.sol\":1272:2055  {... */\n      pop\n      pop\n      pop\n      pop\n      pop\n        /* \"contracts/ListaDeTareas.sol\":1170:2055  function crearTarea(string calldata _Nombre_De_Tarea, string calldata _Descripcion_De_Tarea) external {... */\n      pop\n      pop\n      pop\n      pop\n      jump\t// out\n        /* \"contracts/ListaDeTareas.sol\":2793:2892  function obtenerCantidadTareas() external view returns (uint) {... */\n    tag_53:\n        /* \"contracts/ListaDeTareas.sol\":2849:2853  uint */\n      0x00\n        /* \"contracts/ListaDeTareas.sol\":2872:2878  tareas */\n      0x00\n        /* \"contracts/ListaDeTareas.sol\":2872:2885  tareas.length */\n      dup1\n      sload\n      swap1\n      pop\n        /* \"contracts/ListaDeTareas.sol\":2865:2885  return tareas.length */\n      swap1\n      pop\n        /* \"contracts/ListaDeTareas.sol\":2793:2892  function obtenerCantidadTareas() external view returns (uint) {... */\n      swap1\n      jump\t// out\n        /* \"contracts/ListaDeTareas.sol\":2127:2734  function actualizarEstado(uint indice, EstadoTarea nuevoEstado) external {... */\n    tag_58:\n        /* \"contracts/ListaDeTareas.sol\":2227:2233  tareas */\n      0x00\n        /* \"contracts/ListaDeTareas.sol\":2227:2240  tareas.length */\n      dup1\n      sload\n      swap1\n      pop\n        /* \"contracts/ListaDeTareas.sol\":2218:2224  indice */\n      dup3\n        /* \"contracts/ListaDeTareas.sol\":2218:2240  indice < tareas.length */\n      lt\n        /* \"contracts/ListaDeTareas.sol\":2210:2260  require(indice < tareas.length, \"Indice invalido\") */\n      tag_179\n      jumpi\n      mload(0x40)\n      0x08c379a000000000000000000000000000000000000000000000000000000000\n      dup2\n      mstore\n      0x04\n      add\n      tag_180\n      swap1\n      tag_181\n      jump\t// in\n    tag_180:\n      mload(0x40)\n      dup1\n      swap2\n      sub\n      swap1\n      revert\n    tag_179:\n        /* \"contracts/ListaDeTareas.sol\":2270:2289  Tarea storage tarea */\n      0x00\n        /* \"contracts/ListaDeTareas.sol\":2292:2298  tareas */\n      0x00\n        /* \"contracts/ListaDeTareas.sol\":2299:2305  indice */\n      dup4\n        /* \"contracts/ListaDeTareas.sol\":2292:2306  tareas[indice] */\n      dup2\n      sload\n      dup2\n      lt\n      tag_182\n      jumpi\n      tag_183\n      tag_87\n      jump\t// in\n    tag_183:\n    tag_182:\n      swap1\n      0x00\n      mstore\n      keccak256(0x00, 0x20)\n      swap1\n      0x06\n      mul\n      add\n        /* \"contracts/ListaDeTareas.sol\":2270:2306  Tarea storage tarea = tareas[indice] */\n      swap1\n      pop\n        /* \"contracts/ListaDeTareas.sol\":2338:2343  tarea */\n      dup1\n        /* \"contracts/ListaDeTareas.sol\":2338:2351  tarea.creador */\n      0x05\n      add\n      0x00\n      swap1\n      sload\n      swap1\n      0x0100\n      exp\n      swap1\n      div\n      0xffffffffffffffffffffffffffffffffffffffff\n      and\n        /* \"contracts/ListaDeTareas.sol\":2324:2351  msg.sender == tarea.creador */\n      0xffffffffffffffffffffffffffffffffffffffff\n      and\n        /* \"contracts/ListaDeTareas.sol\":2324:2334  msg.sender */\n      caller\n        /* \"contracts/ListaDeTareas.sol\":2324:2351  msg.sender == tarea.creador */\n      0xffffffffffffffffffffffffffffffffffffffff\n      and\n      eq\n        /* \"contracts/ListaDeTareas.sol\":2316:2393  require(msg.sender == tarea.creador, \"Solo el creador puede editar la tarea\") */\n      tag_185\n      jumpi\n      mload(0x40)\n      0x08c379a000000000000000000000000000000000000000000000000000000000\n      dup2\n      mstore\n      0x04\n      add\n      tag_186\n      swap1\n      tag_187\n      jump\t// in\n    tag_186:\n      mload(0x40)\n      dup1\n      swap2\n      sub\n      swap1\n      revert\n    tag_185:\n        /* \"contracts/ListaDeTareas.sol\":2419:2430  nuevoEstado */\n      dup2\n        /* \"contracts/ListaDeTareas.sol\":2404:2409  tarea */\n      dup2\n        /* \"contracts/ListaDeTareas.sol\":2404:2416  tarea.estado */\n      0x02\n      add\n      0x00\n        /* \"contracts/ListaDeTareas.sol\":2404:2430  tarea.estado = nuevoEstado */\n      0x0100\n      exp\n      dup2\n      sload\n      dup2\n      0xff\n      mul\n      not\n      and\n      swap1\n      dup4\n      0x02\n      dup2\n      gt\n      iszero\n      tag_188\n      jumpi\n      tag_189\n      tag_101\n      jump\t// in\n    tag_189:\n    tag_188:\n      mul\n      or\n      swap1\n      sstore\n      pop\n        /* \"contracts/ListaDeTareas.sol\":2459:2533  generarHashTarea(tarea.Nombre_De_Tarea, tarea.fecha_creacion, nuevoEstado) */\n      tag_190\n        /* \"contracts/ListaDeTareas.sol\":2476:2481  tarea */\n      dup2\n        /* \"contracts/ListaDeTareas.sol\":2476:2497  tarea.Nombre_De_Tarea */\n      0x00\n      add\n        /* \"contracts/ListaDeTareas.sol\":2459:2533  generarHashTarea(tarea.Nombre_De_Tarea, tarea.fecha_creacion, nuevoEstado) */\n      dup1\n      sload\n      tag_191\n      swap1\n      tag_68\n      jump\t// in\n    tag_191:\n      dup1\n      0x1f\n      add\n      0x20\n      dup1\n      swap2\n      div\n      mul\n      0x20\n      add\n      mload(0x40)\n      swap1\n      dup2\n      add\n      0x40\n      mstore\n      dup1\n      swap3\n      swap2\n      swap1\n      dup2\n      dup2\n      mstore\n      0x20\n      add\n      dup3\n      dup1\n      sload\n      tag_192\n      swap1\n      tag_68\n      jump\t// in\n    tag_192:\n      dup1\n      iszero\n      tag_193\n      jumpi\n      dup1\n      0x1f\n      lt\n      tag_194\n      jumpi\n      0x0100\n      dup1\n      dup4\n      sload\n      div\n      mul\n      dup4\n      mstore\n      swap2\n      0x20\n      add\n      swap2\n      jump(tag_193)\n    tag_194:\n      dup3\n      add\n      swap2\n      swap1\n      0x00\n      mstore\n      keccak256(0x00, 0x20)\n      swap1\n    tag_195:\n      dup2\n      sload\n      dup2\n      mstore\n      swap1\n      0x01\n      add\n      swap1\n      0x20\n      add\n      dup1\n      dup4\n      gt\n      tag_195\n      jumpi\n      dup3\n      swap1\n      sub\n      0x1f\n      and\n      dup3\n      add\n      swap2\n    tag_193:\n      pop\n      pop\n      pop\n      pop\n      pop\n        /* \"contracts/ListaDeTareas.sol\":2499:2504  tarea */\n      dup3\n        /* \"contracts/ListaDeTareas.sol\":2499:2519  tarea.fecha_creacion */\n      0x03\n      add\n      sload\n        /* \"contracts/ListaDeTareas.sol\":2521:2532  nuevoEstado */\n      dup5\n        /* \"contracts/ListaDeTareas.sol\":2459:2475  generarHashTarea */\n      tag_29\n        /* \"contracts/ListaDeTareas.sol\":2459:2533  generarHashTarea(tarea.Nombre_De_Tarea, tarea.fecha_creacion, nuevoEstado) */\n      jump\t// in\n    tag_190:\n        /* \"contracts/ListaDeTareas.sol\":2440:2445  tarea */\n      dup2\n        /* \"contracts/ListaDeTareas.sol\":2440:2456  tarea.hash_tarea */\n      0x04\n      add\n        /* \"contracts/ListaDeTareas.sol\":2440:2533  tarea.hash_tarea = generarHashTarea(tarea.Nombre_De_Tarea, tarea.fecha_creacion, nuevoEstado) */\n      dup2\n      swap1\n      sstore\n      pop\n        /* \"contracts/ListaDeTareas.sol\":2634:2640  indice */\n      dup3\n        /* \"contracts/ListaDeTareas.sol\":2595:2613  indicePorHashTarea */\n      0x01\n        /* \"contracts/ListaDeTareas.sol\":2595:2631  indicePorHashTarea[tarea.hash_tarea] */\n      0x00\n        /* \"contracts/ListaDeTareas.sol\":2614:2619  tarea */\n      dup4\n        /* \"contracts/ListaDeTareas.sol\":2614:2630  tarea.hash_tarea */\n      0x04\n      add\n      sload\n        /* \"contracts/ListaDeTareas.sol\":2595:2631  indicePorHashTarea[tarea.hash_tarea] */\n      dup2\n      mstore\n      0x20\n      add\n      swap1\n      dup2\n      mstore\n      0x20\n      add\n      0x00\n      keccak256\n        /* \"contracts/ListaDeTareas.sol\":2595:2640  indicePorHashTarea[tarea.hash_tarea] = indice */\n      dup2\n      swap1\n      sstore\n      pop\n        /* \"contracts/ListaDeTareas.sol\":2656:2727  EstadoActualizado(tarea.Nombre_De_Tarea, nuevoEstado, tarea.hash_tarea) */\n      0xd1cbe8d707fb13fe0afcca6884169d8eaf992c5ef8b0c4a0e16d17a40295e414\n        /* \"contracts/ListaDeTareas.sol\":2674:2679  tarea */\n      dup2\n        /* \"contracts/ListaDeTareas.sol\":2674:2695  tarea.Nombre_De_Tarea */\n      0x00\n      add\n        /* \"contracts/ListaDeTareas.sol\":2697:2708  nuevoEstado */\n      dup4\n        /* \"contracts/ListaDeTareas.sol\":2710:2715  tarea */\n      dup4\n        /* \"contracts/ListaDeTareas.sol\":2710:2726  tarea.hash_tarea */\n      0x04\n      add\n      sload\n        /* \"contracts/ListaDeTareas.sol\":2656:2727  EstadoActualizado(tarea.Nombre_De_Tarea, nuevoEstado, tarea.hash_tarea) */\n      mload(0x40)\n      tag_196\n      swap4\n      swap3\n      swap2\n      swap1\n      tag_197\n      jump\t// in\n    tag_196:\n      mload(0x40)\n      dup1\n      swap2\n      sub\n      swap1\n      log1\n        /* \"contracts/ListaDeTareas.sol\":2200:2734  {... */\n      pop\n        /* \"contracts/ListaDeTareas.sol\":2127:2734  function actualizarEstado(uint indice, EstadoTarea nuevoEstado) external {... */\n      pop\n      pop\n      jump\t// out\n        /* \"contracts/ListaDeTareas.sol\":606:656  mapping(bytes32 => uint) public indicePorHashTarea */\n    tag_61:\n      mstore(0x20, 0x01)\n      dup1\n      0x00\n      mstore\n      keccak256(0x00, 0x40)\n      0x00\n      swap2\n      pop\n      swap1\n      pop\n      sload\n      dup2\n      jump\t// out\n    tag_136:\n      mload(0x40)\n      dup1\n      0xc0\n      add\n      0x40\n      mstore\n      dup1\n      0x60\n      dup2\n      mstore\n      0x20\n      add\n      0x60\n      dup2\n      mstore\n      0x20\n      add\n      0x00\n      0x02\n      dup2\n      gt\n      iszero\n      tag_198\n      jumpi\n      tag_199\n      tag_101\n      jump\t// in\n    tag_199:\n    tag_198:\n      dup2\n      mstore\n      0x20\n      add\n      0x00\n      dup2\n      mstore\n      0x20\n      add\n      0x00\n      dup2\n      mstore\n      0x20\n      add\n      and(0xffffffffffffffffffffffffffffffffffffffff, 0x00)\n      dup2\n      mstore\n      pop\n      swap1\n      jump\t// out\n        /* \"#utility.yul\":7:82   */\n    tag_200:\n        /* \"#utility.yul\":40:46   */\n      0x00\n        /* \"#utility.yul\":73:75   */\n      0x40\n        /* \"#utility.yul\":67:76   */\n      mload\n        /* \"#utility.yul\":57:76   */\n      swap1\n      pop\n        /* \"#utility.yul\":7:82   */\n      swap1\n      jump\t// out\n        /* \"#utility.yul\":88:205   */\n    tag_201:\n        /* \"#utility.yul\":197:198   */\n      0x00\n        /* \"#utility.yul\":194:195   */\n      0x00\n        /* \"#utility.yul\":187:199   */\n      revert\n        /* \"#utility.yul\":211:328   */\n    tag_202:\n        /* \"#utility.yul\":320:321   */\n      0x00\n        /* \"#utility.yul\":317:318   */\n      0x00\n        /* \"#utility.yul\":310:322   */\n      revert\n        /* \"#utility.yul\":334:451   */\n    tag_203:\n        /* \"#utility.yul\":443:444   */\n      0x00\n        /* \"#utility.yul\":440:441   */\n      0x00\n        /* \"#utility.yul\":433:445   */\n      revert\n        /* \"#utility.yul\":457:574   */\n    tag_204:\n        /* \"#utility.yul\":566:567   */\n      0x00\n        /* \"#utility.yul\":563:564   */\n      0x00\n        /* \"#utility.yul\":556:568   */\n      revert\n        /* \"#utility.yul\":580:682   */\n    tag_205:\n        /* \"#utility.yul\":621:627   */\n      0x00\n        /* \"#utility.yul\":672:674   */\n      0x1f\n        /* \"#utility.yul\":668:675   */\n      not\n        /* \"#utility.yul\":663:665   */\n      0x1f\n        /* \"#utility.yul\":656:661   */\n      dup4\n        /* \"#utility.yul\":652:666   */\n      add\n        /* \"#utility.yul\":648:676   */\n      and\n        /* \"#utility.yul\":638:676   */\n      swap1\n      pop\n        /* \"#utility.yul\":580:682   */\n      swap2\n      swap1\n      pop\n      jump\t// out\n        /* \"#utility.yul\":688:868   */\n    tag_132:\n        /* \"#utility.yul\":736:813   */\n      0x4e487b7100000000000000000000000000000000000000000000000000000000\n        /* \"#utility.yul\":733:734   */\n      0x00\n        /* \"#utility.yul\":726:814   */\n      mstore\n        /* \"#utility.yul\":833:837   */\n      0x41\n        /* \"#utility.yul\":830:831   */\n      0x04\n        /* \"#utility.yul\":823:838   */\n      mstore\n        /* \"#utility.yul\":857:861   */\n      0x24\n        /* \"#utility.yul\":854:855   */\n      0x00\n        /* \"#utility.yul\":847:862   */\n      revert\n        /* \"#utility.yul\":874:1155   */\n    tag_206:\n        /* \"#utility.yul\":957:984   */\n      tag_293\n        /* \"#utility.yul\":979:983   */\n      dup3\n        /* \"#utility.yul\":957:984   */\n      tag_205\n      jump\t// in\n    tag_293:\n        /* \"#utility.yul\":949:955   */\n      dup2\n        /* \"#utility.yul\":945:985   */\n      add\n        /* \"#utility.yul\":1087:1093   */\n      dup2\n        /* \"#utility.yul\":1075:1085   */\n      dup2\n        /* \"#utility.yul\":1072:1094   */\n      lt\n        /* \"#utility.yul\":1051:1069   */\n      0xffffffffffffffff\n        /* \"#utility.yul\":1039:1049   */\n      dup3\n        /* \"#utility.yul\":1036:1070   */\n      gt\n        /* \"#utility.yul\":1033:1095   */\n      or\n        /* \"#utility.yul\":1030:1118   */\n      iszero\n      tag_294\n      jumpi\n        /* \"#utility.yul\":1098:1116   */\n      tag_295\n      tag_132\n      jump\t// in\n    tag_295:\n        /* \"#utility.yul\":1030:1118   */\n    tag_294:\n        /* \"#utility.yul\":1138:1148   */\n      dup1\n        /* \"#utility.yul\":1134:1136   */\n      0x40\n        /* \"#utility.yul\":1127:1149   */\n      mstore\n        /* \"#utility.yul\":917:1155   */\n      pop\n        /* \"#utility.yul\":874:1155   */\n      pop\n      pop\n      jump\t// out\n        /* \"#utility.yul\":1161:1290   */\n    tag_207:\n        /* \"#utility.yul\":1195:1201   */\n      0x00\n        /* \"#utility.yul\":1222:1242   */\n      tag_297\n      tag_200\n      jump\t// in\n    tag_297:\n        /* \"#utility.yul\":1212:1242   */\n      swap1\n      pop\n        /* \"#utility.yul\":1251:1284   */\n      tag_298\n        /* \"#utility.yul\":1279:1283   */\n      dup3\n        /* \"#utility.yul\":1271:1277   */\n      dup3\n        /* \"#utility.yul\":1251:1284   */\n      tag_206\n      jump\t// in\n    tag_298:\n        /* \"#utility.yul\":1161:1290   */\n      swap2\n      swap1\n      pop\n      jump\t// out\n        /* \"#utility.yul\":1296:1604   */\n    tag_208:\n        /* \"#utility.yul\":1358:1362   */\n      0x00\n        /* \"#utility.yul\":1448:1466   */\n      0xffffffffffffffff\n        /* \"#utility.yul\":1440:1446   */\n      dup3\n        /* \"#utility.yul\":1437:1467   */\n      gt\n        /* \"#utility.yul\":1434:1490   */\n      iszero\n      tag_300\n      jumpi\n        /* \"#utility.yul\":1470:1488   */\n      tag_301\n      tag_132\n      jump\t// in\n    tag_301:\n        /* \"#utility.yul\":1434:1490   */\n    tag_300:\n        /* \"#utility.yul\":1508:1537   */\n      tag_302\n        /* \"#utility.yul\":1530:1536   */\n      dup3\n        /* \"#utility.yul\":1508:1537   */\n      tag_205\n      jump\t// in\n    tag_302:\n        /* \"#utility.yul\":1500:1537   */\n      swap1\n      pop\n        /* \"#utility.yul\":1592:1596   */\n      0x20\n        /* \"#utility.yul\":1586:1590   */\n      dup2\n        /* \"#utility.yul\":1582:1597   */\n      add\n        /* \"#utility.yul\":1574:1597   */\n      swap1\n      pop\n        /* \"#utility.yul\":1296:1604   */\n      swap2\n      swap1\n      pop\n      jump\t// out\n        /* \"#utility.yul\":1610:1758   */\n    tag_209:\n        /* \"#utility.yul\":1708:1714   */\n      dup3\n        /* \"#utility.yul\":1703:1706   */\n      dup2\n        /* \"#utility.yul\":1698:1701   */\n      dup4\n        /* \"#utility.yul\":1685:1715   */\n      calldatacopy\n        /* \"#utility.yul\":1749:1750   */\n      0x00\n        /* \"#utility.yul\":1740:1746   */\n      dup4\n        /* \"#utility.yul\":1735:1738   */\n      dup4\n        /* \"#utility.yul\":1731:1747   */\n      add\n        /* \"#utility.yul\":1724:1751   */\n      mstore\n        /* \"#utility.yul\":1610:1758   */\n      pop\n      pop\n      pop\n      jump\t// out\n        /* \"#utility.yul\":1764:2189   */\n    tag_210:\n        /* \"#utility.yul\":1842:1847   */\n      0x00\n        /* \"#utility.yul\":1867:1933   */\n      tag_305\n        /* \"#utility.yul\":1883:1932   */\n      tag_306\n        /* \"#utility.yul\":1925:1931   */\n      dup5\n        /* \"#utility.yul\":1883:1932   */\n      tag_208\n      jump\t// in\n    tag_306:\n        /* \"#utility.yul\":1867:1933   */\n      tag_207\n      jump\t// in\n    tag_305:\n        /* \"#utility.yul\":1858:1933   */\n      swap1\n      pop\n        /* \"#utility.yul\":1956:1962   */\n      dup3\n        /* \"#utility.yul\":1949:1954   */\n      dup2\n        /* \"#utility.yul\":1942:1963   */\n      mstore\n        /* \"#utility.yul\":1994:1998   */\n      0x20\n        /* \"#utility.yul\":1987:1992   */\n      dup2\n        /* \"#utility.yul\":1983:1999   */\n      add\n        /* \"#utility.yul\":2032:2035   */\n      dup5\n        /* \"#utility.yul\":2023:2029   */\n      dup5\n        /* \"#utility.yul\":2018:2021   */\n      dup5\n        /* \"#utility.yul\":2014:2030   */\n      add\n        /* \"#utility.yul\":2011:2036   */\n      gt\n        /* \"#utility.yul\":2008:2120   */\n      iszero\n      tag_307\n      jumpi\n        /* \"#utility.yul\":2039:2118   */\n      tag_308\n      tag_204\n      jump\t// in\n    tag_308:\n        /* \"#utility.yul\":2008:2120   */\n    tag_307:\n        /* \"#utility.yul\":2129:2183   */\n      tag_309\n        /* \"#utility.yul\":2176:2182   */\n      dup5\n        /* \"#utility.yul\":2171:2174   */\n      dup3\n        /* \"#utility.yul\":2166:2169   */\n      dup6\n        /* \"#utility.yul\":2129:2183   */\n      tag_209\n      jump\t// in\n    tag_309:\n        /* \"#utility.yul\":1848:2189   */\n      pop\n        /* \"#utility.yul\":1764:2189   */\n      swap4\n      swap3\n      pop\n      pop\n      pop\n      jump\t// out\n        /* \"#utility.yul\":2209:2549   */\n    tag_211:\n        /* \"#utility.yul\":2265:2270   */\n      0x00\n        /* \"#utility.yul\":2314:2317   */\n      dup3\n        /* \"#utility.yul\":2307:2311   */\n      0x1f\n        /* \"#utility.yul\":2299:2305   */\n      dup4\n        /* \"#utility.yul\":2295:2312   */\n      add\n        /* \"#utility.yul\":2291:2318   */\n      slt\n        /* \"#utility.yul\":2281:2403   */\n      tag_311\n      jumpi\n        /* \"#utility.yul\":2322:2401   */\n      tag_312\n      tag_203\n      jump\t// in\n    tag_312:\n        /* \"#utility.yul\":2281:2403   */\n    tag_311:\n        /* \"#utility.yul\":2439:2445   */\n      dup2\n        /* \"#utility.yul\":2426:2446   */\n      calldataload\n        /* \"#utility.yul\":2464:2543   */\n      tag_313\n        /* \"#utility.yul\":2539:2542   */\n      dup5\n        /* \"#utility.yul\":2531:2537   */\n      dup3\n        /* \"#utility.yul\":2524:2528   */\n      0x20\n        /* \"#utility.yul\":2516:2522   */\n      dup7\n        /* \"#utility.yul\":2512:2529   */\n      add\n        /* \"#utility.yul\":2464:2543   */\n      tag_210\n      jump\t// in\n    tag_313:\n        /* \"#utility.yul\":2455:2543   */\n      swap2\n      pop\n        /* \"#utility.yul\":2271:2549   */\n      pop\n        /* \"#utility.yul\":2209:2549   */\n      swap3\n      swap2\n      pop\n      pop\n      jump\t// out\n        /* \"#utility.yul\":2555:2632   */\n    tag_212:\n        /* \"#utility.yul\":2592:2599   */\n      0x00\n        /* \"#utility.yul\":2621:2626   */\n      dup2\n        /* \"#utility.yul\":2610:2626   */\n      swap1\n      pop\n        /* \"#utility.yul\":2555:2632   */\n      swap2\n      swap1\n      pop\n      jump\t// out\n        /* \"#utility.yul\":2638:2760   */\n    tag_213:\n        /* \"#utility.yul\":2711:2735   */\n      tag_316\n        /* \"#utility.yul\":2729:2734   */\n      dup2\n        /* \"#utility.yul\":2711:2735   */\n      tag_212\n      jump\t// in\n    tag_316:\n        /* \"#utility.yul\":2704:2709   */\n      dup2\n        /* \"#utility.yul\":2701:2736   */\n      eq\n        /* \"#utility.yul\":2691:2754   */\n      tag_317\n      jumpi\n        /* \"#utility.yul\":2750:2751   */\n      0x00\n        /* \"#utility.yul\":2747:2748   */\n      0x00\n        /* \"#utility.yul\":2740:2752   */\n      revert\n        /* \"#utility.yul\":2691:2754   */\n    tag_317:\n        /* \"#utility.yul\":2638:2760   */\n      pop\n      jump\t// out\n        /* \"#utility.yul\":2766:2905   */\n    tag_214:\n        /* \"#utility.yul\":2812:2817   */\n      0x00\n        /* \"#utility.yul\":2850:2856   */\n      dup2\n        /* \"#utility.yul\":2837:2857   */\n      calldataload\n        /* \"#utility.yul\":2828:2857   */\n      swap1\n      pop\n        /* \"#utility.yul\":2866:2899   */\n      tag_319\n        /* \"#utility.yul\":2893:2898   */\n      dup2\n        /* \"#utility.yul\":2866:2899   */\n      tag_213\n      jump\t// in\n    tag_319:\n        /* \"#utility.yul\":2766:2905   */\n      swap3\n      swap2\n      pop\n      pop\n      jump\t// out\n        /* \"#utility.yul\":2911:3565   */\n    tag_16:\n        /* \"#utility.yul\":2989:2995   */\n      0x00\n        /* \"#utility.yul\":2997:3003   */\n      0x00\n        /* \"#utility.yul\":3046:3048   */\n      0x40\n        /* \"#utility.yul\":3034:3043   */\n      dup4\n        /* \"#utility.yul\":3025:3032   */\n      dup6\n        /* \"#utility.yul\":3021:3044   */\n      sub\n        /* \"#utility.yul\":3017:3049   */\n      slt\n        /* \"#utility.yul\":3014:3133   */\n      iszero\n      tag_321\n      jumpi\n        /* \"#utility.yul\":3052:3131   */\n      tag_322\n      tag_201\n      jump\t// in\n    tag_322:\n        /* \"#utility.yul\":3014:3133   */\n    tag_321:\n        /* \"#utility.yul\":3200:3201   */\n      0x00\n        /* \"#utility.yul\":3189:3198   */\n      dup4\n        /* \"#utility.yul\":3185:3202   */\n      add\n        /* \"#utility.yul\":3172:3203   */\n      calldataload\n        /* \"#utility.yul\":3230:3248   */\n      0xffffffffffffffff\n        /* \"#utility.yul\":3222:3228   */\n      dup2\n        /* \"#utility.yul\":3219:3249   */\n      gt\n        /* \"#utility.yul\":3216:3333   */\n      iszero\n      tag_323\n      jumpi\n        /* \"#utility.yul\":3252:3331   */\n      tag_324\n      tag_202\n      jump\t// in\n    tag_324:\n        /* \"#utility.yul\":3216:3333   */\n    tag_323:\n        /* \"#utility.yul\":3357:3420   */\n      tag_325\n        /* \"#utility.yul\":3412:3419   */\n      dup6\n        /* \"#utility.yul\":3403:3409   */\n      dup3\n        /* \"#utility.yul\":3392:3401   */\n      dup7\n        /* \"#utility.yul\":3388:3410   */\n      add\n        /* \"#utility.yul\":3357:3420   */\n      tag_211\n      jump\t// in\n    tag_325:\n        /* \"#utility.yul\":3347:3420   */\n      swap3\n      pop\n        /* \"#utility.yul\":3143:3430   */\n      pop\n        /* \"#utility.yul\":3469:3471   */\n      0x20\n        /* \"#utility.yul\":3495:3548   */\n      tag_326\n        /* \"#utility.yul\":3540:3547   */\n      dup6\n        /* \"#utility.yul\":3531:3537   */\n      dup3\n        /* \"#utility.yul\":3520:3529   */\n      dup7\n        /* \"#utility.yul\":3516:3538   */\n      add\n        /* \"#utility.yul\":3495:3548   */\n      tag_214\n      jump\t// in\n    tag_326:\n        /* \"#utility.yul\":3485:3548   */\n      swap2\n      pop\n        /* \"#utility.yul\":3440:3558   */\n      pop\n        /* \"#utility.yul\":2911:3565   */\n      swap3\n      pop\n      swap3\n      swap1\n      pop\n      jump\t// out\n        /* \"#utility.yul\":3571:3689   */\n    tag_215:\n        /* \"#utility.yul\":3658:3682   */\n      tag_328\n        /* \"#utility.yul\":3676:3681   */\n      dup2\n        /* \"#utility.yul\":3658:3682   */\n      tag_212\n      jump\t// in\n    tag_328:\n        /* \"#utility.yul\":3653:3656   */\n      dup3\n        /* \"#utility.yul\":3646:3683   */\n      mstore\n        /* \"#utility.yul\":3571:3689   */\n      pop\n      pop\n      jump\t// out\n        /* \"#utility.yul\":3695:3917   */\n    tag_19:\n        /* \"#utility.yul\":3788:3792   */\n      0x00\n        /* \"#utility.yul\":3826:3828   */\n      0x20\n        /* \"#utility.yul\":3815:3824   */\n      dup3\n        /* \"#utility.yul\":3811:3829   */\n      add\n        /* \"#utility.yul\":3803:3829   */\n      swap1\n      pop\n        /* \"#utility.yul\":3839:3910   */\n      tag_330\n        /* \"#utility.yul\":3907:3908   */\n      0x00\n        /* \"#utility.yul\":3896:3905   */\n      dup4\n        /* \"#utility.yul\":3892:3909   */\n      add\n        /* \"#utility.yul\":3883:3889   */\n      dup5\n        /* \"#utility.yul\":3839:3910   */\n      tag_215\n      jump\t// in\n    tag_330:\n        /* \"#utility.yul\":3695:3917   */\n      swap3\n      swap2\n      pop\n      pop\n      jump\t// out\n        /* \"#utility.yul\":3923:4252   */\n    tag_22:\n        /* \"#utility.yul\":3982:3988   */\n      0x00\n        /* \"#utility.yul\":4031:4033   */\n      0x20\n        /* \"#utility.yul\":4019:4028   */\n      dup3\n        /* \"#utility.yul\":4010:4017   */\n      dup5\n        /* \"#utility.yul\":4006:4029   */\n      sub\n        /* \"#utility.yul\":4002:4034   */\n      slt\n        /* \"#utility.yul\":3999:4118   */\n      iszero\n      tag_332\n      jumpi\n        /* \"#utility.yul\":4037:4116   */\n      tag_333\n      tag_201\n      jump\t// in\n    tag_333:\n        /* \"#utility.yul\":3999:4118   */\n    tag_332:\n        /* \"#utility.yul\":4157:4158   */\n      0x00\n        /* \"#utility.yul\":4182:4235   */\n      tag_334\n        /* \"#utility.yul\":4227:4234   */\n      dup5\n        /* \"#utility.yul\":4218:4224   */\n      dup3\n        /* \"#utility.yul\":4207:4216   */\n      dup6\n        /* \"#utility.yul\":4203:4225   */\n      add\n        /* \"#utility.yul\":4182:4235   */\n      tag_214\n      jump\t// in\n    tag_334:\n        /* \"#utility.yul\":4172:4235   */\n      swap2\n      pop\n        /* \"#utility.yul\":4128:4245   */\n      pop\n        /* \"#utility.yul\":3923:4252   */\n      swap3\n      swap2\n      pop\n      pop\n      jump\t// out\n        /* \"#utility.yul\":4258:4357   */\n    tag_216:\n        /* \"#utility.yul\":4310:4316   */\n      0x00\n        /* \"#utility.yul\":4344:4349   */\n      dup2\n        /* \"#utility.yul\":4338:4350   */\n      mload\n        /* \"#utility.yul\":4328:4350   */\n      swap1\n      pop\n        /* \"#utility.yul\":4258:4357   */\n      swap2\n      swap1\n      pop\n      jump\t// out\n        /* \"#utility.yul\":4363:4532   */\n    tag_217:\n        /* \"#utility.yul\":4447:4458   */\n      0x00\n        /* \"#utility.yul\":4481:4487   */\n      dup3\n        /* \"#utility.yul\":4476:4479   */\n      dup3\n        /* \"#utility.yul\":4469:4488   */\n      mstore\n        /* \"#utility.yul\":4521:4525   */\n      0x20\n        /* \"#utility.yul\":4516:4519   */\n      dup3\n        /* \"#utility.yul\":4512:4526   */\n      add\n        /* \"#utility.yul\":4497:4526   */\n      swap1\n      pop\n        /* \"#utility.yul\":4363:4532   */\n      swap3\n      swap2\n      pop\n      pop\n      jump\t// out\n        /* \"#utility.yul\":4538:4677   */\n    tag_218:\n        /* \"#utility.yul\":4627:4633   */\n      dup3\n        /* \"#utility.yul\":4622:4625   */\n      dup2\n        /* \"#utility.yul\":4617:4620   */\n      dup4\n        /* \"#utility.yul\":4611:4634   */\n      mcopy\n        /* \"#utility.yul\":4668:4669   */\n      0x00\n        /* \"#utility.yul\":4659:4665   */\n      dup4\n        /* \"#utility.yul\":4654:4657   */\n      dup4\n        /* \"#utility.yul\":4650:4666   */\n      add\n        /* \"#utility.yul\":4643:4670   */\n      mstore\n        /* \"#utility.yul\":4538:4677   */\n      pop\n      pop\n      pop\n      jump\t// out\n        /* \"#utility.yul\":4683:5060   */\n    tag_219:\n        /* \"#utility.yul\":4771:4774   */\n      0x00\n        /* \"#utility.yul\":4799:4838   */\n      tag_339\n        /* \"#utility.yul\":4832:4837   */\n      dup3\n        /* \"#utility.yul\":4799:4838   */\n      tag_216\n      jump\t// in\n    tag_339:\n        /* \"#utility.yul\":4854:4925   */\n      tag_340\n        /* \"#utility.yul\":4918:4924   */\n      dup2\n        /* \"#utility.yul\":4913:4916   */\n      dup6\n        /* \"#utility.yul\":4854:4925   */\n      tag_217\n      jump\t// in\n    tag_340:\n        /* \"#utility.yul\":4847:4925   */\n      swap4\n      pop\n        /* \"#utility.yul\":4934:4999   */\n      tag_341\n        /* \"#utility.yul\":4992:4998   */\n      dup2\n        /* \"#utility.yul\":4987:4990   */\n      dup6\n        /* \"#utility.yul\":4980:4984   */\n      0x20\n        /* \"#utility.yul\":4973:4978   */\n      dup7\n        /* \"#utility.yul\":4969:4985   */\n      add\n        /* \"#utility.yul\":4934:4999   */\n      tag_218\n      jump\t// in\n    tag_341:\n        /* \"#utility.yul\":5024:5053   */\n      tag_342\n        /* \"#utility.yul\":5046:5052   */\n      dup2\n        /* \"#utility.yul\":5024:5053   */\n      tag_205\n      jump\t// in\n    tag_342:\n        /* \"#utility.yul\":5019:5022   */\n      dup5\n        /* \"#utility.yul\":5015:5054   */\n      add\n        /* \"#utility.yul\":5008:5054   */\n      swap2\n      pop\n        /* \"#utility.yul\":4775:5060   */\n      pop\n        /* \"#utility.yul\":4683:5060   */\n      swap3\n      swap2\n      pop\n      pop\n      jump\t// out\n        /* \"#utility.yul\":5066:5246   */\n    tag_101:\n        /* \"#utility.yul\":5114:5191   */\n      0x4e487b7100000000000000000000000000000000000000000000000000000000\n        /* \"#utility.yul\":5111:5112   */\n      0x00\n        /* \"#utility.yul\":5104:5192   */\n      mstore\n        /* \"#utility.yul\":5211:5215   */\n      0x21\n        /* \"#utility.yul\":5208:5209   */\n      0x04\n        /* \"#utility.yul\":5201:5216   */\n      mstore\n        /* \"#utility.yul\":5235:5239   */\n      0x24\n        /* \"#utility.yul\":5232:5233   */\n      0x00\n        /* \"#utility.yul\":5225:5240   */\n      revert\n        /* \"#utility.yul\":5252:5370   */\n    tag_220:\n        /* \"#utility.yul\":5338:5339   */\n      0x03\n        /* \"#utility.yul\":5331:5336   */\n      dup2\n        /* \"#utility.yul\":5328:5340   */\n      lt\n        /* \"#utility.yul\":5318:5364   */\n      tag_345\n      jumpi\n        /* \"#utility.yul\":5344:5362   */\n      tag_346\n      tag_101\n      jump\t// in\n    tag_346:\n        /* \"#utility.yul\":5318:5364   */\n    tag_345:\n        /* \"#utility.yul\":5252:5370   */\n      pop\n      jump\t// out\n        /* \"#utility.yul\":5376:5513   */\n    tag_221:\n        /* \"#utility.yul\":5426:5433   */\n      0x00\n        /* \"#utility.yul\":5455:5460   */\n      dup2\n        /* \"#utility.yul\":5444:5460   */\n      swap1\n      pop\n        /* \"#utility.yul\":5461:5507   */\n      tag_348\n        /* \"#utility.yul\":5501:5506   */\n      dup3\n        /* \"#utility.yul\":5461:5507   */\n      tag_220\n      jump\t// in\n    tag_348:\n        /* \"#utility.yul\":5376:5513   */\n      swap2\n      swap1\n      pop\n      jump\t// out\n        /* \"#utility.yul\":5519:5656   */\n    tag_222:\n        /* \"#utility.yul\":5580:5589   */\n      0x00\n        /* \"#utility.yul\":5613:5650   */\n      tag_350\n        /* \"#utility.yul\":5644:5649   */\n      dup3\n        /* \"#utility.yul\":5613:5650   */\n      tag_221\n      jump\t// in\n    tag_350:\n        /* \"#utility.yul\":5600:5650   */\n      swap1\n      pop\n        /* \"#utility.yul\":5519:5656   */\n      swap2\n      swap1\n      pop\n      jump\t// out\n        /* \"#utility.yul\":5662:5815   */\n    tag_223:\n        /* \"#utility.yul\":5760:5808   */\n      tag_352\n        /* \"#utility.yul\":5802:5807   */\n      dup2\n        /* \"#utility.yul\":5760:5808   */\n      tag_222\n      jump\t// in\n    tag_352:\n        /* \"#utility.yul\":5755:5758   */\n      dup3\n        /* \"#utility.yul\":5748:5809   */\n      mstore\n        /* \"#utility.yul\":5662:5815   */\n      pop\n      pop\n      jump\t// out\n        /* \"#utility.yul\":5821:5898   */\n    tag_224:\n        /* \"#utility.yul\":5858:5865   */\n      0x00\n        /* \"#utility.yul\":5887:5892   */\n      dup2\n        /* \"#utility.yul\":5876:5892   */\n      swap1\n      pop\n        /* \"#utility.yul\":5821:5898   */\n      swap2\n      swap1\n      pop\n      jump\t// out\n        /* \"#utility.yul\":5904:6022   */\n    tag_225:\n        /* \"#utility.yul\":5991:6015   */\n      tag_355\n        /* \"#utility.yul\":6009:6014   */\n      dup2\n        /* \"#utility.yul\":5991:6015   */\n      tag_224\n      jump\t// in\n    tag_355:\n        /* \"#utility.yul\":5986:5989   */\n      dup3\n        /* \"#utility.yul\":5979:6016   */\n      mstore\n        /* \"#utility.yul\":5904:6022   */\n      pop\n      pop\n      jump\t// out\n        /* \"#utility.yul\":6028:6154   */\n    tag_226:\n        /* \"#utility.yul\":6065:6072   */\n      0x00\n        /* \"#utility.yul\":6105:6147   */\n      0xffffffffffffffffffffffffffffffffffffffff\n        /* \"#utility.yul\":6098:6103   */\n      dup3\n        /* \"#utility.yul\":6094:6148   */\n      and\n        /* \"#utility.yul\":6083:6148   */\n      swap1\n      pop\n        /* \"#utility.yul\":6028:6154   */\n      swap2\n      swap1\n      pop\n      jump\t// out\n        /* \"#utility.yul\":6160:6256   */\n    tag_227:\n        /* \"#utility.yul\":6197:6204   */\n      0x00\n        /* \"#utility.yul\":6226:6250   */\n      tag_358\n        /* \"#utility.yul\":6244:6249   */\n      dup3\n        /* \"#utility.yul\":6226:6250   */\n      tag_226\n      jump\t// in\n    tag_358:\n        /* \"#utility.yul\":6215:6250   */\n      swap1\n      pop\n        /* \"#utility.yul\":6160:6256   */\n      swap2\n      swap1\n      pop\n      jump\t// out\n        /* \"#utility.yul\":6262:6380   */\n    tag_228:\n        /* \"#utility.yul\":6349:6373   */\n      tag_360\n        /* \"#utility.yul\":6367:6372   */\n      dup2\n        /* \"#utility.yul\":6349:6373   */\n      tag_227\n      jump\t// in\n    tag_360:\n        /* \"#utility.yul\":6344:6347   */\n      dup3\n        /* \"#utility.yul\":6337:6374   */\n      mstore\n        /* \"#utility.yul\":6262:6380   */\n      pop\n      pop\n      jump\t// out\n        /* \"#utility.yul\":6386:7365   */\n    tag_25:\n        /* \"#utility.yul\":6670:6674   */\n      0x00\n        /* \"#utility.yul\":6708:6711   */\n      0xc0\n        /* \"#utility.yul\":6697:6706   */\n      dup3\n        /* \"#utility.yul\":6693:6712   */\n      add\n        /* \"#utility.yul\":6685:6712   */\n      swap1\n      pop\n        /* \"#utility.yul\":6758:6767   */\n      dup2\n        /* \"#utility.yul\":6752:6756   */\n      dup2\n        /* \"#utility.yul\":6748:6768   */\n      sub\n        /* \"#utility.yul\":6744:6745   */\n      0x00\n        /* \"#utility.yul\":6733:6742   */\n      dup4\n        /* \"#utility.yul\":6729:6746   */\n      add\n        /* \"#utility.yul\":6722:6769   */\n      mstore\n        /* \"#utility.yul\":6786:6864   */\n      tag_362\n        /* \"#utility.yul\":6859:6863   */\n      dup2\n        /* \"#utility.yul\":6850:6856   */\n      dup10\n        /* \"#utility.yul\":6786:6864   */\n      tag_219\n      jump\t// in\n    tag_362:\n        /* \"#utility.yul\":6778:6864   */\n      swap1\n      pop\n        /* \"#utility.yul\":6911:6920   */\n      dup2\n        /* \"#utility.yul\":6905:6909   */\n      dup2\n        /* \"#utility.yul\":6901:6921   */\n      sub\n        /* \"#utility.yul\":6896:6898   */\n      0x20\n        /* \"#utility.yul\":6885:6894   */\n      dup4\n        /* \"#utility.yul\":6881:6899   */\n      add\n        /* \"#utility.yul\":6874:6922   */\n      mstore\n        /* \"#utility.yul\":6939:7017   */\n      tag_363\n        /* \"#utility.yul\":7012:7016   */\n      dup2\n        /* \"#utility.yul\":7003:7009   */\n      dup9\n        /* \"#utility.yul\":6939:7017   */\n      tag_219\n      jump\t// in\n    tag_363:\n        /* \"#utility.yul\":6931:7017   */\n      swap1\n      pop\n        /* \"#utility.yul\":7027:7110   */\n      tag_364\n        /* \"#utility.yul\":7106:7108   */\n      0x40\n        /* \"#utility.yul\":7095:7104   */\n      dup4\n        /* \"#utility.yul\":7091:7109   */\n      add\n        /* \"#utility.yul\":7082:7088   */\n      dup8\n        /* \"#utility.yul\":7027:7110   */\n      tag_223\n      jump\t// in\n    tag_364:\n        /* \"#utility.yul\":7120:7192   */\n      tag_365\n        /* \"#utility.yul\":7188:7190   */\n      0x60\n        /* \"#utility.yul\":7177:7186   */\n      dup4\n        /* \"#utility.yul\":7173:7191   */\n      add\n        /* \"#utility.yul\":7164:7170   */\n      dup7\n        /* \"#utility.yul\":7120:7192   */\n      tag_215\n      jump\t// in\n    tag_365:\n        /* \"#utility.yul\":7202:7275   */\n      tag_366\n        /* \"#utility.yul\":7270:7273   */\n      0x80\n        /* \"#utility.yul\":7259:7268   */\n      dup4\n        /* \"#utility.yul\":7255:7274   */\n      add\n        /* \"#utility.yul\":7246:7252   */\n      dup6\n        /* \"#utility.yul\":7202:7275   */\n      tag_225\n      jump\t// in\n    tag_366:\n        /* \"#utility.yul\":7285:7358   */\n      tag_367\n        /* \"#utility.yul\":7353:7356   */\n      0xa0\n        /* \"#utility.yul\":7342:7351   */\n      dup4\n        /* \"#utility.yul\":7338:7357   */\n      add\n        /* \"#utility.yul\":7329:7335   */\n      dup5\n        /* \"#utility.yul\":7285:7358   */\n      tag_228\n      jump\t// in\n    tag_367:\n        /* \"#utility.yul\":6386:7365   */\n      swap8\n      swap7\n      pop\n      pop\n      pop\n      pop\n      pop\n      pop\n      pop\n      jump\t// out\n        /* \"#utility.yul\":7371:7483   */\n    tag_229:\n        /* \"#utility.yul\":7457:7458   */\n      0x03\n        /* \"#utility.yul\":7450:7455   */\n      dup2\n        /* \"#utility.yul\":7447:7459   */\n      lt\n        /* \"#utility.yul\":7437:7477   */\n      tag_369\n      jumpi\n        /* \"#utility.yul\":7473:7474   */\n      0x00\n        /* \"#utility.yul\":7470:7471   */\n      0x00\n        /* \"#utility.yul\":7463:7475   */\n      revert\n        /* \"#utility.yul\":7437:7477   */\n    tag_369:\n        /* \"#utility.yul\":7371:7483   */\n      pop\n      jump\t// out\n        /* \"#utility.yul\":7489:7654   */\n    tag_230:\n        /* \"#utility.yul\":7548:7553   */\n      0x00\n        /* \"#utility.yul\":7586:7592   */\n      dup2\n        /* \"#utility.yul\":7573:7593   */\n      calldataload\n        /* \"#utility.yul\":7564:7593   */\n      swap1\n      pop\n        /* \"#utility.yul\":7602:7648   */\n      tag_371\n        /* \"#utility.yul\":7642:7647   */\n      dup2\n        /* \"#utility.yul\":7602:7648   */\n      tag_229\n      jump\t// in\n    tag_371:\n        /* \"#utility.yul\":7489:7654   */\n      swap3\n      swap2\n      pop\n      pop\n      jump\t// out\n        /* \"#utility.yul\":7660:8485   */\n    tag_28:\n        /* \"#utility.yul\":7760:7766   */\n      0x00\n        /* \"#utility.yul\":7768:7774   */\n      0x00\n        /* \"#utility.yul\":7776:7782   */\n      0x00\n        /* \"#utility.yul\":7825:7827   */\n      0x60\n        /* \"#utility.yul\":7813:7822   */\n      dup5\n        /* \"#utility.yul\":7804:7811   */\n      dup7\n        /* \"#utility.yul\":7800:7823   */\n      sub\n        /* \"#utility.yul\":7796:7828   */\n      slt\n        /* \"#utility.yul\":7793:7912   */\n      iszero\n      tag_373\n      jumpi\n        /* \"#utility.yul\":7831:7910   */\n      tag_374\n      tag_201\n      jump\t// in\n    tag_374:\n        /* \"#utility.yul\":7793:7912   */\n    tag_373:\n        /* \"#utility.yul\":7979:7980   */\n      0x00\n        /* \"#utility.yul\":7968:7977   */\n      dup5\n        /* \"#utility.yul\":7964:7981   */\n      add\n        /* \"#utility.yul\":7951:7982   */\n      calldataload\n        /* \"#utility.yul\":8009:8027   */\n      0xffffffffffffffff\n        /* \"#utility.yul\":8001:8007   */\n      dup2\n        /* \"#utility.yul\":7998:8028   */\n      gt\n        /* \"#utility.yul\":7995:8112   */\n      iszero\n      tag_375\n      jumpi\n        /* \"#utility.yul\":8031:8110   */\n      tag_376\n      tag_202\n      jump\t// in\n    tag_376:\n        /* \"#utility.yul\":7995:8112   */\n    tag_375:\n        /* \"#utility.yul\":8136:8199   */\n      tag_377\n        /* \"#utility.yul\":8191:8198   */\n      dup7\n        /* \"#utility.yul\":8182:8188   */\n      dup3\n        /* \"#utility.yul\":8171:8180   */\n      dup8\n        /* \"#utility.yul\":8167:8189   */\n      add\n        /* \"#utility.yul\":8136:8199   */\n      tag_211\n      jump\t// in\n    tag_377:\n        /* \"#utility.yul\":8126:8199   */\n      swap4\n      pop\n        /* \"#utility.yul\":7922:8209   */\n      pop\n        /* \"#utility.yul\":8248:8250   */\n      0x20\n        /* \"#utility.yul\":8274:8327   */\n      tag_378\n        /* \"#utility.yul\":8319:8326   */\n      dup7\n        /* \"#utility.yul\":8310:8316   */\n      dup3\n        /* \"#utility.yul\":8299:8308   */\n      dup8\n        /* \"#utility.yul\":8295:8317   */\n      add\n        /* \"#utility.yul\":8274:8327   */\n      tag_214\n      jump\t// in\n    tag_378:\n        /* \"#utility.yul\":8264:8327   */\n      swap3\n      pop\n        /* \"#utility.yul\":8219:8337   */\n      pop\n        /* \"#utility.yul\":8376:8378   */\n      0x40\n        /* \"#utility.yul\":8402:8468   */\n      tag_379\n        /* \"#utility.yul\":8460:8467   */\n      dup7\n        /* \"#utility.yul\":8451:8457   */\n      dup3\n        /* \"#utility.yul\":8440:8449   */\n      dup8\n        /* \"#utility.yul\":8436:8458   */\n      add\n        /* \"#utility.yul\":8402:8468   */\n      tag_230\n      jump\t// in\n    tag_379:\n        /* \"#utility.yul\":8392:8468   */\n      swap2\n      pop\n        /* \"#utility.yul\":8347:8478   */\n      pop\n        /* \"#utility.yul\":7660:8485   */\n      swap3\n      pop\n      swap3\n      pop\n      swap3\n      jump\t// out\n        /* \"#utility.yul\":8491:8713   */\n    tag_31:\n        /* \"#utility.yul\":8584:8588   */\n      0x00\n        /* \"#utility.yul\":8622:8624   */\n      0x20\n        /* \"#utility.yul\":8611:8620   */\n      dup3\n        /* \"#utility.yul\":8607:8625   */\n      add\n        /* \"#utility.yul\":8599:8625   */\n      swap1\n      pop\n        /* \"#utility.yul\":8635:8706   */\n      tag_381\n        /* \"#utility.yul\":8703:8704   */\n      0x00\n        /* \"#utility.yul\":8692:8701   */\n      dup4\n        /* \"#utility.yul\":8688:8705   */\n      add\n        /* \"#utility.yul\":8679:8685   */\n      dup5\n        /* \"#utility.yul\":8635:8706   */\n      tag_225\n      jump\t// in\n    tag_381:\n        /* \"#utility.yul\":8491:8713   */\n      swap3\n      swap2\n      pop\n      pop\n      jump\t// out\n        /* \"#utility.yul\":8719:8841   */\n    tag_231:\n        /* \"#utility.yul\":8792:8816   */\n      tag_383\n        /* \"#utility.yul\":8810:8815   */\n      dup2\n        /* \"#utility.yul\":8792:8816   */\n      tag_224\n      jump\t// in\n    tag_383:\n        /* \"#utility.yul\":8785:8790   */\n      dup2\n        /* \"#utility.yul\":8782:8817   */\n      eq\n        /* \"#utility.yul\":8772:8835   */\n      tag_384\n      jumpi\n        /* \"#utility.yul\":8831:8832   */\n      0x00\n        /* \"#utility.yul\":8828:8829   */\n      0x00\n        /* \"#utility.yul\":8821:8833   */\n      revert\n        /* \"#utility.yul\":8772:8835   */\n    tag_384:\n        /* \"#utility.yul\":8719:8841   */\n      pop\n      jump\t// out\n        /* \"#utility.yul\":8847:8986   */\n    tag_232:\n        /* \"#utility.yul\":8893:8898   */\n      0x00\n        /* \"#utility.yul\":8931:8937   */\n      dup2\n        /* \"#utility.yul\":8918:8938   */\n      calldataload\n        /* \"#utility.yul\":8909:8938   */\n      swap1\n      pop\n        /* \"#utility.yul\":8947:8980   */\n      tag_386\n        /* \"#utility.yul\":8974:8979   */\n      dup2\n        /* \"#utility.yul\":8947:8980   */\n      tag_231\n      jump\t// in\n    tag_386:\n        /* \"#utility.yul\":8847:8986   */\n      swap3\n      swap2\n      pop\n      pop\n      jump\t// out\n        /* \"#utility.yul\":8992:9321   */\n    tag_38:\n        /* \"#utility.yul\":9051:9057   */\n      0x00\n        /* \"#utility.yul\":9100:9102   */\n      0x20\n        /* \"#utility.yul\":9088:9097   */\n      dup3\n        /* \"#utility.yul\":9079:9086   */\n      dup5\n        /* \"#utility.yul\":9075:9098   */\n      sub\n        /* \"#utility.yul\":9071:9103   */\n      slt\n        /* \"#utility.yul\":9068:9187   */\n      iszero\n      tag_388\n      jumpi\n        /* \"#utility.yul\":9106:9185   */\n      tag_389\n      tag_201\n      jump\t// in\n    tag_389:\n        /* \"#utility.yul\":9068:9187   */\n    tag_388:\n        /* \"#utility.yul\":9226:9227   */\n      0x00\n        /* \"#utility.yul\":9251:9304   */\n      tag_390\n        /* \"#utility.yul\":9296:9303   */\n      dup5\n        /* \"#utility.yul\":9287:9293   */\n      dup3\n        /* \"#utility.yul\":9276:9285   */\n      dup6\n        /* \"#utility.yul\":9272:9294   */\n      add\n        /* \"#utility.yul\":9251:9304   */\n      tag_232\n      jump\t// in\n    tag_390:\n        /* \"#utility.yul\":9241:9304   */\n      swap2\n      pop\n        /* \"#utility.yul\":9197:9314   */\n      pop\n        /* \"#utility.yul\":8992:9321   */\n      swap3\n      swap2\n      pop\n      pop\n      jump\t// out\n        /* \"#utility.yul\":9327:10195   */\n    tag_41:\n        /* \"#utility.yul\":9583:9587   */\n      0x00\n        /* \"#utility.yul\":9621:9624   */\n      0xa0\n        /* \"#utility.yul\":9610:9619   */\n      dup3\n        /* \"#utility.yul\":9606:9625   */\n      add\n        /* \"#utility.yul\":9598:9625   */\n      swap1\n      pop\n        /* \"#utility.yul\":9671:9680   */\n      dup2\n        /* \"#utility.yul\":9665:9669   */\n      dup2\n        /* \"#utility.yul\":9661:9681   */\n      sub\n        /* \"#utility.yul\":9657:9658   */\n      0x00\n        /* \"#utility.yul\":9646:9655   */\n      dup4\n        /* \"#utility.yul\":9642:9659   */\n      add\n        /* \"#utility.yul\":9635:9682   */\n      mstore\n        /* \"#utility.yul\":9699:9777   */\n      tag_392\n        /* \"#utility.yul\":9772:9776   */\n      dup2\n        /* \"#utility.yul\":9763:9769   */\n      dup9\n        /* \"#utility.yul\":9699:9777   */\n      tag_219\n      jump\t// in\n    tag_392:\n        /* \"#utility.yul\":9691:9777   */\n      swap1\n      pop\n        /* \"#utility.yul\":9824:9833   */\n      dup2\n        /* \"#utility.yul\":9818:9822   */\n      dup2\n        /* \"#utility.yul\":9814:9834   */\n      sub\n        /* \"#utility.yul\":9809:9811   */\n      0x20\n        /* \"#utility.yul\":9798:9807   */\n      dup4\n        /* \"#utility.yul\":9794:9812   */\n      add\n        /* \"#utility.yul\":9787:9835   */\n      mstore\n        /* \"#utility.yul\":9852:9930   */\n      tag_393\n        /* \"#utility.yul\":9925:9929   */\n      dup2\n        /* \"#utility.yul\":9916:9922   */\n      dup8\n        /* \"#utility.yul\":9852:9930   */\n      tag_219\n      jump\t// in\n    tag_393:\n        /* \"#utility.yul\":9844:9930   */\n      swap1\n      pop\n        /* \"#utility.yul\":9940:10023   */\n      tag_394\n        /* \"#utility.yul\":10019:10021   */\n      0x40\n        /* \"#utility.yul\":10008:10017   */\n      dup4\n        /* \"#utility.yul\":10004:10022   */\n      add\n        /* \"#utility.yul\":9995:10001   */\n      dup7\n        /* \"#utility.yul\":9940:10023   */\n      tag_223\n      jump\t// in\n    tag_394:\n        /* \"#utility.yul\":10033:10105   */\n      tag_395\n        /* \"#utility.yul\":10101:10103   */\n      0x60\n        /* \"#utility.yul\":10090:10099   */\n      dup4\n        /* \"#utility.yul\":10086:10104   */\n      add\n        /* \"#utility.yul\":10077:10083   */\n      dup6\n        /* \"#utility.yul\":10033:10105   */\n      tag_215\n      jump\t// in\n    tag_395:\n        /* \"#utility.yul\":10115:10188   */\n      tag_396\n        /* \"#utility.yul\":10183:10186   */\n      0x80\n        /* \"#utility.yul\":10172:10181   */\n      dup4\n        /* \"#utility.yul\":10168:10187   */\n      add\n        /* \"#utility.yul\":10159:10165   */\n      dup5\n        /* \"#utility.yul\":10115:10188   */\n      tag_228\n      jump\t// in\n    tag_396:\n        /* \"#utility.yul\":9327:10195   */\n      swap7\n      swap6\n      pop\n      pop\n      pop\n      pop\n      pop\n      pop\n      jump\t// out\n        /* \"#utility.yul\":10201:10318   */\n    tag_233:\n        /* \"#utility.yul\":10310:10311   */\n      0x00\n        /* \"#utility.yul\":10307:10308   */\n      0x00\n        /* \"#utility.yul\":10300:10312   */\n      revert\n        /* \"#utility.yul\":10324:10441   */\n    tag_234:\n        /* \"#utility.yul\":10433:10434   */\n      0x00\n        /* \"#utility.yul\":10430:10431   */\n      0x00\n        /* \"#utility.yul\":10423:10435   */\n      revert\n        /* \"#utility.yul\":10461:11014   */\n    tag_235:\n        /* \"#utility.yul\":10519:10527   */\n      0x00\n        /* \"#utility.yul\":10529:10535   */\n      0x00\n        /* \"#utility.yul\":10579:10582   */\n      dup4\n        /* \"#utility.yul\":10572:10576   */\n      0x1f\n        /* \"#utility.yul\":10564:10570   */\n      dup5\n        /* \"#utility.yul\":10560:10577   */\n      add\n        /* \"#utility.yul\":10556:10583   */\n      slt\n        /* \"#utility.yul\":10546:10668   */\n      tag_400\n      jumpi\n        /* \"#utility.yul\":10587:10666   */\n      tag_401\n      tag_203\n      jump\t// in\n    tag_401:\n        /* \"#utility.yul\":10546:10668   */\n    tag_400:\n        /* \"#utility.yul\":10700:10706   */\n      dup3\n        /* \"#utility.yul\":10687:10707   */\n      calldataload\n        /* \"#utility.yul\":10677:10707   */\n      swap1\n      pop\n        /* \"#utility.yul\":10730:10748   */\n      0xffffffffffffffff\n        /* \"#utility.yul\":10722:10728   */\n      dup2\n        /* \"#utility.yul\":10719:10749   */\n      gt\n        /* \"#utility.yul\":10716:10833   */\n      iszero\n      tag_402\n      jumpi\n        /* \"#utility.yul\":10752:10831   */\n      tag_403\n      tag_233\n      jump\t// in\n    tag_403:\n        /* \"#utility.yul\":10716:10833   */\n    tag_402:\n        /* \"#utility.yul\":10866:10870   */\n      0x20\n        /* \"#utility.yul\":10858:10864   */\n      dup4\n        /* \"#utility.yul\":10854:10871   */\n      add\n        /* \"#utility.yul\":10842:10871   */\n      swap2\n      pop\n        /* \"#utility.yul\":10920:10923   */\n      dup4\n        /* \"#utility.yul\":10912:10916   */\n      0x01\n        /* \"#utility.yul\":10904:10910   */\n      dup3\n        /* \"#utility.yul\":10900:10917   */\n      mul\n        /* \"#utility.yul\":10890:10898   */\n      dup4\n        /* \"#utility.yul\":10886:10918   */\n      add\n        /* \"#utility.yul\":10883:10924   */\n      gt\n        /* \"#utility.yul\":10880:11008   */\n      iszero\n      tag_404\n      jumpi\n        /* \"#utility.yul\":10927:11006   */\n      tag_405\n      tag_234\n      jump\t// in\n    tag_405:\n        /* \"#utility.yul\":10880:11008   */\n    tag_404:\n        /* \"#utility.yul\":10461:11014   */\n      swap3\n      pop\n      swap3\n      swap1\n      pop\n      jump\t// out\n        /* \"#utility.yul\":11020:11549   */\n    tag_44:\n        /* \"#utility.yul\":11091:11097   */\n      0x00\n        /* \"#utility.yul\":11099:11105   */\n      0x00\n        /* \"#utility.yul\":11148:11150   */\n      0x20\n        /* \"#utility.yul\":11136:11145   */\n      dup4\n        /* \"#utility.yul\":11127:11134   */\n      dup6\n        /* \"#utility.yul\":11123:11146   */\n      sub\n        /* \"#utility.yul\":11119:11151   */\n      slt\n        /* \"#utility.yul\":11116:11235   */\n      iszero\n      tag_407\n      jumpi\n        /* \"#utility.yul\":11154:11233   */\n      tag_408\n      tag_201\n      jump\t// in\n    tag_408:\n        /* \"#utility.yul\":11116:11235   */\n    tag_407:\n        /* \"#utility.yul\":11302:11303   */\n      0x00\n        /* \"#utility.yul\":11291:11300   */\n      dup4\n        /* \"#utility.yul\":11287:11304   */\n      add\n        /* \"#utility.yul\":11274:11305   */\n      calldataload\n        /* \"#utility.yul\":11332:11350   */\n      0xffffffffffffffff\n        /* \"#utility.yul\":11324:11330   */\n      dup2\n        /* \"#utility.yul\":11321:11351   */\n      gt\n        /* \"#utility.yul\":11318:11435   */\n      iszero\n      tag_409\n      jumpi\n        /* \"#utility.yul\":11354:11433   */\n      tag_410\n      tag_202\n      jump\t// in\n    tag_410:\n        /* \"#utility.yul\":11318:11435   */\n    tag_409:\n        /* \"#utility.yul\":11467:11532   */\n      tag_411\n        /* \"#utility.yul\":11524:11531   */\n      dup6\n        /* \"#utility.yul\":11515:11521   */\n      dup3\n        /* \"#utility.yul\":11504:11513   */\n      dup7\n        /* \"#utility.yul\":11500:11522   */\n      add\n        /* \"#utility.yul\":11467:11532   */\n      tag_235\n      jump\t// in\n    tag_411:\n        /* \"#utility.yul\":11449:11532   */\n      swap3\n      pop\n      swap3\n      pop\n        /* \"#utility.yul\":11245:11542   */\n      pop\n        /* \"#utility.yul\":11020:11549   */\n      swap3\n      pop\n      swap3\n      swap1\n      pop\n      jump\t// out\n        /* \"#utility.yul\":11555:11690   */\n    tag_236:\n        /* \"#utility.yul\":11643:11649   */\n      0x00\n        /* \"#utility.yul\":11677:11682   */\n      dup2\n        /* \"#utility.yul\":11671:11683   */\n      mload\n        /* \"#utility.yul\":11661:11683   */\n      swap1\n      pop\n        /* \"#utility.yul\":11555:11690   */\n      swap2\n      swap1\n      pop\n      jump\t// out\n        /* \"#utility.yul\":11696:11901   */\n    tag_237:\n        /* \"#utility.yul\":11816:11827   */\n      0x00\n        /* \"#utility.yul\":11850:11856   */\n      dup3\n        /* \"#utility.yul\":11845:11848   */\n      dup3\n        /* \"#utility.yul\":11838:11857   */\n      mstore\n        /* \"#utility.yul\":11890:11894   */\n      0x20\n        /* \"#utility.yul\":11885:11888   */\n      dup3\n        /* \"#utility.yul\":11881:11895   */\n      add\n        /* \"#utility.yul\":11866:11895   */\n      swap1\n      pop\n        /* \"#utility.yul\":11696:11901   */\n      swap3\n      swap2\n      pop\n      pop\n      jump\t// out\n        /* \"#utility.yul\":11907:12060   */\n    tag_238:\n        /* \"#utility.yul\":11995:11999   */\n      0x00\n        /* \"#utility.yul\":12018:12021   */\n      dup2\n        /* \"#utility.yul\":12010:12021   */\n      swap1\n      pop\n        /* \"#utility.yul\":12048:12052   */\n      0x20\n        /* \"#utility.yul\":12043:12046   */\n      dup3\n        /* \"#utility.yul\":12039:12053   */\n      add\n        /* \"#utility.yul\":12031:12053   */\n      swap1\n      pop\n        /* \"#utility.yul\":11907:12060   */\n      swap2\n      swap1\n      pop\n      jump\t// out\n        /* \"#utility.yul\":12066:12225   */\n    tag_239:\n        /* \"#utility.yul\":12140:12151   */\n      0x00\n        /* \"#utility.yul\":12174:12180   */\n      dup3\n        /* \"#utility.yul\":12169:12172   */\n      dup3\n        /* \"#utility.yul\":12162:12181   */\n      mstore\n        /* \"#utility.yul\":12214:12218   */\n      0x20\n        /* \"#utility.yul\":12209:12212   */\n      dup3\n        /* \"#utility.yul\":12205:12219   */\n      add\n        /* \"#utility.yul\":12190:12219   */\n      swap1\n      pop\n        /* \"#utility.yul\":12066:12225   */\n      swap3\n      swap2\n      pop\n      pop\n      jump\t// out\n        /* \"#utility.yul\":12231:12588   */\n    tag_240:\n        /* \"#utility.yul\":12309:12312   */\n      0x00\n        /* \"#utility.yul\":12337:12376   */\n      tag_417\n        /* \"#utility.yul\":12370:12375   */\n      dup3\n        /* \"#utility.yul\":12337:12376   */\n      tag_216\n      jump\t// in\n    tag_417:\n        /* \"#utility.yul\":12392:12453   */\n      tag_418\n        /* \"#utility.yul\":12446:12452   */\n      dup2\n        /* \"#utility.yul\":12441:12444   */\n      dup6\n        /* \"#utility.yul\":12392:12453   */\n      tag_239\n      jump\t// in\n    tag_418:\n        /* \"#utility.yul\":12385:12453   */\n      swap4\n      pop\n        /* \"#utility.yul\":12462:12527   */\n      tag_419\n        /* \"#utility.yul\":12520:12526   */\n      dup2\n        /* \"#utility.yul\":12515:12518   */\n      dup6\n        /* \"#utility.yul\":12508:12512   */\n      0x20\n        /* \"#utility.yul\":12501:12506   */\n      dup7\n        /* \"#utility.yul\":12497:12513   */\n      add\n        /* \"#utility.yul\":12462:12527   */\n      tag_218\n      jump\t// in\n    tag_419:\n        /* \"#utility.yul\":12552:12581   */\n      tag_420\n        /* \"#utility.yul\":12574:12580   */\n      dup2\n        /* \"#utility.yul\":12552:12581   */\n      tag_205\n      jump\t// in\n    tag_420:\n        /* \"#utility.yul\":12547:12550   */\n      dup5\n        /* \"#utility.yul\":12543:12582   */\n      add\n        /* \"#utility.yul\":12536:12582   */\n      swap2\n      pop\n        /* \"#utility.yul\":12313:12588   */\n      pop\n        /* \"#utility.yul\":12231:12588   */\n      swap3\n      swap2\n      pop\n      pop\n      jump\t// out\n        /* \"#utility.yul\":12594:12737   */\n    tag_241:\n        /* \"#utility.yul\":12682:12730   */\n      tag_422\n        /* \"#utility.yul\":12724:12729   */\n      dup2\n        /* \"#utility.yul\":12682:12730   */\n      tag_222\n      jump\t// in\n    tag_422:\n        /* \"#utility.yul\":12677:12680   */\n      dup3\n        /* \"#utility.yul\":12670:12731   */\n      mstore\n        /* \"#utility.yul\":12594:12737   */\n      pop\n      pop\n      jump\t// out\n        /* \"#utility.yul\":12743:12851   */\n    tag_242:\n        /* \"#utility.yul\":12820:12844   */\n      tag_424\n        /* \"#utility.yul\":12838:12843   */\n      dup2\n        /* \"#utility.yul\":12820:12844   */\n      tag_212\n      jump\t// in\n    tag_424:\n        /* \"#utility.yul\":12815:12818   */\n      dup3\n        /* \"#utility.yul\":12808:12845   */\n      mstore\n        /* \"#utility.yul\":12743:12851   */\n      pop\n      pop\n      jump\t// out\n        /* \"#utility.yul\":12857:12965   */\n    tag_243:\n        /* \"#utility.yul\":12934:12958   */\n      tag_426\n        /* \"#utility.yul\":12952:12957   */\n      dup2\n        /* \"#utility.yul\":12934:12958   */\n      tag_224\n      jump\t// in\n    tag_426:\n        /* \"#utility.yul\":12929:12932   */\n      dup3\n        /* \"#utility.yul\":12922:12959   */\n      mstore\n        /* \"#utility.yul\":12857:12965   */\n      pop\n      pop\n      jump\t// out\n        /* \"#utility.yul\":12971:13079   */\n    tag_244:\n        /* \"#utility.yul\":13048:13072   */\n      tag_428\n        /* \"#utility.yul\":13066:13071   */\n      dup2\n        /* \"#utility.yul\":13048:13072   */\n      tag_227\n      jump\t// in\n    tag_428:\n        /* \"#utility.yul\":13043:13046   */\n      dup3\n        /* \"#utility.yul\":13036:13073   */\n      mstore\n        /* \"#utility.yul\":12971:13079   */\n      pop\n      pop\n      jump\t// out\n        /* \"#utility.yul\":13149:14563   */\n    tag_245:\n        /* \"#utility.yul\":13250:13253   */\n      0x00\n        /* \"#utility.yul\":13286:13290   */\n      0xc0\n        /* \"#utility.yul\":13281:13284   */\n      dup4\n        /* \"#utility.yul\":13277:13291   */\n      add\n        /* \"#utility.yul\":13384:13388   */\n      0x00\n        /* \"#utility.yul\":13377:13382   */\n      dup4\n        /* \"#utility.yul\":13373:13389   */\n      add\n        /* \"#utility.yul\":13367:13390   */\n      mload\n        /* \"#utility.yul\":13437:13440   */\n      dup5\n        /* \"#utility.yul\":13431:13435   */\n      dup3\n        /* \"#utility.yul\":13427:13441   */\n      sub\n        /* \"#utility.yul\":13420:13424   */\n      0x00\n        /* \"#utility.yul\":13415:13418   */\n      dup7\n        /* \"#utility.yul\":13411:13425   */\n      add\n        /* \"#utility.yul\":13404:13442   */\n      mstore\n        /* \"#utility.yul\":13463:13536   */\n      tag_430\n        /* \"#utility.yul\":13531:13535   */\n      dup3\n        /* \"#utility.yul\":13517:13529   */\n      dup3\n        /* \"#utility.yul\":13463:13536   */\n      tag_240\n      jump\t// in\n    tag_430:\n        /* \"#utility.yul\":13455:13536   */\n      swap2\n      pop\n        /* \"#utility.yul\":13301:13547   */\n      pop\n        /* \"#utility.yul\":13645:13649   */\n      0x20\n        /* \"#utility.yul\":13638:13643   */\n      dup4\n        /* \"#utility.yul\":13634:13650   */\n      add\n        /* \"#utility.yul\":13628:13651   */\n      mload\n        /* \"#utility.yul\":13698:13701   */\n      dup5\n        /* \"#utility.yul\":13692:13696   */\n      dup3\n        /* \"#utility.yul\":13688:13702   */\n      sub\n        /* \"#utility.yul\":13681:13685   */\n      0x20\n        /* \"#utility.yul\":13676:13679   */\n      dup7\n        /* \"#utility.yul\":13672:13686   */\n      add\n        /* \"#utility.yul\":13665:13703   */\n      mstore\n        /* \"#utility.yul\":13724:13797   */\n      tag_431\n        /* \"#utility.yul\":13792:13796   */\n      dup3\n        /* \"#utility.yul\":13778:13790   */\n      dup3\n        /* \"#utility.yul\":13724:13797   */\n      tag_240\n      jump\t// in\n    tag_431:\n        /* \"#utility.yul\":13716:13797   */\n      swap2\n      pop\n        /* \"#utility.yul\":13557:13808   */\n      pop\n        /* \"#utility.yul\":13892:13896   */\n      0x40\n        /* \"#utility.yul\":13885:13890   */\n      dup4\n        /* \"#utility.yul\":13881:13897   */\n      add\n        /* \"#utility.yul\":13875:13898   */\n      mload\n        /* \"#utility.yul\":13911:13985   */\n      tag_432\n        /* \"#utility.yul\":13979:13983   */\n      0x40\n        /* \"#utility.yul\":13974:13977   */\n      dup7\n        /* \"#utility.yul\":13970:13984   */\n      add\n        /* \"#utility.yul\":13956:13968   */\n      dup3\n        /* \"#utility.yul\":13911:13985   */\n      tag_241\n      jump\t// in\n    tag_432:\n        /* \"#utility.yul\":13818:13995   */\n      pop\n        /* \"#utility.yul\":14087:14091   */\n      0x60\n        /* \"#utility.yul\":14080:14085   */\n      dup4\n        /* \"#utility.yul\":14076:14092   */\n      add\n        /* \"#utility.yul\":14070:14093   */\n      mload\n        /* \"#utility.yul\":14106:14169   */\n      tag_433\n        /* \"#utility.yul\":14163:14167   */\n      0x60\n        /* \"#utility.yul\":14158:14161   */\n      dup7\n        /* \"#utility.yul\":14154:14168   */\n      add\n        /* \"#utility.yul\":14140:14152   */\n      dup3\n        /* \"#utility.yul\":14106:14169   */\n      tag_242\n      jump\t// in\n    tag_433:\n        /* \"#utility.yul\":14005:14179   */\n      pop\n        /* \"#utility.yul\":14267:14271   */\n      0x80\n        /* \"#utility.yul\":14260:14265   */\n      dup4\n        /* \"#utility.yul\":14256:14272   */\n      add\n        /* \"#utility.yul\":14250:14273   */\n      mload\n        /* \"#utility.yul\":14286:14349   */\n      tag_434\n        /* \"#utility.yul\":14343:14347   */\n      0x80\n        /* \"#utility.yul\":14338:14341   */\n      dup7\n        /* \"#utility.yul\":14334:14348   */\n      add\n        /* \"#utility.yul\":14320:14332   */\n      dup3\n        /* \"#utility.yul\":14286:14349   */\n      tag_243\n      jump\t// in\n    tag_434:\n        /* \"#utility.yul\":14189:14359   */\n      pop\n        /* \"#utility.yul\":14444:14448   */\n      0xa0\n        /* \"#utility.yul\":14437:14442   */\n      dup4\n        /* \"#utility.yul\":14433:14449   */\n      add\n        /* \"#utility.yul\":14427:14450   */\n      mload\n        /* \"#utility.yul\":14463:14526   */\n      tag_435\n        /* \"#utility.yul\":14520:14524   */\n      0xa0\n        /* \"#utility.yul\":14515:14518   */\n      dup7\n        /* \"#utility.yul\":14511:14525   */\n      add\n        /* \"#utility.yul\":14497:14509   */\n      dup3\n        /* \"#utility.yul\":14463:14526   */\n      tag_244\n      jump\t// in\n    tag_435:\n        /* \"#utility.yul\":14369:14536   */\n      pop\n        /* \"#utility.yul\":14553:14557   */\n      dup1\n        /* \"#utility.yul\":14546:14557   */\n      swap2\n      pop\n        /* \"#utility.yul\":13255:14563   */\n      pop\n        /* \"#utility.yul\":13149:14563   */\n      swap3\n      swap2\n      pop\n      pop\n      jump\t// out\n        /* \"#utility.yul\":14569:14809   */\n    tag_246:\n        /* \"#utility.yul\":14680:14690   */\n      0x00\n        /* \"#utility.yul\":14715:14803   */\n      tag_437\n        /* \"#utility.yul\":14799:14802   */\n      dup4\n        /* \"#utility.yul\":14791:14797   */\n      dup4\n        /* \"#utility.yul\":14715:14803   */\n      tag_245\n      jump\t// in\n    tag_437:\n        /* \"#utility.yul\":14701:14803   */\n      swap1\n      pop\n        /* \"#utility.yul\":14569:14809   */\n      swap3\n      swap2\n      pop\n      pop\n      jump\t// out\n        /* \"#utility.yul\":14815:14949   */\n    tag_247:\n        /* \"#utility.yul\":14906:14910   */\n      0x00\n        /* \"#utility.yul\":14938:14942   */\n      0x20\n        /* \"#utility.yul\":14933:14936   */\n      dup3\n        /* \"#utility.yul\":14929:14943   */\n      add\n        /* \"#utility.yul\":14921:14943   */\n      swap1\n      pop\n        /* \"#utility.yul\":14815:14949   */\n      swap2\n      swap1\n      pop\n      jump\t// out\n        /* \"#utility.yul\":15023:16102   */\n    tag_248:\n        /* \"#utility.yul\":15184:15187   */\n      0x00\n        /* \"#utility.yul\":15213:15288   */\n      tag_440\n        /* \"#utility.yul\":15282:15287   */\n      dup3\n        /* \"#utility.yul\":15213:15288   */\n      tag_236\n      jump\t// in\n    tag_440:\n        /* \"#utility.yul\":15304:15411   */\n      tag_441\n        /* \"#utility.yul\":15404:15410   */\n      dup2\n        /* \"#utility.yul\":15399:15402   */\n      dup6\n        /* \"#utility.yul\":15304:15411   */\n      tag_237\n      jump\t// in\n    tag_441:\n        /* \"#utility.yul\":15297:15411   */\n      swap4\n      pop\n        /* \"#utility.yul\":15437:15440   */\n      dup4\n        /* \"#utility.yul\":15482:15486   */\n      0x20\n        /* \"#utility.yul\":15474:15480   */\n      dup3\n        /* \"#utility.yul\":15470:15487   */\n      mul\n        /* \"#utility.yul\":15465:15468   */\n      dup6\n        /* \"#utility.yul\":15461:15488   */\n      add\n        /* \"#utility.yul\":15512:15589   */\n      tag_442\n        /* \"#utility.yul\":15583:15588   */\n      dup6\n        /* \"#utility.yul\":15512:15589   */\n      tag_238\n      jump\t// in\n    tag_442:\n        /* \"#utility.yul\":15612:15619   */\n      dup1\n        /* \"#utility.yul\":15643:15644   */\n      0x00\n        /* \"#utility.yul\":15628:16057   */\n    tag_443:\n        /* \"#utility.yul\":15653:15659   */\n      dup6\n        /* \"#utility.yul\":15650:15651   */\n      dup2\n        /* \"#utility.yul\":15647:15660   */\n      lt\n        /* \"#utility.yul\":15628:16057   */\n      iszero\n      tag_445\n      jumpi\n        /* \"#utility.yul\":15724:15733   */\n      dup5\n        /* \"#utility.yul\":15718:15722   */\n      dup5\n        /* \"#utility.yul\":15714:15734   */\n      sub\n        /* \"#utility.yul\":15709:15712   */\n      dup10\n        /* \"#utility.yul\":15702:15735   */\n      mstore\n        /* \"#utility.yul\":15775:15781   */\n      dup2\n        /* \"#utility.yul\":15769:15782   */\n      mload\n        /* \"#utility.yul\":15803:15909   */\n      tag_446\n        /* \"#utility.yul\":15904:15908   */\n      dup6\n        /* \"#utility.yul\":15889:15902   */\n      dup3\n        /* \"#utility.yul\":15803:15909   */\n      tag_246\n      jump\t// in\n    tag_446:\n        /* \"#utility.yul\":15795:15909   */\n      swap5\n      pop\n        /* \"#utility.yul\":15932:16013   */\n      tag_447\n        /* \"#utility.yul\":16006:16012   */\n      dup4\n        /* \"#utility.yul\":15932:16013   */\n      tag_247\n      jump\t// in\n    tag_447:\n        /* \"#utility.yul\":15922:16013   */\n      swap3\n      pop\n        /* \"#utility.yul\":16042:16046   */\n      0x20\n        /* \"#utility.yul\":16037:16040   */\n      dup11\n        /* \"#utility.yul\":16033:16047   */\n      add\n        /* \"#utility.yul\":16026:16047   */\n      swap10\n      pop\n        /* \"#utility.yul\":15688:16057   */\n      pop\n        /* \"#utility.yul\":15675:15676   */\n      0x01\n        /* \"#utility.yul\":15672:15673   */\n      dup2\n        /* \"#utility.yul\":15668:15677   */\n      add\n        /* \"#utility.yul\":15663:15677   */\n      swap1\n      pop\n        /* \"#utility.yul\":15628:16057   */\n      jump(tag_443)\n    tag_445:\n        /* \"#utility.yul\":15632:15646   */\n      pop\n        /* \"#utility.yul\":16073:16077   */\n      dup3\n        /* \"#utility.yul\":16066:16077   */\n      swap8\n      pop\n        /* \"#utility.yul\":16093:16096   */\n      dup8\n        /* \"#utility.yul\":16086:16096   */\n      swap6\n      pop\n        /* \"#utility.yul\":15189:16102   */\n      pop\n      pop\n      pop\n      pop\n      pop\n        /* \"#utility.yul\":15023:16102   */\n      swap3\n      swap2\n      pop\n      pop\n      jump\t// out\n        /* \"#utility.yul\":16108:16565   */\n    tag_47:\n        /* \"#utility.yul\":16293:16297   */\n      0x00\n        /* \"#utility.yul\":16331:16333   */\n      0x20\n        /* \"#utility.yul\":16320:16329   */\n      dup3\n        /* \"#utility.yul\":16316:16334   */\n      add\n        /* \"#utility.yul\":16308:16334   */\n      swap1\n      pop\n        /* \"#utility.yul\":16380:16389   */\n      dup2\n        /* \"#utility.yul\":16374:16378   */\n      dup2\n        /* \"#utility.yul\":16370:16390   */\n      sub\n        /* \"#utility.yul\":16366:16367   */\n      0x00\n        /* \"#utility.yul\":16355:16364   */\n      dup4\n        /* \"#utility.yul\":16351:16368   */\n      add\n        /* \"#utility.yul\":16344:16391   */\n      mstore\n        /* \"#utility.yul\":16408:16558   */\n      tag_449\n        /* \"#utility.yul\":16553:16557   */\n      dup2\n        /* \"#utility.yul\":16544:16550   */\n      dup5\n        /* \"#utility.yul\":16408:16558   */\n      tag_248\n      jump\t// in\n    tag_449:\n        /* \"#utility.yul\":16400:16558   */\n      swap1\n      pop\n        /* \"#utility.yul\":16108:16565   */\n      swap3\n      swap2\n      pop\n      pop\n      jump\t// out\n        /* \"#utility.yul\":16571:17445   */\n    tag_50:\n        /* \"#utility.yul\":16663:16669   */\n      0x00\n        /* \"#utility.yul\":16671:16677   */\n      0x00\n        /* \"#utility.yul\":16679:16685   */\n      0x00\n        /* \"#utility.yul\":16687:16693   */\n      0x00\n        /* \"#utility.yul\":16736:16738   */\n      0x40\n        /* \"#utility.yul\":16724:16733   */\n      dup6\n        /* \"#utility.yul\":16715:16722   */\n      dup8\n        /* \"#utility.yul\":16711:16734   */\n      sub\n        /* \"#utility.yul\":16707:16739   */\n      slt\n        /* \"#utility.yul\":16704:16823   */\n      iszero\n      tag_451\n      jumpi\n        /* \"#utility.yul\":16742:16821   */\n      tag_452\n      tag_201\n      jump\t// in\n    tag_452:\n        /* \"#utility.yul\":16704:16823   */\n    tag_451:\n        /* \"#utility.yul\":16890:16891   */\n      0x00\n        /* \"#utility.yul\":16879:16888   */\n      dup6\n        /* \"#utility.yul\":16875:16892   */\n      add\n        /* \"#utility.yul\":16862:16893   */\n      calldataload\n        /* \"#utility.yul\":16920:16938   */\n      0xffffffffffffffff\n        /* \"#utility.yul\":16912:16918   */\n      dup2\n        /* \"#utility.yul\":16909:16939   */\n      gt\n        /* \"#utility.yul\":16906:17023   */\n      iszero\n      tag_453\n      jumpi\n        /* \"#utility.yul\":16942:17021   */\n      tag_454\n      tag_202\n      jump\t// in\n    tag_454:\n        /* \"#utility.yul\":16906:17023   */\n    tag_453:\n        /* \"#utility.yul\":17055:17120   */\n      tag_455\n        /* \"#utility.yul\":17112:17119   */\n      dup8\n        /* \"#utility.yul\":17103:17109   */\n      dup3\n        /* \"#utility.yul\":17092:17101   */\n      dup9\n        /* \"#utility.yul\":17088:17110   */\n      add\n        /* \"#utility.yul\":17055:17120   */\n      tag_235\n      jump\t// in\n    tag_455:\n        /* \"#utility.yul\":17037:17120   */\n      swap5\n      pop\n      swap5\n      pop\n        /* \"#utility.yul\":16833:17130   */\n      pop\n        /* \"#utility.yul\":17197:17199   */\n      0x20\n        /* \"#utility.yul\":17186:17195   */\n      dup6\n        /* \"#utility.yul\":17182:17200   */\n      add\n        /* \"#utility.yul\":17169:17201   */\n      calldataload\n        /* \"#utility.yul\":17228:17246   */\n      0xffffffffffffffff\n        /* \"#utility.yul\":17220:17226   */\n      dup2\n        /* \"#utility.yul\":17217:17247   */\n      gt\n        /* \"#utility.yul\":17214:17331   */\n      iszero\n      tag_456\n      jumpi\n        /* \"#utility.yul\":17250:17329   */\n      tag_457\n      tag_202\n      jump\t// in\n    tag_457:\n        /* \"#utility.yul\":17214:17331   */\n    tag_456:\n        /* \"#utility.yul\":17363:17428   */\n      tag_458\n        /* \"#utility.yul\":17420:17427   */\n      dup8\n        /* \"#utility.yul\":17411:17417   */\n      dup3\n        /* \"#utility.yul\":17400:17409   */\n      dup9\n        /* \"#utility.yul\":17396:17418   */\n      add\n        /* \"#utility.yul\":17363:17428   */\n      tag_235\n      jump\t// in\n    tag_458:\n        /* \"#utility.yul\":17345:17428   */\n      swap3\n      pop\n      swap3\n      pop\n        /* \"#utility.yul\":17140:17438   */\n      pop\n        /* \"#utility.yul\":16571:17445   */\n      swap3\n      swap6\n      swap2\n      swap5\n      pop\n      swap3\n      pop\n      jump\t// out\n        /* \"#utility.yul\":17451:17951   */\n    tag_57:\n        /* \"#utility.yul\":17532:17538   */\n      0x00\n        /* \"#utility.yul\":17540:17546   */\n      0x00\n        /* \"#utility.yul\":17589:17591   */\n      0x40\n        /* \"#utility.yul\":17577:17586   */\n      dup4\n        /* \"#utility.yul\":17568:17575   */\n      dup6\n        /* \"#utility.yul\":17564:17587   */\n      sub\n        /* \"#utility.yul\":17560:17592   */\n      slt\n        /* \"#utility.yul\":17557:17676   */\n      iszero\n      tag_460\n      jumpi\n        /* \"#utility.yul\":17595:17674   */\n      tag_461\n      tag_201\n      jump\t// in\n    tag_461:\n        /* \"#utility.yul\":17557:17676   */\n    tag_460:\n        /* \"#utility.yul\":17715:17716   */\n      0x00\n        /* \"#utility.yul\":17740:17793   */\n      tag_462\n        /* \"#utility.yul\":17785:17792   */\n      dup6\n        /* \"#utility.yul\":17776:17782   */\n      dup3\n        /* \"#utility.yul\":17765:17774   */\n      dup7\n        /* \"#utility.yul\":17761:17783   */\n      add\n        /* \"#utility.yul\":17740:17793   */\n      tag_214\n      jump\t// in\n    tag_462:\n        /* \"#utility.yul\":17730:17793   */\n      swap3\n      pop\n        /* \"#utility.yul\":17686:17803   */\n      pop\n        /* \"#utility.yul\":17842:17844   */\n      0x20\n        /* \"#utility.yul\":17868:17934   */\n      tag_463\n        /* \"#utility.yul\":17926:17933   */\n      dup6\n        /* \"#utility.yul\":17917:17923   */\n      dup3\n        /* \"#utility.yul\":17906:17915   */\n      dup7\n        /* \"#utility.yul\":17902:17924   */\n      add\n        /* \"#utility.yul\":17868:17934   */\n      tag_230\n      jump\t// in\n    tag_463:\n        /* \"#utility.yul\":17858:17934   */\n      swap2\n      pop\n        /* \"#utility.yul\":17813:17944   */\n      pop\n        /* \"#utility.yul\":17451:17951   */\n      swap3\n      pop\n      swap3\n      swap1\n      pop\n      jump\t// out\n        /* \"#utility.yul\":17957:18137   */\n    tag_249:\n        /* \"#utility.yul\":18005:18082   */\n      0x4e487b7100000000000000000000000000000000000000000000000000000000\n        /* \"#utility.yul\":18002:18003   */\n      0x00\n        /* \"#utility.yul\":17995:18083   */\n      mstore\n        /* \"#utility.yul\":18102:18106   */\n      0x22\n        /* \"#utility.yul\":18099:18100   */\n      0x04\n        /* \"#utility.yul\":18092:18107   */\n      mstore\n        /* \"#utility.yul\":18126:18130   */\n      0x24\n        /* \"#utility.yul\":18123:18124   */\n      0x00\n        /* \"#utility.yul\":18116:18131   */\n      revert\n        /* \"#utility.yul\":18143:18463   */\n    tag_68:\n        /* \"#utility.yul\":18187:18193   */\n      0x00\n        /* \"#utility.yul\":18224:18225   */\n      0x02\n        /* \"#utility.yul\":18218:18222   */\n      dup3\n        /* \"#utility.yul\":18214:18226   */\n      div\n        /* \"#utility.yul\":18204:18226   */\n      swap1\n      pop\n        /* \"#utility.yul\":18271:18272   */\n      0x01\n        /* \"#utility.yul\":18265:18269   */\n      dup3\n        /* \"#utility.yul\":18261:18273   */\n      and\n        /* \"#utility.yul\":18292:18310   */\n      dup1\n        /* \"#utility.yul\":18282:18363   */\n      tag_466\n      jumpi\n        /* \"#utility.yul\":18348:18352   */\n      0x7f\n        /* \"#utility.yul\":18340:18346   */\n      dup3\n        /* \"#utility.yul\":18336:18353   */\n      and\n        /* \"#utility.yul\":18326:18353   */\n      swap2\n      pop\n        /* \"#utility.yul\":18282:18363   */\n    tag_466:\n        /* \"#utility.yul\":18410:18412   */\n      0x20\n        /* \"#utility.yul\":18402:18408   */\n      dup3\n        /* \"#utility.yul\":18399:18413   */\n      lt\n        /* \"#utility.yul\":18379:18397   */\n      dup2\n        /* \"#utility.yul\":18376:18414   */\n      sub\n        /* \"#utility.yul\":18373:18457   */\n      tag_467\n      jumpi\n        /* \"#utility.yul\":18429:18447   */\n      tag_468\n      tag_249\n      jump\t// in\n    tag_468:\n        /* \"#utility.yul\":18373:18457   */\n    tag_467:\n        /* \"#utility.yul\":18194:18463   */\n      pop\n        /* \"#utility.yul\":18143:18463   */\n      swap2\n      swap1\n      pop\n      jump\t// out\n        /* \"#utility.yul\":18469:18617   */\n    tag_250:\n        /* \"#utility.yul\":18571:18582   */\n      0x00\n        /* \"#utility.yul\":18608:18611   */\n      dup2\n        /* \"#utility.yul\":18593:18611   */\n      swap1\n      pop\n        /* \"#utility.yul\":18469:18617   */\n      swap3\n      swap2\n      pop\n      pop\n      jump\t// out\n        /* \"#utility.yul\":18623:19013   */\n    tag_251:\n        /* \"#utility.yul\":18729:18732   */\n      0x00\n        /* \"#utility.yul\":18757:18796   */\n      tag_471\n        /* \"#utility.yul\":18790:18795   */\n      dup3\n        /* \"#utility.yul\":18757:18796   */\n      tag_216\n      jump\t// in\n    tag_471:\n        /* \"#utility.yul\":18812:18901   */\n      tag_472\n        /* \"#utility.yul\":18894:18900   */\n      dup2\n        /* \"#utility.yul\":18889:18892   */\n      dup6\n        /* \"#utility.yul\":18812:18901   */\n      tag_250\n      jump\t// in\n    tag_472:\n        /* \"#utility.yul\":18805:18901   */\n      swap4\n      pop\n        /* \"#utility.yul\":18910:18975   */\n      tag_473\n        /* \"#utility.yul\":18968:18974   */\n      dup2\n        /* \"#utility.yul\":18963:18966   */\n      dup6\n        /* \"#utility.yul\":18956:18960   */\n      0x20\n        /* \"#utility.yul\":18949:18954   */\n      dup7\n        /* \"#utility.yul\":18945:18961   */\n      add\n        /* \"#utility.yul\":18910:18975   */\n      tag_218\n      jump\t// in\n    tag_473:\n        /* \"#utility.yul\":19000:19006   */\n      dup1\n        /* \"#utility.yul\":18995:18998   */\n      dup5\n        /* \"#utility.yul\":18991:19007   */\n      add\n        /* \"#utility.yul\":18984:19007   */\n      swap2\n      pop\n        /* \"#utility.yul\":18733:19013   */\n      pop\n        /* \"#utility.yul\":18623:19013   */\n      swap3\n      swap2\n      pop\n      pop\n      jump\t// out\n        /* \"#utility.yul\":19019:19098   */\n    tag_252:\n        /* \"#utility.yul\":19058:19065   */\n      0x00\n        /* \"#utility.yul\":19087:19092   */\n      dup2\n        /* \"#utility.yul\":19076:19092   */\n      swap1\n      pop\n        /* \"#utility.yul\":19019:19098   */\n      swap2\n      swap1\n      pop\n      jump\t// out\n        /* \"#utility.yul\":19104:19261   */\n    tag_253:\n        /* \"#utility.yul\":19209:19254   */\n      tag_476\n        /* \"#utility.yul\":19229:19253   */\n      tag_477\n        /* \"#utility.yul\":19247:19252   */\n      dup3\n        /* \"#utility.yul\":19229:19253   */\n      tag_212\n      jump\t// in\n    tag_477:\n        /* \"#utility.yul\":19209:19254   */\n      tag_252\n      jump\t// in\n    tag_476:\n        /* \"#utility.yul\":19204:19207   */\n      dup3\n        /* \"#utility.yul\":19197:19255   */\n      mstore\n        /* \"#utility.yul\":19104:19261   */\n      pop\n      pop\n      jump\t// out\n        /* \"#utility.yul\":19267:19363   */\n    tag_254:\n        /* \"#utility.yul\":19301:19309   */\n      0x00\n        /* \"#utility.yul\":19350:19355   */\n      dup2\n        /* \"#utility.yul\":19345:19348   */\n      0xf8\n        /* \"#utility.yul\":19341:19356   */\n      shl\n        /* \"#utility.yul\":19320:19356   */\n      swap1\n      pop\n        /* \"#utility.yul\":19267:19363   */\n      swap2\n      swap1\n      pop\n      jump\t// out\n        /* \"#utility.yul\":19369:19462   */\n    tag_255:\n        /* \"#utility.yul\":19406:19413   */\n      0x00\n        /* \"#utility.yul\":19435:19456   */\n      tag_480\n        /* \"#utility.yul\":19450:19455   */\n      dup3\n        /* \"#utility.yul\":19435:19456   */\n      tag_254\n      jump\t// in\n    tag_480:\n        /* \"#utility.yul\":19424:19456   */\n      swap1\n      pop\n        /* \"#utility.yul\":19369:19462   */\n      swap2\n      swap1\n      pop\n      jump\t// out\n        /* \"#utility.yul\":19468:19658   */\n    tag_256:\n        /* \"#utility.yul\":19584:19651   */\n      tag_482\n        /* \"#utility.yul\":19602:19650   */\n      tag_483\n        /* \"#utility.yul\":19644:19649   */\n      dup3\n        /* \"#utility.yul\":19602:19650   */\n      tag_222\n      jump\t// in\n    tag_483:\n        /* \"#utility.yul\":19584:19651   */\n      tag_255\n      jump\t// in\n    tag_482:\n        /* \"#utility.yul\":19579:19582   */\n      dup3\n        /* \"#utility.yul\":19572:19652   */\n      mstore\n        /* \"#utility.yul\":19468:19658   */\n      pop\n      pop\n      jump\t// out\n        /* \"#utility.yul\":19664:20242   */\n    tag_80:\n        /* \"#utility.yul\":19863:19866   */\n      0x00\n        /* \"#utility.yul\":19885:19980   */\n      tag_485\n        /* \"#utility.yul\":19976:19979   */\n      dup3\n        /* \"#utility.yul\":19967:19973   */\n      dup7\n        /* \"#utility.yul\":19885:19980   */\n      tag_251\n      jump\t// in\n    tag_485:\n        /* \"#utility.yul\":19878:19980   */\n      swap2\n      pop\n        /* \"#utility.yul\":19990:20065   */\n      tag_486\n        /* \"#utility.yul\":20061:20064   */\n      dup3\n        /* \"#utility.yul\":20052:20058   */\n      dup6\n        /* \"#utility.yul\":19990:20065   */\n      tag_253\n      jump\t// in\n    tag_486:\n        /* \"#utility.yul\":20090:20092   */\n      0x20\n        /* \"#utility.yul\":20085:20088   */\n      dup3\n        /* \"#utility.yul\":20081:20093   */\n      add\n        /* \"#utility.yul\":20074:20093   */\n      swap2\n      pop\n        /* \"#utility.yul\":20103:20189   */\n      tag_487\n        /* \"#utility.yul\":20185:20188   */\n      dup3\n        /* \"#utility.yul\":20176:20182   */\n      dup5\n        /* \"#utility.yul\":20103:20189   */\n      tag_256\n      jump\t// in\n    tag_487:\n        /* \"#utility.yul\":20214:20215   */\n      0x01\n        /* \"#utility.yul\":20209:20212   */\n      dup3\n        /* \"#utility.yul\":20205:20216   */\n      add\n        /* \"#utility.yul\":20198:20216   */\n      swap2\n      pop\n        /* \"#utility.yul\":20233:20236   */\n      dup2\n        /* \"#utility.yul\":20226:20236   */\n      swap1\n      pop\n        /* \"#utility.yul\":19664:20242   */\n      swap5\n      swap4\n      pop\n      pop\n      pop\n      pop\n      jump\t// out\n        /* \"#utility.yul\":20248:20412   */\n    tag_257:\n        /* \"#utility.yul\":20388:20404   */\n      0x496e6469636520696e766169646f000000000000000000000000000000000000\n        /* \"#utility.yul\":20384:20385   */\n      0x00\n        /* \"#utility.yul\":20376:20382   */\n      dup3\n        /* \"#utility.yul\":20372:20386   */\n      add\n        /* \"#utility.yul\":20365:20405   */\n      mstore\n        /* \"#utility.yul\":20248:20412   */\n      pop\n      jump\t// out\n        /* \"#utility.yul\":20418:20784   */\n    tag_258:\n        /* \"#utility.yul\":20560:20563   */\n      0x00\n        /* \"#utility.yul\":20581:20648   */\n      tag_490\n        /* \"#utility.yul\":20645:20647   */\n      0x0e\n        /* \"#utility.yul\":20640:20643   */\n      dup4\n        /* \"#utility.yul\":20581:20648   */\n      tag_217\n      jump\t// in\n    tag_490:\n        /* \"#utility.yul\":20574:20648   */\n      swap2\n      pop\n        /* \"#utility.yul\":20657:20750   */\n      tag_491\n        /* \"#utility.yul\":20746:20749   */\n      dup3\n        /* \"#utility.yul\":20657:20750   */\n      tag_257\n      jump\t// in\n    tag_491:\n        /* \"#utility.yul\":20775:20777   */\n      0x20\n        /* \"#utility.yul\":20770:20773   */\n      dup3\n        /* \"#utility.yul\":20766:20778   */\n      add\n        /* \"#utility.yul\":20759:20778   */\n      swap1\n      pop\n        /* \"#utility.yul\":20418:20784   */\n      swap2\n      swap1\n      pop\n      jump\t// out\n        /* \"#utility.yul\":20790:21209   */\n    tag_84:\n        /* \"#utility.yul\":20956:20960   */\n      0x00\n        /* \"#utility.yul\":20994:20996   */\n      0x20\n        /* \"#utility.yul\":20983:20992   */\n      dup3\n        /* \"#utility.yul\":20979:20997   */\n      add\n        /* \"#utility.yul\":20971:20997   */\n      swap1\n      pop\n        /* \"#utility.yul\":21043:21052   */\n      dup2\n        /* \"#utility.yul\":21037:21041   */\n      dup2\n        /* \"#utility.yul\":21033:21053   */\n      sub\n        /* \"#utility.yul\":21029:21030   */\n      0x00\n        /* \"#utility.yul\":21018:21027   */\n      dup4\n        /* \"#utility.yul\":21014:21031   */\n      add\n        /* \"#utility.yul\":21007:21054   */\n      mstore\n        /* \"#utility.yul\":21071:21202   */\n      tag_493\n        /* \"#utility.yul\":21197:21201   */\n      dup2\n        /* \"#utility.yul\":21071:21202   */\n      tag_258\n      jump\t// in\n    tag_493:\n        /* \"#utility.yul\":21063:21202   */\n      swap1\n      pop\n        /* \"#utility.yul\":20790:21209   */\n      swap2\n      swap1\n      pop\n      jump\t// out\n        /* \"#utility.yul\":21215:21395   */\n    tag_87:\n        /* \"#utility.yul\":21263:21340   */\n      0x4e487b7100000000000000000000000000000000000000000000000000000000\n        /* \"#utility.yul\":21260:21261   */\n      0x00\n        /* \"#utility.yul\":21253:21341   */\n      mstore\n        /* \"#utility.yul\":21360:21364   */\n      0x32\n        /* \"#utility.yul\":21357:21358   */\n      0x04\n        /* \"#utility.yul\":21350:21365   */\n      mstore\n        /* \"#utility.yul\":21384:21388   */\n      0x24\n        /* \"#utility.yul\":21381:21382   */\n      0x00\n        /* \"#utility.yul\":21374:21389   */\n      revert\n        /* \"#utility.yul\":21401:21574   */\n    tag_259:\n        /* \"#utility.yul\":21541:21566   */\n      0x4e6f20736520656e636f6e74726f206c61207461726561000000000000000000\n        /* \"#utility.yul\":21537:21538   */\n      0x00\n        /* \"#utility.yul\":21529:21535   */\n      dup3\n        /* \"#utility.yul\":21525:21539   */\n      add\n        /* \"#utility.yul\":21518:21567   */\n      mstore\n        /* \"#utility.yul\":21401:21574   */\n      pop\n      jump\t// out\n        /* \"#utility.yul\":21580:21946   */\n    tag_260:\n        /* \"#utility.yul\":21722:21725   */\n      0x00\n        /* \"#utility.yul\":21743:21810   */\n      tag_497\n        /* \"#utility.yul\":21807:21809   */\n      0x17\n        /* \"#utility.yul\":21802:21805   */\n      dup4\n        /* \"#utility.yul\":21743:21810   */\n      tag_217\n      jump\t// in\n    tag_497:\n        /* \"#utility.yul\":21736:21810   */\n      swap2\n      pop\n        /* \"#utility.yul\":21819:21912   */\n      tag_498\n        /* \"#utility.yul\":21908:21911   */\n      dup3\n        /* \"#utility.yul\":21819:21912   */\n      tag_259\n      jump\t// in\n    tag_498:\n        /* \"#utility.yul\":21937:21939   */\n      0x20\n        /* \"#utility.yul\":21932:21935   */\n      dup3\n        /* \"#utility.yul\":21928:21940   */\n      add\n        /* \"#utility.yul\":21921:21940   */\n      swap1\n      pop\n        /* \"#utility.yul\":21580:21946   */\n      swap2\n      swap1\n      pop\n      jump\t// out\n        /* \"#utility.yul\":21952:22371   */\n    tag_107:\n        /* \"#utility.yul\":22118:22122   */\n      0x00\n        /* \"#utility.yul\":22156:22158   */\n      0x20\n        /* \"#utility.yul\":22145:22154   */\n      dup3\n        /* \"#utility.yul\":22141:22159   */\n      add\n        /* \"#utility.yul\":22133:22159   */\n      swap1\n      pop\n        /* \"#utility.yul\":22205:22214   */\n      dup2\n        /* \"#utility.yul\":22199:22203   */\n      dup2\n        /* \"#utility.yul\":22195:22215   */\n      sub\n        /* \"#utility.yul\":22191:22192   */\n      0x00\n        /* \"#utility.yul\":22180:22189   */\n      dup4\n        /* \"#utility.yul\":22176:22193   */\n      add\n        /* \"#utility.yul\":22169:22216   */\n      mstore\n        /* \"#utility.yul\":22233:22364   */\n      tag_500\n        /* \"#utility.yul\":22359:22363   */\n      dup2\n        /* \"#utility.yul\":22233:22364   */\n      tag_260\n      jump\t// in\n    tag_500:\n        /* \"#utility.yul\":22225:22364   */\n      swap1\n      pop\n        /* \"#utility.yul\":21952:22371   */\n      swap2\n      swap1\n      pop\n      jump\t// out\n        /* \"#utility.yul\":22401:22731   */\n    tag_261:\n        /* \"#utility.yul\":22517:22520   */\n      0x00\n        /* \"#utility.yul\":22538:22627   */\n      tag_502\n        /* \"#utility.yul\":22620:22626   */\n      dup4\n        /* \"#utility.yul\":22615:22618   */\n      dup6\n        /* \"#utility.yul\":22538:22627   */\n      tag_250\n      jump\t// in\n    tag_502:\n        /* \"#utility.yul\":22531:22627   */\n      swap4\n      pop\n        /* \"#utility.yul\":22637:22693   */\n      tag_503\n        /* \"#utility.yul\":22686:22692   */\n      dup4\n        /* \"#utility.yul\":22681:22684   */\n      dup6\n        /* \"#utility.yul\":22674:22679   */\n      dup5\n        /* \"#utility.yul\":22637:22693   */\n      tag_209\n      jump\t// in\n    tag_503:\n        /* \"#utility.yul\":22718:22724   */\n      dup3\n        /* \"#utility.yul\":22713:22716   */\n      dup5\n        /* \"#utility.yul\":22709:22725   */\n      add\n        /* \"#utility.yul\":22702:22725   */\n      swap1\n      pop\n        /* \"#utility.yul\":22401:22731   */\n      swap4\n      swap3\n      pop\n      pop\n      pop\n      jump\t// out\n        /* \"#utility.yul\":22737:23032   */\n    tag_127:\n        /* \"#utility.yul\":22879:22882   */\n      0x00\n        /* \"#utility.yul\":22901:23006   */\n      tag_505\n        /* \"#utility.yul\":23002:23005   */\n      dup3\n        /* \"#utility.yul\":22993:22999   */\n      dup5\n        /* \"#utility.yul\":22985:22991   */\n      dup7\n        /* \"#utility.yul\":22901:23006   */\n      tag_261\n      jump\t// in\n    tag_505:\n        /* \"#utility.yul\":22894:23006   */\n      swap2\n      pop\n        /* \"#utility.yul\":23023:23026   */\n      dup2\n        /* \"#utility.yul\":23016:23026   */\n      swap1\n      pop\n        /* \"#utility.yul\":22737:23032   */\n      swap4\n      swap3\n      pop\n      pop\n      pop\n      jump\t// out\n        /* \"#utility.yul\":23038:23179   */\n    tag_262:\n        /* \"#utility.yul\":23087:23091   */\n      0x00\n        /* \"#utility.yul\":23110:23113   */\n      dup2\n        /* \"#utility.yul\":23102:23113   */\n      swap1\n      pop\n        /* \"#utility.yul\":23133:23136   */\n      dup2\n        /* \"#utility.yul\":23130:23131   */\n      0x00\n        /* \"#utility.yul\":23123:23137   */\n      mstore\n        /* \"#utility.yul\":23167:23171   */\n      0x20\n        /* \"#utility.yul\":23164:23165   */\n      0x00\n        /* \"#utility.yul\":23154:23172   */\n      keccak256\n        /* \"#utility.yul\":23146:23172   */\n      swap1\n      pop\n        /* \"#utility.yul\":23038:23179   */\n      swap2\n      swap1\n      pop\n      jump\t// out\n        /* \"#utility.yul\":23185:23278   */\n    tag_263:\n        /* \"#utility.yul\":23222:23228   */\n      0x00\n        /* \"#utility.yul\":23269:23271   */\n      0x20\n        /* \"#utility.yul\":23264:23266   */\n      0x1f\n        /* \"#utility.yul\":23257:23262   */\n      dup4\n        /* \"#utility.yul\":23253:23267   */\n      add\n        /* \"#utility.yul\":23249:23272   */\n      div\n        /* \"#utility.yul\":23239:23272   */\n      swap1\n      pop\n        /* \"#utility.yul\":23185:23278   */\n      swap2\n      swap1\n      pop\n      jump\t// out\n        /* \"#utility.yul\":23284:23391   */\n    tag_264:\n        /* \"#utility.yul\":23328:23336   */\n      0x00\n        /* \"#utility.yul\":23378:23383   */\n      dup3\n        /* \"#utility.yul\":23372:23376   */\n      dup3\n        /* \"#utility.yul\":23368:23384   */\n      shl\n        /* \"#utility.yul\":23347:23384   */\n      swap1\n      pop\n        /* \"#utility.yul\":23284:23391   */\n      swap3\n      swap2\n      pop\n      pop\n      jump\t// out\n        /* \"#utility.yul\":23397:23790   */\n    tag_265:\n        /* \"#utility.yul\":23466:23472   */\n      0x00\n        /* \"#utility.yul\":23516:23517   */\n      0x08\n        /* \"#utility.yul\":23504:23514   */\n      dup4\n        /* \"#utility.yul\":23500:23518   */\n      mul\n        /* \"#utility.yul\":23539:23636   */\n      tag_510\n        /* \"#utility.yul\":23569:23635   */\n      0xffffffffffffffffffffffffffffffffffffffffffffffffffffffffffffffff\n        /* \"#utility.yul\":23558:23567   */\n      dup3\n        /* \"#utility.yul\":23539:23636   */\n      tag_264\n      jump\t// in\n    tag_510:\n        /* \"#utility.yul\":23657:23696   */\n      tag_511\n        /* \"#utility.yul\":23687:23695   */\n      dup7\n        /* \"#utility.yul\":23676:23685   */\n      dup4\n        /* \"#utility.yul\":23657:23696   */\n      tag_264\n      jump\t// in\n    tag_511:\n        /* \"#utility.yul\":23645:23696   */\n      swap6\n      pop\n        /* \"#utility.yul\":23729:23733   */\n      dup1\n        /* \"#utility.yul\":23725:23734   */\n      not\n        /* \"#utility.yul\":23718:23723   */\n      dup5\n        /* \"#utility.yul\":23714:23735   */\n      and\n        /* \"#utility.yul\":23705:23735   */\n      swap4\n      pop\n        /* \"#utility.yul\":23778:23782   */\n      dup1\n        /* \"#utility.yul\":23768:23776   */\n      dup7\n        /* \"#utility.yul\":23764:23783   */\n      and\n        /* \"#utility.yul\":23757:23762   */\n      dup5\n        /* \"#utility.yul\":23754:23784   */\n      or\n        /* \"#utility.yul\":23744:23784   */\n      swap3\n      pop\n        /* \"#utility.yul\":23473:23790   */\n      pop\n      pop\n        /* \"#utility.yul\":23397:23790   */\n      swap4\n      swap3\n      pop\n      pop\n      pop\n      jump\t// out\n        /* \"#utility.yul\":23796:23856   */\n    tag_266:\n        /* \"#utility.yul\":23824:23827   */\n      0x00\n        /* \"#utility.yul\":23845:23850   */\n      dup2\n        /* \"#utility.yul\":23838:23850   */\n      swap1\n      pop\n        /* \"#utility.yul\":23796:23856   */\n      swap2\n      swap1\n      pop\n      jump\t// out\n        /* \"#utility.yul\":23862:24004   */\n    tag_267:\n        /* \"#utility.yul\":23912:23921   */\n      0x00\n        /* \"#utility.yul\":23945:23998   */\n      tag_514\n        /* \"#utility.yul\":23963:23997   */\n      tag_515\n        /* \"#utility.yul\":23972:23996   */\n      tag_516\n        /* \"#utility.yul\":23990:23995   */\n      dup5\n        /* \"#utility.yul\":23972:23996   */\n      tag_212\n      jump\t// in\n    tag_516:\n        /* \"#utility.yul\":23963:23997   */\n      tag_266\n      jump\t// in\n    tag_515:\n        /* \"#utility.yul\":23945:23998   */\n      tag_212\n      jump\t// in\n    tag_514:\n        /* \"#utility.yul\":23932:23998   */\n      swap1\n      pop\n        /* \"#utility.yul\":23862:24004   */\n      swap2\n      swap1\n      pop\n      jump\t// out\n        /* \"#utility.yul\":24010:24085   */\n    tag_268:\n        /* \"#utility.yul\":24053:24056   */\n      0x00\n        /* \"#utility.yul\":24074:24079   */\n      dup2\n        /* \"#utility.yul\":24067:24079   */\n      swap1\n      pop\n        /* \"#utility.yul\":24010:24085   */\n      swap2\n      swap1\n      pop\n      jump\t// out\n        /* \"#utility.yul\":24091:24360   */\n    tag_269:\n        /* \"#utility.yul\":24201:24240   */\n      tag_519\n        /* \"#utility.yul\":24232:24239   */\n      dup4\n        /* \"#utility.yul\":24201:24240   */\n      tag_267\n      jump\t// in\n    tag_519:\n        /* \"#utility.yul\":24262:24353   */\n      tag_520\n        /* \"#utility.yul\":24311:24352   */\n      tag_521\n        /* \"#utility.yul\":24335:24351   */\n      dup3\n        /* \"#utility.yul\":24311:24352   */\n      tag_268\n      jump\t// in\n    tag_521:\n        /* \"#utility.yul\":24303:24309   */\n      dup5\n        /* \"#utility.yul\":24296:24300   */\n      dup5\n        /* \"#utility.yul\":24290:24301   */\n      sload\n        /* \"#utility.yul\":24262:24353   */\n      tag_265\n      jump\t// in\n    tag_520:\n        /* \"#utility.yul\":24256:24260   */\n      dup3\n        /* \"#utility.yul\":24249:24354   */\n      sstore\n        /* \"#utility.yul\":24167:24360   */\n      pop\n        /* \"#utility.yul\":24091:24360   */\n      pop\n      pop\n      pop\n      jump\t// out\n        /* \"#utility.yul\":24366:24439   */\n    tag_270:\n        /* \"#utility.yul\":24411:24414   */\n      0x00\n        /* \"#utility.yul\":24432:24433   */\n      0x00\n        /* \"#utility.yul\":24425:24433   */\n      swap1\n      pop\n        /* \"#utility.yul\":24366:24439   */\n      swap1\n      jump\t// out\n        /* \"#utility.yul\":24445:24634   */\n    tag_271:\n        /* \"#utility.yul\":24522:24554   */\n      tag_524\n      tag_270\n      jump\t// in\n    tag_524:\n        /* \"#utility.yul\":24563:24628   */\n      tag_525\n        /* \"#utility.yul\":24621:24627   */\n      dup2\n        /* \"#utility.yul\":24613:24619   */\n      dup5\n        /* \"#utility.yul\":24607:24611   */\n      dup5\n        /* \"#utility.yul\":24563:24628   */\n      tag_269\n      jump\t// in\n    tag_525:\n        /* \"#utility.yul\":24498:24634   */\n      pop\n        /* \"#utility.yul\":24445:24634   */\n      pop\n      pop\n      jump\t// out\n        /* \"#utility.yul\":24640:24826   */\n    tag_272:\n        /* \"#utility.yul\":24700:24820   */\n    tag_527:\n        /* \"#utility.yul\":24717:24720   */\n      dup2\n        /* \"#utility.yul\":24710:24715   */\n      dup2\n        /* \"#utility.yul\":24707:24721   */\n      lt\n        /* \"#utility.yul\":24700:24820   */\n      iszero\n      tag_529\n      jumpi\n        /* \"#utility.yul\":24771:24810   */\n      tag_530\n        /* \"#utility.yul\":24808:24809   */\n      0x00\n        /* \"#utility.yul\":24801:24806   */\n      dup3\n        /* \"#utility.yul\":24771:24810   */\n      tag_271\n      jump\t// in\n    tag_530:\n        /* \"#utility.yul\":24744:24745   */\n      0x01\n        /* \"#utility.yul\":24737:24742   */\n      dup2\n        /* \"#utility.yul\":24733:24746   */\n      add\n        /* \"#utility.yul\":24724:24746   */\n      swap1\n      pop\n        /* \"#utility.yul\":24700:24820   */\n      jump(tag_527)\n    tag_529:\n        /* \"#utility.yul\":24640:24826   */\n      pop\n      pop\n      jump\t// out\n        /* \"#utility.yul\":24832:25375   */\n    tag_273:\n        /* \"#utility.yul\":24933:24935   */\n      0x1f\n        /* \"#utility.yul\":24928:24931   */\n      dup3\n        /* \"#utility.yul\":24925:24936   */\n      gt\n        /* \"#utility.yul\":24922:25368   */\n      iszero\n      tag_532\n      jumpi\n        /* \"#utility.yul\":24967:25005   */\n      tag_533\n        /* \"#utility.yul\":24999:25004   */\n      dup2\n        /* \"#utility.yul\":24967:25005   */\n      tag_262\n      jump\t// in\n    tag_533:\n        /* \"#utility.yul\":25051:25080   */\n      tag_534\n        /* \"#utility.yul\":25069:25079   */\n      dup5\n        /* \"#utility.yul\":25051:25080   */\n      tag_263\n      jump\t// in\n    tag_534:\n        /* \"#utility.yul\":25041:25049   */\n      dup2\n        /* \"#utility.yul\":25037:25081   */\n      add\n        /* \"#utility.yul\":25234:25236   */\n      0x20\n        /* \"#utility.yul\":25222:25232   */\n      dup6\n        /* \"#utility.yul\":25219:25237   */\n      lt\n        /* \"#utility.yul\":25216:25265   */\n      iszero\n      tag_535\n      jumpi\n        /* \"#utility.yul\":25255:25263   */\n      dup2\n        /* \"#utility.yul\":25240:25263   */\n      swap1\n      pop\n        /* \"#utility.yul\":25216:25265   */\n    tag_535:\n        /* \"#utility.yul\":25278:25358   */\n      tag_536\n        /* \"#utility.yul\":25334:25356   */\n      tag_537\n        /* \"#utility.yul\":25352:25355   */\n      dup6\n        /* \"#utility.yul\":25334:25356   */\n      tag_263\n      jump\t// in\n    tag_537:\n        /* \"#utility.yul\":25324:25332   */\n      dup4\n        /* \"#utility.yul\":25320:25357   */\n      add\n        /* \"#utility.yul\":25307:25318   */\n      dup3\n        /* \"#utility.yul\":25278:25358   */\n      tag_272\n      jump\t// in\n    tag_536:\n        /* \"#utility.yul\":24937:25368   */\n      pop\n      pop\n        /* \"#utility.yul\":24922:25368   */\n    tag_532:\n        /* \"#utility.yul\":24832:25375   */\n      pop\n      pop\n      pop\n      jump\t// out\n        /* \"#utility.yul\":25381:25498   */\n    tag_274:\n        /* \"#utility.yul\":25435:25443   */\n      0x00\n        /* \"#utility.yul\":25485:25490   */\n      dup3\n        /* \"#utility.yul\":25479:25483   */\n      dup3\n        /* \"#utility.yul\":25475:25491   */\n      shr\n        /* \"#utility.yul\":25454:25491   */\n      swap1\n      pop\n        /* \"#utility.yul\":25381:25498   */\n      swap3\n      swap2\n      pop\n      pop\n      jump\t// out\n        /* \"#utility.yul\":25504:25673   */\n    tag_275:\n        /* \"#utility.yul\":25548:25554   */\n      0x00\n        /* \"#utility.yul\":25581:25632   */\n      tag_540\n        /* \"#utility.yul\":25629:25630   */\n      0x00\n        /* \"#utility.yul\":25625:25631   */\n      not\n        /* \"#utility.yul\":25617:25622   */\n      dup5\n        /* \"#utility.yul\":25614:25615   */\n      0x08\n        /* \"#utility.yul\":25610:25623   */\n      mul\n        /* \"#utility.yul\":25581:25632   */\n      tag_274\n      jump\t// in\n    tag_540:\n        /* \"#utility.yul\":25577:25633   */\n      not\n        /* \"#utility.yul\":25662:25666   */\n      dup1\n        /* \"#utility.yul\":25656:25660   */\n      dup4\n        /* \"#utility.yul\":25652:25667   */\n      and\n        /* \"#utility.yul\":25642:25667   */\n      swap2\n      pop\n        /* \"#utility.yul\":25555:25673   */\n      pop\n        /* \"#utility.yul\":25504:25673   */\n      swap3\n      swap2\n      pop\n      pop\n      jump\t// out\n        /* \"#utility.yul\":25678:25973   */\n    tag_276:\n        /* \"#utility.yul\":25754:25758   */\n      0x00\n        /* \"#utility.yul\":25900:25929   */\n      tag_542\n        /* \"#utility.yul\":25925:25928   */\n      dup4\n        /* \"#utility.yul\":25919:25923   */\n      dup4\n        /* \"#utility.yul\":25900:25929   */\n      tag_275\n      jump\t// in\n    tag_542:\n        /* \"#utility.yul\":25892:25929   */\n      swap2\n      pop\n        /* \"#utility.yul\":25962:25965   */\n      dup3\n        /* \"#utility.yul\":25959:25960   */\n      0x02\n        /* \"#utility.yul\":25955:25966   */\n      mul\n        /* \"#utility.yul\":25949:25953   */\n      dup3\n        /* \"#utility.yul\":25946:25967   */\n      or\n        /* \"#utility.yul\":25938:25967   */\n      swap1\n      pop\n        /* \"#utility.yul\":25678:25973   */\n      swap3\n      swap2\n      pop\n      pop\n      jump\t// out\n        /* \"#utility.yul\":25978:27373   */\n    tag_167:\n        /* \"#utility.yul\":26095:26132   */\n      tag_544\n        /* \"#utility.yul\":26128:26131   */\n      dup3\n        /* \"#utility.yul\":26095:26132   */\n      tag_216\n      jump\t// in\n    tag_544:\n        /* \"#utility.yul\":26197:26215   */\n      0xffffffffffffffff\n        /* \"#utility.yul\":26189:26195   */\n      dup2\n        /* \"#utility.yul\":26186:26216   */\n      gt\n        /* \"#utility.yul\":26183:26239   */\n      iszero\n      tag_545\n      jumpi\n        /* \"#utility.yul\":26219:26237   */\n      tag_546\n      tag_132\n      jump\t// in\n    tag_546:\n        /* \"#utility.yul\":26183:26239   */\n    tag_545:\n        /* \"#utility.yul\":26263:26301   */\n      tag_547\n        /* \"#utility.yul\":26295:26299   */\n      dup3\n        /* \"#utility.yul\":26289:26300   */\n      sload\n        /* \"#utility.yul\":26263:26301   */\n      tag_68\n      jump\t// in\n    tag_547:\n        /* \"#utility.yul\":26348:26415   */\n      tag_548\n        /* \"#utility.yul\":26408:26414   */\n      dup3\n        /* \"#utility.yul\":26400:26406   */\n      dup3\n        /* \"#utility.yul\":26394:26398   */\n      dup6\n        /* \"#utility.yul\":26348:26415   */\n      tag_273\n      jump\t// in\n    tag_548:\n        /* \"#utility.yul\":26442:26443   */\n      0x00\n        /* \"#utility.yul\":26466:26470   */\n      0x20\n        /* \"#utility.yul\":26453:26470   */\n      swap1\n      pop\n        /* \"#utility.yul\":26498:26500   */\n      0x1f\n        /* \"#utility.yul\":26490:26496   */\n      dup4\n        /* \"#utility.yul\":26487:26501   */\n      gt\n        /* \"#utility.yul\":26515:26516   */\n      0x01\n        /* \"#utility.yul\":26510:27128   */\n      dup2\n      eq\n      tag_550\n      jumpi\n        /* \"#utility.yul\":27172:27173   */\n      0x00\n        /* \"#utility.yul\":27189:27195   */\n      dup5\n        /* \"#utility.yul\":27186:27263   */\n      iszero\n      tag_551\n      jumpi\n        /* \"#utility.yul\":27238:27247   */\n      dup3\n        /* \"#utility.yul\":27233:27236   */\n      dup8\n        /* \"#utility.yul\":27229:27248   */\n      add\n        /* \"#utility.yul\":27223:27249   */\n      mload\n        /* \"#utility.yul\":27214:27249   */\n      swap1\n      pop\n        /* \"#utility.yul\":27186:27263   */\n    tag_551:\n        /* \"#utility.yul\":27289:27356   */\n      tag_552\n        /* \"#utility.yul\":27349:27355   */\n      dup6\n        /* \"#utility.yul\":27342:27347   */\n      dup3\n        /* \"#utility.yul\":27289:27356   */\n      tag_276\n      jump\t// in\n    tag_552:\n        /* \"#utility.yul\":27283:27287   */\n      dup7\n        /* \"#utility.yul\":27276:27357   */\n      sstore\n        /* \"#utility.yul\":27145:27367   */\n      pop\n        /* \"#utility.yul\":26480:27367   */\n      jump(tag_549)\n        /* \"#utility.yul\":26510:27128   */\n    tag_550:\n        /* \"#utility.yul\":26562:26566   */\n      0x1f\n        /* \"#utility.yul\":26558:26567   */\n      not\n        /* \"#utility.yul\":26550:26556   */\n      dup5\n        /* \"#utility.yul\":26546:26568   */\n      and\n        /* \"#utility.yul\":26596:26633   */\n      tag_553\n        /* \"#utility.yul\":26628:26632   */\n      dup7\n        /* \"#utility.yul\":26596:26633   */\n      tag_262\n      jump\t// in\n    tag_553:\n        /* \"#utility.yul\":26655:26656   */\n      0x00\n        /* \"#utility.yul\":26669:26877   */\n    tag_554:\n        /* \"#utility.yul\":26683:26690   */\n      dup3\n        /* \"#utility.yul\":26680:26681   */\n      dup2\n        /* \"#utility.yul\":26677:26691   */\n      lt\n        /* \"#utility.yul\":26669:26877   */\n      iszero\n      tag_556\n      jumpi\n        /* \"#utility.yul\":26762:26771   */\n      dup5\n        /* \"#utility.yul\":26757:26760   */\n      dup10\n        /* \"#utility.yul\":26753:26772   */\n      add\n        /* \"#utility.yul\":26747:26773   */\n      mload\n        /* \"#utility.yul\":26739:26745   */\n      dup3\n        /* \"#utility.yul\":26732:26774   */\n      sstore\n        /* \"#utility.yul\":26813:26814   */\n      0x01\n        /* \"#utility.yul\":26805:26811   */\n      dup3\n        /* \"#utility.yul\":26801:26815   */\n      add\n        /* \"#utility.yul\":26791:26815   */\n      swap2\n      pop\n        /* \"#utility.yul\":26860:26862   */\n      0x20\n        /* \"#utility.yul\":26849:26858   */\n      dup6\n        /* \"#utility.yul\":26845:26863   */\n      add\n        /* \"#utility.yul\":26832:26863   */\n      swap5\n      pop\n        /* \"#utility.yul\":26706:26710   */\n      0x20\n        /* \"#utility.yul\":26703:26704   */\n      dup2\n        /* \"#utility.yul\":26699:26711   */\n      add\n        /* \"#utility.yul\":26694:26711   */\n      swap1\n      pop\n        /* \"#utility.yul\":26669:26877   */\n      jump(tag_554)\n    tag_556:\n        /* \"#utility.yul\":26905:26911   */\n      dup7\n        /* \"#utility.yul\":26896:26903   */\n      dup4\n        /* \"#utility.yul\":26893:26912   */\n      lt\n        /* \"#utility.yul\":26890:27069   */\n      iszero\n      tag_557\n      jumpi\n        /* \"#utility.yul\":26963:26972   */\n      dup5\n        /* \"#utility.yul\":26958:26961   */\n      dup10\n        /* \"#utility.yul\":26954:26973   */\n      add\n        /* \"#utility.yul\":26948:26974   */\n      mload\n        /* \"#utility.yul\":27006:27054   */\n      tag_558\n        /* \"#utility.yul\":27048:27052   */\n      0x1f\n        /* \"#utility.yul\":27040:27046   */\n      dup10\n        /* \"#utility.yul\":27036:27053   */\n      and\n        /* \"#utility.yul\":27025:27034   */\n      dup3\n        /* \"#utility.yul\":27006:27054   */\n      tag_275\n      jump\t// in\n    tag_558:\n        /* \"#utility.yul\":26998:27004   */\n      dup4\n        /* \"#utility.yul\":26991:27055   */\n      sstore\n        /* \"#utility.yul\":26913:27069   */\n      pop\n        /* \"#utility.yul\":26890:27069   */\n    tag_557:\n        /* \"#utility.yul\":27115:27116   */\n      0x01\n        /* \"#utility.yul\":27111:27112   */\n      0x02\n        /* \"#utility.yul\":27103:27109   */\n      dup9\n        /* \"#utility.yul\":27099:27113   */\n      mul\n        /* \"#utility.yul\":27095:27117   */\n      add\n        /* \"#utility.yul\":27089:27093   */\n      dup9\n        /* \"#utility.yul\":27082:27118   */\n      sstore\n        /* \"#utility.yul\":26517:27128   */\n      pop\n      pop\n      pop\n        /* \"#utility.yul\":26480:27367   */\n    tag_549:\n      pop\n        /* \"#utility.yul\":26070:27373   */\n      pop\n      pop\n      pop\n        /* \"#utility.yul\":25978:27373   */\n      pop\n      pop\n      jump\t// out\n        /* \"#utility.yul\":27379:27559   */\n    tag_277:\n        /* \"#utility.yul\":27427:27504   */\n      0x4e487b7100000000000000000000000000000000000000000000000000000000\n        /* \"#utility.yul\":27424:27425   */\n      0x00\n        /* \"#utility.yul\":27417:27505   */\n      mstore\n        /* \"#utility.yul\":27524:27528   */\n      0x11\n        /* \"#utility.yul\":27521:27522   */\n      0x04\n        /* \"#utility.yul\":27514:27529   */\n      mstore\n        /* \"#utility.yul\":27548:27552   */\n      0x24\n        /* \"#utility.yul\":27545:27546   */\n      0x00\n        /* \"#utility.yul\":27538:27553   */\n      revert\n        /* \"#utility.yul\":27565:27759   */\n    tag_172:\n        /* \"#utility.yul\":27605:27609   */\n      0x00\n        /* \"#utility.yul\":27625:27645   */\n      tag_561\n        /* \"#utility.yul\":27643:27644   */\n      dup3\n        /* \"#utility.yul\":27625:27645   */\n      tag_212\n      jump\t// in\n    tag_561:\n        /* \"#utility.yul\":27620:27645   */\n      swap2\n      pop\n        /* \"#utility.yul\":27659:27679   */\n      tag_562\n        /* \"#utility.yul\":27677:27678   */\n      dup4\n        /* \"#utility.yul\":27659:27679   */\n      tag_212\n      jump\t// in\n    tag_562:\n        /* \"#utility.yul\":27654:27679   */\n      swap3\n      pop\n        /* \"#utility.yul\":27703:27704   */\n      dup3\n        /* \"#utility.yul\":27700:27701   */\n      dup3\n        /* \"#utility.yul\":27696:27705   */\n      sub\n        /* \"#utility.yul\":27688:27705   */\n      swap1\n      pop\n        /* \"#utility.yul\":27727:27728   */\n      dup2\n        /* \"#utility.yul\":27721:27725   */\n      dup2\n        /* \"#utility.yul\":27718:27729   */\n      gt\n        /* \"#utility.yul\":27715:27752   */\n      iszero\n      tag_563\n      jumpi\n        /* \"#utility.yul\":27732:27750   */\n      tag_564\n      tag_277\n      jump\t// in\n    tag_564:\n        /* \"#utility.yul\":27715:27752   */\n    tag_563:\n        /* \"#utility.yul\":27565:27759   */\n      swap3\n      swap2\n      pop\n      pop\n      jump\t// out\n        /* \"#utility.yul\":27789:28106   */\n    tag_278:\n        /* \"#utility.yul\":27887:27890   */\n      0x00\n        /* \"#utility.yul\":27908:27979   */\n      tag_566\n        /* \"#utility.yul\":27972:27978   */\n      dup4\n        /* \"#utility.yul\":27967:27970   */\n      dup6\n        /* \"#utility.yul\":27908:27979   */\n      tag_217\n      jump\t// in\n    tag_566:\n        /* \"#utility.yul\":27901:27979   */\n      swap4\n      pop\n        /* \"#utility.yul\":27989:28045   */\n      tag_567\n        /* \"#utility.yul\":28038:28044   */\n      dup4\n        /* \"#utility.yul\":28033:28036   */\n      dup6\n        /* \"#utility.yul\":28026:28031   */\n      dup5\n        /* \"#utility.yul\":27989:28045   */\n      tag_209\n      jump\t// in\n    tag_567:\n        /* \"#utility.yul\":28070:28099   */\n      tag_568\n        /* \"#utility.yul\":28092:28098   */\n      dup4\n        /* \"#utility.yul\":28070:28099   */\n      tag_205\n      jump\t// in\n    tag_568:\n        /* \"#utility.yul\":28065:28068   */\n      dup5\n        /* \"#utility.yul\":28061:28100   */\n      add\n        /* \"#utility.yul\":28054:28100   */\n      swap1\n      pop\n        /* \"#utility.yul\":27789:28106   */\n      swap4\n      swap3\n      pop\n      pop\n      pop\n      jump\t// out\n        /* \"#utility.yul\":28112:29131   */\n    tag_176:\n        /* \"#utility.yul\":28416:28420   */\n      0x00\n        /* \"#utility.yul\":28454:28457   */\n      0xc0\n        /* \"#utility.yul\":28443:28452   */\n      dup3\n        /* \"#utility.yul\":28439:28458   */\n      add\n        /* \"#utility.yul\":28431:28458   */\n      swap1\n      pop\n        /* \"#utility.yul\":28504:28513   */\n      dup2\n        /* \"#utility.yul\":28498:28502   */\n      dup2\n        /* \"#utility.yul\":28494:28514   */\n      sub\n        /* \"#utility.yul\":28490:28491   */\n      0x00\n        /* \"#utility.yul\":28479:28488   */\n      dup4\n        /* \"#utility.yul\":28475:28492   */\n      add\n        /* \"#utility.yul\":28468:28515   */\n      mstore\n        /* \"#utility.yul\":28532:28620   */\n      tag_570\n        /* \"#utility.yul\":28615:28619   */\n      dup2\n        /* \"#utility.yul\":28606:28612   */\n      dup11\n        /* \"#utility.yul\":28598:28604   */\n      dup13\n        /* \"#utility.yul\":28532:28620   */\n      tag_278\n      jump\t// in\n    tag_570:\n        /* \"#utility.yul\":28524:28620   */\n      swap1\n      pop\n        /* \"#utility.yul\":28667:28676   */\n      dup2\n        /* \"#utility.yul\":28661:28665   */\n      dup2\n        /* \"#utility.yul\":28657:28677   */\n      sub\n        /* \"#utility.yul\":28652:28654   */\n      0x20\n        /* \"#utility.yul\":28641:28650   */\n      dup4\n        /* \"#utility.yul\":28637:28655   */\n      add\n        /* \"#utility.yul\":28630:28678   */\n      mstore\n        /* \"#utility.yul\":28695:28783   */\n      tag_571\n        /* \"#utility.yul\":28778:28782   */\n      dup2\n        /* \"#utility.yul\":28769:28775   */\n      dup9\n        /* \"#utility.yul\":28761:28767   */\n      dup11\n        /* \"#utility.yul\":28695:28783   */\n      tag_278\n      jump\t// in\n    tag_571:\n        /* \"#utility.yul\":28687:28783   */\n      swap1\n      pop\n        /* \"#utility.yul\":28793:28876   */\n      tag_572\n        /* \"#utility.yul\":28872:28874   */\n      0x40\n        /* \"#utility.yul\":28861:28870   */\n      dup4\n        /* \"#utility.yul\":28857:28875   */\n      add\n        /* \"#utility.yul\":28848:28854   */\n      dup8\n        /* \"#utility.yul\":28793:28876   */\n      tag_223\n      jump\t// in\n    tag_572:\n        /* \"#utility.yul\":28886:28958   */\n      tag_573\n        /* \"#utility.yul\":28954:28956   */\n      0x60\n        /* \"#utility.yul\":28943:28952   */\n      dup4\n        /* \"#utility.yul\":28939:28957   */\n      add\n        /* \"#utility.yul\":28930:28936   */\n      dup7\n        /* \"#utility.yul\":28886:28958   */\n      tag_215\n      jump\t// in\n    tag_573:\n        /* \"#utility.yul\":28968:29041   */\n      tag_574\n        /* \"#utility.yul\":29036:29039   */\n      0x80\n        /* \"#utility.yul\":29025:29034   */\n      dup4\n        /* \"#utility.yul\":29021:29040   */\n      add\n        /* \"#utility.yul\":29012:29018   */\n      dup6\n        /* \"#utility.yul\":28968:29041   */\n      tag_225\n      jump\t// in\n    tag_574:\n        /* \"#utility.yul\":29051:29124   */\n      tag_575\n        /* \"#utility.yul\":29119:29122   */\n      0xa0\n        /* \"#utility.yul\":29108:29117   */\n      dup4\n        /* \"#utility.yul\":29104:29123   */\n      add\n        /* \"#utility.yul\":29095:29101   */\n      dup5\n        /* \"#utility.yul\":29051:29124   */\n      tag_228\n      jump\t// in\n    tag_575:\n        /* \"#utility.yul\":28112:29131   */\n      swap10\n      swap9\n      pop\n      pop\n      pop\n      pop\n      pop\n      pop\n      pop\n      pop\n      pop\n      jump\t// out\n        /* \"#utility.yul\":29137:29302   */\n    tag_279:\n        /* \"#utility.yul\":29277:29294   */\n      0x496e6469636520696e76616c69646f0000000000000000000000000000000000\n        /* \"#utility.yul\":29273:29274   */\n      0x00\n        /* \"#utility.yul\":29265:29271   */\n      dup3\n        /* \"#utility.yul\":29261:29275   */\n      add\n        /* \"#utility.yul\":29254:29295   */\n      mstore\n        /* \"#utility.yul\":29137:29302   */\n      pop\n      jump\t// out\n        /* \"#utility.yul\":29308:29674   */\n    tag_280:\n        /* \"#utility.yul\":29450:29453   */\n      0x00\n        /* \"#utility.yul\":29471:29538   */\n      tag_578\n        /* \"#utility.yul\":29535:29537   */\n      0x0f\n        /* \"#utility.yul\":29530:29533   */\n      dup4\n        /* \"#utility.yul\":29471:29538   */\n      tag_217\n      jump\t// in\n    tag_578:\n        /* \"#utility.yul\":29464:29538   */\n      swap2\n      pop\n        /* \"#utility.yul\":29547:29640   */\n      tag_579\n        /* \"#utility.yul\":29636:29639   */\n      dup3\n        /* \"#utility.yul\":29547:29640   */\n      tag_279\n      jump\t// in\n    tag_579:\n        /* \"#utility.yul\":29665:29667   */\n      0x20\n        /* \"#utility.yul\":29660:29663   */\n      dup3\n        /* \"#utility.yul\":29656:29668   */\n      add\n        /* \"#utility.yul\":29649:29668   */\n      swap1\n      pop\n        /* \"#utility.yul\":29308:29674   */\n      swap2\n      swap1\n      pop\n      jump\t// out\n        /* \"#utility.yul\":29680:30099   */\n    tag_181:\n        /* \"#utility.yul\":29846:29850   */\n      0x00\n        /* \"#utility.yul\":29884:29886   */\n      0x20\n        /* \"#utility.yul\":29873:29882   */\n      dup3\n        /* \"#utility.yul\":29869:29887   */\n      add\n        /* \"#utility.yul\":29861:29887   */\n      swap1\n      pop\n        /* \"#utility.yul\":29933:29942   */\n      dup2\n        /* \"#utility.yul\":29927:29931   */\n      dup2\n        /* \"#utility.yul\":29923:29943   */\n      sub\n        /* \"#utility.yul\":29919:29920   */\n      0x00\n        /* \"#utility.yul\":29908:29917   */\n      dup4\n        /* \"#utility.yul\":29904:29921   */\n      add\n        /* \"#utility.yul\":29897:29944   */\n      mstore\n        /* \"#utility.yul\":29961:30092   */\n      tag_581\n        /* \"#utility.yul\":30087:30091   */\n      dup2\n        /* \"#utility.yul\":29961:30092   */\n      tag_280\n      jump\t// in\n    tag_581:\n        /* \"#utility.yul\":29953:30092   */\n      swap1\n      pop\n        /* \"#utility.yul\":29680:30099   */\n      swap2\n      swap1\n      pop\n      jump\t// out\n        /* \"#utility.yul\":30105:30329   */\n    tag_281:\n        /* \"#utility.yul\":30245:30279   */\n      0x536f6c6f20656c2063726561646f7220707565646520656469746172206c6120\n        /* \"#utility.yul\":30241:30242   */\n      0x00\n        /* \"#utility.yul\":30233:30239   */\n      dup3\n        /* \"#utility.yul\":30229:30243   */\n      add\n        /* \"#utility.yul\":30222:30280   */\n      mstore\n        /* \"#utility.yul\":30314:30321   */\n      0x7461726561000000000000000000000000000000000000000000000000000000\n        /* \"#utility.yul\":30309:30311   */\n      0x20\n        /* \"#utility.yul\":30301:30307   */\n      dup3\n        /* \"#utility.yul\":30297:30312   */\n      add\n        /* \"#utility.yul\":30290:30322   */\n      mstore\n        /* \"#utility.yul\":30105:30329   */\n      pop\n      jump\t// out\n        /* \"#utility.yul\":30335:30701   */\n    tag_282:\n        /* \"#utility.yul\":30477:30480   */\n      0x00\n        /* \"#utility.yul\":30498:30565   */\n      tag_584\n        /* \"#utility.yul\":30562:30564   */\n      0x25\n        /* \"#utility.yul\":30557:30560   */\n      dup4\n        /* \"#utility.yul\":30498:30565   */\n      tag_217\n      jump\t// in\n    tag_584:\n        /* \"#utility.yul\":30491:30565   */\n      swap2\n      pop\n        /* \"#utility.yul\":30574:30667   */\n      tag_585\n        /* \"#utility.yul\":30663:30666   */\n      dup3\n        /* \"#utility.yul\":30574:30667   */\n      tag_281\n      jump\t// in\n    tag_585:\n        /* \"#utility.yul\":30692:30694   */\n      0x40\n        /* \"#utility.yul\":30687:30690   */\n      dup3\n        /* \"#utility.yul\":30683:30695   */\n      add\n        /* \"#utility.yul\":30676:30695   */\n      swap1\n      pop\n        /* \"#utility.yul\":30335:30701   */\n      swap2\n      swap1\n      pop\n      jump\t// out\n        /* \"#utility.yul\":30707:31126   */\n    tag_187:\n        /* \"#utility.yul\":30873:30877   */\n      0x00\n        /* \"#utility.yul\":30911:30913   */\n      0x20\n        /* \"#utility.yul\":30900:30909   */\n      dup3\n        /* \"#utility.yul\":30896:30914   */\n      add\n        /* \"#utility.yul\":30888:30914   */\n      swap1\n      pop\n        /* \"#utility.yul\":30960:30969   */\n      dup2\n        /* \"#utility.yul\":30954:30958   */\n      dup2\n        /* \"#utility.yul\":30950:30970   */\n      sub\n        /* \"#utility.yul\":30946:30947   */\n      0x00\n        /* \"#utility.yul\":30935:30944   */\n      dup4\n        /* \"#utility.yul\":30931:30948   */\n      add\n        /* \"#utility.yul\":30924:30971   */\n      mstore\n        /* \"#utility.yul\":30988:31119   */\n      tag_587\n        /* \"#utility.yul\":31114:31118   */\n      dup2\n        /* \"#utility.yul\":30988:31119   */\n      tag_282\n      jump\t// in\n    tag_587:\n        /* \"#utility.yul\":30980:31119   */\n      swap1\n      pop\n        /* \"#utility.yul\":30707:31126   */\n      swap2\n      swap1\n      pop\n      jump\t// out\n        /* \"#utility.yul\":31156:31987   */\n    tag_283:\n        /* \"#utility.yul\":31241:31244   */\n      0x00\n        /* \"#utility.yul\":31278:31283   */\n      dup2\n        /* \"#utility.yul\":31272:31284   */\n      sload\n        /* \"#utility.yul\":31307:31343   */\n      tag_589\n        /* \"#utility.yul\":31333:31342   */\n      dup2\n        /* \"#utility.yul\":31307:31343   */\n      tag_68\n      jump\t// in\n    tag_589:\n        /* \"#utility.yul\":31359:31430   */\n      tag_590\n        /* \"#utility.yul\":31423:31429   */\n      dup2\n        /* \"#utility.yul\":31418:31421   */\n      dup7\n        /* \"#utility.yul\":31359:31430   */\n      tag_217\n      jump\t// in\n    tag_590:\n        /* \"#utility.yul\":31352:31430   */\n      swap5\n      pop\n        /* \"#utility.yul\":31461:31462   */\n      0x01\n        /* \"#utility.yul\":31450:31459   */\n      dup3\n        /* \"#utility.yul\":31446:31463   */\n      and\n        /* \"#utility.yul\":31477:31478   */\n      0x00\n        /* \"#utility.yul\":31472:31636   */\n      dup2\n      eq\n      tag_592\n      jumpi\n        /* \"#utility.yul\":31650:31651   */\n      0x01\n        /* \"#utility.yul\":31645:31981   */\n      dup2\n      eq\n      tag_593\n      jumpi\n        /* \"#utility.yul\":31439:31981   */\n      jump(tag_591)\n        /* \"#utility.yul\":31472:31636   */\n    tag_592:\n        /* \"#utility.yul\":31556:31560   */\n      0xff\n        /* \"#utility.yul\":31552:31561   */\n      not\n        /* \"#utility.yul\":31541:31550   */\n      dup4\n        /* \"#utility.yul\":31537:31562   */\n      and\n        /* \"#utility.yul\":31532:31535   */\n      dup7\n        /* \"#utility.yul\":31525:31563   */\n      mstore\n        /* \"#utility.yul\":31616:31622   */\n      dup2\n        /* \"#utility.yul\":31609:31623   */\n      iszero\n        /* \"#utility.yul\":31602:31624   */\n      iszero\n        /* \"#utility.yul\":31596:31600   */\n      0x20\n        /* \"#utility.yul\":31592:31625   */\n      mul\n        /* \"#utility.yul\":31587:31590   */\n      dup7\n        /* \"#utility.yul\":31583:31626   */\n      add\n        /* \"#utility.yul\":31576:31626   */\n      swap4\n      pop\n        /* \"#utility.yul\":31472:31636   */\n      jump(tag_591)\n        /* \"#utility.yul\":31645:31981   */\n    tag_593:\n        /* \"#utility.yul\":31712:31750   */\n      tag_594\n        /* \"#utility.yul\":31744:31749   */\n      dup6\n        /* \"#utility.yul\":31712:31750   */\n      tag_262\n      jump\t// in\n    tag_594:\n        /* \"#utility.yul\":31772:31773   */\n      0x00\n        /* \"#utility.yul\":31786:31940   */\n    tag_595:\n        /* \"#utility.yul\":31800:31806   */\n      dup4\n        /* \"#utility.yul\":31797:31798   */\n      dup2\n        /* \"#utility.yul\":31794:31807   */\n      lt\n        /* \"#utility.yul\":31786:31940   */\n      iszero\n      tag_597\n      jumpi\n        /* \"#utility.yul\":31874:31881   */\n      dup2\n        /* \"#utility.yul\":31868:31882   */\n      sload\n        /* \"#utility.yul\":31864:31865   */\n      dup2\n        /* \"#utility.yul\":31859:31862   */\n      dup10\n        /* \"#utility.yul\":31855:31866   */\n      add\n        /* \"#utility.yul\":31848:31883   */\n      mstore\n        /* \"#utility.yul\":31924:31925   */\n      0x01\n        /* \"#utility.yul\":31915:31922   */\n      dup3\n        /* \"#utility.yul\":31911:31926   */\n      add\n        /* \"#utility.yul\":31900:31926   */\n      swap2\n      pop\n        /* \"#utility.yul\":31822:31826   */\n      0x20\n        /* \"#utility.yul\":31819:31820   */\n      dup2\n        /* \"#utility.yul\":31815:31827   */\n      add\n        /* \"#utility.yul\":31810:31827   */\n      swap1\n      pop\n        /* \"#utility.yul\":31786:31940   */\n      jump(tag_595)\n    tag_597:\n        /* \"#utility.yul\":31969:31970   */\n      dup1\n        /* \"#utility.yul\":31964:31967   */\n      dup9\n        /* \"#utility.yul\":31960:31971   */\n      add\n        /* \"#utility.yul\":31953:31971   */\n      swap6\n      pop\n        /* \"#utility.yul\":31652:31981   */\n      pop\n      pop\n        /* \"#utility.yul\":31439:31981   */\n    tag_591:\n      pop\n        /* \"#utility.yul\":31245:31987   */\n      pop\n      pop\n        /* \"#utility.yul\":31156:31987   */\n      swap3\n      swap2\n      pop\n      pop\n      jump\t// out\n        /* \"#utility.yul\":31993:32542   */\n    tag_197:\n        /* \"#utility.yul\":32170:32174   */\n      0x00\n        /* \"#utility.yul\":32208:32210   */\n      0x60\n        /* \"#utility.yul\":32197:32206   */\n      dup3\n        /* \"#utility.yul\":32193:32211   */\n      add\n        /* \"#utility.yul\":32185:32211   */\n      swap1\n      pop\n        /* \"#utility.yul\":32257:32266   */\n      dup2\n        /* \"#utility.yul\":32251:32255   */\n      dup2\n        /* \"#utility.yul\":32247:32267   */\n      sub\n        /* \"#utility.yul\":32243:32244   */\n      0x00\n        /* \"#utility.yul\":32232:32241   */\n      dup4\n        /* \"#utility.yul\":32228:32245   */\n      add\n        /* \"#utility.yul\":32221:32268   */\n      mstore\n        /* \"#utility.yul\":32285:32360   */\n      tag_599\n        /* \"#utility.yul\":32355:32359   */\n      dup2\n        /* \"#utility.yul\":32346:32352   */\n      dup7\n        /* \"#utility.yul\":32285:32360   */\n      tag_283\n      jump\t// in\n    tag_599:\n        /* \"#utility.yul\":32277:32360   */\n      swap1\n      pop\n        /* \"#utility.yul\":32370:32453   */\n      tag_600\n        /* \"#utility.yul\":32449:32451   */\n      0x20\n        /* \"#utility.yul\":32438:32447   */\n      dup4\n        /* \"#utility.yul\":32434:32452   */\n      add\n        /* \"#utility.yul\":32425:32431   */\n      dup6\n        /* \"#utility.yul\":32370:32453   */\n      tag_223\n      jump\t// in\n    tag_600:\n        /* \"#utility.yul\":32463:32535   */\n      tag_601\n        /* \"#utility.yul\":32531:32533   */\n      0x40\n        /* \"#utility.yul\":32520:32529   */\n      dup4\n        /* \"#utility.yul\":32516:32534   */\n      add\n        /* \"#utility.yul\":32507:32513   */\n      dup5\n        /* \"#utility.yul\":32463:32535   */\n      tag_225\n      jump\t// in\n    tag_601:\n        /* \"#utility.yul\":31993:32542   */\n      swap5\n      swap4\n      pop\n      pop\n      pop\n      pop\n      jump\t// out\n\n    auxdata: 0xa2646970667358221220b1ff98a94cedc53f6eb6e3c61312bbada738033e7e0636f496c5ff263de3520a64736f6c634300081e0033\n}\n",
				"bytecode": {
					"linkReferences": {},
					"object": "6080604052348015600e575f5ffd5b506121d68061001c5f395ff3fe608060405234801561000f575f5ffd5b506004361061009c575f3560e01c8063afc6e8a611610064578063afc6e8a61461019e578063de6872d1146101ce578063ef2bba6e146101ea578063f019ec6614610208578063fb946851146102245761009c565b80630300a225146100a057806352154ba9146100d057806379e4b328146101055780638ef1b7e4146101355780638f4963171461016a575b5f5ffd5b6100ba60048036038101906100b59190611335565b610254565b6040516100c7919061139e565b60405180910390f35b6100ea60048036038101906100e591906113b7565b610297565b6040516100fc9695949392919061150c565b60405180910390f35b61011f600480360381019061011a919061159c565b610414565b60405161012c9190611608565b60405180910390f35b61014f600480360381019061014a91906113b7565b610449565b6040516101619695949392919061150c565b60405180910390f35b610184600480360381019061017f919061164b565b6106b8565b604051610195959493929190611676565b60405180910390f35b6101b860048036038101906101b39190611732565b610935565b6040516101c59190611949565b60405180910390f35b6101e860048036038101906101e39190611969565b610c45565b005b6101f2610f17565b6040516101ff919061139e565b60405180910390f35b610222600480360381019061021d91906119e7565b610f22565b005b61023e6004803603810190610239919061164b565b611146565b60405161024b919061139e565b60405180910390f35b6002828051602081018201805184825260208301602085012081835280955050505050508181548110610285575f80fd5b905f5260205f20015f91509150505481565b5f81815481106102a5575f80fd5b905f5260205f2090600602015f91509050805f0180546102c490611a52565b80601f01602080910402602001604051908101604052809291908181526020018280546102f090611a52565b801561033b5780601f106103125761010080835404028352916020019161033b565b820191905f5260205f20905b81548152906001019060200180831161031e57829003601f168201915b50505050509080600101805461035090611a52565b80601f016020809104026020016040519081016040528092919081815260200182805461037c90611a52565b80156103c75780601f1061039e576101008083540402835291602001916103c7565b820191905f5260205f20905b8154815290600101906020018083116103aa57829003601f168201915b505050505090806002015f9054906101000a900460ff1690806003015490806004015490806005015f9054906101000a900473ffffffffffffffffffffffffffffffffffffffff16905086565b5f83838360405160200161042a93929190611b10565b6040516020818303038152906040528051906020012090509392505050565b6060805f5f5f5f5f805490508710610496576040517f08c379a000000000000000000000000000000000000000000000000000000000815260040161048d90611b92565b60405180910390fd5b5f5f88815481106104aa576104a9611bb0565b5b905f5260205f2090600602016040518060c00160405290815f820180546104d090611a52565b80601f01602080910402602001604051908101604052809291908181526020018280546104fc90611a52565b80156105475780601f1061051e57610100808354040283529160200191610547565b820191905f5260205f20905b81548152906001019060200180831161052a57829003601f168201915b5050505050815260200160018201805461056090611a52565b80601f016020809104026020016040519081016040528092919081815260200182805461058c90611a52565b80156105d75780601f106105ae576101008083540402835291602001916105d7565b820191905f5260205f20905b8154815290600101906020018083116105ba57829003601f168201915b50505050508152602001600282015f9054906101000a900460ff16600281111561060457610603611442565b5b600281111561061657610615611442565b5b81526020016003820154815260200160048201548152602001600582015f9054906101000a900473ffffffffffffffffffffffffffffffffffffffff1673ffffffffffffffffffffffffffffffffffffffff1673ffffffffffffffffffffffffffffffffffffffff16815250509050805f015181602001518260400151836060015184608001518560a001519650965096509650965096505091939550919395565b6060805f5f5f5f60015f8881526020019081526020015f205490505f805490508110610719576040517f08c379a000000000000000000000000000000000000000000000000000000000815260040161071090611c27565b60405180910390fd5b5f5f828154811061072d5761072c611bb0565b5b905f5260205f2090600602016040518060c00160405290815f8201805461075390611a52565b80601f016020809104026020016040519081016040528092919081815260200182805461077f90611a52565b80156107ca5780601f106107a1576101008083540402835291602001916107ca565b820191905f5260205f20905b8154815290600101906020018083116107ad57829003601f168201915b505050505081526020016001820180546107e390611a52565b80601f016020809104026020016040519081016040528092919081815260200182805461080f90611a52565b801561085a5780601f106108315761010080835404028352916020019161085a565b820191905f5260205f20905b81548152906001019060200180831161083d57829003601f168201915b50505050508152602001600282015f9054906101000a900460ff16600281111561088757610886611442565b5b600281111561089957610898611442565b5b81526020016003820154815260200160048201548152602001600582015f9054906101000a900473ffffffffffffffffffffffffffffffffffffffff1673ffffffffffffffffffffffffffffffffffffffff1673ffffffffffffffffffffffffffffffffffffffff16815250509050805f01518160200151826040015183606001518460a0015196509650965096509650505091939590929450565b60605f6002848460405161094a929190611c69565b90815260200160405180910390208054806020026020016040519081016040528092919081815260200182805480156109a057602002820191905f5260205f20905b81548152602001906001019080831161098c575b50505050509050805167ffffffffffffffff8111156109c2576109c16111de565b5b6040519080825280602002602001820160405280156109fb57816020015b6109e861115b565b8152602001906001900390816109e05790505b5091505f5f90505b8151811015610c3d575f828281518110610a2057610a1f611bb0565b5b602002602001015181548110610a3957610a38611bb0565b5b905f5260205f2090600602016040518060c00160405290815f82018054610a5f90611a52565b80601f0160208091040260200160405190810160405280929190818152602001828054610a8b90611a52565b8015610ad65780601f10610aad57610100808354040283529160200191610ad6565b820191905f5260205f20905b815481529060010190602001808311610ab957829003601f168201915b50505050508152602001600182018054610aef90611a52565b80601f0160208091040260200160405190810160405280929190818152602001828054610b1b90611a52565b8015610b665780601f10610b3d57610100808354040283529160200191610b66565b820191905f5260205f20905b815481529060010190602001808311610b4957829003601f168201915b50505050508152602001600282015f9054906101000a900460ff166002811115610b9357610b92611442565b5b6002811115610ba557610ba4611442565b5b81526020016003820154815260200160048201548152602001600582015f9054906101000a900473ffffffffffffffffffffffffffffffffffffffff1673ffffffffffffffffffffffffffffffffffffffff1673ffffffffffffffffffffffffffffffffffffffff1681525050838281518110610c2557610c24611bb0565b5b60200260200101819052508080600101915050610a03565b505092915050565b5f4290505f5f90505f610c9c87878080601f0160208091040260200160405190810160405280939291908181526020018383808284375f81840152601f19601f820116905080830192505050505050508484610414565b90505f6040518060c0016040528089898080601f0160208091040260200160405190810160405280939291908181526020018383808284375f81840152601f19601f82011690508083019250505050505050815260200187878080601f0160208091040260200160405190810160405280939291908181526020018383808284375f81840152601f19601f820116905080830192505050505050508152602001846002811115610d4f57610d4e611442565b5b81526020018581526020018381526020013373ffffffffffffffffffffffffffffffffffffffff1681525090505f81908060018154018082558091505060019003905f5260205f2090600602015f909190919091505f820151815f019081610db79190611e21565b506020820151816001019081610dcd9190611e21565b506040820151816002015f6101000a81548160ff02191690836002811115610df857610df7611442565b5b0217905550606082015181600301556080820151816004015560a0820151816005015f6101000a81548173ffffffffffffffffffffffffffffffffffffffff021916908373ffffffffffffffffffffffffffffffffffffffff16021790555050505f60015f80549050610e6b9190611f1d565b90508060015f8581526020019081526020015f208190555060028989604051610e95929190611c69565b908152602001604051809103902081908060018154018082558091505060019003905f5260205f20015f90919091909150557ffd1c7c81077a5f7cf7b5488a806182b203c0b2912896326cb9a6959faffba1af89898989888a8933604051610f04989796959493929190611f7c565b60405180910390a1505050505050505050565b5f5f80549050905090565b5f805490508210610f68576040517f08c379a0000000000000000000000000000000000000000000000000000000008152600401610f5f90612037565b60405180910390fd5b5f5f8381548110610f7c57610f7b611bb0565b5b905f5260205f2090600602019050806005015f9054906101000a900473ffffffffffffffffffffffffffffffffffffffff1673ffffffffffffffffffffffffffffffffffffffff163373ffffffffffffffffffffffffffffffffffffffff161461101b576040517f08c379a0000000000000000000000000000000000000000000000000000000008152600401611012906120c5565b60405180910390fd5b81816002015f6101000a81548160ff0219169083600281111561104157611040611442565b5b02179055506110de815f01805461105790611a52565b80601f016020809104026020016040519081016040528092919081815260200182805461108390611a52565b80156110ce5780601f106110a5576101008083540402835291602001916110ce565b820191905f5260205f20905b8154815290600101906020018083116110b157829003601f168201915b5050505050826003015484610414565b81600401819055508260015f836004015481526020019081526020015f20819055507fd1cbe8d707fb13fe0afcca6884169d8eaf992c5ef8b0c4a0e16d17a40295e414815f0183836004015460405161113993929190612164565b60405180910390a1505050565b6001602052805f5260405f205f915090505481565b6040518060c0016040528060608152602001606081526020015f600281111561118757611186611442565b5b81526020015f81526020015f81526020015f73ffffffffffffffffffffffffffffffffffffffff1681525090565b5f604051905090565b5f5ffd5b5f5ffd5b5f5ffd5b5f5ffd5b5f601f19601f8301169050919050565b7f4e487b71000000000000000000000000000000000000000000000000000000005f52604160045260245ffd5b611214826111ce565b810181811067ffffffffffffffff82111715611233576112326111de565b5b80604052505050565b5f6112456111b5565b9050611251828261120b565b919050565b5f67ffffffffffffffff8211156112705761126f6111de565b5b611279826111ce565b9050602081019050919050565b828183375f83830152505050565b5f6112a66112a184611256565b61123c565b9050828152602081018484840111156112c2576112c16111ca565b5b6112cd848285611286565b509392505050565b5f82601f8301126112e9576112e86111c6565b5b81356112f9848260208601611294565b91505092915050565b5f819050919050565b61131481611302565b811461131e575f5ffd5b50565b5f8135905061132f8161130b565b92915050565b5f5f6040838503121561134b5761134a6111be565b5b5f83013567ffffffffffffffff811115611368576113676111c2565b5b611374858286016112d5565b925050602061138585828601611321565b9150509250929050565b61139881611302565b82525050565b5f6020820190506113b15f83018461138f565b92915050565b5f602082840312156113cc576113cb6111be565b5b5f6113d984828501611321565b91505092915050565b5f81519050919050565b5f82825260208201905092915050565b8281835e5f83830152505050565b5f611414826113e2565b61141e81856113ec565b935061142e8185602086016113fc565b611437816111ce565b840191505092915050565b7f4e487b71000000000000000000000000000000000000000000000000000000005f52602160045260245ffd5b600381106114805761147f611442565b5b50565b5f8190506114908261146f565b919050565b5f61149f82611483565b9050919050565b6114af81611495565b82525050565b5f819050919050565b6114c7816114b5565b82525050565b5f73ffffffffffffffffffffffffffffffffffffffff82169050919050565b5f6114f6826114cd565b9050919050565b611506816114ec565b82525050565b5f60c0820190508181035f830152611524818961140a565b90508181036020830152611538818861140a565b905061154760408301876114a6565b611554606083018661138f565b61156160808301856114be565b61156e60a08301846114fd565b979650505050505050565b60038110611585575f5ffd5b50565b5f8135905061159681611579565b92915050565b5f5f5f606084860312156115b3576115b26111be565b5b5f84013567ffffffffffffffff8111156115d0576115cf6111c2565b5b6115dc868287016112d5565b93505060206115ed86828701611321565b92505060406115fe86828701611588565b9150509250925092565b5f60208201905061161b5f8301846114be565b92915050565b61162a816114b5565b8114611634575f5ffd5b50565b5f8135905061164581611621565b92915050565b5f602082840312156116605761165f6111be565b5b5f61166d84828501611637565b91505092915050565b5f60a0820190508181035f83015261168e818861140a565b905081810360208301526116a2818761140a565b90506116b160408301866114a6565b6116be606083018561138f565b6116cb60808301846114fd565b9695505050505050565b5f5ffd5b5f5ffd5b5f5f83601f8401126116f2576116f16111c6565b5b8235905067ffffffffffffffff81111561170f5761170e6116d5565b5b60208301915083600182028301111561172b5761172a6116d9565b5b9250929050565b5f5f60208385031215611748576117476111be565b5b5f83013567ffffffffffffffff811115611765576117646111c2565b5b611771858286016116dd565b92509250509250929050565b5f81519050919050565b5f82825260208201905092915050565b5f819050602082019050919050565b5f82825260208201905092915050565b5f6117c0826113e2565b6117ca81856117a6565b93506117da8185602086016113fc565b6117e3816111ce565b840191505092915050565b6117f781611495565b82525050565b61180681611302565b82525050565b611815816114b5565b82525050565b611824816114ec565b82525050565b5f60c083015f8301518482035f86015261184482826117b6565b9150506020830151848203602086015261185e82826117b6565b915050604083015161187360408601826117ee565b50606083015161188660608601826117fd565b506080830151611899608086018261180c565b5060a08301516118ac60a086018261181b565b508091505092915050565b5f6118c2838361182a565b905092915050565b5f602082019050919050565b5f6118e08261177d565b6118ea8185611787565b9350836020820285016118fc85611797565b805f5b85811015611937578484038952815161191885826118b7565b9450611923836118ca565b925060208a019950506001810190506118ff565b50829750879550505050505092915050565b5f6020820190508181035f83015261196181846118d6565b905092915050565b5f5f5f5f60408587031215611981576119806111be565b5b5f85013567ffffffffffffffff81111561199e5761199d6111c2565b5b6119aa878288016116dd565b9450945050602085013567ffffffffffffffff8111156119cd576119cc6111c2565b5b6119d9878288016116dd565b925092505092959194509250565b5f5f604083850312156119fd576119fc6111be565b5b5f611a0a85828601611321565b9250506020611a1b85828601611588565b9150509250929050565b7f4e487b71000000000000000000000000000000000000000000000000000000005f52602260045260245ffd5b5f6002820490506001821680611a6957607f821691505b602082108103611a7c57611a7b611a25565b5b50919050565b5f81905092915050565b5f611a96826113e2565b611aa08185611a82565b9350611ab08185602086016113fc565b80840191505092915050565b5f819050919050565b611ad6611ad182611302565b611abc565b82525050565b5f8160f81b9050919050565b5f611af282611adc565b9050919050565b611b0a611b0582611495565b611ae8565b82525050565b5f611b1b8286611a8c565b9150611b278285611ac5565b602082019150611b378284611af9565b600182019150819050949350505050565b7f496e6469636520696e766169646f0000000000000000000000000000000000005f82015250565b5f611b7c600e836113ec565b9150611b8782611b48565b602082019050919050565b5f6020820190508181035f830152611ba981611b70565b9050919050565b7f4e487b71000000000000000000000000000000000000000000000000000000005f52603260045260245ffd5b7f4e6f20736520656e636f6e74726f206c612074617265610000000000000000005f82015250565b5f611c116017836113ec565b9150611c1c82611bdd565b602082019050919050565b5f6020820190508181035f830152611c3e81611c05565b9050919050565b5f611c508385611a82565b9350611c5d838584611286565b82840190509392505050565b5f611c75828486611c45565b91508190509392505050565b5f819050815f5260205f209050919050565b5f6020601f8301049050919050565b5f82821b905092915050565b5f60088302611cdd7fffffffffffffffffffffffffffffffffffffffffffffffffffffffffffffffff82611ca2565b611ce78683611ca2565b95508019841693508086168417925050509392505050565b5f819050919050565b5f611d22611d1d611d1884611302565b611cff565b611302565b9050919050565b5f819050919050565b611d3b83611d08565b611d4f611d4782611d29565b848454611cae565b825550505050565b5f5f905090565b611d66611d57565b611d71818484611d32565b505050565b5b81811015611d9457611d895f82611d5e565b600181019050611d77565b5050565b601f821115611dd957611daa81611c81565b611db384611c93565b81016020851015611dc2578190505b611dd6611dce85611c93565b830182611d76565b50505b505050565b5f82821c905092915050565b5f611df95f1984600802611dde565b1980831691505092915050565b5f611e118383611dea565b9150826002028217905092915050565b611e2a826113e2565b67ffffffffffffffff811115611e4357611e426111de565b5b611e4d8254611a52565b611e58828285611d98565b5f60209050601f831160018114611e89575f8415611e77578287015190505b611e818582611e06565b865550611ee8565b601f198416611e9786611c81565b5f5b82811015611ebe57848901518255600182019150602085019450602081019050611e99565b86831015611edb5784890151611ed7601f891682611dea565b8355505b6001600288020188555050505b505050505050565b7f4e487b71000000000000000000000000000000000000000000000000000000005f52601160045260245ffd5b5f611f2782611302565b9150611f3283611302565b9250828203905081811115611f4a57611f49611ef0565b5b92915050565b5f611f5b83856113ec565b9350611f68838584611286565b611f71836111ce565b840190509392505050565b5f60c0820190508181035f830152611f95818a8c611f50565b90508181036020830152611faa81888a611f50565b9050611fb960408301876114a6565b611fc6606083018661138f565b611fd360808301856114be565b611fe060a08301846114fd565b9998505050505050505050565b7f496e6469636520696e76616c69646f00000000000000000000000000000000005f82015250565b5f612021600f836113ec565b915061202c82611fed565b602082019050919050565b5f6020820190508181035f83015261204e81612015565b9050919050565b7f536f6c6f20656c2063726561646f7220707565646520656469746172206c61205f8201527f7461726561000000000000000000000000000000000000000000000000000000602082015250565b5f6120af6025836113ec565b91506120ba82612055565b604082019050919050565b5f6020820190508181035f8301526120dc816120a3565b9050919050565b5f81546120ef81611a52565b6120f981866113ec565b9450600182165f811461211357600181146121295761215b565b60ff19831686528115156020028601935061215b565b61213285611c81565b5f5b8381101561215357815481890152600182019150602081019050612134565b808801955050505b50505092915050565b5f6060820190508181035f83015261217c81866120e3565b905061218b60208301856114a6565b61219860408301846114be565b94935050505056fea2646970667358221220b1ff98a94cedc53f6eb6e3c61312bbada738033e7e0636f496c5ff263de3520a64736f6c634300081e0033",
					"opcodes": "PUSH1 0x80 PUSH1 0x40 MSTORE CALLVALUE DUP1 ISZERO PUSH1 0xE JUMPI PUSH0 PUSH0 REVERT JUMPDEST POP PUSH2 0x21D6 DUP1 PUSH2 0x1C PUSH0 CODECOPY PUSH0 RETURN INVALID PUSH1 0x80 PUSH1 0x40 MSTORE CALLVALUE DUP1 ISZERO PUSH2 0xF JUMPI PUSH0 PUSH0 REVERT JUMPDEST POP PUSH1 0x4 CALLDATASIZE LT PUSH2 0x9C JUMPI PUSH0 CALLDATALOAD PUSH1 0xE0 SHR DUP1 PUSH4 0xAFC6E8A6 GT PUSH2 0x64 JUMPI DUP1 PUSH4 0xAFC6E8A6 EQ PUSH2 0x19E JUMPI DUP1 PUSH4 0xDE6872D1 EQ PUSH2 0x1CE JUMPI DUP1 PUSH4 0xEF2BBA6E EQ PUSH2 0x1EA JUMPI DUP1 PUSH4 0xF019EC66 EQ PUSH2 0x208 JUMPI DUP1 PUSH4 0xFB946851 EQ PUSH2 0x224 JUMPI PUSH2 0x9C JUMP JUMPDEST DUP1 PUSH4 0x300A225 EQ PUSH2 0xA0 JUMPI DUP1 PUSH4 0x52154BA9 EQ PUSH2 0xD0 JUMPI DUP1 PUSH4 0x79E4B328 EQ PUSH2 0x105 JUMPI DUP1 PUSH4 0x8EF1B7E4 EQ PUSH2 0x135 JUMPI DUP1 PUSH4 0x8F496317 EQ PUSH2 0x16A JUMPI JUMPDEST PUSH0 PUSH0 REVERT JUMPDEST PUSH2 0xBA PUSH1 0x4 DUP1 CALLDATASIZE SUB DUP2 ADD SWAP1 PUSH2 0xB5 SWAP2 SWAP1 PUSH2 0x1335 JUMP JUMPDEST PUSH2 0x254 JUMP JUMPDEST PUSH1 0x40 MLOAD PUSH2 0xC7 SWAP2 SWAP1 PUSH2 0x139E JUMP JUMPDEST PUSH1 0x40 MLOAD DUP1 SWAP2 SUB SWAP1 RETURN JUMPDEST PUSH2 0xEA PUSH1 0x4 DUP1 CALLDATASIZE SUB DUP2 ADD SWAP1 PUSH2 0xE5 SWAP2 SWAP1 PUSH2 0x13B7 JUMP JUMPDEST PUSH2 0x297 JUMP JUMPDEST PUSH1 0x40 MLOAD PUSH2 0xFC SWAP7 SWAP6 SWAP5 SWAP4 SWAP3 SWAP2 SWAP1 PUSH2 0x150C JUMP JUMPDEST PUSH1 0x40 MLOAD DUP1 SWAP2 SUB SWAP1 RETURN JUMPDEST PUSH2 0x11F PUSH1 0x4 DUP1 CALLDATASIZE SUB DUP2 ADD SWAP1 PUSH2 0x11A SWAP2 SWAP1 PUSH2 0x159C JUMP JUMPDEST PUSH2 0x414 JUMP JUMPDEST PUSH1 0x40 MLOAD PUSH2 0x12C SWAP2 SWAP1 PUSH2 0x1608 JUMP JUMPDEST PUSH1 0x40 MLOAD DUP1 SWAP2 SUB SWAP1 RETURN JUMPDEST PUSH2 0x14F PUSH1 0x4 DUP1 CALLDATASIZE SUB DUP2 ADD SWAP1 PUSH2 0x14A SWAP2 SWAP1 PUSH2 0x13B7 JUMP JUMPDEST PUSH2 0x449 JUMP JUMPDEST PUSH1 0x40 MLOAD PUSH2 0x161 SWAP7 SWAP6 SWAP5 SWAP4 SWAP3 SWAP2 SWAP1 PUSH2 0x150C JUMP JUMPDEST PUSH1 0x40 MLOAD DUP1 SWAP2 SUB SWAP1 RETURN JUMPDEST PUSH2 0x184 PUSH1 0x4 DUP1 CALLDATASIZE SUB DUP2 ADD SWAP1 PUSH2 0x17F SWAP2 SWAP1 PUSH2 0x164B JUMP JUMPDEST PUSH2 0x6B8 JUMP JUMPDEST PUSH1 0x40 MLOAD PUSH2 0x195 SWAP6 SWAP5 SWAP4 SWAP3 SWAP2 SWAP1 PUSH2 0x1676 JUMP JUMPDEST PUSH1 0x40 MLOAD DUP1 SWAP2 SUB SWAP1 RETURN JUMPDEST PUSH2 0x1B8 PUSH1 0x4 DUP1 CALLDATASIZE SUB DUP2 ADD SWAP1 PUSH2 0x1B3 SWAP2 SWAP1 PUSH2 0x1732 JUMP JUMPDEST PUSH2 0x935 JUMP JUMPDEST PUSH1 0x40 MLOAD PUSH2 0x1C5 SWAP2 SWAP1 PUSH2 0x1949 JUMP JUMPDEST PUSH1 0x40 MLOAD DUP1 SWAP2 SUB SWAP1 RETURN JUMPDEST PUSH2 0x1E8 PUSH1 0x4 DUP1 CALLDATASIZE SUB DUP2 ADD SWAP1 PUSH2 0x1E3 SWAP2 SWAP1 PUSH2 0x1969 JUMP JUMPDEST PUSH2 0xC45 JUMP JUMPDEST STOP JUMPDEST PUSH2 0x1F2 PUSH2 0xF17 JUMP JUMPDEST PUSH1 0x40 MLOAD PUSH2 0x1FF SWAP2 SWAP1 PUSH2 0x139E JUMP JUMPDEST PUSH1 0x40 MLOAD DUP1 SWAP2 SUB SWAP1 RETURN JUMPDEST PUSH2 0x222 PUSH1 0x4 DUP1 CALLDATASIZE SUB DUP2 ADD SWAP1 PUSH2 0x21D SWAP2 SWAP1 PUSH2 0x19E7 JUMP JUMPDEST PUSH2 0xF22 JUMP JUMPDEST STOP JUMPDEST PUSH2 0x23E PUSH1 0x4 DUP1 CALLDATASIZE SUB DUP2 ADD SWAP1 PUSH2 0x239 SWAP2 SWAP1 PUSH2 0x164B JUMP JUMPDEST PUSH2 0x1146 JUMP JUMPDEST PUSH1 0x40 MLOAD PUSH2 0x24B SWAP2 SWAP1 PUSH2 0x139E JUMP JUMPDEST PUSH1 0x40 MLOAD DUP1 SWAP2 SUB SWAP1 RETURN JUMPDEST PUSH1 0x2 DUP3 DUP1 MLOAD PUSH1 0x20 DUP2 ADD DUP3 ADD DUP1 MLOAD DUP5 DUP3 MSTORE PUSH1 0x20 DUP4 ADD PUSH1 0x20 DUP6 ADD KECCAK256 DUP2 DUP4 MSTORE DUP1 SWAP6 POP POP POP POP POP POP DUP2 DUP2 SLOAD DUP2 LT PUSH2 0x285 JUMPI PUSH0 DUP1 REVERT JUMPDEST SWAP1 PUSH0 MSTORE PUSH1 0x20 PUSH0 KECCAK256 ADD PUSH0 SWAP2 POP SWAP2 POP POP SLOAD DUP2 JUMP JUMPDEST PUSH0 DUP2 DUP2 SLOAD DUP2 LT PUSH2 0x2A5 JUMPI PUSH0 DUP1 REVERT JUMPDEST SWAP1 PUSH0 MSTORE PUSH1 0x20 PUSH0 KECCAK256 SWAP1 PUSH1 0x6 MUL ADD PUSH0 SWAP2 POP SWAP1 POP DUP1 PUSH0 ADD DUP1 SLOAD PUSH2 0x2C4 SWAP1 PUSH2 0x1A52 JUMP JUMPDEST DUP1 PUSH1 0x1F ADD PUSH1 0x20 DUP1 SWAP2 DIV MUL PUSH1 0x20 ADD PUSH1 0x40 MLOAD SWAP1 DUP2 ADD PUSH1 0x40 MSTORE DUP1 SWAP3 SWAP2 SWAP1 DUP2 DUP2 MSTORE PUSH1 0x20 ADD DUP3 DUP1 SLOAD PUSH2 0x2F0 SWAP1 PUSH2 0x1A52 JUMP JUMPDEST DUP1 ISZERO PUSH2 0x33B JUMPI DUP1 PUSH1 0x1F LT PUSH2 0x312 JUMPI PUSH2 0x100 DUP1 DUP4 SLOAD DIV MUL DUP4 MSTORE SWAP2 PUSH1 0x20 ADD SWAP2 PUSH2 0x33B JUMP JUMPDEST DUP3 ADD SWAP2 SWAP1 PUSH0 MSTORE PUSH1 0x20 PUSH0 KECCAK256 SWAP1 JUMPDEST DUP2 SLOAD DUP2 MSTORE SWAP1 PUSH1 0x1 ADD SWAP1 PUSH1 0x20 ADD DUP1 DUP4 GT PUSH2 0x31E JUMPI DUP3 SWAP1 SUB PUSH1 0x1F AND DUP3 ADD SWAP2 JUMPDEST POP POP POP POP POP SWAP1 DUP1 PUSH1 0x1 ADD DUP1 SLOAD PUSH2 0x350 SWAP1 PUSH2 0x1A52 JUMP JUMPDEST DUP1 PUSH1 0x1F ADD PUSH1 0x20 DUP1 SWAP2 DIV MUL PUSH1 0x20 ADD PUSH1 0x40 MLOAD SWAP1 DUP2 ADD PUSH1 0x40 MSTORE DUP1 SWAP3 SWAP2 SWAP1 DUP2 DUP2 MSTORE PUSH1 0x20 ADD DUP3 DUP1 SLOAD PUSH2 0x37C SWAP1 PUSH2 0x1A52 JUMP JUMPDEST DUP1 ISZERO PUSH2 0x3C7 JUMPI DUP1 PUSH1 0x1F LT PUSH2 0x39E JUMPI PUSH2 0x100 DUP1 DUP4 SLOAD DIV MUL DUP4 MSTORE SWAP2 PUSH1 0x20 ADD SWAP2 PUSH2 0x3C7 JUMP JUMPDEST DUP3 ADD SWAP2 SWAP1 PUSH0 MSTORE PUSH1 0x20 PUSH0 KECCAK256 SWAP1 JUMPDEST DUP2 SLOAD DUP2 MSTORE SWAP1 PUSH1 0x1 ADD SWAP1 PUSH1 0x20 ADD DUP1 DUP4 GT PUSH2 0x3AA JUMPI DUP3 SWAP1 SUB PUSH1 0x1F AND DUP3 ADD SWAP2 JUMPDEST POP POP POP POP POP SWAP1 DUP1 PUSH1 0x2 ADD PUSH0 SWAP1 SLOAD SWAP1 PUSH2 0x100 EXP SWAP1 DIV PUSH1 0xFF AND SWAP1 DUP1 PUSH1 0x3 ADD SLOAD SWAP1 DUP1 PUSH1 0x4 ADD SLOAD SWAP1 DUP1 PUSH1 0x5 ADD PUSH0 SWAP1 SLOAD SWAP1 PUSH2 0x100 EXP SWAP1 DIV PUSH20 0xFFFFFFFFFFFFFFFFFFFFFFFFFFFFFFFFFFFFFFFF AND SWAP1 POP DUP7 JUMP JUMPDEST PUSH0 DUP4 DUP4 DUP4 PUSH1 0x40 MLOAD PUSH1 0x20 ADD PUSH2 0x42A SWAP4 SWAP3 SWAP2 SWAP1 PUSH2 0x1B10 JUMP JUMPDEST PUSH1 0x40 MLOAD PUSH1 0x20 DUP2 DUP4 SUB SUB DUP2 MSTORE SWAP1 PUSH1 0x40 MSTORE DUP1 MLOAD SWAP1 PUSH1 0x20 ADD KECCAK256 SWAP1 POP SWAP4 SWAP3 POP POP POP JUMP JUMPDEST PUSH1 0x60 DUP1 PUSH0 PUSH0 PUSH0 PUSH0 PUSH0 DUP1 SLOAD SWAP1 POP DUP8 LT PUSH2 0x496 JUMPI PUSH1 0x40 MLOAD PUSH32 0x8C379A000000000000000000000000000000000000000000000000000000000 DUP2 MSTORE PUSH1 0x4 ADD PUSH2 0x48D SWAP1 PUSH2 0x1B92 JUMP JUMPDEST PUSH1 0x40 MLOAD DUP1 SWAP2 SUB SWAP1 REVERT JUMPDEST PUSH0 PUSH0 DUP9 DUP2 SLOAD DUP2 LT PUSH2 0x4AA JUMPI PUSH2 0x4A9 PUSH2 0x1BB0 JUMP JUMPDEST JUMPDEST SWAP1 PUSH0 MSTORE PUSH1 0x20 PUSH0 KECCAK256 SWAP1 PUSH1 0x6 MUL ADD PUSH1 0x40 MLOAD DUP1 PUSH1 0xC0 ADD PUSH1 0x40 MSTORE SWAP1 DUP2 PUSH0 DUP3 ADD DUP1 SLOAD PUSH2 0x4D0 SWAP1 PUSH2 0x1A52 JUMP JUMPDEST DUP1 PUSH1 0x1F ADD PUSH1 0x20 DUP1 SWAP2 DIV MUL PUSH1 0x20 ADD PUSH1 0x40 MLOAD SWAP1 DUP2 ADD PUSH1 0x40 MSTORE DUP1 SWAP3 SWAP2 SWAP1 DUP2 DUP2 MSTORE PUSH1 0x20 ADD DUP3 DUP1 SLOAD PUSH2 0x4FC SWAP1 PUSH2 0x1A52 JUMP JUMPDEST DUP1 ISZERO PUSH2 0x547 JUMPI DUP1 PUSH1 0x1F LT PUSH2 0x51E JUMPI PUSH2 0x100 DUP1 DUP4 SLOAD DIV MUL DUP4 MSTORE SWAP2 PUSH1 0x20 ADD SWAP2 PUSH2 0x547 JUMP JUMPDEST DUP3 ADD SWAP2 SWAP1 PUSH0 MSTORE PUSH1 0x20 PUSH0 KECCAK256 SWAP1 JUMPDEST DUP2 SLOAD DUP2 MSTORE SWAP1 PUSH1 0x1 ADD SWAP1 PUSH1 0x20 ADD DUP1 DUP4 GT PUSH2 0x52A JUMPI DUP3 SWAP1 SUB PUSH1 0x1F AND DUP3 ADD SWAP2 JUMPDEST POP POP POP POP POP DUP2 MSTORE PUSH1 0x20 ADD PUSH1 0x1 DUP3 ADD DUP1 SLOAD PUSH2 0x560 SWAP1 PUSH2 0x1A52 JUMP JUMPDEST DUP1 PUSH1 0x1F ADD PUSH1 0x20 DUP1 SWAP2 DIV MUL PUSH1 0x20 ADD PUSH1 0x40 MLOAD SWAP1 DUP2 ADD PUSH1 0x40 MSTORE DUP1 SWAP3 SWAP2 SWAP1 DUP2 DUP2 MSTORE PUSH1 0x20 ADD DUP3 DUP1 SLOAD PUSH2 0x58C SWAP1 PUSH2 0x1A52 JUMP JUMPDEST DUP1 ISZERO PUSH2 0x5D7 JUMPI DUP1 PUSH1 0x1F LT PUSH2 0x5AE JUMPI PUSH2 0x100 DUP1 DUP4 SLOAD DIV MUL DUP4 MSTORE SWAP2 PUSH1 0x20 ADD SWAP2 PUSH2 0x5D7 JUMP JUMPDEST DUP3 ADD SWAP2 SWAP1 PUSH0 MSTORE PUSH1 0x20 PUSH0 KECCAK256 SWAP1 JUMPDEST DUP2 SLOAD DUP2 MSTORE SWAP1 PUSH1 0x1 ADD SWAP1 PUSH1 0x20 ADD DUP1 DUP4 GT PUSH2 0x5BA JUMPI DUP3 SWAP1 SUB PUSH1 0x1F AND DUP3 ADD SWAP2 JUMPDEST POP POP POP POP POP DUP2 MSTORE PUSH1 0x20 ADD PUSH1 0x2 DUP3 ADD PUSH0 SWAP1 SLOAD SWAP1 PUSH2 0x100 EXP SWAP1 DIV PUSH1 0xFF AND PUSH1 0x2 DUP2 GT ISZERO PUSH2 0x604 JUMPI PUSH2 0x603 PUSH2 0x1442 JUMP JUMPDEST JUMPDEST PUSH1 0x2 DUP2 GT ISZERO PUSH2 0x616 JUMPI PUSH2 0x615 PUSH2 0x1442 JUMP JUMPDEST JUMPDEST DUP2 MSTORE PUSH1 0x20 ADD PUSH1 0x3 DUP3 ADD SLOAD DUP2 MSTORE PUSH1 0x20 ADD PUSH1 0x4 DUP3 ADD SLOAD DUP2 MSTORE PUSH1 0x20 ADD PUSH1 0x5 DUP3 ADD PUSH0 SWAP1 SLOAD SWAP1 PUSH2 0x100 EXP SWAP1 DIV PUSH20 0xFFFFFFFFFFFFFFFFFFFFFFFFFFFFFFFFFFFFFFFF AND PUSH20 0xFFFFFFFFFFFFFFFFFFFFFFFFFFFFFFFFFFFFFFFF AND PUSH20 0xFFFFFFFFFFFFFFFFFFFFFFFFFFFFFFFFFFFFFFFF AND DUP2 MSTORE POP POP SWAP1 POP DUP1 PUSH0 ADD MLOAD DUP2 PUSH1 0x20 ADD MLOAD DUP3 PUSH1 0x40 ADD MLOAD DUP4 PUSH1 0x60 ADD MLOAD DUP5 PUSH1 0x80 ADD MLOAD DUP6 PUSH1 0xA0 ADD MLOAD SWAP7 POP SWAP7 POP SWAP7 POP SWAP7 POP SWAP7 POP SWAP7 POP POP SWAP2 SWAP4 SWAP6 POP SWAP2 SWAP4 SWAP6 JUMP JUMPDEST PUSH1 0x60 DUP1 PUSH0 PUSH0 PUSH0 PUSH0 PUSH1 0x1 PUSH0 DUP9 DUP2 MSTORE PUSH1 0x20 ADD SWAP1 DUP2 MSTORE PUSH1 0x20 ADD PUSH0 KECCAK256 SLOAD SWAP1 POP PUSH0 DUP1 SLOAD SWAP1 POP DUP2 LT PUSH2 0x719 JUMPI PUSH1 0x40 MLOAD PUSH32 0x8C379A000000000000000000000000000000000000000000000000000000000 DUP2 MSTORE PUSH1 0x4 ADD PUSH2 0x710 SWAP1 PUSH2 0x1C27 JUMP JUMPDEST PUSH1 0x40 MLOAD DUP1 SWAP2 SUB SWAP1 REVERT JUMPDEST PUSH0 PUSH0 DUP3 DUP2 SLOAD DUP2 LT PUSH2 0x72D JUMPI PUSH2 0x72C PUSH2 0x1BB0 JUMP JUMPDEST JUMPDEST SWAP1 PUSH0 MSTORE PUSH1 0x20 PUSH0 KECCAK256 SWAP1 PUSH1 0x6 MUL ADD PUSH1 0x40 MLOAD DUP1 PUSH1 0xC0 ADD PUSH1 0x40 MSTORE SWAP1 DUP2 PUSH0 DUP3 ADD DUP1 SLOAD PUSH2 0x753 SWAP1 PUSH2 0x1A52 JUMP JUMPDEST DUP1 PUSH1 0x1F ADD PUSH1 0x20 DUP1 SWAP2 DIV MUL PUSH1 0x20 ADD PUSH1 0x40 MLOAD SWAP1 DUP2 ADD PUSH1 0x40 MSTORE DUP1 SWAP3 SWAP2 SWAP1 DUP2 DUP2 MSTORE PUSH1 0x20 ADD DUP3 DUP1 SLOAD PUSH2 0x77F SWAP1 PUSH2 0x1A52 JUMP JUMPDEST DUP1 ISZERO PUSH2 0x7CA JUMPI DUP1 PUSH1 0x1F LT PUSH2 0x7A1 JUMPI PUSH2 0x100 DUP1 DUP4 SLOAD DIV MUL DUP4 MSTORE SWAP2 PUSH1 0x20 ADD SWAP2 PUSH2 0x7CA JUMP JUMPDEST DUP3 ADD SWAP2 SWAP1 PUSH0 MSTORE PUSH1 0x20 PUSH0 KECCAK256 SWAP1 JUMPDEST DUP2 SLOAD DUP2 MSTORE SWAP1 PUSH1 0x1 ADD SWAP1 PUSH1 0x20 ADD DUP1 DUP4 GT PUSH2 0x7AD JUMPI DUP3 SWAP1 SUB PUSH1 0x1F AND DUP3 ADD SWAP2 JUMPDEST POP POP POP POP POP DUP2 MSTORE PUSH1 0x20 ADD PUSH1 0x1 DUP3 ADD DUP1 SLOAD PUSH2 0x7E3 SWAP1 PUSH2 0x1A52 JUMP JUMPDEST DUP1 PUSH1 0x1F ADD PUSH1 0x20 DUP1 SWAP2 DIV MUL PUSH1 0x20 ADD PUSH1 0x40 MLOAD SWAP1 DUP2 ADD PUSH1 0x40 MSTORE DUP1 SWAP3 SWAP2 SWAP1 DUP2 DUP2 MSTORE PUSH1 0x20 ADD DUP3 DUP1 SLOAD PUSH2 0x80F SWAP1 PUSH2 0x1A52 JUMP JUMPDEST DUP1 ISZERO PUSH2 0x85A JUMPI DUP1 PUSH1 0x1F LT PUSH2 0x831 JUMPI PUSH2 0x100 DUP1 DUP4 SLOAD DIV MUL DUP4 MSTORE SWAP2 PUSH1 0x20 ADD SWAP2 PUSH2 0x85A JUMP JUMPDEST DUP3 ADD SWAP2 SWAP1 PUSH0 MSTORE PUSH1 0x20 PUSH0 KECCAK256 SWAP1 JUMPDEST DUP2 SLOAD DUP2 MSTORE SWAP1 PUSH1 0x1 ADD SWAP1 PUSH1 0x20 ADD DUP1 DUP4 GT PUSH2 0x83D JUMPI DUP3 SWAP1 SUB PUSH1 0x1F AND DUP3 ADD SWAP2 JUMPDEST POP POP POP POP POP DUP2 MSTORE PUSH1 0x20 ADD PUSH1 0x2 DUP3 ADD PUSH0 SWAP1 SLOAD SWAP1 PUSH2 0x100 EXP SWAP1 DIV PUSH1 0xFF AND PUSH1 0x2 DUP2 GT ISZERO PUSH2 0x887 JUMPI PUSH2 0x886 PUSH2 0x1442 JUMP JUMPDEST JUMPDEST PUSH1 0x2 DUP2 GT ISZERO PUSH2 0x899 JUMPI PUSH2 0x898 PUSH2 0x1442 JUMP JUMPDEST JUMPDEST DUP2 MSTORE PUSH1 0x20 ADD PUSH1 0x3 DUP3 ADD SLOAD DUP2 MSTORE PUSH1 0x20 ADD PUSH1 0x4 DUP3 ADD SLOAD DUP2 MSTORE PUSH1 0x20 ADD PUSH1 0x5 DUP3 ADD PUSH0 SWAP1 SLOAD SWAP1 PUSH2 0x100 EXP SWAP1 DIV PUSH20 0xFFFFFFFFFFFFFFFFFFFFFFFFFFFFFFFFFFFFFFFF AND PUSH20 0xFFFFFFFFFFFFFFFFFFFFFFFFFFFFFFFFFFFFFFFF AND PUSH20 0xFFFFFFFFFFFFFFFFFFFFFFFFFFFFFFFFFFFFFFFF AND DUP2 MSTORE POP POP SWAP1 POP DUP1 PUSH0 ADD MLOAD DUP2 PUSH1 0x20 ADD MLOAD DUP3 PUSH1 0x40 ADD MLOAD DUP4 PUSH1 0x60 ADD MLOAD DUP5 PUSH1 0xA0 ADD MLOAD SWAP7 POP SWAP7 POP SWAP7 POP SWAP7 POP SWAP7 POP POP POP SWAP2 SWAP4 SWAP6 SWAP1 SWAP3 SWAP5 POP JUMP JUMPDEST PUSH1 0x60 PUSH0 PUSH1 0x2 DUP5 DUP5 PUSH1 0x40 MLOAD PUSH2 0x94A SWAP3 SWAP2 SWAP1 PUSH2 0x1C69 JUMP JUMPDEST SWAP1 DUP2 MSTORE PUSH1 0x20 ADD PUSH1 0x40 MLOAD DUP1 SWAP2 SUB SWAP1 KECCAK256 DUP1 SLOAD DUP1 PUSH1 0x20 MUL PUSH1 0x20 ADD PUSH1 0x40 MLOAD SWAP1 DUP2 ADD PUSH1 0x40 MSTORE DUP1 SWAP3 SWAP2 SWAP1 DUP2 DUP2 MSTORE PUSH1 0x20 ADD DUP3 DUP1 SLOAD DUP1 ISZERO PUSH2 0x9A0 JUMPI PUSH1 0x20 MUL DUP3 ADD SWAP2 SWAP1 PUSH0 MSTORE PUSH1 0x20 PUSH0 KECCAK256 SWAP1 JUMPDEST DUP2 SLOAD DUP2 MSTORE PUSH1 0x20 ADD SWAP1 PUSH1 0x1 ADD SWAP1 DUP1 DUP4 GT PUSH2 0x98C JUMPI JUMPDEST POP POP POP POP POP SWAP1 POP DUP1 MLOAD PUSH8 0xFFFFFFFFFFFFFFFF DUP2 GT ISZERO PUSH2 0x9C2 JUMPI PUSH2 0x9C1 PUSH2 0x11DE JUMP JUMPDEST JUMPDEST PUSH1 0x40 MLOAD SWAP1 DUP1 DUP3 MSTORE DUP1 PUSH1 0x20 MUL PUSH1 0x20 ADD DUP3 ADD PUSH1 0x40 MSTORE DUP1 ISZERO PUSH2 0x9FB JUMPI DUP2 PUSH1 0x20 ADD JUMPDEST PUSH2 0x9E8 PUSH2 0x115B JUMP JUMPDEST DUP2 MSTORE PUSH1 0x20 ADD SWAP1 PUSH1 0x1 SWAP1 SUB SWAP1 DUP2 PUSH2 0x9E0 JUMPI SWAP1 POP JUMPDEST POP SWAP2 POP PUSH0 PUSH0 SWAP1 POP JUMPDEST DUP2 MLOAD DUP2 LT ISZERO PUSH2 0xC3D JUMPI PUSH0 DUP3 DUP3 DUP2 MLOAD DUP2 LT PUSH2 0xA20 JUMPI PUSH2 0xA1F PUSH2 0x1BB0 JUMP JUMPDEST JUMPDEST PUSH1 0x20 MUL PUSH1 0x20 ADD ADD MLOAD DUP2 SLOAD DUP2 LT PUSH2 0xA39 JUMPI PUSH2 0xA38 PUSH2 0x1BB0 JUMP JUMPDEST JUMPDEST SWAP1 PUSH0 MSTORE PUSH1 0x20 PUSH0 KECCAK256 SWAP1 PUSH1 0x6 MUL ADD PUSH1 0x40 MLOAD DUP1 PUSH1 0xC0 ADD PUSH1 0x40 MSTORE SWAP1 DUP2 PUSH0 DUP3 ADD DUP1 SLOAD PUSH2 0xA5F SWAP1 PUSH2 0x1A52 JUMP JUMPDEST DUP1 PUSH1 0x1F ADD PUSH1 0x20 DUP1 SWAP2 DIV MUL PUSH1 0x20 ADD PUSH1 0x40 MLOAD SWAP1 DUP2 ADD PUSH1 0x40 MSTORE DUP1 SWAP3 SWAP2 SWAP1 DUP2 DUP2 MSTORE PUSH1 0x20 ADD DUP3 DUP1 SLOAD PUSH2 0xA8B SWAP1 PUSH2 0x1A52 JUMP JUMPDEST DUP1 ISZERO PUSH2 0xAD6 JUMPI DUP1 PUSH1 0x1F LT PUSH2 0xAAD JUMPI PUSH2 0x100 DUP1 DUP4 SLOAD DIV MUL DUP4 MSTORE SWAP2 PUSH1 0x20 ADD SWAP2 PUSH2 0xAD6 JUMP JUMPDEST DUP3 ADD SWAP2 SWAP1 PUSH0 MSTORE PUSH1 0x20 PUSH0 KECCAK256 SWAP1 JUMPDEST DUP2 SLOAD DUP2 MSTORE SWAP1 PUSH1 0x1 ADD SWAP1 PUSH1 0x20 ADD DUP1 DUP4 GT PUSH2 0xAB9 JUMPI DUP3 SWAP1 SUB PUSH1 0x1F AND DUP3 ADD SWAP2 JUMPDEST POP POP POP POP POP DUP2 MSTORE PUSH1 0x20 ADD PUSH1 0x1 DUP3 ADD DUP1 SLOAD PUSH2 0xAEF SWAP1 PUSH2 0x1A52 JUMP JUMPDEST DUP1 PUSH1 0x1F ADD PUSH1 0x20 DUP1 SWAP2 DIV MUL PUSH1 0x20 ADD PUSH1 0x40 MLOAD SWAP1 DUP2 ADD PUSH1 0x40 MSTORE DUP1 SWAP3 SWAP2 SWAP1 DUP2 DUP2 MSTORE PUSH1 0x20 ADD DUP3 DUP1 SLOAD PUSH2 0xB1B SWAP1 PUSH2 0x1A52 JUMP JUMPDEST DUP1 ISZERO PUSH2 0xB66 JUMPI DUP1 PUSH1 0x1F LT PUSH2 0xB3D JUMPI PUSH2 0x100 DUP1 DUP4 SLOAD DIV MUL DUP4 MSTORE SWAP2 PUSH1 0x20 ADD SWAP2 PUSH2 0xB66 JUMP JUMPDEST DUP3 ADD SWAP2 SWAP1 PUSH0 MSTORE PUSH1 0x20 PUSH0 KECCAK256 SWAP1 JUMPDEST DUP2 SLOAD DUP2 MSTORE SWAP1 PUSH1 0x1 ADD SWAP1 PUSH1 0x20 ADD DUP1 DUP4 GT PUSH2 0xB49 JUMPI DUP3 SWAP1 SUB PUSH1 0x1F AND DUP3 ADD SWAP2 JUMPDEST POP POP POP POP POP DUP2 MSTORE PUSH1 0x20 ADD PUSH1 0x2 DUP3 ADD PUSH0 SWAP1 SLOAD SWAP1 PUSH2 0x100 EXP SWAP1 DIV PUSH1 0xFF AND PUSH1 0x2 DUP2 GT ISZERO PUSH2 0xB93 JUMPI PUSH2 0xB92 PUSH2 0x1442 JUMP JUMPDEST JUMPDEST PUSH1 0x2 DUP2 GT ISZERO PUSH2 0xBA5 JUMPI PUSH2 0xBA4 PUSH2 0x1442 JUMP JUMPDEST JUMPDEST DUP2 MSTORE PUSH1 0x20 ADD PUSH1 0x3 DUP3 ADD SLOAD DUP2 MSTORE PUSH1 0x20 ADD PUSH1 0x4 DUP3 ADD SLOAD DUP2 MSTORE PUSH1 0x20 ADD PUSH1 0x5 DUP3 ADD PUSH0 SWAP1 SLOAD SWAP1 PUSH2 0x100 EXP SWAP1 DIV PUSH20 0xFFFFFFFFFFFFFFFFFFFFFFFFFFFFFFFFFFFFFFFF AND PUSH20 0xFFFFFFFFFFFFFFFFFFFFFFFFFFFFFFFFFFFFFFFF AND PUSH20 0xFFFFFFFFFFFFFFFFFFFFFFFFFFFFFFFFFFFFFFFF AND DUP2 MSTORE POP POP DUP4 DUP3 DUP2 MLOAD DUP2 LT PUSH2 0xC25 JUMPI PUSH2 0xC24 PUSH2 0x1BB0 JUMP JUMPDEST JUMPDEST PUSH1 0x20 MUL PUSH1 0x20 ADD ADD DUP2 SWAP1 MSTORE POP DUP1 DUP1 PUSH1 0x1 ADD SWAP2 POP POP PUSH2 0xA03 JUMP JUMPDEST POP POP SWAP3 SWAP2 POP POP JUMP JUMPDEST PUSH0 TIMESTAMP SWAP1 POP PUSH0 PUSH0 SWAP1 POP PUSH0 PUSH2 0xC9C DUP8 DUP8 DUP1 DUP1 PUSH1 0x1F ADD PUSH1 0x20 DUP1 SWAP2 DIV MUL PUSH1 0x20 ADD PUSH1 0x40 MLOAD SWAP1 DUP2 ADD PUSH1 0x40 MSTORE DUP1 SWAP4 SWAP3 SWAP2 SWAP1 DUP2 DUP2 MSTORE PUSH1 0x20 ADD DUP4 DUP4 DUP1 DUP3 DUP5 CALLDATACOPY PUSH0 DUP2 DUP5 ADD MSTORE PUSH1 0x1F NOT PUSH1 0x1F DUP3 ADD AND SWAP1 POP DUP1 DUP4 ADD SWAP3 POP POP POP POP POP POP POP DUP5 DUP5 PUSH2 0x414 JUMP JUMPDEST SWAP1 POP PUSH0 PUSH1 0x40 MLOAD DUP1 PUSH1 0xC0 ADD PUSH1 0x40 MSTORE DUP1 DUP10 DUP10 DUP1 DUP1 PUSH1 0x1F ADD PUSH1 0x20 DUP1 SWAP2 DIV MUL PUSH1 0x20 ADD PUSH1 0x40 MLOAD SWAP1 DUP2 ADD PUSH1 0x40 MSTORE DUP1 SWAP4 SWAP3 SWAP2 SWAP1 DUP2 DUP2 MSTORE PUSH1 0x20 ADD DUP4 DUP4 DUP1 DUP3 DUP5 CALLDATACOPY PUSH0 DUP2 DUP5 ADD MSTORE PUSH1 0x1F NOT PUSH1 0x1F DUP3 ADD AND SWAP1 POP DUP1 DUP4 ADD SWAP3 POP POP POP POP POP POP POP DUP2 MSTORE PUSH1 0x20 ADD DUP8 DUP8 DUP1 DUP1 PUSH1 0x1F ADD PUSH1 0x20 DUP1 SWAP2 DIV MUL PUSH1 0x20 ADD PUSH1 0x40 MLOAD SWAP1 DUP2 ADD PUSH1 0x40 MSTORE DUP1 SWAP4 SWAP3 SWAP2 SWAP1 DUP2 DUP2 MSTORE PUSH1 0x20 ADD DUP4 DUP4 DUP1 DUP3 DUP5 CALLDATACOPY PUSH0 DUP2 DUP5 ADD MSTORE PUSH1 0x1F NOT PUSH1 0x1F DUP3 ADD AND SWAP1 POP DUP1 DUP4 ADD SWAP3 POP POP POP POP POP POP POP DUP2 MSTORE PUSH1 0x20 ADD DUP5 PUSH1 0x2 DUP2 GT ISZERO PUSH2 0xD4F JUMPI PUSH2 0xD4E PUSH2 0x1442 JUMP JUMPDEST JUMPDEST DUP2 MSTORE PUSH1 0x20 ADD DUP6 DUP2 MSTORE PUSH1 0x20 ADD DUP4 DUP2 MSTORE PUSH1 0x20 ADD CALLER PUSH20 0xFFFFFFFFFFFFFFFFFFFFFFFFFFFFFFFFFFFFFFFF AND DUP2 MSTORE POP SWAP1 POP PUSH0 DUP2 SWAP1 DUP1 PUSH1 0x1 DUP2 SLOAD ADD DUP1 DUP3 SSTORE DUP1 SWAP2 POP POP PUSH1 0x1 SWAP1 SUB SWAP1 PUSH0 MSTORE PUSH1 0x20 PUSH0 KECCAK256 SWAP1 PUSH1 0x6 MUL ADD PUSH0 SWAP1 SWAP2 SWAP1 SWAP2 SWAP1 SWAP2 POP PUSH0 DUP3 ADD MLOAD DUP2 PUSH0 ADD SWAP1 DUP2 PUSH2 0xDB7 SWAP2 SWAP1 PUSH2 0x1E21 JUMP JUMPDEST POP PUSH1 0x20 DUP3 ADD MLOAD DUP2 PUSH1 0x1 ADD SWAP1 DUP2 PUSH2 0xDCD SWAP2 SWAP1 PUSH2 0x1E21 JUMP JUMPDEST POP PUSH1 0x40 DUP3 ADD MLOAD DUP2 PUSH1 0x2 ADD PUSH0 PUSH2 0x100 EXP DUP2 SLOAD DUP2 PUSH1 0xFF MUL NOT AND SWAP1 DUP4 PUSH1 0x2 DUP2 GT ISZERO PUSH2 0xDF8 JUMPI PUSH2 0xDF7 PUSH2 0x1442 JUMP JUMPDEST JUMPDEST MUL OR SWAP1 SSTORE POP PUSH1 0x60 DUP3 ADD MLOAD DUP2 PUSH1 0x3 ADD SSTORE PUSH1 0x80 DUP3 ADD MLOAD DUP2 PUSH1 0x4 ADD SSTORE PUSH1 0xA0 DUP3 ADD MLOAD DUP2 PUSH1 0x5 ADD PUSH0 PUSH2 0x100 EXP DUP2 SLOAD DUP2 PUSH20 0xFFFFFFFFFFFFFFFFFFFFFFFFFFFFFFFFFFFFFFFF MUL NOT AND SWAP1 DUP4 PUSH20 0xFFFFFFFFFFFFFFFFFFFFFFFFFFFFFFFFFFFFFFFF AND MUL OR SWAP1 SSTORE POP POP POP PUSH0 PUSH1 0x1 PUSH0 DUP1 SLOAD SWAP1 POP PUSH2 0xE6B SWAP2 SWAP1 PUSH2 0x1F1D JUMP JUMPDEST SWAP1 POP DUP1 PUSH1 0x1 PUSH0 DUP6 DUP2 MSTORE PUSH1 0x20 ADD SWAP1 DUP2 MSTORE PUSH1 0x20 ADD PUSH0 KECCAK256 DUP2 SWAP1 SSTORE POP PUSH1 0x2 DUP10 DUP10 PUSH1 0x40 MLOAD PUSH2 0xE95 SWAP3 SWAP2 SWAP1 PUSH2 0x1C69 JUMP JUMPDEST SWAP1 DUP2 MSTORE PUSH1 0x20 ADD PUSH1 0x40 MLOAD DUP1 SWAP2 SUB SWAP1 KECCAK256 DUP2 SWAP1 DUP1 PUSH1 0x1 DUP2 SLOAD ADD DUP1 DUP3 SSTORE DUP1 SWAP2 POP POP PUSH1 0x1 SWAP1 SUB SWAP1 PUSH0 MSTORE PUSH1 0x20 PUSH0 KECCAK256 ADD PUSH0 SWAP1 SWAP2 SWAP1 SWAP2 SWAP1 SWAP2 POP SSTORE PUSH32 0xFD1C7C81077A5F7CF7B5488A806182B203C0B2912896326CB9A6959FAFFBA1AF DUP10 DUP10 DUP10 DUP10 DUP9 DUP11 DUP10 CALLER PUSH1 0x40 MLOAD PUSH2 0xF04 SWAP9 SWAP8 SWAP7 SWAP6 SWAP5 SWAP4 SWAP3 SWAP2 SWAP1 PUSH2 0x1F7C JUMP JUMPDEST PUSH1 0x40 MLOAD DUP1 SWAP2 SUB SWAP1 LOG1 POP POP POP POP POP POP POP POP POP JUMP JUMPDEST PUSH0 PUSH0 DUP1 SLOAD SWAP1 POP SWAP1 POP SWAP1 JUMP JUMPDEST PUSH0 DUP1 SLOAD SWAP1 POP DUP3 LT PUSH2 0xF68 JUMPI PUSH1 0x40 MLOAD PUSH32 0x8C379A000000000000000000000000000000000000000000000000000000000 DUP2 MSTORE PUSH1 0x4 ADD PUSH2 0xF5F SWAP1 PUSH2 0x2037 JUMP JUMPDEST PUSH1 0x40 MLOAD DUP1 SWAP2 SUB SWAP1 REVERT JUMPDEST PUSH0 PUSH0 DUP4 DUP2 SLOAD DUP2 LT PUSH2 0xF7C JUMPI PUSH2 0xF7B PUSH2 0x1BB0 JUMP JUMPDEST JUMPDEST SWAP1 PUSH0 MSTORE PUSH1 0x20 PUSH0 KECCAK256 SWAP1 PUSH1 0x6 MUL ADD SWAP1 POP DUP1 PUSH1 0x5 ADD PUSH0 SWAP1 SLOAD SWAP1 PUSH2 0x100 EXP SWAP1 DIV PUSH20 0xFFFFFFFFFFFFFFFFFFFFFFFFFFFFFFFFFFFFFFFF AND PUSH20 0xFFFFFFFFFFFFFFFFFFFFFFFFFFFFFFFFFFFFFFFF AND CALLER PUSH20 0xFFFFFFFFFFFFFFFFFFFFFFFFFFFFFFFFFFFFFFFF AND EQ PUSH2 0x101B JUMPI PUSH1 0x40 MLOAD PUSH32 0x8C379A000000000000000000000000000000000000000000000000000000000 DUP2 MSTORE PUSH1 0x4 ADD PUSH2 0x1012 SWAP1 PUSH2 0x20C5 JUMP JUMPDEST PUSH1 0x40 MLOAD DUP1 SWAP2 SUB SWAP1 REVERT JUMPDEST DUP2 DUP2 PUSH1 0x2 ADD PUSH0 PUSH2 0x100 EXP DUP2 SLOAD DUP2 PUSH1 0xFF MUL NOT AND SWAP1 DUP4 PUSH1 0x2 DUP2 GT ISZERO PUSH2 0x1041 JUMPI PUSH2 0x1040 PUSH2 0x1442 JUMP JUMPDEST JUMPDEST MUL OR SWAP1 SSTORE POP PUSH2 0x10DE DUP2 PUSH0 ADD DUP1 SLOAD PUSH2 0x1057 SWAP1 PUSH2 0x1A52 JUMP JUMPDEST DUP1 PUSH1 0x1F ADD PUSH1 0x20 DUP1 SWAP2 DIV MUL PUSH1 0x20 ADD PUSH1 0x40 MLOAD SWAP1 DUP2 ADD PUSH1 0x40 MSTORE DUP1 SWAP3 SWAP2 SWAP1 DUP2 DUP2 MSTORE PUSH1 0x20 ADD DUP3 DUP1 SLOAD PUSH2 0x1083 SWAP1 PUSH2 0x1A52 JUMP JUMPDEST DUP1 ISZERO PUSH2 0x10CE JUMPI DUP1 PUSH1 0x1F LT PUSH2 0x10A5 JUMPI PUSH2 0x100 DUP1 DUP4 SLOAD DIV MUL DUP4 MSTORE SWAP2 PUSH1 0x20 ADD SWAP2 PUSH2 0x10CE JUMP JUMPDEST DUP3 ADD SWAP2 SWAP1 PUSH0 MSTORE PUSH1 0x20 PUSH0 KECCAK256 SWAP1 JUMPDEST DUP2 SLOAD DUP2 MSTORE SWAP1 PUSH1 0x1 ADD SWAP1 PUSH1 0x20 ADD DUP1 DUP4 GT PUSH2 0x10B1 JUMPI DUP3 SWAP1 SUB PUSH1 0x1F AND DUP3 ADD SWAP2 JUMPDEST POP POP POP POP POP DUP3 PUSH1 0x3 ADD SLOAD DUP5 PUSH2 0x414 JUMP JUMPDEST DUP2 PUSH1 0x4 ADD DUP2 SWAP1 SSTORE POP DUP3 PUSH1 0x1 PUSH0 DUP4 PUSH1 0x4 ADD SLOAD DUP2 MSTORE PUSH1 0x20 ADD SWAP1 DUP2 MSTORE PUSH1 0x20 ADD PUSH0 KECCAK256 DUP2 SWAP1 SSTORE POP PUSH32 0xD1CBE8D707FB13FE0AFCCA6884169D8EAF992C5EF8B0C4A0E16D17A40295E414 DUP2 PUSH0 ADD DUP4 DUP4 PUSH1 0x4 ADD SLOAD PUSH1 0x40 MLOAD PUSH2 0x1139 SWAP4 SWAP3 SWAP2 SWAP1 PUSH2 0x2164 JUMP JUMPDEST PUSH1 0x40 MLOAD DUP1 SWAP2 SUB SWAP1 LOG1 POP POP POP JUMP JUMPDEST PUSH1 0x1 PUSH1 0x20 MSTORE DUP1 PUSH0 MSTORE PUSH1 0x40 PUSH0 KECCAK256 PUSH0 SWAP2 POP SWAP1 POP SLOAD DUP2 JUMP JUMPDEST PUSH1 0x40 MLOAD DUP1 PUSH1 0xC0 ADD PUSH1 0x40 MSTORE DUP1 PUSH1 0x60 DUP2 MSTORE PUSH1 0x20 ADD PUSH1 0x60 DUP2 MSTORE PUSH1 0x20 ADD PUSH0 PUSH1 0x2 DUP2 GT ISZERO PUSH2 0x1187 JUMPI PUSH2 0x1186 PUSH2 0x1442 JUMP JUMPDEST JUMPDEST DUP2 MSTORE PUSH1 0x20 ADD PUSH0 DUP2 MSTORE PUSH1 0x20 ADD PUSH0 DUP2 MSTORE PUSH1 0x20 ADD PUSH0 PUSH20 0xFFFFFFFFFFFFFFFFFFFFFFFFFFFFFFFFFFFFFFFF AND DUP2 MSTORE POP SWAP1 JUMP JUMPDEST PUSH0 PUSH1 0x40 MLOAD SWAP1 POP SWAP1 JUMP JUMPDEST PUSH0 PUSH0 REVERT JUMPDEST PUSH0 PUSH0 REVERT JUMPDEST PUSH0 PUSH0 REVERT JUMPDEST PUSH0 PUSH0 REVERT JUMPDEST PUSH0 PUSH1 0x1F NOT PUSH1 0x1F DUP4 ADD AND SWAP1 POP SWAP2 SWAP1 POP JUMP JUMPDEST PUSH32 0x4E487B7100000000000000000000000000000000000000000000000000000000 PUSH0 MSTORE PUSH1 0x41 PUSH1 0x4 MSTORE PUSH1 0x24 PUSH0 REVERT JUMPDEST PUSH2 0x1214 DUP3 PUSH2 0x11CE JUMP JUMPDEST DUP2 ADD DUP2 DUP2 LT PUSH8 0xFFFFFFFFFFFFFFFF DUP3 GT OR ISZERO PUSH2 0x1233 JUMPI PUSH2 0x1232 PUSH2 0x11DE JUMP JUMPDEST JUMPDEST DUP1 PUSH1 0x40 MSTORE POP POP POP JUMP JUMPDEST PUSH0 PUSH2 0x1245 PUSH2 0x11B5 JUMP JUMPDEST SWAP1 POP PUSH2 0x1251 DUP3 DUP3 PUSH2 0x120B JUMP JUMPDEST SWAP2 SWAP1 POP JUMP JUMPDEST PUSH0 PUSH8 0xFFFFFFFFFFFFFFFF DUP3 GT ISZERO PUSH2 0x1270 JUMPI PUSH2 0x126F PUSH2 0x11DE JUMP JUMPDEST JUMPDEST PUSH2 0x1279 DUP3 PUSH2 0x11CE JUMP JUMPDEST SWAP1 POP PUSH1 0x20 DUP2 ADD SWAP1 POP SWAP2 SWAP1 POP JUMP JUMPDEST DUP3 DUP2 DUP4 CALLDATACOPY PUSH0 DUP4 DUP4 ADD MSTORE POP POP POP JUMP JUMPDEST PUSH0 PUSH2 0x12A6 PUSH2 0x12A1 DUP5 PUSH2 0x1256 JUMP JUMPDEST PUSH2 0x123C JUMP JUMPDEST SWAP1 POP DUP3 DUP2 MSTORE PUSH1 0x20 DUP2 ADD DUP5 DUP5 DUP5 ADD GT ISZERO PUSH2 0x12C2 JUMPI PUSH2 0x12C1 PUSH2 0x11CA JUMP JUMPDEST JUMPDEST PUSH2 0x12CD DUP5 DUP3 DUP6 PUSH2 0x1286 JUMP JUMPDEST POP SWAP4 SWAP3 POP POP POP JUMP JUMPDEST PUSH0 DUP3 PUSH1 0x1F DUP4 ADD SLT PUSH2 0x12E9 JUMPI PUSH2 0x12E8 PUSH2 0x11C6 JUMP JUMPDEST JUMPDEST DUP2 CALLDATALOAD PUSH2 0x12F9 DUP5 DUP3 PUSH1 0x20 DUP7 ADD PUSH2 0x1294 JUMP JUMPDEST SWAP2 POP POP SWAP3 SWAP2 POP POP JUMP JUMPDEST PUSH0 DUP2 SWAP1 POP SWAP2 SWAP1 POP JUMP JUMPDEST PUSH2 0x1314 DUP2 PUSH2 0x1302 JUMP JUMPDEST DUP2 EQ PUSH2 0x131E JUMPI PUSH0 PUSH0 REVERT JUMPDEST POP JUMP JUMPDEST PUSH0 DUP2 CALLDATALOAD SWAP1 POP PUSH2 0x132F DUP2 PUSH2 0x130B JUMP JUMPDEST SWAP3 SWAP2 POP POP JUMP JUMPDEST PUSH0 PUSH0 PUSH1 0x40 DUP4 DUP6 SUB SLT ISZERO PUSH2 0x134B JUMPI PUSH2 0x134A PUSH2 0x11BE JUMP JUMPDEST JUMPDEST PUSH0 DUP4 ADD CALLDATALOAD PUSH8 0xFFFFFFFFFFFFFFFF DUP2 GT ISZERO PUSH2 0x1368 JUMPI PUSH2 0x1367 PUSH2 0x11C2 JUMP JUMPDEST JUMPDEST PUSH2 0x1374 DUP6 DUP3 DUP7 ADD PUSH2 0x12D5 JUMP JUMPDEST SWAP3 POP POP PUSH1 0x20 PUSH2 0x1385 DUP6 DUP3 DUP7 ADD PUSH2 0x1321 JUMP JUMPDEST SWAP2 POP POP SWAP3 POP SWAP3 SWAP1 POP JUMP JUMPDEST PUSH2 0x1398 DUP2 PUSH2 0x1302 JUMP JUMPDEST DUP3 MSTORE POP POP JUMP JUMPDEST PUSH0 PUSH1 0x20 DUP3 ADD SWAP1 POP PUSH2 0x13B1 PUSH0 DUP4 ADD DUP5 PUSH2 0x138F JUMP JUMPDEST SWAP3 SWAP2 POP POP JUMP JUMPDEST PUSH0 PUSH1 0x20 DUP3 DUP5 SUB SLT ISZERO PUSH2 0x13CC JUMPI PUSH2 0x13CB PUSH2 0x11BE JUMP JUMPDEST JUMPDEST PUSH0 PUSH2 0x13D9 DUP5 DUP3 DUP6 ADD PUSH2 0x1321 JUMP JUMPDEST SWAP2 POP POP SWAP3 SWAP2 POP POP JUMP JUMPDEST PUSH0 DUP2 MLOAD SWAP1 POP SWAP2 SWAP1 POP JUMP JUMPDEST PUSH0 DUP3 DUP3 MSTORE PUSH1 0x20 DUP3 ADD SWAP1 POP SWAP3 SWAP2 POP POP JUMP JUMPDEST DUP3 DUP2 DUP4 MCOPY PUSH0 DUP4 DUP4 ADD MSTORE POP POP POP JUMP JUMPDEST PUSH0 PUSH2 0x1414 DUP3 PUSH2 0x13E2 JUMP JUMPDEST PUSH2 0x141E DUP2 DUP6 PUSH2 0x13EC JUMP JUMPDEST SWAP4 POP PUSH2 0x142E DUP2 DUP6 PUSH1 0x20 DUP7 ADD PUSH2 0x13FC JUMP JUMPDEST PUSH2 0x1437 DUP2 PUSH2 0x11CE JUMP JUMPDEST DUP5 ADD SWAP2 POP POP SWAP3 SWAP2 POP POP JUMP JUMPDEST PUSH32 0x4E487B7100000000000000000000000000000000000000000000000000000000 PUSH0 MSTORE PUSH1 0x21 PUSH1 0x4 MSTORE PUSH1 0x24 PUSH0 REVERT JUMPDEST PUSH1 0x3 DUP2 LT PUSH2 0x1480 JUMPI PUSH2 0x147F PUSH2 0x1442 JUMP JUMPDEST JUMPDEST POP JUMP JUMPDEST PUSH0 DUP2 SWAP1 POP PUSH2 0x1490 DUP3 PUSH2 0x146F JUMP JUMPDEST SWAP2 SWAP1 POP JUMP JUMPDEST PUSH0 PUSH2 0x149F DUP3 PUSH2 0x1483 JUMP JUMPDEST SWAP1 POP SWAP2 SWAP1 POP JUMP JUMPDEST PUSH2 0x14AF DUP2 PUSH2 0x1495 JUMP JUMPDEST DUP3 MSTORE POP POP JUMP JUMPDEST PUSH0 DUP2 SWAP1 POP SWAP2 SWAP1 POP JUMP JUMPDEST PUSH2 0x14C7 DUP2 PUSH2 0x14B5 JUMP JUMPDEST DUP3 MSTORE POP POP JUMP JUMPDEST PUSH0 PUSH20 0xFFFFFFFFFFFFFFFFFFFFFFFFFFFFFFFFFFFFFFFF DUP3 AND SWAP1 POP SWAP2 SWAP1 POP JUMP JUMPDEST PUSH0 PUSH2 0x14F6 DUP3 PUSH2 0x14CD JUMP JUMPDEST SWAP1 POP SWAP2 SWAP1 POP JUMP JUMPDEST PUSH2 0x1506 DUP2 PUSH2 0x14EC JUMP JUMPDEST DUP3 MSTORE POP POP JUMP JUMPDEST PUSH0 PUSH1 0xC0 DUP3 ADD SWAP1 POP DUP2 DUP2 SUB PUSH0 DUP4 ADD MSTORE PUSH2 0x1524 DUP2 DUP10 PUSH2 0x140A JUMP JUMPDEST SWAP1 POP DUP2 DUP2 SUB PUSH1 0x20 DUP4 ADD MSTORE PUSH2 0x1538 DUP2 DUP9 PUSH2 0x140A JUMP JUMPDEST SWAP1 POP PUSH2 0x1547 PUSH1 0x40 DUP4 ADD DUP8 PUSH2 0x14A6 JUMP JUMPDEST PUSH2 0x1554 PUSH1 0x60 DUP4 ADD DUP7 PUSH2 0x138F JUMP JUMPDEST PUSH2 0x1561 PUSH1 0x80 DUP4 ADD DUP6 PUSH2 0x14BE JUMP JUMPDEST PUSH2 0x156E PUSH1 0xA0 DUP4 ADD DUP5 PUSH2 0x14FD JUMP JUMPDEST SWAP8 SWAP7 POP POP POP POP POP POP POP JUMP JUMPDEST PUSH1 0x3 DUP2 LT PUSH2 0x1585 JUMPI PUSH0 PUSH0 REVERT JUMPDEST POP JUMP JUMPDEST PUSH0 DUP2 CALLDATALOAD SWAP1 POP PUSH2 0x1596 DUP2 PUSH2 0x1579 JUMP JUMPDEST SWAP3 SWAP2 POP POP JUMP JUMPDEST PUSH0 PUSH0 PUSH0 PUSH1 0x60 DUP5 DUP7 SUB SLT ISZERO PUSH2 0x15B3 JUMPI PUSH2 0x15B2 PUSH2 0x11BE JUMP JUMPDEST JUMPDEST PUSH0 DUP5 ADD CALLDATALOAD PUSH8 0xFFFFFFFFFFFFFFFF DUP2 GT ISZERO PUSH2 0x15D0 JUMPI PUSH2 0x15CF PUSH2 0x11C2 JUMP JUMPDEST JUMPDEST PUSH2 0x15DC DUP7 DUP3 DUP8 ADD PUSH2 0x12D5 JUMP JUMPDEST SWAP4 POP POP PUSH1 0x20 PUSH2 0x15ED DUP7 DUP3 DUP8 ADD PUSH2 0x1321 JUMP JUMPDEST SWAP3 POP POP PUSH1 0x40 PUSH2 0x15FE DUP7 DUP3 DUP8 ADD PUSH2 0x1588 JUMP JUMPDEST SWAP2 POP POP SWAP3 POP SWAP3 POP SWAP3 JUMP JUMPDEST PUSH0 PUSH1 0x20 DUP3 ADD SWAP1 POP PUSH2 0x161B PUSH0 DUP4 ADD DUP5 PUSH2 0x14BE JUMP JUMPDEST SWAP3 SWAP2 POP POP JUMP JUMPDEST PUSH2 0x162A DUP2 PUSH2 0x14B5 JUMP JUMPDEST DUP2 EQ PUSH2 0x1634 JUMPI PUSH0 PUSH0 REVERT JUMPDEST POP JUMP JUMPDEST PUSH0 DUP2 CALLDATALOAD SWAP1 POP PUSH2 0x1645 DUP2 PUSH2 0x1621 JUMP JUMPDEST SWAP3 SWAP2 POP POP JUMP JUMPDEST PUSH0 PUSH1 0x20 DUP3 DUP5 SUB SLT ISZERO PUSH2 0x1660 JUMPI PUSH2 0x165F PUSH2 0x11BE JUMP JUMPDEST JUMPDEST PUSH0 PUSH2 0x166D DUP5 DUP3 DUP6 ADD PUSH2 0x1637 JUMP JUMPDEST SWAP2 POP POP SWAP3 SWAP2 POP POP JUMP JUMPDEST PUSH0 PUSH1 0xA0 DUP3 ADD SWAP1 POP DUP2 DUP2 SUB PUSH0 DUP4 ADD MSTORE PUSH2 0x168E DUP2 DUP9 PUSH2 0x140A JUMP JUMPDEST SWAP1 POP DUP2 DUP2 SUB PUSH1 0x20 DUP4 ADD MSTORE PUSH2 0x16A2 DUP2 DUP8 PUSH2 0x140A JUMP JUMPDEST SWAP1 POP PUSH2 0x16B1 PUSH1 0x40 DUP4 ADD DUP7 PUSH2 0x14A6 JUMP JUMPDEST PUSH2 0x16BE PUSH1 0x60 DUP4 ADD DUP6 PUSH2 0x138F JUMP JUMPDEST PUSH2 0x16CB PUSH1 0x80 DUP4 ADD DUP5 PUSH2 0x14FD JUMP JUMPDEST SWAP7 SWAP6 POP POP POP POP POP POP JUMP JUMPDEST PUSH0 PUSH0 REVERT JUMPDEST PUSH0 PUSH0 REVERT JUMPDEST PUSH0 PUSH0 DUP4 PUSH1 0x1F DUP5 ADD SLT PUSH2 0x16F2 JUMPI PUSH2 0x16F1 PUSH2 0x11C6 JUMP JUMPDEST JUMPDEST DUP3 CALLDATALOAD SWAP1 POP PUSH8 0xFFFFFFFFFFFFFFFF DUP2 GT ISZERO PUSH2 0x170F JUMPI PUSH2 0x170E PUSH2 0x16D5 JUMP JUMPDEST JUMPDEST PUSH1 0x20 DUP4 ADD SWAP2 POP DUP4 PUSH1 0x1 DUP3 MUL DUP4 ADD GT ISZERO PUSH2 0x172B JUMPI PUSH2 0x172A PUSH2 0x16D9 JUMP JUMPDEST JUMPDEST SWAP3 POP SWAP3 SWAP1 POP JUMP JUMPDEST PUSH0 PUSH0 PUSH1 0x20 DUP4 DUP6 SUB SLT ISZERO PUSH2 0x1748 JUMPI PUSH2 0x1747 PUSH2 0x11BE JUMP JUMPDEST JUMPDEST PUSH0 DUP4 ADD CALLDATALOAD PUSH8 0xFFFFFFFFFFFFFFFF DUP2 GT ISZERO PUSH2 0x1765 JUMPI PUSH2 0x1764 PUSH2 0x11C2 JUMP JUMPDEST JUMPDEST PUSH2 0x1771 DUP6 DUP3 DUP7 ADD PUSH2 0x16DD JUMP JUMPDEST SWAP3 POP SWAP3 POP POP SWAP3 POP SWAP3 SWAP1 POP JUMP JUMPDEST PUSH0 DUP2 MLOAD SWAP1 POP SWAP2 SWAP1 POP JUMP JUMPDEST PUSH0 DUP3 DUP3 MSTORE PUSH1 0x20 DUP3 ADD SWAP1 POP SWAP3 SWAP2 POP POP JUMP JUMPDEST PUSH0 DUP2 SWAP1 POP PUSH1 0x20 DUP3 ADD SWAP1 POP SWAP2 SWAP1 POP JUMP JUMPDEST PUSH0 DUP3 DUP3 MSTORE PUSH1 0x20 DUP3 ADD SWAP1 POP SWAP3 SWAP2 POP POP JUMP JUMPDEST PUSH0 PUSH2 0x17C0 DUP3 PUSH2 0x13E2 JUMP JUMPDEST PUSH2 0x17CA DUP2 DUP6 PUSH2 0x17A6 JUMP JUMPDEST SWAP4 POP PUSH2 0x17DA DUP2 DUP6 PUSH1 0x20 DUP7 ADD PUSH2 0x13FC JUMP JUMPDEST PUSH2 0x17E3 DUP2 PUSH2 0x11CE JUMP JUMPDEST DUP5 ADD SWAP2 POP POP SWAP3 SWAP2 POP POP JUMP JUMPDEST PUSH2 0x17F7 DUP2 PUSH2 0x1495 JUMP JUMPDEST DUP3 MSTORE POP POP JUMP JUMPDEST PUSH2 0x1806 DUP2 PUSH2 0x1302 JUMP JUMPDEST DUP3 MSTORE POP POP JUMP JUMPDEST PUSH2 0x1815 DUP2 PUSH2 0x14B5 JUMP JUMPDEST DUP3 MSTORE POP POP JUMP JUMPDEST PUSH2 0x1824 DUP2 PUSH2 0x14EC JUMP JUMPDEST DUP3 MSTORE POP POP JUMP JUMPDEST PUSH0 PUSH1 0xC0 DUP4 ADD PUSH0 DUP4 ADD MLOAD DUP5 DUP3 SUB PUSH0 DUP7 ADD MSTORE PUSH2 0x1844 DUP3 DUP3 PUSH2 0x17B6 JUMP JUMPDEST SWAP2 POP POP PUSH1 0x20 DUP4 ADD MLOAD DUP5 DUP3 SUB PUSH1 0x20 DUP7 ADD MSTORE PUSH2 0x185E DUP3 DUP3 PUSH2 0x17B6 JUMP JUMPDEST SWAP2 POP POP PUSH1 0x40 DUP4 ADD MLOAD PUSH2 0x1873 PUSH1 0x40 DUP7 ADD DUP3 PUSH2 0x17EE JUMP JUMPDEST POP PUSH1 0x60 DUP4 ADD MLOAD PUSH2 0x1886 PUSH1 0x60 DUP7 ADD DUP3 PUSH2 0x17FD JUMP JUMPDEST POP PUSH1 0x80 DUP4 ADD MLOAD PUSH2 0x1899 PUSH1 0x80 DUP7 ADD DUP3 PUSH2 0x180C JUMP JUMPDEST POP PUSH1 0xA0 DUP4 ADD MLOAD PUSH2 0x18AC PUSH1 0xA0 DUP7 ADD DUP3 PUSH2 0x181B JUMP JUMPDEST POP DUP1 SWAP2 POP POP SWAP3 SWAP2 POP POP JUMP JUMPDEST PUSH0 PUSH2 0x18C2 DUP4 DUP4 PUSH2 0x182A JUMP JUMPDEST SWAP1 POP SWAP3 SWAP2 POP POP JUMP JUMPDEST PUSH0 PUSH1 0x20 DUP3 ADD SWAP1 POP SWAP2 SWAP1 POP JUMP JUMPDEST PUSH0 PUSH2 0x18E0 DUP3 PUSH2 0x177D JUMP JUMPDEST PUSH2 0x18EA DUP2 DUP6 PUSH2 0x1787 JUMP JUMPDEST SWAP4 POP DUP4 PUSH1 0x20 DUP3 MUL DUP6 ADD PUSH2 0x18FC DUP6 PUSH2 0x1797 JUMP JUMPDEST DUP1 PUSH0 JUMPDEST DUP6 DUP2 LT ISZERO PUSH2 0x1937 JUMPI DUP5 DUP5 SUB DUP10 MSTORE DUP2 MLOAD PUSH2 0x1918 DUP6 DUP3 PUSH2 0x18B7 JUMP JUMPDEST SWAP5 POP PUSH2 0x1923 DUP4 PUSH2 0x18CA JUMP JUMPDEST SWAP3 POP PUSH1 0x20 DUP11 ADD SWAP10 POP POP PUSH1 0x1 DUP2 ADD SWAP1 POP PUSH2 0x18FF JUMP JUMPDEST POP DUP3 SWAP8 POP DUP8 SWAP6 POP POP POP POP POP POP SWAP3 SWAP2 POP POP JUMP JUMPDEST PUSH0 PUSH1 0x20 DUP3 ADD SWAP1 POP DUP2 DUP2 SUB PUSH0 DUP4 ADD MSTORE PUSH2 0x1961 DUP2 DUP5 PUSH2 0x18D6 JUMP JUMPDEST SWAP1 POP SWAP3 SWAP2 POP POP JUMP JUMPDEST PUSH0 PUSH0 PUSH0 PUSH0 PUSH1 0x40 DUP6 DUP8 SUB SLT ISZERO PUSH2 0x1981 JUMPI PUSH2 0x1980 PUSH2 0x11BE JUMP JUMPDEST JUMPDEST PUSH0 DUP6 ADD CALLDATALOAD PUSH8 0xFFFFFFFFFFFFFFFF DUP2 GT ISZERO PUSH2 0x199E JUMPI PUSH2 0x199D PUSH2 0x11C2 JUMP JUMPDEST JUMPDEST PUSH2 0x19AA DUP8 DUP3 DUP9 ADD PUSH2 0x16DD JUMP JUMPDEST SWAP5 POP SWAP5 POP POP PUSH1 0x20 DUP6 ADD CALLDATALOAD PUSH8 0xFFFFFFFFFFFFFFFF DUP2 GT ISZERO PUSH2 0x19CD JUMPI PUSH2 0x19CC PUSH2 0x11C2 JUMP JUMPDEST JUMPDEST PUSH2 0x19D9 DUP8 DUP3 DUP9 ADD PUSH2 0x16DD JUMP JUMPDEST SWAP3 POP SWAP3 POP POP SWAP3 SWAP6 SWAP2 SWAP5 POP SWAP3 POP JUMP JUMPDEST PUSH0 PUSH0 PUSH1 0x40 DUP4 DUP6 SUB SLT ISZERO PUSH2 0x19FD JUMPI PUSH2 0x19FC PUSH2 0x11BE JUMP JUMPDEST JUMPDEST PUSH0 PUSH2 0x1A0A DUP6 DUP3 DUP7 ADD PUSH2 0x1321 JUMP JUMPDEST SWAP3 POP POP PUSH1 0x20 PUSH2 0x1A1B DUP6 DUP3 DUP7 ADD PUSH2 0x1588 JUMP JUMPDEST SWAP2 POP POP SWAP3 POP SWAP3 SWAP1 POP JUMP JUMPDEST PUSH32 0x4E487B7100000000000000000000000000000000000000000000000000000000 PUSH0 MSTORE PUSH1 0x22 PUSH1 0x4 MSTORE PUSH1 0x24 PUSH0 REVERT JUMPDEST PUSH0 PUSH1 0x2 DUP3 DIV SWAP1 POP PUSH1 0x1 DUP3 AND DUP1 PUSH2 0x1A69 JUMPI PUSH1 0x7F DUP3 AND SWAP2 POP JUMPDEST PUSH1 0x20 DUP3 LT DUP2 SUB PUSH2 0x1A7C JUMPI PUSH2 0x1A7B PUSH2 0x1A25 JUMP JUMPDEST JUMPDEST POP SWAP2 SWAP1 POP JUMP JUMPDEST PUSH0 DUP2 SWAP1 POP SWAP3 SWAP2 POP POP JUMP JUMPDEST PUSH0 PUSH2 0x1A96 DUP3 PUSH2 0x13E2 JUMP JUMPDEST PUSH2 0x1AA0 DUP2 DUP6 PUSH2 0x1A82 JUMP JUMPDEST SWAP4 POP PUSH2 0x1AB0 DUP2 DUP6 PUSH1 0x20 DUP7 ADD PUSH2 0x13FC JUMP JUMPDEST DUP1 DUP5 ADD SWAP2 POP POP SWAP3 SWAP2 POP POP JUMP JUMPDEST PUSH0 DUP2 SWAP1 POP SWAP2 SWAP1 POP JUMP JUMPDEST PUSH2 0x1AD6 PUSH2 0x1AD1 DUP3 PUSH2 0x1302 JUMP JUMPDEST PUSH2 0x1ABC JUMP JUMPDEST DUP3 MSTORE POP POP JUMP JUMPDEST PUSH0 DUP2 PUSH1 0xF8 SHL SWAP1 POP SWAP2 SWAP1 POP JUMP JUMPDEST PUSH0 PUSH2 0x1AF2 DUP3 PUSH2 0x1ADC JUMP JUMPDEST SWAP1 POP SWAP2 SWAP1 POP JUMP JUMPDEST PUSH2 0x1B0A PUSH2 0x1B05 DUP3 PUSH2 0x1495 JUMP JUMPDEST PUSH2 0x1AE8 JUMP JUMPDEST DUP3 MSTORE POP POP JUMP JUMPDEST PUSH0 PUSH2 0x1B1B DUP3 DUP7 PUSH2 0x1A8C JUMP JUMPDEST SWAP2 POP PUSH2 0x1B27 DUP3 DUP6 PUSH2 0x1AC5 JUMP JUMPDEST PUSH1 0x20 DUP3 ADD SWAP2 POP PUSH2 0x1B37 DUP3 DUP5 PUSH2 0x1AF9 JUMP JUMPDEST PUSH1 0x1 DUP3 ADD SWAP2 POP DUP2 SWAP1 POP SWAP5 SWAP4 POP POP POP POP JUMP JUMPDEST PUSH32 0x496E6469636520696E766169646F000000000000000000000000000000000000 PUSH0 DUP3 ADD MSTORE POP JUMP JUMPDEST PUSH0 PUSH2 0x1B7C PUSH1 0xE DUP4 PUSH2 0x13EC JUMP JUMPDEST SWAP2 POP PUSH2 0x1B87 DUP3 PUSH2 0x1B48 JUMP JUMPDEST PUSH1 0x20 DUP3 ADD SWAP1 POP SWAP2 SWAP1 POP JUMP JUMPDEST PUSH0 PUSH1 0x20 DUP3 ADD SWAP1 POP DUP2 DUP2 SUB PUSH0 DUP4 ADD MSTORE PUSH2 0x1BA9 DUP2 PUSH2 0x1B70 JUMP JUMPDEST SWAP1 POP SWAP2 SWAP1 POP JUMP JUMPDEST PUSH32 0x4E487B7100000000000000000000000000000000000000000000000000000000 PUSH0 MSTORE PUSH1 0x32 PUSH1 0x4 MSTORE PUSH1 0x24 PUSH0 REVERT JUMPDEST PUSH32 0x4E6F20736520656E636F6E74726F206C61207461726561000000000000000000 PUSH0 DUP3 ADD MSTORE POP JUMP JUMPDEST PUSH0 PUSH2 0x1C11 PUSH1 0x17 DUP4 PUSH2 0x13EC JUMP JUMPDEST SWAP2 POP PUSH2 0x1C1C DUP3 PUSH2 0x1BDD JUMP JUMPDEST PUSH1 0x20 DUP3 ADD SWAP1 POP SWAP2 SWAP1 POP JUMP JUMPDEST PUSH0 PUSH1 0x20 DUP3 ADD SWAP1 POP DUP2 DUP2 SUB PUSH0 DUP4 ADD MSTORE PUSH2 0x1C3E DUP2 PUSH2 0x1C05 JUMP JUMPDEST SWAP1 POP SWAP2 SWAP1 POP JUMP JUMPDEST PUSH0 PUSH2 0x1C50 DUP4 DUP6 PUSH2 0x1A82 JUMP JUMPDEST SWAP4 POP PUSH2 0x1C5D DUP4 DUP6 DUP5 PUSH2 0x1286 JUMP JUMPDEST DUP3 DUP5 ADD SWAP1 POP SWAP4 SWAP3 POP POP POP JUMP JUMPDEST PUSH0 PUSH2 0x1C75 DUP3 DUP5 DUP7 PUSH2 0x1C45 JUMP JUMPDEST SWAP2 POP DUP2 SWAP1 POP SWAP4 SWAP3 POP POP POP JUMP JUMPDEST PUSH0 DUP2 SWAP1 POP DUP2 PUSH0 MSTORE PUSH1 0x20 PUSH0 KECCAK256 SWAP1 POP SWAP2 SWAP1 POP JUMP JUMPDEST PUSH0 PUSH1 0x20 PUSH1 0x1F DUP4 ADD DIV SWAP1 POP SWAP2 SWAP1 POP JUMP JUMPDEST PUSH0 DUP3 DUP3 SHL SWAP1 POP SWAP3 SWAP2 POP POP JUMP JUMPDEST PUSH0 PUSH1 0x8 DUP4 MUL PUSH2 0x1CDD PUSH32 0xFFFFFFFFFFFFFFFFFFFFFFFFFFFFFFFFFFFFFFFFFFFFFFFFFFFFFFFFFFFFFFFF DUP3 PUSH2 0x1CA2 JUMP JUMPDEST PUSH2 0x1CE7 DUP7 DUP4 PUSH2 0x1CA2 JUMP JUMPDEST SWAP6 POP DUP1 NOT DUP5 AND SWAP4 POP DUP1 DUP7 AND DUP5 OR SWAP3 POP POP POP SWAP4 SWAP3 POP POP POP JUMP JUMPDEST PUSH0 DUP2 SWAP1 POP SWAP2 SWAP1 POP JUMP JUMPDEST PUSH0 PUSH2 0x1D22 PUSH2 0x1D1D PUSH2 0x1D18 DUP5 PUSH2 0x1302 JUMP JUMPDEST PUSH2 0x1CFF JUMP JUMPDEST PUSH2 0x1302 JUMP JUMPDEST SWAP1 POP SWAP2 SWAP1 POP JUMP JUMPDEST PUSH0 DUP2 SWAP1 POP SWAP2 SWAP1 POP JUMP JUMPDEST PUSH2 0x1D3B DUP4 PUSH2 0x1D08 JUMP JUMPDEST PUSH2 0x1D4F PUSH2 0x1D47 DUP3 PUSH2 0x1D29 JUMP JUMPDEST DUP5 DUP5 SLOAD PUSH2 0x1CAE JUMP JUMPDEST DUP3 SSTORE POP POP POP POP JUMP JUMPDEST PUSH0 PUSH0 SWAP1 POP SWAP1 JUMP JUMPDEST PUSH2 0x1D66 PUSH2 0x1D57 JUMP JUMPDEST PUSH2 0x1D71 DUP2 DUP5 DUP5 PUSH2 0x1D32 JUMP JUMPDEST POP POP POP JUMP JUMPDEST JUMPDEST DUP2 DUP2 LT ISZERO PUSH2 0x1D94 JUMPI PUSH2 0x1D89 PUSH0 DUP3 PUSH2 0x1D5E JUMP JUMPDEST PUSH1 0x1 DUP2 ADD SWAP1 POP PUSH2 0x1D77 JUMP JUMPDEST POP POP JUMP JUMPDEST PUSH1 0x1F DUP3 GT ISZERO PUSH2 0x1DD9 JUMPI PUSH2 0x1DAA DUP2 PUSH2 0x1C81 JUMP JUMPDEST PUSH2 0x1DB3 DUP5 PUSH2 0x1C93 JUMP JUMPDEST DUP2 ADD PUSH1 0x20 DUP6 LT ISZERO PUSH2 0x1DC2 JUMPI DUP2 SWAP1 POP JUMPDEST PUSH2 0x1DD6 PUSH2 0x1DCE DUP6 PUSH2 0x1C93 JUMP JUMPDEST DUP4 ADD DUP3 PUSH2 0x1D76 JUMP JUMPDEST POP POP JUMPDEST POP POP POP JUMP JUMPDEST PUSH0 DUP3 DUP3 SHR SWAP1 POP SWAP3 SWAP2 POP POP JUMP JUMPDEST PUSH0 PUSH2 0x1DF9 PUSH0 NOT DUP5 PUSH1 0x8 MUL PUSH2 0x1DDE JUMP JUMPDEST NOT DUP1 DUP4 AND SWAP2 POP POP SWAP3 SWAP2 POP POP JUMP JUMPDEST PUSH0 PUSH2 0x1E11 DUP4 DUP4 PUSH2 0x1DEA JUMP JUMPDEST SWAP2 POP DUP3 PUSH1 0x2 MUL DUP3 OR SWAP1 POP SWAP3 SWAP2 POP POP JUMP JUMPDEST PUSH2 0x1E2A DUP3 PUSH2 0x13E2 JUMP JUMPDEST PUSH8 0xFFFFFFFFFFFFFFFF DUP2 GT ISZERO PUSH2 0x1E43 JUMPI PUSH2 0x1E42 PUSH2 0x11DE JUMP JUMPDEST JUMPDEST PUSH2 0x1E4D DUP3 SLOAD PUSH2 0x1A52 JUMP JUMPDEST PUSH2 0x1E58 DUP3 DUP3 DUP6 PUSH2 0x1D98 JUMP JUMPDEST PUSH0 PUSH1 0x20 SWAP1 POP PUSH1 0x1F DUP4 GT PUSH1 0x1 DUP2 EQ PUSH2 0x1E89 JUMPI PUSH0 DUP5 ISZERO PUSH2 0x1E77 JUMPI DUP3 DUP8 ADD MLOAD SWAP1 POP JUMPDEST PUSH2 0x1E81 DUP6 DUP3 PUSH2 0x1E06 JUMP JUMPDEST DUP7 SSTORE POP PUSH2 0x1EE8 JUMP JUMPDEST PUSH1 0x1F NOT DUP5 AND PUSH2 0x1E97 DUP7 PUSH2 0x1C81 JUMP JUMPDEST PUSH0 JUMPDEST DUP3 DUP2 LT ISZERO PUSH2 0x1EBE JUMPI DUP5 DUP10 ADD MLOAD DUP3 SSTORE PUSH1 0x1 DUP3 ADD SWAP2 POP PUSH1 0x20 DUP6 ADD SWAP5 POP PUSH1 0x20 DUP2 ADD SWAP1 POP PUSH2 0x1E99 JUMP JUMPDEST DUP7 DUP4 LT ISZERO PUSH2 0x1EDB JUMPI DUP5 DUP10 ADD MLOAD PUSH2 0x1ED7 PUSH1 0x1F DUP10 AND DUP3 PUSH2 0x1DEA JUMP JUMPDEST DUP4 SSTORE POP JUMPDEST PUSH1 0x1 PUSH1 0x2 DUP9 MUL ADD DUP9 SSTORE POP POP POP JUMPDEST POP POP POP POP POP POP JUMP JUMPDEST PUSH32 0x4E487B7100000000000000000000000000000000000000000000000000000000 PUSH0 MSTORE PUSH1 0x11 PUSH1 0x4 MSTORE PUSH1 0x24 PUSH0 REVERT JUMPDEST PUSH0 PUSH2 0x1F27 DUP3 PUSH2 0x1302 JUMP JUMPDEST SWAP2 POP PUSH2 0x1F32 DUP4 PUSH2 0x1302 JUMP JUMPDEST SWAP3 POP DUP3 DUP3 SUB SWAP1 POP DUP2 DUP2 GT ISZERO PUSH2 0x1F4A JUMPI PUSH2 0x1F49 PUSH2 0x1EF0 JUMP JUMPDEST JUMPDEST SWAP3 SWAP2 POP POP JUMP JUMPDEST PUSH0 PUSH2 0x1F5B DUP4 DUP6 PUSH2 0x13EC JUMP JUMPDEST SWAP4 POP PUSH2 0x1F68 DUP4 DUP6 DUP5 PUSH2 0x1286 JUMP JUMPDEST PUSH2 0x1F71 DUP4 PUSH2 0x11CE JUMP JUMPDEST DUP5 ADD SWAP1 POP SWAP4 SWAP3 POP POP POP JUMP JUMPDEST PUSH0 PUSH1 0xC0 DUP3 ADD SWAP1 POP DUP2 DUP2 SUB PUSH0 DUP4 ADD MSTORE PUSH2 0x1F95 DUP2 DUP11 DUP13 PUSH2 0x1F50 JUMP JUMPDEST SWAP1 POP DUP2 DUP2 SUB PUSH1 0x20 DUP4 ADD MSTORE PUSH2 0x1FAA DUP2 DUP9 DUP11 PUSH2 0x1F50 JUMP JUMPDEST SWAP1 POP PUSH2 0x1FB9 PUSH1 0x40 DUP4 ADD DUP8 PUSH2 0x14A6 JUMP JUMPDEST PUSH2 0x1FC6 PUSH1 0x60 DUP4 ADD DUP7 PUSH2 0x138F JUMP JUMPDEST PUSH2 0x1FD3 PUSH1 0x80 DUP4 ADD DUP6 PUSH2 0x14BE JUMP JUMPDEST PUSH2 0x1FE0 PUSH1 0xA0 DUP4 ADD DUP5 PUSH2 0x14FD JUMP JUMPDEST SWAP10 SWAP9 POP POP POP POP POP POP POP POP POP JUMP JUMPDEST PUSH32 0x496E6469636520696E76616C69646F0000000000000000000000000000000000 PUSH0 DUP3 ADD MSTORE POP JUMP JUMPDEST PUSH0 PUSH2 0x2021 PUSH1 0xF DUP4 PUSH2 0x13EC JUMP JUMPDEST SWAP2 POP PUSH2 0x202C DUP3 PUSH2 0x1FED JUMP JUMPDEST PUSH1 0x20 DUP3 ADD SWAP1 POP SWAP2 SWAP1 POP JUMP JUMPDEST PUSH0 PUSH1 0x20 DUP3 ADD SWAP1 POP DUP2 DUP2 SUB PUSH0 DUP4 ADD MSTORE PUSH2 0x204E DUP2 PUSH2 0x2015 JUMP JUMPDEST SWAP1 POP SWAP2 SWAP1 POP JUMP JUMPDEST PUSH32 0x536F6C6F20656C2063726561646F7220707565646520656469746172206C6120 PUSH0 DUP3 ADD MSTORE PUSH32 0x7461726561000000000000000000000000000000000000000000000000000000 PUSH1 0x20 DUP3 ADD MSTORE POP JUMP JUMPDEST PUSH0 PUSH2 0x20AF PUSH1 0x25 DUP4 PUSH2 0x13EC JUMP JUMPDEST SWAP2 POP PUSH2 0x20BA DUP3 PUSH2 0x2055 JUMP JUMPDEST PUSH1 0x40 DUP3 ADD SWAP1 POP SWAP2 SWAP1 POP JUMP JUMPDEST PUSH0 PUSH1 0x20 DUP3 ADD SWAP1 POP DUP2 DUP2 SUB PUSH0 DUP4 ADD MSTORE PUSH2 0x20DC DUP2 PUSH2 0x20A3 JUMP JUMPDEST SWAP1 POP SWAP2 SWAP1 POP JUMP JUMPDEST PUSH0 DUP2 SLOAD PUSH2 0x20EF DUP2 PUSH2 0x1A52 JUMP JUMPDEST PUSH2 0x20F9 DUP2 DUP7 PUSH2 0x13EC JUMP JUMPDEST SWAP5 POP PUSH1 0x1 DUP3 AND PUSH0 DUP2 EQ PUSH2 0x2113 JUMPI PUSH1 0x1 DUP2 EQ PUSH2 0x2129 JUMPI PUSH2 0x215B JUMP JUMPDEST PUSH1 0xFF NOT DUP4 AND DUP7 MSTORE DUP2 ISZERO ISZERO PUSH1 0x20 MUL DUP7 ADD SWAP4 POP PUSH2 0x215B JUMP JUMPDEST PUSH2 0x2132 DUP6 PUSH2 0x1C81 JUMP JUMPDEST PUSH0 JUMPDEST DUP4 DUP2 LT ISZERO PUSH2 0x2153 JUMPI DUP2 SLOAD DUP2 DUP10 ADD MSTORE PUSH1 0x1 DUP3 ADD SWAP2 POP PUSH1 0x20 DUP2 ADD SWAP1 POP PUSH2 0x2134 JUMP JUMPDEST DUP1 DUP9 ADD SWAP6 POP POP POP JUMPDEST POP POP POP SWAP3 SWAP2 POP POP JUMP JUMPDEST PUSH0 PUSH1 0x60 DUP3 ADD SWAP1 POP DUP2 DUP2 SUB PUSH0 DUP4 ADD MSTORE PUSH2 0x217C DUP2 DUP7 PUSH2 0x20E3 JUMP JUMPDEST SWAP1 POP PUSH2 0x218B PUSH1 0x20 DUP4 ADD DUP6 PUSH2 0x14A6 JUMP JUMPDEST PUSH2 0x2198 PUSH1 0x40 DUP4 ADD DUP5 PUSH2 0x14BE JUMP JUMPDEST SWAP5 SWAP4 POP POP POP POP JUMP INVALID LOG2 PUSH5 0x6970667358 0x22 SLT KECCAK256 0xB1 SELFDESTRUCT SWAP9 0xA9 0x4C 0xED 0xC5 EXTCODEHASH PUSH15 0xB6E3C61312BBADA738033E7E0636F4 SWAP7 0xC5 SELFDESTRUCT 0x26 RETURNDATASIZE CALLF 0x520A PUSH5 0x736F6C6343 STOP ADDMOD 0x1E STOP CALLER "
				},
				"gasEstimates": {
					"creation": {
						"codeDepositCost": "1732400",
						"executionCost": "1818",
						"totalCost": "1734218"
					},
					"external": {
						"actualizarEstado(uint256,uint8)": "infinite",
						"buscarTareaPorHash(bytes32)": "infinite",
						"buscarTareasPorNombre(string)": "infinite",
						"crearTarea(string,string)": "infinite",
						"generarHashTarea(string,uint256,uint8)": "infinite",
						"indicePorHashTarea(bytes32)": "2842",
						"indicesPorNombre(string,uint256)": "infinite",
						"obtenerCantidadTareas()": "2483",
						"obtenerTareaPorIndice(uint256)": "infinite",
						"tareas(uint256)": "infinite"
					}
				},
				"methodIdentifiers": {
					"actualizarEstado(uint256,uint8)": "f019ec66",
					"buscarTareaPorHash(bytes32)": "8f496317",
					"buscarTareasPorNombre(string)": "afc6e8a6",
					"crearTarea(string,string)": "de6872d1",
					"generarHashTarea(string,uint256,uint8)": "79e4b328",
					"indicePorHashTarea(bytes32)": "fb946851",
					"indicesPorNombre(string,uint256)": "0300a225",
					"obtenerCantidadTareas()": "ef2bba6e",
					"obtenerTareaPorIndice(uint256)": "8ef1b7e4",
					"tareas(uint256)": "52154ba9"
				}
			},
			"storageLayout": {
				"storage": [
					{
						"astId": 26,
						"contract": "contracts/ListaDeTareas.sol:ListaDeTareas",
						"label": "tareas",
						"offset": 0,
						"slot": "0",
						"type": "t_array(t_struct(Tarea)22_storage)dyn_storage"
					},
					{
						"astId": 30,
						"contract": "contracts/ListaDeTareas.sol:ListaDeTareas",
						"label": "indicePorHashTarea",
						"offset": 0,
						"slot": "1",
						"type": "t_mapping(t_bytes32,t_uint256)"
					},
					{
						"astId": 35,
						"contract": "contracts/ListaDeTareas.sol:ListaDeTareas",
						"label": "indicesPorNombre",
						"offset": 0,
						"slot": "2",
						"type": "t_mapping(t_string_memory_ptr,t_array(t_uint256)dyn_storage)"
					}
				],
				"types": {
					"t_address": {
						"encoding": "inplace",
						"label": "address",
						"numberOfBytes": "20"
					},
					"t_array(t_struct(Tarea)22_storage)dyn_storage": {
						"base": "t_struct(Tarea)22_storage",
						"encoding": "dynamic_array",
						"label": "struct ListaDeTareas.Tarea[]",
						"numberOfBytes": "32"
					},
					"t_array(t_uint256)dyn_storage": {
						"base": "t_uint256",
						"encoding": "dynamic_array",
						"label": "uint256[]",
						"numberOfBytes": "32"
					},
					"t_bytes32": {
						"encoding": "inplace",
						"label": "bytes32",
						"numberOfBytes": "32"
					},
					"t_enum(EstadoTarea)7": {
						"encoding": "inplace",
						"label": "enum ListaDeTareas.EstadoTarea",
						"numberOfBytes": "1"
					},
					"t_mapping(t_bytes32,t_uint256)": {
						"encoding": "mapping",
						"key": "t_bytes32",
						"label": "mapping(bytes32 => uint256)",
						"numberOfBytes": "32",
						"value": "t_uint256"
					},
					"t_mapping(t_string_memory_ptr,t_array(t_uint256)dyn_storage)": {
						"encoding": "mapping",
						"key": "t_string_memory_ptr",
						"label": "mapping(string => uint256[])",
						"numberOfBytes": "32",
						"value": "t_array(t_uint256)dyn_storage"
					},
					"t_string_memory_ptr": {
						"encoding": "bytes",
						"label": "string",
						"numberOfBytes": "32"
					},
					"t_string_storage": {
						"encoding": "bytes",
						"label": "string",
						"numberOfBytes": "32"
					},
					"t_struct(Tarea)22_storage": {
						"encoding": "inplace",
						"label": "struct ListaDeTareas.Tarea",
						"members": [
							{
								"astId": 10,
								"contract": "contracts/ListaDeTareas.sol:ListaDeTareas",
								"label": "Nombre_De_Tarea",
								"offset": 0,
								"slot": "0",
								"type": "t_string_storage"
							},
							{
								"astId": 12,
								"contract": "contracts/ListaDeTareas.sol:ListaDeTareas",
								"label": "Descripcion_De_Tarea",
								"offset": 0,
								"slot": "1",
								"type": "t_string_storage"
							},
							{
								"astId": 15,
								"contract": "contracts/ListaDeTareas.sol:ListaDeTareas",
								"label": "estado",
								"offset": 0,
								"slot": "2",
								"type": "t_enum(EstadoTarea)7"
							},
							{
								"astId": 17,
								"contract": "contracts/ListaDeTareas.sol:ListaDeTareas",
								"label": "fecha_creacion",
								"offset": 0,
								"slot": "3",
								"type": "t_uint256"
							},
							{
								"astId": 19,
								"contract": "contracts/ListaDeTareas.sol:ListaDeTareas",
								"label": "hash_tarea",
								"offset": 0,
								"slot": "4",
								"type": "t_bytes32"
							},
							{
								"astId": 21,
								"contract": "contracts/ListaDeTareas.sol:ListaDeTareas",
								"label": "creador",
								"offset": 0,
								"slot": "5",
								"type": "t_address"
							}
						],
						"numberOfBytes": "192"
					},
					"t_uint256": {
						"encoding": "inplace",
						"label": "uint256",
						"numberOfBytes": "32"
					}
				}
			},
			"userdoc": {
				"kind": "user",
				"methods": {
					"actualizarEstado(uint256,uint8)": {
						"notice": "Cambia el estado de una tarea y actualiza su hash"
					},
					"buscarTareaPorHash(bytes32)": {
						"notice": "Busca tarea por hash_tarea"
					},
					"buscarTareasPorNombre(string)": {
						"notice": "Busca todas las tareas con un nombre específico"
					},
					"crearTarea(string,string)": {
						"notice": "Crea una nueva tarea"
					},
					"generarHashTarea(string,uint256,uint8)": {
						"notice": "Genera un hash único de la tarea con nombre, fecha y estado"
					},
					"obtenerCantidadTareas()": {
						"notice": "Devuelve la cantidad total de tareas"
					},
					"obtenerTareaPorIndice(uint256)": {
						"notice": "Devuelve una tarea por índice"
					}
				},
				"version": 1
			}
		}
	}
}